:1000000032C00000000000000000000000000000FE
:1000100000000000000000000000000000000000E0
:1000200000000000000000003DC000007EC0000095
:1000300000000000000000000000000000000000C0
:1000400000000000000000000000000000000000B0
:10005000000000000000000000000000C2C200001C
:10006000000045C2E9C111241FBECFEFDAE0CDBFC9
:10007000DEBFE2ECFAE50CE5A0E0B1E0EA30F00723
:100080001CF425902D92FACFA0E5B2E009E0A03251
:10009000B00714F41D92FBCF0E94EF0F78940E94DA
:1000A000F807E1CF1F920F920FB60F9211248F9392
:1000B0009F938091E1001092E100982F83FF13C07D
:1000C0001092E90081E08093EB001092EC0082E155
:1000D0008093ED0088E08093F00010926A01109206
:1000E0006C0110926B0192FF19C080916A01882304
:1000F00079F080917401882359F0815080937401C4
:10010000882331F484E08093E9008AE38093E80057
:1001100083E08093E90084E08093F0009F918F91C9
:100120000F900FBE0F901F9018951F920F920FB651
:100130000F9211240F931F932F933F934F935F932D
:100140006F937F938F939F93AF93BF93EF93FF939F
:100150008091F40083FF14C083E08093E9008091D4
:10016000E80082FF08C08AE192E064E776E047E0B9
:1001700050E00E94F7058091E800887F8093E800B6
:100180001092E9008091E80083FF40C14091F100A6
:100190003091F1008091F100682F70E02091F10022
:1001A000922F80E0682B792B8091F100A82FB0E08E
:1001B0002091F100922F80E0A82BB92B1091F10033
:1001C0000091F10082EF8093E800363009F05AC0C8
:1001D0002CEA34E5A90145505040F9013797859143
:1001E00094918617970701F5FA01859194918A17E2
:1001F0009B07D1F49A012E5F3F4FF90165917491ED
:100200002E5F3F4FF9014491212F30E0902F80E085
:10021000282B392B2F3F310519F010F02FEF30E04C
:10022000241758F4422F09C0295F3F4F495F5F4FA1
:10023000F4E5263D3F0789F6E9C05EEF8091E800CE
:10024000282F30E0C90185709070892BB9F322FD09
:10025000E0C0342F413108F030E1232FCB0106C03C
:10026000FC010196E491E093F10021502223C1F7B3
:10027000630F711D431B5093E8004423F9F630319E
:10028000E9F2C7C0353061F48EEF8093E8008091C9
:10029000E80080FFFCCF862F80688093E300B9C020
:1002A000393061F5442309F0B1C060936A011092BE
:1002B0006C0110926B01109274018EEF8093E80034
:1002C0008FEC94E521E02093E900FC010196E49194
:1002D000E093EB00EE2369F0AC014F5F5F4FFC0150
:1002E00084918093EC00CA010196FA013491309315
:1002F000ED002F5F253039F78EE183C0383061F48F
:10030000403809F083C08091E80080FFFCCF8091E5
:100310006A018093F10052C0313289F4413A09F008
:1003200075C08091E80080FFFCCFEDE6F1E081919F
:100330008093F10081E0E437F807C9F73FC030321D
:10034000A1F4413209F062C08091E80082FFFCCF45
:10035000EDE6F1E08091F100819381E0E437F80768
:10036000C9F78BEF8093E80029C0323261F4413243
:1003700009F04CC070936C0160936B018091E800B0
:1003800080FFFCCF1BC03323E9F48091E80080FF9D
:10039000FCCF423811F080E00DC0A093E9008091BD
:1003A000EB0090E025E0969587952A95E1F781701E
:1003B0001092E9008093F1001092F1008EEF80938B
:1003C000E80027C0313011F0333001F54230F1F44C
:1003D000672BE1F42A2F2F77822F81508430B0F4DD
:1003E0008EEF8093E8002093E900333079F089E1C3
:1003F0008093EB0081E090E002C0880F991F2A955E
:10040000E2F78093EA001092EA0003C081E2809351
:10041000EB00FF91EF91BF91AF919F918F917F91F1
:100420006F915F914F913F912F911F910F910F907D
:100430000FBE0F901F9018951F920F920FB60F923C
:1004400011242F933F934F935F936F937F938F93D9
:100450009F93AF93BF93EF93FF93209179023091D5
:100460007A0260917B0270917C02C901809590951F
:10047000860F971F8F719070892B31F481E090E087
:1004800090939E0280939D024091CE0080919D02A8
:1004900090919E02892B61F4F901E958FD4F468342
:1004A000C90101968F71907090937A0280937902BE
:1004B000261B370B2F713070232B41F484E292E01E
:1004C00064E776E047E050E00E94F705FF91EF9186
:1004D000BF91AF919F918F917F916F915F914F915C
:1004E0003F912F910F900FBE0F901F9018951F9264
:1004F0000F920FB60F9211242F933F934F935F9358
:100500006F937F938F939F93AF93BF93EF93FF93DB
:100510006EB56530F1F42091E5043091E6048091E8
:10052000E3049091E404821B930B8F709070892BED
:1005300071F0F901E753FB4F868D8EBD2F5F3F4F62
:100540002F7030703093E6042093E50439C01EBC50
:1005500037C02091CB043091CC044091CD04509110
:10056000CE04C90180959095840F951F8F7090706F
:10057000892B31F481E090E09093E0048093DF04D4
:100580008091DF049091E004892B61F4F901E75335
:10059000FB4F6683C90101968F7090709093CC04D5
:1005A0008093CB04241B350B2F703070232B41F428
:1005B0008EE292E064E776E047E050E00E94F705C3
:1005C000FF91EF91BF91AF919F918F917F916F912B
:1005D0005F914F913F912F910F900FBE0F901F9001
:1005E00018951F920F920FB60F9211242F933F93DD
:1005F0004F935F936F937F938F939F93AF93BF932B
:10060000EF93FF938091F9089091FA08A091FB086D
:10061000B091FC080196A11DB11D8093F90890933B
:10062000FA08A093FB08B093FC088CE596E060E024
:1006300070E047E050E00E948025FF91EF91BF916C
:10064000AF919F918F917F916F915F914F913F916A
:100650002F910F900FBE0F901F901895BC06CC06DF
:10066000B406BC06CC06CC06CC06CC06DC06DC0602
:10067000DC06DC06CC06D406CC06CC06DC06E4069A
:10068000E406EC06F406FC06D406DC06EC06F406EA
:10069000FC0604070000000000000000000000004D
:1006A000000000000000000000000000000000004A
:1006B00000000000000067540000000000006154CA
:1006C0000000000000009F5400000000000099544A
:1006D00000000000000018570000AD0200006D543B
:1006E00000000000000012570000AD020000FE589C
:1006F0000000000000000C580000000000009A59A3
:1007000000000000000000000707070700000000CD
:1007100000000707070700000700070700000000A8
:10072000000000000707000007070707000000009F
:1007300000000000000000000000000000000000B9
:1007400000000000000000000000000000000000A9
:1007500000000000E62FF72FA82FB92F03C0C8957F
:1007600031960D9241505040D0F708958CE596E0B7
:1007700060E070E047E050E00E948025089583B774
:10078000817F83BF83B7816083BF889583B78E7F66
:1007900083BF089500D000D088E294E5EDB7FEB79E
:1007A0009283818386E191E0948383830E94E72191
:1007B0000F900F900F900F900E94B7250E94BF03DB
:1007C000FBCF00D000D08DE594E5EDB7FEB7928366
:1007D00081838EE191E0948383830E94E72180E509
:1007E00092E0909351028093500290935302809331
:1007F00052020F900F900F900F9080E090E00895BC
:10080000AF92BF92CF92DF92EF92FF920F931F931E
:10081000CF93DF93C0915002D091510226970E8161
:100820001F8106501040E12C91E0F92EC12C82E08E
:10083000D82E4CC08091F9089091FA08A091FB083D
:10084000B091FC0828813981821B930B97FD43C02E
:100850006C817D8180E696E047E050E00E94802533
:10086000AE80BF8080E5A81682E0B806C1F0950191
:10087000265030404091F9085091FA086091FB08E9
:100880007091FC08F90180819181A281B381840F6C
:10089000951FA61FB71F80839183A283B383A8856A
:1008A000B985F501B383A283AD92BC92FF82EE823B
:1008B000D986C886CE016AE070E00E943727F80129
:1008C00086819781E8018C0106501040F2E0CA341D
:1008D000DF0709F0AFCFDF91CF911F910F91FF900C
:1008E000EF90DF90CF90BF90AF900895EF92FF927E
:1008F0000F931F93CF93DF937B018C01EA018AE072
:1009000090E00E944929FC01009709F46AC0809197
:10091000F9089091FA08A091FB08B091FC088E0D9F
:100920009F1DA01FB11F80839183A283B383D583B2
:10093000C483EFB6F894A0915002B091510282E0C6
:10094000A035B80791F5CF01069613969C938E9328
:100950001297B783A683B187A08711969C938E9335
:100960003CC020813181428153816D917D918D9177
:100970009C911397E901C61BD70BD7FF0AC0621BD6
:10098000730B840B950B6D937D938D939C931397B1
:1009900014C0261B370B480B590B2083318342832D
:1009A000538316960D90BC91A02D16978D010A5F6A
:1009B0001F4F82E000351807A1F6CF010696189662
:1009C000CD91DC91199719969C938E931897178364
:1009D0000683D187C08799838883EFBE20E030E00B
:1009E00002C024EF3FEFC901DF91CF911F910F911A
:1009F000FF90EF900895CF93DF93FC01C481D581E0
:100A0000EA81FB818E819F8109959F838E838885F2
:100A10009985AA85BB852C853D854E855F85820F8E
:100A2000931FA41FB51F8C879D87AE87BF8720911A
:100A3000F9083091FA084091FB085091FC08B9017F
:100A4000681B790B77FD09C0DA01C9010196A11D68
:100A5000B11D8C879D87AE87BF876C857D858E8510
:100A60009F85621B730B840B950BAE010E9476046D
:100A7000DF91CF910895EF92FF920F931F93CF9341
:100A8000DF93E090F908F090FA080091FB081091CC
:100A9000FC08C8E3D2E008C0EC81FD81309719F072
:100AA0008E819F810995609682E0C834D807A0F3B3
:100AB000C8E3D2E01AC06C857D858E859F856E0D5A
:100AC0007F1D801F911F6C597F4F8F4F9F4F6C87E9
:100AD0007D878E879F876E197F09800B910BAE01F2
:100AE0000E94760497FD08C0609682E0C834D8075B
:100AF00010F320E030E002C02FEF3FEFC901DF919B
:100B0000CF911F910F91FF90EF9008950F931F9336
:100B1000DF93CF93CDB7DEB72A970FB6F894DEBF39
:100B20000FBECDBFDC0114960D911C911597C80125
:100B30000896F80122853385A085B18513963C93EC
:100B40002E931297F901B183A083D80119969C9333
:100B50008E9318971B969C938E931A971696ED91E9
:100B6000FC911797CF010696268137812817390700
:100B700071F462817381CE0101964AE050E00E94D7
:100B8000AA03EF81F885309711F0C8010995F801A3
:100B9000178216822A960FB6F894DEBF0FBECDBF1D
:100BA000CF91DF911F910F910895EF92FF920F93D4
:100BB0001F93CF93DF938C01C0E1D2E00AC068811C
:100BC0007981F801808191810E949023009739F00A
:100BD0002A96F2E0C833DF0790F3C0E0D0E0CE0100
:100BE000DF91CF911F910F91FF90EF900895CF92D9
:100BF000DF92EF92FF920F931F93CF93DF937B01CE
:100C00008A01FC01C681D7812097A9F0289726E0A8
:100C1000C22ED12CC80ED91E09C0C701BE01A80121
:100C20000E9480250884D985C02D2897CE0108967A
:100C30008C159D0591F7DF91CF911F910F91FF903A
:100C4000EF90DF90CF9008958F929F92AF92BF92D6
:100C5000CF92DF92EF92FF920F931F93DF93CF9388
:100C6000CDB7DEB72A970FB6F894DEBF0FBECDBF63
:100C70004C015B018A016115710519F486E190E070
:100C800025C08CE090E00E9449296C017C0100970E
:100C900039F487E190E09093B8048093B7046AC078
:100CA000DC0111969C928E9215961C930E931497CC
:100CB0001396BC92AE9212970E94D5058C010097B4
:100CC00061F4F6011782168286E090E09093B804F2
:100CD0008093B704EE24FF244DC0D60117969C9351
:100CE0008E931697FC0186819781009731F4C80195
:100CF00006969783868391878087D80112966D9197
:100D00007C911397CE0101964AE050E00E94AA031D
:100D1000E981FA81309741F0C6010995009721F0E9
:100D2000F60117821682D2CFC6010896D801169610
:100D3000ED91FC91179793838283D6011996FC93CA
:100D4000EE93189798012A5F3F4F1B963C932E9382
:100D50001A97F80197838683F1E0AF16B10419F46E
:100D600084E696E002C088E696E0B60147E050E0EF
:100D70000E948025C7012A960FB6F894DEBF0FBEE9
:100D8000CDBFCF91DF911F910F91FF90EF90DF903A
:100D9000CF90BF90AF909F908F900895CF93DF93A7
:100DA000EC018E819F81009749F489E090E0909357
:100DB000B8048093B7042FEF3FEF18C08A819B815E
:100DC0008130910519F48CE696E002C080E796E048
:100DD000BE0147E050E00E9480258CE796E0BE010E
:100DE00046E050E00E94802520E030E0C901DF911C
:100DF000CF910895CF92DF92EF92FF920F931F93BE
:100E0000DF93CF93CDB7DEB72A970FB6F894DEBF46
:100E10000FBECDBF8C017B016A01DC011696ED91FE
:100E2000FC911797309719F489E090E012C0628125
:100E30007381CE0101964AE050E00E94AA03F801B6
:100E4000828180FF04C0EB81FC81309749F481E00E
:100E500090E09093B8048093B7042FEF3FEF12C057
:100E6000C801B701A60109959C0197FF05C0882715
:100E70009927821B930B02C080E090E09093B80406
:100E80008093B704C9012A960FB6F894DEBF0FBE4F
:100E9000CDBFCF91DF911F910F91FF90EF90DF9029
:100EA000CF900895CF92DF92EF92FF920F931F930E
:100EB000DF93CF93CDB7DEB72A970FB6F894DEBF96
:100EC0000FBECDBF8C017B016A01DC011696ED914E
:100ED000FC911797309719F489E090E012C0628175
:100EE0007381CE0101964AE050E00E94AA03F80106
:100EF000828181FF04C0ED81FE81309749F481E059
:100F000090E09093B8048093B7042FEF3FEF12C0A6
:100F1000C801B701A60109959C0197FF05C0882764
:100F20009927821B930B02C080E090E09093B80455
:100F30008093B704C9012A960FB6F894DEBF0FBE9E
:100F4000CDBFCF91DF911F910F91FF90EF90DF9078
:100F5000CF900895EF92FF920F931F93DF93CF935B
:100F6000CDB7DEB72A970FB6F894DEBF0FBECDBF60
:100F70008C017B01DC011696ED91FC91179730975F
:100F800019F489E090E00EC062817381CE01019670
:100F90004AE050E00E94AA03E985FA85309749F4B7
:100FA00081E090E09093B8048093B7042FEF3FEF77
:100FB00011C0C801B70109959C0197FF05C088279A
:100FC0009927821B930B02C080E090E09093B804B5
:100FD0008093B704C9012A960FB6F894DEBF0FBEFE
:100FE000CDBFCF91DF911F910F91FF90EF900895AA
:100FF000CF93DF930E94C824C8ECD0E004C088EEF1
:1010000093E00E94492521978FEFCF3FD807B9F78A
:101010000E94CA03DF91CF9108958091550290916B
:1010200056020E94FA060895809155029091560248
:101030000E945207089581E090915402913009F482
:1010400080E080935402E0915502F09156020680B0
:10105000F781E02D20813181813019F480E391E026
:1010600002C086E391E000D000D000D0EDB7FEB71B
:10107000319643E754E5ADB7BEB712965C934E93F5
:10108000119733832283958384830E94E7218DB750
:101090009EB706960FB6F8949EBF0FBE8DBF0895FB
:1010A000EF92FF920F931F93DF93CF93CDB7DEB7ED
:1010B000A8970FB6F894DEBF0FBECDBFDC01149623
:1010C0000D911C9115978091570290915802081725
:1010D0001907C9F481E08093590285E1E82EF12CCB
:1010E000EC0EFD1EC801B70144E150E00E94FA0673
:1010F000AC01181619060CF09EC08091B5049091B1
:10110000B604B7018DC0D8011696ED91FC911797E2
:10111000CF010696268137812817390709F48BC03D
:1011200080915502909156020817190741F080915D
:10113000F7089091F8080817190709F07CC080910A
:101140005402882339F08091F7089091F808081725
:10115000190769F4C801BE016F5F7F4F44E150E099
:101160000E94FA067C01181619061CF064C0EE24D1
:10117000FF248091F7089091F8080817190789F55E
:101180002091550230915602FE01319680E090E0A8
:1011900007C041914D3119F40E941B0807C0019608
:1011A0008E159F051CF42115310599F78091590280
:1011B000882361F08091570290915802009731F096
:1011C000BE016F5F7F4FA7010E94520780915402BA
:1011D000813089F180915502909156020097E1F497
:1011E0002AC0809154028823F1F4FE01319680E0F8
:1011F00090E007C021912A3A19F40E941B0804C00C
:1012000001968E159F05B4F380915402813099F0B8
:101210008091B5049091B604BE016F5F7F4FA70126
:101220000E94520708C080E896E060E070E047E066
:1012300050E00E948025A8960FB6F894DEBF0FBE3E
:10124000CDBFCF91DF911F910F91FF90EF90089547
:1012500080915502909156020E94CE06089583E433
:1012600091E063E070E040E050E00E94240690933B
:10127000560280935502009781F0109254028CE43C
:1012800091E063E070E040E050E00E94240690931B
:10129000580280935702009719F42DEE3FEF02C0D9
:1012A00020E030E0C90108951F93FB011FB7F894B7
:1012B00060E270E00E94C029660F771F660F771FFB
:1012C000E60FF71F21E030E040E050E004C0220FBD
:1012D000331F441F551F8A95D2F780819181A281C7
:1012E000B381822B932BA42BB52B80839183A28374
:1012F000B3831FBF1F9108951F939C01FB011FB76C
:10130000F89460E270E00E94C029660F771F660FB4
:10131000771FE60FF71FC90160E270E00E94C02945
:1013200021E030E040E050E004C0220F331F441FB2
:10133000551F8A95D2F780819181A281B381822B3A
:10134000932BA42BB52B80839183A283B3831FBFE0
:101350001F9108952F923F924F925F927F928F92AA
:101360009F92AF92BF92CF92DF92EF92FF920F9334
:101370001F93DF93CF9300D000D000D0CDB7DEB75E
:101380006AE5E62E62E0F62E53E2A52EB12CCC24BF
:10139000DD2480E090E020E030E041E0442E512C5C
:1013A00001C0980189010F5F1F4FF50170806091A6
:1013B0007602462F50E0022E02C0559547950A94BA
:1013C000E2F740FD0BC0A20102C0440F551F2A9551
:1013D000E2F79A01262B2093760251C0F701808014
:1013E00087249924939440E050E02EE5222E22E0B9
:1013F000322E200E311E98012D593D4F3A832983FC
:10140000F801E059FD4FFC83EB83F1012081292194
:1014100079F1292D282161F1E981FA8120812921A1
:1014200089F0F7012081292169F4CA018C0D9D1DE5
:1014300069E672E04D835E830E94540981E090E08A
:101440005E814D81EB81FC812081292189F0F701AA
:101450002081292169F0CA018C0D9D1D69E672E089
:101460004D835E830E94540981E090E05E814D814E
:101470004F5F5F4F4830510511F0990CC6CFF7010F
:1014800071927F0128E030E0C20ED31E43E050E0AD
:10149000A40EB51E0530110509F083CF009741F069
:1014A00084E896E069E672E047E050E00E9480251B
:1014B00026960FB6F894DEBF0FBECDBFCF91DF9159
:1014C0001F910F91FF90EF90DF90CF90BF90AF9062
:1014D0009F908F907F905F904F903F902F900895B6
:1014E00088329105B8F5AC014770507021E030E0CA
:1014F00002C0220F331F4A95E2F773E09595879556
:101500007A95E1F790E0722F7095FC01EC59FD4F50
:10151000508157235083DC01AF58BD4F4C91472376
:101520004C93DC01A15ABD4F3C9137233C9360FFA3
:1015300002C0522B508361FF05C0FC01EF58FD4FE4
:10154000422B408367FF09C0815A9D4F232BFC012A
:10155000208303C02AEE3FEF02C020E030E0C90143
:10156000089580916A0190E0089580916B019091B7
:101570006C01089581E08093D70080EA8093D800C1
:1015800082E189BD09B400FEFDCF80E98093D800D7
:101590001092E00010926A0110926C0110926B019F
:1015A0008CE08093E20080E090E0089580E090E09D
:1015B0000895EF92FF920F931F937A0180916A0131
:1015C000882319F4A5EFBFEF33C01FB7F89483E069
:1015D0008093E9008091F200A0E0B0E0482F50E055
:1015E00003E011C00093E9008091E80085FD02C08E
:1015F0001FBF11C00093E9008091F100FB01EA0FC9
:10160000FB1F8083119697014E155F050CF49A011C
:10161000A217B3073CF383E08093E9008091F200C6
:10162000882329F48091E8008F778093E8001FBF1A
:10163000CD011F910F91FF90EF900895CF93DF930D
:10164000EC0180916A01882309F41EC19FB7F894C8
:1016500084E08093E90080917501882341F08091B6
:10166000E80085FD02C09FBF17C010927501392F99
:10167000B4E040E45AE3A5E000C19091E400975E35
:101680008091E80085FD15C03FBF8091E400891777
:1016900031F481E0809375012BEF3FEFF7C080912B
:1016A0006A01882309F4F0C03FB7F894B093E900C9
:1016B000E7CF8091F200242F281B822F90E068173B
:1016C000790708F4262F822F90E08134910508F0E5
:1016D000C6C08D52964DFC01EE0FFF1F0590F49190
:1016E000E02D099489918093F10089918093F10014
:1016F00089918093F10089918093F1008991809381
:10170000F10089918093F10089918093F100899192
:101710008093F10089918093F10089918093F10089
:1017200089918093F10089918093F1008991809350
:10173000F10089918093F10089918093F100899162
:101740008093F10089918093F10089918093F10059
:1017500089918093F10089918093F1008991809320
:10176000F10089918093F10089918093F100899132
:101770008093F10089918093F10089918093F10029
:1017800089918093F10089918093F10089918093F0
:10179000F10089918093F10089918093F100899102
:1017A0008093F10089918093F10089918093F100F9
:1017B00089918093F10089918093F10089918093C0
:1017C000F10089918093F10089918093F1008991D2
:1017D0008093F10089918093F10089918093F100C9
:1017E00089918093F10089918093F1008991809390
:1017F000F10089918093F10089918093F1008991A2
:101800008093F10089918093F10089918093F10098
:1018100089918093F10089918093F100899180935F
:10182000F10089918093F10089918093F100899171
:101830008093F10089918093F10089918093F10068
:1018400089918093F10089918093F100899180932F
:10185000F10089918093F10089918093F100899141
:101860008093F1008091E80085FD02C05093E8006C
:10187000621B7109A09374013FBF6115710509F0E6
:10188000FCCE20E030E002C025EF3FEFC901DF9140
:10189000CF910895CF93DF93EA014115510559F493
:1018A00080916A01882381F080916B0190916C0195
:1018B00080FD0CC009C0CB01BA010E941E0B892B10
:1018C00029F0CFEFDFEF02C0C5EFDFEFCE01DF91F0
:1018D000CF910895E2EEF0E08081877F80830895C4
:1018E00083E090E09093CD008093CC0010927C0236
:1018F00010927B0210927A021092790288E980930A
:10190000C90080E090E0089580E090E0089520E034
:1019100030E00CC0FB01E20FF31FE0818091C800B2
:1019200085FFFCCFE093CE002F5F3F4F2417350794
:101930008CF3CA010895E9ECF0E08081877680831A
:101940000895CF93DF93CB0160917B0270917C026D
:1019500020E230E0261B370BC0917902D0917A0249
:10196000C20FD31FCF71D0704C175D070CF4EA0182
:101970002C173D070CF4E901209719F4C5EFDFEFB0
:1019800027C063587D4FAE010E94C02320917B0287
:1019900030917C022C0F3D1F2F71307030937C02F0
:1019A00020937B0210929E0210929D0280917902F8
:1019B00090917A02821B930B8F719070892B41F06A
:1019C00084E292E064E776E047E050E00E94F705A9
:1019D000CE01DF91CF910895ECE7F0E080818F7325
:1019E0008083808180648083EAE7F0E08081876083
:1019F000808380818F7780838FEF80937E008093B8
:101A00007D0080E090E00895DF92EF92FF920F93C7
:101A10001F93BC018830910508F046C0E0909F02FA
:101A2000F090A0020091A1021091A202E1E0F0E08A
:101A300002C0EE0FFF1F8A95E2F79F01442737FD92
:101A40004095542FDA01C9018E219F21A023B12393
:101A50000097A105B10541F52E293F29402B512BB7
:101A600020939F023093A0024093A1025093A202C0
:101A70009B01220F331F260F371F220F331F2E57B4
:101A80003A4AA1F090917E008E2F80958923809311
:101A90007E0080917C00807E80937C0080917C0021
:101AA000862B80937C0002C020E030E0C9011F91AA
:101AB0000F91FF90EF90DF900895CF93DF938258BE
:101AC0009545959587952BEA3AEA829FB001839FC9
:101AD000700D929F700D1124E1E0F0E0EF01062EF1
:101AE00002C0CC0FDD1F0A94E2F79E0120953095CD
:101AF000442737FD4095542F80919F029091A0027A
:101B0000A091A102B091A20282239323A423B52322
:101B100080939F029093A002A093A102B093A2028F
:101B20006830710534F480917E008C2B80937E00A8
:101B30000CC020917D00CB01089702C0EE0FFF1F63
:101B40008A95E2F72E2B20937D00DF91CF910895A7
:101B500080917A00806480937A0080917A0086FD7B
:101B6000FCCF8091780090E0A0E0B0E06091790037
:101B7000362F20E0442737FD4095542F282B392B52
:101B80004A2B5B2BB901CA0108959C018230910553
:101B90001CF100D000D000D0EDB7FEB7319688EB35
:101BA00095E5ADB7BEB712969C938E9311978FE7CC
:101BB00091E093838283358324830E94E7212DEE75
:101BC0003FEF4FEF5FEF8DB79EB706960FB6F894D5
:101BD0009EBF0FBE8DBF11C0009741F081309105AF
:101BE00039F020E030E040E050E007C087B501C0A8
:101BF00088B5282F30E040E050E0B901CA010895CF
:101C0000DF93CF9300D000D0CDB7DEB79C014983DE
:101C10005A836B837C83823091050CF100D000D015
:101C200000D0EDB7FEB7319680EE95E5ADB7BEB703
:101C300012969C938E93119787E891E09383828309
:101C4000358324830E94E7212DEE3FEF8DB79EB7A9
:101C500006960FB6F8949EBF0FBE8DBF0FC00097BB
:101C600031F08130910531F02DEE3FEF07C08981D1
:101C700087BD02C0898188BD20E030E0C9010F9096
:101C80000F900F900F90CF91DF9108959C018230BB
:101C900091050CF100D000D000D0EDB7FEB7319621
:101CA00088E096E5ADB7BEB712969C938E931197D8
:101CB0008FE891E093838283358324830E94E72118
:101CC00060E070E08DB79EB706960FB6F8949EBFA1
:101CD0000FBE8DBF1FC060E070E081E090E002C0E9
:101CE000880F991F2A95E2F7AA2797FDA095BA2F8A
:101CF0002091A3023091A4024091A5025091A60226
:101D000082239323A423B5230097A105B10511F0E5
:101D100061E070E0CB0108959C01823091050CF1E7
:101D200000D000D000D0EDB7FEB7319680E396E545
:101D3000ADB7BEB712969C938E9311978BE991E045
:101D400093838283358324830E94E7212DEE3FEF26
:101D50008DB79EB706960FB6F8949EBF0FBE8DBF87
:101D60003EC0009731F08130910541F02DEE3FEFFC
:101D700036C084B58F7784BD279804C084B58F7D25
:101D800084BD509881E090E002C0880F991F2A9589
:101D9000E2F780959095AA2797FDA095BA2F2091FC
:101DA000A3023091A4024091A5025091A602822381
:101DB0009323A423B5238093A3029093A402A0931A
:101DC000A502B093A6020097A105B10531F484B530
:101DD0008C7F84BD85B58E7F85BD20E030E0C90154
:101DE0000895BC01823091050CF100D000D000D0E4
:101DF000EDB7FEB7319688E596E5ADB7BEB712965A
:101E00009C938E93119783EA91E0938382837583E9
:101E100064830E94E7212DEE3FEF8DB79EB70696B3
:101E20000FB6F8949EBF0FBE8DBF3DC0009731F036
:101E30008130910541F02DEE3FEF35C084B58068CB
:101E400084BD279A04C084B5806284BD509A2091D5
:101E5000A3023091A4024091A5025091A60221153F
:101E600031054105510531F484B5836084BD85B5E4
:101E7000816085BD81E090E002C0880F991F6A955E
:101E8000E2F7AA2797FDA095BA2F822B932BA42BBC
:101E9000B52B8093A3029093A402A093A502B093C4
:101EA000A60220E030E0C9010895289A239A80E034
:101EB00090E0089580E48CBD8CB580688CBD80E096
:101EC00090E008958CB58F778CBD8CB58F7B8CBDE1
:101ED0000895CF93DF93EB01E091E304F091E404E4
:101EE000E095F0958091E5049091E604E80FF91FE4
:101EF000EF70F070E417F5070CF4AF0141155105D0
:101F000019F445EF5FEF1CC060E070E016C08091EF
:101F1000E3049091E404DC01A753BB4FFE01E60FFC
:101F2000F71F20815E962C9301968F70907090938E
:101F3000E4048093E3046F5F7F4F641775073CF3FD
:101F4000CA01DF91CF910895CF93DF93CB016091C8
:101F5000CD047091CE0420E130E0261B370BC091F8
:101F6000CB04D091CC04C20FD31FCF70D0704C17CC
:101F70005D070CF4EA012C173D070CF4E9012097EA
:101F800019F4C5EFDFEF27C061537B4FAE010E940C
:101F9000C0232091CD043091CE042C0F3D1F2F7013
:101FA00030703093CE042093CD041092E004109250
:101FB000DF048091CB049091CC04821B930B8F7033
:101FC0009070892B41F08EE292E064E776E047E082
:101FD00050E00E94F705CE01DF91CF910895E1E630
:101FE000F0E080E8808310820E9456230E944226FF
:101FF0000E946B2480E090E008950F931F9302EB02
:1020000011E0C80162E070E040E050E00E94240668
:102010009093B6048093B504C80161E070E040E09D
:1020200050E00E9424069093F8088093F70880E01F
:1020300090E01F910F910895CF93DF93EA01FC0187
:1020400044815581FA01E60FF71F85919591A5917D
:10205000B49188839983AA83BB83232B19F424E04A
:1020600030E00EC0FB013496E40FF51F8591959189
:10207000A591B4918C839D83AE83BF8328E030E02B
:10208000C901DF91CF910895CF93DF93EA01DC017D
:102090001696ED91FC911797E60FF71F88819981AD
:1020A000AA81BB8180839183A283B383232B19F4FC
:1020B00024E030E00AC08C819D81AE81BF818483A1
:1020C0009583A683B78328E030E0C901DF91CF91E3
:1020D0000895FC01A681B7810480F581E02D668119
:1020E000778112968D919C91139740E150E00E9468
:1020F000520797FF0BC000D08AEA96E5EDB7FEB70E
:10210000928381830E94E7210F900F900895CF93CF
:10211000DF93EC0100D08BE097E5EDB7FEB792833B
:1021200081830E94E7210F900F90209721F000D02B
:1021300084E097E503C000D08EEF96E5EDB7FEB7DB
:10214000928381830E94E7210F900F90CE01DF914F
:10215000CF910895CF93DF93EC01009719F42FEFFF
:102160003FEF3AC08BEB91E061E070E0AE010E947E
:102170002406009721F48091F7089091F80899833C
:102180008883892B21F400D08AEE96E51BC08BEB67
:1021900091E062E070E0AE010E9424069B838A8396
:1021A000892B31F48091B5049091B6049B838A8386
:1021B0008A819B81892B19F020E030E00DC000D08E
:1021C00085ED96E5EDB7FEB7928381830E94E72106
:1021D0002FEF3FEF0F900F90C901DF91CF9108953E
:1021E0008F929F92AF92BF92CF92DF92EF92FF9227
:1021F0000F931F93DF93CF93CDB7DEB7A2970FB6A0
:10220000F894DEBF0FBECDBFDC0116960D911C9178
:1022100017978091AB029091AC02892B39F481E041
:1022200090E09093AC028093AB0226C0F8018489C1
:102230009589892B09F12091F9083091FA0840918C
:10224000FB085091FC088091A7029091A8020C967F
:10225000821B930B97FF10C000D08FEB96E5ADB7B4
:10226000BEB712969C938E9311970E94E721F801B6
:10227000158A148A0F900F908091F9089091FA08AE
:10228000A091FB08B091FC088093A7029093A8024C
:10229000A093A902B093AA02D801ED90FC901197E7
:1022A00044E0C42ED12CC00ED11E54968D919C9129
:1022B0005597B601680F791F40E150E0481B590B54
:1022C000C7010E94FA069C0118161906DCF0009757
:1022D00099F4C7010E94CE068BEB91E061E070E0BB
:1022E000A8010E942406009721F48091F70890919C
:1022F000F808F80191838083D80155961C921E92AC
:10230000549736C1F80184899589820F931F958B64
:10231000848B409708F42CC1158A148A6681862F15
:1023200086958F70813009F023C1858182958F70E9
:1023300061706295607F682B70E033E0660F771FF5
:102340003A95E1F76656754AFAE5623C7F0768F40C
:10235000CE01019648E050E00E94AA03D8011796EA
:102360008C9190E086FD04C110C08DEE9FEFAFEF21
:10237000BFEFF80180879187A287B387878180624A
:10238000878382819381B601EFC08F71907095959C
:10239000879591E0A92EB12C02C0AA0CBB1C8A958E
:1023A000E2F7CC24DD24EE24FF2489E0882E912C52
:1023B0008C0E9D1E2CC06B817C816E0D7F1DC40117
:1023C0004AE050E00E94AA03EB85FC856591749178
:1023D00049855A85D80114962C91149715968C919D
:1023E000382F3F702417350758F0215030402A0D00
:1023F0003B1D41505040460F571F421753076CF486
:102400000894C11CD11CEAE0F0E0EE0EFF1E8981A9
:102410009A81C816D9067CF294C0D80117968C917F
:10242000A82EBB24B0E8AB22BB2469897A89611548
:10243000710519F4EE24FF2413C0CE01439640E148
:1024400050E00E94AA03F801878190E0FE013196D6
:1024500080FD09C08E719070E80FF91FE288F38843
:10246000CC24DD2409C001978E719070E80FF91F0C
:10247000C28CD38CEE24FF248F8198859C01D901D6
:10248000F801349680E101900D928150E1F7EF81DF
:10249000F885838180648383E114F104A1F0D8017D
:1024A00014966C91149715968C91782F7F7089856E
:1024B0009A85681B790B3496CE010996AF01950178
:1024C000F701099517C0C114D10419F42FEF3FEF9C
:1024D00014C0F80164818581782F7F7089859A8581
:1024E000681B790BA801485F5F4FCE0109969501E3
:1024F000F60109959C0197FF0BC0EF81F8858827AD
:102500009927821B930BAA2797FDA095BA2F1FC06E
:102510006F817885F8018281938140E150E00E94CB
:10252000520797FF25C000D08AEA96E5ADB7BEB73F
:1025300012969C938E9311970E94E7210F900F9013
:1025400017C0EF81F88586E190E0A0E0B0E08483D9
:102550009583A683B783838180628383D801129693
:102560008D919C911397BF0140E150E00E9452076A
:10257000A2960FB6F894DEBF0FBECDBFCF91DF910C
:102580001F910F91FF90EF90DF90CF90BF90AF9091
:102590009F908F9008950F931F93CF93DF93DB014C
:1025A000EC016C817D81232B61F49B012A0F3B1F81
:1025B000F90185919491EA019983888322E030E0C2
:1025C00009C06A0F7B1FCA0148E050E00E94AA03BD
:1025D00028E030E0C901DF91CF911F910F9108955C
:1025E000CF93DF93EA01DC0114964D915C9115972E
:1025F000232B41F4460F571FFA018491888321E071
:1026000030E00AC0460F571FCE01BA0148E050E043
:102610000E94AA0328E030E0C901DF91CF9108951C
:10262000FC0186819781860F971FBA0148E050E030
:102630000E94C02388E090E00895CF93DF93FA01D1
:10264000EC01AE81BF81232B49F4A60FB71F808117
:1026500091818D939C9322E030E00AC0CD01860FDA
:10266000971FBA0148E050E00E94C02328E030E004
:10267000C901DF91CF910895CF93DF93FA01EC0167
:10268000AE81BF81232B39F4A60FB71F80818C93B5
:1026900021E030E00AC0CD01860F971FBA0148E063
:1026A00050E00E94C02328E030E0C901DF91CF91C3
:1026B0000895FC0124813581260F371FCA01B90115
:1026C00048E050E00E94C02388E090E008959C011B
:1026D000FB0168E070E00E94C029482FC90168E052
:1026E00070E00E94C0296F5F7F4FDB01AA0FBB1F04
:1026F000A60FB71FEF2B61F092962C91929781E075
:1027000090E002C0880F991F4A95E2F7282B0CC071
:1027100092962C91929781E090E002C0880F991FC9
:102720004A95E2F78095282392962C9308959C0170
:10273000FB0168E070E00E94C029482FC90168E0F1
:1027400070E00E94C0296F5F7F4FDB01AA0FBB1FA3
:10275000A60FB71FEF2B61F092962C91929781E014
:1027600090E002C0880F991F4A95E2F7282B0CC011
:1027700092962C91929781E090E002C0880F991F69
:102780004A95E2F78095282392962C9308959C0110
:1027900068E070E00E94C0296F5F7F4FFB01EE0F81
:1027A000FF1FE60FF71F40A1E0E0F0E0C90168E07D
:1027B00070E00E94C02921E030E002C0220F331FE8
:1027C0008A95E2F7422311F0E1E0F0E0CF010895AD
:1027D0002F923F924F925F926F927F928F929F9231
:1027E000AF92BF92CF92DF92EF92FF920F931F931F
:1027F000DF93CF93CDB7DEB728970FB6F894DEBF3F
:102800000FBECDBF5B015C834B83680183E0AA0CE4
:10281000BB1C8A95E1F7232B29F048E050E05A834E
:10282000498302C01A830983222433248DC0C10145
:1028300068E070E00E94C0299B0158E0C516D104F1
:1028400049F1C10160E170E00E94C0294B01880C90
:10285000991C8B819C81880E991EC10160E270E0F9
:102860000E94C029DB01AA0FBB1FAA0FBB1FEB816F
:10287000FC81AE0FBF1FB887AF8325016624772484
:10288000B1E0EB2EF12C012D112DE20FF31FFE8391
:10289000ED8353C0EB81FC81E60FF71F4081C5013A
:1028A00087709070892B69F6C50168E070E00E941E
:1028B000C0296F5F7F4FFB01EE0FFF1FE60FF71F71
:1028C00042A33EC0F0E1CF16D10491F040E2C4161D
:1028D000D104A1F058E0C516D10429F08AEE9FEF8B
:1028E0009A83898337C0AD81BE818C9190E003C00B
:1028F000F40180819181A0E0B0E006C0EF81F8850D
:1029000080819181A281B38160E070E08E219F215E
:10291000A023B1230097A105B10511F061E070E09B
:10292000C2010E9467130894611C711CEE0CFF1C0D
:10293000001F111F0894411C511C6C147D0414F2DB
:102940002C0C3D1CAC0CBD1C49815A81241635064B
:102950000CF46DCF89819A8128960FB6F894DEBF6A
:102960000FBECDBFCF91DF911F910F91FF90EF90E0
:10297000DF90CF90BF90AF909F908F907F906F909F
:102980005F904F903F902F9008950F931F9308E012
:1029900010E00E94E8131F910F9108950F931F9369
:1029A00000E110E00E94E8131F910F9108950F932A
:1029B0001F9300E210E00E94E8131F910F91089509
:1029C0008FEF9FEF08952F923F924F925F926F92F9
:1029D0007F928F929F92AF92BF92CF92DF92EF92AF
:1029E000FF920F931F93DF93CF9300D000D0CDB70A
:1029F000DEB73B015A834983480163E0660C771CCC
:102A00006A95E1F7232B21F058E0252E312C01C0E7
:102A10001801442455249EC0C20168E070E00E9461
:102A2000C0296B0129813A81260F371F80E1881662
:102A30009104F1F090E289169104F9F0A8E08A1669
:102A4000910421F5C30187709070892B11F08AEEF3
:102A50000DC0C30168E070E00E94C0296F5F7F4F26
:102A6000FB01EE0FFF1FE60FF71F80A1F901808326
:102A7000EAEDFFEFD901ED93FC938AED9FEFAFEF05
:102A8000BFEFF90180839183A283B38353011C823A
:102A90001B82EE24FF2487011BC0C5010E94C713BF
:102AA000AA2797FDA095BA2F0B8004C0880F991F05
:102AB000AA1FBB1F0A94D2F7E82AF92A0A2B1B2B5C
:102AC0008B819C8101969C838B830894A11CB11CF3
:102AD000AB81BC81A815B90504F3B0E18B16910454
:102AE000A1F0E0E28E169104F9F0F8E08F1691045F
:102AF00029F03AEE232E3FEF332E30C089819A81A0
:102B0000C80ED91ED601EC9221C0C20160E170E06E
:102B10000E94C029FB01EE0FFF1F89819A81E80FF7
:102B2000F91FF182E08212C0C20160E270E00E94EF
:102B3000C029FB01EE0FFF1FEE0FFF1FA981BA8115
:102B4000EA0FFB1FE082F18202831383480C591CB9
:102B5000680C791C421453040CF45ECFC1010F9031
:102B60000F900F900F90CF91DF911F910F91FF90D9
:102B7000EF90DF90CF90BF90AF909F908F907F901D
:102B80006F905F904F903F902F9008950F931F93F9
:102B900008E010E00E94E3141F910F9108950F9335
:102BA0001F9300E110E00E94E3141F910F9108951C
:102BB0000F931F9300E210E00E94E3141F910F9106
:102BC00008958FEF9FEF08952F923F924F925F925B
:102BD0006F927F928F929F92AF92BF92CF92DF922D
:102BE000EF92FF920F931F93DF93CF93CDB7DEB792
:102BF00028970FB6F894DEBF0FBECDBF3C012B0166
:102C00001A016901902E812E2115310521F078E2FB
:102C1000E72EF12C04C0802F912F9C017901C30174
:102C2000B2015E010894A11CB11CA5019601092DF9
:102C3000182D0E94E31497FF03C02FEF3FEF21C030
:102C4000C70168E070E00E94C0299B01D50140E007
:102C500050E009C0F101E40FF51F8C919081892BA0
:102C60008D934F5F5F4F42175307A4F3C301B20127
:102C7000AE014F5F5F4F292D382D86010E94E8136A
:102C80009C01C90128960FB6F894DEBF0FBECDBFD8
:102C9000CF91DF911F910F91FF90EF90DF90CF9038
:102CA000BF90AF909F908F907F906F905F904F906C
:102CB0003F902F9008950F931F9308E010E00E941B
:102CC000E8131F910F9108950F931F9300E110E0F7
:102CD0000E94E4151F910F9108950F931F9300E236
:102CE00010E00E94E4151F910F9108958FEF9FEF60
:102CF00008952F923F924F925F926F927F928F92A0
:102D00009F92AF92BF92CF92DF92EF92FF920F937A
:102D10001F93DF93CF93CDB7DEB728970FB6F89404
:102D2000DEBF0FBECDBF3C012B011A016901902E01
:102D3000812E2115310521F0E8E2EE2EF12C04C0A0
:102D4000802F912F9C017901C301B2015E0108948B
:102D5000A11CB11CA5019601092D182D0E94E31498
:102D600097FF03C02FEF3FEF21C0C70168E070E07D
:102D70000E94C0299B01D50140E050E009C0F1014B
:102D8000E40FF51F8C919081892B8D934F5F5F4FDE
:102D900042175307A4F3C301B201AE014F5F5F4F67
:102DA000292D382D86010E94E8139C01C90128961F
:102DB0000FB6F894DEBF0FBECDBFCF91DF911F914C
:102DC0000F91FF90EF90DF90CF90BF90AF909F90CA
:102DD0008F907F906F905F904F903F902F900895CD
:102DE0000F931F9308E010E00E94E8131F910F91CA
:102DF00008950F931F9300E110E00E9479161F9130
:102E00000F9108950F931F9300E210E00E9479162E
:102E10001F910F9108958FEF9FEF08952F923F928A
:102E20004F925F926F927F929F92AF92BF92CF929A
:102E3000DF92EF92FF920F931F93CF93DF931B01CB
:102E40002A01232B21F0B8E0CB2ED12C06C0C801DB
:102E500068E070E00E94C0296B01EE24FF24A1E02D
:102E60006A2E712C43C0F201EE0DFF1D8081A82E49
:102E7000BB24C50183709070039719F42AEE3FEFCD
:102E80003AC08701020D131DC8010E94C7139C019F
:102E9000C80168E070E00E94C029982EC80168E06F
:102EA00070E00E94C0296F5F7F4FEB01CC0FDD1FE8
:102EB000C60FD71FC801B9010E946713A1FE09C040
:102EC00029A1C30102C0880F991F9A94E2F7282B09
:102ED00009C029A1C30102C0880F991F9A94E2F783
:102EE0008095282329A30894E11CF11CEC14FD040F
:102EF0000CF4B9CF9601C901DF91CF911F910F91C9
:102F0000FF90EF90DF90CF90BF90AF909F907F9019
:102F10006F905F904F903F902F9008950F931F9365
:102F200008E010E00E940E171F910F9108950F9373
:102F30001F9300E110E00E940E171F910F9108955A
:102F40000F931F9300E210E00E940E171F910F9144
:102F500008958FEF9FEF0895AF92BF92CF92DF92C7
:102F6000EF92FF920F931F93CF93DF935B016A0160
:102F7000232B21F091E0E92EF12C06C0C80168E076
:102F800070E00E94C0297B01C0E0D0E025C08E0126
:102F90000A0D1B1DC80168E070E00E94C0296F5F28
:102FA0007F4FFB01EE0FFF1FE60FF71F21A130E05F
:102FB000C80168E070E00E94C02902C035952795DD
:102FC0008A95E2F720FD02C081E001C082E0F601AF
:102FD000EC0FFD1F80832196CE15DF05C4F2C701DB
:102FE000DF91CF911F910F91FF90EF90DF90CF90E5
:102FF000BF90AF9008950F931F9308E010E00E94D8
:10300000AC171F910F9108950F931F9300E110E0EB
:103010000E94AC171F910F9108950F931F9300E228
:1030200010E00E94AC171F910F9108958FEF9FEF52
:1030300008959F92AF92BF92CF92DF92EF92FF924C
:103040000F931F93CF93DF935B01232B21F0E1E0DC
:10305000CE2ED12C03C074E0C72ED12C8A01EE24D1
:10306000FF2462E0962EF801108297012A0D3B1D85
:103070004FB7F894C90160E270E00E94C029EB01EB
:10308000CC0FDD1FCC0FDD1FFE01ED52FD4F808107
:103090009181A281B381B9016F7170704FBF062E0B
:1030A00004C0B695A795979587950A94D2F7817035
:1030B0009070892B11F0F80190822FB7F894FE01DF
:1030C000E552FD4F80819181A281B3812FBF062EF1
:1030D00004C0B695A795979587950A94D2F7817005
:1030E0009070892B21F0F8018081816080832FB757
:1030F000F894CD51DD4F88819981AA81BB812FBF82
:1031000004C0B695A795979587956A95D2F7817073
:103110009070892B21F0F801808180688083089469
:10312000E11CF11CEC14FD041CF40F5F1F4F9BCF3E
:10313000C601DF91CF911F910F91FF90EF90DF902B
:10314000CF90BF90AF909F900895DC011496ED91C1
:10315000FC91159780819181A281B3812091CB024E
:103160003091CC024091CD025091CE02822B932B14
:10317000A42BB52B8093CB029093CC02A093CD02CD
:10318000B093CE02108211821282138284819581C3
:10319000A681B7812091CF023091D0024091D10217
:1031A0005091D202822B932BA42BB52B8093CF026C
:1031B0009093D002A093D102B093D20214821582D0
:1031C000168217828091CB029091CC02A091CD0201
:1031D000B091CE020097A105B105B9F48091CF025C
:1031E0009091D002A091D102B091D2020097A10596
:1031F000B10559F400D08EE797E5EDB7FEB792839D
:1032000081830E94E7210F900F908AE99AE58A59FD
:103210009A45F3E095958795FA95E1F79093C40266
:103220008093C30281E090E09093C6028093C50230
:103230008CE896E063EC72E047E050E00E94802565
:103240000895CF92DF92EF92FF920F931F93DF9337
:10325000CF93CDB7DEB728970FB6F894DEBF0FBE79
:10326000CDBF6A01232B21F011E0E12EF12C03C028
:10327000B4E0EB2EF12C8B0105531D4FCE010196CE
:103280006BEC72E048E050E00E94C02320E030E0A8
:10329000F601E20FF31FD8018C918083F80111929F
:1032A0008F012F5F3F4F2E153F0594F389819A813F
:1032B000AB81BC810097A105B10549F48D819E8148
:1032C000AF81B8850097A105B10509F449C0809187
:1032D000CB029091CC02A091CD02B091CE0200978A
:1032E000A105B105E9F58091CF029091D002A0919E
:1032F000D102B091D2020097A105B10589F58AE902
:103300009AE58A599A45A3E095958795AA95E1F79C
:103310009093C8028093C7021092CA021092C90209
:103320008CE896E067EC72E047E050E00E94802570
:10333000892BB1F000D000D08FE897E5ADB7BEB7CC
:1033400012969C938E9311978EEC91E014969C9319
:103350008E9313970E94E7210F900F900F900F907C
:10336000C70128960FB6F894DEBF0FBECDBFCF9130
:10337000DF911F910F91FF90EF90DF90CF90089514
:10338000CF92DF92EF92FF920F931F93CF93DF9331
:103390008B01232B21F091E0C92ED12C03C084E0B6
:1033A000C82ED12CEA01EE24FF24888181FF05C0BC
:1033B000C80163ED72E00E947C09888180FF05C02E
:1033C000C8016BED72E00E947C09888187FF05C00F
:1033D000C80163EE72E00E947C096881C80170E058
:1033E0000E94700A9C0197FD0BC00894E11CF11C1F
:1033F0000F5F1F4FEC14FD0414F42196D6CF9601F5
:10340000C901DF91CF911F910F91FF90EF90DF9055
:10341000CF9008958AEE9FEF0895FA0180917A0087
:10342000108211821282138287FF08C081E090E02F
:10343000A0E0B0E080839183A283B38380E090E03A
:103440000895FA0180819181A281B3810097A1053D
:10345000B10531F00E94EC0C80917A00806803C0C5
:1034600080917A008F7780937A0080E090E00895D1
:10347000EF92FF920F931F93DF93CF9300D000D072
:10348000CDB7DEB77A019B0156E0369527955A9560
:10349000E1F7F901EE0FFF1FE20FF31FEE0FFF1F21
:1034A000EE57FA4A6F7370706C30710509F450C0B2
:1034B0006D30710550F46430710589F16830710523
:1034C00009F441C0672B81F00CC06431710509F427
:1034D00072C06831710509F46EC06031710509F47C
:1034E00052C02AEE3FEF69C081E4898384E48A8375
:1034F000C9016AE070E00E94AC29605D6B83C9017C
:103500006AE070E00E94AC29805D8C83C701BE0137
:103510006F5F7F4F44E050E00E94C0234CC0808129
:10352000282F30E0220F331F40E050E081818823B4
:1035300011F041E050E0242B352BC901AA2797FD5B
:10354000A095BA2F33C082819381A481B5812EC00A
:1035500080917A0087FD03C023EF3FEF2EC0C901A1
:103560000E94040D8C01009719F420EF3FEF25C055
:103570000E94A80DF7016083718382839383C80141
:103580000E945D0D18C080919F029091A002A091B1
:10359000A102B091A20204C0B695A7959795879510
:1035A0002A95D2F781709070A070B070F701808377
:1035B0009183A283B38320E030E0C9010F900F9084
:1035C0000F900F90CF91DF911F910F91FF90EF908F
:1035D0000895FA019B0186E0369527958A95E1F7D3
:1035E0006F7370706830710531F06C30710559F08F
:1035F0002AEE3FEF13C0408150E060E070E0C90167
:103600000E94000E0AC0808180FF04C0C9010E9490
:10361000F10E03C0C9010E948C0E9C01C9010895DE
:103620000F931F93DF93CF9300D000D0CDB7DEB7B9
:103630008A01FB0196E0F695E7959A95E1F76F739D
:1036400070706430710551F16530710518F4672BA5
:1036500051F006C06830710549F16C30710579F19F
:103660002AEE3FEF40C080E5898387E58A83CF015A
:103670006AE070E00E94AC29605D6B83CF016AE074
:1036800070E00E94AC29805D8C83C801BE016F5F31
:103690007F4F44E050E00E94C02323C0EA54FA4A1E
:1036A000808190E0A0E0B0E0FA0117C0CF010E9455
:1036B000C50DF801608371838283938312C0CF01AB
:1036C0000E94460EF8011082118212821382892B09
:1036D00041F081E090E0A0E0B0E080839183A2839C
:1036E000B38320E030E0C9010F900F900F900F904E
:1036F000CF91DF911F910F910895CF93DF93FB013D
:10370000EA01232B19F02FEF3FEF15C0CB01837097
:103710009070892B19F02AEE3FEF0DC0EC7FEC5131
:10372000FE4F80819181A281B38188839983AA838E
:10373000BB8324E030E0C901DF91CF910895AF92BF
:10374000BF92CF92DF92EF92FF920F931F93FA01F5
:10375000232B09F094C06830710541F06C3071057D
:1037600009F452C06430710509F089C0A090E401E9
:10377000B090E501C090E601D090E7018081918191
:10378000A281B3816430710569F42091E801309120
:10379000E9014091EA015091EB01282B392B4A2B8A
:1037A0005B2B12C09C01AD01209530954095509542
:1037B0008091E8019091E901A091EA01B091EB01BB
:1037C000282339234A235B232093E8013093E9011E
:1037D0004093EA015093EB0179018A01E094F0945F
:1037E000009510958091F4019091F501A091F6015A
:1037F000B091F701E822F9220A231B23EA14FB0403
:103800000C051D0531F53EC02091E4013091E50124
:103810004091E6015091E701E080F180028113813F
:10382000E094F09400951095E222F32204231523EE
:103830008091F4019091F501A091F601B091F7010A
:10384000E82AF92A0A2B1B2BE216F30604071507B0
:10385000C9F060E070E0E114F1040105110511F018
:1038600061E070E08EE190E00E949713E092E40145
:10387000F092E5010093E6011093E70103C02FEFFA
:103880003FEF02C024E030E0C9011F910F91FF908B
:10389000EF90DF90CF90BF90AF9008958EE190E0D1
:1038A00060E070E00E9497136E9A80E090E00895C7
:1038B000EF92FF920F931F93DC011496ED91FC9110
:1038C0001597808191818032910508F090C0E09039
:1038D000F401F090F5010091F6011091F70161E01B
:1038E00070E002C0660F771F8A95E2F7CB018095E2
:1038F00090959C01442737FD4095542F2E213F2160
:10390000402351232093F4013093F5014093F601B5
:103910005093F70182819381892B89F0CB01AA27EB
:1039200097FDA095BA2F282B392B4A2B5B2B209380
:10393000F4013093F5014093F6015093F701809123
:10394000F4019091F501A091F601B091F701E8160C
:10395000F9060A071B0709F44AC0E090E801F09055
:10396000E9010091EA011091EB01A801970120956E
:10397000309540955095282339234A235B23809125
:10398000E4019091E501A091E601B091E7012817CB
:1039900039074A075B0759F12093E4013093E501A9
:1039A0004093E6015093E70121153105410551058A
:1039B00089F0CB01AA2797FDA095BA2F8E299F29C0
:1039C000A02BB12B8093E8019093E901A093EA0129
:1039D000B093EB0160E070E0211531054105510520
:1039E00011F061E070E08EE190E00E9497131F916A
:1039F0000F91FF90EF900895CF92DF92EF92FF9298
:103A00000F931F93CF93DF939C016B01FA0168E042
:103A100070E00E94C0296F5F7F4FEB01CC0FDD1F6C
:103A2000C60FD71F82E0E82EF12CEC0EFD1E8E0192
:103A30000F5F1F4FC90168E070E00E94C02921E0BC
:103A400030E002C0220F331F8A95E2F7EF2B19F006
:103A50008AA1822B04C08AA1922F909589238AA3E0
:103A6000CD2821F0F80180A1822B08C0F70180A1A8
:103A7000822B80A3F80180A12095822380A3DF916F
:103A8000CF911F910F91FF90EF90DF90CF9008950D
:103A90000F931F938C0181E190E061E070E0A80139
:103AA0000E94FC1C012B41F081E190E060E070E09D
:103AB00041E050E00E94FC1C1F910F9108950F936C
:103AC0001F938C0180E190E061E070E0A8010E940A
:103AD000FC1C012B41F080E190E060E070E041E0EF
:103AE00050E00E94FC1C1F910F9108958093A30346
:103AF000882361F0843051F0893041F080E996E00C
:103B000060E070E047E050E00E94802508958AEB75
:103B10009AE58A599A4523E0959587952A95E1F784
:103B200090930C0380930B0381E090E090930E033D
:103B300080930D038CE896E06BE073E047E050E083
:103B40000E948025892B59F000D08DE499E5EDB7CE
:103B5000FEB7928381830E94E7210F900F90089512
:103B6000AF92BF92CF92DF92EF92FF920F931F938B
:103B7000CF93DF935C016B017A01232B19F404E0EE
:103B800010E002C008E010E0C0E0D0E0FE01EC7FF1
:103B9000EE0DFF1D80819181A281B381F50120810D
:103BA00031812C0D3D1D2C0F3D1F2C31310509F4A9
:103BB00048C02D31310598F42031310509F45AC03F
:103BC0002131310520F428303105C9F41BC02431DE
:103BD000310509F44FC02831310589F418C0283265
:103BE000310591F12932310520F42432310539F4BF
:103BF0002BC02C32310569F12833310591F12FEFBB
:103C00003FEF3EC0909318038093170333C0817039
:103C10009070892B79F180911D0381FF03C020EF03
:103C20003FEF2EC0826080931D0380E996E060E044
:103C300070E047E050E00E9480259C019923D4F475
:103C40001FC080931E0316C090931A03809319031C
:103C500011C08093A1038091A303843059F483E0C1
:103C600007C08093A0038091A303893019F488E0F2
:103C70000E94761D2496C017D10708F487CF9801BB
:103C8000C901DF91CF911F910F91FF90EF90DF90CD
:103C9000CF90BF90AF9008952F923F924F925F9236
:103CA0006F927F928F929F92AF92BF92CF92DF924C
:103CB000EF92FF920F931F93DF93CF9300D000D02A
:103CC000CDB7DEB73C014B015A01232B19F404E0B8
:103CD00010E002C008E010E08AEB9AE58A599A45A4
:103CE00063E0959587956A95E1F789839A831C82AD
:103CF0001B8250E8C52ED12CE12CF12C4FE0242E54
:103D000043E0342E33E7432E39E5532EEB81FC811B
:103D1000EC7FEA0DFB1DD3018D919C91880D991DBF
:103D20002B813C81820F931F8032910509F481C061
:103D300081329105C0F48031910509F472C081315E
:103D4000910530F48830910551F10C9729F52CC07C
:103D50008831910509F465C08C31910509F466C07C
:103D60004497D1F45EC08C32910509F467C08D325E
:103D7000910538F48432910509F46DC0889761F497
:103D80006AC08433910509F45FC08833910509F452
:103D90005EC0C09709F455C02FEF3FEF70C080910F
:103DA0001703909118035BC080911D0390E0A0E081
:103DB000B0E080839183A283B3830097A105B1050E
:103DC00009F453C0398130930F03EA81D101119670
:103DD000EC9310921203109211038CE896E06FE0BE
:103DE00073E047E050E00E948025892B59F000D015
:103DF000ADB7BEB712965C924E9211970E94E72122
:103E00000F900F908091A303843079F1893069F18C
:103E100080E996E061E070E047E050E00E94802594
:103E200024C010821182128213821FC080911E034F
:103E300010C0C082D182E282F38217C08091A103B8
:103E400008C08091A20305C080919F0302C08091A9
:103E5000A00390E004C08091190390911A03A0E0A0
:103E6000B0E080839183A283B383EB81FC8134969D
:103E7000FC83EB83E017F10708F448CF9801C901F0
:103E80000F900F900F900F90CF91DF911F910F9196
:103E9000FF90EF90DF90CF90BF90AF909F908F906A
:103EA0007F906F905F904F903F902F90089580E0AB
:103EB00090E00E945F1D809113039091140362E0D3
:103EC00070E00E94C029CB010E944925089581E03D
:103ED00090E00E94481D8091130390911403019675
:103EE00062E070E00E94C029CB010E94492508953C
:103EF00081E090E00E945F1D8091F9089091FA089E
:103F0000A091FB08B091FC08209115033091160395
:103F1000280F391F10C08091F9089091FA08A091DC
:103F2000FB08B091FC08A901481B590B57FF03C0BF
:103F300022E93FEF0AC0489BEECF80911303909196
:103F400014030E94492520E030E0C90108950F9331
:103F50001F93CF93DF93C7E0D0E0082F10E0C80194
:103F60000C2E02C0959587950A94E2F781709070A7
:103F70000E94481D8091130390911403019662E002
:103F800070E00E94C029CB010E9449250E94781F41
:103F900097FD18C00E94571F21978FEFCF3FD8077A
:103FA000F1F60E94671F0E94781F97FD0BC019B1A0
:103FB0000E94571F11FF03C02FEF3FEF05C020E005
:103FC00030E002C022E93FEFC901DF91CF911F919C
:103FD0000F9108951F93182F80E090E00E94481DD4
:103FE0008091130390911403019662E070E00E94A7
:103FF000C029CB010E9449250E94781F81E090E0F2
:104000000E94481D80911303909114030E9449253A
:1040100010931D03113011F480E001C08BE08093F8
:10402000A3030E94871D1F9108950F931F93CF93A1
:10403000DF93DC0114962C91222339F0213009F012
:1040400033C110921D0380E028C18AEF90E0909365
:104050001603809315038AE090E0909314038093F5
:1040600013038091A303853009F474C0863050F4A3
:10407000813019F1813098F0823039F1833009F0C4
:1040800028C12EC0873009F486C0873008F478C074
:10409000883009F485C08A3009F01BC101C180E075
:1040A00090E00E94481D80911303909114030E9498
:1040B00049250E94571F81E0F0C0809117030E949C
:1040C000A71F97FD64C082E0E8C08091190390911A
:1040D0001A03892B51F110921C0310921B0338C054
:1040E000E091A203F0E0ED5EFC4F84850E94A71FE3
:1040F00097FD4DC020911B0330911C032F5F3F4F54
:1041000030931C0320931B034091A2034F5F4F7712
:104110004093A2038091190390911A03281739073D
:1041200031F48091A1038093A20385E0B6C0809111
:10413000A10390E0841B91098F77907084309105E2
:1041400019F40E94871D04C0892B11F484E0A5C0D6
:1041500083E0A3C08091170380FFA2C00E94671F65
:104160000E94781F80E090E00E94481D8091130318
:10417000909114030E9449250E94571F86E08DC02C
:104180008091170381600E94A71F97FF02C080E8FB
:1041900088C087E082C010921C0310921B037CC071
:1041A00080911B0390911C038C01015E1C4F0196B2
:1041B00090931C0380931B03F80110820E94671FD9
:1041C000C0E0D0E00E94781F97FD26C0D8018C91F6
:1041D00090E0880F991F982F8C93499B02C09160A3
:1041E0009C9380E090E00E945F1DC730D10549F4A8
:1041F000809113039091140362E070E00E94C02943
:1042000004C06091130370911403CB010E944925EF
:104210002196C830D105B1F6C0E0D0E020911B0353
:1042200030911C038091190390911A0328173907C4
:1042300019F4C1E0D0E004C080E090E00E94481D85
:104240008091130390911403019662E070E00E9444
:10425000C029CB010E9449250E94781F97FD02C00A
:104260000E94571FCD2B11F08AE017C080919F0349
:10427000282F30E0209530958091A003280F311D24
:104280002F7730702C31310519F40E94871D04C03E
:10429000232B11F489E001C088E00E94761D19C02B
:1042A00081E00E94EA1F15C000D000D0EDB7FEB734
:1042B00031968AE299E5ADB7BEB712969C938E937C
:1042C0001197228313820E94E7210F900F900F9085
:1042D0000F90DF91CF911F910F91089500005353DC
:1042E000004B435349534F4D4F53494D00384F49AD
:1042F00000394F4930314F4931314F490000434E69
:104300000000434E0000434E0000434E0000434E69
:104310000000434E0000354433314F49004C4353B5
:1043200000414453314458523144585400003444FD
:10433000444C585432314F49000036440000434E3B
:104340000000434E425748230000434E0000434EB6
:104350000000434E4B4853480000434E0000354197
:10436000000034410000434E0000434E0000334142
:10437000000032410000314100003041DF93CF9313
:10438000CDB7DEB79E01275F3F4F8D819E816F8144
:104390007885A9010E94F521CF91DF910895EF92D0
:1043A000FF920F931F939C01AB0104EA13E0C80135
:1043B000B9010E94F521F82EE92EC8010E945B2464
:1043C0008F2D9E2D1F910F91FF90EF900895DF93F9
:1043D000CF93CDB7DEB7FE01359681919191BF01A4
:1043E0000E94CF21CF91DF9108952F923F924F925B
:1043F0005F926F927F928F929F92AF92BF92CF9275
:10440000DF92EF92FF920F931F93DF93CF93CDB77D
:10441000DEB764970FB6F894DEBF0FBECDBF9C8B9E
:104420008B8B1B013A014C014DE214C1853259F4CA
:104430006AE0C62ED12C20E230E03A8B298B51E085
:10444000452E512C07C0D4018D9369C0E0E3F0E004
:10445000FA8BE98B0894211C311CF1019491993657
:1044600009F466C09A36B0F4983531F1993568F49C
:104470009A3231F19B3230F4992309F4F0C095322D
:1044800031F54BC0903319F5E1CF933661F1943695
:10449000F1F44EC0903781F0913730F49E3609F434
:1044A000D6C09F36A1F43DC0953709F441C0983776
:1044B00019F0933761F421C030E1C32ED12C38C0FC
:1044C000D301CD90DC90E2E0F0E06E0E7F1E892FEC
:1044D0008153893008F0BECF492E552420ED3FEF9F
:1044E000420E531EB7CFD3018C91F40181934F013B
:1044F00022E030E0620E731EAAC0D301ED91FC9160
:1045000004C0D4018D934D01319680818823C9F771
:10451000E2E0F0E06E0E7F1E9AC0D4019D934D0143
:1045200096C0BAE0CB16D10419F428E0C22ED12CE3
:10453000F301E080F180F7FE0CC0FAE0CF16D10461
:1045400041F4F094E194F108F39491E0A92EB12C98
:1045500002C0AA24BB2400E110E017C001501040A3
:1045600021E030E02C0F3D1F200F311FC701B601A5
:104570000E94AC29FC01E850FE4F8081D9018C9348
:10458000C701B6010E94AC297B01E114F10421F0BE
:104590000115110519F707C00031110521F4B0E329
:1045A000B88B0FE010E0A114B10499F0E989FA8901
:1045B000B09721F081E0A82EB12C0BC00150104023
:1045C000E1E0F0E0EC0FFD1FE00FF11F4083AA24B3
:1045D000BB2401501040E1E0F0E0EC0FFD1FE00FC4
:1045E000F11F0F5F1F4F80E190E0841995098A0D3C
:1045F0009B1D05C0015010402989208331978017E9
:104600009107C4F3AB2849F001501040E1E0F0E01D
:10461000EC0FFD1FE00FF11F4083A1E0B0E0AC0FF5
:10462000BD1FA00FB11FF401980104C08D918193AB
:104630002F5F3F4F20313105CCF382E090E0680ED0
:10464000791E80E190E0801B910B880E991E0894E2
:10465000211C311CF1018491882309F0E7CED4019B
:104660001C929401EB89FC892E1B3F0BC9016496B7
:104670000FB6F894DEBF0FBECDBFCF91DF911F9173
:104680000F91FF90EF90DF90CF90BF90AF909F90F1
:104690008F907F906F905F904F903F902F900895F4
:1046A00082E189BD09B400FEFDCF089584E085BD97
:1046B0008AEF87BD81E080936E00089580EA809341
:1046C000D800089580E98093D800089581E8809308
:1046D000D7000895AC01DB01FC018D918193882303
:1046E000E1F7CA0108959C01FC0101C03196808167
:1046F0008823E1F7CF01821B930B0895AC019B0146
:10470000FA0101C031962115310529F021503040C0
:1047100080818823B9F79F01241B350BC9010895B7
:10472000DC01FB018D919191891741F0891718F0F7
:1047300021E030E007C02FEF3FEF04C0882391F75E
:1047400020E030E0C9010895DC01FB0112C08C912A
:104750009081891741F0891718F021E030E00EC0F0
:104760002FEF3FEF0BC0882339F01196319641505F
:1047700050404115510559F720E030E0C901089536
:10478000EF92FF920F931F93CF93DF938C01EB0176
:104790007C01CE01802B912B80FD1FC0BA0120E04F
:1047A00030E00EC0F801E20FF31FDE01A20FB31FCD
:1047B0008D919C9191838083625070402E5F3F4F1A
:1047C0006230710578F7CA018E7FBE01680F791FCC
:1047D0007801E80EF91E481B590B20E030E00AC0B2
:1047E000F701E20FF31FDB01A20FB31F8C9180834F
:1047F0002F5F3F4F415050408FEF4F3F580781F799
:10480000C801DF91CF911F910F91FF90EF90089514
:10481000CF93DF93EC01FA019C0180FD20C0CB0116
:10482000AA2797FDA095BA2F9070A070B07022278C
:10483000382F492F5A2F282B392B4A2B5B2BCF018E
:10484000DE0103C02D933D93029782309105D0F78E
:10485000CF018E7F9E01280F391FE81BF90BD9016C
:1048600001C06D9331978FEFEF3FF807D1F7CE017D
:10487000DF91CF9108950895DF93CF9300D0CDB706
:10488000DEB79A8389830A9721F48DE090E00E9435
:104890003C248091B5049091B604009739F0BE0194
:1048A0006F5F7F4F41E050E00E9452070F900F90E2
:1048B000CF91DF910895CF93DF93EC0104C021964F
:1048C00090E00E943C2488818823C9F780E090E032
:1048D000DF91CF9108950F931F93CF93DF93C8E09B
:1048E000D1E008ED19E520C0E881F981099500972C
:1048F000D1F000D000D000D0EDB7FEB73196ADB703
:10490000BEB712961C930E931197D383C2839583DF
:1049100084830E94E7218DB79EB706960FB6F89460
:104920009EBF0FBE8DBF229691E0C631D907E0F23F
:10493000C8E0D1E008ED19E520C0E881F9810995CA
:104940000097D1F000D000D000D0EDB7FEB731967F
:10495000ADB7BEB712961C930E931197D383C28343
:10496000958384830E94E7218DB79EB706960FB684
:10497000F8949EBF0FBE8DBF229691E0C830D90734
:10498000E0F280E090E0DF91CF911F910F910895C8
:10499000CF93DF93E0E0F2E060E072E004C0E60F66
:1049A000F71F660F771F2091F9083091FA084091A0
:1049B000FB085091FC082F5F3F4F4F4F5F4F809196
:1049C000F9089091FA08A091FB08B091FC088217B1
:1049D0009307A407B50799F7CF0101C001971816EF
:1049E0001906E4F38091F9089091FA08A091FB0868
:1049F000B091FC08821B930BA40BB50B892B79F2A9
:104A0000F595E795759567957595679536C0EB01B2
:104A1000CE0FDF1F2091F9083091FA084091FB0872
:104A20005091FC082F5F3F4F4F4F5F4F8091F90827
:104A30009091FA08A091FB08B091FC0882179307A7
:104A4000A407B50799F7CE0101C0019718161906FA
:104A5000E4F38091F9089091FA08A091FB08B091D5
:104A6000FC08821B930BA40BB50B892B09F4FE01E8
:104A7000CB0162E070E00E94C0296115710539F632
:104A8000F0930904E093080480E090E0DF91CF9177
:104A90000895CF93DF93FC01C0910804D0910904DD
:104AA00080E197E29C01C29FC001C39F900DD29FFD
:104AB000900D112460EA7FE00E94C02907C02150B8
:104AC000304012161306DCF3E051F74237E2E131D1
:104AD000F30710F09B01F5CFEC9FC001ED9F900D07
:104AE000FC9F900D112460EA7FE00E94AC29CB016D
:104AF00001C0019718161906E4F3DF91CF910895CC
:104B00001F93DC011FB7F894E0912E04F0912F045D
:104B1000409132045091330441505040CF01809570
:104B200090952091300430913104820F931F84239B
:104B30009523892B21F41FBF24EF3FEF15C0CF0130
:104B400001968423952390932F0480932E041FBFF6
:104B5000EE0FFF1FEE0FFF1FEC5CFB4F73836283B2
:104B6000B183A08320E030E0C9011F910895AF9286
:104B7000BF92CF92DF92EF92FF920F931F93CF934A
:104B8000DF93E0903204F09033040894E108F108D8
:104B900080912E0490912F042091300430913104A3
:104BA000821B930BE822F922CC24DD242AE0A22EDA
:104BB00024E0B22E58C0C0913004D0913104CC0F03
:104BC000DD1FCC0FDD1FCC5CDB4F6881798188E174
:104BD00094E044E050E00E94AA0300911804109170
:104BE000190426C080E194E0B80148E050E00E943A
:104BF000AA0360911204709113048AE094E046E0E5
:104C000050E00E94AA03B0921304A09212048A8179
:104C10009B819093150480931404E0910C04F0910F
:104C20000D04309719F080E194E00995085F1F4F5B
:104C300080911A0490911B040817190799F6209186
:104C400032043091330421503040809130049091EF
:104C50003104019628233923309331042093300402
:104C60000894C11CD11CCE14DF040CF4A4CFDF9136
:104C7000CF911F910F91FF90EF90DF90CF90BF9059
:104C8000AF900895EF92FF920F931F93CF93DF930E
:104C90000CE516E03CE1E32E34E0F32E38C08AE266
:104CA00094E0B80144E050E00E94AA03C0912A04B5
:104CB000D0912B0423C082E294E0BE0148E050E092
:104CC0000E94AA0360912404709125048CE194E071
:104CD00046E050E00E94AA03F0922504E0922404EA
:104CE0001093230400932204E0911C04F0911D040E
:104CF000309719F082E294E00995289680912C046F
:104D000090912D04C817D907B1F60C5F1F4F86E0AC
:104D10000439180720F280E290E0909333048093E6
:104D2000320480E090E0DF91CF911F910F91FF90CE
:104D3000EF900895FF920F931F938C01062E02C0EF
:104D4000159507950A94E2F700501F4F28E030E0D0
:104D5000261B370B81E090E002C0880F991F2A952F
:104D6000E2F7081B190BFFB6F894C80160E270E087
:104D70000E94C029FB01EE0FFF1FEE0FFF1FE35043
:104D8000F74FC80160E270E00E94C02921E030E0E6
:104D900040E050E004C0220F331F441F551F8A9586
:104DA000D2F7209530954095509580819181A281D0
:104DB000B38182239323A423B52380839183A28389
:104DC000B383FFBE1F910F91FF900895FF920F9341
:104DD0001F938C01062E02C0159507950A94E2F7E1
:104DE00000501F4F28E030E0261B370B81E090E099
:104DF00002C0880F991F2A95E2F7081B190BFFB60E
:104E0000F894C80160E270E00E94C029FB01EE0F37
:104E1000FF1FEE0FFF1FE350F74FC80160E270E085
:104E20000E94C02921E030E040E050E004C0220FA1
:104E3000331F441F551F8A95D2F780819181A2812B
:104E4000B381822B932BA42BB52B80839183A283D8
:104E5000B383FFBE1F910F91FF90089580E090E013
:104E600067E070E00E94E62680E090E008958F926F
:104E70009F92AF92BF92CF92DF92EF92FF920F93E9
:104E80001F93CF93DF939C01275F3440C0E0D0E0B5
:104E9000E7E0F0E040E054E0CF018C1B9D0BDA012D
:104EA00002C0B595A7958A95E2F7A617B70734F41F
:104EB0002196C830D10581F7CFEFDFEFB4E0203085
:104EC0003B0740F000D087E19AE5EDB7FEB792834B
:104ED000818314C02197C9010C2E02C09595879536
:104EE0000A94E2F7219680FF0EC000D082EF99E588
:104EF000ADB7BEB712969C938E9311970E94E7218F
:104F00000F900F9068C078E0C72ED12CC90168E0DF
:104F100070E00E94C0297B01CB01BE010E94E62601
:104F2000CC1ADD0A61E0862E912CC730D10509F438
:104F300052C084010C2E02C0000F111F0A94E2F728
:104F40005801AE24BF2495010C2E02C0359527953B
:104F50000A94E2F720503F4FC4010C2C02C0880F86
:104F6000991F0A94E2F7281B390B4FB7F894C9012F
:104F700060E270E00E94C029FB01EE0FFF1FEE0F00
:104F8000FF1FE350F74F80819181A281B3814FBF12
:104F90000894C108D1082F71307004C0B695A79548
:104FA000979587952A95D2F781709070892B99F003
:104FB000009510950E211F21C701BE010E949A265F
:104FC000C501BE010E949A262196C801BE010E9419
:104FD000E6267801AACFDF91CF911F910F91FF9024
:104FE000EF90DF90CF90BF90AF909F908F900895FB
:104FF0004F925F926F927F928F929F92AF92BF92E9
:10500000CF92DF92EF92FF920F931F93DF93CF9394
:10501000CDB7DEB764970FB6F894DEBF0FBECDBF35
:105020004C012B015C01AA0CBB1CF501E65CF54AA6
:10503000859194916C019C838B838C01B501665B97
:10504000754ACE01019642E050E00E94AA036981B0
:105050007A8140E050E020E030E0E5E0EE2EF12CF7
:10506000EC0EFD1E12C0FB01E20FF31F859195911E
:10507000A591B491F701E20FF31F80839183A2837E
:10508000B3834F5F5F4F2C5F3F4F401751075CF377
:1050900088E090E08819990921E030E002C0220FF1
:1050A000331F8A95E2F780E091E0821B930B60E268
:1050B00070E00E94C0298B01000F111F000F111F0B
:1050C0000350174FEE24FF2460E070E095E0692E56
:1050D000712C6C0E7D1E79C0F301E60FF71FD8010D
:1050E000A60FB71F20813181428153818D919D91FF
:1050F0000D90BC91A02D282339234A235B236C5F9C
:105100007F4F211531054105510509F45BC0F501BB
:10511000E65AF54A059114912115310519F061E01F
:1051200070E005C09A014427552761E170E0222311
:1051300031F4232F342F452F5527685F7F4FDA0135
:10514000C9018F709070A070B0700097A105B10573
:1051500049F4A4E05695479537952795AA95D1F738
:105160006C5F7F4FDA01C90183709070A070B070DE
:105170000097A105B10549F4F2E05695479537959A
:105180002795FA95D1F76E5F7F4FC90181709070B6
:10519000892B11F46F5F7F4FC80180959095860F22
:1051A000971F02C0880F991F8A94E2F7F20191833A
:1051B00080839C01E3E0220F331FEA95E1F7295039
:1051C0003B4F09C00894E11CF11CEC14FD040CF4E5
:1051D00083CF20E030E0C90164960FB6F894DEBFBB
:1051E0000FBECDBFCF91DF911F910F91FF90EF9038
:1051F000DF90CF90BF90AF909F908F907F906F90F7
:105200005F904F900895CF92DF92EF92FF920F93AD
:105210001F93DF93CF9300D0CDB7DEB76C017B0136
:10522000CB01BE016F5F7F4F0E94F827892B31F1C0
:1052300089819A81B7010E949A2687010150104006
:1052400089819A81B8010E94E62681E090E0002ED3
:1052500002C0880F991F0A94E2F729813A818227B8
:105260009327B8010E94E626EC18FD0882E0E816B4
:10527000F10424F0C601B8010E9403290F900F9099
:10528000CF91DF911F910F91FF90EF90DF90CF9022
:105290000895AF92BF92CF92DF92EF92FF920F9359
:1052A0001F93DF93CF9300D0CDB7DEB79C0100E012
:1052B00010E067E070E040E054E0CB01801B910B10
:1052C000FA0102C0F595E7958A95E2F7E217F30730
:1052D0003CF40F5F1F4F0830110579F70FEF1FEFF8
:1052E0008091B404882329F40E942E2781E08093C2
:1052F000B404FFEF0F3F1F0719F4EE24FF241EC074
:1053000068015E010894A11CB11C07C00894C11C6F
:10531000D11CC801B6010E940329C801B5010E9431
:10532000F8277C01009729F487E0C816D10474F3AC
:1053300005C089819A81B8010E949A26C7010F9001
:105340000F90CF91DF911F910F91FF90EF90DF9021
:10535000CF90BF90AF900895AA1BBB1B51E107C02F
:10536000AA1FBB1FA617B70710F0A61BB70B881FF5
:10537000991F5A95A9F780959095BC01CD01089584
:1053800097FB092E07260AD077FD04D0E5DF06D06B
:1053900000201AF4709561957F4F0895F6F7909567
:1053A00081959F4F0895320C2F0C2C0C290C260C44
:1053B000230C200C1D0C1A0C170C140C110C0E0CC9
:1053C0000B0C080C050C020CFF0BFC0BF90BF60B7D
:1053D000F30BF00BED0BEA0BE70BE40BE10BDE0B31
:1053E000DB0BD80BD50BD20BCF0BCC0BC90BC60BE1
:1053F000C30BC00BBD0BBA0BB70BB40BB10BAE0B91
:10540000AB0BA80BA50BA20B9F0B9C0B990B960B40
:10541000930B900B8D0B8A0B870B840B810B7E0BF0
:105420007B0B780B750B720B48656C6C6F2C2042F4
:105430006174686F7320697320737065616B696E46
:105440006720282573206275696C74206F6E204A6E
:10545000756C2031362032303134290A0025730A28
:10546000000000000400000000FB040000000086B3
:105470000500000D0A25733A207377697463686527
:105480006420746F206D6F64652025730D0A002FF2
:10549000090D081408280900000000500800000049
:1054A00000AA09000000010000E3541200020000FD
:1054B000F5544300030000385504010309043C552A
:1054C0001602030904545508030309045E550C0031
:1054D00001C112018036018136D60AD90A4A0C6A06
:1054E0000C00001201000202000010032A018000DB
:1054F000010102030109024300020100C032090454
:105500000000010202010005240010010524010130
:105510000104240206052406000107058203100089
:105520004009040100020A000000070503024000D0
:105530000007058402400000040309041603440028
:105540006F0067002000480075006E007400650061
:10555000720000000803590055004E0000000C03C3
:10556000300030003000300030000000840CA10C0E
:10557000870C9B0C000008000000A00F0000FFFF3C
:10558000FFFF0A00401F00000A00401F00000A0041
:10559000401F00000A00401F00000A00401F0000DA
:1055A0000A00401F00000A00401F00000A00401FC0
:1055B00000000200000008082573207761726E6900
:1055C0006E673A206E6F20737563682070776D2068
:1055D0006465766963652C206964783D25640A00FA
:1055E0002573207761726E696E673A206E6F207343
:1055F0007563682070776D206465766963652C201B
:105600006964783D25640A002573207761726E69AC
:105610006E673A206E6F20737563682070776D2017
:105620006465766963652C206964783D25640A00A9
:105630002573207761726E696E673A206E6F2073F2
:105640007563682070776D206465766963652C20CA
:105650006964783D25640A002573207761726E695C
:105660006E673A206E6F20737563682070776D20C7
:105670006465766963652C206964783D25640A0059
:105680005A0FA40F690F620F0000F012CB121C100A
:1056900059133C131D1344101013F012CB121C109D
:1056A000591300000000000000006D6375696F3A37
:1056B000206F7574707574206572726F720A006461
:1056C0006174615F72656164795F68616E646C6565
:1056D00020746F0A006D6375696F3A206F757420CE
:1056E00070697065206572720A006D6375696F3A42
:1056F00020696E2070697065206572720A006465A9
:1057000061640A00616C6976650A006D6375696F92
:1057100020000000F0100000000069100000C61515
:10572000CF15D815E115C514CE14D714E014000018
:105730000000000000005B1664166D16761600006F
:10574000000000000000F016F91602170B17FB17F7
:1057500004180D1816188E179717A017A917000010
:1057600000001918000000000000C019000000002F
:1057700000002119000000000000000000004E554C
:105780004C4C206770696F206576656E740A002541
:10579000733A20657674206572726F720A00000099
:1057A0001258145800009A5608001C581E58000041
:1057B0009A5610002658DC4200009A5610012858CC
:1057C000040700009A5610032A582C0700009A5626
:1057D00010052C58000000004E5710072E580000EE
:1057E00000005E5710093058000000001E571809CD
:1057F0003058000000002E572009305800000000EB
:105800003E5728093258CB0200006E570000A518F9
:1058100000000800341278560200000008005445C9
:10582000535428000000A0002800280000020002B5
:105830000800080000000000381A00000000000006
:105840000A1A0000000000000D1A0000000000000D
:10585000211A000000008658885800009A56080057
:105860009058765500009A56100090587E550000CA
:105870009A56140090580000000044584000925876
:105880008255000034580800351201000300000062
:105890000400C00F00000000101B0000000000000A
:1058A000E91A00000000C258C45800009A560800C7
:1058B000CC58B25500009A564000CE58B65500005C
:1058C0009458080036120100050000000400C00FC3
:1058D000F012CB127D1B5913000000009F1B00002B
:1058E00000000459065900009A5608000E59E401B8
:1058F000E401D05818001059125900009A564E1C55
:10590000581C000008001111AAAA0B00000010008A
:1059100008001300000000000000000000004C1E02
:10592000000000000000B01D00005F5F6932635F8F
:1059300062697462616E675F646F5F7472616E73D7
:10594000616374696F6E20212025640A005F5F69BE
:1059500032635F62697462616E675F747269676700
:1059600065725F6972713A20657674206572726F34
:10597000720A006932635F62697462616E675F72A6
:1059800065676973746572735F726464773A2065E2
:105990007674206572726F720A0000001520000094
:1059A0000000C859CA5900009A560800D259000090
:1059B00000001A594000D4591F031F038A564001A2
:1059C000D6591F0300009A5608001211AAAA08000F
:1059D0000000340080008000696E697463616C6C43
:1059E0002061742025703A206572726F72202569DB
:1059F0000A005F5F626174686F735F667265655FFE
:105A00006275666665723A20756E616C69676E656F
:105A100064207074720A005F5F626174686F735F04
:105A2000667265655F6275666665723A20696E7654
:105A3000616C6964207074720A0004000200010045
:105A4000010001000100010001006A5A7A5A825ADD
:105A5000865A8A5A8E5A925A965A000000000000BE
:105A60000000100018001C001E00FFFFFFFFFFFFDA
:105A7000FFFFFFFFFFFFFFFFFFFFFFFFFFFFFFFF36
:105A8000FFFFFFFFFFFFFFFF00000000FF0000001F
:105A9000000F00000030000000400B009E57000087
:105AA000B904050054580000EB020300A45800009C
:105AB000FB020300E0580000B9040400A0590000F4
:025AC000B90427
:105AC2000000000000000000E1033B05BA0A700C70
:105AD200EC0C550FFD0F3061653962303700737978
