:1000000032C00000000000000000000000000000FE
:1000100000000000000000000000000000000000E0
:1000200000000000000000003DC000007DC0000096
:1000300000000000000000000000000000000000C0
:1000400000000000000000000000000000000000B0
:10005000000000000000000000000000F6C20000E8
:1000600000006AC20CC211241FBECFEFDAE0CDBF80
:10007000DEBFE8E8F7E608E6A0E0B1E0E03CF00724
:100080001CF425902D92FACFA0E4B2E007E0A0394D
:10009000B00714F41D92FBCF0E94641278940E9462
:1000A0004D08E1CF1F920F920FB60F9211248F933C
:1000B0009F938091E1001092E10083FF13C01092A2
:1000C000E90091E09093EB001092EC0092E19093A4
:1000D000ED0098E09093F0001092520110925401BC
:1000E0001092530182FF19C080915201882379F048
:1000F00080915C01882359F0815080935C018823B2
:1001000031F484E08093E9008AE38093E80083E09F
:100110008093E90084E08093F0009F918F910F908D
:100120000FBE0F901F9018951F920F920FB60F924F
:100130001124EF92FF920F931F932F933F934F93AE
:100140005F936F937F938F939F93AF93BF93EF933F
:10015000FF93DF93CF930F92CDB7DEB78091F4007A
:1001600083FF14C083E08093E9008091E80082FF60
:1001700008C08AE092E06CED76E047E050E00E9433
:100180004C068091E800887F8093E8001092E90097
:100190008091E80083FF58C12091F1003091F10077
:1001A0008091F100E82EFF244091F100942F80E02F
:1001B000E82AF92A0091F10010E04091F100942F13
:1001C00080E0082B192B6091F100A091F10082EFE3
:1001D0008093E800363009F059C08CEF90E69C011E
:1001E00025503040FC013797459154914E155F05DD
:1001F000F9F4F9014591549140175107C9F42E5F64
:100200003F4FF901859194912E5F3F4FF901249161
:10021000462F50E07A2F60E0462B572B4F3F510579
:1002200019F010F04FEF50E0421750F4242F08C09F
:100230000796295F3F4FF1E686329F0799F604C182
:10024000AEEF4091E80050E0BA0165707070611542
:100250007105B9F342FDFBC0322F213108F030E1C6
:10026000AC01632F07C0FA014F5F5F4FE491E09349
:10027000F10061506623B9F7830F911D231BA093F2
:10028000E8002223F1F63031E1F2E1C0353051F4DB
:100290008EEF8093E8000E94010E8E2D806880937F
:1002A000E300D5C0393061F5222309F0CDC0E092DA
:1002B0005201109254011092530110925C018EEF82
:1002C0008093E80041E08FE191E64093E900FC0172
:1002D0000196E491E093EB00EE2369F09C012F5F1F
:1002E0003F4FFC0184918093EC00C9010196F90114
:1002F00024912093ED004F5F453039F78EE19FC088
:10030000383051F4203809F09FC00E94010E8091CE
:1003100052018093F10070C0313279F4213A09F032
:1003200093C00E94010EE5E5F1E081918093F10018
:1003300021E0EC35F207C9F75FC0303209F039C06F
:10034000213209F081C08091E80082FFFCCFE5E511
:10035000F1E08091F100819331E0EC35F307C9F7CA
:100360008BEF8093E8008EEF8093E8008091550139
:1003700090915601A0915701B0915801803B44E003
:10038000940740E0A40740E0B40709F060C087E7A5
:1003900097E790930108809300082BE088E190E0B4
:1003A0000FB6F894A895809360000FBE209360006C
:1003B0004EC0323251F4213209F046C0F09254015D
:1003C000E09253010E94010E17C03323C9F4298320
:1003D0000E94010E2981223851F40093E900909186
:1003E000EB0081E095FF80E01092E90001C080E021
:1003F0008093F1001092F1008EEF8093E80027C007
:10040000313011F0333001F52230F1F4E114F10410
:10041000D9F40F77802F81508430B0F48EEF809321
:10042000E8000093E900333079F089E18093EB0034
:1004300081E090E002C0880F991F0A95E2F780934F
:10044000EA001092EA0003C081E28093EB000F9073
:10045000CF91DF91FF91EF91BF91AF919F918F91DC
:100460007F916F915F914F913F912F911F910F91CC
:10047000FF90EF900F900FBE0F901F9018951F9256
:100480000F920FB60F9211242F933F934F935F93C8
:100490006F937F938F939F93AF93BF93EF93FF934C
:1004A000209178023091790260917A0270917B02FA
:1004B000A901461B570B4F715070C901809590954B
:1004C000860F971F8F719070009731F481E090E054
:1004D00090939D0280939C026091CE0080919C023B
:1004E00090919D02009761F4F901EA58FD4F6683EF
:1004F0002F5F3F4F2F713070309379022093780235
:100500004115510541F484E192E06CED76E047E05D
:1005100050E00E944C06FF91EF91BF91AF919F91E7
:100520008F917F916F915F914F913F912F910F909C
:100530000FBE0F901F9018951F920F920FB60F923B
:1005400011242F933F934F935F936F937F938F93D8
:100550009F93AF93BF93EF93FF93AEB5A53009F58B
:10056000209162053091630580916005909161054D
:10057000821B930B8F739070009789F0E091640554
:10058000F0916505E20FF31F80818EBDC9010196D0
:100590008F739070909363058093620545C01EBC75
:1005A00043C01EBCAA2309F43FC040915605509198
:1005B000570560915805709159059A01261B370B14
:1005C0002F733070CA0180959095860F971F8F7397
:1005D0009070009731F481E090E090935D058093F6
:1005E0005C0580915C0590915D05009791F4E09128
:1005F0005A05F0915B05E40FF51FA0838091560525
:100600009091570501968F73907090935705809342
:1006100056052115310541F48EE192E06CED76E04E
:1006200047E050E00E944C06FF91EF91BF91AF91DF
:100630009F918F917F916F915F914F913F912F91FA
:100640000F900FBE0F901F9018951F920F920FB62C
:100650000F9211242F933F934F935F936F937F9348
:100660008F939F93AF93BF93EF93FF93809168070E
:1006700090916907A0916A07B0916B070196A11D3F
:10068000B11D8093680790936907A0936A07B093A0
:100690006B0784EC96E060E070E047E050E00E9479
:1006A000EC28FF91EF91BF91AF919F918F917F9136
:1006B0006F915F914F913F912F910F900FBE0F90CF
:1006C0001F901895A407B4079C07A407B407B407A4
:1006D000B407B407C407C407C407C407B407BC07FA
:1006E000B407B407C407CC07CC07D407DC07E4077A
:1006F000BC07C407D407DC07E407EC07EC07F407E2
:10070000FC070408F407FC077501FB0FEF0F9001CD
:10071000D711CB11E1016E2EE82CE601DA2CCE2C9C
:10072000EE01B02CA42CF601122D982C6C696E6988
:100730006E6F494F3A2067697420356565333961BA
:1007400039206275696C742067696F2032303134EA
:100750002D31312D31332031343A32343A33372090
:10076000636F6C6F73696D6F40636F6F6C6D6173F6
:10077000740A0000000000000000000000000000FB
:100780000000000000000000000000000000000069
:100790000000000000000000000000000000285FD2
:1007A000000000000000225F000000000000AD5FBC
:1007B000000000000000A15F000000000000C9620E
:1007C0000000A40200002E5F000000000000C362D1
:1007D0000000A40200009E64000000000000AC6362
:1007E00000000000000008650000000000005A67DB
:1007F0000000420500005467000042050000A75FAA
:1008000000000000000000000707070700000000CC
:1008100000000707070700000700070700000000A7
:10082000000000000707000007070707000000009E
:1008300000000000000000000000000000000000B8
:1008400000000000000000000000000000000000A8
:100850000000000084EC96E060E070E047E050E0CB
:100860000E94EC28089583B7817F83BF83B781609E
:1008700083BF889583B78E7F83BF089502C00E948F
:1008800038290E9424290097D1F70E943304F9CF18
:1008900080E492E09093410280934002909343025F
:1008A0008093420280E090E00895AF92BF92CF9291
:1008B000DF92EF92FF920F931F93CF93DF93C0913C
:1008C0004002D091410226970E811F8106501040B0
:1008D000E12C91E0F92EC12C82E0D82E4CC0809101
:1008E000680790916907A0916A07B0916B0728810A
:1008F0003981821B930B97FD43C06C817D8188EC0D
:1009000096E047E050E00E94EC28AE80BF8080E493
:10091000A81682E0B806C1F09501265030404091FB
:1009200068075091690760916A0770916B07F90138
:1009300080819181A281B381840F951FA61FB71F6B
:1009400080839183A283B383A885B985F501B3839E
:10095000A283AD92BC92FF82EE82D986C886CE0178
:100960006AE070E00E949A2BF80186819781E80185
:100970008C0106501040F2E0CA33DF0709F0AFCF18
:10098000DF91CF911F910F91FF90EF90DF90CF906B
:10099000BF90AF900895EF92FF920F931F93CF9364
:1009A000DF937B018C01EA018AE090E00E944E2CEB
:1009B000FC01009709F46AC080916807909169076B
:1009C000A0916A07B0916B078E0D9F1DA01FB11FEC
:1009D00080839183A283B383D583C483EFB6F894D5
:1009E000A0914002B091410282E0A034B80791F595
:1009F000CF01069613969C938E931297B783A68386
:100A0000B187A08711969C938E933CC02081318141
:100A1000428153816D917D918D919C911397E90154
:100A2000C61BD70BD7FF0AC0621B730B840B950B39
:100A30006D937D938D939C93139714C0261B370B56
:100A4000480B590B208331834283538316960D90B4
:100A5000BC91A02D16978D010A5F1F4F82E00034D4
:100A60001807A1F6CF0106961896CD91DC9119973B
:100A700019969C938E93189717830683D187C08706
:100A800099838883EFBE20E030E002C024EF3FEF7F
:100A9000C901DF91CF911F910F91FF90EF900895C1
:100AA000CF93DF93FC01C481D581EA81FB818E81E4
:100AB0009F8109959F838E8388859985AA85BB85AB
:100AC0002C853D854E855F85820F931FA41FB51F22
:100AD0008C879D87AE87BF87209168073091690713
:100AE00040916A0750916B07B901681B790B77FD3C
:100AF00009C0DA01C9010196A11DB11D8C879D872E
:100B0000AE87BF876C857D858E859F85621B730B45
:100B1000840B950BAE010E94CB04DF91CF91089519
:100B2000EF92FF920F931F93CF93DF93E0906807AC
:100B3000F090690700916A0710916B07C8E2D2E054
:100B400008C0EC81FD81309719F08E819F81099555
:100B5000609682E0C833D807A0F3C8E2D2E01AC09A
:100B60006C857D858E859F856E0D7F1D801F911FF5
:100B70006C597F4F8F4F9F4F6C877D878E879F87E4
:100B80006E197F09800B910BAE010E94CB0497FD7B
:100B900008C0609682E0C833D80710F320E030E048
:100BA00002C02FEF3FEFC901DF91CF911F910F914D
:100BB000FF90EF9008950F931F93DF93CF93CDB7DE
:100BC000DEB72A970FB6F894DEBF0FBECDBFDC01AB
:100BD00014960D911C911597C8010896F80122856D
:100BE0003385A085B18513963C932E931297F90116
:100BF000B183A083D80119969C938E9318971B9666
:100C00009C938E931A971696ED91FC911797CF01AE
:100C10000696268137812817390771F4628173811E
:100C2000CE0101964AE050E00E94FB2EEF81F8854C
:100C3000309711F0C8010995F801178216822A969B
:100C40000FB6F894DEBF0FBECDBFCF91DF911F91DD
:100C50000F910895EF92FF920F931F93CF93DF931D
:100C60008C01C0E0D2E00AC068817981F8018081FE
:100C700091810E94FF26009739F02A96F2E0C8324F
:100C8000DF0790F3C0E0D0E0CE01DF91CF911F915C
:100C90000F91FF90EF900895CF92DF92EF92FF9225
:100CA0000F931F93CF93DF937B018A01FC01C681D1
:100CB000D7812097A9F0289726E0C22ED12CC80E04
:100CC000D91E09C0C701BE01A8010E94EC280884F2
:100CD000D985C02D2897CE0108968C159D0591F7D2
:100CE000DF91CF911F910F91FF90EF90DF90CF9008
:100CF00008958F929F92AF92BF92CF92DF92EF9220
:100D0000FF920F931F93DF93CF93CDB7DEB72A9750
:100D10000FB6F894DEBF0FBECDBF4C015B018A0158
:100D20006115710519F486E190E025C08CE090E032
:100D30000E944E2C6C017C01009739F487E190E011
:100D400090934105809340056AC0DC0111969C9206
:100D50008E9215961C930E9314971396BC92AE9296
:100D600012970E942A068C01009761F4F6011782FF
:100D7000168286E090E09093410580934005EE2432
:100D8000FF244DC0D60117969C938E931697FC01B5
:100D900086819781009731F4C801069697838683F0
:100DA00091878087D80112966D917C911397CE011F
:100DB00001964AE050E00E94FB2EE981FA813097CB
:100DC00041F0C6010995009721F0F60117821682BD
:100DD000D2CFC6010896D8011696ED91FC911797CF
:100DE00093838283D6011996FC93EE93189798010A
:100DF0002A5F3F4F1B963C932E931A97F8019783D7
:100E00008683F1E0AF16B10419F48CEC96E002C0D1
:100E100080ED96E0B60147E050E00E94EC28C70163
:100E20002A960FB6F894DEBF0FBECDBFCF91DF91EB
:100E30001F910F91FF90EF90DF90CF90BF90AF90F8
:100E40009F908F900895CF93DF93EC018E819F81C7
:100E5000009749F489E090E0909341058093400524
:100E60002FEF3FEF18C08A819B818130910519F4E3
:100E700084ED96E002C088ED96E0BE0147E050E0C8
:100E80000E94EC2884EE96E0BE0146E050E00E940D
:100E9000EC2820E030E0C901DF91CF910895CF9296
:100EA000DF92EF92FF920F931F93DF93CF93CDB713
:100EB000DEB72A970FB6F894DEBF0FBECDBF8C0108
:100EC0007B016A01DC011696ED91FC911797309732
:100ED00019F489E090E012C062817381CE0101961D
:100EE0004AE050E00E94FB2EF801828180FF04C09E
:100EF000EB81FC81309749F481E090E090934105CB
:100F0000809340052FEF3FEF12C0C801B701A60143
:100F100009959C0197FF05C088279927821B930B91
:100F200002C080E090E09093410580934005C901A4
:100F30002A960FB6F894DEBF0FBECDBFCF91DF91DA
:100F40001F910F91FF90EF90DF90CF900895CF9277
:100F5000DF92EF92FF920F931F93DF93CF93CDB762
:100F6000DEB72A970FB6F894DEBF0FBECDBF8C0157
:100F70007B016A01DC011696ED91FC911797309781
:100F800019F489E090E012C062817381CE0101966C
:100F90004AE050E00E94FB2EF801828181FF04C0EC
:100FA000ED81FE81309749F481E090E09093410516
:100FB000809340052FEF3FEF12C0C801B701A60193
:100FC00009959C0197FF05C088279927821B930BE1
:100FD00002C080E090E09093410580934005C901F4
:100FE0002A960FB6F894DEBF0FBECDBFCF91DF912A
:100FF0001F910F91FF90EF90DF90CF900895EF92A7
:10100000FF920F931F93DF93CF93CDB7DEB72A974D
:101010000FB6F894DEBF0FBECDBF8C017B01DC01A3
:101020001696ED91FC911797309719F489E090E0AE
:101030000EC062817381CE0101964AE050E00E94A9
:10104000FB2EE985FA85309749F481E090E0909392
:101050004105809340052FEF3FEF11C0C801B70154
:1010600009959C0197FF05C088279927821B930B40
:1010700002C080E090E09093410580934005C90153
:101080002A960FB6F894DEBF0FBECDBFCF91DF9189
:101090001F910F91FF90EF900895CF93DF9314BEAF
:1010A00088E10FB6F89480936000109260000FBE44
:1010B0000E942028C8ECD0E004C088EE93E00E9493
:1010C000622821978FEFCF3FD807B9F70E943E04DF
:1010D000DF91CF91089580914502813071F4809124
:1010E0004A02882311F080E001C082E0809345022B
:1010F0008823F9F481E291E01EC084E097E060E08B
:1011000070E047E050E00E94EC2897FF0CC000D050
:1011100086E59FE5EDB7FEB7928381830E9468253F
:101120000F900F90089581E0809345028BE191E04C
:1011300002C086E191E000D000D024E33FE5EDB7A6
:10114000FEB732832183948383830E9468250F90A6
:101150000F900F900F9008950E946B080895809152
:101160004602909147020E944F070895EF92FF9226
:101170000F931F93DF93CF93CDB7DEB7C054D0400A
:101180000FB6F894DEBF0FBECDBFDC0114960D91F3
:101190001C911597809148029091490208171907F0
:1011A000E9F481E080934A0280914502813011F098
:1011B00010924502C8018E010F5F1F4FB80140E435
:1011C00050E00E944F07AC01181619060CF0D3C06E
:1011D00080913E0590913F05B801C2C0D801169696
:1011E000ED91FC911797CF0106962681378128173C
:1011F000390709F4C0C08091460290914702081750
:10120000190741F080916607909167070817190741
:1012100009F0B1C080914402882339F080916607BB
:10122000909167070817190789F48091450281306A
:1012300069F0C801BE016F5F7F4F40E450E00E943B
:101240004F077C01181619061CF095C0EE24FF24E8
:10125000809166079091670708171907C1F52091DB
:10126000460230914702FE01319680E090E007C0CF
:1012700041914D3119F40E946B0807C001968E15FB
:101280009F051CF42115310599F7809145028130A5
:1012900019F48CEF96E069C0882361F480914802CC
:1012A00090914902009731F0BE016F5F7F4FA70117
:1012B0000E94A70780914402813009F45CC08091AC
:1012C000460290914702009709F046C054C08091B1
:1012D0004402882309F047C0FE01319680E090E087
:1012E00030C021912A3A61F581E08093440200D018
:1012F00000D000D0EDB7FEB7319685E79FE5ADB7DA
:10130000BEB712969C938E931197A0914602B0910E
:10131000470216960D90BC91A02D8D919C919383C0
:10132000828385E291E0958384830E946825EDB7EE
:10133000FEB736960FB6F894FEBF0FBEEDBF04C0E1
:1013400001968E159F056CF280914402813099F0D0
:1013500080913E0590913F05BE016F5F7F4FA701D1
:101360000E94A70708C088EE96E060E070E047E0C2
:1013700050E00E94EC28C05CDF4F0FB6F894DEBF4F
:101380000FBECDBFCF91DF911F910F91FF90EF90D6
:10139000089580914602909147020E94A707089500
:1013A00080914602909147020E94230708958BE2A4
:1013B00091E063E070E040E050E00E947906909395
:1013C000470280934602009799F01092440282E00F
:1013D0008093450284E391E063E070E040E050E0F8
:1013E0000E9479069093490280934802009719F46D
:1013F0002DEE3FEF02C020E030E0C90108951F93B9
:10140000FB011FB7F89460E270E00E941B2F660F8B
:10141000771F660F771FE60FF71F21E030E040E0EF
:1014200050E004C0220F331F441F551F8A95D2F786
:1014300080819181A281B381822B932BA42BB52B28
:1014400080839183A283B3831FBF1F9108951F934D
:10145000FB011FB7F89460E270E00E941B2F660F3B
:10146000771F660F771FE60FF71F21E030E040E09F
:1014700050E004C0220F331F441F551F8A95D2F736
:1014800080819181A281B381822B932BA42BB52BD8
:1014900080839183A283B3831FBF1F9108952F92EE
:1014A0003F924F925F927F928F929F92AF92BF92A4
:1014B000CF92DF92EF92FF920F931F93DF93CF9320
:1014C00000D000D000D0CDB7DEB76BE4E62E62E0EE
:1014D000F62E53E2A52EB12CCC24DD2480E090E042
:1014E00020E030E041E0442E512C01C098018901F8
:1014F0000F5F1F4FF501708060916702462F50E02B
:10150000022E02C0559547950A94E2F740FD0BC0A4
:10151000A20102C0440F551F2A95E2F79A01262B1B
:101520002093670251C0F701808087249924939407
:1015300040E050E02FE4222E22E0322E200E311E19
:1015400098012C5A3D4F3A832983F801EF59FD4FFA
:10155000FC83EB83F1012081292179F1292D2821B8
:1015600061F1E981FA812081292189F0F701208147
:10157000292169F4CA018C0D9D1D6AE572E04D8335
:101580005E830E94FF0981E090E05E814D81EB81E6
:10159000FC812081292189F0F7012081292169F02E
:1015A000CA018C0D9D1D6AE572E04D835E830E9429
:1015B000FF0981E090E05E814D814F5F5F4F4830D1
:1015C000510511F0990CC6CFF70171927F0128E007
:1015D00030E0C20ED31E43E050E0A40EB51E05302D
:1015E000110509F083CF009741F08CEE96E06AE593
:1015F00072E047E050E00E94EC2826960FB6F8947F
:10160000DEBF0FBECDBFCF91DF911F910F91FF9035
:10161000EF90DF90CF90BF90AF909F908F907F9092
:101620005F904F903F902F9008951F9388329105BF
:1016300008F048C0AC014770507021E030E002C0B3
:10164000220F331F4A95E2F7E3E095958795EA95D7
:10165000E1F790E0122F1095FC01EB5AFD4F5081FD
:1016600051235083DC01AE59BD4F4C9141234C9323
:10167000DC01A05BBD4F3C9131233C9360FF02C075
:10168000522B508361FF05C0FC01EE59FD4F422BE8
:10169000408367FF05C0FC01E05BFD4F322B3083C8
:1016A0006C7070706115710581F0FC01EB5AFD4F93
:1016B0003081322B3083FC01EE59FD4F8081822B2B
:1016C000808303C02AEE3FEF02C020E030E0C90172
:1016D0001F910895ECE7F0E080818F738083808113
:1016E00080648083EAE7F0E0808187608083808186
:1016F0008F77808380E090E00895FC012181822F24
:1017000090E030917C00307E30937C0030917C0002
:10171000883091050CF0205E232B20937C00809173
:101720007A00806480937A0080917A0086FDFCCFF5
:101730008091780090917900392F20E0442737FD7F
:101740004095542F90E0A0E0B0E0282B392B4A2B95
:101750005B2BB901CA01089584B5836084BD85B54A
:10176000886085BD089584B58C7F84BD85B5877FED
:1017700085BD0895E0E8F0E0808182608083E1E843
:10178000F0E080818A6180838FE39CE990938700F9
:10179000809386000895E0E8F0E080818D7F80836B
:1017A000E1E8F0E08081807E8083109287001092D3
:1017B00086000895E0E9F0E0808182608083E1E9BD
:1017C000F0E080818A6180838FE39CE990939700A9
:1017D000809396000895E0E9F0E080818D7F80831A
:1017E000E1E9F0E08081807E808310929700109282
:1017F00096000895E1ECF0E080818B60808308958D
:10180000E1ECF0E08081847F8083089541155105EB
:101810006105710521F04150504060407040509387
:1018200087004093860080E090E008952091860034
:101830003091870040E050E02F5F3F4F4F4F5F4FA8
:10184000B901CA010895411551056105710521F0DD
:101850004150504060407040509397004093960034
:1018600080E090E00895209196003091970040E04C
:1018700050E02F5F3F4F4F4F5F4FB901CA010895AE
:101880004093D10080E090E008956091D10070E035
:1018900080E090E00895FC01A089B1898C91938942
:1018A000892321E030E011F420E030E0C9010895FF
:1018B000FC01A089B1899389411551056105710524
:1018C00019F08C91892B03C08C91909589238C936E
:1018D00080E090E00895DF93CF9300D000D0CDB7A3
:1018E000DEB749835A836B837C83842F952FA62F81
:1018F000B72F0097A105B10539F00197A109B109EA
:1019000089839A83AB83BC83898188BD80E090E022
:101910000F900F900F900F90CF91DF91089528B501
:1019200030E02F5F3F4F442737FD4095542FB901DA
:10193000CA010895FC0162857385848595850895A3
:10194000411551056105710521F04150504060403D
:101950007040DC015796ED91FC915897518340837C
:1019600080E090E00895DC015796ED91FC91589746
:101970002081318140E050E02F5F3F4F4F4F5F4F5C
:10198000B901CA0108954093D20080E090E0089523
:101990006091D20070E080E090E008958091C100F5
:1019A000992787FD9095892F881F8827881F90E0A9
:1019B0000895411551056105710521F08091C1001F
:1019C000806803C08091C1008F778093C10080E060
:1019D00090E0089521E030E002C0220F331F8A9585
:1019E000E2F7442737FD4095542F80916C02909187
:1019F0006D02A0916E02B0916F02282339234A2311
:101A00005B2361E070E0211531054105510511F4BA
:101A100060E070E0CB0108950F931F93CF93DF93A5
:101A2000EC0108811981C8010E94EA0C009731F08D
:101A3000F801E059FD4F808181508083F801E05921
:101A4000FD4F8081882319F4EBA5FCA50995E88951
:101A5000F98980819A8990958923808321E030E0FB
:101A600002C0220F331F0A95E2F7C901AA2797FD8A
:101A7000A095BA2F409168025091690260916A0264
:101A800070916B0284239523A623B7230097A105A9
:101A9000B10539F4EC89FD8980819E89909589236F
:101AA000808320953095442737FD4095542F8091B1
:101AB0006C0290916D02A0916E02B0916F02822330
:101AC0009323A423B52380936C0290936D02A0937B
:101AD0006E02B0936F02DF91CF911F910F91089525
:101AE000EF92FF920F931F93CF93DF93EC01F88057
:101AF0008E859F858C0100591D4FF801E080EE20F6
:101B000031F481E08083E9A5FAA5099507C00E9418
:101B1000EA0C009719F4E394F801E082E889F98966
:101B200080819A89892B8083EC89FD8980816E89E7
:101B30008623209168023091690240916A02509197
:101B40006B028823C9F081E090E00F2C02C0880F5F
:101B5000991F0A94E2F7AA2797FDA095BA2F822B26
:101B6000932BA42BB52B8093680290936902A093CA
:101B70006A02B0936B021DC081E090E00F2C02C09E
:101B8000880F991F0A94E2F780959095AA2797FDF0
:101B9000A095BA2F82239323A423B52380936802B0
:101BA00090936902A0936A02B0936B028081862BA6
:101BB000808321E030E002C0220F331FFA94E2F765
:101BC000442737FD4095542F80916C0290916D020F
:101BD000A0916E02B0916F02822B932BA42BB52B98
:101BE00080936C0290936D02A0936E02B0936F028B
:101BF00080E090E0DF91CF911F910F91FF90EF90E7
:101C000008958091E80080FFFCCF089581E08093E3
:101C1000D70080EA8093D80082E189BD09B400FE34
:101C2000FDCF80E98093D8001092E000109252011D
:101C300010925401109253018CE08093E20080E0F6
:101C400090E0089580E090E008950F931F938091B5
:101C500052018823A9F11FB7F89483E08093E9002B
:101C6000E091F200862F972FDC0120E030E0F0E0D9
:101C700083E00FC08093E9009091E80095FD02C0D9
:101C80001FBF10C08093E9009091F1009D932F5FDA
:101C90003F4F642F752FE617F7070CF4BF01261787
:101CA000370744F383E08093E9008091F2008823B2
:101CB00029F48091E8008F778093E8001FBF02C06D
:101CC00025EF3FEFC9011F910F910895E2EEF0E07B
:101CD0008081877F808308958091520190E00895EC
:101CE000809153019091540108951F93DC018091DC
:101CF0005201882309F41BC12FB7F89484E0809324
:101D0000E90080915D01882341F08091E80085FD24
:101D100002C02FBF16C010925D0114E050E44AE3E8
:101D200035E0FEC08091E400875E9091E80095FD6B
:101D300015C02FBF9091E400981731F481E0809393
:101D40005D012BEF3FEFF5C090915201992309F40B
:101D5000EEC02FB7F8941093E900E7CF8091F2001E
:101D6000E52FE81B8E2F90E06817790708F4E62F1F
:101D70006E1B7109F0E0E134F10508F0C5C0E05BCD
:101D8000F04DEE0FFF1F0590F491E02D09948D9119
:101D90008093F1008D918093F1008D918093F100FB
:101DA0008D918093F1008D918093F1008D918093BE
:101DB000F1008D918093F1008D918093F1008D91D0
:101DC0008093F1008D918093F1008D918093F100CB
:101DD0008D918093F1008D918093F1008D9180938E
:101DE000F1008D918093F1008D918093F1008D91A0
:101DF0008093F1008D918093F1008D918093F1009B
:101E00008D918093F1008D918093F1008D9180935D
:101E1000F1008D918093F1008D918093F1008D916F
:101E20008093F1008D918093F1008D918093F1006A
:101E30008D918093F1008D918093F1008D9180932D
:101E4000F1008D918093F1008D918093F1008D913F
:101E50008093F1008D918093F1008D918093F1003A
:101E60008D918093F1008D918093F1008D918093FD
:101E7000F1008D918093F1008D918093F1008D910F
:101E80008093F1008D918093F1008D918093F1000A
:101E90008D918093F1008D918093F1008D918093CD
:101EA000F1008D918093F1008D918093F1008D91DF
:101EB0008093F1008D918093F1008D918093F100DA
:101EC0008D918093F1008D918093F1008D9180939D
:101ED000F1008D918093F1008D918093F1008D91AF
:101EE0008093F1008D918093F1008D918093F100AA
:101EF0008D918093F1008D918093F1008D9180936D
:101F0000F1008D918093F1008D918093F10080918B
:101F1000E80085FD02C04093E80030935C012FBFCC
:101F20006115710509F0FECE20E030E002C025EF1A
:101F30003FEFC9011F910895EF92FF92CF93DF9376
:101F4000CB01EA01209759F480915201882379F05E
:101F5000809153019091540180FD0BC008C0BA01DB
:101F60000E94750E009729F0CFEFDFEF02C0C5EF9A
:101F7000DFEFCE01DF91CF91FF90EF90089583E0E6
:101F800090E09093CD008093CC0010927B02109251
:101F90007A02109279021092780288E98093C9003F
:101FA00080E090E0089580E090E00895862F972FDC
:101FB000FC0180E090E008C021913091C80035FF1D
:101FC000FCCF2093CE00019684179507ACF3CA018D
:101FD0000895E9ECF0E0808187768083089500D051
:101FE0008CEC91E6EDB7FEB7928381830E94682561
:101FF0000F900F900895EF92FF92CF93DF9382306E
:102000009105CCF1DB011296ED91FC911397808143
:1020100090E0C1978330910598F000D000D02DEF6B
:1020200031E6EDB7FEB732832183948383830E9428
:1020300068250F900F900F900F90CAEEDFEF1DC034
:1020400080937E01FC01EE0FFF1FE80FF91FEE0FDA
:10205000FF1FEC51FE49208131814281538160E4B0
:1020600072E48FE090E00E942E2F21503040309398
:10207000CD002093CC00C0E0D0E080917E01882389
:1020800051F000D089EF91E6ADB7BEB712969C93A0
:102090008E93119707C000D08BEF91E6EDB7FEB796
:1020A000928381830E94682500D000D0EDB7FEB7EF
:1020B000319680EF91E6ADB7BEB712969C938E93A2
:1020C000119781E090E0938382838EE591E0958380
:1020D00084830E946825EDB7FEB736960FB6F89454
:1020E000FEBF0FBEEDBF80917E01813051F000D068
:1020F00089EF91E6ADB7BEB712969C938E93119778
:1021000007C000D08BEF91E6EDB7FEB792838183D5
:102110000E94682500D000D0EDB7FEB7319680EF61
:1021200091E6ADB7BEB712969C938E93119782E05D
:1021300090E09383828385E691E0958384830E9477
:102140006825EDB7FEB736960FB6F894FEBF0FBE02
:10215000EDBFCE01DF91CF91FF90EF900895EF9208
:10216000FF92CF93DF93CB0160917A0270917B0253
:1021700020E230E0261B370BC0917802D091790223
:10218000C20FD31FCF71D0704C175D070CF4EA015A
:102190002C173D070CF4E901209749F164587D4F55
:1021A000AE010E94322780917A0290917B028C0FBF
:1021B0009D1F8F71907090937B0280937A02109292
:1021C0009D0210929C022091780230917902281B86
:1021D000390B2F7130702115310559F084E192E0EF
:1021E0006CED76E047E050E00E944C0602C0C5EF7F
:1021F000DFEFCE01DF91CF91FF90EF900895289A05
:10220000239A80E090E008958091600590916105A7
:10221000809590952091620530916305820F931F00
:102220008F739070242F352F821793070CF49C0125
:102230002115310519F1862F972FDC0140E050E080
:1022400019C06D91E0916405F0916505809160057C
:1022500090916105E80FF91F60838091600590916E
:10226000610501968F73907090936105809360056E
:102270004F5F5F4F4217530724F302C025EF3FEF34
:10228000C90108958CB58F778CBD8CB58F7B8CBDC3
:1022900080915A0590915B0560E470E00E949A2B52
:1022A000809164059091650560E470E00E949A2B2E
:1022B0000895EF92FF921F93CF93DF93CB011FB747
:1022C000F894E0915805F091590520E430E02E1B78
:1022D0003F0BC0915605D0915705C20FD31FCF7346
:1022E000D0704C175D070CF4EA012C173D070CF475
:1022F000E901209721F41FBFC5EFDFEF2DC06091EA
:102300005A0570915B056E0F7F1FAE010E94322748
:1023100080915805909159058C0F9D1F8F73907077
:10232000909359058093580510925D0510925C05B5
:102330002091560530915705281B390B2F733070AB
:102340002115310541F08EE192E06CED76E047E039
:1023500050E00E944C061FBFCE01DF91CF911F912C
:10236000FF90EF90089580E48CBD8CB580688CBDA3
:1023700080E490E00E944E2C90935B0580935A0578
:1023800080E490E00E944E2C909365058093640554
:1023900080E090E0089500D08DE192E6EDB7FEB7C1
:1023A000928381830E9468250F900F900895AF92C9
:1023B000BF92CF92DF92EF92FF920F931F93CF9332
:1023C000DF93C0E0D0E02EE3E22E22E6F22E98E387
:1023D000C92E92E6D92E86E3A82E82E6B82E8E016B
:1023E000077010700115110591F400D000D0ADB741
:1023F000BEB71296FC92EE9211971496DC93CE9390
:1024000013970E9468250F900F900F900F9089915D
:1024100000D000D0EDB7FEB73196ADB7BEB712967B
:10242000DC92CE921197828313820E9468250F90CE
:102430000F900F900F900730110549F400D0EDB7C1
:10244000FEB7B282A1820E9468250F900F90F1E042
:10245000C030DF0721F600D084E392E6ADB7BEB707
:1024600012969C938E9311970E9468250F900F905F
:1024700080E090E0DF91CF911F910F91FF90EF905E
:10248000DF90CF90BF90AF900895CF93DF93C7E8D0
:10249000D1E0CE0162E070E040E050E00E947906B9
:1024A00090933F0580933E05CE0161E070E040E0EF
:1024B00050E00E947906909367078093660780E05A
:1024C00090E0DF91CF910895E1E6F0E080E880832D
:1024D00010820E94C7260E9494280E94D52780E07F
:1024E00090E008950895EF92FF920F931F93DA0101
:1024F000FC0184819581FC01E60FF71FE590F590C2
:1025000005911491EC921196FC92119712960C93EE
:10251000129713961C93139721153105C1F06C5F28
:102520007F4F680F791FFB0125913591459154919B
:1025300014962C93149715963C93159716964C93D6
:10254000169717965C93179728E030E002C024E0B6
:1025500030E0C9011F910F91FF90EF900895CF9344
:10256000DF93FA01DC011496CD91DC911597C60F2B
:10257000D71F88819981AA81BB8180839183A2839F
:10258000B3832115310559F08C819D81AE81BF81C6
:1025900084839583A683B78328E030E002C024E0DB
:1025A00030E0C901DF91CF910895CF93DF93FA0115
:1025B000DC011696CD91DC911797C60FD71F80814D
:1025C0009181A281B38188839983AA83BB832115DA
:1025D000310559F084819581A681B7818C839D83D3
:1025E000AE83BF8328E030E002C024E030E0C901C0
:1025F000DF91CF910895AC0183E991E061E070E053
:102600000E9479069C01009721F420916607309181
:102610006707C9010895EF92FF92CF93DF93E82EE9
:10262000E7017E01F92EE701209759F1C7010E94C9
:10263000FB1299838883009721F400D08FEA92E6F9
:1026400018C083E991E062E070E0A7010E9479067A
:102650009B838A83009731F480913E0590913F05DA
:102660009B838A838A819B81009771F400D08AE9D9
:1026700092E6EDB7FEB7928381830E9468250F90A2
:102680000F902FEF3FEF02C020E030E0C901DF9153
:10269000CF91FF90EF900895CF93DF93DA01EC0193
:1026A000EC81FD812115310559F4E60FF71F859165
:1026B00094918C9311969C93119722E030E009C07D
:1026C0006E0F7F1FCA0148E050E00E94FB2E28E0F9
:1026D00030E0C901DF91CF910895CF93DF93DA0104
:1026E000EC01EC81FD812115310539F4E60FF71F6E
:1026F000E491EC9321E030E009C06E0F7F1FCA0126
:1027000048E050E00E94FB2E28E030E0C901DF9154
:10271000CF9108959B01BA01FC0186819781820FB8
:10272000931F48E050E00E94322788E090E008952F
:10273000FB01BA01DC0116968D919C91179721152A
:10274000310559F4E80FF91FDA018D919C91119729
:102750009183808322E030E008C08E0F9F1F48E005
:1027600050E00E94322728E030E0C9010895FB01C3
:10277000BA01DC0116968D919C91179721153105B0
:1027800041F4E80FF91FDA018C91808321E030E0F9
:1027900008C08E0F9F1F48E050E00E94322728E0BB
:1027A00030E0C90108959B01FC0164817581620FCD
:1027B000731FCA0148E050E00E94322788E090E091
:1027C0000895FA01DC0114968D919C9115972115BD
:1027D000310559F4680F791FDB018D919C91119798
:1027E0009183808322E030E009C0680F791FCA011D
:1027F00048E050E00E94322728E030E0C901089507
:10280000FA01DC0114968D919C91159721153105E3
:1028100041F4680F791FDB018C91808321E030E067
:1028200009C0680F791FCA0148E050E00E943227B2
:1028300028E030E0C90108959B01FC0164817581A5
:10284000620F731FCA0148E050E00E94322788E0FF
:1028500090E0089540E150E00E94A70797FF0BC069
:1028600000D085E892E6EDB7FEB7928381830E949F
:1028700068250F900F900895FC01A681B781048010
:10288000F581E02D6681778112968D919C91139749
:102890000E942A1408958F929F92AF92BF92CF9276
:1028A000DF92EF92FF920F931F93DF93CF93CDB7F9
:1028B000DEB7A4970FB6F894DEBF0FBECDBFDC0124
:1028C00016960D911C9117978091A2029091A302E8
:1028D000009739F481E090E09093A3028093A202E4
:1028E00019C0F801848995890097A1F08091680743
:1028F00090916907A0916A07B0916B0720919E02A1
:1029000030919F02245F3F4F281B390B37FF02C0D5
:10291000158A148A8091680790916907A0916A07C7
:10292000B0916B0780939E0290939F02A093A002A8
:10293000B093A102D801ED90FC90119794E0C92EBC
:10294000D12CC00ED11E54968D919C915597B601F5
:10295000680F791F40E150E0481B590BC7010E94E6
:102960004F07181619068CF0009749F4C7010E940A
:102970002307C8010E94FB12F80191838083D801CC
:1029800055961C921E92549733C1F80124893589BB
:10299000280F391F358B248B2031310508F428C1CD
:1029A000158A148A6681862F8E71823009F020C1C3
:1029B000858182958F7061706295607F682B70E071
:1029C00083E0660F771F8A95E1F7605A7849F7E64A
:1029D00068387F0770F4CE01019648E050E00E940D
:1029E000FB2ED80117968C91179790E086FD00C1B9
:1029F00017C0F801828193812DEE3FEF4FEF5FEF1B
:102A0000D80118962D933D934D935C931B97179681
:102A10002C911797206217962C931797B601E4C054
:102A20008F71907095958795A1E0EA2EF12C02C0E8
:102A3000EE0CFF1C8A95E2F7CC24DD24AA24BB24EB
:102A4000F9E08F2E912C8C0E9D1E29C06B817C810C
:102A50006C0D7D1DC4014AE050E00E94FB2EEB8509
:102A6000FC858591949149855A85F8012481658179
:102A7000362F3F702417350758F0215030402E0D67
:102A80003F1D41505040480F591F421753076CF4E7
:102A90000894A11CB11C8AE090E0C80ED91E89815F
:102AA0009A81A816B90694F28CC0D80117962C9179
:102AB000179730E02078307069897A89611571053F
:102AC00021F1CE01439640E150E02BA33CA30E94AC
:102AD000FB2ED8011796EC911797F0E0CE010196E6
:102AE0002BA13CA1E0FD09C0EE71F070E80FF91FC9
:102AF000C288D388A0E0B0E00CC03197EE71F070CE
:102B0000E80FF91FA28DB38D02C0A0E0B0E0CC2485
:102B1000DD244F815885BA01C8010496E0E1EE2E0C
:102B2000FC010190CF01FB010192BF01EA94C1F7C2
:102B3000FA01838180648383C114D10499F0D801A0
:102B400014966C91149715968C91782F7F708985C7
:102B50009A85681B790B4C5F5F4FCE010996F60191
:102B6000099512C01097A1F0F80164818581782F32
:102B70007F7089859A85681B790BA801485F5F4F34
:102B8000CE010996FD0109959C0197FF12C002C074
:102B90002FEF3FEFEF81F885D80112968D919C9130
:102BA0001397309521953F4F442737FD4095542F7B
:102BB00013C06F817885F801828193810E942A1465
:102BC00017C0EF81F885D80112968D919C911397CB
:102BD00026E130E040E050E024833583468357838C
:102BE000238120622383BF0140E150E00E94A707B8
:102BF000A4960FB6F894DEBF0FBECDBFCF91DF9184
:102C00001F910F91FF90EF90DF90CF90BF90AF900A
:102C10009F908F9008959B0168E070E00E941B2FA9
:102C20006F5F7F4FFB01EE0FFF1FE60FF71F2115B0
:102C3000310551F092A121E030E002C0220F331F94
:102C40008A95E2F7922B0AC092A121E030E002C0FF
:102C5000220F331F8A95E2F72095922392A30895BD
:102C600068E070E00E941B2F6F5F7F4FFB01EE0F4B
:102C7000FF1FE60FF71F90A121E030E002C0220FF6
:102C8000331F8A95E2F7922321E030E011F420E02F
:102C900030E0C90108959C01FB014FB7F89460E250
:102CA00070E00E941B2F660F771F660F771FE60FDD
:102CB000F71F80819181A281B3814FBF2F71307046
:102CC00004C0B695A795979587952A95D2F79C014C
:102CD00021703070C90108958FEF9FEF08958FEF35
:102CE0009FEF08958FEF9FEF08958FEF9FEF089567
:102CF0008FEF9FEF08958FEF9FEF08952F923F92F0
:102D00004F925F926F927F928F929F92AF92BF92FB
:102D1000CF92DF92EF92FF920F931F93DF93CF93A7
:102D200000D000D000D0CDB7DEB73B018C0163E00E
:102D3000000F111F6A95E1F74115510511F42901A2
:102D400003C098E0492E512CEE24FF243E832D83AE
:102D500092C0C70168E070E00E941B2F9B014D816B
:102D60005E814830510521F1C70160E170E00E94A9
:102D70001B2F5B01AA0CBB1CA60CB71CC70160E291
:102D800070E00E941B2F6B01CC0CDD1CCC0CDD1CF9
:102D9000C60CD71C61E070E080E090E069837A8324
:102DA0008B839C83882499241301220E331E57C0E1
:102DB000F301E60FF71F4081C801877090700097FC
:102DC00099F6C8016D817E810E941B2F6F5F7F4F36
:102DD000FB01EE0FFF1FE60FF71F42A346C08D81D8
:102DE0009E818031910559F08032910571F08830D3
:102DF000910509F045C0D1018C9190E003C0F50127
:102E000080819181A0E0B0E005C0F60180819181D0
:102E1000A281B3819401200F311F49815A816B81B6
:102E20007C8184239523A623B72361E070E000977B
:102E3000A105B10511F460E070E0C9010E940B1614
:102E40000894811C911C69817A818B819C81660F19
:102E5000771F881F991F69837A838B839C838D8159
:102E60009E81881699060CF4BACFAD81BE81EA0E18
:102E7000FB1E0A0F1B1FE414F5040CF46ACF04C0F8
:102E80006AEE462E6FEF562EC20126960FB6F894C4
:102E9000DEBF0FBECDBFCF91DF911F910F91FF908D
:102EA000EF90DF90CF90BF90AF909F908F907F90EA
:102EB0006F905F904F903F902F900895CB01BA0193
:102EC000A90128E030E00E947E160895CB01BA01E6
:102ED000A90120E130E00E947E160895CB01BA01DD
:102EE000A90120E230E00E947E160895CB01BA01CC
:102EF000A90128E030E00E947E160895CB01BA01B6
:102F0000A90128E030E00E947E1608952F923F929A
:102F10004F925F926F927F928F929F92AF92BF92E9
:102F2000CF92DF92EF92FF920F931F93DF93CF9395
:102F300000D000D0CDB7DEB73B013C832B838C01A2
:102F400063E0000F111F6A95E1F74115510511F477
:102F5000290103C098E0492E512CCC24DD2428E01F
:102F600030E08FC0C601B9010E941B2F1B01F30185
:102F7000E60FF71F8B819C8180319105E9F080324B
:102F80009105F1F08830910519F5C80187709070AE
:102F9000009781F4C8016B817C810E941B2F6F5FB9
:102FA0007F4FDB01AA0FBB1FA60FB71F90968C9116
:102FB000909701C08AEE8083AAEDBFEFB183A08312
:102FC0008AED9FEFAFEFBFEF80839183A283B3833E
:102FD000882499245401EE24FF241CC0C701800FCB
:102FE000911F29833A830E943016AA2797FDA09546
:102FF000BA2F0E2C04C0880F991FAA1FBB1F0A945A
:10300000D2F7882A992AAA2ABB2A0894E11CF11C23
:103010003A812981AB81BC81EA16FB06FCF2A03122
:10302000B10559F0A032B105A9F0A830B10571F58C
:10303000F301E20DF31D80821EC0C6016B817C810D
:103040000E941B2F660F771F660D771DFB01918273
:10305000808211C0C6016B817C810E941B2F660F8C
:10306000771F660F771F660D771DDB018D929D928E
:10307000AD92BC921397EB81FC81CE0EDF1E0E0F3A
:103080001F1FC414D5040CF46DCF04C07AEE472E74
:103090007FEF572EC2010F900F900F900F90CF919E
:1030A000DF911F910F91FF90EF90DF90CF90BF9035
:1030B000AF909F908F907F906F905F904F903F90D8
:1030C0002F900895CB01BA01A90128E030E00E94B9
:1030D00086170895CB01BA01A90120E130E00E94D2
:1030E00086170895CB01BA01A90120E230E00E94C1
:1030F000861708956F927F928F929F92AF92BF92A0
:10310000CF92DF92EF92FF920F931F93DF93CF93B3
:10311000CDB7DEB728970FB6F894DEBF0FBECDBF90
:103120004C01762E672E8A0179014115510519F45B
:10313000C22EDF2C03C078E2C72ED12CC4015E0161
:103140000894A11CB11CB501A80197010E94861723
:1031500097FD1EC0C60168E070E00E941B2FC301EE
:10316000E92FF62DD50180E090E005C031912C913A
:10317000232B2D93019686179707C4F3C401BE0134
:103180006F5F7F4FA70198010E947E169C0102C0CD
:103190002FEF3FEFC90128960FB6F894DEBF0FBEA0
:1031A000CDBFCF91DF911F910F91FF90EF90DF90F6
:1031B000CF90BF90AF909F908F907F906F90089529
:1031C000CB01BA01A90120E130E00E947A180895EC
:1031D000CB01BA01A90120E230E00E947A180895DB
:1031E0006F927F928F929F92AF92BF92CF92DF9217
:1031F000EF92FF920F931F93DF93CF93CDB7DEB77C
:1032000028970FB6F894DEBF0FBECDBF4C01762EC7
:10321000672E8A0179014115510519F4C22EDF2C60
:1032200003C0E8E2CE2ED12CC4015E010894A11C9B
:10323000B11CB501A80197010E94861797FD1EC019
:10324000C60168E070E00E941B2FC301E92FF62D34
:10325000D50180E090E005C031912C91232B2D9376
:10326000019686179707C4F3C401BE016F5F7F4FB5
:10327000A70198010E947E169C0102C02FEF3FEF2C
:10328000C90128960FB6F894DEBF0FBECDBFCF910F
:10329000DF911F910F91FF90EF90DF90CF90BF9043
:1032A000AF909F908F907F906F900895CB01BA015F
:1032B000A90120E130E00E94F0180895CB01BA0185
:1032C000A90120E230E00E94F01808952F923F9269
:1032D0004F925F927F928F929F92AF92BF92CF92C6
:1032E000DF92EF92FF920F931F93CF93DF931C0116
:1032F000F62FE72FC9014115510531F468E070E060
:103300000E941B2F7B0103C018E0E12EF12CCF019E
:10331000892E9E2E00E010E0B1E0AB2EB12C39C01A
:10332000F40141904F015524C201837090708330A5
:10333000910599F16801C20CD31CC6010E94301698
:103340009C01C60168E070E00E941B2F782E6F5F21
:103350007F4FEB01CC0FDD1FC60FD71FC601B90190
:103360000E940B1641FE09C029A1C50102C0880FA9
:10337000991F7A94E2F7282B09C029A1C50102C040
:10338000880F991F7A94E2F78095282329A30F5F6D
:103390001F4F0E151F0524F204C0FAEEEF2EFFEFAB
:1033A000FF2EC701DF91CF911F910F91FF90EF90FA
:1033B000DF90CF90BF90AF909F908F907F905F9065
:1033C0004F903F902F900895CB01BA01A90128E0BA
:1033D00030E00E9466190895CB01BA01A90120E1ED
:1033E00030E00E9466190895CB01BA01A90120E2DC
:1033F00030E00E9466190895CF92DF92EF92FF921B
:103400000F931F93CF93DF937C01F62FE72FC90112
:103410004115510531F468E070E00E941B2F9B01BB
:1034200002C021E030E0CF01C92EE6016E01DE2EA0
:10343000E601E0E0F0E008E010E01DC0CF018E0DF5
:103440009F1DB8010E941B2F6F5F7F4FDB01AA0FEA
:10345000BB1FA60FB71F91964C91919750E002C0E9
:10346000559547958A95E2F740FF02C082E001C07A
:1034700081E089933196E217F30704F3C901DF91E4
:10348000CF911F910F91FF90EF90DF90CF90089513
:10349000CB01BA01A90128E030E00E94FC1908958F
:1034A000CB01BA01A90120E130E00E94FC19089586
:1034B000CB01BA01A90120E230E00E94FC19089575
:1034C000AF92BF92CF92DF92EF92FF920F931F9332
:1034D000CF93DF938B012115310521F434E0C32E06
:1034E000D12C03C021E0C22ED12CE42EE7017E01B5
:1034F000F52EE701EE24FF245E01888181FF05C0DF
:10350000C8016AED72E00E94270A888180FF05C029
:10351000C80162EE72E00E94270A888182FF05C01E
:10352000C80162EC72E00E94270A888183FF05C00F
:10353000C8016AEC72E00E94270A888187FF05C0F3
:10354000C8016AEE72E00E94270A2196F5016081A7
:10355000C80170E00E94150B9C0197FD09C00894FA
:10356000E11CF11C0F5F1F4FEC14FD042CF29601BF
:10357000C901DF91CF911F910F91FF90EF90DF90E4
:10358000CF90BF90AF9008956F927F928F929F924D
:10359000AF92BF92CF92DF92EF92FF920F931F9361
:1035A000DF93CF93CDB7DEB728970FB6F894DEBF81
:1035B0000FBECDBF80E090E0BE016F5F7F4F40E067
:1035C00050E020E230E00E94861784E090E0BE01E7
:1035D0006B5F7F4F40E050E020E230E00E948617B2
:1035E000A980BA80CB80DC806D807E808F809884BB
:1035F0008091C6029091C702A091C802B091C90201
:1036000086219721A821B9212091BE023091BF02C5
:103610004091C0025091C102822B932BA42BB52B59
:10362000EEEBF2E02091C2023091C3024091C4025D
:103630005091C5022A213B214C215D21129102911A
:10364000F290E2902E293F29402B512BA094B09468
:10365000C094D094E090CA02F090CB020091CC02CA
:103660001091CD02AE20BF20C022D1222A293B29B1
:103670004C295D2920833183428353836094709465
:10368000809490942091CE023091CF024091D0024C
:103690005091D10262227322842295228629972991
:1036A000A829B9298093BE029093BF02A093C002BB
:1036B000B093C10228960FB6F894DEBF0FBECDBFFF
:1036C000CF91DF911F910F91FF90EF90DF90CF90FE
:1036D000BF90AF909F908F907F906F900895CF9202
:1036E000DF92EF92FF920F931F93DF93CF93CDB7AB
:1036F000DEB728970FB6F894DEBF0FBECDBF8B01A3
:10370000D42EC52E06541D4F2115310521F464E039
:10371000E62EF12C03C051E0E52EF12CCE010196EE
:103720006AEB72E048E050E00E9432279601832F56
:103730009C2DFC0180E090E0D8012C9121931D92FA
:103740008D0101968E159F05BCF30E94C41A8981D4
:103750009A81AB81BC810097A105B10549F48D81A7
:103760009E81AF81B8850097A105B10509F445C0D8
:103770008091BA029091BB02A091BC02B091BD02AF
:103780000097A105B105C9F58091BE029091BF02D5
:10379000A091C002B091C1020097A105B10569F5E1
:1037A00080E697E68056974643E0959587954A953B
:1037B000E1F79093D7028093D6021092D90210922B
:1037C000D80284EF96E066ED72E047E050E00E9498
:1037D000EC28009791F000D000D08FE293E6EDB78F
:1037E000FEB79283818386EA91E0948383830E946B
:1037F00068250F900F900F900F90C70128960FB675
:10380000F894DEBF0FBECDBFCF91DF911F910F9116
:10381000FF90EF90DF90CF900895DC011496ED912A
:10382000FC9115972091CA023091CB024091CC02B5
:103830005091CD028091C2029091C302A091C40226
:10384000B091C502822B932BA42BB52B809590951C
:10385000A095B095208131814281538182239323A9
:10386000A423B5232091BA023091BB024091BC023F
:103870005091BD02822B932BA42BB52B8093BA02BF
:103880009093BB02A093BC02B093BD021082118240
:10389000128213822091CE023091CF024091D00249
:1038A0005091D1028091C6029091C702A091C802A6
:1038B000B091C902822B932BA42BB52B80959095A8
:1038C000A095B09524813581468157818223932329
:1038D000A423B5232091BE023091BF024091C002C3
:1038E0005091C102822B932BA42BB52B8093BE0247
:1038F0009093BF02A093C002B093C10214821582BC
:10390000168217820E94C41A80E697E68056974670
:1039100073E0959587957A95E1F79093D30280931C
:10392000D2028091BA029091BB02A091BC02B091E8
:10393000BD020097A105B10589F421E030E0809136
:10394000BE029091BF02A091C002B091C102009747
:10395000A105B10529F420E030E002C021E030E00B
:103960003093D5022093D40284EF96E062ED72E0AA
:1039700047E050E00E94EC280895AF92BF92CF92AA
:10398000DF92EF92FF920F931F93CF93DF935B0130
:10399000E42EE7017E01F52EE7012115310521F422
:1039A000F4E0CF2ED12C03C0E1E0CE2ED12CEE24BA
:1039B000FF24188287010A0D1B1DC8016AED72E001
:1039C0000E944B16009719F0888182608883C80195
:1039D00062EE72E00E944B16009719F088818160B8
:1039E0008883C80162EC72E00E944B16009719F0C0
:1039F000888184608883C8016AEC72E00E944B165B
:103A0000009719F0888188608883C8016AEE72E0A7
:103A10000E944B16009719F088818068888308946B
:103A2000E11CF11CEC14FD0414F42196C2CFC60174
:103A3000DF91CF911F910F91FF90EF90DF90CF908A
:103A4000BF90AF90089580917A00992787FD909557
:103A5000A92FB92F8827B7FD83959927AA27BB27B8
:103A6000FA0180839183A283B38380E090E008957C
:103A7000FA0180819181A281B3810097A105B105EE
:103A800031F00E946A0B80917A00806803C08091B7
:103A90007A008F7780937A0080E090E00895AF926B
:103AA000BF92CF92DF92EF92FF920F931F93DF931B
:103AB000CF93CDB7DEB72A970FB6F894DEBF0FBE0F
:103AC000CDBF6B018A017B0166E0F694E7946A95AD
:103AD000E1F755E0A52EB12CAC0EBD1EB701660F67
:103AE000771F6E0D7F1D660F771F6D54704AC501DD
:103AF00046E050E00E94FB2E8FE3C822DD24E4E084
:103B0000CE16D10409F441C0F5E0CF16D10420F45B
:103B1000C114D10459F057C088E0C816D104D1F1BE
:103B2000ECE0CE16D10409F04EC03EC081E489839A
:103B3000FAE0EF16F10430F0C7016AE070E00E948D
:103B4000072F01C06E2D605D6A838AE0E816F104DC
:103B500038F0C7016AE070E00E94072F805D01C065
:103B600080E08B831C82C801BE016F5F7F4F44E001
:103B700050E00E943227F8018081938190838383F3
:103B800081819281918382831BC08D8190E0A0E02E
:103B9000B0E004C08F819885A985BA85F80180833B
:103BA0009183A283B3830CC080917A0087FF0EC0FB
:103BB000C5010E947D0BF80160837183828393832A
:103BC00020E030E005C02AEE3FEF02C023EF3FEFD8
:103BD000C9012A960FB6F894DEBF0FBECDBFCF91B4
:103BE000DF911F910F91FF90EF90DF90CF90BF90EA
:103BF000AF900895AF92BF92CF92DF92EF92FF9273
:103C00000F931F93DF93CF93CDB7DEB7AD970FB66A
:103C1000F894DEBF0FBECDBF5B017A016B0196E069
:103C2000D694C7949A95E1F78DE290E0C89EB001D2
:103C3000C99E700DD89E700D11246D51704A8E0171
:103C40000F5F1F4FC8014DE250E00E94FB2EDA8249
:103C5000C9828FE3A822BB24A0E1AA16B10469F1AE
:103C6000B4E1AB16B10489F1ECE0AE16B104C1F5D4
:103C7000D7018C9180FF06C0EA8DFB8DC8010995A4
:103C80008C0106C0EC8DFD8DC801099500E010E0A7
:103C9000E8A5F9A5309731F1D7014D915D916D916E
:103CA0007C917695679557954795417050706070F7
:103CB0007070CE010196099515C0F70140815181C0
:103CC00062817381EAA1FBA107C0D7014D915D918B
:103CD0006D917C91ECA1FDA1C80109958C0102C0F8
:103CE0000AEE1FEFC801AD960FB6F894DEBF0FBE07
:103CF000CDBFCF91DF911F910F91FF90EF90DF909B
:103D0000CF90BF90AF900895AF92BF92CF92DF92C5
:103D1000EF92FF920F931F93DF93CF93CDB7DEB750
:103D2000AD970FB6F894DEBF0FBECDBF5B018A0121
:103D30006B0126E0D694C7942A95E1F78DE290E0D6
:103D4000C89EB001C99E700DD89E700D11246D5192
:103D5000704A7E010894E11CF11CC7014DE250E05D
:103D60000E94FB2EC982DA828FE3A822BB24E8E0FE
:103D7000AE16B10409F44FC0F9E0AF16B10448F42F
:103D8000A114B104B1F084E0A816B10409F07BC01D
:103D900022C0E0E1AE16B10409F468C0F4E1AF1648
:103DA000B10409F466C08CE0A816B10409F06BC038
:103DB00038C0C801BE016D5F7F4F44E050E00E94F3
:103DC0003227F8018081938190838383818192815E
:103DD000918382835BC08F819885A985BA85B070F5
:103DE000F80180839183A283B3832AA13BA121158B
:103DF000310529F0B16080839183A283B3838CA1C4
:103E00009DA1009709F442C0F80180819181A281AF
:103E1000B381B26026C08B859C85AD85BE85F801D7
:103E200020C0C6010E94EA0C21E030E040E050E0F2
:103E3000009719F420E030E0A901F80120833183D4
:103E400042835383EEA1FFA1309701F1CE01019689
:103E500009950097D9F0F80180819181A281B38101
:103E6000826080839183A283B38310C0EE8DFF8D27
:103E700002C0E8A1F9A1C7010995F8016083718327
:103E80008283938303C02AEE3FEF02C020E030E03C
:103E9000C901AD960FB6F894DEBF0FBECDBFCF916E
:103EA000DF911F910F91FF90EF90DF90CF90BF9027
:103EB000AF90089521153105A9F4CB01837090705E
:103EC000009799F46C7F64547E4FFB01808191814F
:103ED000A281B381FA0180839183A283B38324E01A
:103EE00030E005C02FEF3FEF02C02AEE3FEFC901DF
:103EF0000895009711F0769A08957698089580E0D5
:103F000090E00E94791F6E9A80E090E0089521E091
:103F100030E0009711F420E030E0C9010E94791FE1
:103F20000895EF92FF920F931F93FA012115310527
:103F300009F086C06830710541F06C30710509F4F4
:103F400046C06430710509F07BC02091BC013091FE
:103F5000BD014091BE015091BF01E080F18002811E
:103F600013818091C0019091C101A091C201B091D3
:103F7000C3016430710529F4E82AF92A0A2B1B2BA6
:103F800008C0E094F09400951095E822F9220A23E5
:103F90001B23E092C001F092C1010093C201109373
:103FA000C301E094F094009510958091CC0190911C
:103FB000CD01A091CE01B091CF01E822F9220A23D0
:103FC0001B23E216F3060407150731F53CC0809168
:103FD000BC019091BD01A091BE01B091BF01E080F4
:103FE000F18002811381E094F09400951095E8220D
:103FF000F9220A231B232091CC013091CD0140915D
:10400000CE015091CF01E22AF32A042B152BE8169A
:10401000F9060A071B07B9F081E090E0E114F1040A
:104020000105110511F480E090E00E94871FE092E5
:10403000BC01F092BD010093BE011093BF0103C00B
:104040002FEF3FEF02C024E030E0C9011F910F9134
:10405000FF90EF900895EF92FF920F931F93DC0172
:104060001496ED91FC911597808191818032910594
:1040700008F074C0E090CC01F090CD010091CE0129
:104080001091CF0121E030E002C0220F331F8A954A
:10409000E2F7C90180959095AA2797FDA095BA2FC0
:1040A0008E219F21A023B1238093CC019093CD0139
:1040B000A093CE01B093CF014281538141155105A8
:1040C00081F0442737FD4095542F282B392B4A2B5C
:1040D0005B2B2093CC013093CD014093CE015093C4
:1040E000CF018091CC019091CD01A091CE01B091F2
:1040F000CF01E816F9060A071B0781F12091C001DC
:104100003091C1014091C2015091C3012095309579
:1041100040955095282339234A235B238091BC0185
:104120009091BD01A091BE01B091BF012817390740
:104130004A075B0799F02093BC013093BD0140937F
:10414000BE015093BF0181E090E02115310541058A
:10415000510511F480E090E00E94871F1F910F919C
:10416000FF90EF900895519A009719F0599A51983D
:10417000089559980895509A009719F0589A5098B0
:1041800008955898089581E090E00E94B320089522
:1041900080E090E00E94BB20089581E090E00E94C2
:1041A000BB208091680790916907A0916A07B09140
:1041B0006B072091140330911503280F391F0DC090
:1041C0008091680790916907A0916A07B0916B0789
:1041D000A901481B590B57FD05C0489BF1CF20E0B2
:1041E00030E002C022E93FEFC90108950F931F9309
:1041F000CF93DF93C7E0D0E0082F10E0C8010C2E6A
:1042000002C0959587950A94E2F7817090700E949C
:10421000B3200E94CD2097FD15C00E94C820219791
:104220003FEFCF3FD30751F70E94C3200E94CD201C
:1042300097FD08C009B10E94C82001FD06C020E01A
:1042400030E005C022E93FEF02C02FEF3FEFC90188
:10425000DF91CF911F910F9108958093A40388233C
:1042600031F0843021F021E030E0893011F420E099
:1042700030E0C901089580E897E68056974623E02C
:10428000959587952A95E1F79093A6038093A503CA
:1042900081E090E09093A8038093A70384EF96E0D9
:1042A00065EA73E047E050E00E94EC28009759F07F
:1042B00000D08BED94E6EDB7FEB7928381830E9428
:1042C00068250F900F9008951F93182F80E090E0BD
:1042D0000E94B3200E94CD2081E090E00E94B32094
:1042E00010931E03113011F08BE001C080E0809329
:1042F000A4030E943B211F910895BF92CF92DF92A9
:10430000EF92FF920F931F93CF93DF93DC011496EC
:104310002C911497222349F0213009F06FC110929B
:104320001E0380E00E942D217EC14AEFE42EF12C75
:1043300001E010E038E1C32E33E0D32EF0921503F4
:10434000E092140310931303009312038091A403CB
:10435000853009F484C0863050F48130E9F0813032
:1043600098F0823099F1833009F05DC13AC087300E
:1043700009F4ADC0873008F4A1C0883009F4B9C091
:104380008A3009F050C132C180E090E00E94B32031
:104390000E94C82081E012C18091180390911903F6
:1043A000009749F081E090E020911A0330911B03BF
:1043B0002115310511F080E090E020911603822B49
:1043C0000E94F62097FD1BC082E0F8C080911A037E
:1043D00090911B03009781F110921D0310921C0312
:1043E0003AC0E091A303F0E0EE5EFC4F86850E94A8
:1043F000F62097FF06C08091A2038093A30380E874
:10440000F6C020911C0330911D032F5F3F4F309366
:104410001D0320931C036091A3036F5F6F7760936C
:10442000A30340911A0350911B038091A203241708
:10443000350721F48093A30385E0C0C090E0861B7C
:1044400091098F7790708430910519F40E943B2177
:1044500002C0009711F083E0B1C084E0AFC080914A
:10446000180390911903009709F4C0C020911A0312
:1044700030911B032115310579F4BFEF8F3F9B0766
:1044800019F48FEF9FEF02C080E090E090931D033E
:1044900080931C0388E00BC00E94C3200E94CD20A3
:1044A00080E090E00E94B3200E94C82086E00E9435
:1044B0002D2110921D0310921C039CC080911603A5
:1044C00081600E94F62097FD9ACF87E077C08091A7
:1044D000180390911903EFEF8F3F9E0719F48FEFA8
:1044E0009FEF02C080E090E090931D0380931C0337
:1044F00079C00E94C320C8E0D0E0BB240E94CD2038
:1045000097FD0BC0BB0C499B02C0F1E0BF2A80E0C5
:1045100090E00E94BB20219789F78091A00390E052
:10452000FC01EE5EFC4FB68620911C0330911D030A
:104530004FEF2F3F3407C9F42B2D30E08095909535
:104540004091A103840F911D8F779070821793077C
:1045500010F481E84CC010921D0310921C03B0921D
:104560001803D60111961C92119780911C0390910B
:104570001D03019690931D0380931C03C1E0D0E0BE
:1045800020911803309119038217930711F0C0E0AE
:10459000D0E0209721F480E090E00E94B3200E94B8
:1045A000CD2097FD02C00E94C8208091A0038F5F9C
:1045B0008F778093A003209721F08AE00E942D211D
:1045C00019C090E0809590952091A103820F911DD4
:1045D0008F7790708C31910519F40E943B2102C0B5
:1045E000009711F088E0EACF89E0E8CF81E00E94EF
:1045F000642119C0009709F0A1CE15C000D000D0E9
:10460000EDB7FEB731968AEC94E6ADB7BEB7129619
:104610009C938E931197228313820E9468250F909A
:104620000F900F900F90DF91CF911F910F91FF90FE
:10463000EF90DF90CF90BF90089588EF96E060E014
:1046400070E047E050E00E94EC280895AF92BF92DE
:10465000CF92DF92EF92FF920F931F93CF93DF934E
:104660005C016B017A012115310519F008E010E0B9
:1046700002C004E010E0C0E0D0E0FE01EC7FEE0DEF
:10468000FF1D80819181A281B381F501208131815B
:104690002C0D3D1D2C0F3D1F2C31310509F447C059
:1046A0002D313105A8F42031310509F460C02131E4
:1046B000310528F42830310509F060C01CC02431D0
:1046C000310509F454C02831310509F057C018C02C
:1046D00028323105A1F12932310528F4243231057F
:1046E00009F04CC027C02C32310571F12833310557
:1046F00009F044C031C0909317038093160337C06C
:1047000081709070009799F180911E0381FD39C0EE
:10471000826080931E0388EF96E060E070E047E0DF
:1047200050E00E94EC289C0197FF21C02CC0809390
:104730001F031DC090931B0380931A0318C090930E
:1047400019038093180313C08093A2038091A403DC
:10475000843069F483E007C08093A1038091A403AF
:10476000893029F488E00E942D210E941D2324967F
:10477000C017D10708F481CF980105C02FEF3FEF94
:1047800002C020EF3FEFC901DF91CF911F910F9140
:10479000FF90EF90DF90CF90BF90AF9008952F9251
:1047A0003F924F925F926F927F928F929F92AF92C1
:1047B000BF92CF92DF92EF92FF920F931F93DF93FE
:1047C000CF9300D000D0CDB7DEB79A8389832B0179
:1047D0003A012115310519F008E010E002C004E0AB
:1047E00010E080E897E680569746E3E09595879538
:1047F000EA95E1F7382E292E20E030E070E8C72E48
:10480000D12CE12CF12C69EAA62E63E0B62E51EFF3
:10481000852E54E6952EF901EC7FE60DF71DA98152
:10482000BA818D919C911197840D951D820F931FD4
:104830008032910509F48FC081329105E0F4803116
:10484000910509F480C08131910540F488309105CB
:1048500079F18C30910509F0AAC02FC088319105FB
:1048600009F471C08C31910509F472C0843191054D
:1048700009F09DC068C08C32910509F471C08D3279
:10488000910548F48432910509F477C08832910586
:1048900009F08DC079C08433910509F467C088336D
:1048A000910509F467C08033910509F080C05BC0B1
:1048B000809116039091170364C080911E0390E0CD
:1048C000A0E0B0E080839183A283B3830097A10529
:1048D000B10509F465C03092A903F5012182109257
:1048E000AC031092AB0384EF96E069EA73E047E013
:1048F00050E02B833C830E94EC282B813C81009765
:1049000079F000D0ADB7BEB712969C928E921197F7
:104910002B833C830E9468250F900F903C812B8154
:104920008091A4038430E1F18930D1F188EF96E0E1
:1049300061E070E047E050E02B833C830E94EC286C
:104940002B813C812DC0108211821282138228C0DB
:1049500080911F030DC0C082D182E282F38220C009
:104960008091A20305C08091A30302C08091A0039F
:1049700090E007C08091A103FBCF80911A03909132
:104980001B03A0E0B0E008C08091180390911903C8
:10499000AA2797FDA095BA2F80839183A283B38322
:1049A0002C5F3F4F2017310708F435CF02C00FEFBF
:1049B0001FEFC8010F900F900F900F90CF91DF91D4
:1049C0001F910F91FF90EF90DF90CF90BF90AF902D
:1049D0009F908F907F906F905F904F903F902F901F
:1049E000089500005353004B435349534F4D4F53C9
:1049F000494D000038440000394400303144003152
:104A000031440030435000314350003243500033B2
:104A100043500034435000354350000035440033C8
:104A20003144000033440000324431445852314490
:104A3000585400003444444C58540032314400006F
:104A4000364400304550003145504257482300332A
:104A5000455000344550003545504B4853480037C9
:104A600045500000354100003441003246500033CB
:104A70004650000033410000324100003141000047
:104A800030410F931F93CF93DF939C01AB01CDEA8D
:104A9000D3E0CE01B9010E9476258C01CE010E949F
:104AA000BE27C801DF91CF911F910F910895DF9329
:104AB000CF93CDB7DEB79E01275F3F4F8D819E819B
:104AC0006F817885A9010E947625CF91DF910895A5
:104AD000DF93CF93CDB7DEB7FE01359681919191EB
:104AE000BF010E944125CF91DF9108952F923F92FF
:104AF0004F925F926F927F928F929F92AF92BF92EE
:104B0000CF92DF92EF92FF920F931F93DF93CF9399
:104B1000CDB7DEB762970FB6F894DEBF0FBECDBF3C
:104B20001C014E010894811C911C8C01FB0106C1E3
:104B3000853229F531E0A32EB12C20E2422E512CF2
:104B40009AE0C92ED12C9501DA0103C080E3482EEA
:104B5000512C31968491893609F466C08A36D8F48E
:104B6000883509F457C0893588F48A3261F18B326F
:104B700050F4882309F4E6C0853249F5AD01D80127
:104B80008D938D01DAC0803311F5E0CF833649F182
:104B90008436E9F449C08037E9F1813730F48E3644
:104BA00009F4CAC08F3699F42EC08537E9F18837E9
:104BB00089F1833761F4AD014E5F5F4F8D919C9118
:104BC000BF01DA0119C0CD90DC9011971296982F91
:104BD0009153993008F0BDCF282F30E0205330405A
:104BE000B8CFAD018C91D8018D938D014E5F5F4F91
:104BF000A4C0F80121938F01FC012191CF01222350
:104C0000C1F7FB0199C05901AD01BAE0CB16D1043F
:104C100039F00CC05901AD0170E1C72ED12C06C08E
:104C200068E0C62ED12C02C05901AD01CA0102961E
:104C30009A8B898BDA018D919C91119797FF0BC00C
:104C4000BAE0CB16D10439F4909581959F4F31E0AD
:104C5000E32EF12C02C0EE24FF2421E1622E712C00
:104C60006C0E7D1E20E130E0AF01F30138018A01B6
:104C70000BC021503040B6010E94072FDC01A05329
:104C8000BE4F8C918293CB01009731F021153105F5
:104C900081F7F801830109C0F80183012031310552
:104CA00021F420E3288B2FE030E0E114F10489F0B7
:104CB00080E24816510451F421503040D401A20F33
:104CC000B31F9DE29C93EE24FF2403C081E0E82EF5
:104CD000F12CD401A20FB31F80E190E08A199B0947
:104CE0008E0D9F1D03C0215030404E9282179307B6
:104CF000D4F3E114F10439F021503040D401A20F73
:104D0000B31F8DE28C9340E150E0421B530BC40172
:104D1000820F931FD8017F0106C0FC016191CF0172
:104D20006D932F5F3F4F20313105BCF3F701040F26
:104D3000151F49895A8901C0AD0131968491882394
:104D400009F0F6CE9801D8011C9222193309C90145
:104D500062960FB6F894DEBF0FBECDBFCF91DF9144
:104D60001F910F91FF90EF90DF90CF90BF90AF9089
:104D70009F908F907F906F905F904F903F902F907B
:104D8000089582E189BD09B400FEFDCF089584E055
:104D900085BD8AEF87BD81E080936E00089580EA2B
:104DA0008093D800089580E98093D800089581E821
:104DB0008093D7000895262F372FD901282F392F18
:104DC000F9012D9121932223E1F70895FC019F0120
:104DD00041914423E1F7281B390BC9010895462F5F
:104DE000572FFC019F014115510529F06191415058
:104DF00050406623B9F7281B390BC9010895FC01FF
:104E0000DB0181919D91891729F0891740F42FEFDB
:104E10003FEF07C08823A9F720E030E002C021E07F
:104E200030E0C9010895282F392FD901862F972FF7
:104E3000FC010DC08D919191891729F0891758F4C3
:104E40002FEF3FEF0DC0882349F0415050404115EE
:104E5000510581F703C021E030E002C020E030E0DE
:104E6000C9010895CF93DF939C01DC01FB01CB01C5
:104E7000822B932B80FD1DC0DB01F901CA0105C007
:104E8000CD91DD91C193D193029782309105C0F706
:104E9000FA01F695E795CF01880F991F481B590B2A
:104EA000FC01D901A80FB91FE60FF71F02C08191BD
:104EB0008D93415050408FEF4F3F5807C1F7C901C4
:104EC000DF91CF910895EF92FF920F931F939C0172
:104ED00020FD24C0CB01AA2797FDA095BA2F907082
:104EE000A070B070EE24F82E092F1A2FE82AF92AA4
:104EF0000A2B1B2BF901CA0103C0E192F192029720
:104F000082309105D0F7CA0196958795FC01EE0F86
:104F1000FF1F4E1B5F0BCF01820F931FFC0101C0CF
:104F20006193415050408FEF4F3F5807C9F7C90177
:104F30001F910F91FF90EF9008950895DF93CF9305
:104F400000D0CDB7DEB79A8389838A30910521F4EA
:104F50008DE090E00E949E2780913E0590913F0554
:104F6000009739F0BE016F5F7F4F41E050E00E9433
:104F7000A7070F900F90CF91DF910895EF92FF92C6
:104F8000CF93DF93E82EE7017E01F92EE70103C0FE
:104F900090E00E949E2789918823D1F780E090E0DD
:104FA000DF91CF91FF90EF900895CF93DF93C8E00A
:104FB000D1E003C0E991F991099581E0C631D807A4
:104FC000C8F3C8E0D1E003C0E991F991099581E007
:104FD000C830D807C8F380E090E0DF91CF91089502
:104FE000FC01609168077091690780916A07909150
:104FF0006B076F5F7F4F8F4F9F4F209168073091F6
:10500000690740916A0750916B07261737074807D1
:10501000590799F72E2F3F2F02C02150304012160A
:105020001306DCF3209168073091690740916A0705
:1050300050916B07261B370B480B590BC90108957C
:10504000CF92DF92EF92FF920F931F93CF93DF9354
:1050500000E012E0C0E0D2E004C00C0F1D1FCC0F36
:10506000DD1FC8010E94F0270097B9F31595079539
:105070007E01F594E794F594E79482E0C82ED12C54
:105080000FC0E701C00FD11FCE010E94F02700978B
:1050900009F0E801C701B6010E941B2F7B018E01B8
:1050A000E114F10471F7109312040093110480E0ED
:1050B00090E0DF91CF911F910F91FF90EF90DF90E3
:1050C000CF9008959C01E0911104F091120440E109
:1050D00057E2E49FC001E59F900DF49F900D1124CD
:1050E00060EA7FE00E941B2F06C001971816190680
:1050F000E4F32051374287E22131380718F0862F38
:10510000972FF4CF2E9FC0012F9F900D3E9F900DA3
:10511000112460EA7FE00E94072F02C061507040B6
:1051200016161706DCF30895EF92FF920F931F9364
:10513000CF93DF93C4ECD6E08BE2E82E85E0F82E27
:1051400038C089E395E0BE0144E050E00E94FB2EA8
:105150000091390510913A0524C081E395E0B8012A
:1051600048E050E00E94FB2E6091330570913405B9
:105170008BE295E046E050E00E94FB2EF092340571
:10518000E0923305D0933205C0933105E0912B05B1
:10519000F0912C05309719F081E395E00995085FAF
:1051A0001F4F80913B0590913C0508171907A9F600
:1051B000249687E0C830D80720F280E490E09093EE
:1051C00018048093170480E090E0DF91CF911F9145
:1051D0000F91FF90EF9008951F931FB7F894E091FF
:1051E0001304F09114044091170450911804415095
:1051F00050409F0120953095A0911504B091160460
:105200002A0F3B1F242335232115310521F41FBF0D
:1052100024EF3FEF16C09F012F5F3F4F242335231C
:1052200030931404209313041FBFEE0FFF1FEE0FE3
:10523000FF1FE75EFB4F738362839183808320E0CF
:1052400030E0C9011F91089520911704309118048E
:105250002150304080911304909114044091150422
:1052600050911604841B950B28233923C9010895F6
:10527000AF92BF92CF92DF92EF92FF920F931F9364
:10528000CF93DF930E9424296C01EE24FF2449E18F
:10529000A42E45E0B42E58C0C0911504D091160438
:1052A000CC0FDD1FCC0FDD1FC75EDB4F69917991FD
:1052B00087E295E044E050E00E94FB2E0091270534
:1052C0001091280526C08FE195E0B80148E050E034
:1052D0000E94FB2E609121057091220589E195E0E5
:1052E00046E050E00E94FB2EB0922205A0922105DC
:1052F000888199819093240580932305E0911B0573
:10530000F0911C05309719F08FE195E00995085F41
:105310001F4F8091290590912A050817190799F6C2
:1053200080911704909118040197209115043091F1
:1053300016042F5F3F4F822393239093160480938C
:1053400015040894E11CF11CEC14FD040CF4A4CF2A
:10535000DF91CF911F910F91FF90EF90DF90CF9051
:10536000BF90AF90089520E030E067E070E040E04B
:1053700052E0FB01E21BF30BDA0102C0B595A795E1
:10538000EA95E2F7A817B9073CF42F5F3F4F2830A2
:10539000310579F72FEF3FEFC9010895CF93DF93E0
:1053A000062E02C0959587950A94E2F780509F4F8C
:1053B00048E050E0461B570B21E030E002C0220FCE
:1053C000331F4A95E2F7821B930BEFB7F89460E224
:1053D00070E00E941B2FEB01CC0FDD1FCC0FDD1FF7
:1053E000C459D84F21E030E040E050E004C0220F23
:1053F000331F441F551F8A95D2F72095309540954D
:10540000509588819981AA81BB8182239323A4230B
:10541000B52388839983AA83BB83EFBFDF91CF91A4
:105420000895CF93DF93062E02C0959587950A9431
:10543000E2F780509F4F48E050E0461B570B21E0B9
:1054400030E002C0220F331F4A95E2F7821B930B14
:10545000EFB7F89460E270E00E941B2FEB01CC0FD5
:10546000DD1FCC0FDD1FC459D84F21E030E040E0F4
:1054700050E004C0220F331F441F551F8A95D2F7F6
:1054800088819981AA81BB81822B932BA42BB52B78
:1054900088839983AA83BB83EFBFDF91CF9108955F
:1054A000DF93CF9300D0CDB7DEB7FC01EE0FFF1F27
:1054B000E257FA4925913491C9010F900F90CF918D
:1054C000DF9108954F925F926F927F928F929F9299
:1054D000AF92BF92CF92DF92EF92FF920F931F9302
:1054E000DF93CF93CDB7DEB764970FB6F894DEBFE6
:1054F0000FBECDBF7C014B010E94502A6C015701A9
:10550000AA0CBB1CB50162567A49CE01019642E055
:1055100050E00E94FB2E69817A818E010B5F1F4F44
:10552000980140E050E010C0FB0185919591A59154
:10553000B491F90180839183A283B3832C5F3F4FA1
:105540004F5F5F4F6C5F7F4F4C155D056CF388E0DC
:1055500090E08E199F0921E030E002C0220F331F36
:105560008A95E2F780E091E0821B930B60E270E0A5
:105570000E941B2FFB01EE0FFF1FEE0FFF1FE459D0
:10558000F84F60E070E072C041905190619071906E
:10559000D8012D913D914D915D918D0124213521B1
:1055A00046215721211531054105510509F45CC0FB
:1055B000F501E255FA49859194918B839C83AB81E7
:1055C000BC81CA01B90180709070611571058105B7
:1055D000910531F49A0144275527E1E1F0E002C03A
:1055E000E1E0F0E0222329F4232F342F452F552723
:1055F0003896CA01B9016F70707080709070611533
:1056000071058105910541F474E0569547953795EC
:1056100027957A95D1F73496CA01B90163707070F5
:1056200080709070611571058105910541F462E00B
:1056300056954795379527956A95D1F7329620FF6D
:105640003196A095B095AE0FBF1F02C0AA0FBB1F29
:10565000EA94E2F7F401B183A083AA0FBB1FAA0F5B
:10566000BB1FAA59BA4F08C06F5F7F4F6C157D05ED
:105670000CF48ACFA0E0B0E0CD0164960FB6F894A8
:10568000DEBF0FBECDBFCF91DF911F910F91FF9075
:10569000EF90DF90CF90BF90AF909F908F907F90D2
:1056A0006F905F904F900895CF92DF92EF92FF92AC
:1056B0000F931F93DF93CF9300D0CDB7DEB76C016C
:1056C0008B01CB01BE016F5F7F4F0E94622A009762
:1056D00031F189819A81B8010E94CE29780108941C
:1056E000E108F10889819A81B7010E94112A81E0BD
:1056F00090E00E2C02C0880F991F0A94E2F72981CE
:105700003A8182279327B7010E94112A0C191D099B
:105710000230110524F0C601B7010E94542B0F90EE
:105720000F90CF91DF911F910F91FF90EF90DF903D
:10573000CF9008956F927F928F929F92AF92BF9277
:10574000CF92DF92EF92FF920F931F93CF93DF934D
:10575000EC01C656D540CB010E94B3298C0122E052
:10576000C030D20720F000D08BE695E60CC0019740
:105770009E0102C0359527958A95E2F720FF0CC05F
:1057800000D086E495E6EDB7FEB7928381830E9450
:1057900068250F900F906AC07E01F594E794F59408
:1057A000E794C701B8010E94112AE8E0CE2ED12C5F
:1057B000C01AD10A71E0A72EB12C60E2662E712CBE
:1057C0000730110509F452C0E501002E02C0CC0FCC
:1057D000DD1F0A94E2F74E018E249F249401002ECF
:1057E00002C0359527950A94E2F720503F4FC50136
:1057F0000C2C02C0880F991F0A94E2F7281B390B62
:105800004FB7F894C901B3010E941B2F660F771F91
:10581000660F771F6459784FFB0180819181A281C7
:10582000B3814FBF0894C108D1082F71307004C0F4
:10583000B695A795979587952A95D2F78170907020
:105840000097A1F0C095D095CE21DF21C701B80106
:105850000E94CE29C401B8010E94CE290F5F1F4FBC
:10586000CE01B8010E94112A7E01AACFDF91CF910B
:105870001F910F91FF90EF90DF90CF90BF90AF906E
:105880009F908F907F906F90089580E090E067E008
:1058900070E00E94112A80E090E00895AF92BF92DC
:1058A000CF92DF92EF92FF920F931F93DF93CF93EC
:1058B00000D0CDB7DEB70E94B3298C0180913D05A1
:1058C000882329F40E94452C81E080933D0517FD33
:1058D0001FC078015E010894A11CB11C07C0089488
:1058E000E11CF11CC801B7010E94542BC801B5018D
:1058F0000E94622A6C01009729F487E0E816F104FF
:1059000074F308C089819A81B8010E94CE2902C02F
:10591000CC24DD24C6010F900F90CF91DF911F9111
:105920000F91FF90EF90DF90CF90BF90AF900895D0
:1059300000D08DE496E6EDB7FEB7928381830E9496
:1059400068250F900F90089500D088E596E6EDB792
:10595000FEB7928381830E9468250F900F9008956F
:1059600000D080E097E6EDB7FEB7928381830E9476
:1059700068258FEC96E6EDB7FEB7928381830E948F
:1059800068258FE696E6EDB7FEB7928381830E9485
:1059900068250F900F9080E090E0089500D084E398
:1059A00097E6EDB7FEB7928381830E9468250F903A
:1059B0000F90089500D08CE297E0EDB7FEB7928388
:1059C00081830E9468250F900F9080E090E00895F9
:1059D00000D083E497E6EDB7FEB7928381830E94FF
:1059E00068250F900F900895CF93DF93EC0100D0BE
:1059F00089E096E6EDB7FEB7928381830E94682521
:105A00000F900F90CE0160E270E00E949A2B80E030
:105A100097E060E070E047E050E00E94EC28DF9102
:105A2000CF91089580914205909143050E94F42CF6
:105A300080E090E008952F923F924F925F926F9294
:105A40007F928F929F92AF92BF92CF92DF92EF920E
:105A5000FF920F931F93DF93CF93CDB7DEB760977D
:105A60000FB6F894DEBF0FBECDBFDC011696ED91E8
:105A7000FC911797008111810115110509F415C1D9
:105A800052E0452E512C400E511EF801608171816B
:105A9000A201461B570B425E5F4F809166079091B3
:105AA00067070E944F076C0197FDFFC0EE24FF249B
:105AB0001EC0D801ED91FC911197EE0DFF1D808164
:105AC000843021F4C8010E94F42CEFC090E00E94C1
:105AD0009E27D801ED91FC911197EE0DFF1D80815D
