:1000000032C00000000000000000000000000000FE
:1000100000000000000000000000000000000000E0
:1000200000000000000000003DC000007EC0000095
:1000300000000000000000000000000000000000C0
:1000400000000000000000000000000000000000B0
:10005000000000000000000000000000C2C200001C
:10006000000045C2E9C111241FBECFEFDAE0CDBFC9
:10007000DEBFEBE9F1E404E4A0E0B1E0EB30F0072F
:100080001CF425902D92FACFA0E7B3E007E0A03D45
:10009000B00714F41D92FBCF0E94D30E78940E94F7
:1000A0004707E1CF1F920F920FB60F9211248F9343
:1000B0009F938091E1001092E100982F83FF13C07D
:1000C0001092E90081E08093EB001092EC0082E155
:1000D0008093ED0088E08093F0001092BA011092B6
:1000E000BC011092BB0192FF19C08091BA01882314
:1000F00079F08091C401882359F081508093C40124
:10010000882331F484E08093E9008AE38093E80057
:1001100083E08093E90084E08093F0009F918F91C9
:100120000F900FBE0F901F9018951F920F920FB651
:100130000F9211240F931F932F933F934F935F932D
:100140006F937F938F939F93AF93BF93EF93FF939F
:100150008091F40083FF14C083E08093E9008091D4
:10016000E80082FF08C082E493E069EB72E047E0B8
:1001700050E00E946A068091E800887F8093E80042
:100180001092E9008091E80083FF40C14091F100A6
:100190003091F1008091F100682F70E02091F10022
:1001A000922F80E0682B792B8091F100A82FB0E08E
:1001B0002091F100922F80E0A82BB92B1091F10033
:1001C0000091F10082EF8093E800363009F05AC0C8
:1001D0002FED3EE3A90145505040F9013797859135
:1001E00094918617970701F5FA01859194918A17E2
:1001F0009B07D1F49A012E5F3F4FF90165917491ED
:100200002E5F3F4FF9014491212F30E0902F80E085
:10021000282B392B2F3F310519F010F02FEF30E04C
:10022000241758F4422F09C0295F3F4F495F5F4FA1
:10023000FFE329303F0789F6E9C05EEF8091E800CF
:10024000282F30E0C90185709070892BB9F322FD09
:10025000E0C0342F413108F030E1232FCB0106C03C
:10026000FC010196E491E093F10021502223C1F7B3
:10027000630F711D431B5093E8004423F9F630319E
:10028000E9F2C7C0353061F48EEF8093E8008091C9
:10029000E80080FFFCCF862F80688093E300B9C020
:1002A000393061F5442309F0B1C06093BA0110926E
:1002B000BC011092BB011092C4018EEF8093E80044
:1002C00082E09FE321E02093E900FC010196E491A4
:1002D000E093EB00EE2369F0AC014F5F5F4FFC0150
:1002E00084918093EC00CA010196FA013491309315
:1002F000ED002F5F253039F78EE183C0383061F48F
:10030000403809F083C08091E80080FFFCCF8091E5
:10031000BA018093F10052C0313289F4413A09F0B8
:1003200075C08091E80080FFFCCFEDEBF1E081919A
:100330008093F10081E0E43CF807C9F73FC0303218
:10034000A1F4413209F062C08091E80082FFFCCF45
:10035000EDEBF1E08091F100819381E0E43CF8075E
:10036000C9F78BEF8093E80029C0323261F4413243
:1003700009F04CC07093BC016093BB018091E80010
:1003800080FFFCCF1BC03323E9F48091E80080FF9D
:10039000FCCF423811F080E00DC0A093E9008091BD
:1003A000EB0090E025E0969587952A95E1F781701E
:1003B0001092E9008093F1001092F1008EEF80938B
:1003C000E80027C0313011F0333001F54230F1F44C
:1003D000672BE1F42A2F2F77822F81508430B0F4DD
:1003E0008EEF8093E8002093E900333079F089E1C3
:1003F0008093EB0081E090E002C0880F991F2A955E
:10040000E2F78093EA001092EA0003C081E2809351
:10041000EB00FF91EF91BF91AF919F918F917F91F1
:100420006F915F914F913F912F911F910F910F907D
:100430000FBE0F901F9018951F920F920FB60F923C
:1004400011242F933F934F935F936F937F938F93D9
:100450009F93AF93BF93EF93FF9320919D053091AE
:100460009E0560919F057091A005C90180959095AA
:10047000860F971F8F739070892B31F481E090E085
:100480009093E2058093E1054091CE008091E105D3
:100490009091E205892B61F4F901E556FA4F468304
:1004A000C90101968F73907090939E0580939D056E
:1004B000261B370B2F733070232B41F48CE493E011
:1004C00069EB72E047E050E00E946A06FF91EF910D
:1004D000BF91AF919F918F917F916F915F914F915C
:1004E0003F912F910F900FBE0F901F9018951F9264
:1004F0000F920FB60F9211242F933F934F935F9358
:100500006F937F938F939F93AF93BF93EF93FF93DB
:100510006EB56530F1F42091AE073091AF07809150
:10052000AC079091AD07821B930B8F709070892B55
:1005300071F0F901EE56F84F868D8EBD2F5F3F4F5B
:100540002F7030703093AF072093AE0739C01EBCB8
:1005500037C02091940730919507409196075091AC
:100560009707C90180959095840F951F8F709070A3
:10057000892B31F481E090E09093A9078093A8073C
:100580008091A8079091A907892B61F4F901EE5693
:10059000F84F6683C90101968F709070909395070C
:1005A00080939407241B350B2F703070232B41F45C
:1005B00086E593E069EB72E047E050E00E946A064E
:1005C000FF91EF91BF91AF919F918F917F916F912B
:1005D0005F914F913F912F910F900FBE0F901F9001
:1005E00018951F920F920FB60F9211242F933F93DD
:1005F0004F935F936F937F938F939F93AF93BF932B
:10060000EF93FF938091C2079091C307A091C40715
:10061000B091C5070196A11DB11D8093C2079093AB
:10062000C307A093C407B093C50781EA92E060E0D6
:1006300070E047E050E00E94001EFF91EF91BF91F3
:10064000AF919F918F917F916F915F914F913F916A
:100650002F910F900FBE0F901F9018950000000073
:100660000707070700000000000007070707000052
:100670000700070700000000000000000707000057
:10068000070707070000000000000000000000004E
:10069000000000000000000000000000000000005A
:1006A000000000000000000000000000E62FF72F0F
:1006B000A82FB92F03C0C89531960D9241505040D4
:1006C000D0F7089581EA92E060E070E047E050E002
:1006D0000E94001E089583B7817F83BF83B7816026
:1006E00083BF889583B78E7F83BF08950E944F1E76
:1006F0000E946B03FBCFBF92CF92DF92EF92FF92EB
:100700000F931F93CF93DF938B019C016091740330
:100710007091750383E06437780709F475C0EB01C5
:100720002697A885B985EE81FF81B383A283ED93D7
:10073000FC937F836E8379876887209709F464C070
:100740008091C2079091C307A091C407B091C507DB
:10075000800F911FA21FB31F88839983AA83BB8335
:100760005D834C83BFB6F894E0917003F091710300
:1007700083E0E037F80729F473836283FF83EE8315
:100780003BC0DF0124C0E880F9800A811B812D91E4
:100790003D914D915C911397C701821B930B97FF7D
:1007A0000AC02E193F09400B510B2D933D934D93D9
:1007B0005C93139717C0E21AF30A040B150BE88237
:1007C000F9820A831B8316960D90BC91A02D169773
:1007D00086E0C82ED12CCA0EDB1E80E7C81683E047
:1007E000D80689F61896ED91FC91199719967C9385
:1007F0006E931897DF82CE82F987E88771836083D2
:10080000BFBE20E030E002C024EF3FEFC901DF911E
:10081000CF911F910F91FF90EF90DF90CF90BF90FD
:10082000089500D000D08CE191E0EDB7FEB792833F
:10083000818380E291E0948383830E94881A80E719
:1008400093E090937103809370039093730380936C
:10085000720384E793E090937503809374039093FD
:10086000770380937603AEE7B3E040E050E00F906B
:100870000F900F900F90782F692FCA01880F991F42
:100880009A01E3E0220F331FEA95E1F7820F931FED
:1008900082589C4FE0917603F09177039093770311
:1008A000809376037C9311966C9311971396FC9327
:1008B000EE931297918380834F5F5F4F1A96403279
:1008C0005105D9F680E090E00895CF92DF92EF9243
:1008D000FF920F931F93CF93DF93C0917003D0913A
:1008E000710326970E811F8106501040B4E7CB2E6E
:1008F000B3E0DB2E4EC08091C2079091C307A09158
:10090000C407B091C50728813981821B930B97FDDD
:100910004BC06C817D8185EA92E047E050E00E9407
:10092000001EEE81FF8183E0E037F807A9F03697DB
:100930002091C2073091C3074091C4075091C50769
:1009400080819181A281B381820F931FA41FB51F63
:1009500080839183A283B383A885B985EE81FF81CB
:10096000B383A283ED93FC93E0917403F09175033C
:10097000F382E282FF83EE83D986C886F092750304
:10098000E0927403F80186819781E8018C0106509A
:100990001040A6E0EA2EF12CEC0EFD1EF0E7EF165B
:1009A000F3E0FF0609F0A7CFDF91CF911F910F91E0
:1009B000FF90EF90DF90CF900895CF93DF93FC01ED
:1009C000C481D581EA81FB818E819F8109959F83B6
:1009D0008E8388859985AA85BB852C853D854E8526
:1009E0005F85820F931FA41FB51F8C879D87AE87DD
:1009F000BF872091C2073091C3074091C40750912F
:100A0000C507B901681B790B77FD0CC02F5F3F4FFD
:100A10004F4F5F4F2C873D874E875F872150304077
:100A2000404050406C857D858E859F85621B730B91
:100A3000840B950BAE010E947B03DF91CF9108954B
:100A4000CF92DF92EF92FF920F931F93CF93DF939A
:100A5000E090C207F090C3070091C4071091C5074A
:100A6000C0E6D3E088E3C82E81E0D82E18C000D0BD
:100A700000D0EDB7FEB7D282C1828881998194837C
:100A800083830E94881AEC81FD810F900F900F9054
:100A90000F90309719F08E819F8109956096F3E051
:100AA000C037DF0720F3C0E6D3E01DC06C857D852D
:100AB0008E859F856E0D7F1D801F911F6C597F4F06
:100AC0008F4F9F4F6C877D878E879F876E197F0919
:100AD000800B910BAE010E947B0397FF03C02FEFA9
:100AE0003FEF07C0609683E0C037D807F8F220E0F8
:100AF00030E0C901DF91CF911F910F91FF90EF90EE
:100B0000DF90CF900895DC011696ED91FC91179738
:100B1000309719F489E090E00FC012968C911297EB
:100B200080FF08C00280F381E02D0280F381E02D78
:100B3000309749F481E090E090939107809390077B
:100B40002FEF3FEF10C0CD0109959C0197FD03C029
:100B500080E090E004C088279927821B930B909334
:100B6000910780939007C9010895DC011696ED91D5
:100B7000FC911797309719F489E090E00FC0129616
:100B80008C91129781FF08C00280F381E02D0480D0
:100B9000F581E02D309749F481E090E09093910742
:100BA000809390072FEF3FEF10C0CD0109959C0176
:100BB00097FD03C080E090E004C088279927821B3E
:100BC000930B9093910780939007C9010895DC01DE
:100BD0001696ED91FC911797309719F489E090E003
:100BE0000AC00280F381E02D0084F185E02D30976A
:100BF00049F481E090E090939107809390072FEF64
:100C00003FEF0FC009959C0197FD03C080E090E085
:100C100004C088279927821B930B90939107809398
:100C20009007C9010895CF93DF93FC01C481D5815A
:100C3000CE010896AA85BB85E885F985B383A28392
:100C4000ED93FC93998788879B878A87EE81FF8144
:100C50009F012A5F3F4F868197818217930751F446
:100C60000280F381E02D0680F781E02D309711F0AE
:100C7000CE0109951F821E82DF91CF910895CF93F7
:100C8000DF93EC018E819F81892B49F489E090E00C
:100C900090939107809390072FEF3FEF17C08A81C1
:100CA0009B81019719F085EB92E002C081EB92E005
:100CB000BE0147E050E00E94001E81EC92E0BE01C0
:100CC00046E050E00E94001E20E030E0C901DF91C4
:100CD000CF910895CF92DF92EF92FF920F931F93DF
:100CE000CF93DF93FC016B017A01668177816115F7
:100CF0007105A1F0EB0128978C010A5F1F4F09C015
:100D0000C601BE01A7010E94001E0884D985C02D1E
:100D10002897CE0108960817190791F7DF91CF9110
:100D20001F910F91FF90EF90DF90CF9008950F9358
:100D30001F93CF93DF938C01C8E3D3E00AC068818F
:100D40007981F801808191810E94311C892B39F0D1
:100D50002A96F3E0C036DF0790F3C0E0D0E0CE0182
:100D6000DF91CF911F910F910895EF92FF920F9312
:100D70001F93CF93DF93DC017B016115710529F08F
:100D8000EEEBF4E020E030E017C086E190E019C01F
:100D9000808191813C96892B69F4E901CC0FDD1F9C
:100DA000C20FD31FCC0FDD1FCC0FDD1FC854DB4F8C
:100DB00079F405C02F5F3F4F2031310549F787E1B6
:100DC00090E09093910780939007C0E0D0E057C0E7
:100DD000B983A8835D834C83FB82EA82CE010E94A3
:100DE00097068C01009729F41F821E8286E090E00E
:100DF000E8CF9F838E83DC0116968D919C91179787
:100E0000892B51F4C801069617969C938E931697DA
:100E100019969C938E931897D8011296ED91FC9198
:100E200013970190F081E02D309739F0CE010995AC
:100E3000009719F01F821E82C4CFCE010896D801F8
:100E40001696ED91FC91179793838283F987E88733
:100E50000A5F1F4F1B870A8706501040F8019783CF
:100E60008683F1E0EF16F10419F08DEA92E002C0FA
:100E700089EA92E0BE0147E050E00E94001ECE01E8
:100E8000DF91CF911F910F91FF90EF90089580ED2A
:100E900097E020E931E0F9013197F1F70197D9F7AF
:100EA0000E94760308958091790590917A050E94B9
:100EB000830508958091790590917A050E94B50582
:100EC0000895EF92FF920F931F93DF93CF93CDB7C7
:100ED000DEB7A8970FB6F894DEBF0FBECDBFDC011A
:100EE00014960D911C91159780917B0590917C052E
:100EF00008171907C9F481E080937D0585E1E82E84
:100F0000F12CEC0EFD1EC801B70144E150E00E9437
:100F10008305AC01181619060CF004C180918E07E8
:100F200090918F07B701F3C0D8011696ED91FC910F
:100F300017978681978136968E179F0709F4F2C01E
:100F40008091790590917A050817190741F08091F1
:100F5000C0079091C1070817190709F0E3C08091F5
:100F60007805882351F08091C0079091C107081738
:100F7000190719F0EE24FF240DC0C801BE016F5FF0
:100F80007F4F44E150E00E9483057C01181619064A
:100F90000CF0C8C08091C0079091C10708171907CD
:100FA00009F066C0A0917905B0917A0520E030E0A3
:100FB000AE014F5F5F4F3AC0FA01E20FF31F80812D
:100FC0008D3191F590E080917805813009F091E0C4
:100FD000909378051696ED91FC9117974081518179
:100FE000913019F02EE431E002C02BE531E000D061
:100FF00000D000D0EDB7FEB7319681E691E0ADB7F5
:10100000BEB712969C938E93119753834283358378
:1010100024830E94881AEDB7FEB736960FB6F8946F
:10102000FEBF0FBEEDBF07C02F5F3F4F2E153F0520
:1010300014F4109709F680917D05882361F0809162
:101040007B0590917C05009731F0BE016F5F7F4F6B
:10105000A7010E94B50580917805813009F462C02E
:101060008091790590917A05009709F04CC05AC09B
:1010700080917805882309F04DC020E030E0AE0172
:101080004F5F5F4F35C0FA01E20FF31F80818A3A4C
:1010900069F581E08093780500D000D000D0ADB72D
:1010A000BEB7119681E691E0EDB7FEB792838183DA
:1010B000E0917905F0917A050680F781E02D808135
:1010C000918113969C938E9312978BE591E01596E0
:1010D0009C938E9314970E94881A8DB79EB706969C
:1010E0000FB6F8949EBF0FBE8DBF05C02F5F3F4F58
:1010F0002E153F0544F280917805813099F080915A
:101100008E0790918F07BE016F5F7F4FA7010E94EE
:10111000B50508C085EC92E060E070E047E050E083
:101120000E94001EA8960FB6F894DEBF0FBECDBF7A
:10113000CF91DF911F910F91FF90EF9008958091D3
:10114000790590917A050E943F0608958DE791E018
:1011500063E070E040E050E00E94B50690937A05AD
:1011600080937905892B99F01092780586E891E0B3
:1011700063E070E040E050E00E94B50690937C058B
:1011800080937B05892B19F020E030E002C02DEE22
:101190003FEFC90108951F93CF93DF93FC01162FF2
:1011A0008832910518F02AEE3FEF39C068E070E010
:1011B0000E94181F21E030E002C0220F331F8A95E1
:1011C000E2F7CF0168E070E00E94181FA62FB0E0A0
:1011D000822F8095ED01CC57DA4F48814823488310
:1011E000FD01E757FA4F908198239083FD01E25764
:1011F000FA4F50815823508310FF02C0422B48837E
:1012000011FF05C0FD01E757FA4F922B908317FF9E
:1012100004C0A257BA4F522B5C9320E030E0C901C2
:10122000DF91CF911F9108952F923F924F925F923D
:101230006F927F928F929F92AF92BF92CF92DF92E6
:10124000EF92FF920F931F93DF93CF9300D000D0C4
:1012500000D0CDB7DEB790907E05BFE7AB2EB5E0EE
:10126000BB2E20E030E040E050E0EE24FF24A3E27B
:10127000CA2ED12CF1E02F2E312C412C512C89017A
:101280000F5F1F4FD6018C90892D90E0022E02C077
:10129000959587950A94E2F780FD09C081E090E07A
:1012A00002C0880F991F2A95E2F7982A8EC0F5018F
:1012B0007081F82DF727F983F801E357FA4F208161
:1012C0002A831E821D8261E0C8018D579A4F9C833C
:1012D0008B83E8E86E2EE5E07E2E600E711E8A811B
:1012E000862309F469C08981862309F465C0AB812E
:1012F000BC818C91862371F1862F872359F58D81CE
:101300009E818E0D9F1DFC0155E0F595E7955A9540
:10131000E1F7EE0FFF1FEE0FFF1FED56FA4F8F7133
:101320009070A201910104C0220F331F441F551F6A
:101330008A95D2F7DA01C901208131814281538136
:10134000282B392B4A2B5B2B2083318342835383F9
:1013500041E050E0D3018C91862371F1862F8723E1
:1013600059F18D819E818E0D9F1DFC0135E0F59513
:10137000E7953A95E1F7EE0FFF1FEE0FFF1FED56D1
:10138000FA4F8F719070A201910104C0220F331F98
:10139000441F551F8A95D2F7DA01C9012081318196
:1013A00042815381282B392B4A2B5B2B208331839D
:1013B0004283538341E050E08D819E8101969E835C
:1013C0008D83089711F0660F8ACFD5018D925D014C
:1013D000E8E0F0E0EE0EFF1E23E030E0C20ED31E88
:1013E0000530110511F098014ACF90927E05452BEA
:1013F00041F089EC92E063E975E047E050E00E943B
:10140000001E26960FB6F894DEBF0FBECDBFCF915B
:10141000DF911F910F91FF90EF90DF90CF90BF90E1
:10142000AF909F908F907F906F905F904F903F9084
:101430002F9008958091BA0190E008958091BB01AA
:101440009091BC01089581E08093D70080EA809359
:10145000D80082E189BD09B400FEFDCF80E9809308
:10146000D8001092E0001092BA011092BC011092C4
:10147000BB018CE08093E2008091E10090E08370FA
:101480009070892BC9F380E090E0089580E090E0AF
:101490000895EF92FF920F931F937A018091BA0102
:1014A000882319F4A5EFBFEF33C01FB7F89483E08A
:1014B0008093E9008091F200A0E0B0E0482F50E076
:1014C00003E011C00093E9008091E80085FD02C0AF
:1014D0001FBF11C00093E9008091F100FB01EA0FEA
:1014E000FB1F8083119697014E155F050CF49A013E
:1014F000A217B3073CF383E08093E9008091F200E8
:10150000882329F48091E8008F778093E8001FBF3B
:10151000CD011F910F91FF90EF900895CF93DF932E
:10152000EC018091BA01882309F41EC19FB7F89499
:1015300084E08093E9008091C501882341F0809187
:10154000E80085FD02C09FBF17C01092C501392F6A
:10155000B4E040E45AE3A5E000C19091E400975E56
:101560008091E80085FD15C03FBF8091E400891798
:1015700031F481E08093C5012BEF3FEFF7C08091FC
:10158000BA01882309F4F0C03FB7F894B093E9009A
:10159000E7CF8091F200242F281B822F90E068175C
:1015A000790708F4262F822F90E08134910508F006
:1015B000C6C0855D904EFC01EE0FFF1F0590F491B3
:1015C000E02D099489918093F10089918093F10035
:1015D00089918093F10089918093F10089918093A2
:1015E000F10089918093F10089918093F1008991B4
:1015F0008093F10089918093F10089918093F100AB
:1016000089918093F10089918093F1008991809371
:10161000F10089918093F10089918093F100899183
:101620008093F10089918093F10089918093F1007A
:1016300089918093F10089918093F1008991809341
:10164000F10089918093F10089918093F100899153
:101650008093F10089918093F10089918093F1004A
:1016600089918093F10089918093F1008991809311
:10167000F10089918093F10089918093F100899123
:101680008093F10089918093F10089918093F1001A
:1016900089918093F10089918093F10089918093E1
:1016A000F10089918093F10089918093F1008991F3
:1016B0008093F10089918093F10089918093F100EA
:1016C00089918093F10089918093F10089918093B1
:1016D000F10089918093F10089918093F1008991C3
:1016E0008093F10089918093F10089918093F100BA
:1016F00089918093F10089918093F1008991809381
:10170000F10089918093F10089918093F100899192
:101710008093F10089918093F10089918093F10089
:1017200089918093F10089918093F1008991809350
:10173000F10089918093F10089918093F100899162
:101740008093F1008091E80085FD02C05093E8008D
:10175000621B7109A093C4013FBF6115710509F0B7
:10176000FCCE20E030E002C025EF3FEFC901DF9161
:10177000CF910895CF93DF93EA014115510559F4B4
:101780008091BA01882381F08091BB019091BC01C6
:1017900080FD0CC009C0CB01BA010E948E0A892BC2
:1017A00029F0CFEFDFEF02C0C5EFDFEFCE01DF9111
:1017B000CF910895E2EEF0E08081877F80830895E5
:1017C00087E090E09093CD008093CC001092A0052C
:1017D00010929F0510929E0510929D0588E98093B6
:1017E000C90080E090E0089580E090E0089520E056
:1017F00030E00CC0FB01E20FF31FE0818091C800D4
:1018000085FFFCCFE093CE002F5F3F4F24173507B5
:101810008CF3CA010895E9ECF0E08081877680833B
:101820000895CF93DF93CB0160919F057091A00540
:1018300020E430E0261B370BC0919D05D0919E051A
:10184000C20FD31FCF73D0704C175D070CF4EA01A1
:101850002C173D070CF4E901209719F4C5EFDFEFD1
:1018600027C06F557A4FAE010E94611C20919F05E1
:101870003091A0052C0F3D1F2F7330703093A005C1
:1018800020939F051092E2051092E10580919D053D
:1018900090919E05821B930B8F739070892B41F062
:1018A0008CE493E069EB72E047E050E00E946A0646
:1018B000CE01DF91CF910895ECE7F0E080818F7346
:1018C0008083808180648083EAE7F0E080818760A4
:1018D000808380818F7780838FEF80937E008093D9
:1018E0007D0080E090E00895DF92EF92FF920F93E9
:1018F0001F93BC018830910508F046C0E090E305D5
:10190000F090E4050091E5051091E605E1E0F0E0D6
:1019100002C0EE0FFF1F8A95E2F79F01442737FDB3
:101920004095542FDA01C9018E219F21A023B123B4
:101930000097A105B10541F52E293F29402B512BD8
:101940002093E3053093E4054093E5055093E605C5
:101950009B01220F331F260F371F220F331F2F55D6
:10196000304CA1F090917E008E2F8095892380933A
:101970007E0080917C00807E80937C0080917C0042
:10198000862B80937C0002C020E030E0C9011F91CB
:101990000F91FF90EF90DF900895CF93DF93815ADE
:1019A0009F43959587952BEA3AEA829FB001839FE2
:1019B000700D929F700D1124E1E0F0E0EF01062E12
:1019C00002C0CC0FDD1F0A94E2F79E0120953095EE
:1019D000442737FD4095542F8091E3059091E4050D
:1019E000A091E505B091E60582239323A423B523B6
:1019F0008093E3059093E405A093E505B093E60595
:101A00006830710534F480917E008C2B80937E00C9
:101A10000CC020917D00CB01089702C0EE0FFF1F84
:101A20008A95E2F72E2B20937D00DF91CF910895C8
:101A300080917A00806480937A0080917A0086FD9C
:101A4000FCCF8091780090E0A0E0B0E06091790058
:101A5000362F20E0442737FD4095542F282B392B73
:101A60004A2B5B2BB901CA010895BC018230910554
:101A7000E4F5009721F081309105B9F505C084B5F2
:101A8000806884BD279A04C084B5806284BD509A62
:101A90002091E7053091E8054091E9055091EA056C
:101AA000211531054105510531F484B5836084BDAC
:101AB00085B5816085BD81E090E002C0880F991FE7
:101AC0006A95E2F7AA2797FDA095BA2F822B932B50
:101AD000A42BB52B8093E7059093E805A093E90527
:101AE000B093EA0520E030E002C02DEE3FEFC901DF
:101AF00008959C0182309105ECF5009721F081302A
:101B00009105C1F505C084B58F7784BD279804C0C1
:101B100084B58F7D84BD509881E090E002C0880F2D
:101B2000991F2A95E2F780959095AA2797FDA09591
:101B3000BA2F2091E7053091E8054091E9055091D1
:101B4000EA0582239323A423B5238093E70590938A
:101B5000E805A093E905B093EA050097A105B10552
:101B600031F484B58C7F84BD85B58E7F85BD20E042
:101B700030E002C02DEE3FEFC90108959C01823094
:101B800091051CF060E070E01FC060E070E081E053
:101B900090E002C0880F991F2A95E2F7AA2797FDC7
:101BA000A095BA2F2091E7053091E8054091E9050D
:101BB0005091EA0582239323A423B5230097A1051E
:101BC000B10511F061E070E0CB010895DF93CF9390
:101BD00000D000D0CDB7DEB749835A836B837C83B6
:101BE000823091056CF4009719F0019749F403C015
:101BF000898187BD02C0898188BD20E030E002C0B4
:101C00002DEE3FEFC9010F900F900F900F90CF91E5
:101C1000DF910895823091052CF02DEE3FEF4FEFCC
:101C20005FEF10C0009739F0019739F020E030E005
:101C300040E050E007C087B501C088B5282F30E0EC
:101C400040E050E0B901CA01089580E090E00895B5
:101C50000895CF93DF93EB01E091AC07F091AD07CE
:101C6000E095F0958091AE079091AF07E80FF91FCE
:101C7000EF70F070E417F5070CF4AF014115510552
:101C800019F445EF5FEF1CC060E070E016C0809172
:101C9000AC079091AD07DC01AE56B84FFE01E60FE0
:101CA000F71F20815E962C9301968F709070909311
:101CB000AD078093AC076F5F7F4F641775073CF3E8
:101CC000CA01DF91CF910895CF93DF93CB0160914B
:101CD00096077091970720E130E0261B370BC091E3
:101CE0009407D0919507C20FD31FCF70D0704C17B7
:101CF0005D070CF4EA012C173D070CF4E90120976D
:101D000019F4C5EFDFEF27C06856784FAE010E9487
:101D1000611C20919607309197072C0F3D1F2F7063
:101D2000307030939707209396071092A90710926E
:101D3000A8078091940790919507821B930B8F7051
:101D40009070892B41F086E593E069EB72E047E003
:101D500050E00E946A06CE01DF91CF910895289A43
:101D600080E484B98CBD8CB580688CBD82E997E035
:101D700060E070E04EE250E00E94A91C88E084B967
:101D80001092970710929607109295071092940759
:101D90001092AF071092AE071092AD071092AC07E9
:101DA00080E090E00895E1E6F0E080E88083108232
:101DB0000E94F71B0E948B1D0E940B1D80E090E08B
:101DC00008950F931F9305EF11E0C80162E070E0E2
:101DD00040E050E00E94B50690938F0780938E07F5
:101DE000C80161E070E040E050E00E94B5069093C9
:101DF000C1078093C00780E090E01F910F91089584
:101E0000CF93DF93EA01FC0144815581FA01E60F8B
:101E1000F71F85919591A591B49188839983AA83A1
:101E2000BB83232B19F424E030E00EC0FB01349671
:101E3000E40FF51F85919591A591B4918C839D83B5
:101E4000AE83BF8328E030E0C901DF91CF910895D0
:101E5000CF93DF93EA01DC011696ED91FC91179781
:101E6000E60FF71F88819981AA81BB8180839183C6
:101E7000A283B383232B19F424E030E00AC08C81C1
:101E80009D81AE81BF8184839583A683B78328E03B
:101E900030E0C901DF91CF910895FC01A681B7819F
:101EA0000480F581E02D668177816C5F7F4F12960B
:101EB0008D919C91139740E150E00E94B5050895E3
:101EC000CF93DF93EC01009749F18EEF91E061E051
:101ED00070E0AE010E94B506009721F48091C00722
:101EE0009091C10799838883892BC1F08EEF91E08F
:101EF00062E070E0AE010E94B5069B838A83892B65
:101F000031F480918E0790918F079B838A838A8119
:101F10009B81892B19F020E030E002C02FEF3FEFCA
:101F2000C901DF91CF91089521E46B39720718F050
:101F30000E94611C08950E94560308958F929F92FB
:101F4000AF92BF92CF92DF92EF92FF920F931F93C7
:101F5000DF93CF93CDB7DEB7A2970FB6F894DEBF6D
:101F60000FBECDBFDC0116960D911C911797F8019D
:101F7000E080F18044E0C42ED12CC00ED11E8489B3
:101F80009589B601680F791F40E150E0481B590B55
:101F9000C7010E9483059C0118161906CCF0009712
:101FA00099F4C7010E943F068EEF91E061E070E076
:101FB000A8010E94B506009721F48091C007909176
:101FC000C107D8018D939C93F801158A148A3AC1F0
:101FD000D80154968D919C915597820F931F5596D9
:101FE0009C938E935497409708F42CC155961C925D
:101FF0001E92549716966C911697862F86958F7021
:10200000813009F01FC115968C9182958F70617097
:102010006295607F682B70E033E0660F771F3A951A
:10202000E1F76D577E4BB1E46B397B0760F4CE016D
:10203000019648E050E00E945603F801878190E045
:1020400086FD00C110C08DEE9FEFAFEFBFEFF8012E
:1020500080879187A287B387878180628783828107
:102060009381B601EBC08F7190709595879591E043
:10207000A92EB12C02C0AA0CBB1C8A95E2F7CC2475
:10208000DD24EE24FF2489E0882E912C8C0E9D1EE9
:102090002CC06B817C816E0D7F1DC4014AE050E035
:1020A0000E945603EB85FC856591749149855A859C
:1020B000D80114962C91149715968C91382F3F7057
:1020C0002417350758F0215030402A0D3B1D415050
:1020D0005040460F571F421753076CF40894C11C19
:1020E000D11CEAE0F0E0EE0EFF1E89819A81C8164D
:1020F000D9067CF28FC0D80117968C91A82EBB24EC
:10210000B0E8AB22BB2469897A896115710519F49D
:10211000EE24FF2420C0CE014396E1E46B397E0714
:1021200040F0DC01FB0180E101900D928150E1F76C
:1021300004C040E150E00E94940FD80117968C91A2
:1021400090E0FE01319680FD09C08E719070E80F1D
:10215000F91FE288F388CC24DD2409C001978E7131
:102160009070E80FF91FC28CD38CEE24FF24EF810E
:10217000F8853496D801149680E10D900192815033
:10218000E1F7EF81F885878180648783E114F104AA
:10219000A1F0D80114966C91149715968C91782F14
:1021A0007F7089859A85681B790B3896CE010996D0
:1021B000AF019501F701099517C0C114D10419F4B5
:1021C0002FEF3FEF14C0F80164818581782F7F7075
:1021D00089859A85681B790BA801485F5F4FCE01FE
:1021E00009969501F60109959C0197FF0BC0EF81B7
:1021F000F88588279927821B930BAA2797FDA0951E
:10220000BA2F0EC06F8178856C5F7F4FF801828195
:10221000938114C0EF81F88586E190E0A0E0B0E002
:1022200080879187A287B38787818062878334966E
:10223000D80112968D919C911397BF0140E150E017
:102240000E94B505A2960FB6F894DEBF0FBECDBFB3
:10225000CF91DF911F910F91FF90EF90DF90CF9082
:10226000BF90AF909F908F9008950F931F93CF933F
:10227000DF93DB01EC016C817D81232B61F49B01F9
:102280002A0F3B1FF90185919491EA019983888374
:1022900022E030E009C06A0F7B1FCA0148E050E02D
:1022A0000E94940F28E030E0C901DF91CF911F9187
:1022B0000F9108950F931F93CF93DF93DB018A0152
:1022C000EC016C817D81232B91F49B012A0F3B1F34
:1022D000E1E42B393E0720F0F9018491EA0188837B
:1022E000F9018081E801888321E030E009C06A0FAC
:1022F0007B1FCA0148E050E00E94940F28E030E0C4
:10230000C901DF91CF911F910F910895FC01868142
:102310009781860F971FBA0148E050E00E94611C28
:1023200088E090E00895CF93DF93FA01EC01AE814D
:10233000BF81232B49F4A60FB71F808191818D9314
:102340009C9322E030E00AC0CD01860F971FBA01AE
:1023500048E050E00E94611C28E030E0C901DF91B4
:10236000CF910895CF93DF93FA01EC01AE81BF8145
:10237000232B39F4A60FB71F80818C9321E030E026
:102380000AC0CD01860F971FBA0148E050E00E94B5
:10239000611C28E030E0C901DF91CF910895FC0174
:1023A00024813581260F371FCA01B90148E050E06A
:1023B0000E94611C88E090E00895CF93DF93EC01C8
:1023C000009719F44BE052E002C040E152E0209146
:1023D000EB052F5F2093EB05215000D000D000D0FB
:1023E000EDB7FEB7319686E192E0ADB7BEB7129673
:1023F0009C938E93119753834283248315820E946A
:10240000881A8DB79EB706960FB6F8949EBF0FBE7A
:102410008DBFCE01DF91CF9108959C01FB0168E053
:1024200070E00E94181F482FC90168E070E00E9408
:10243000181F6F5F7F4FDB01AA0FBB1FA60FB71FCF
:10244000EF2B61F092962C91929781E090E002C080
:10245000880F991F4A95E2F7282B0CC092962C9171
:10246000929781E090E002C0880F991F4A95E2F7A9
:102470008095282392962C9308959C0168E070E043
:102480000E94181F6F5F7F4FFB01EE0FFF1FE60FCB
:10249000F71F40A1E0E0F0E0C90168E070E00E94B1
:1024A000181F21E030E002C0220F331F8A95E2F7A7
:1024B000422311F0E1E0F0E0CF0108959C01FB011F
:1024C00060E270E00E94181F660F771F660F771F8B
:1024D000E60FF71FC90160E270E00E94181F21E0BB
:1024E00030E040E050E004C0220F331F441F551F6E
:1024F0008A95D2F780819181A281B381822B932B1F
:10250000A42BB52B80839183A283B38308952F924C
:102510003F924F925F926F927F928F929F92AF9273
:10252000BF92CF92DF92EF92FF920F931F93DF93B0
:10253000CF93CDB7DEB728970FB6F894DEBF0FBEA6
:10254000CDBF5B015C834B83680183E0AA0CBB1C9D
:102550008A95E1F7232B29F048E050E05A8349831C
:1025600002C01A830983222433248DC0C10168E08C
:1025700070E00E94181F9B0158E0C516D10449F174
:10258000C10160E170E00E94181F4B01880C991C8A
:102590008B819C81880E991EC10160E270E00E94CF
:1025A000181FDB01AA0FBB1FAA0FBB1FEB81FC8109
:1025B000AE0FBF1FB887AF83250166247724B1E033
:1025C000EB2EF12C012D112DE20FF31FFE83ED8375
:1025D00053C0EB81FC81E60FF71F4081C501877076
:1025E0009070892B69F6C50168E070E00E94181FA1
:1025F0006F5F7F4FFB01EE0FFF1FE60FF71F42A338
:102600003EC0F0E1CF16D10491F040E2C416D104EF
:10261000A1F058E0C516D10429F08AEE9FEF9A8305
:10262000898337C0AD81BE818C9190E003C0F401F5
:1026300080819181A0E0B0E006C0EF81F8858081C3
:102640009181A281B38160E070E08E219F21A0235F
:10265000B1230097A105B10511F061E070E0C2015E
:102660000E940D120894611C711CEE0CFF1C001FCF
:10267000111F0894411C511C6C147D0414F22C0C85
:102680003D1CAC0CBD1C49815A81241635060CF446
:102690006DCF89819A8128960FB6F894DEBF0FBE60
:1026A000CDBFCF91DF911F910F91FF90EF90DF9001
:1026B000CF90BF90AF909F908F907F906F905F90E2
:1026C0004F903F902F9008950F931F9308E010E0D4
:1026D0000E9487121F910F9108950F931F9300E19D
:1026E00010E00E9487121F910F9108950F931F937E
:1026F00000E210E00E9487121F910F9108958FEF62
:102700009FEF08952F923F924F925F926F927F9228
:102710008F929F92AF92BF92CF92DF92EF92FF92F1
:102720000F931F93DF93CF9300D000D0CDB7DEB7C8
:102730003B015A834983480163E0660C771C6A9524
:10274000E1F7232B21F058E0252E312C01C0180190
:10275000442455249EC0C20168E070E00E94181F06
:102760006B0129813A81260F371F80E18816910479
:10277000F1F090E289169104F9F0A8E08A1691042C
:1027800021F5C30187709070892B11F08AEE0DC07E
:10279000C30168E070E00E94181F6F5F7F4FFB016C
:1027A000EE0FFF1FE60FF71F80A1F9018083EAED0E
:1027B000FFEFD901ED93FC938AED9FEFAFEFBFEFF1
:1027C000F90180839183A283B38353011C821B820E
:1027D000EE24FF2487011BC0C5010E943D12AA27D9
:1027E00097FDA095BA2F0B8004C0880F991FAA1FD0
:1027F000BB1F0A94D2F7E82AF92A0A2B1B2B8B81DC
:102800009C8101969C838B830894A11CB11CAB8195
:10281000BC81A815B90504F3B0E18B169104A1F0B1
:10282000E0E28E169104F9F0F8E08F16910429F099
:102830003AEE232E3FEF332E30C089819A81C80EA5
:10284000D91ED601EC9221C0C20160E170E00E9465
:10285000181FFB01EE0FFF1F89819A81E80FF91FF6
:10286000F182E08212C0C20160E270E00E94181F93
:10287000FB01EE0FFF1FEE0FFF1FA981BA81EA0FC8
:10288000FB1FE082F18202831383480C591C680C01
:10289000791C421453040CF45ECFC1010F900F90C9
:1028A0000F900F90CF91DF911F910F91FF90EF90BC
:1028B000DF90CF90BF90AF909F908F907F906F9060
:1028C0005F904F903F902F9008950F931F9308E0D3
:1028D00010E00E9482131F910F9108950F931F9390
:1028E00000E110E00E9482131F910F9108950F9351
:1028F0001F9300E210E00E9482131F910F91089530
:102900008FEF9FEF08952F923F924F925F926F92B9
:102910007F928F929F92AF92BF92CF92DF92EF926F
:10292000FF920F931F93DF93CF93CDB7DEB7289716
:102930000FB6F894DEBF0FBECDBF3C012B011A01CC
:102940006901902E812E2115310521F078E2E72EC4
:10295000F12C04C0802F912F9C017901C301B20199
:102960005E010894A11CB11CA5019601092D182D2A
:102970000E94821397FF03C02FEF3FEF21C0C701D2
:1029800068E070E00E94181F9B01D50140E050E014
:1029900009C0F101E40FF51F8C919081892B8D9373
:1029A0004F5F5F4F42175307A4F3C301B201AE015B
:1029B0004F5F5F4F292D382D86010E9487129C01A1
:1029C000C90128960FB6F894DEBF0FBECDBFCF91D8
:1029D000DF911F910F91FF90EF90DF90CF90BF900C
:1029E000AF909F908F907F906F905F904F903F90AF
:1029F0002F9008950F931F9308E010E00E94871214
:102A00001F910F9108950F931F9300E110E00E9412
:102A100083141F910F9108950F931F9300E210E00C
:102A20000E9483141F910F9108958FEF9FEF0895D7
:102A30002F923F924F925F926F927F928F929F92CE
:102A4000AF92BF92CF92DF92EF92FF920F931F93BC
:102A5000DF93CF93CDB7DEB728970FB6F894DEBFDC
:102A60000FBECDBF3C012B011A016901902E812EB2
:102A70002115310521F0E8E2EE2EF12C04C0802F63
:102A8000912F9C017901C301B2015E010894A11C40
:102A9000B11CA5019601092D182D0E94821397FFE4
:102AA00003C02FEF3FEF21C0C70168E070E00E9434
:102AB000181F9B01D50140E050E009C0F101E40F6F
:102AC000F51F8C919081892B8D934F5F5F4F42173B
:102AD0005307A4F3C301B201AE014F5F5F4F292D2D
:102AE000382D86010E9487129C01C90128960FB6D5
:102AF000F894DEBF0FBECDBFCF91DF911F910F9134
:102B0000FF90EF90DF90CF90BF90AF909F908F900D
:102B10007F906F905F904F903F902F9008950F930C
:102B20001F9308E010E00E9487121F910F910895F3
:102B30000F931F9300E110E00E9418151F910F9151
:102B400008950F931F9300E210E00E9418151F9143
:102B50000F9108958FEF9FEF08952F923F924F921C
:102B60005F926F927F929F92AF92BF92CF92DF92CD
:102B7000EF92FF920F931F93CF93DF931B012A01D4
:102B8000232B21F0B8E0CB2ED12C06C0C80168E081
:102B900070E00E94181F6B01EE24FF24A1E06A2E52
:102BA000712C43C0F201EE0DFF1D8081A82EBB24C5
:102BB000C50183709070039719F42AEE3FEF3AC075
:102BC0008701020D131DC8010E943D129C01C8011E
:102BD00068E070E00E94181F982EC80168E070E05D
:102BE0000E94181F6F5F7F4FEB01CC0FDD1FC60FD8
:102BF000D71FC801B9010E940D12A1FE09C029A169
:102C0000C30102C0880F991F9A94E2F7282B09C0CC
:102C100029A1C30102C0880F991F9A94E2F78095F9
:102C2000282329A30894E11CF11CEC14FD040CF4E6
:102C3000B9CF9601C901DF91CF911F910F91FF90FC
:102C4000EF90DF90CF90BF90AF909F907F906F906C
:102C50005F904F903F902F9008950F931F9308E03F
:102C600010E00E94AD151F910F9108950F931F93CF
:102C700000E110E00E94AD151F910F9108950F9390
:102C80001F9300E210E00E94AD151F910F9108956F
:102C90008FEF9FEF0895AF92BF92CF92DF92EF92A6
:102CA000FF920F931F93CF93DF935B016A01232B56
:102CB00021F091E0E92EF12C06C0C80168E070E037
:102CC0000E94181F7B01C0E0D0E025C08E010A0DD4
:102CD0001B1DC80168E070E00E94181F6F5F7F4FE6
:102CE000FB01EE0FFF1FE60FF71F21A130E0C80127
:102CF00068E070E00E94181F02C0359527958A95FC
:102D0000E2F720FD02C081E001C082E0F601EC0F95
:102D1000FD1F80832196CE15DF05C4F2C701DF9128
:102D2000CF911F910F91FF90EF90DF90CF90BF90C8
:102D3000AF9008950F931F9308E010E00E944B1688
:102D40001F910F9108950F931F9300E110E00E94CF
:102D50004B161F910F9108950F931F9300E210E0FF
:102D60000E944B161F910F9108958FEF9FEF0895CA
:102D7000AF92BF92CF92DF92EF92FF920F931F9389
:102D8000CF93DF935B01232B21F071E0C72ED12C71
:102D900003C064E0C62ED12C8A01EE24FF2442E059
:102DA000F801108297012A0D3B1DC90160E270E015
:102DB0000E94181FEB01CC0FDD1FCC0FDD1FFE01A1
:102DC000EE5EF94F80819181A281B3812F713070C5
:102DD000022E04C0B695A795979587950A94D2F7C9
:102DE00081709070892B11F0F8014083FE01E65E3E
:102DF000F94F80819181A281B381022E04C0B695E2
:102E0000A795979587950A94D2F781709070892B32
:102E100021F0F801808181608083CE5DD94F888167
:102E20009981AA81BB8104C0B695A795979587958E
:102E30002A95D2F781709070892B21F0F80180815A
:102E4000806880830894E11CF11CEC14FD041CF4E0
:102E50000F5F1F4FA5CFC601DF91CF911F910F913B
:102E6000FF90EF90DF90CF90BF90AF900895DC017E
:102E70001496ED91FC91159780819181A281B38187
:102E800020910A0630910B0640910C0650910D06D8
:102E9000822B932BA42BB52B80930A0690930B06C1
:102EA000A0930C06B0930D06108211821282138239
:102EB00084819581A681B78120910E0630910F06FD
:102EC0004091100650911106822B932BA42BB52B09
:102ED00080930E0690930F06A0931006B0931106F0
:102EE000148215821682178280910A0690910B0631
:102EF000A0910C06B0910D060097A105B105B9F49B
:102F000080910E0690910F06A0911006B0911106C7
:102F10000097A105B10559F400D085E392E0EDB723
:102F2000FEB7928381830E94881A0F900F9083E8E6
:102F300091E483589144E3E095958795EA95E1F70C
:102F4000909303068093020681E090E0909305063B
:102F50008093040681ED92E062E076E047E050E085
:102F60000E94001E0895CF92DF92EF92FF920F937E
:102F70001F93DF93CF93CDB7DEB728970FB6F894A2
:102F8000DEBF0FBECDBF6A01232B21F0B1E0EB2ED7
:102F9000F12C03C0A4E0EA2EF12C8B01065F194F3F
:102FA000CE0101966AE076E048E050E00E94611CA4
:102FB00020E030E0F601E20FF31FD8018C9180830E
:102FC000F80111928F012F5F3F4F2E153F0594F3AB
:102FD00089819A81AB81BC810097A105B10549F433
:102FE0008D819E81AF81B8850097A105B10509F457
:102FF00049C080910A0690910B06A0910C06B091F1
:103000000D060097A105B105E9F580910E06909196
:103010000F06A0911006B09111060097A105B10509
:1030200089F583E891E483589144F3E09595879579
:10303000FA95E1F790930706809306061092090629
:103040001092080681ED92E066E076E047E050E0FD
:103050000E94001E892BB1F000D000D086E492E0DF
:10306000ADB7BEB712969C938E93119785E592E00B
:1030700014969C938E9313970E94881A0F900F902A
:103080000F900F90C70128960FB6F894DEBF0FBEC1
:10309000CDBFCF91DF911F910F91FF90EF90DF9007
:1030A000CF900895CF92DF92EF92FF920F931F93EC
:1030B000CF93DF938B01232B21F091E0C92ED12CEC
:1030C00003C084E0C82ED12CEA01EE24FF248881BD
:1030D00081FF05C0C80162E176E00E945E1288812E
:1030E00080FF05C0C8016AE176E00E945E12888117
:1030F00087FF05C0C80162E276E00E945E12688127
:10310000C80170E00E94CB089C0197FD0BC0089499
:10311000E11CF11C0F5F1F4FEC14FD0414F4219609
:10312000D6CF9601C901DF91CF911F910F91FF90EA
:10313000EF90DF90CF9008958AEE9FEF0895FA0107
:1031400080917A00108211821282138287FF08C058
:1031500081E090E0A0E0B0E080839183A283B3831C
:1031600080E090E00895FA0180819181A281B3818D
:103170000097A105B10531F00E945C0C80917A00A6
:10318000806803C080917A008F7780937A0080E016
:1031900090E00895EF92FF920F931F93DF93CF93E8
:1031A00000D000D0CDB7DEB77A019B0156E036954E
:1031B00027955A95E1F7F901EE0FFF1FE20FF31F74
:1031C000EE0FFF1FEF55F04C6F7370706C30710590
:1031D00009F450C06D30710550F46430710589F107
:1031E0006830710509F441C0672B81F00CC064316F
:1031F000710509F472C06831710509F46EC060315F
:10320000710509F452C02AEE3FEF69C081E4898359
:1032100084E48A83C9016AE070E00E94041F605D53
:103220006B83C9016AE070E00E94041F805D8C839B
:10323000C701BE016F5F7F4F44E050E00E94611CF8
:103240004CC08081282F30E0220F331F40E050E037
:103250008181882311F041E050E0242B352BC901F6
:10326000AA2797FDA095BA2F33C082819381A481AC
:10327000B5812EC080917A0087FD03C023EF3FEF18
:103280002EC0C9010E94740C8C01009719F420EF24
:103290003FEF25C00E94180DF70160837183828380
:1032A0009383C8010E94CD0C18C08091E3059091D2
:1032B000E405A091E505B091E60504C0B695A79593
:1032C000979587952A95D2F781709070A070B0700D
:1032D000F70180839183A283B38320E030E0C901AA
:1032E0000F900F900F900F90CF91DF911F910F9142
:1032F000FF90EF900895FA019B0186E0369527959F
:103300008A95E1F76F7370706830710531F06C3039
:10331000710559F02AEE3FEF13C0408150E060E0A4
:1033200070E0C9010E94E60D0AC0808180FF04C0E0
:10333000C9010E94350D03C0C9010E94790D9C018D
:10334000C90108950F931F93DF93CF9300D000D04E
:10335000CDB7DEB78A01FB0196E0F695E7959A9521
:10336000E1F76F7370706430710551F1653071056C
:1033700018F4672B51F006C06830710549F16C30C4
:10338000710579F12AEE3FEF40C080E5898387E53A
:103390008A83CF016AE070E00E94041F605D6B8346
:1033A000CF016AE070E00E94041F805D8C83C80139
:1033B000BE016F5F7F4F44E050E00E94611C23C05C
:1033C000EB52F04C808190E0A0E0B0E0FA0117C031
:1033D000CF010E940A0EF801608371838283938378
:1033E00012C0CF010E94BE0DF8011082118212821C
:1033F0001382892B41F081E090E0A0E0B0E080836F
:103400009183A283B38320E030E0C9010F900F9035
:103410000F900F90CF91DF911F910F9108950000B1
:103420005353004B435349534F4D4F53494D00386D
:103430004F4900394F4930314F4931314F49000030
:10344000434E0000434E0000434E0000434E000038
:10345000434E0000434E0000354433314F49004C89
:1034600043530041445331445852314458540000AE
:103470003444444C585432314F4900003644000023
:10348000434E0000434E425748230000434E000085
:10349000434E0000434E4B4853480000434E00004B
:1034A0003541000034410000434E0000434E00000F
:1034B0003341000032410000314100003041DF93D0
:1034C000CF93CDB7DEB79E01275F3F4F8D819E81A1
:1034D0006F817885A9010E94961ACF91DF91089596
:1034E000EF92FF920F931F939C01AB0106E616E04B
:1034F000C801B9010E94961AF82EE92EC8010E944F
:10350000FB1C8F2D9E2D1F910F91FF90EF90089522
:10351000DF93CF93CDB7DEB7FE01359681919191C0
:10352000BF010E94701ACF91DF9108952F923F92B0
:103530004F925F926F927F928F929F92AF92BF92C3
:10354000CF92DF92EF92FF920F931F93DF93CF936F
:10355000CDB7DEB764970FB6F894DEBF0FBECDBF10
:103560009C8B8B8B1B013A014C014DE214C18532BF
:1035700059F46AE0C62ED12C20E230E03A8B298B38
:1035800051E0452E512C07C0D4018D9369C0E0E372
:10359000F0E0FA8BE98B0894211C311CD1019C913D
:1035A000993609F466C09A36B0F4983531F19935F8
:1035B00068F49A3231F19B3230F4992309F4F0C067
:1035C000953231F54BC0903319F5E1CF933661F167
:1035D0009436F1F44EC0903781F0913730F49E3636
:1035E00009F4D6C09F36A1F43DC0953709F441C017
:1035F000983719F0933761F421C030E1C32ED12CF4
:1036000038C0F301C080D18022E030E0620E731E2A
:10361000892F8153893008F0BECF492E552480ED83
:103620009FEF480E591EB7CFD3018C91F4018193BF
:103630004F0122E030E0620E731EAAC0D301ED916B
:10364000FC9104C0D4018D934D0131968081882373
:10365000C9F7E2E0F0E06E0E7F1E9AC0D4019D93A0
:103660004D0196C0BAE0CB16D10419F428E0C22E61
:10367000D12CF301E080F180F7FE0CC0FAE0CF1608
:10368000D10441F4F094E194F108F39491E0A92E6F
:10369000B12C02C0AA24BB2400E110E017C00150E5
:1036A000104021E030E02C0F3D1F200F311FC701DB
:1036B000B6010E94041FFC01EF58FD4F8081D90123
:1036C0008C93C701B6010E94041F7B01E114F10431
:1036D00021F00115110519F707C00031110521F47A
:1036E000B0E3B88B0FE010E0A114B10499F0E989C0
:1036F000FA89B09721F081E0A82EB12C0BC00150BF
:103700001040E1E0F0E0EC0FFD1FE00FF11F4083FF
:10371000AA24BB2401501040E1E0F0E0EC0FFD1FB3
:10372000E00FF11F0F5F1F4F80E190E084199509B2
:103730008A0D9B1D05C001501040298920833197B7
:1037400080179107C4F3AB2849F001501040E1E025
:10375000F0E0EC0FFD1FE00FF11F4083A1E0B0E0AF
:10376000AC0FBD1FA00FB11FF401980104C08D91D3
:1037700081932F5F3F4F20313105CCF382E090E001
:10378000680E791E80E190E0801B910B880E991ED7
:103790000894211C311CD1018C91882309F0E7CEBB
:1037A000F401108294018B899C89281B390BC90173
:1037B00064960FB6F894DEBF0FBECDBFCF91DF91F8
:1037C0001F910F91FF90EF90DF90CF90BF90AF903F
:1037D0009F908F907F906F905F904F903F902F9031
:1037E000089582E189BD09B400FEFDCF089584E00B
:1037F00085BD8AEF87BD81E080936E00089580EAE1
:103800008093D800089580E98093D800089581E8D6
:103810008093D7000895AC01DB01FC018D91819369
:103820008823E1F7CA0108959C01FC0101C031968B
:1038300080818823E1F7CF01821B930B0895AC01AF
:103840009B01FA0101C031962115310529F0215063
:10385000304080818823B9F79F01241B350BC901B3
:103860000895DC01FB018D919191891741F0891731
:1038700018F021E030E007C02FEF3FEF04C08823AD
:1038800091F720E030E0C9010895DC01FB0112C08E
:103890008C919081891741F0891718F021E030E070
:1038A0000EC02FEF3FEF0BC0882339F011963196F1
:1038B000415050404115510559F720E030E0C90111
:1038C0000895EF92FF920F931F93CF93DF938C0194
:1038D000EB017C01CE01802B912B80FD1FC0BA0132
:1038E00020E030E00EC0F801E20FF31FDE01A20F6E
:1038F000B31F8D919C9191838083625070402E5FA5
:103900003F4F6230710578F7CA018E7FBE01680FA4
:10391000791F7801E80EF91E481B590B20E030E0B2
:103920000AC0F701E20FF31FDB01A20FB31F8C9156
:1039300080832F5F3F4F415050408FEF4F3F5807DC
:1039400081F7C801DF91CF911F910F91FF90EF9008
:103950000895CF93DF93EC01FA019C0180FD20C014
:10396000CB01AA2797FDA095BA2F9070A070B070D8
:103970002227382F492F5A2F282B392B4A2B5B2BE4
:10398000CF01DE0103C02D933D9302978230910554
:10399000D0F7CF018E7F9E01280F391FE81BF90B4E
:1039A000D90101C06D9331978FEFEF3FF807D1F741
:1039B000CE01DF91CF910895DF93CF9300D0CDB7A3
:1039C000DEB79A8389830A9721F48DE090E00E9404
:1039D000DC1C80918E0790918F07009739F0BE0113
:1039E0006F5F7F4F41E050E00E94B5050F900F9050
:1039F000CF91DF910895CF93DF93EC0104C021961E
:103A000090E00E94DC1C88818823C9F780E090E068
:103A1000DF91CF9108950F931F93CF93DF93CEE063
:103A2000D1E002E812E020C0E881F9810995009711
:103A3000D1F000D000D000D0EDB7FEB73196ADB7D1
:103A4000BEB712961C930E931197D383C2839583AE
:103A500084830E94881A8DB79EB706960FB6F89495
:103A60009EBF0FBE8DBF229691E0CC31D907E0F208
:103A7000CEE0D1E002E812E020C0E881F9810995AA
:103A80000097D1F000D000D000D0EDB7FEB731964E
:103A9000ADB7BEB712961C930E931197D383C28312
:103AA000958384830E94881A8DB79EB706960FB6B9
:103AB000F8949EBF0FBE8DBF229691E0CE30D907FD
:103AC000E0F280E090E0DF91CF911F910F91089597
:103AD000CF93DF932FB7F89480910A0790910B074B
:103AE00037E08A30930721F42FBFC0E0D0E00FC049
:103AF000EC012297AC81BD81EA81FB81B383A28373
:103B0000ED93FC939B838A839D838C832FBFCE018F
:103B1000DF91CF9108950F931F93CF93DF938AE0A6
:103B200097E090930B0780930A0790930D0780937B
:103B30000C07A0E1B7E020E030E0582F492FC90181
:103B400063E0880F991F6A95E1F7805F984FE091D5
:103B50000C07F0910D0790930D0780930C075C9371
:103B600011964C9311971396FC93EE9312979183B1
:103B700080832F5F3F4F18962031310501F7EAEC23
:103B8000F6E0AAEEB6E0E083F183E283F383AC9340
:103B90000B2E11960C9211970A2E12960C921297D8
:103BA0000B2E13960C9213973496149686E0EA3EE9
:103BB000F80749F701EA12E018C0F801C081D18185
:103BC0000CC019830883EA81FB810190F081E02D0C
:103BD000309711F0CE0109952896F80182819381E2
:103BE000C817D90771F70C5F1F4FF2E0053D1F079B
:103BF00020F380E090E0DF91CF911F910F91089525
:103C00000F931F93CF93DF938C019A014830510596
:103C100018F02AEE3FEF3DC08FB7F89440910A07A5
:103C200050910B0797E04A30590711F48FBF11C02C
:103C3000EA012297AC81BD81EA81FB81B383A28333
:103C4000ED93FC935B834A835D834C838FBF209706
:103C500019F424EF3FEF1DC07F836E83198308831F
:103C60008FB7F894220F331F220F331FE0919C026D
:103C7000F0919D02E20FF31FA281B381538342832F
:103C8000FB83EA83BD83AC834D935C938FBF20E0BD
:103C900030E0C901DF91CF911F910F9108954F92AC
:103CA0005F926F927F928F929F92AF92BF92CF92CC
:103CB000DF92EF92FF920F931F93CF93DF931AE05F
:103CC000412E17E0512E4FB7F89420919C0230916D
:103CD0009D0280919E0290919F0290939D028093FD
:103CE0009C0230939F0220939E024FBFB8E06B2E40
:103CF000712CACE1CA2ED12CE0919E02F0919F0272
:103D0000EC0DFD1D0081118102501040D80112966A
:103D1000ED90FC901397CEEFDFEFEC0EFD1E45C04B
:103D2000F80180809180D401CD91DC910FC0F80121
:103D3000868197819D838C83EA81FB810280F38158
:103D4000E02D309711F0CE0109952896D4011296F6
:103D50008D919C911397C817D90749F7089461086A
:103D600071088FB7F894E801AC81BD81EA81FB81CD
:103D7000B383A283ED93FC93E0910A07F0910B07C4
:103D8000B382A282FB83EA835D824C82B0920B07EE
:103D9000A0920A078FBFF701828193818701FEEF0E
:103DA000EF2EFFEFFF2EE80EF91EE2E0AE2EB12C53
:103DB000A00EB11E80919E0290919F028C0D9D1DC0
:103DC000A816B90609F0ACCF8CEF9FEFC80ED91E2C
:103DD0009CEFC9169FEFD90609F08ECFA8E06A16AE
:103DE000710409F070CFDF91CF911F910F91FF9077
:103DF000EF90DF90CF90BF90AF909F908F907F908B
:103E00006F905F904F900895AA1BBB1B51E107C0B4
:103E1000AA1FBB1FA617B70710F0A61BB70B881F5A
:103E2000991F5A95A9F780959095BC01CD010895E9
:103E300097FB092E07260AD077FD04D0E5DF06D0D0
:103E400000201AF4709561957F4F0895F6F79095CC
:103E500081959F4F0895A20B9F0B9C0B990B960B7E
:103E6000930B900B8D0B8A0B870B840B810B7E0BB6
:103E70007B0B780B750B720B6F0B6C0B690B660B66
:103E8000630B600B5D0B5A0B570B540B510B4E0B16
:103E90004B0B480B450B420B3F0B3C0B390B360BC6
:103EA000330B300B2D0B2A0B270B240B210B1E0B76
:103EB0001B0B180B150B120B0F0B0C0B090B060B26
:103EC000030B000BFD0AFA0AF70AF40AF10AEE0ADC
:103ED000EB0AE80AE50AE20A000100000C3F1200C2
:103EE0000200001E3F4300030000613F040103097C
:103EF00004653F16020309047D3F08030309048794
:103F00003F0C0001C112018036018136120100020E
:103F100002000010C0167A04000101020301090228
:103F20004300020100C03209040000010202010046
:103F300005240010010524010101042402060524C2
:103F40000600010705820310004009040100020A6F
:103F5000000000070503024000000705840240003E
:103F60000004030904160344006F006700200048A2
:103F70000075006E007400650072000000080359AF
:103F80000055004E0000000C0330003000300030BF
:103F9000003000000008000000A00F0000FFFFFF3D
:103FA000FF0A00401F00000A00401F00000A0040F6
:103FB0001F00000A00401F00000A00401F00000A06
:103FC00000401F00000A00401F00000A00401F00C0
:103FD000000200000008085A113511000FCF11B27D
:103FE000119311280F86115A113511000FCF1100AE
:103FF0000000000000000065146E14771480146443
:10400000136D1376137F130000000000000000FA08
:104010001403150C15151500000000000000008F9A
:10402000159815A115AA159A16A316AC16B5162D36
:104030001636163F16481600000000B8160000009D
:104040000000005218000000000000B3170000003C
:10405000000000000000000000C540C7400000E76D
:104060003F0800CF40D1400000E73F1000D9401E7C
:10407000340000E73F1001DB405C060000E73F1022
:1040800003DD4084060000E73F1005DF400000002C
:104090000027401007E1400000000037401009E30E
:1040A0004000000000F73F1809E34000000000074F
:1040B000402009E3400000000017402809E5400ABD
:1040C000060000474008003412785602000000083D
:1040D000005445535428000000A000280028000088
:1040E0000200020800080000000000CA18000000DA
:1040F0000000009C180000000000009F1800000055
:10410000000000B3180000000039413B410000E707
:104110003F08004341953F0000E73F100043419DA9
:104120003F0000E73F1400434100000000F740401B
:10413000004541A13F0000E740080035120100039F
:104140000000000400C00F00000000A219000000E1
:104150000000007B1900000000754177410000E776
:104160003F08007F41D13F0000E73F40008141D53B
:104170003F0000474108003612010005000000041E
:1041800000C00F0B00574000002A06050007410041
:0B419000003E060300574100005206ED
:10419B0000000000000000000000000000001104FF
:1041AB002005230AE00B5C0CAF0EE10E25730A0011
:1041BB0073797374656D5F74696D65725F696E6930
:1041CB0074000000650400005461736B3A20257382
:1041DB000A000000DD0400000000130600006D69FA
:1041EB0070732D636F6E736F6C65006D6375696FA4
:1041FB00000D0A25733A2073776974636865642030
:10420B00746F206D6F64652025730D0A00617672E3
:10421B002D75617274006176722D73706900756112
:10422B0072742D6D75782D79756E00A60853075A2B
:10423B00079F080000000061070000000014090040
:10424B00007573622D756172740000000000E1004F
:10425B00000000080000460A490ABA0BDA0B0000FE
:10426B006176722D7561727400F40B110CF70B0BE8
:10427B000C00006176722D73706900250E640E2997
:10428B000E280E00007573622D75617274007561D6
:10429B0072742D6D75782D79756E0064656164008F
:1042AB00616C697665006D6375696F2025732025D8
:1042BB00640A006D6375696F0000009E0F000000BB
:1042CB00004D0F00004E554C4C206770696F2065F8
:1042DB0076656E740A0025733A20657674206572D4
:1042EB00726F720A005F5F6770696F5F65767473D8
:1042FB005F7374617475735F72640000003717002D
:10430B0000303132333435363738396162636465A6
:10431B006600696E697463616C6C20617420257032
:10432B003A206572726F722025690A00EA06CA0686
:10433B0000F9020903F102F9020903090309030950
:10434B0003190319031903190309031103090309BA
:10435B000319032103210329032903310311031932
:10436B0003290329030000000000000000000000E7
:10437B000000000000000000000000000000000032
:10438B0000000042010000000000003201000000AC
:10439B00000000AB01000000000000A50100007848
:1043AB000500002F020000EC050000480100000092
:1043BB0000000029020000EC0500006B0200000069
:1043CB0000000000000000008E019B0100000000B7
:1043DB000000B101C601000000000000D001D901AE
:1043EB00000000000000E301EB01000000000000F2
:1043FB002302DD11600FEC05983A0000030000006A
:040000030000006693
:00000001FF
