:1000000032C00000000000000000000000000000FE
:1000100000000000000000000000000000000000E0
:1000200000000000000000003DC000007EC0000095
:1000300000000000000000000000000000000000C0
:1000400000000000000000000000000000000000B0
:1000500000000000000000000000000048C2000096
:1000600000000000E9C111241FBECFEFDAE0CDBFD0
:10007000DEBFE7EDFFE303E4A0E0B1E0EF38F00717
:100080001CF425902D92FACFA0ECB4E00AE0A03247
:10009000B00714F41D92FBCF0E94660C78940E9466
:1000A000DF06E1CF1F920F920FB60F9211248F93AC
:1000B0009F938091E1001092E100982F83FF13C07D
:1000C0001092E90081E08093EB001092EC0082E155
:1000D0008093ED0088E08093F0001092FB01109275
:1000E000FD011092FC0192FF19C08091FB01882351
:1000F00079F080910502882359F0815080930502A0
:10010000882331F484E08093E9008AE38093E80057
:1001100083E08093E90084E08093F0009F918F91C9
:100120000F900FBE0F901F9018951F920F920FB651
:100130000F9211240F931F932F933F934F935F932D
:100140006F937F938F939F93AF93BF93EF93FF939F
:100150008091F40083FF14C083E08093E9008091D4
:10016000E80082FF08C084E994E067EE73E047E0AE
:1001700050E00E9402068091E800887F8093E800AA
:100180001092E9008091E80083FF40C14091F100A6
:100190003091F1008091F100682F70E02091F10022
:1001A000922F80E0682B792B8091F100A82FB0E08E
:1001B0002091F100922F80E0A82BB92B1091F10033
:1001C0000091F10082EF8093E800363009F05AC0C8
:1001D00021EA3DE3A90145505040F9013797859147
:1001E00094918617970701F5FA01859194918A17E2
:1001F0009B07D1F49A012E5F3F4FF90165917491ED
:100200002E5F3F4FF9014491212F30E0902F80E085
:10021000282B392B2F3F310519F010F02FEF30E04C
:10022000241758F4422F09C0295F3F4F495F5F4FA1
:10023000FDE32B3C3F0789F6E9C05EEF8091E800C3
:10024000282F30E0C90185709070892BB9F322FD09
:10025000E0C0342F413108F030E1232FCB0106C03C
:10026000FC010196E491E093F10021502223C1F7B3
:10027000630F711D431B5093E8004423F9F630319E
:10028000E9F2C7C0353061F48EEF8093E8008091C9
:10029000E80080FFFCCF862F80688093E300B9C020
:1002A000393061F5442309F0B1C06093FB0110922D
:1002B000FD011092FC01109205028EEF8093E80080
:1002C00084EC9DE321E02093E900FC010196E49198
:1002D000E093EB00EE2369F0AC014F5F5F4FFC0150
:1002E00084918093EC00CA010196FA013491309315
:1002F000ED002F5F253039F78EE183C0383061F48F
:10030000403809F083C08091E80080FFFCCF8091E5
:10031000FB018093F10052C0313289F4413A09F077
:1003200075C08091E80080FFFCCFEEEFF1E0819195
:100330008093F10082E0E530F807C9F73FC0303222
:10034000A1F4413209F062C08091E80082FFFCCF45
:10035000EEEFF1E08091F100819382E0E530F80763
:10036000C9F78BEF8093E80029C0323261F4413243
:1003700009F04CC07093FD016093FC018091E8008E
:1003800080FFFCCF1BC03323E9F48091E80080FF9D
:10039000FCCF423811F080E00DC0A093E9008091BD
:1003A000EB0090E025E0969587952A95E1F781701E
:1003B0001092E9008093F1001092F1008EEF80938B
:1003C000E80027C0313011F0333001F54230F1F44C
:1003D000672BE1F42A2F2F77822F81508430B0F4DD
:1003E0008EEF8093E8002093E900333079F089E1C3
:1003F0008093EB0081E090E002C0880F991F2A955E
:10040000E2F78093EA001092EA0003C081E2809351
:10041000EB00FF91EF91BF91AF919F918F917F91F1
:100420006F915F914F913F912F911F910F910F907D
:100430000FBE0F901F9018951F920F920FB60F923C
:1004400011242F933F934F935F936F937F938F93D9
:100450009F93AF93BF93EF93FF932091AA0730919F
:10046000AB076091AC077091AD07C901809590957D
:10047000860F971F8F739070892B31F481E090E085
:100480009093EF078093EE074091CE008091EE07A6
:100490009091EF07892B61F4F901E855F84F4683F5
:1004A000C90101968F7390709093AB078093AA0750
:1004B000261B370B2F733070232B41F48EE994E009
:1004C00067EE73E047E050E00E940206FF91EF9173
:1004D000BF91AF919F918F917F916F915F914F915C
:1004E0003F912F910F900FBE0F901F9018951F9264
:1004F0000F920FB60F9211242F933F934F935F9358
:100500006F937F938F939F93AF93BF93EF93FF93DB
:100510008091180A9091190AA0911A0AB0911B0AA9
:100520000196A11DB11D8093180A9093190AA093FA
:100530001A0AB0931B0A8FEC93E060E070E047E08A
:1005400050E00E94611DFF91EF91BF91AF919F918B
:100550008F917F916F915F914F913F912F910F906C
:100560000FBE0F901F9018950000000007070707A7
:10057000000000000000070707070000070007074A
:100580000000000000000000070700000707070741
:10059000000000000000000000000000000000005B
:1005A000000000000000000000000000000000004B
:1005B0000000000000000000E62FF72FA82FB92F41
:1005C00003C0C89531960D9241505040D0F7089520
:1005D0008FEC93E060E070E047E050E00E94611D26
:1005E000089583B7817F83BF83B7816083BF889578
:1005F00083B78E7F83BF089500D000D088E191E05B
:10060000EDB7FEB79283818381E491E09483838385
:100610000E94ED190F900F900F900F900E94B01D47
:100620000E94F102FBCFBF92CF92DF92EF92FF9236
:100630000F931F93CF93DF938B019C016091C404B0
:100640007091C50484E0643C780709F475C0EB013F
:100650002697A885B985EE81FF81B383A283ED93A8
:10066000FC937F836E8379876887209709F464C041
:100670008091180A9091190AA0911A0AB0911B0A48
:10068000800F911FA21FB31F88839983AA83BB8306
:100690005D834C83BFB6F894E091C004F091C1042F
:1006A00084E0E03CF80729F473836283FF83EE83E0
:1006B0003BC0DF0124C0E880F9800A811B812D91B5
:1006C0003D914D915C911397C701821B930B97FF4E
:1006D0000AC02E193F09400B510B2D933D934D93AA
:1006E0005C93139717C0E21AF30A040B150BE88208
:1006F000F9820A831B8316960D90BC91A02D169744
:1007000086E0C82ED12CCA0EDB1E80ECC81684E011
:10071000D80689F61896ED91FC91199719967C9355
:100720006E931897DF82CE82F987E88771836083A2
:10073000BFBE20E030E002C024EF3FEFC901DF91EF
:10074000CF911F910F91FF90EF90DF90CF90BF90CE
:10075000089500D000D08DE491E0EDB7FEB792830C
:10076000818381E591E0948383830E94ED1980EC7D
:1007700094E09093C1048093C0049093C304809349
:10078000C20484EC94E09093C5048093C4049093D5
:10079000C7048093C604AEECB4E040E050E00F9094
:1007A0000F900F900F90782F692FCA01880F991F13
:1007B0009A01E3E0220F331FEA95E1F7820F931FBE
:1007C00082539B4FE091C604F091C7049093C704F5
:1007D0008093C6047C9311966C9311971396FC93A7
:1007E000EE931297918380834F5F5F4F1A9640324A
:1007F0005105D9F680E090E00895CF92DF92EF9214
:10080000FF920F931F93CF93DF93C091C004D091B9
:10081000C10426970E811F8106501040B4ECCB2EE8
:10082000B4E0DB2E4EC08091180A9091190AA09175
:100830001A0AB0911B0A28813981821B930B97FDFC
:100840004BC06C817D8183ED93E047E050E00E94D6
:10085000611DEE81FF8184E0E03CF807A9F0369746
:100860002091180A3091190A40911A0A50911B0AD6
:1008700080819181A281B381820F931FA41FB51F34
:1008800080839183A283B383A885B985EE81FF819C
:10089000B383A283ED93FC93E091C404F091C5046B
:1008A000F382E282FF83EE83D986C886F092C50484
:1008B000E092C404F80186819781E8018C0106501A
:1008C0001040A6E0EA2EF12CEC0EFD1EF0ECEF1627
:1008D000F4E0FF0609F0A7CFDF91CF911F910F91B0
:1008E000FF90EF90DF90CF900895CF93DF93FC01BE
:1008F000C481D581EA81FB818E819F8109959F8387
:100900008E8388859985AA85BB852C853D854E85F6
:100910005F85820F931FA41FB51F8C879D87AE87AD
:10092000BF872091180A3091190A40911A0A5091F4
:100930001B0AB901681B790B77FD0CC02F5F3F4F75
:100940004F4F5F4F2C873D874E875F872150304048
:10095000404050406C857D858E859F85621B730B62
:10096000840B950BAE010E941303DF91CF91089584
:10097000CF92DF92EF92FF920F931F93CF93DF936B
:10098000E090180AF090190A00911A0A10911B0AB7
:10099000C8EAD4E089E6C82E81E0D82E18C000D07D
:1009A00000D0EDB7FEB7D282C1828881998194834D
:1009B00083830E94ED19EC81FD810F900F900F90C1
:1009C0000F90309719F08E819F8109956096F4E021
:1009D000C83BDF0720F3C8EAD4E01DC06C857D85E5
:1009E0008E859F856E0D7F1D801F911F6C597F4FD7
:1009F0008F4F9F4F6C877D878E879F876E197F09EA
:100A0000800B910BAE010E94130397FF03C02FEFE1
:100A10003FEF07C0609684E0C83BD807F8F220E0BB
:100A200030E0C901DF91CF911F910F91FF90EF90BE
:100A3000DF90CF900895DC011696ED91FC91179709
:100A4000309719F489E090E00FC012968C911297BC
:100A500080FF08C00280F381E02D0280F381E02D49
:100A6000309749F481E090E09093150A8093140A3E
:100A70002FEF3FEF10C0CD0109959C0197FD03C0FA
:100A800080E090E004C088279927821B930B909305
:100A9000150A8093140AC9010895DC011696ED9198
:100AA000FC911797309719F489E090E00FC01296E7
:100AB0008C91129781FF08C00280F381E02D0480A1
:100AC000F581E02D309749F481E090E09093150A8C
:100AD0008093140A2FEF3FEF10C0CD0109959C01C0
:100AE00097FD03C080E090E004C088279927821B0F
:100AF000930B9093150A8093140AC9010895DC01A1
:100B00001696ED91FC911797309719F489E090E0D3
:100B10000AC00280F381E02D0084F185E02D30973A
:100B200049F481E090E09093150A8093140A2FEF26
:100B30003FEF0FC009959C0197FD03C080E090E056
:100B400004C088279927821B930B9093150A8093E2
:100B5000140AC9010895CF93DF93FC01C481D581A4
:100B6000CE010896AA85BB85E885F985B383A28363
:100B7000ED93FC93998788879B878A87EE81FF8115
:100B80009F012A5F3F4F868197818217930751F417
:100B90000280F381E02D0680F781E02D309711F07F
:100BA000CE0109951F821E82DF91CF910895CF93C8
:100BB000DF93EC018E819F81892B49F489E090E0DD
:100BC0009093150A8093140A2FEF3FEF17C08A8184
:100BD0009B81019719F083EE93E002C08FED93E0C3
:100BE000BE0147E050E00E94611D8FEE93E0BE0120
:100BF00046E050E00E94611D20E030E0C901DF9135
:100C0000CF910895CF92DF92EF92FF920F931F93AF
:100C1000CF93DF93FC016B017A01668177816115C7
:100C20007105A1F0EB0128978C010A5F1F4F09C0E5
:100C3000C601BE01A7010E94611D0884D985C02D8F
:100C40002897CE0108960817190791F7DF91CF91E1
:100C50001F910F91FF90EF90DF90CF9008950F9329
:100C60001F93CF93DF938C01C0E8D4E00AC0688162
:100C70007981F801808191810E94961B892B39F03E
:100C80002A96F4E0C83ADF0790F3C0E0D0E0CE0146
:100C9000DF91CF911F910F910895EF92FF920F93E3
:100CA0001F93CF93DF93DC017B016115710529F060
:100CB000EEE0F6E020E030E017C086E190E019C0F9
:100CC000808191813C96892B69F4E901CC0FDD1F6D
:100CD000C20FD31FCC0FDD1FCC0FDD1FC85FD94F54
:100CE00079F405C02F5F3F4F2032310549F787E186
:100CF00090E09093150A8093140AC0E0D0E057C0AA
:100D0000B983A8835D834C83FB82EA82CE010E9473
:100D10002F068C01009729F41F821E8286E090E046
:100D2000E8CF9F838E83DC0116968D919C91179757
:100D3000892B51F4C801069617969C938E931697AB
:100D400019969C938E931897D8011296ED91FC9169
:100D500013970190F081E02D309739F0CE0109957D
:100D6000009719F01F821E82C4CFCE010896D801C9
:100D70001696ED91FC91179793838283F987E88704
:100D80000A5F1F4F1B870A8706501040F8019783A0
:100D90008683F1E0EF16F10419F08BED93E002C0C9
:100DA00087ED93E0BE0147E050E00E94611DCE0157
:100DB000DF91CF911F910F91FF90EF90089580EDFB
:100DC00097E020E931E0F9013197F1F70197D9F780
:100DD0000E94FC0208958091890790918A070E94E1
:100DE0001B0508958091890790918A070E944D05FF
:100DF0000895AF92BF92CF92DF92EF92FF920F933E
:100E00001F93DF93CF93CDB7DEB764970FB6F894F7
:100E1000DEBF0FBECDBFDC0114960D911C9115975E
:100E2000D8011696ED91FC91179786819781369699
:100E30008E179F0709F4ECC08091890790918A076B
:100E40000817190741F08091160A9091170A0817A0
:100E5000190709F0DDC080918807882351F080913F
:100E6000160A9091170A0817190719F0EE24FF24A3
:100E70000DC0C801BE016F5F7F4F44E150E00E948A
:100E80001B057C01181619060CF0C2C08091160AC9
:100E90009091170A0817190709F056C0A091890701
:100EA000B0918A0720E030E0AE014F5F5F4F3AC05B
:100EB000FA01E20FF31F80818D3191F590E080916E
:100EC0008807813009F091E0909388071696ED919C
:100ED000FC91179740815181913019F02FE731E053
:100EE00002C02CE831E000D000D000D0EDB7FEB752
:100EF000319682E991E0ADB7BEB712969C938E937E
:100F0000119753834283358324830E94ED19EDB7F3
:100F1000FEB736960FB6F894FEBF0FBEEDBF07C002
:100F20002F5F3F4F2E153F0514F4109709F680915F
:100F30008807813009F46CC08091890790918A07F5
:100F4000009709F056C064C080918807882309F093
:100F500057C000E010E05E010894A11CB11C82E9BA
:100F6000C82E81E0D82E3AC0F501E00FF11F808134
:100F70008A3A91F590E080918807813009F091E0FC
:100F800090938807E0918907F0918A070680F7819E
:100F9000E02D20813181913019F08FE791E002C07E
:100FA0008CE891E000D000D000D0EDB7FEB73196CC
:100FB000ADB7BEB71296DC92CE92119733832283DF
:100FC000958384830E94ED19EDB7FEB736960FB670
:100FD000F894FEBF0FBEEDBF0F5F1F4F0E151F052C
:100FE0001CF280918807813099F08091120A9091CB
:100FF000130ABE016F5F7F4FA7010E944D0508C015
:1010000083EF93E060E070E047E050E00E94611DF4
:1010100064960FB6F894DEBF0FBECDBFCF91DF91BF
:101020001F910F91FF90EF90DF90CF90BF90AF9006
:1010300008958091890790918A070E94D7050895A5
:101040008EEA91E063E070E040E050E00E944D06DF
:1010500090938A0780938907892B19F42DEE3FEF2F
:1010600004C01092880720E030E0C90108951F9362
:10107000CF93DF93FC01162F8832910518F02AEEEA
:101080003FEF39C068E070E00E94791E21E030E057
:1010900002C0220F331F8A95E2F7CF0168E070E0AB
:1010A0000E94791EA62FB0E0822F8095ED01CF56C9
:1010B000D84F488148234883FD01EA56F84F908174
:1010C00098239083FD01E556F84F508158235083B3
:1010D00010FF02C0422B488311FF05C0FD01EA56F4
:1010E000F84F922B908317FF04C0A556B84F522B90
:1010F0005C9320E030E0C901DF91CF911F9108950A
:101100002F923F924F925F926F927F928F929F9217
:10111000AF92BF92CF92DF92EF92FF920F931F9305
:10112000DF93CF9300D000D000D0CDB7DEB7909042
:101130008B07BCE8AB2EB7E0BB2E20E030E040E0F0
:1011400050E0EE24FF24A3E2CA2ED12CF1E02F2E92
:10115000312C412C512C89010F5F1F4FD6018C90EF
:10116000892D90E0022E02C0959587950A94E2F7AA
:1011700080FD09C081E090E002C0880F991F2A9588
:10118000E2F7982A8EC0F5017081F82DF727F983D0
:10119000F801E656F84F20812A831E821D8261E005
:1011A000C8018057984F9C838B83E5E96E2EE7E05A
:1011B0007E2E600E711E8A81862309F469C08981A2
:1011C000862309F465C0AB81BC818C91862371F1C3
:1011D000862F872359F58D819E818E0D9F1DFC01E1
:1011E00055E0F595E7955A95E1F7EE0FFF1FEE0FE5
:1011F000FF1FE056F84F8F719070A201910104C05B
:10120000220F331F441F551F8A95D2F7DA01C901F7
:101210002081318142815381282B392B4A2B5B2B32
:10122000208331834283538341E050E0D3018C918A
:10123000862371F1862F872359F18D819E818E0D32
:101240009F1DFC0135E0F595E7953A95E1F7EE0F26
:10125000FF1FEE0FFF1FE056F84F8F719070A20135
:10126000910104C0220F331F441F551F8A95D2F7E6
:10127000DA01C9012081318142815381282B392B28
:101280004A2B5B2B208331834283538341E050E020
:101290008D819E8101969E838D83089711F0660F44
:1012A0008ACFD5018D925D01E8E0F0E0EE0EFF1EE1
:1012B00023E030E0C20ED31E0530110511F0980175
:1012C0004ACF90928B07452B41F087EF93E060EA7D
:1012D00077E047E050E00E94611D26960FB6F89433
:1012E000DEBF0FBECDBFCF91DF911F910F91FF9059
:1012F000EF90DF90CF90BF90AF909F908F907F90B6
:101300006F905F904F903F902F90089540E050E095
:1013100021E030E0682F70E0C90186239723892BF4
:1013200011F02D9A01C02D9800000000000000006F
:101330000000000000000000000000002C9A0000E7
:10134000000000000000000000000000000000009D
:1013500000002C984F5F5F4F4830510519F0220F65
:10136000331FDACF08952C9A00000000000000001F
:101370000000000000000000000000002D980000A8
:10138000000000000000000000000000000000005D
:1013900000002D9A00000000000000000000000086
:1013A00000000000000000002D9800000000000078
:1013B00000000000000000000000000000002C9869
:1013C0000895CF93DF93EC010E94B30903C02196E7
:1013D0000E94860988818823D1F7DF91CF910895F3
:1013E000259A249A2D982C9880E090E008950F93E8
:1013F0001F93182F0FB7F8940E94B309812F0E94F2
:1014000086090FBF1F910F910895EF92FF920F93DE
:101410001F93CF93DF937B018A010E94B309C0E041
:10142000D0E007C0F701EC0FFD1F80810E94860904
:101430002196C017D107B4F3C801DF91CF911F9156
:101440000F91FF90EF9008958091FB0190E0089537
:101450008091FC019091FD01089581E08093D70077
:1014600080EA8093D80082E189BD09B400FEFDCFF7
:1014700080E98093D8001092E0001092FB01109256
:10148000FD011092FC018CE08093E2008091E1006C
:1014900090E083709070892BC9F380E090E008950C
:1014A00080E090E00895EF92FF920F931F937A01EE
:1014B0008091FB01882319F4A5EFBFEF33C01FB75C
:1014C000F89483E08093E9008091F200A0E0B0E01E
:1014D000482F50E003E011C00093E9008091E8003C
:1014E00085FD02C01FBF11C00093E9008091F1008B
:1014F000FB01EA0FFB1F8083119697014E155F05D4
:101500000CF49A01A217B3073CF383E08093E9003F
:101510008091F200882329F48091E8008F778093EE
:10152000E8001FBFCD011F910F91FF90EF9008952C
:10153000CF93DF93EC018091FB01882309F41EC156
:101540009FB7F89484E08093E90080910602882395
:1015500041F08091E80085FD02C09FBF17C0109246
:101560000602392FB4E040E45AE3A5E000C19091AF
:10157000E400975E8091E80085FD15C03FBF809133
:10158000E400891731F481E0809306022BEF3FEFEE
:10159000F7C08091FB01882309F4F0C03FB7F894AD
:1015A000B093E900E7CF8091F200242F281B822F0F
:1015B00090E06817790708F4262F822F90E0813495
:1015C000910508F0C6C08457914EFC01EE0FFF1F35
:1015D0000590F491E02D099489918093F10089910F
:1015E0008093F10089918093F10089918093F100BB
:1015F00089918093F10089918093F1008991809382
:10160000F10089918093F10089918093F100899193
:101610008093F10089918093F10089918093F1008A
:1016200089918093F10089918093F1008991809351
:10163000F10089918093F10089918093F100899163
:101640008093F10089918093F10089918093F1005A
:1016500089918093F10089918093F1008991809321
:10166000F10089918093F10089918093F100899133
:101670008093F10089918093F10089918093F1002A
:1016800089918093F10089918093F10089918093F1
:10169000F10089918093F10089918093F100899103
:1016A0008093F10089918093F10089918093F100FA
:1016B00089918093F10089918093F10089918093C1
:1016C000F10089918093F10089918093F1008991D3
:1016D0008093F10089918093F10089918093F100CA
:1016E00089918093F10089918093F1008991809391
:1016F000F10089918093F10089918093F1008991A3
:101700008093F10089918093F10089918093F10099
:1017100089918093F10089918093F1008991809360
:10172000F10089918093F10089918093F100899172
:101730008093F10089918093F10089918093F10069
:1017400089918093F10089918093F1008991809330
:10175000F10089918093F1008091E80085FD02C03D
:101760005093E800621B7109A09305023FBF611509
:10177000710509F0FCCE20E030E002C025EF3FEF1C
:10178000C901DF91CF910895CF93DF93EA0141150D
:10179000510559F48091FB01882381F08091FC016F
:1017A0009091FD0180FD0CC009C0CB01BA010E94DF
:1017B000980A892B29F0CFEFDFEF02C0C5EFDFEFEA
:1017C000CE01DF91CF910895E2EEF0E08081877F36
:1017D0008083089587E090E09093CD008093CC00C3
:1017E0001092AD071092AC071092AB071092AA07A7
:1017F00088E98093C90080E090E0089580E090E05F
:10180000089520E030E00CC0FB01E20FF31FE081FF
:101810008091C80085FFFCCFE093CE002F5F3F4F43
:10182000241735078CF3CA010895E9ECF0E08081B4
:10183000877680830895CF93DF93CB016091AC07C7
:101840007091AD0720E430E0261B370BC091AA074A
:10185000D091AB07C20FD31FCF73D0704C175D0769
:101860000CF4EA012C173D070CF4E901209719F458
:10187000C5EFDFEF27C06255784FAE010E94C61B4F
:101880002091AC073091AD072C0F3D1F2F733070A6
:101890003093AD072093AC071092EF071092EE073C
:1018A0008091AA079091AB07821B930B8F73907066
:1018B000892B41F08EE994E067EE73E047E050E059
:1018C0000E940206CE01DF91CF910895E1E6F0E09B
:1018D00080E8808310820E94F0090E945C1B0E94B5
:1018E000EC1C0E946C1C80E090E008950F931F9305
:1018F00004E212E0C80162E070E040E050E00E94C3
:101900004D069093130A8093120AC80161E070E0BB
:1019100040E050E00E944D069093170A8093160A0B
:1019200080E090E01F910F910895CF93DF93EA013B
:10193000FC0144815581FA01E60FF71F85919591CD
:10194000A591B49188839983AA83BB83232B19F42F
:1019500024E030E00EC0FB013496E40FF51F8591C2
:101960009591A591B4918C839D83AE83BF8328E02C
:1019700030E0C901DF91CF910895CF93DF93EA0161
:10198000DC011696ED91FC911797E60FF71F888101
:101990009981AA81BB8180839183A283B383232B06
:1019A00019F424E030E00AC08C819D81AE81BF81B2
:1019B00084839583A683B78328E030E0C901DF9153
:1019C000CF910895EF92FF920F931F93CF93DF93E0
:1019D0008C01DC0113968C9185FD03C060E270E000
:1019E00002C061E270E086FD03C04DE252E002C039
:1019F00040E352E087FD03C020E230E002C02BE26A
:101A000030E0EDB7FEB738970FB6F894FEBF0FBEC3
:101A1000EDBF319683E392E0ADB7BEB712969C93CB
:101A20008E93119773836283558344833783268310
:101A30000E94ED19F8019281692F62956695677091
:101A4000592F56955F70818182958F70492F417013
:101A50004295407F482B8DB79EB708960FB6F894F5
:101A60009EBF0FBE8DBF838190E0877090708330E2
:101A7000910509F1843091054CF48130910591F084
:101A800082309105ACF4892B81F024C0853091051A
:101A9000C1F08530910594F086309105A9F0079743
:101AA000C9F415C02BE332E017C02FE332E014C0B5
:101AB00023E432E011C027E432E00EC02BE432E030
:101AC0000BC020E532E008C025E532E005C029E57D
:101AD00032E002C02DE532E0ADB7BEB71C970FB6BD
:101AE000F894BEBF0FBEADBFEDB7FEB7319685E629
:101AF00092E012969C938E93119762831382548383
:101B000015824683178231872087D8019C911196D0
:101B10008C918F70928783870E94ED19EDB7FEB785
:101B20003A960FB6F894FEBF0FBEEDBF8CE792E079
:101B3000928381830E94ED19E80124960F900F9003
:101B4000045F1F4F81E8E82E82E0F82E14C000D019
:101B500000D0EDB7FEB73196ADB7BEB71296FC9286
:101B6000EE9211978991828313820E94ED190F9052
:101B70000F900F900F90C017D10749F700D089E858
:101B800092E0EDB7FEB7928381830E94ED190F902A
:101B90000F90DF91CF911F910F91FF90EF900895DB
:101BA000EF92FF920F931F938C01FB01E680F78069
:101BB00084E090E0E80EF91EC7010E94E20CF801F3
:101BC00082819381B70140E150E00E944D0597FF6B
:101BD0000BC000D08BE892E0EDB7FEB79283818313
:101BE0000E94ED190F900F901F910F91FF90EF90B1
:101BF0000895FC0164817581868197810E94D00DD2
:101C00000895CF93DF93EC01009719F420EA32E0B6
:101C100002C025EA32E000D000D08BEA92E0EDB7B6
:101C2000FEB792838183348323830E94ED190F9042
:101C30000F900F900F90CE01DF91CF910895CF9329
:101C4000DF93EC01009719F42FEF3FEF3AC085EBDB
:101C500092E061E070E0AE010E944D06009721F431
:101C60008091160A9091170A99838883892B21F411
:101C700000D082EC92E01BC085EB92E062E070E065
:101C8000AE010E944D069B838A83892B31F480919B
:101C9000120A9091130A9B838A838A819B81892BE4
:101CA00019F020E030E00DC000D086ED92E0EDB7F5
:101CB000FEB7928381830E94ED192FEF3FEF0F90C3
:101CC0000F90C901DF91CF9108952FE3673D72070F
:101CD00018F00E94C61B08950E94DC0208958F929E
:101CE0009F92AF92BF92CF92DF92EF92FF920F93AB
:101CF0001F93DF93CF93CDB7DEB7A2970FB6F894BB
:101D0000DEBF0FBECDBFDC0116960D911C9117975B
:101D1000F801C080D18054E0E52EF12CE00EF11ED8
:101D200084899589B701680F791F40E150E0481B0D
:101D3000590BC6010E941B059C0118161906CCF010
:101D4000009799F4C6010E94D70585EB92E061E007
:101D500070E0A8010E944D06009721F48091160AB8
:101D60009091170AD8018D939C93F801158A148AD3
:101D70003BC1D80154968D919C915597820F931F2A
:101D800055969C938E935497409708F42DC1559681
:101D90001C921E925497C7010E94E20CF8016681C2
:101DA000862F86958F70813009F01EC185818295BE
:101DB0008F7061706295607F682B70E043E0660F02
:101DC000771F4A95E1F76154704CFFE3673D7F0749
:101DD00068F4CE01019648E050E00E94DC02D80190
:101DE00017968C9190E086FDFFC010C08DEE9FEF9E
:101DF000AFEFBFEFF80180879187A287B387878114
:101E00008062878382819381B701EAC08F7190706D
:101E10009595879521E0A22EB12C02C0AA0CBB1C7F
:101E20008A95E2F7CC24DD24EE24FF2499E0892E64
:101E3000912C8C0E9D1E2CC06B817C816E0D7F1DA4
:101E4000C4014AE050E00E94DC02EB85FC8565910C
:101E5000749149855A85D80114962C91149715963A
:101E60008C91382F3F702417350758F0215030409F
:101E70002A0D3B1D41505040460F571F4217530734
:101E80006CF40894C11CD11CEAE0F0E0EE0EFF1ED9
:101E900089819A81C816D9067CF28EC0D80117961E
:101EA0008C91A82EBB24B0E8AB22BB2469897A8927
:101EB0006115710519F4EE24FF2420C0CE0143966C
:101EC000EFE3673D7E0740F0DC01FB0180E101901C
:101ED0000D928150E1F704C040E150E00E94650E90
:101EE000D80117968C9190E0FE01319680FD09C0D3
:101EF0008E719070E80FF91FE288F388CC24DD24FE
:101F000009C001978E719070E80FF91FC28CD38CB5
:101F1000EE24FF24EF81F8853496D801149680E1F1
:101F20000D9001928150E1F7EF81F88587818064FF
:101F30008783E114F104A1F0D80114966C911497F1
:101F400015968C91782F7F7089859A85681B790BFF
:101F50003896CE010996AF019501F701099517C092
:101F6000C114D10419F42FEF3FEF14C0F8016481BC
:101F70008581782F7F7089859A85681B790BA801E8
:101F8000485F5F4FCE0109969501F60109959C01C6
:101F900097FF0BC0EF81F88588279927821B930B49
:101FA000AA2797FDA095BA2F0DC0C801BE016F5F8B
:101FB0007F4F0E94D00D18C0EF81F88586E190E038
:101FC000A0E0B0E080879187A287B3878781806295
:101FD00087833496D80112968D919C911397BF01F7
:101FE00040E150E00E944D05A2960FB6F894DEBF86
:101FF0000FBECDBFCF91DF911F910F91FF90EF905A
:10200000DF90CF90BF90AF909F908F9008950F93E7
:102010001F93CF93DF93DB01EC016C817D81232B38
:1020200061F49B012A0F3B1FF90185919491EA010C
:102030009983888322E030E009C06A0F7B1FCA01C0
:1020400048E050E00E94650E28E030E0C901DF91D1
:10205000CF911F910F9108950F931F93CF93DF930B
:10206000DB018A01EC016C817D81232B91F49B01C2
:102070002A0F3B1FEFE3273D3E0720F0F901849133
:10208000EA018883F9018081E801888321E030E05A
:1020900009C06A0F7B1FCA0148E050E00E94650E2C
:1020A00028E030E0C901DF91CF911F910F91089591
:1020B000FC0186819781860F971FBA0148E050E0A6
:1020C0000E94C61B88E090E00895CF93DF93FA0149
:1020D000EC01AE81BF81232B49F4A60FB71F80818D
:1020E00091818D939C9322E030E00AC0CD01860F50
:1020F000971FBA0148E050E00E94C61B28E030E07C
:10210000C901DF91CF910895CF93DF93FA01EC01DC
:10211000AE81BF81232B39F4A60FB71F80818C932A
:1021200021E030E00AC0CD01860F971FBA0148E0D8
:1021300050E00E94C61B28E030E0C901DF91CF913A
:102140000895FC0124813581260F371FCA01B9018A
:1021500048E050E00E94C61B88E090E008959C0192
:10216000FB0168E070E00E94791E482FC90168E019
:1021700070E00E94791E6F5F7F4FDB01AA0FBB1FCB
:10218000A60FB71FEF2B61F092962C91929781E0EA
:1021900090E002C0880F991F4A95E2F7282B0CC0E7
:1021A00092962C91929781E090E002C0880F991F3F
:1021B0004A95E2F78095282392962C9308959C01E6
:1021C000FB0168E070E00E94791E482FC90168E0B9
:1021D00070E00E94791E6F5F7F4FDB01AA0FBB1F6B
:1021E000A60FB71FEF2B61F092962C91929781E08A
:1021F00090E002C0880F991F4A95E2F7282B0CC087
:1022000092962C91929781E090E002C0880F991FDE
:102210004A95E2F78095282392962C9308959C0185
:1022200068E070E00E94791E6F5F7F4FFB01EE0F48
:10223000FF1FE60FF71F40A1E0E0F0E0C90168E0F2
:1022400070E00E94791E21E030E002C0220F331FAF
:102250008A95E2F7422311F0E1E0F0E0CF01089522
:102260009C01FB0160E270E00E94791E660F771FFF
:10227000660F771FE60FF71FC90160E270E00E944A
:10228000791E21E030E040E050E004C0220F331F0F
:10229000441F551F8A95D2F780819181A281B38115
:1022A000822B932BA42BB52B80839183A283B383A2
:1022B00008952F923F924F925F926F927F928F92EA
:1022C0009F92AF92BF92CF92DF92EF92FF920F93C5
:1022D0001F93DF93CF93CDB7DEB728970FB6F8944F
:1022E000DEBF0FBECDBF5B015C834B83680183E023
:1022F000AA0CBB1C8A95E1F7232B29F048E050E09B
:102300005A83498302C01A830983222433248DC04F
:10231000C10168E070E00E94791E9B0158E0C5167B
:10232000D10449F1C10160E170E00E94791E4B01C6
:10233000880C991C8B819C81880E991EC10160E2DA
:1023400070E00E94791EDB01AA0FBB1FAA0FBB1F02
:10235000EB81FC81AE0FBF1FB887AF8325016624D8
:102360007724B1E0EB2EF12C012D112DE20FF31F9C
:10237000FE83ED8353C0EB81FC81E60FF71F4081A4
:10238000C50187709070892B69F6C50168E070E01F
:102390000E94791E6F5F7F4FFB01EE0FFF1FE60F5C
:1023A000F71F42A33EC0F0E1CF16D10491F040E206
:1023B000C416D104A1F058E0C516D10429F08AEE64
:1023C0009FEF9A83898337C0AD81BE818C9190E065
:1023D00003C0F40180819181A0E0B0E006C0EF81EC
:1023E000F88580819181A281B38160E070E08E21C7
:1023F0009F21A023B1230097A105B10511F061E051
:1024000070E0C2010E94AF100894611C711CEE0CB8
:10241000FF1C001F111F0894411C511C6C147D04EB
:1024200014F22C0C3D1CAC0CBD1C49815A812416A5
:1024300035060CF46DCF89819A8128960FB6F894F1
:10244000DEBF0FBECDBFCF91DF911F910F91FF90E7
:10245000EF90DF90CF90BF90AF909F908F907F9044
:102460006F905F904F903F902F9008950F931F9320
:1024700008E010E00E9459111F910F9108950F93E9
:102480001F9300E110E00E9459111F910F910895D0
:102490000F931F9300E210E00E9459111F910F91BA
:1024A00008958FEF9FEF08952F923F924F925F9282
:1024B0006F927F928F929F92AF92BF92CF92DF9254
:1024C000EF92FF920F931F93DF93CF9300D000D032
:1024D000CDB7DEB73B015A834983480163E0660C00
:1024E000771C6A95E1F7232B21F058E0252E312C3B
:1024F00001C01801442455249EC0C20168E070E068
:102500000E94791E6B0129813A81260F371F80E1D5
:1025100088169104F1F090E289169104F9F0A8E090
:102520008A16910421F5C30187709070892B11F0F0
:102530008AEE0DC0C30168E070E00E94791E6F5FF3
:102540007F4FFB01EE0FFF1FE60FF71F80A1F90180
:102550008083EAEDFFEFD901ED93FC938AED9FEFC5
:10256000AFEFBFEFF90180839183A283B38353015F
:102570001C821B82EE24FF2487011BC0C5010E9420
:102580000F11AA2797FDA095BA2F0B8004C0880FC2
:10259000991FAA1FBB1F0A94D2F7E82AF92A0A2B0F
:1025A0001B2B8B819C8101969C838B830894A11C9F
:1025B000B11CAB81BC81A815B90504F3B0E18B1641
:1025C0009104A1F0E0E28E169104F9F0F8E08F1684
:1025D000910429F03AEE232E3FEF332E30C089814B
:1025E0009A81C80ED91ED601EC9221C0C20160E1C9
:1025F00070E00E94791EFB01EE0FFF1F89819A8116
:10260000E80FF91FF182E08212C0C20160E270E0BF
:102610000E94791EFB01EE0FFF1FEE0FFF1FA98125
:10262000BA81EA0FFB1FE082F18202831383480C18
:10263000591C680C791C421453040CF45ECFC10180
:102640000F900F900F900F90CF91DF911F910F91EE
:10265000FF90EF90DF90CF90BF90AF909F908F90C2
:102660007F906F905F904F903F902F9008950F93C1
:102670001F9308E010E00E9454121F910F910895DB
:102680000F931F9300E110E00E9454121F910F91CD
:1026900008950F931F9300E210E00E9454121F91BF
:1026A0000F9108958FEF9FEF08952F923F924F92D1
:1026B0005F926F927F928F929F92AF92BF92CF92D2
:1026C000DF92EF92FF920F931F93DF93CF93CDB7DB
:1026D000DEB728970FB6F894DEBF0FBECDBF3C0122
:1026E0002B011A016901902E812E2115310521F04F
:1026F00078E2E72EF12C04C0802F912F9C01790104
:10270000C301B2015E010894A11CB11CA501960190
:10271000092D182D0E94541297FF03C02FEF3FEF91
:1027200021C0C70168E070E00E94791E9B01D501BD
:1027300040E050E009C0F101E40FF51F8C91908159
:10274000892B8D934F5F5F4F42175307A4F3C3014B
:10275000B201AE014F5F5F4F292D382D86010E94D7
:1027600059119C01C90128960FB6F894DEBF0FBE1F
:10277000CDBFCF91DF911F910F91FF90EF90DF9030
:10278000CF90BF90AF909F908F907F906F905F9011
:102790004F903F902F9008950F931F9308E010E003
:1027A0000E9459111F910F9108950F931F9300E1FB
:1027B00010E00E9455131F910F9108950F931F93DE
:1027C00000E210E00E9455131F910F9108958FEFC2
:1027D0009FEF08952F923F924F925F926F927F9258
:1027E0008F929F92AF92BF92CF92DF92EF92FF9221
:1027F0000F931F93DF93CF93CDB7DEB728970FB614
:10280000F894DEBF0FBECDBF3C012B011A01690158
:10281000902E812E2115310521F0E8E2EE2EF12CCB
:1028200004C0802F912F9C017901C301B2015E0188
:102830000894A11CB11CA5019601092D182D0E9418
:10284000541297FF03C02FEF3FEF21C0C70168E08C
:1028500070E00E94791E9B01D50140E050E009C064
:10286000F101E40FF51F8C919081892B8D934F5FBF
:102870005F4F42175307A4F3C301B201AE014F5F8C
:102880005F4F292D382D86010E9459119C01C901E5
:1028900028960FB6F894DEBF0FBECDBFCF91DF9163
:1028A0001F910F91FF90EF90DF90CF90BF90AF906E
:1028B0009F908F907F906F905F904F903F902F9060
:1028C00008950F931F9308E010E00E9459111F9183
:1028D0000F9108950F931F9300E110E00E94EA13F7
:1028E0001F910F9108950F931F9300E210E00E9433
:1028F000EA131F910F9108958FEF9FEF08952F9284
:102900003F924F925F926F927F929F92AF92BF924F
:10291000CF92DF92EF92FF920F931F93CF93DF93AB
:102920001B012A01232B21F0B8E0CB2ED12C06C0AD
:10293000C80168E070E00E94791E6B01EE24FF245C
:10294000A1E06A2E712C43C0F201EE0DFF1D8081C3
:10295000A82EBB24C50183709070039719F42AEE4A
:102960003FEF3AC08701020D131DC8010E940F11ED
:102970009C01C80168E070E00E94791E982EC80191
:1029800068E070E00E94791E6F5F7F4FEB01CC0F13
:10299000DD1FC60FD71FC801B9010E94AF10A1FEED
:1029A00009C029A1C30102C0880F991F9A94E2F7B8
:1029B000282B09C029A1C30102C0880F991F9A942E
:1029C000E2F78095282329A30894E11CF11CEC145C
:1029D000FD040CF4B9CF9601C901DF91CF911F918D
:1029E0000F91FF90EF90DF90CF90BF90AF909F90AE
:1029F0007F906F905F904F903F902F9008950F932E
:102A00001F9308E010E00E947F141F910F9108951A
:102A10000F931F9300E110E00E947F141F910F910C
:102A200008950F931F9300E210E00E947F141F91FE
:102A30000F9108958FEF9FEF08950F931F93232B0E
:102A400019F021E030E006C0C80168E070E00E94A3
:102A5000791E9B01C9011F910F9108950F931F9338
:102A600008E010E00E941D151F910F9108950F932B
:102A70001F9300E110E00E941D151F910F91089512
:102A80000F931F9300E210E00E941D151F910F91FC
:102A900008958FEF9FEF0895AF92BF92CF92DF928C
:102AA000EF92FF920F931F93CF93DF935B01232B42
:102AB00021F021E0C22ED12C03C094E0C92ED12CEC
:102AC0008A01EE24FF2442E0F801108297012A0DCA
:102AD0003B1DC90160E270E00E94791EEB01CC0F42
:102AE000DD1FCC0FDD1FFE01EA5EF74F8081918173
:102AF000A281B3812F713070022E04C0B695A795C4
:102B0000979587950A94D2F781709070892B11F070
:102B1000F8014083FE01E25EF74F80819181A2813E
:102B2000B381022E04C0B695A795979587950A9410
:102B3000D2F781709070892B21F0F801808181603B
:102B40008083CA5DD74F88819981AA81BB8104C0E7
:102B5000B695A795979587952A95D2F7817090702D
:102B6000892B21F0F8018081806880830894E11C22
:102B7000F11CEC14FD041CF40F5F1F4FA5CFC60120
:102B8000DF91CF911F910F91FF90EF90DF90CF9049
:102B9000BF90AF900895DC011496ED91FC911597CC
:102BA00080819181A281B38120910E0830910F081C
:102BB0004091100850911108822B932BA42BB52B18
:102BC00080930E0890930F08A0931008B0931108FB
:102BD000108211821282138284819581A681B7812D
:102BE0002091120830911308409114085091150853
:102BF000822B932BA42BB52B809312089093130850
:102C0000A0931408B09315081482158216821782B7
:102C100080910E0890910F08A0911008B0911108B2
:102C20000097A105B105B9F480911208909113089D
:102C3000A0911408B09115080097A105B10559F4A9
:102C400000D08DEF92E0EDB7FEB7928381830E94B2
:102C5000ED190F900F908FEB9FE38F5B9F4333E055
:102C6000959587953A95E1F7909307088093060824
:102C700081E090E090930908809308088FEF93E03B
:102C800066E078E047E050E00E94611D0895CF9231
:102C9000DF92EF92FF920F931F93DF93CF93CDB705
:102CA000DEB728970FB6F894DEBF0FBECDBF6A011E
:102CB000232B21F0E1E0EE2EF12C03C054E0E52EB1
:102CC000F12C8B01025F174FCE0101966EE078E088
:102CD00048E050E00E94C61B20E030E0F601E20F21
:102CE000F31FD8018C918083F80111928F012F5F1F
:102CF0003F4F2E153F0594F389819A81AB81BC81AA
:102D00000097A105B10549F48D819E81AF81B885F9
:102D10000097A105B10509F449C080910E08909172
:102D20000F08A0911008B09111080097A105B105F6
:102D3000E9F58091120890911308A0911408B091C0
:102D400015080097A105B10589F58FEB9FE38F5B0F
:102D50009F4343E0959587954A95E1F790930B083B
:102D600080930A0810920D0810920C088FEF93E0E0
:102D70006AE078E047E050E00E94611D892BB1F0E5
:102D800000D000D08EE093E0ADB7BEB712969C9312
:102D90008E9311978DE193E014969C938E931397E5
:102DA0000E94ED190F900F900F900F90C701289679
:102DB0000FB6F894DEBF0FBECDBFCF91DF911F914C
:102DC0000F91FF90EF90DF90CF900895CF92DF9218
:102DD000EF92FF920F931F93CF93DF938B01232BDF
:102DE00021F0A1E0CA2ED12C03C0F4E0CF2ED12CCB
:102DF000EA01EE24FF24888181FF05C0C80166E155
:102E000078E00E943011888180FF05C0C8016EE122
:102E100078E00E943011888187FF05C0C80166E212
:102E200078E00E9430116881C80170E00E94370884
:102E30009C0197FD0BC00894E11CF11C0F5F1F4F14
:102E4000EC14FD0414F42196D6CF9601C901DF914C
:102E5000CF911F910F91FF90EF90DF90CF90089549
:102E6000CF93DF93FB01EA01232B19F02FEF3FEF04
:102E700015C0CB0183709070892B19F02AEE3FEFBB
:102E80000DC0EC7FEC58FC4F80819181A281B38111
:102E900088839983AA83BB8324E030E0C901DF9152
:102EA000CF9108958EE190E060E070E00E94DF1025
:102EB0006E9A80E090E00895CF93DF93EC01009745
:102EC00011F0C1E0D0E000D000D000D0EDB7FEB7E7
:102ED000319689E393E0ADB7BEB712969C938E937B
:102EE00011978EE190E093838283C483D5830E94FF
:102EF000ED198DB79EB706960FB6F8949EBF0FBE1C
:102F00008DBF8EE190E0BE010E94DF10DF91CF9176
:102F10000895AF92BF92CF92DF92EF92FF920F93FC
:102F20001F93FA01232B09F092C06830710541F01C
:102F30006C30710509F452C06430710509F087C026
:102F4000A0907403B0907503C0907603D09077037F
:102F500080819181A281B3816430710569F42091EF
:102F600078033091790340917A0350917B03282BA9
:102F7000392B4A2B5B2B12C09C01AD01209530955B
:102F8000409550958091780390917903A0917A03B0
:102F9000B0917B03282339234A235B2320937803B2
:102FA0003093790340937A0350937B0379018A012C
:102FB000E094F0940095109580918403909185039E
:102FC000A0918603B0918703E822F9220A231B23EC
:102FD000EA14FB040C051D0531F53CC02091740377
:102FE000309175034091760350917703E080F18032
:102FF00002811381E094F09400951095E222F3226F
:10300000042315238091840390918503A091860366
:10301000B0918703E82AF92A0A2B1B2BE216F30644
:1030200004071507B9F080E090E0E114F104010510
:10303000110511F081E090E00E945C17E0927403AA
:10304000F0927503009376031093770303C02FEF7C
:103050003FEF02C024E030E0C9011F910F91FF90C3
:10306000EF90DF90CF90BF90AF900895EF92FF92D6
:103070000F931F93CF93DF93DC011496CD91DC91D6
:10308000159700D000D000D0EDB7FEB7319685E49B
:1030900093E0ADB7BEB712969C938E93119788E8D4
:1030A00093E093838283D583C4830E94ED19888142
:1030B0009981EDB7FEB736960FB6F894FEBF0FBEF6
:1030C000EDBF8032910508F008C1E0908403F090D4
:1030D0008503009186031091870361E070E002C0D0
:1030E000660F771F8A95E2F7CB01809590959C013A
:1030F000442737FD4095542F2E213F214023512353
:103100002093840330938503409386035093870371
:103110008A819B81892B89F0CB01AA2797FDA095F5
:10312000BA2F282B392B4A2B5B2B20938403309307
:103130008503409386035093870320918403309145
:1031400085034091860350918703E216F306040736
:103150001507A9F400D000D000D0EDB7FEB7319626
:1031600085E593E0ADB7BEB712969C938E93119709
:1031700088E893E0938382838AEB90E069C0E090D3
:103180007803F090790300917A0310917B03E09427
:10319000F09400951095E222F3220423152300D029
:1031A00000D000D08CE593E0ADB7BEB712969C93EB
:1031B0008E931197EDB7FEB72383348345835683EF
:1031C0000E94ED1988E693E0ADB7BEB712969C93C6
:1031D0008E9311978091780390917903A0917A034F
:1031E000B0917B0380959095A095B095EDB7FEB713
:1031F00083839483A583B6830E94ED192DB73EB7D0
:103200002A5F3F4F0FB6F8943EBF0FBE2DBF80918F
:10321000740390917503A0917603B0917703E8163B
:10322000F9060A071B0709F500D000D000D0EDB75A
:10323000FEB7319685E593E0ADB7BEB712969C9385
:103240008E93119788E893E09383828382EC90E0D9
:10325000958384830E94ED19EDB7FEB736960FB6BD
:10326000F894FEBF0FBEEDBF38C0E0927403F09239
:1032700075030093760310937703E114F1040105BD
:10328000110501F181E090E0088002C0880F991FCC
:103290000A94E2F7AA2797FDA095BA2F2091780308
:1032A0003091790340917A0350917B03822B932BC9
:1032B000A42BB52B8093780390937903A0937A0382
:1032C000B0937B0380E090E0E114F1040105110567
:1032D00011F081E090E00E945C17DF91CF911F9187
:1032E0000F91FF90EF90089500005353004B43530C
:1032F00049534F4D4F53494D00384F4900394F49BD
:1033000030314F4931314F490000434E0000434EA8
:103310000000434E0000434E0000434E0000434E69
:103320000000354433314F49004C4353004144536E
:10333000314458523144585400003444444C585499
:1033400032314F49000036440000434E0000434EE6
:10335000425748230000434E0000434E0000434EB6
:103360004B4853480000434E0000354100003441B3
:103370000000434E0000434E000033410000324144
:103380000000314100003041DF93CF93CDB7DEB76D
:103390009E01275F3F4F8D819E816F817885A901B6
:1033A0000E94FB19CF91DF910895EF92FF920F9346
:1033B0001F939C01AB010AE618E0C801B9010E9405
:1033C000FB19F82EE92EC8010E945C1C8F2D9E2D42
:1033D0001F910F91FF90EF900895DF93CF93CDB79A
:1033E000DEB7FE01359681919191BF010E94D519FA
:1033F000CF91DF9108952F923F924F925F926F92FB
:103400007F928F929F92AF92BF92CF92DF92EF9274
:10341000FF920F931F93DF93CF93CDB7DEB76497DF
:103420000FB6F894DEBF0FBECDBF9C8B8B8B1B01FC
:103430003A014C014DE214C1853259F46AE0C62EBE
:10344000D12C20E230E03A8B298B51E0452E512CD3
:1034500007C0D4018D9369C0E0E3F0E0FA8BE98BFB
:103460000894211C311CD1019C91993609F466C045
:103470009A36B0F4983531F1993568F49A3231F1D1
:103480009B3230F4992309F4F0C0953231F54BC0EA
:10349000903319F5E1CF933661F19436F1F44EC0D3
:1034A000903781F0913730F49E3609F4D6C09F36BC
:1034B000A1F43DC0953709F441C0983719F093370E
:1034C00061F421C030E1C32ED12C38C0F301C0809B
:1034D000D18022E030E0620E731E892F8153893043
:1034E00008F0BECF492E552480ED9FEF480E591E9F
:1034F000B7CFD3018C91F40181934F0122E030E0EA
:10350000620E731EAAC0D301ED91FC9104C0D401D8
:103510008D934D01319680818823C9F7E2E0F0E078
:103520006E0E7F1E9AC0D4019D934D0196C0BAE0E5
:10353000CB16D10419F428E0C22ED12CF301E0807F
:10354000F180F7FE0CC0FAE0CF16D10441F4F094FC
:10355000E194F108F39491E0A92EB12C02C0AA24C1
:10356000BB2400E110E017C00150104021E030E022
:103570002C0F3D1F200F311FC701B6010E94651E91
:10358000FC01E156FC4F8081D9018C93C701B60143
:103590000E94651E7B01E114F10421F00115110563
:1035A00019F707C00031110521F4B0E3B88B0FE023
:1035B00010E0A114B10499F0E989FA89B09721F0DB
:1035C00081E0A82EB12C0BC001501040E1E0F0E0EA
:1035D000EC0FFD1FE00FF11F4083AA24BB24015014
:1035E0001040E1E0F0E0EC0FFD1FE00FF11F0F5F76
:1035F0001F4F80E190E0841995098A0D9B1D05C03D
:103600000150104029892083319780179107C4F316
:10361000AB2849F001501040E1E0F0E0EC0FFD1F55
:10362000E00FF11F4083A1E0B0E0AC0FBD1FA00F81
:10363000B11FF401980104C08D9181932F5F3F4F1A
:1036400020313105CCF382E090E0680E791E80E1F4
:1036500090E0801B910B880E991E0894211C311C50
:10366000D1018C91882309F0E7CEF40110829401F6
:103670008B899C89281B390BC90164960FB6F89475
:10368000DEBF0FBECDBFCF91DF911F910F91FF9095
:10369000EF90DF90CF90BF90AF909F908F907F90F2
:1036A0006F905F904F903F902F90089582E189BD79
:1036B00009B400FEFDCF089584E085BD8AEF87BD83
:1036C00081E080936E00089580EA8093D800089589
:1036D00080E98093D800089581E88093D700089509
:1036E000AC01DB01FC018D9181938823E1F7CA01D4
:1036F00008959C01FC0101C0319680818823E1F787
:10370000CF01821B930B0895AC019B01FA0101C00C
:1037100031962115310529F02150304080818823D0
:10372000B9F79F01241B350BC9010895DC01FB018A
:103730008D919191891741F0891718F021E030E0BF
:1037400007C02FEF3FEF04C0882391F720E030E05F
:10375000C9010895DC01FB0112C08C919081891789
:1037600041F0891718F021E030E00EC02FEF3FEF55
:103770000BC0882339F011963196415050404115C5
:10378000510559F720E030E0C9010895EF92FF920A
:103790000F931F93CF93DF938C01EB017C01CE013C
:1037A000802B912B80FD1FC0BA0120E030E00EC0BD
:1037B000F801E20FF31FDE01A20FB31F8D919C9160
:1037C00091838083625070402E5F3F4F623071055D
:1037D00078F7CA018E7FBE01680F791F7801E80E65
:1037E000F91E481B590B20E030E00AC0F701E20F38
:1037F000F31FDB01A20FB31F8C9180832F5F3F4F1C
:10380000415050408FEF4F3F580781F7C801DF917B
:10381000CF911F910F91FF90EF900895CF93DF9379
:10382000EC01FA019C0180FD20C0CB01AA2797FD85
:10383000A095BA2F9070A070B0702227382F492F12
:103840005A2F282B392B4A2B5B2BCF01DE0103C0CB
:103850002D933D93029782309105D0F7CF018E7F53
:103860009E01280F391FE81BF90BD90101C06D9388
:1038700031978FEFEF3FF807D1F7CE01DF91CF916E
:103880000895DF93CF9300D0CDB7DEB79A838983B5
:103890000E94F7098091120A9091130A009739F05B
:1038A000BE016F5F7F4F41E050E00E944D050F90D9
:1038B0000F90CF91DF910895CF93DF93EC0104C077
:1038C000219690E00E94411C88818823C9F780E0FE
:1038D00090E0DF91CF9108950F931F93CF93DF93E3
:1038E000CEE0D1E000EB13E020C0E881F98109953A
:1038F0000097D1F000D000D000D0EDB7FEB73196E0
:10390000ADB7BEB712961C930E931197D383C283A3
:10391000958384830E94ED198DB79EB706960FB6E6
:10392000F8949EBF0FBE8DBF229691E0C831D90793
:10393000E0F2CEE0D1E000EB13E020C0E881F981B5
:1039400009950097D1F000D000D000D0EDB7FEB7B8
:103950003196ADB7BEB712961C930E931197D383D1
:10396000C283958384830E94ED198DB79EB7069616
:103970000FB6F8949EBF0FBE8DBF229691E0CE3059
:10398000D907E0F280E090E0DF91CF911F910F9195
:103990000895CF93DF932FB7F89480910E099091FB
:1039A0000F0939E08E30930721F42FBFC0E0D0E03B
:1039B0000FC0EC012297AC81BD81EA81FB81B3830A
:1039C000A283ED93FC939B838A839D838C832FBF7B
:1039D000CE01DF91CF9108950F931F93CF93DF9383
:1039E0008EE099E090930F0980930E09909311094E
:1039F00080931009A4E1B9E020E030E0582F492F6E
:103A0000C90163E0880F991F6A95E1F78C5E964FB4
:103A1000E0911009F0911109909311098093100918
:103A20005C9311964C9311971396FC93EE93129717
:103A3000918380832F5F3F4F18962032310501F725
:103A4000EEECF8E0AEEEB8E0E083F183E283F383DE
:103A5000AC930B2E11960C9211970A2E12960C9283
:103A600012970B2E13960C9213973496149688E0A7
:103A7000EE3EF80749F70FEC13E018C0F801C081DB
:103A8000D1810CC019830883EA81FB810190F08108
:103A9000E02D309711F0CE0109952896F80182812A
:103AA0009381C817D90771F70C5F1F4FF4E00330FB
:103AB0001F0720F380E090E0DF91CF911F910F91DD
:103AC00008950F931F93CF93DF938C019A01483091
:103AD000510518F02AEE3FEF3DC08FB7F8944091A2
:103AE0000E0950910F0999E04E30590711F48FBF1C
:103AF00011C0EA012297AC81BD81EA81FB81B383C9
:103B0000A283ED93FC935B834A835D834C838FBFD9
:103B1000209719F424EF3FEF1DC07F836E83198334
:103B200008838FB7F894220F331F220F331FE091C1
:103B3000CA03F091CB03E20FF31FA281B381538339
:103B40004283FB83EA83BD83AC834D935C938FBF39
:103B500020E030E0C901DF91CF911F910F910895CE
:103B60004F925F926F927F928F929F92AF92BF928D
:103B7000CF92DF92EF92FF920F931F93CF93DF9339
:103B80001EE0412E19E0512E4FB7F8942091CA0340
:103B90003091CB038091CC039091CD039093CB03D4
:103BA0008093CA033093CD032093CC034FBFB8E07A
:103BB0006B2E712CACE1CA2ED12CE091CC03F0918C
:103BC000CD03EC0DFD1D0081118102501040D80184
:103BD0001296ED90FC901397CEEFDFEFEC0EFD1EEA
:103BE00045C0F80180809180D401CD91DC910FC057
:103BF000F801868197819D838C83EA81FB81028015
:103C0000F381E02D309711F0CE0109952896D4016B
:103C100012968D919C911397C817D90749F708946C
:103C2000610871088FB7F894E801AC81BD81EA8121
:103C3000FB81B383A283ED93FC93E0910E09F09195
:103C40000F09B382A282FB83EA835D824C82B09229
:103C50000F09A0920E098FBFF7018281938187011E
:103C6000FEEFEF2EFFEFFF2EE80EF91EE2E0AE2E84
:103C7000B12CA00EB11E8091CC039091CD038C0D80
:103C80009D1DA816B90609F0ACCF8CEF9FEFC80EAA
:103C9000D91E9CEFC9169FEFD90609F08ECFA8E078
:103CA0006A16710409F070CFDF91CF911F910F91C7
:103CB000FF90EF90DF90CF90BF90AF909F908F904C
:103CC0007F906F905F904F900895AA1BBB1B51E1AE
:103CD00007C0AA1FBB1FA617B70710F0A61BB70B7C
:103CE000881F991F5A95A9F780959095BC01CD0121
:103CF000089597FB092E07260AD077FD04D0E5DF4B
:103D000006D000201AF4709561957F4F0895F6F75C
:103D1000909581959F4F0895AC0BA90BA60BA30B13
:103D2000A00B9D0B9A0B970B940B910B8E0B8B0B8F
:103D3000880B850B820B7F0B7C0B790B760B730B3F
:103D4000700B6D0B6A0B670B640B610B5E0B5B0BEF
:103D5000580B550B520B4F0B4C0B490B460B430B9F
:103D6000400B3D0B3A0B370B340B310B2E0B2B0B4F
:103D7000280B250B220B1F0B1C0B190B160B130BFF
:103D8000100B0D0B0A0B070B040B010BFE0AFB0AB1
:103D9000F80AF50AF20AEF0AEC0A00010000CE3D2B
:103DA0001200020000E03D4300030000233E040136
:103DB000030904273E16020309043F3E08030309D2
:103DC00004493E0C0001C112018036018136120106
:103DD000000202000010C0167A0400010102030173
:103DE00009024300020100C032090400000102027E
:103DF000010005240010010524010101042402062C
:103E00000524060001070582031000400904010093
:103E1000020A0000000705030240000007058402B3
:103E200040000004030904160344006F00670020EB
:103E300000480075006E0074006500720000000804
:103E400003590055004E0000000C033000300030D4
:103E5000003000300000002C100710950CA11084D9
:103E6000106510BD0C58102C100710950CA11000F7
:103E700000000000000000371340134913521336AE
:103E8000123F12481251120000000000000000CC46
:103E900013D513DE13E713000000000000000061DB
:103EA000146A1473147C142E15371540154915FF28
:103EB00014081511151A15000000004C150000001B
:103EC000000000E616000000000000471600000099
:103ED000000000000000000000453F473F00006771
:103EE0003E08004F3F513F0000673E1000593FE839
:103EF000320000673E10015B3F68050000673E101E
:103F0000035D3F90050000673E10055F3F00000025
:103F100000A73E1007613F00000000B73E10096394
:103F20003F00000000773E1809633F000000008753
:103F30003E2009633F00000000973E2809653F0EC0
:103F4000080000C73E08003412785602000000083E
:103F5000005445535428000000A000280028000009
:103F6000020002080008002C1007103017A11000F2
:103F7000000000891700000000953F973F00006790
:103F80003E08009F3F74037403673F1800A13FA3DE
:103F90003F0000673E08001111AAAA0B00000010A4
:103FA00000080013000000000000000000B53FB74B
:103FB0003F0000673E0800010001000C0000000BFC
:103FC00000D73E00002E080300773F0000420801A2
:073FD00000AB3F00005608A2
:103FD7000000000000000000000000000000A9032E
:103FE700B8042D0AEA0B760C48656C6C6F2C2042DE
:103FF7006174686F7320697320737065616B696E94
:104007006720286275696C74206F6E202573290AF2
:10401700004D617920203920323031340025730A70
:104027000073797374656D5F74696D65725F696E2E
:104037006974000000FD0300005461736B3A20258A
:10404700730A000000750400000000AB0500006D56
:104057006970732D636F6E736F6C65006D6375693F
:104067006F000D0A25733A20737769746368656476
:1040770020746F206D6F64652025730D0A006176CB
:10408700722D7561727400756172742D6D75782D5E
:1040970079756E002008EB06F2061908000000008B
:1040A700F906000000008008000064656275672D4E
:1040B700636F6E736F6C650000000000050A0000F7
:1040C70000007573622D756172740000000000E1D5
:1040D70000000000080000500A530AC40BE40B005C
:1040E700006176722D7561727400FE0B1B0C010C5A
:1040F700150C00007573622D75617274003C2D00FC
:104107002D3E002563257325630A007772620072CE
:104117006462007264770077727700726464770074
:1041270077726477007264710077727100756E6BD5
:104137006E6F776E000925753A25752E2575202532
:1041470073206F203078253034780A0009643A20CC
:104157000030782530327820000A006D6375696F6A
:104167003A206F7574707574206572726F720A00E9
:104177006465616400616C697665006D6375696F7C
:104187002025730A00756172742D6D75782D797508
:104197006E006D6375696F3A20696E20706970658E
:1041A700206572720A006D6375696F3A206F7574C6
:1041B7002070697065206572720A006D6375696F9A
:1041C7000000006F0E00000000F90D00004E554C76
:1041D7004C206770696F206576656E740A002573D9
:1041E7003A20657674206572726F720A005F5F67A6
:1041F70070696F5F657674735F7374617475735FED
:104207007264000000CB1500006770696F25642D8C
:104217003E25640A0025732C206964617461203D82
:104227002025700A0025732025640A0072203D208E
:104237003078253038780A006D203D2030782530D9
:1042470038780A0000000000FFFFFFFF00000000B1
:1042570000000000000000006D6375696F5F697200
:10426700715F68616E646C65005217361800003024
:104277003132333435363738396162636465660005
:10428700696E697463616C6C2061742025703A20D3
:104297006572726F722025690A00EE08CE08003B2E
:1042A700044B0433043B044B044B044B044B045BA7
:1042B700045B045B045B044B0453044B044B045B37
:1042C70004630463046B0473047B0453045B046B8F
:1042D700047304000000000000000000000000005C
:1042E70000000000000000000000000000000000C7
:1042F70000000000000000000000000000000000B7
:1043070000000000007301000000000000630100CE
:104317000000000000D401000000000000CE0100F2
:104327000088070000F7020000F00700007901008D
:104337000000000000F1020000F0070000990300F0
:104347000000000000330300000000000000000030
:10435700B701C401000000000000DA01E801000015
:1043670000000000F2010702000000000000110237
:104377001A02000000000000EB02010E1F0EF007FA
:08438700983A00000300000059
:040000030000006693
:00000001FF
