:1000000032C00000000000000000000000000000FE
:1000100000000000000000000000000000000000E0
:1000200000000000000000003DC000007DC0000096
:1000300000000000000000000000000000000000C0
:1000400000000000000000000000000000000000B0
:10005000000000000000000000000000A8C2000036
:1000600000002AC2CDC111241FBECFEFDAE0CDBF00
:10007000DEBFEFE0FCE60DE6A0E0B1E0E738F00718
:100080001CF425902D92FACFA0E8B2E009E0A0364A
:10009000B00714F41D92FBCF0E94711578940E9452
:1000A000F407E1CF1F920F920FB60F9211248F9396
:1000B0009F938091E1001092E10083FF13C01092A2
:1000C000E90091E09093EB001092EC0092E19093A4
:1000D000ED0098E09093F0001092180210921A022E
:1000E0001092190282FF19C080911802882379F0BA
:1000F00080912202882359F081508093220281113D
:1001000006C084E08093E9008AE38093E80083E0FE
:100110008093E90084E08093F0009F918F910F908D
:100120000FBE0F901F9018951F920F920FB60F924F
:100130001124EF92FF920F931F932F933F934F93AE
:100140005F936F937F938F939F93AF93BF93EF933F
:10015000FF93CF93DF931F92CDB7DEB78091F4006A
:1001600083FF14C083E08093E9008091E80082FF60
:1001700008C047E050E068E376E08AE492E00E943D
:1001800003068091E800887F8093E8001092E900E0
:100190008091E80083FF19C19091F1008091F100F6
:1001A0003091F1002091F100E32EF12CF22A009120
:1001B000F1002091F10010E0122B2091F1006091EC
:1001C000F10032EF3093E800863009F046C036E0A7
:1001D00084EE92E6FC01459154914E155F0539F489
:1001E000FC013296459154914017510721F0079632
:1001F000315081F7EAC0FC01349645915491FC01DD
:100200003696849130E0362B2F3F310519F010F0EF
:100210002FEF30E0281708F4822F3EEF9091E8008E
:10022000292F2570D9F392FDD3C0982F813108F082
:1002300090E1FA01292F222331F064916093F100BB
:1002400021503196F8CF490F511D891B3093E8009A
:100250008111E4CF903111F3BBC0853051F48EEFA2
:100260008093E8000E94E00A8E2D80688093E3006E
:10027000AFC0893071F5911185C0E09218021092DB
:100280001A0210921902109222028EEF8093E80057
:1002900041E087E993E64093E9009C012F5F3F4FDF
:1002A000FC0154915093EB00552361F0F901249126
:1002B0002093EC009C012D5F3F4FFC01329684910E
:1002C0008093ED004F5F453011F0C901E4CF8EE11E
:1002D00077C0883051F4903809F054C00E94E00A89
:1002E000809118028093F10049C0813279F4913AEB
:1002F00009F048C00E94E00AEBE1F2E081918093AE
:10030000F10082E0E232F807C9F738C0803299F490
:100310009132C1F58091E80082FFFCCFEBE1F2E081
:100320008091F100819382E0E232F807C9F78BEF08
:100330008093E80023C0823251F4913209F045C025
:10034000F0921A02E09219020E94E00A17C081118D
:1003500019C099830E94E00A9981923851F4009360
:10036000E9008091EB0085FB882780F91092E90075
:1003700001C080E08093F1001092F1008EEF809335
:10038000E80026C0282F2D7F2130F9F49230E9F4BF
:10039000EF28D9F40F779FEF900F9430B0F49EEFD1
:1003A0009093E8000093E900833079F089E180932D
:1003B000EB0081E090E0002E01C0880F0A94EAF77C
:1003C0008093EA001092EA0003C081E28093EB0080
:1003D0000F90DF91CF91FF91EF91BF91AF919F91DE
:1003E0008F917F916F915F914F913F912F911F91CD
:1003F0000F91FF90EF900F900FBE0F901F901895E8
:100400001F920F920FB60F9211242F933F934F9389
:100410005F936F937F938F939F93AF93BF93EF936C
:10042000FF932091AA023091AB026091AC027091CF
:10043000AD02A901461B570B4F715527C901809585
:100440009095860F971F8F719927892B31F481E042
:1004500090E09093CF028093CE026091CE00809185
:10046000CE029091CF02892B61F4F901E855FD4F3E
:1004700066832F5F3F4F2F7133273093AB0220935A
:10048000AA02452B41F447E050E068E376E084E5BA
:1004900092E00E940306FF91EF91BF91AF919F916F
:1004A0008F917F916F915F914F913F912F910F901D
:1004B0000FBE0F901F9018951F920F920FB60F92BC
:1004C00011242F933F934F935F936F937F938F9359
:1004D0009F93AF93BF93EF93FF93AEB5A530F1F425
:1004E00020911E0530911F0580911C0590911D05DE
:1004F000821B930B8F709927892B71F0F901EE5FA6
:10050000FA4F868D8EBDC90101968F709927909301
:100510001F0580931E053AC01EBC38C020910405FB
:10052000309105056091060570910705A901461BEC
:10053000570B4F705527C90180959095860F971FCF
:100540008F709927892B31F481E090E09093190501
:10055000809318058091180590911905892B61F4F5
:10056000F901EE5FFA4FA6832F5F3F4F2F703327BD
:100570003093050520930405452B41F447E050E0F6
:1005800068E376E08EE592E00E940306FF91EF912A
:10059000BF91AF919F918F917F916F915F914F919B
:1005A0003F912F910F900FBE0F901F9018951F92A3
:1005B0000F920FB60F9211242F933F934F935F9397
:1005C0006F937F938F939F93AF93BF93EF93FF931B
:1005D0008091320990913309A0913409B091350985
:1005E0000196A11DB11D8093320990933309A09308
:1005F0003409B093350947E050E060E070E088E2EC
:1006000096E00E945B2AFF91EF91BF91AF919F917D
:100610008F917F916F915F914F913F912F910F90AB
:100620000FBE0F901F901895C806D806C006C806C2
:10063000E806F006D806D806D806E006E806E8067A
:10064000E806E806D806D806D806D806F006F80662
:1006500000070807E006E806F80600070807100785
:100660001807200720072807100718078B014C0ED2
:10067000430EAE011C151315E101C82E5D2EE601D7
:10068000422E392EEE011C2E132EF601F32F0A2EC8
:10069000000000000000000000000000000000005A
:1006A000000000000000000000000000000000004A
:1006B000000000000000000000000000000000003A
:1006C00000004F62000000000000496200000000CE
:1006D0000000D462000000000000C46200000000BE
:1006E0000000A4650000E202000055620000000066
:1006F0000000AA650000E20200006267000000003E
:100700000000D065000000000000546800000000F8
:100710000000DB6B0000F0040000E16B0000F0045F
:100720000000BE620000000000000000070707078D
:100730000000000000000707070700000700070788
:10074000000000000000000007070000070707077F
:100750000000000000000000000000000000000099
:100760000000000000000000000000000000000089
:10077000000000000000000047E050E060E070E092
:1007800088E296E00C945B2A83B7817F83BF83B7AE
:10079000816083BF889583B78E7F83BF089589E387
:1007A00091E09F938F9380E192E69F938F930E94B5
:1007B0009E260F900F900F900F900E94912A0E94FA
:1007C000C403FBCF80E091E09F938F9385E492E692
:1007D0009F938F930E949E26E0E8F2E0F183E083EE
:1007E000F0938302E09382020F900F900F900F908E
:1007F00080E090E008958F929F92AF92BF92CF9247
:10080000DF92EF92FF920F931F93CF93DF93C091EC
:100810008002D09181022697CE80DF8026E0C21A26
:10082000D10800E011E0E12C82E0F82E32E0CA3776
:10083000D30709F44CC08091320990913309A091FB
:100840003409B091350928813981821B930B97FDBA
:100850003EC06C817D8147E050E08CE296E00E94D2
:100860005B2AEE81FF8132E0E038F307C1F040916E
:100870003209509133096091340970913509DF01D3
:1008800016978D909D90AD90BC901397480D591D73
:100890006A1D7B1D4D935D936D937C931397A88583
:1008A000B985B383A283ED93FC931F830E83F986EE
:1008B000E8866AE070E0CE010E94D12CF6018681C4
:1008C0009781E6019C01265031096901AFCFDF9184
:1008D000CF911F910F91FF90EF90DF90CF90BF903D
:1008E000AF909F908F900895CF92DF92EF92FF92FA
:1008F0000F931F93CF93DF936B017C01EA018AE092
:1009000090E00E94A42DFC01009709F469C00091B9
:1009100032091091330920913409309135090C0DB9
:100920001D1D2E1D3F1D0083118322833383D5831C
:10093000C483FFB6F894A0918002B091810222E0B6
:10094000A038B207D1F40696909383028093820276
:10095000B783A683B187A08790938102809380029A
:100960003BC0041B150B260B370B0083118322831E
:10097000338316960D90BC91A02D1697CD01069647
:1009800022E080389207B9F0008111812281338101
:100990004D915D916D917C911397E801C41BD50B2E
:1009A000D7FFDFCF401B510B620B730B4D935D9351
:1009B0006D937C9313979F012A5F3F4F1896CD91BB
:1009C000DC91199719963C932E93189797838683F9
:1009D000D187C08739832883FFBE80E090E002C0C2
:1009E00084EF9FEFDF91CF911F910F91FF90EF90D8
:1009F000DF90CF9008958F929F92AF92BF92CF9247
:100A0000DF92EF92FF92CF93DF93C0903209D090A4
:100A10003309E0903409F0903509C8E6D2E082E06D
:100A2000C837D80748F4EC81FD81309719F08E81E2
:100A30009F8109956096F3CFC8E6D2E04601570141
:100A400084E6880E911CA11CB11C82E0C837D8072F
:100A5000C8F48C859D85AE85BF85880D991DAA1D1E
:100A6000BB1D8C879D87AE87BF87BC01CD016C19EC
:100A70007D098E099F09AE010E94740497FD05C08F
:100A80006096E3CF80E090E002C08FEF9FEFDF91B0
:100A9000CF91FF90EF90DF90CF90BF90AF909F905D
:100AA0008F9008950F931F93CF93DF93FC01C48120
:100AB000D581EA81FB818E819F8109959F838E83F9
:100AC00088859985AA85BB850C851D852E853F85E2
:100AD000800F911FA21FB31F8C879D87AE87BF8792
:100AE0000091320910913309209134093091350970
:100AF000A801481B590B57FD09C0D901C80101962F
:100B0000A11DB11D8C879D87AE87BF876C857D85B4
:100B10008E859F85601B710B820B930BAE01DF915D
:100B2000CF911F910F910C9474040F931F93CF9347
:100B3000DF93CDB7DEB72A970FB6F894DEBF0FBEAE
:100B4000CDBFDC0114960D911C911597C801089634
:100B5000F801A085B1852285338513963C932E93A9
:100B60001297F901B183A083D80119969C938E93B3
:100B700018971B969C938E931A971696ED91FC915D
:100B80001797CF010696268137812817390771F408
:100B9000628173814AE050E0CE0101960E944630A6
:100BA000EF81F885309711F0C8010995F801178297
:100BB00016822A960FB6F894DEBF0FBECDBFDF9126
:100BC000CF911F910F9108950F931F93CF93DF93B0
:100BD0008C01C0E4D2E0F2E0C836DF0758F4688147
:100BE0007981F801808191810E942228892B29F046
:100BF0002A96F1CF80E090E001C0CE01DF91CF9145
:100C00001F910F910895CF92DF92EF92FF920F9371
:100C10001F93CF93DF937B016A01FC01C681D781CB
:100C2000209799F028978C010A5F1F4FCE010896F4
:100C30008017910751F0A601BE01C7010E945B2AEF
:100C40000884D985C02D2897F1CFDF91CF911F91CE
:100C50000F91FF90EF90DF90CF900895AF92BF92E9
:100C6000CF92DF92EF92FF920F931F93CF93DF9378
:100C7000CDB7DEB72A970FB6F894DEBF0FBECDBF53
:100C80007C016B015A016115710519F486E190E050
:100C900024C08CE090E00E94A42D8C01009739F4D0
:100CA00087E190E09093EF048093EE0469C0DC014B
:100CB0001196FC92EE921596BC92AE9214971396F2
:100CC000DC92CE9212970E94E4057C01009761F4B9
:100CD000F8011782168286E090E09093EF048093EB
:100CE000EE0400E010E04CC0D80117969C938E9360
:100CF0001697FC0186819781892B31F4C7010696EE
:100D00009783868391878087D70112966D917C9116
:100D100013974AE050E0CE0101960E944630E981E7
:100D2000FA81309741F0C8010995009721F0F80148
:100D300017821682D2CFD7011696ED91FC911797A4
:100D4000C801089693838283D8011996FC93EE9389
:100D5000189797012A5F3F4F1B963C932E931A9743
:100D6000F70197838683CA94CD2819F488E496E026
:100D700002C084E496E047E050E0B8010E945B2A9C
:100D8000C8012A960FB6F894DEBF0FBECDBFDF9123
:100D9000CF911F910F91FF90EF90DF90CF90BF9078
:100DA000AF900895CF93DF93EC018E819F81892BC3
:100DB00049F489E090E09093EF048093EE048FEF84
:100DC0009FEF17C08A819B81019719F480E496E018
:100DD00002C08CE396E047E050E0BE010E945B2A2F
:100DE00046E050E0BE0180E396E00E945B2A80E08E
:100DF00090E0DF91CF910895CF92DF92EF92FF9232
:100E00000F931F93CF93DF93CDB7DEB72A970FB61B
:100E1000F894DEBF0FBECDBF8C017B016A01DC01FF
:100E20001696ED91FC911797309719F489E090E0B0
:100E300012C0628173814AE050E0CE0101960E94A7
:100E40004630F801828180FF04C0EB81FC8130973D
:100E500049F481E090E09093EF048093EE048FEFEB
:100E60009FEF11C0A601B701C801099597FF05C002
:100E700022273327281B390B02C020E030E03093B3
:100E8000EF042093EE042A960FB6F894DEBF0FBE4F
:100E9000CDBFDF91CF911F910F91FF90EF90DF9029
:100EA000CF900895CF92DF92EF92FF920F931F930E
:100EB000CF93DF93CDB7DEB72A970FB6F894DEBF96
:100EC0000FBECDBF8C017B016A01DC011696ED914E
:100ED000FC911797309719F489E090E012C0628175
:100EE00073814AE050E0CE0101960E944630F8013D
:100EF000828181FF04C0ED81FE81309749F481E059
:100F000090E09093EF048093EE048FEF9FEF11C079
:100F1000A601B701C801099597FF05C0222733270D
:100F2000281B390B02C020E030E03093EF042093FF
:100F3000EE042A960FB6F894DEBF0FBECDBFDF9148
:100F4000CF911F910F91FF90EF90DF90CF90089578
:100F5000EF92FF920F931F93CF93DF93CDB7DEB73E
:100F60002A970FB6F894DEBF0FBECDBF8C017B0170
:100F7000DC011696ED91FC911797309719F489E0F2
:100F800090E00EC0628173814AE050E0CE0101968C
:100F90000E944630E985FA85309749F481E090E077
:100FA0009093EF048093EE048FEF9FEF10C0B70192
:100FB000C801099597FF05C022273327281B390B45
:100FC00002C020E030E03093EF042093EE042A9634
:100FD0000FB6F894DEBF0FBECDBFDF91CF911F914A
:100FE0000F91FF90EF900895CF93DF930E9498297F
:100FF000C9ECD0E02197209729F088EE93E00E9479
:10100000D329F8CFDF91CF910C94CF038091860242
:10101000909187020C94D20680918602909187026B
:101020000C94520780918602909187020C94FC06E2
:1010300040E050E063E070E081E491E00E942E0621
:101040009093870280938602892B19F48DEE9FEF8F
:1010500008951092840282E08093850240E050E07F
:1010600063E070E08AE491E00E942E06909389028A
:1010700080938802892B51F380E090E0089580915D
:101080008502813071F480918A02882311F080E01A
:1010900001C082E08093850281111CC08DE591E042
:1010A0001BC047E050E060E070E080E696E00E9400
:1010B0005B2A97FF09C08FE992E69F938F930E9466
:1010C0009E260F900F90089581E08093850287E51A
:1010D00091E002C082E591E09F938F938DE792E6C5
:1010E0009F938F930E949E260F900F900F900F90CA
:1010F00008950C943F08EF92FF920F931F93CF93A4
:10110000DF93CDB7DEB764970FB6F894DEBF0FBE9E
:10111000CDBFDC011496ED90FC901597809188026C
:1011200090918902E816F906D1F481E080938A0251
:1011300080918502813011F01092850244E150E0E7
:10114000BE016F5F7F4FC7010E94FC06181619068B
:101150000CF0C3C0AC01BE016F5F7F4FAFC0D701C1
:101160001696ED91FC911797CF010696268137814F
:101170002817390709F4B1C080918602909187023F
:10118000E816F90641F08091300990913109E8168E
:10119000F90609F0A2C080918402882339F0809179
:1011A000300990913109E816F90689F48091850299
:1011B000813069F044E150E0BE016F5F7F4FC701AD
:1011C0000E94FC068C01181619061CF086C000E06F
:1011D00010E08091300990913109E816F906D1F5B7
:1011E0008091860290918702FE0131967F019F01D6
:1011F0002E193F09201731073CF4009729F021915F
:101200002D31A9F70E943F0880918502813039F481
:1012100047E050E060E070E088E696E05CC0811155
:101220000AC08091880290918902009721F0A8015C
:10123000B7010E94520780918402813009F44DC0A9
:101240008091860290918702009709F446C0A80118
:10125000B70138C080918402811137C0FE013196F8
:101260007F01CF018E199F09801791070CF581919D
:101270008A3AB9F781E08093840281E691E09F93F6
:101280008F93E0918602F09187020680F781E02D2E
:1012900081818F9380818F938BE592E69F938F93CB
:1012A0000E949E260F900F900F900F900F900F901E
:1012B00080918402813089F0A801B7018091EC040B
:1012C0009091ED040E94520708C047E050E060E0B2
:1012D00070E08CE496E00E945B2A64960FB6F89466
:1012E000DEBF0FBECDBFDF91CF911F910F91FF9059
:1012F000EF9008952F923F924F925F926F927F925C
:101300008F929F92AF92BF92CF92DF92EF92FF9215
:101310000F931F93CF93DF93CDB7DEB728970FB608
:10132000F894DEBF0FBECDBF03EA12E018870F832B
:10133000F3E22F2E312C60E070E0A12CB12C40E0C4
:1013400050E081E090E0A0E0B0E09A012F5F3F4FD5
:10135000F101D080F0908B020F2D10E0042E02C01E
:10136000159507950A94E2F700FD0CC001E010E026
:1013700002C0000F111F4A95E2F7A8014F294093C0
:101380008B0296C0EF81F885E080ED24FF24F39472
:1013900040E050E089010D561D4F1A830983F90181
:1013A000E356FD4FFC83EB83890108561D4F1E83D6
:1013B0000D83E981FA8110811F2109F472C01F2D6C
:1013C0001E2109F46EC0EB81FC8110811F2191F177
:1013D000EF81F88510811F2169F5CFB6F8948A0155
:1013E000060F171FF801689414F8F595E795169401
:1013F000E1F7EE0FFF1FEE0FFF1FE457FD4F0F71D8
:1014000011272C013D0104C0440C551C661C771C9F
:101410000A95D2F780809180A280B3808428952895
:10142000A628B72880829182A282B382CFBEAA2446
:10143000A394B12CED81FE8110811F2191F1EF81E8
:10144000F88510811F2169F1CFB6F8948A01060F43
:10145000171FF801689414F8F595E7951694E1F7CD
:10146000EE0FFF1FEE0FFF1FE457FD4F0F71112707
:101470002C013D0104C0440C551C661C771C0A95C8
:10148000D2F780809180A280B38084289528A628F6
:10149000B72880829182A282B382CFBEAA24A3946D
:1014A000B12CFF0C4F5F5F4F4830510509F081CFE1
:1014B000EF81F885D192F887EF83685F7F4FF3E083
:1014C0002F0E311C2530310511F0A9013ECFAB287C
:1014D00001F147E050E06CE872E080E596E0289684
:1014E0000FB6F894DEBF0FBECDBFDF91CF911F9135
:1014F0000F91FF90EF90DF90CF90BF90AF909F90B3
:101500008F907F906F905F904F903F902F900C94B2
:101510005B2A28960FB6F894DEBF0FBECDBFDF91D1
:10152000CF911F910F91FF90EF90DF90CF90BF90E0
:10153000AF909F908F907F906F905F904F903F9073
:101540002F900895CF93DF9388329105A0F5AC01D9
:101550004770552721E030E001C0220F4A95EAF795
:10156000FC01A3E0F595E795AA95E1F7522F509578
:10157000EF01C256DD4F988195239883DF01A7566E
:10158000BD4F8C9185238C93EC56FD4F40814523B4
:10159000408360FF02C0922B988361FF02C0822BC0
:1015A0008C93CB018078992767FF07C0242B208379
:1015B00080E090E002C08AEE9FEFDF91CF91089526
:1015C0008091E80080FFFCCF089581E08093D700F0
:1015D00080EA8093D80082E189BD09B400FEFDCF86
:1015E00080E98093D8001092E000109218021092C7
:1015F0001A02109219028CE08093E20080E090E0E1
:10160000089580E090E00895CF93DF9380911802D1
:10161000882389F1CFB7F89483E08093E900A09103
:10162000F200FB01B0E0D3E0CF01861B970B9A01DB
:10163000A417B5070CF49D018217930774F4D09397
:10164000E9002091E80025FD02C0CFBF06C0D0937D
:10165000E9008091F1008193E7CF23E02093E90036
:101660002091F200211105C02091E8002F772093EE
:10167000E800CFBF02C085EF9FEFDF91CF910895C3
:10168000E2EEF0E08081877F8083089580911802E8
:1016900090E008958091190290911A020895EF92B6
:1016A000FF921F93CF93DF937C01CB01209118020F
:1016B000211103C085EF9FEF58C24FB7242FF89434
:1016C00054E05093E90050912302552341F050918A
:1016D000E80055FD02C04FBF3BC010922302A4E0BA
:1016E000B0E4CAE3D5E022C0122F4091F2005B2F94
:1016F000541B452F652F70E08617970708F4482F75
:10170000841B910950E04134510578F1F701408183
:101710004093F100A7014F5F5F4F7A014091E800CD
:1017200045FFC093E800D09322021FBF009709F441
:101730001AC24091E400475E5091E80055FDD4CFB5
:101740002FBF2091E400241306C081E08093230280
:101750008BEF9FEF0AC220911802222309F4AACF2F
:101760002FB7F894A093E900E7CF44545F4CFA01F7
:101770000C94A730F70140814093F100A7014F5F1F
:101780005F4F7A01F70140814093F100A7014F5F5D
:101790005F4F7A01F70140814093F100A7014F5F4D
:1017A0005F4F7A01F70140814093F100A7014F5F3D
:1017B0005F4F7A01F70140814093F100A7014F5F2D
:1017C0005F4F7A01F70140814093F100A7014F5F1D
:1017D0005F4F7A01F70140814093F100A7014F5F0D
:1017E0005F4F7A01F70140814093F100A7014F5FFD
:1017F0005F4F7A01F70140814093F100A7014F5FED
:101800005F4F7A01F70140814093F100A7014F5FDC
:101810005F4F7A01F70140814093F100A7014F5FCC
:101820005F4F7A01F70140814093F100A7014F5FBC
:101830005F4F7A01F70140814093F100A7014F5FAC
:101840005F4F7A01F70140814093F100A7014F5F9C
:101850005F4F7A01F70140814093F100A7014F5F8C
:101860005F4F7A01F70140814093F100A7014F5F7C
:101870005F4F7A01F70140814093F100A7014F5F6C
:101880005F4F7A01F70140814093F100A7014F5F5C
:101890005F4F7A01F70140814093F100A7014F5F4C
:1018A0005F4F7A01F70140814093F100A7014F5F3C
:1018B0005F4F7A01F70140814093F100A7014F5F2C
:1018C0005F4F7A01F70140814093F100A7014F5F1C
:1018D0005F4F7A01F70140814093F100A7014F5F0C
:1018E0005F4F7A01F70140814093F100A7014F5FFC
:1018F0005F4F7A01F70140814093F100A7014F5FEC
:101900005F4F7A01F70140814093F100A7014F5FDB
:101910005F4F7A01F70140814093F100A7014F5FCB
:101920005F4F7A01F70140814093F100A7014F5FBB
:101930005F4F7A01F70140814093F100A7014F5FAB
:101940005F4F7A01F70140814093F100A7014F5F9B
:101950005F4F7A01F70140814093F100A7014F5F8B
:101960005F4F7A01F70140814093F100A7014F5F7B
:101970005F4F7A01F70140814093F100A7014F5F6B
:101980005F4F7A01F70140814093F100A7014F5F5B
:101990005F4F7A01F70140814093F100A7014F5F4B
:1019A0005F4F7A01F70140814093F100A7014F5F3B
:1019B0005F4F7A01F70140814093F100A7014F5F2B
:1019C0005F4F7A01F70140814093F100A7014F5F1B
:1019D0005F4F7A01F70140814093F100A7014F5F0B
:1019E0005F4F7A01F70140814093F100A7014F5FFB
:1019F0005F4F7A01F70140814093F100A7014F5FEB
:101A00005F4F7A01F70140814093F100A7014F5FDA
:101A10005F4F7A01F70140814093F100A7014F5FCA
:101A20005F4F7A01F70140814093F100A7014F5FBA
:101A30005F4F7A01F70140814093F100A7014F5FAA
:101A40005F4F7A01F70140814093F100A7014F5F9A
:101A50005F4F7A01F70140814093F100A7014F5F8A
:101A60005F4F7A01F70140814093F100A7014F5F7A
:101A70005F4F7A01F70140814093F100A7014F5F6A
:101A80005F4F7A01F70140814093F100A7014F5F5A
:101A90005F4F7A01F70140814093F100A7014F5F4A
:101AA0005F4F7A01F70140814093F100A7014F5F3A
:101AB0005F4F7A01F70140814093F100A7014F5F2A
:101AC0005F4F7A01F70140814093F100A7014F5F1A
:101AD0005F4F7A01F70140814093F100A7014F5F0A
:101AE0005F4F7A01F70140814093F100A7014F5FFA
:101AF0005F4F7A01F70140814093F100A7014F5FEA
:101B00005F4F7A01F70140814093F100A7014F5FD9
:101B10005F4F7A01F70140814093F100A7014F5FC9
:101B20005F4F7A01F70140814093F100A7014F5FB9
:101B30005F4F7A01F70140814093F100A7014F5FA9
:101B40005F4F7A01F70140814093F100A7014F5F99
:101B50005F4F7A01F70140814093F100A7014F5F89
:101B60005F4F7A01D3CD80E090E0DF91CF911F915C
:101B7000FF90EF900895CF93DF93CB01EA01209778
:101B800079F480911802811102C085EF0FC0809115
:101B9000190290911A0280FFF8CF80E090E009C00E
:101BA000BA010E944F0B892B19F08FEF9FEF01C0F4
:101BB000CE01DF91CF91089580E090E00895CA01B1
:101BC000FB019F01261B370B2817390744F421918D
:101BD0003091C80035FFFCCF2093CE00F2CF08959E
:101BE000E9ECF0E08081877680830895CF93DF93DE
:101BF000CB01E091AC02F091AD0220E230E02E1B6F
:101C00003F0BC091AA02D091AB02C20FD31FCF717C
:101C1000DD274C175D070CF4EA012C173D070CF487
:101C2000E901209749F1BF0162557D4FAE010E9445
:101C300050288091AC029091AD028C0F9D1F8F7146
:101C400099279093AD028093AC021092CF0210922C
:101C5000CE022091AA023091AB02281B390B2F71C2
:101C60003327232B61F047E050E068E376E084E51A
:101C700092E00E94030603C085EF9FEF01C0CE01F2
:101C8000DF91CF91089584EC93E69F938F930E9408
:101C90009E260F900F900895CF93DF9302979CF1AB
:101CA000FB01828193810E94E828615071096330B1
:101CB000710578F07F936F938EEA93E69F938F93ED
:101CC0000E949E260F900F900F900F90CAEEDFEFAC
:101CD0001CC06093240286E0869FF001879FF00D70
:101CE0001124E452FC49208131814281538160E416
:101CF00072E48FE090E00E948530215031093093EA
:101D0000CD002093CC00C0E0D0E080912402882355
:101D100019F08AEA93E602C08CEA93E69F938F93C8
:101D20000E949E260F900F908DE791E09F938F93D6
:101D30001F9281E08F9381EA93E69F938F930E9495
:101D40009E260F900F900F900F900F900F90809104
:101D50002402813019F08AEA93E602C08CEA93E605
:101D60009F938F930E949E260F900F9084E891E09E
:101D70009F938F931F9282E08F9381EA93E69F93C4
:101D80008F930E949E260F900F900F900F900F90B0
:101D90000F90CE01DF91CF91089583E090E0909372
:101DA000CD008093CC001092AD021092AC02109244
:101DB000AB021092AA0288E98093C90080E090E00B
:101DC0000895883091056CF490917E0021E030E018
:101DD000082E01C0220F0A94EAF7922B90937E00FE
:101DE000089540917D00089721E030E0082E01C061
:101DF000220F0A94EAF7422B40937D000895CF9377
:101E0000DF9380917C008F7380937C0080917C00B5
:101E1000806480937C0080917A00876080937A0050
:101E200080917A008F7780937A00C0E0D0E0CE0175
:101E30000E94E10E2196C830D105C9F780E090E0FC
:101E4000DF91CF910895CF92DF92EF92FF920F939F
:101E50001F938830910518F020E030E046C0409193
:101E6000D0025091D1026091D2027091D302E1E090
:101E7000F0E0082E02C0EE0FFF1F0A94E2F78F0178
:101E8000222717FD2095322F68017901C422D5221F
:101E9000E622F722CD28CE28CF28F1F6402B512B71
:101EA000622B732B4093D0025093D1026093D202E5
:101EB0007093D30246E0489F9001499F300D112452
:101EC0002E503C492115310539F290917E00E09564
:101ED000E923E0937E0090917C00907E90937C00BB
:101EE00090917C00982B90937C00C9011F910F91D9
:101EF000FF90EF90DF90CF9008950F931F93825F34
:101F00009346959587952BEA3AEA829FF001839F45
:101F1000F00D929FF00D112401E010E00E2E02C092
:101F2000000F111F0A94E2F700951095222717FD64
:101F30002095322F4091D0025091D1026091D2026F
:101F40007091D30240235123622373234093D00224
:101F50005093D1026093D2027093D302CF011F91AC
:101F60000F910C94E10E80917A00806480937A0046
:101F700080917A0086FDFCCF2091780060917900F5
:101F800070E0762F6627882777FD8095982F622B43
:101F9000089541505109509387004093860080E096
:101FA00090E0089560918600709187006F5F7F4F89
:101FB00080E090E00895415051095093970040937C
:101FC000960080E090E008956091960070919700EF
:101FD0006F5F7F4F80E090E0089541504093D100C3
:101FE00080E090E008956091D10070E06F5F7F4FD6
:101FF000882777FD8095982F0895CF93DF9300D0A1
:1020000000D0CDB7DEB748BD80E090E00F900F90D4
:102010000F900F90DF91CF91089568B570E080E048
:1020200090E008950896FC016591759185919491D1
:102030006F5F7F4F8F4F9F4F089584B5829581705A
:1020400090E00895BB27A72F962F852F80938900B6
:102050004093880080E090E008956091880070913E
:10206000890080E090E008958091800086FB8827B9
:1020700080F990E00895BB27A72F962F852F809396
:102080008B0040938A0080E090E0089560918A0080
:1020900070918B0080E090E008958091800082959F
:1020A000817090E00895BB27A72F962F852F8093EE
:1020B0008D0040938C0080E090E0089560918C004A
:1020C00070918D0080E090E008958091800082FB07
:1020D000882780F990E00895BB27A72F962F852F9A
:1020E000809399004093980080E090E0089560917B
:1020F00098007091990080E090E0089580919000A0
:1021000086FB882780F990E008954093D20080E014
:1021100090E008956091D20070E080E090E0089532
:102120008091C100992787FD9095892F881F882766
:10213000881F90E0089584B5452B462B472B11F05E
:10214000806101C08F7E84BD80E090E00895809121
:102150008000452B462B472B11F0806401C08F7BFC
:102160008093800080E090E0089580918000452B6E
:10217000462B472B11F0806101C08F7E8093800039
:1021800080E090E0089580918000452B462B472BFE
:1021900011F0846001C08B7F8093800080E090E02C
:1021A000089580919000452B462B472B11F08064B9
:1021B00001C08F7B8093900080E090E00895809133
:1021C000C100452B462B472B11F0806801C08F774B
:1021D0008093C10080E090E0089541E050E002C0AB
:1021E000440F551F8A95E2F7662757FD6095762FB5
:1021F0008091D8029091D902A091DA02B091DB02CD
:10220000482359236A237B2381E090E0452B462B0A
:10221000472B11F480E090E008958E5294469595F6
:1022200087959595879527EB3DE6AC01429FC001C8
:10223000439F900D529F900D11240E94ED10892B09
:1022400029F08091D40281508093D4028091D402ED
:10225000811105C08091C100847F8093C10080916D
:10226000C2008E7F8093C20057980895CF939C013F
:102270002E523446359527953595279547EB5DE6E3
:10228000249FC001259F900D349F900D1124C09173
:10229000D402C11109C081E08093D4028091C100B1
:1022A0008B608093C10007C00E94ED10892B19F448
:1022B000CF5FC093D4028091C20089608093C20036
:1022C000579A80E090E0CF910895CF93DF938E529C
:1022D0009446959587959595879527EB3DE6829F42
:1022E000E001839FD00D929FD00D1124CE010E945A
:1022F000ED10892B29F08091D50281508093D50271
:102300008091D50281110EC0809190008D7F8093C5
:10231000900080919100807E8093910010929700B0
:1023200010929600809190008F77809390003E9855
:1023300041E050E002C0440F551FCA95E2F74095B6
:102340005095662757FD6095762F8091D802909121
:10235000D902A091DA02B091DB0284239523A6234F
:10236000B7238093D8029093D902A093DA02B09356
:10237000DB02DF91CF9108951F93CF93DF938E52AD
:102380009446959587959595879527EB3DE6829F91
:10239000E001839FD00D929FD00D11241091D502A2
:1023A000111114C081E08093D50280919000826069
:1023B00080939000809191008A61809391008FE3D7
:1023C0009CE9909397008093960008C0CE010E94EC
:1023D000ED10892B19F41F5F1093D50280919000A6
:1023E0008068809390003E9A41E050E002C0440F24
:1023F000551FCA95E2F7662757FD6095762F8091A5
:10240000D8029091D902A091DA02B091DB02842B1C
:10241000952BA62BB72B8093D8029093D902A0932B
:10242000DA02B093DB0280E090E0DF91CF911F9160
:1024300008950E94ED10892B29F08091D6028150D9
:102440008093D6028091D60281110EC080918000C7
:102450008D7F8093800080918100807E80938100B9
:1024600010928700109286000895CF93DF938E52CA
:102470009446959587959595879527EB3DE6829FA0
:10248000E001839FD00D929FD00D1124CE010E94B8
:102490001912E0E8F0E08081877F8083279841E08F
:1024A00050E002C0440F551FCA95E2F74095509581
:1024B000662757FD6095762F8091D8029091D902BA
:1024C000A091DA02B091DB0284239523A623B723DF
:1024D0008093D8029093D902A093DA02B093DB02E2
:1024E000DF91CF910895CF93DF938E5294469595C7
:1024F00087959595879527EB3DE6829FE001839F21
:10250000D00D929FD00D1124CE010E941912E0E847
:10251000F0E080818F7D8083269841E050E002C00A
:10252000440F551FCA95E2F740955095662757FD11
:102530006095762F8091D8029091D902A091DA020D
:10254000B091DB0284239523A623B7238093D8027E
:102550009093D902A093DA02B093DB02DF91CF917E
:102560000895CF93DF938E529446959587959595D0
:10257000879527EB3DE6829FE001839FD00D929FD8
:10258000D00D1124CE010E941912E0E8F0E0808104
:102590008F778083259841E050E002C0440F551F9B
:1025A000CA95E2F740955095662757FD6095762FBE
:1025B0008091D8029091D902A091DA02B091DB0209
:1025C00084239523A623B7238093D8029093D9021E
:1025D000A093DA02B093DB02DF91CF910895CF93FD
:1025E000C091D602C11114C081E08093D6028091BF
:1025F0008000826080938000809181008A61809356
:1026000081008FE39CE9909387008093860007C048
:102610000E94ED10892B19F4CF5FC093D602CF91A1
:102620000895CF93DF938E5294469595879595950F
:10263000879527EB3DE6829FE001839FD00D929F17
:10264000D00D1124CE010E94EF12E0E8F0E080816D
:1026500088608083279A41E050E002C0440F551FF4
:10266000CA95E2F7662757FD6095762F8091D802CC
:102670009091D902A091DA02B091DB02842B952BC4
:10268000A62BB72B8093D8029093D902A093DA029D
:10269000B093DB0280E090E0DF91CF910895CF937B
:1026A000DF938E529446959587959595879527EB60
:1026B0003DE6829FE001839FD00D929FD00D1124B3
:1026C000CE010E94EF12E0E8F0E08081806280831A
:1026D000269A41E050E002C0440F551FCA95E2F728
:1026E000662757FD6095762F8091D8029091D90288
:1026F000A091DA02B091DB02842B952BA62BB72B8D
:102700008093D8029093D902A093DA02B093DB02AF
:1027100080E090E0DF91CF910895CF93DF938E52C8
:102720009446959587959595879527EB3DE6829FED
:10273000E001839FD00D929FD00D1124CE010E9405
:10274000EF12E0E8F0E0808180688083259A41E024
:1027500050E002C0440F551FCA95E2F7662757FDA7
:102760006095762F8091D8029091D902A091DA02DB
:10277000B091DB02842B952BA62BB72B8093D8022C
:102780009093D902A093DA02B093DB0280E090E04C
:10279000DF91CF910895CF93DF938E529446959514
:1027A00087959595879527EB3DE6829FE001839F6E
:1027B000D00D929FD00D1124CE010E94ED10892BD7
:1027C00029F08091D70281508093D7028091D7025F
:1027D000811103C084B58C7F84BD84B58F7D84BD99
:1027E000509841E050E002C0440F551FCA95E2F7EF
:1027F00040955095662757FD6095762F8091D802B9
:102800009091D902A091DA02B091DB028423952342
:10281000A623B7238093D8029093D902A093DA021B
:10282000B093DB02DF91CF9108951F93CF93DF9395
:102830008E529446959587959595879527EB3DE61D
:10284000829FE001839FD00D929FD00D11241091A3
:10285000D702111107C081E08093D70284B583604D
:1028600084BD08C0CE010E94ED10892B19F41F5FB2
:102870001093D70284B5806284BD509A41E050E045
:1028800002C0440F551FCA95E2F7662757FD6095B1
:10289000762F8091D8029091D902A091DA02B0915E
:1028A000DB02842B952BA62BB72B8093D802909319
:1028B000D902A093DA02B093DB0280E090E0DF91CE
:1028C000CF911F910895289A239A80E090E008956F
:1028D00080E48CBD8CB580688CBD80E090E008956C
:1028E0008CB58F778CBD8CB58F7B8CBD0895809116
:1028F0001C0590911D058095909520911E053091A5
:102900001F05820F931F8F7099279A0184179507CF
:102910000CF49C0121153105D9F0FB01CF01861B78
:10292000970B8217930794F480911C0590911D05D5
:102930004191DC01AE5FBA4F5E964C9301968F7069
:10294000992790931D0580931C05E8CFC901089530
:1029500085EF9FEF0895CF93DF93CB01E0910605BC
:10296000F091070520E130E02E1B3F0BC0910405DC
:10297000D0910505C20FD31FCF70DD274C175D071F
:102980000CF4EA012C173D070CF4E901209749F1FA
:10299000BF01685F7A4FAE010E9450288091060502
:1029A000909107058C0F9D1F8F70992790930705B5
:1029B00080930605109219051092180520910405C0
:1029C00030910505281B390B2F703327232B61F01D
:1029D00047E050E068E376E08EE592E00E9403066F
:1029E00003C085EF9FEF01C0CE01DF91CF91089525
:1029F00040E050E062E070E085EA91E00E942E063F
:102A00009093ED048093EC0440E050E061E070E0CE
:102A100085EA91E00E942E06909331098093300957
:102A200080E090E0089585EF94E69F938F930E9455
:102A30009E260F900F900895AF92BF92CF92DF9293
:102A4000EF92FF920F931F93CF93DF93C0E0D0E0FC
:102A50000EEE14E688EEE82E84E6F82E96EEC92EE9
:102A600094E6D92E5E0187E0A822BB24A114B1040C
:102A700051F4DF93CF931F930F930E949E260F90E4
:102A80000F900F900F9089911F928F93FF92EF926A
:102A90000E949E260F900F900F900F9087E0A8162F
:102AA000B10431F4DF92CF920E949E260F900F90D6
:102AB000C11581E0D807B1F684EE94E69F938F9319
:102AC0000E949E260F900F9080E090E0DF91CF91C2
:102AD0001F910F91FF90EF90DF90CF90BF90AF903C
:102AE0000895E1E6F0E080E8808310820E94E82704
:102AF0000E94092A0E944A2980E090E00895CF931D
:102B0000DF93DC011696ED91FC911797EA0188811D
:102B10009981AA81BB81E60FF71F80839183A283ED
:102B2000B383232B59F08C819D81AE81BF81848337
:102B30009583A683B78388E090E002C084E090E0AC
:102B4000DF91CF910895CF93DF93EC0184E595E673
:102B50009F938F930E949E260F900F90209719F0BD
:102B60008DE495E602C087E495E69F938F930E94DB
:102B70009E260F900F90CE01DF91CF910895FA011C
:102B8000DC0114962D913C911597260F371F48E0D4
:102B900050E0B901CF010E94502888E090E00895EC
:102BA000FB01BA01DC0116968D919C911797232B9E
:102BB00041F4DA012C91E80FF91F208381E090E0C5
:102BC000089548E050E08E0F9F1F0E94502888E033
:102BD00090E00895FB01BA01DC0116968D919C915D
:102BE0001797232B51F4DA012D913C91E80FF91F2F
:102BF0003183208382E090E0089548E050E08E0F1A
:102C00009F1F0E94502888E090E008959B01BA0120
:102C1000FC018681978148E050E0820F931F0E945B
:102C2000502888E090E00895CF93DF93FC01C481A1
:102C3000D581FE01E60FF71F85919591A591B4917D
:102C4000FA0180839183A283B383232B81F0FB015C
:102C50003496EC0FFD1F85919591A591B491FA01E1
:102C600084839583A683B78388E090E002C084E0E4
:102C700090E0DF91CF910895CF93DF93DA01EC01DB
:102C8000EC81FD81232B39F4E60FF71FE491EC93DF
:102C900081E090E009C06E0F7F1F48E050E0CD0159
:102CA0000E94463088E090E0DF91CF910895CF9365
:102CB000DF93DA01EC01EC81FD81232B49F4E60F6F
:102CC000F71F859194918D939C9382E090E009C0C9
:102CD0006E0F7F1F48E050E0CD010E94463088E033
:102CE00090E0DF91CF910895DC011496ED91FC9175
:102CF0001597668177811696ED91FC91179740E1C3
:102D000050E0828193810E94520797FF08C08CE1B6
:102D100095E69F938F930E949E260F900F900895A3
:102D2000CF93DF93EC01009789F1AC0161E070E093
:102D300081EB91E00E942E06009721F480913009EA
:102D40009091310999838883892B19F480E795E65E
:102D500017C0AE0162E070E081EB91E00E942E06A8
:102D60009B838A83892B31F48091EC049091ED044C
:102D70009B838A838A819B81892B59F48BE595E615
:102D80009F938F930E949E260F900F908FEF9FEF3F
:102D900002C080E090E0DF91CF9108956F927F9222
:102DA0008F929F92AF92BF92CF92DF92EF92FF925B
:102DB0000F931F93CF93DF93CDB7DEB7A4970FB6D2
:102DC000F894DEBF0FBECDBFDC011696ED90FC90EF
:102DD00017978091E0029091E102892B39F481E00C
:102DE00090E09093E1028093E00224C0F70184898F
:102DF0009589892BF9F08091320990913309A0913E
:102E00003409B09135092091DC023091DD02245F54
:102E10003F4F281B390B37FF0DC081E395E69F9389
:102E20008F930E949E26D70155961C921E9254970E
:102E30000F900F908091320990913309A09134093D
:102E4000B09135098093DC029093DD02A093DE02FD
:102E5000B093DF02F701008111816701F4E0CF0E2A
:102E6000D11CD70154966D917C91559740E150E06B
:102E7000461B570B6C0D7D1DC8010E94FC061816E1
:102E80001906DCF0892B99F4C8010E94D206A7012B
:102E900061E070E081EB91E00E942E06009721F442
:102EA0008091300990913109F70191838083D70196
:102EB00055961C921E9254973AC1F7012489358980
:102EC000280F391F358B248B2031310508F42FC191
:102ED000158A148A6681862F8E71823009F027C187
:102EE000858182958F7061706295607F682BF8E0B4
:102EF0006F9FB0011124695174498CE66F307807D7
:102F000008F047C048E050E0CE014B960E944630A2
:102F1000D70117968C9186FD0AC18F718695AA24D8
:102F2000A394B12C02C0AA0CBB1C8A95E2F76B8C4F
:102F30007C8C812C912C00E010E0061517050CF01C
:102F40003DC06D8D7E8D680D791D4AE050E0CE014B
:102F500041960E944630EB89FC894591549129891C
:102F60003A89F70184816581962F9F7082179307B4
:102F700050F08A0D9B1D019721503109240F351FF8
:102F8000281739079CF50F5F1F4FFAE08F0E911C31
:102F9000D4CFD70112968D919C9113970DEE1FEF10
:102FA0002FEF3FEFF70100871187228733872781B3
:102FB0002062278340E150E0B60115C0E9A1FAA1E3
:102FC000D70112968D919C91139746E150E060E0F5
:102FD00070E0448355836683778323812062238353
:102FE00040E150E0BF010E945207A1C0F7012781D4
:102FF000207830E0698D7A8D61157105E1F040E14E
:1030000050E0CE0101962BA33CA30E944630D7018D
:103010001796EC912BA13CA1E0FD7CC0EE7181E004
:1030200090E08C0F9D1F8E0F911DFC01008111817E
:10303000A12CB12C04C0A12CB12C00E010E049A1BE
:103040005AA180E1F7013496DA0101900D928A9538
:10305000E1F7DA0113968C911397806413968C93A1
:103060000115110579F04C5F5F4FF701648185818F
:10307000782F7F7089899A89681B790BCE014196D8
:10308000F80115C0A114B104A1F0A6014C5F5F4F77
:10309000D70114966C91149715968C91782F7F70A8
:1030A00089899A89681B790BCE014196F5010995AA
:1030B00002C08FEF9FEFD70112962D913C9113978D
:1030C00097FF16C0E9A1FAA144275527481B590BC1
:1030D000662757FD6095762F4483558366837783F3
:1030E00083818062838340E150E0BF01C9017BCFCF
:1030F00069A17AA140E150E0C9010E94520797FFFF
:1031000016C08CE195E69F938F930E949E260F90A8
:103110000F900DC0F0E03197EE71FF2781E090E055
:103120008C0F9D1FE80FF91FA084B18486CFA49651
:103130000FB6F894DEBF0FBECDBFDF91CF911F91C8
:103140000F91FF90EF90DF90CF90BF90AF909F9046
:103150008F907F906F900895CF93DF93E82F492F42
:10316000EB0168E070E00E9471302E2F342F37FFA2
:1031700002C0295F3F4F93E0359527959A95E1F777
:103180002F5F3F4FF901EE0FFF1FE20FF31F92A1D8
:1031900021E030E0082E01C0220F0A94EAF7CD2B7F
:1031A00011F0922B02C02095922392A3DF91CF9130
:1031B00008959C0197FF02C0295F3F4F53E035956A
:1031C00027955A95E1F72F5F3F4FF901EE0FFF1F4B
:1031D000E20FF31F40A168E070E00E94713021E02F
:1031E00030E001C0220F8A95EAF7422381E090E0A7
:1031F00011F480E090E00895FC0197FD7F96A5E032
:10320000F595E795AA95E1F7EE0FFF1FEE0FFF1F6B
:10321000E60FF71F60E270E00E94713041E050E07D
:1032200060E070E004C0440F551F661F771F8A9549
:10323000D2F780819181A281B381842B952BA62B1B
:10324000B72B80839183A283B38308959C014FB7EA
:10325000F894FC0197FD7F9685E0F595E7958A95B2
:10326000E1F7EE0FFF1FEE0FFF1FE60FF71F808144
:103270009181A281B3814FBF2F71332704C0B695CE
:10328000A795979587952A95D2F7817099270895E4
:103290008FEF9FEF08958FEF9FEF08958FEF9FEFD0
:1032A00008958FEF9FEF08958FEF9FEF08958FEFB1
:1032B0009FEF0895DC011496ED91FC9115978081A4
:1032C0009181A281B38140911803509119036091BB
:1032D0001A0370911B03842B952BA62BB72B80937D
:1032E000180390931903A0931A03B0931B03108241
:1032F00011821282138284819581A681B7814091C7
:103300001C0350911D0360911E0370911F03842BB9
:10331000952BA62BB72B80931C0390931D03A09392
:103320001E03B0931F0314821582168217828091A8
:10333000180390911903A0911A03B0911B03892BD4
:103340008A2B8B2BA1F480911C0390911D03A091DB
:103350001E03B0911F03892B8A2B8B2B41F480EB2A
:1033600095E69F938F930E949E260F900F9087EE75
:103370009BE6875E9B4623E0959587952A95E1F726
:103380009093F9028093F80281E090E09093FB0221
:103390008093FA0247E050E068EF72E088E596E03B
:1033A0000C945B2A2F923F924F925F926F927F9282
:1033B0008F929F92AF92BF92CF92DF92EF92FF9245
:1033C0000F931F93CF93DF9300D000D000D0CDB7E1
:1033D000DEB77A836983890123E0880F991F2A95D4
:1033E000E1F7452B11F4980102C028E030E07C01A0
:1033F0001E821D82ED81FE81E217F3070CF098C05A
:103400006D807E8077FE03C087E0680E711CB3E09C
:1034100075946794BA95E1F7E981FA816E0E7F1E83
:1034200008301105A9F4F3014081C701F7FC0796A4
:10343000F3E095958795FA95E1F70196FC01EE0F7B
:10344000FF1FE80FF91FC70187709927892B69F1C2
:10345000CD80DE80D7FE03C0FFE0CF0ED11C74E02C
:10346000D594C7947A95E1F7CC0CDD1C89819A81BB
:10347000C80ED91EAD80BE80B7FE03C09FE1A90E65
:10348000B11C45E0B594A7944A95E1F7AA0CBB1C82
:10349000AA0CBB1CE981FA81AE0EBF1E212C312C77
:1034A00021012394812C912C2CC042A338C00031DF
:1034B000110559F10032110561F108301105D1F5FE
:1034C000F301808190E0A0E0B0E082219321A4216B
:1034D000B52161E070E0892B8A2B8B2B11F460E021
:1034E00070E0C4018E0D9F1D2B833C830E94AC189D
:1034F000FFEF8F1A9F0A220C331C441C551C3C8181
:103500002B81801691069CF20AC0F6018081918180
:10351000DACFF50180819181A281B381D6CF8D81EF
:103520009E81800F911F9E838D83E00EF11E62CFDE
:10353000C90102C08AEE9FEF26960FB6F894DEBF4F
:103540000FBECDBFDF91CF911F910F91FF90EF90F4
:10355000DF90CF90BF90AF909F908F907F906F90B3
:103560005F904F903F902F900895CB01BA01A90131
:1035700028E030E00C94D219CB01BA01A90120E176
:1035800030E00C94D219CB01BA01A90120E230E05D
:103590000C94D219CB01BA01A90128E030E00C94B7
:1035A000D219CB01BA01A90128E030E00C94D2195C
:1035B0002F923F924F925F926F927F928F929F9243
:1035C000AF92BF92CF92DF92EF92FF920F931F9331
:1035D000CF93DF93CDB7DEB728970FB6F894DEBF51
:1035E0000FBECDBF4B018901F3E0880F991FFA95FB
:1035F000E1F7452B11F4190103C0E8E02E2E312C20
:103600007C0118861F827AED472E55245A94652C2A
:10361000752C2AED3FEFEF81F885E215F3050CF0EC
:103620009CC0CF80D884D7FE03C087E0C80ED11CD1
:1036300063E0D594C7946A95E1F7C80CD91C0031B2
:103640001105F1F000321105F1F00830110501F516
:10365000C70187709927892B81F4C701F7FC07966A
:1036600043E0959587954A95E1F70196FC01EE0FA9
:10367000FF1FE80FF91F80A101C08AEEF6018083C9
:10368000F60131832083F601408251826282738287
:1036900040E050E0BA01A12CB12CA016B1062CF5E7
:1036A000C5018E0D9F1D2D833E8349835A836B83F5
:1036B0007C830E94D918AA2797FDA095BA2F0A2CBF
:1036C00004C0880F991FAA1FBB1F0A94D2F7498113
:1036D0005A816B817C81482B592B6A2B7B2BFFEF06
:1036E000AF1ABF0A3E812D81D8CF0031110549F0B4
:1036F00000321105B1F00830110589F5F60140835B
:1037000023C0EF81F885F7FD3F9684E0F595E795B6
:103710008A95E1F7EE0FFF1FE80DF91D51834083F5
:1037200013C0EF81F885F7FD7F96A5E0F595E79545
:10373000AA95E1F7EE0FFF1FEE0FFF1FE80DF91D31
:1037400040835183628373838F819885800F911F9B
:1037500098878F83E00EF11E5ECFC10102C08AEE12
:103760009FEF28960FB6F894DEBF0FBECDBFDF9156
:10377000CF911F910F91FF90EF90DF90CF90BF906E
:10378000AF909F908F907F906F905F904F903F9001
:103790002F900895CB01BA01A90128E030E00C94E4
:1037A000D81ACB01BA01A90120E130E00C94D81A53
:1037B000CB01BA01A90120E230E00C94D81A8F9213
:1037C0009F92AF92BF92CF92DF92EF92FF920F93B0
:1037D0001F93CF93DF93CDB7DEB728970FB6F8943A
:1037E000DEBF0FBECDBF7C016B018A0159014115BF
:1037F000510511F4490103C0B8E28B2E912C9501BB
:10380000A801BE016F5F7F4FC7010E94D81A97FDC4
:1038100020C0F40197FC3796CF01A3E095958795DA
:10382000AA95E1F7FE013196D6019D012C193D09BB
:10383000281739072CF43D912081232B2193F5CFB4
:103840009801A501BE016F5F7F4FC7010E94D21989
:1038500002C08FEF9FEF28960FB6F894DEBF0FBE21
:10386000CDBFDF91CF911F910F91FF90EF90DF902F
:10387000CF90BF90AF909F908F900895CB01BA01E9
:10388000A90120E130E00C94DF1BCB01BA01A901B2
:1038900020E230E00C94DF1B8F929F92AF92BF9298
:1038A000CF92DF92EF92FF920F931F93CF93DF930C
:1038B000CDB7DEB728970FB6F894DEBF0FBECDBFE9
:1038C0007C016B018A0159014115510511F449012F
:1038D00003C038E2832E912C9501A801BE016F5FD1
:1038E0007F4FC7010E94D81A97FD20C0F40197FCB2
:1038F0003796CF0123E0959587952A95E1F7FE014C
:103900003196D6019D012C193D09281739072CF451
:103910003D912081232B2193F5CF9801A501BE0174
:103920006F5F7F4FC7010E94D21902C08FEF9FEFD8
:1039300028960FB6F894DEBF0FBECDBFDF91CF91B2
:103940001F910F91FF90EF90DF90CF90BF90AF90BD
:103950009F908F900895CB01BA01A90120E130E03A
:103960000C944C1CCB01BA01A90120E230E00C946C
:103970004C1CCF92DF92EF92FF920F931F93CF9345
:10398000DF93CDB7DEB728970FB6F894DEBF0FBE32
:10399000CDBF6A01CB01885E9C4F7C01232B19F4BB
:1039A00004E010E002C001E010E048E050E068E10F
:1039B00073E0CE0101960E945028D601F701808164
:1039C0008D931192CF018E199F0980179107BCF337
:1039D00089819A81AB81BC81892B8A2B8B2B49F4FD
:1039E0008D819E81AF81B885892B8A2B8B2B09F421
:1039F00041C08091180390911903A0911A03B091CE
:103A00001B03892B8A2B8B2BA9F540911C0350910A
:103A10001D0360911E0370911F03452B462B472BFE
:103A200049F587EE9BE6875E9B4643E09595879533
:103A30004A95E1F79093FD028093FC021092FF02F9
:103A40001092FE0247E050E06CEF72E088E596E0ED
:103A50000E945B2A892B71F082E191E09F938F9302
:103A600081EC95E69F938F930E949E260F900F9076
:103A70000F900F90C80128960FB6F894DEBF0FBEC6
:103A8000CDBFDF91CF911F910F91FF90EF90DF900D
:103A9000CF900895AF92BF92CF92DF92EF92FF92B4
:103AA0000F931F93CF93DF937A01232B19F404E034
:103AB00010E002C001E010E0E7015B01AE18BF08B2
:103AC00018826E01CA0CDB1C60E173E0C6010E9423
:103AD0002619892B19F088818260888368E073E059
:103AE000C6010E942619892B19F08881816088837C
:103AF00060E073E0C6010E942619892B19F08881C5
:103B0000806888832196CE018E199F0980179107BE
:103B1000BCF2C801DF91CF911F910F91FF90EF9000
:103B2000DF90CF90BF90AF900895AF92BF92CF92A9
:103B3000DF92EF92FF920F931F93CF93DF93EB01EE
:103B4000452B61F4A90137FF02C0495F5F4F8A012D
:103B5000E3E015950795EA95E1F702C001E010E072
:103B6000FE016C01CC1ADD0A78E0A72EB12CCF0142
:103B70008C1B9D0B801791072CF596012E0F3F1F74
:103B8000D90137FD179653E0B595A7955A95E1F7FA
:103B90001196CD01880F991F8A0F9B1FDC0191960A
:103BA000EC90F12CC901B5010E94713002C0F5946E
:103BB000E7948A95E2F7E0FE02C082E001C081E06E
:103BC0008193D5CFC801DF91CF911F910F91FF90C5
:103BD000EF90DF90CF90BF90AF900895CB01BA01E6
:103BE000A90128E030E00C94951DCB01BA01A90190
:103BF00020E130E00C94951DCB01BA01A90120E22F
:103C000030E00C94951D2F923F924F925F926F92ED
:103C10007F928F929F92AF92BF92CF92DF92EF925C
:103C2000FF920F931F93CF93DF934C01452B61F4C9
:103C3000790137FF03C027E0E20EF11C03E0F594A1
:103C4000E7940A95E1F703C018E0E12EF12C8B010F
:103C5000C12CD12CC8E04C2E512CAA24A394B12CF9
:103C6000CE14DF040CF040C0F80131908F01832D99
:103C700083708330A9F1E601C80DD91DCE010E94E1
:103C8000D9189C01CE01B2010E947130282EAE01DC
:103C9000D7FF02C0495F5F4FA3E055954795AA95AE
:103CA000E1F74F5F5F4F3A01660C771C640E751E9B
:103CB000B901CE010E94AC18F30181A1950102C0A7
:103CC000220F331F2A94E2F731FE02C0822B03C079
:103CD00019012094822181A33FEFC31AD30AC0CFD8
:103CE000FAEEEF2EFF24FA94C701DF91CF911F91D6
:103CF0000F91FF90EF90DF90CF90BF90AF909F908B
:103D00008F907F906F905F904F903F902F9008958D
:103D1000CB01BA01A90128E030E00C94031ECB01CD
:103D2000BA01A90120E130E00C94031ECB01BA01D5
:103D3000A90120E230E00C94031E9F92AF92BF9243
:103D4000CF92DF92EF92FF920F931F93CF93DF9367
:103D50006A01232B21F494E0E92EF12C03C0EE2418
:103D6000E394F12CEB0186015801F801808181FF79
:103D700008C09FB6F89460E173E0CE010E94FC1881
:103D80009FBEF801808180FF08C09FB6F89468E06C
:103D900073E0CE010E94FC189FBEF801808187FF6E
:103DA00008C09FB6F89460E073E0CE010E94FC1852
:103DB0009FBE0F5F1F4FF501608170E0CE010E9432
:103DC000A20A97FD08C02196C8018C199D098E157D
:103DD0009F0554F2C701DF91CF911F910F91FF9082
:103DE000EF90DF90CF90BF90AF909F9008958AEEB4
:103DF0009FEF089580917A00992787FD9095A92FCC
:103E0000B92F8827B7FD83959927AA27BB27FA01E1
:103E100080839183A283B38380E090E00895EF9242
:103E2000FF920F931F93CF93DF9300D000D0CDB7B5
:103E3000DEB77A01CB0146E0969587954A95E1F782
:103E400026E0289FF001299FF00D1124EE50FC4937
:103E50006F7377276C30710509F44AC048F46430F9
:103E6000710551F168307105C9F1672B69F40FC014
:103E70006431710509F468C06831710509F464C0E2
:103E80006031710509F448C08AEE9FEF65C021E4F6
:103E9000298324E42A836AE070E00E945D30605D3B
:103EA0006B83805D8C8344E050E0BE016F5F7F4F89
:103EB000C7010E94502848C0808190E0880F991F58
:103EC00021E030E04181411102C020E030E0822B4E
:103ED000932BAA2797FDA095BA2F04C082819381C6
:103EE000A481B581F70180839183A283B3832CC021
:103EF00020917A0027FF2BC00E94230F8C0100978E
:103F000049F10E94B30FF701608371838283938329
:103F1000C8010E947D0F18C00091D0021091D102FB
:103F20002091D2023091D30204C03695279517957F
:103F300007958A95D2F70170112722273327F701B9
:103F4000008311832283338380E090E005C083EFF8
:103F50009FEF02C080EF9FEF0F900F900F900F9098
:103F6000DF91CF911F910F91FF90EF900895FA018B
:103F700080819181A281B381892B8A2B8B2B31F097
:103F80000E94FF0E80917A00806803C080917A00C1
:103F90008F7780937A0080E090E00895CF92DF924F
:103FA000EF92FF920F931F93CF93DF93CDB7DEB7BE
:103FB00060970FB6F894DEBF0FBECDBF6B017A01DC
:103FC000CB0126E0969587952A95E1F72CE1289F6D
:103FD0008001299F100D1124025D1B49B801645F07
:103FE0007F4F40E150E0CE0101960E944630B6017D
:103FF0006F7377276031710551F16431710579F183
:104000006C307105B1F5D7018C9180FF06C0E98154
:10401000FA81C80109956C0106C0EB81FC81C801D9
:104020000995C12CD12CEF85F889309729F1D7015A
:104030004D915D916D917C917695679557954795DA
:104040004170552766277727C801099515C0F701E4
:104050004081518162817381E985FA8507C0D7016A
:104060004D915D916D917C91EB85FC85C801099521
:1040700004C08AEE9FEF01C0C60160960FB6F894A7
:10408000DEBF0FBECDBFDF91CF911F910F91FF908B
:10409000EF90DF90CF900895AF92BF92CF92DF92D2
:1040A000EF92FF920F931F93CF93DF93CDB7DEB7BD
:1040B00060970FB6F894DEBF0FBECDBF5B017A01EB
:1040C0006B0136E0D694C7943A95E1F78CE18C9D6C
:1040D00080018D9D100D1124025D1B49B801645FA4
:1040E0007F4F40E150E0CE0101960E944630B5017D
:1040F0006F7377276830710509F447C038F461158C
:10410000710589F064307105F1F07FC0603171058F
:1041100009F46CC06431710509F474C06C30710528
:1041200009F073C03FC044E050E0B801C7010E94ED
:104130004630F701808193819083838381819281CE
:10414000918382835CC00C5F1F4FF801059115912C
:10415000259134913327F701008311832283338320
:1041600089859A85892B29F0316000831183228308
:1041700033838B859C85892B09F441C0F7018081AD
:104180009181A281B381B2602CC0085F1F4FF801FA
:104190004591559165917491F701408351836283F4
:1041A00073832DC0C6010E94ED1041E050E060E035
:1041B00070E0892B19F440E050E0BA01F701408328
:1041C000518362837383ED85FE853097C1F0C8010A
:1041D0000995892BA1F0F70180819181A281B3819A
:1041E000826080839183A283B38309C0ED81FE81C5
:1041F000C8010995F701608371838283938380E00E
:1042000090E005C0EF81F885F3CF8AEE9FEF6096CE
:104210000FB6F894DEBF0FBECDBFDF91CF911F91D7
:104220000F91FF90EF90DF90CF90BF90AF900895E7
:10423000232BA9F4CB0183709927892B99F4FB01D7
:10424000EC7FEB5DFD4F80819181A281B381FA010A
:1042500080839183A283B38384E090E008958FEFFD
:104260009FEF08958AEE9FEF0895CF92DF92EF922D
:10427000FF920F931F93CF93DF93FC01C481D581ED
:10428000888199818032910508F084C0C090350200
:10429000D0903602E0903702F0903802E1E0F0E092
:1042A00002C0EE0FFF1F8A95E2F7CF01809590952F
:1042B000AA2797FDA095BA2F8C219D21AE21BF2161
:1042C0008093350290933602A0933702B093380260
:1042D0002A813B81232B89F0AF01662757FD60952A
:1042E000762F482B592B6A2B7B2B4093350250930A
:1042F00036026093370270933802009135021091B4
:1043000036022091370230913802C016D106E206FB
:10431000F30609F43FC04091290250912A026091AE
:104320002B0270912C02DB01CA0180959095A0951B
:10433000B09580239123A223B323009125021091ED
:104340002602209127023091280280179107A207A8
:10435000B30701F18093250290932602A0932702D0
:10436000B0932802892B8A2B8B2B99F0CF01AA2797
:1043700097FDA095BA2F842B952BA62BB72B809356
:10438000290290932A02A0932B02B0932C02769AD2
:1043900001C07698DF91CF911F910F91FF90EF9020
:1043A000DF90CF90089576986E9A80E090E008951F
:1043B0000F931F93CF93DF93FB01232B09F080C052
:1043C0006830710541F06C30710509F441C064300A
:1043D000710509F075C00091250210912602209107
:1043E000270230912802EA0188819981AA81BB8144
:1043F0004091290250912A0260912B0270912C0267
:10440000349729F4842B952BA62BB72B08C08095C5
:104410009095A095B09584239523A623B7238093E8
:10442000290290932A02A0932B02B0932C0280952C
:104430009095A095B09540913502509136026091CB
:1044400037027091380284239523A623B72321C015
:104450000091250210912602209127023091280216
:10446000FA0180819181A281B38180959095A09578
:10447000B09580239123A223B3234091350250911C
:1044800036026091370270913802842B952BA62B4F
:10449000B72B80179107A207B30779F00097A10502
:1044A000B10511F0769A01C0769880932502909319
:1044B0002602A0932702B093280284E090E002C075
:1044C0008FEF9FEFDF91CF911F910F91089587E0BC
:1044D0009CE6875E9B4623E0959587952A95E1F7B4
:1044E000909345038093440381E090E090934703C9
:1044F0008093460347E050E064E473E088E596E08B
:104500000E945B2A892B41F083ED97E69F938F935E
:104510000E949E260F900F9008952F923F924F92E7
:104520005F926F927F928F929F92AF92BF92CF9243
:10453000DF92EF92FF920F931F93CF93DF934C0183
:104540006B015A01232B21F078E0E72EF12C03C0F8
:1045500064E0E62EF12C07E01CE6075E1B4633E024
:10456000159507953A95E1F7C0E0D0E040E8442E74
:10457000512C612C712C5CEA252E57E6352EFE015C
:10458000EC7FEA0DFB1DD4018D919C918C0D9D1D3E
:104590008C0F9D1F8032910509F475C0B8F48031ED
:1045A000910509F468C030F48830910551F10C97F9
:1045B00069F189C08831910509F45DC08C3191059C
:1045C00009F45EC0449709F07EC055C08C32910555
:1045D00009F45EC040F48432910509F463C0889701
:1045E00009F460C070C08433910509F454C0883365
:1045F000910509F453C0C09709F065C08091D703B5
:104600004FC080914C0390914D0350C08091520354
:1046100090E0A0E0B0E080839183A283B383892BF4
:104620008A2B8B2B09F448C010934103009340035D
:10463000109243031092420347E050E060E473E0BD
:1046400088E596E00E945B2A892B31F03F922F92F9
:104650000E949E260F900F908091D803843061F1C4
:10466000893051F147E050E061E070E08CE596E080
:104670000E945B2A21C010821182128213821CC008
:10468000809153030DC0408251826282738214C0B4
:104690008091D60305C08091D40302C08091D503D8
:1046A00090E004C080914E0390914F03A0E0B0E0F1
:1046B00080839183A283B3832496CE15DF0508F40B
:1046C0005ECFC70102C08FEF9FEFDF91CF911F91A7
:1046D0000F91FF90EF90DF90CF90BF90AF909F90A1
:1046E0008F907F906F905F904F903F902F900895A4
:1046F00047E050E060E070E08CE596E00C945B2AC7
:104700008093D803982F9B7F21F0893011F00C946F
:10471000782308958F929F92AF92BF92CF92DF92AB
:10472000EF92FF920F931F93CF93DF937C016B0166
:104730005A01232B19F008E010E002C004E010E059
:10474000C0E0D0E0E3E09E2EF8E08F2EFE01EC7F8B
:10475000EA0DFB1D40815181F701208131812C0D33
:104760003D1D2C0F3D1F2C313105D9F1B8F42031FE
:10477000310509F451C050F42830310509F053C017
:10478000CA0190934D0380934C0346C024313105F8
:1047900009F442C02831310581F045C02832310585
:1047A00019F120F424323105F9F03DC02C323105E5
:1047B00001F12833310531F136C040FF2DC0809121
:1047C000520381FD33C082608093520347E050E082
:1047D00060E070E08CE596E00E945B2A97FF1CC0C9
:1047E00027C04093530318C050934F0340934E0388
:1047F00013C04093D6038091D803843069F490921B
:10480000D80308C04093D5038091D803893021F4A0
:104810008092D8030E9478232496C017D10708F409
:1048200095CFC80105C08FEF9FEF02C080EF9FEFCB
:10483000DF91CF911F910F91FF90EF90DF90CF907C
:10484000BF90AF909F908F900895009711F0599A64
:1048500001C05998519A892B19F0599A599A51982F
:10486000089581E090E00E94252480914803909172
:104870004903019697FD0196959587950C94D32948
:10488000589A509A589A589A509880913209909113
:104890003309A0913409B091350920914A03309130
:1048A0004B03280F391F489910C08091320990910D
:1048B0003309A0913409B0913509A901481B590B5E
:1048C00057FFF1CF82E99FEF0895809148039091BF
:1048D00049030E94D32980E090E00895CF93C82F28
:1048E00080E090E00E942524809148039091490344
:1048F000019697FD0196959587950E94D3290E9470
:10490000402481E090E00E9425248091480390910A
:1049100049030E94D329C0935203C13011F08BE0A8
:1049200001C080E08093D803CF910C9467225898FF
:10493000509A809148039091490397FD019695956F
:1049400087950C94D329EF92FF920F931F93CF93E7
:10495000DF93C7E0D0E0E82EF12CC7010C2E02C097
:10496000959587950A94E2F7817099270E942524EE
:104970008091480390914903019697FD0196959582
:1049800087950E94D3290E94402497FF03C082E9A3
:104990009FEF15C00E9497242197F8F60E943124BA
:1049A0000E94402497FDF3CFC9B10E949724C1FB18
:1049B000002700F910E088279927801B910BDF91D1
:1049C000CF911F910F91FF90EF9008950F931F9338
:1049D000CF93DF93FC01848195819927009749F05B
:1049E0008130910509F028C1109252031092D8032A
:1049F0002FC18AEF90E090934B0380934A038AE0A3
:104A000090E090934903809348038091D80390E00D
:104A10008B30910508F01CC1FC01E350FF4C0C9455
:104A2000A73080E090E00E94252480914803909177
:104A300049030E94D3290E94972481E009C08091F4
:104A40004C030E94A32497FF02C080E8EFC082E0DD
:104A50008093D803DF91CF911F910F910C9478230D
:104A600080914E0390914F03892B59F1109251037D
:104A70001092500383E0ECCFE091D703F0E0E85BC5
:104A8000FC4F84850E94A32497FDDFCF2091500323
:104A9000309151032F5F3F4F3093510320935003C8
:104AA0006091D7036F5F6F776093D70340914E0398
:104AB00050914F038091D6032417350721F480933A
:104AC000D70385E0C5CF90E0861B91098F779927A2
:104AD0008430910519F40E94672202C0892B11F0DD
:104AE00083E09DC084E09BC080914C0380FF9DC00B
:104AF0000E9431240E94402480E090E00E942524FE
:104B000080914803909149030E94D3290E949724E1
:104B100086E09ECF80914C0381600E94A32497FD84
:104B200094CF87E095CF109251031092500388E004
:104B30008FCF0091500310915103C80101969093BB
:104B4000510380935003085B1C4FF80114860E94A8
:104B50003124C0E0D0E0045F1F4F0E94402497FF43
:104B600016C0C1E0D0E020915003309151038091F4
:104B70004E0390914F032817390711F0C0E0D0E0A1
:104B8000209719F580E090E00E9425241EC0F801CE
:104B90008081880F8083499B02C081608083589800
:104BA000509A3091480320914903832F922FC730A8
:104BB000D10521F497FD0196959587950E94D329FB
:104BC0002196C830D10549F6CCCF80914803909109
:104BD0004903019697FD0196959587950E94D329E3
:104BE0000E94402497FF0E949724CD2B11F08AE069
:104BF0002FCF2091D5038091D40390E0809590959C
:104C0000820F911D8F7799278C31910519F40E949D
:104C1000672202C0892B11F088E001C089E0DF9192
:104C2000CF911F910F910C94802381E0DF91CF9160
:104C30001F910F910C946E249F938F9389EF97E6A9
:104C40009F938F930E949E260F900F900F900F902E
:104C5000DF91CF911F910F91089500005353004BA6
:104C6000435349534F4D4F53494D00384F49003935
:104C70004F4930314F4931314F490000434E000018
:104C8000434E0000434E0000434E0000434E0000E0
:104C9000434E0000354433314F49004C43530041EB
:104CA0004453314458523144585400003444444C25
:104CB000585432314F49000036440000434E000042
:104CC000434E425748230000434E0000434E00002D
:104CD000434E4B4853480000434E0000354100000E
:104CE00034410000434E0000434E000033410000B9
:104CF00032410000314100003041CF93DF93AB01DE
:104D0000BC0189ED93E00E94AC26EC0189ED93E0B3
:104D10000E94D928CE01DF91CF910895CF93DF93E0
:104D2000CDB7DEB7AE01475F5F4F6F8178858D816C
:104D30009E810E94AC26DF91CF910895CF93DF939F
:104D4000CDB7DEB7FE01359681919191BF010E94EA
:104D50007D26DF91CF9108952F923F924F925F92DF
:104D60006F927F928F929F92AF92BF92CF92DF927B
:104D7000EF92FF920F931F93CF93DF93CDB7DEB7E0
:104D800064970FB6F894DEBF0FBECDBF3C017C8B9D
:104D90006B8BDA019C01AE014F5F5F4F7A01E0E15E
:104DA0002E2E312CEB89FC898491882309F4ECC0E8
:104DB000853209F05FC0AA24A394B12C60E2462E8C
:104DC000512C7AE0C72ED12CEB89FC893196FC8BD3
:104DD000EB8B8491843609F45DC0A8F48A3229F102
:104DE00038F4882309F4D0C0853209F443C021C0C7
:104DF000883509F44CC0833631F18033D1F440E377
:104E0000442E512CE1CF803709F441C038F48E365E
:104E100009F4B4C0A0F58936E9F10BC08537D1F1AA
:104E20008837A9F18337B1F004C0CD90DC90119799
:104E300012969FEC980F993038F6A82EB12CF0E31B
:104E4000AF1AB108C1CF8C91F90180832F5F3F4F1A
:104E5000129694C0FD01408151811296C9019C01B6
:104E6000FA016191AF01662309F488C0FC016193E6
:104E7000CF01F5CFF90180832F5F3F4F7FC0FAE06C
:104E8000CF16D10439F488E0C82ED12C03C090E1AC
:104E9000C92ED12CAD014E5F5F4F5A8B498B8D913E
:104EA0009C9197FF0AC05AE0C516D10431F4919540
:104EB0008195910901E010E002C000E010E0FE01E0
:104EC00071964F01A4014E195F09009791F08E145D
:104ED0009F0461F0B6010E945D30DC01A85DBE4F09
:104EE0008C91F40182934F01CB01ECCF40E050E074
:104EF00007C04031510521F4F0E3F88B4FE050E05A
:104F00000115110581F080E24816510451F4415019
:104F10005109D701A40FB51F9DE29C9300E010E05A
:104F200002C001E010E0C1018A199B09800F911FA6
:104F3000841795073CF441505109D701A40FB51FC0
:104F40004C92F6CF012B39F041505109D701A40FF3
:104F5000B51FEDE2EC93C101841B950BD901B7019C
:104F6000640F751FFB0160816D934F5F5F4F403190
:104F70005105A9F7280F391FA989BA89EB89FC893E
:104F80003196FC8BEB8B0ECFF9011082C90186198B
:104F9000970964960FB6F894DEBF0FBECDBFDF91C0
:104FA000CF911F910F91FF90EF90DF90CF90BF9026
:104FB000AF909F908F907F906F905F904F903F90B9
:104FC0002F90089582E189BD09B400FEFDCF0895B8
:104FD00084E085BD8AEF87BD81E080936E000895EF
:104FE00080EA8093D800089580E98093D8000895DE
:104FF00081E88093D7000895FC01DB012D91BD016C
:1050000021932111FACF08959C01F9012F5F3F4FA1
:1050100040814111FACF9F01281B390BC901089526
:105020009C01680F791FF9012617370729F49F01A2
:10503000281B390BC90108952F5F3F4F4081411153
:10504000F2CFF5CFFB01DC012D91CD01319123177A
:1050500029F0231740F48FEF9FEF08952111F3CF2C
:1050600080E090E0089581E090E00895FB01480F12
:10507000591F8417950789F0DC012D91CD013191DD
:10508000231729F0231730F48FEF9FEF0895211194
:10509000F0CF03C081E090E0089580E090E00895B3
:1050A000CF93DF939C01262B372B20FD1BC0FB01E8
:1050B000DC019A012230310538F0C191D191CD93B4
:1050C000DD9322503109F6CF9A0136952795F901E3
:1050D000EE0FFF1F4E1B5F0BDC01AE0FBF1F6E0FED
:1050E0007F1F01C0DC01FB01460F571FE417F507C6
:1050F00019F021912D93FACFDF91CF910895CF929E
:10510000DF92EF92FF920F931F9380FD23C06B01FC
:10511000DD24EE24D7FCE094FE2C3E2D2D2D1C2DFD
:1051200000270C291D292E293F29DC01FA01E23034
:10513000F10520F00D931D933297F9CFFA01F69502
:10514000E7959F01220F331F421B530BF901E80F14
:10515000F91F01C0FC014E0F5F1FE417F50711F0A6
:105160006193FBCF1F910F91FF90EF90DF90CF9055
:1051700008950895CF93DF9300D0CDB7DEB79A831B
:1051800089830A9721F48DE090E00E94BA288091EB
:10519000EC049091ED04009739F041E050E0BE013D
:1051A0006F5F7F4F0E9452070F900F90DF91CF915A
:1051B0000895CF93DF93EC018991882321F090E04B
:1051C0000E94BA28F9CF80E090E0DF91CF91089556
:1051D0001F93CF93DF93FC0120812B3239F02D32C6
:1051E00081F0E0E0F0E020E030E004C0E0E0F0E05A
:1051F00021E030E0EC01C20FD31F20E030E0A90134
:1052000003C0E1E0F0E0F4CF199180ED810F8A3026
:1052100078F4AAE0B0E00E9452309B01AC01210F6B
:10522000311D411D511D2053310941095109ECCF58
:10523000EF2B41F066277727CB01621B730B840BA2
:10524000950B02C0CA01B901DF91CF911F9108955A
:105250000F931F93CF93DF938C01DC01ED91FC91B1
:105260000995EC01009781F0DF938F931F930F93C3
:105270008AE698E69F938F930E949E260F900F9048
:105280000F900F900F900F90CE01DF91CF911F9153
:105290000F910895CF93DF93C8E0D2E082E0C83148
:1052A000D80728F4CE010E9428292296F7CFC8E01B
:1052B000D2E082E0C830D80728F4CE010E94282925
:1052C0002296F7CF80E090E0DF91CF9108950F9381
:1052D0001F934091320950913309609134097091C4
:1052E00035094F5F5F4F6F4F7F4F0091320910912B
:1052F0003309209134093091350904171507260721
:10530000370799F79C01121613061CF42150310936
:10531000FACF8091320990913309A0913409B0916C
:105320003509841B950BA60BB70B1F910F910895A0
:10533000EF92FF920F931F93CF93DF93C0E0D2E0E1
:1053400000E012E0CE010E946729892B29F4C00FEA
:10535000D11F000F111FF6CFD595C795159507954D
:10536000159507950115110589F07E01E00EF11ED6
:10537000C7010E946729892B09F07E0117FF02C02F
:105380000F5F1F4F15950795E701ECCFD0933E04B3
:10539000C0933D0480E090E0DF91CF911F910F9189
:1053A000FF90EF900895CF93DF93FC01C0913D04EF
:1053B000D0913E0420E137E2C29FC001C39F900D0F
:1053C000D29F900D112460EA7FE00E947130E1319C
:1053D00087E2F80750F09B01121613061CF42150C7
:1053E0003109FACFE051F742F2CFEC9FC001ED9FB7
:1053F000900DFC9F900D112460EA7FE00E945D30CB
:105400006115710519F061507109FACFDF91CF91E3
:1054100008950F931F93CF93DF93C8E2D6E086E001
:10542000CC36D807D8F544E050E0BE018FE594E0D3
:105430000E94463000915F041091600480916104E5
:10544000909162040817190739F148E050E0B8015B
:1054500087E594E00E9446306091590470915A04A7
:1054600046E050E081E594E00E94463081E594E01A
:1054700090935A0480935904D0935804C0935704CE
:10548000E0915104F0915204309719F087E594E0CF
:105490000995085F1F4FD2CF2496C1CF80E290E0DC
:1054A0009093E4048093E30480E090E0DF91CF9157
:1054B0001F910F910895CF93CFB7F894E091E7042F
:1054C000F091E8044091E3045091E4044150510903
:1054D0009F0120953095A091E504B091E6042A0F34
:1054E0003B1F24233523232B21F4CFBF84EF9FEFD1
:1054F00016C09F012F5F3F4F242335233093E804CC
:105500002093E704CFBFEE0FFF1FEE0FFF1FED59F3
:10551000FB4F738362839183808380E090E0CF911F
:105520000895CF92DF92EF92FF920F931F93CF9344
:10553000DF930091E3041091E4040150110980917C
:10554000E7049091E8042091E5043091E604821B81
:10555000930B08231923C12CD12CC016D1060CF0B3
:105560005CC0C091E504D091E604CC0FDD1FCC0FE8
:10557000DD1FCD59DB4F6881798144E050E08DE437
:1055800094E00E944630E0904D04F0904E048091EB
:105590004F0490915004E816F90651F148E050E0AC
:1055A000B70185E494E00E94463060914704709111
:1055B000480446E050E08FE394E00E9446308FE3D9
:1055C00094E090934804809347048A819B81909350
:1055D0004A0480934904E0914104F09142043097D9
:1055E00019F085E494E0099588E0E80EF11CCFCF2E
:1055F0008091E3049091E40401972091E5043091B7
:10560000E6042F5F3F4F822393239093E604809319
:10561000E5048FEFC81AD80AA0CFDF91CF911F9170
:105620000F91FF90EF90DF90CF9008954F925F928F
:105630006F927F92AF92BF92CF92DF92EF92FF92E2
:105640000F931F93CF93DF93CDB7DEB762970FB65B
:10565000F894DEBF0FBECDBF8C015B017C01EE0C68
:10566000FF1CF701E45EF649C590D490B70164527F
:10567000774942E050E0CE0141960E9446302989A8
:105680003A89DE01119680E090E08C159D056CF45E
:10569000F90145915591659174914D935D936D9389
:1056A0007D9301962C5F3F4FF0CF28E030E0201B28
:1056B000310B81E090E002C0880F991F2A95E2F734
:1056C000E0E0F1E0E81BF90BF7FD7F9615E0F595BA
:1056D000E7951A95E1F7EE0FFF1FEE0FFF1FEA5C4B
:1056E000F64FDE01119680E090E08C159D050CF0E0
:1056F0006BC041905190619071904D915D916D9111
:105700007D9144215521662177214115510561057F
:10571000710509F457C0F701E453F7492591349115
:10572000DB01CA01AA27BB27892B8A2B8B2B31F4DB
:10573000AB016627772781E190E002C081E090E02D
:10574000411105C0452F562F672F772708966A010C
:105750007B01EFE0CE22DD24EE24FF24CD28CE28ED
:10576000CF2841F4F4E07695679557954795FA95DB
:10577000D1F704966A017B01F3E0CF22DD24EE2409
:10578000FF24CD28CE28CF2841F4E2E07695679516
:1057900057954795EA95D1F7029640FF01960197F4
:1057A000821B930B02C0880F991F0A95E2F7F5013F
:1057B0009183808323E0880F991F2A95E1F7805D0C
:1057C0009A4F04C0019691CF80E090E062960FB6A8
:1057D000F894DEBF0FBECDBFDF91CF911F910F9127
:1057E000FF90EF90DF90CF90BF90AF907F906F9041
:1057F0005F904F900895CF9328E030E0261B370B41
:1058000041E050E002C0440F551F2A95E2F720E026
:1058100031E0241B350B02C0959587956A95E2F718
:10582000280F391FCFB7F894F90137FD7F9645E06F
:10583000F595E7954A95E1F7EE0FFF1FEE0FFF1F75
:10584000EA5CF64FC90160E270E00E94713041E00D
:1058500050E060E070E004C0440F551F661F771FE2
:105860008A95D2F780819181A281B381842B952B77
:10587000A62BB72B80839183A283B383CFBFCF9115
:105880000895CF9328E030E0261B370B41E050E02D
:1058900002C0440F551F2A95E2F720E031E0241B97
:1058A000350B02C0959587956A95E2F7280F391F49
:1058B000CFB7F894F90137FD7F9665E0F595E79548
:1058C0006A95E1F7EE0FFF1FEE0FFF1FEA5CF64F40
:1058D000C90160E270E00E94713041E050E060E098
:1058E00070E004C0440F551F661F771F8A95D2F7DA
:1058F000409550956095709580819181A281B3818A
:1059000084239523A623B72380839183A283B38323
:10591000CFBFCF910895CF92DF92EF92FF920F9376
:105920001F93CF93DF9300D0CDB7DEB76C018B010F
:10593000BE016F5F7F4FC8010E94162B892B31F18A
:10594000B80189819A810E94412C780181E0E81A8E
:10595000F108B70189819A810E94FB2B21E030E098
:105960000E2C02C0220F331F0A94E2F789819A811C
:10597000B701822793270E94FB2B0C191D090230C7
:10598000110524F0B701C6010E948B2C0F900F90D7
:10599000DF91CF911F910F91FF90EF90DF90CF900B
:1059A00008956F927F928F929F92AF92BF92CF9203
:1059B000DF92EF92FF920F931F93CF93DF93805369
:1059C0009540C0E0D0E027E030E040E054E0F9014D
:1059D000EC1BFD0BDA0102C0B595A795EA95E2F73D
:1059E000A617B70734F42196C830D10581F7CFEF59
:1059F000DFEF8115B4E09B0718F089EA98E60DC047
:105A00009E0121503109AC0102C0559547952A9558
:105A1000E2F740FF09C084E898E69F938F930E94C5
:105A20009E260F900F9070C08C0153E0159507953E
:105A30005A95E1F7BE01C8010E94FB2B68E0E62EF3
:105A4000F12CEC1AFD0A88248394912CA12CBB2400
:105A5000B394C730D10509F457C0C4010C2E02C05D
:105A6000880F991F0A94E2F76C01C026D126940191
:105A70000E2C02C0220F331F0A94E2F7D501A21B9D
:105A8000B30B9D01A6010C2E02C0559547950A94B3
:105A9000E2F7240F351FAFB7F894F90137FD7F9671
:105AA000B5E0F595E795BA95E1F7EE0FFF1FEE0F1C
:105AB000FF1FEA5CF64F4081518162817381AFBF65
:105AC000E1E0EE1AF1082F71332704C0769567954F
:105AD000579547952A95D2F741705527452BA1F048
