:1000000032C00000000000000000000000000000FE
:1000100000000000000000000000000000000000E0
:1000200000000000000000003DC000007DC0000096
:1000300000000000000000000000000000000000C0
:1000400000000000000000000000000000000000B0
:10005000000000000000000000000000C3C200001B
:10006000000044C2E6C111241FBECFEFDAE0CDBFCD
:10007000DEBFEBEEFEE600E7A0E0B1E0E336F0071E
:100080001CF425902D92FACFA0E8B2E009E0A0364A
:10009000B00714F41D92FBCF0E94F51478940E94CF
:1000A0001908E1CF1F920F920FB60F9211248F9370
:1000B0009F938091E1001092E10083FF13C01092A2
:1000C000E90091E09093EB001092EC0092E19093A4
:1000D000ED0098E09093F00010926E011092700184
:1000E00010926F0182FF19C080916E01882379F010
:1000F00080917801882359F081508093780188237A
:1001000031F484E08093E9008AE38093E80083E09F
:100110008093E90084E08093F0009F918F910F908D
:100120000FBE0F901F9018951F920F920FB60F924F
:100130001124EF92FF920F931F932F933F934F93AE
:100140005F936F937F938F939F93AF93BF93EF933F
:10015000FF93DF93CF930F92CDB7DEB78091F4007A
:1001600083FF14C083E08093E9008091E80082FF60
:1001700008C08AE492E066E776E047E050E00E943B
:1001800018068091E800887F8093E8001092E900CB
:100190008091E80083FF32C12091F1003091F1009D
:1001A0008091F100E82EFF244091F100942F80E02F
:1001B000E82AF92A0091F10010E04091F100942F13
:1001C00080E0082B192B6091F100A091F10082EFE3
:1001D0008093E800363009F059C08DEB95E69C011C
:1001E00025503040FC013797459154914E155F05DD
:1001F000F9F4F9014591549140175107C9F42E5F64
:100200003F4FF901859194912E5F3F4FF901249161
:10021000462F50E07A2F60E0462B572B4F3F510579
:1002200019F010F04FEF50E0421750F4242F08C09F
:100230000796295F3F4FF5E6873E9F0799F6DEC098
:10024000AEEF4091E80050E0BA0165707070611542
:100250007105B9F342FDD5C0322F213108F030E1EC
:10026000AC01632F07C0FA014F5F5F4FE491E09349
:10027000F10061506623B9F7830F911D231BA093F2
:10028000E8002223F1F63031E1F2BBC0353051F401
:100290008EEF8093E8000E94190B8E2D806880936A
:1002A000E300AFC0393061F5222309F0A7C0E09226
:1002B0006E011092700110926F01109278018EEF12
:1002C0008093E80041E080EE95E64093E900FC0170
:1002D0000196E491E093EB00EE2369F09C012F5F1F
:1002E0003F4FFC0184918093EC00C9010196F90114
:1002F00024912093ED004F5F453039F78EE179C0AE
:10030000383051F4203809F079C00E94190B8091DF
:100310006E018093F1004AC0313279F4213A09F03C
:100320006DC00E94190BE1E7F1E081918093F1002B
:1003300021E0E837F207C9F739C03032A1F42132A1
:1003400009F05CC08091E80082FFFCCFE1E7F1E0BA
:100350008091F100819331E0E837F307C9F78BEF23
:100360008093E80023C0323251F4213209F046C0B4
:10037000F0927001E0926F010E94190B17C03323B5
:10038000C9F429830E94190B2981223851F4009362
:10039000E9009091EB0081E095FF80E01092E90088
:1003A00001C080E08093F1001092F1008EEF809305
:1003B000E80027C0313011F0333001F52230F1F47C
:1003C000E114F104D9F40F77802F81508430B0F418
:1003D0008EEF8093E8000093E900333079F089E1F3
:1003E0008093EB0081E090E002C0880F991F0A958E
:1003F000E2F78093EA001092EA0003C081E2809362
:10040000EB000F90CF91DF91FF91EF91BF91AF91F2
:100410009F918F917F916F915F914F913F912F911C
:100420001F910F91FF90EF900F900FBE0F901F90B4
:1004300018951F920F920FB60F9211242F933F938E
:100440004F935F936F937F938F939F93AF93BF93DC
:10045000EF93FF932091AA023091AB026091AC021E
:100460007091AD02A901461B570B4F715070C90125
:1004700080959095860F971F8F719070009731F43B
:1004800081E090E09093CF028093CE026091CE0005
:100490008091CE029091CF02009761F4F901E85566
:1004A000FD4F66832F5F3F4F2F7130703093AB024B
:1004B0002093AA024115510541F484E592E066E7D4
:1004C00076E047E050E00E941806FF91EF91BF915F
:1004D000AF919F918F917F916F915F914F913F91DC
:1004E0002F910F900FBE0F901F9018951F920F9293
:1004F0000FB60F9211242F933F934F935F936F93F7
:100500007F938F939F93AF93BF93EF93FF93AEB57A
:10051000A530F1F420911C0530911D0580911A053C
:1005200090911B05821B930B8F709070009771F058
:10053000F901E050FB4F868D8EBDC90101968F7089
:10054000907090931D0580931C053BC01EBC39C064
:100550002091020530910305609104057091050515
:10056000A901461B570B4F705070C901809590959B
:10057000860F971F8F709070009731F481E090E0A4
:100580009093170580931605809116059091170595
:10059000009761F4F901E050FB4FA6832F5F3F4FB6
:1005A0002F703070309303052093020541155105DB
:1005B00041F48EE592E066E776E047E050E00E9485
:1005C0001806FF91EF91BF91AF919F918F917F910D
:1005D0006F915F914F913F912F910F900FBE0F90B0
:1005E0001F9018951F920F920FB60F9211242F9300
:1005F0003F934F935F936F937F938F939F93AF93AB
:10060000BF93EF93FF938091300990913109A091AE
:100610003209B09133090196A11DB11D80933009B3
:1006200090933109A0933209B09333098EE596E097
:1006300060E070E047E050E00E94282BFF91EF91CE
:10064000BF91AF919F918F917F916F915F914F91EA
:100650003F912F910F900FBE0F901F901895FE069F
:100660000E07F606FE060E070E070E070E071E07FC
:100670001E071E071E070E0716070E070E071E078A
:10068000260726072E0736073E0716071E072E07E2
:1006900036073E07460746074E0756075E074E07D2
:1006A00056079101130D070DAC0168145C141A0272
:1006B000C9304F2F1F02232F172F2702F92EED2E9F
:1006C0002F02792FE12E0000000000000000000042
:1006D000000000000000000000000000000000001A
:1006E000000000000000000000000000000000000A
:1006F00000000000000000002B650000000000006A
:100700002565000000000000B0650000000000004A
:10071000A46500000000000086680000E2020000FE
:10072000316500000000000080680000E202000067
:100730006C6A0000000000007A6900000000000000
:10074000086B000000000000BD6E0000EE04000019
:10075000B76E0000EE040000AA6500000000000073
:100760000000070707070000000000000707070751
:100770000000070007070000000000000000070756
:10078000000007070707000000000000000000004D
:100790000000000000000000000000000000000059
:1007A00000000000000000000000000000008EE5D6
:1007B00096E060E070E047E050E00E94282B08954A
:1007C00083B7817F83BF83B7816083BF889583B7F9
:1007D0008E7F83BF089500D000D08CEE94E6EDB7F5
:1007E000FEB79283818388E191E0948383830E94A2
:1007F0005E270F900F900F900F900E94602B0E9429
:10080000E003FBCF00D000D081E295E6EDB7FEB764
:100810009283818380E291E0948383830E945E27A8
:1008200080E892E09093810280938002909383020B
:10083000809382020F900F900F900F9080E090E0D5
:100840000895AF92BF92CF92DF92EF92FF920F93F3
:100850001F93CF93DF93C0918002D091810226979E
:100860000E811F8106501040E12C91E0F92EC12C21
:1008700082E0D82E4CC08091300990913109A0912E
:100880003209B091330928813981821B930B97FD7E
:1008900043C06C817D8182E696E047E050E00E9493
:1008A000282BAE80BF8080E8A81682E0B806C1F091
:1008B00095012650304040913009509131096091A6
:1008C000320970913309F90180819181A281B3814C
:1008D000840F951FA61FB71F80839183A283B383C4
:1008E000A885B985F501B383A283AD92BC92FF823E
:1008F000EE82D986C886CE016AE070E00E94D42DCF
:10090000F80186819781E8018C0106501040F2E0E1
:10091000CA37DF0709F0AFCFDF91CF911F910F9159
:10092000FF90EF90DF90CF90BF90AF900895EF923F
:10093000FF920F931F93CF93DF937B018C01EA010A
:100940008AE090E00E94892EFC01009709F46AC0B9
:100950008091300990913109A0913209B091330909
:100960008E0D9F1DA01FB11F80839183A283B3832F
:10097000D583C483EFB6F894A0918002B091810230
:1009800082E0A038B80791F5CF01069613969C93A4
:100990008E931297B783A683B187A08711969C93F5
:1009A0008E933CC020813181428153816D917D9134
:1009B0008D919C911397E901C61BD70BD7FF0AC0F5
:1009C000621B730B840B950B6D937D938D939C939E
:1009D000139714C0261B370B480B590B2083318308
:1009E0004283538316960D90BC91A02D16978D01CE
:1009F0000A5F1F4F82E000381807A1F6CF01069664
:100A00001896CD91DC91199719969C938E9318970F
:100A100017830683D187C08799838883EFBE20E040
:100A200030E002C024EF3FEFC901DF91CF911F9169
:100A30000F91FF90EF900895CF93DF93FC01C48155
:100A4000D581EA81FB818E819F8109959F838E8369
:100A500088859985AA85BB852C853D854E855F85D2
:100A6000820F931FA41FB51F8C879D87AE87BF87FA
:100A70002091300930913109409132095091330968
:100A8000B901681B790B77FD09C0DA01C90101962C
:100A9000A11DB11D8C879D87AE87BF876C857D8525
:100AA0008E859F85621B730B840B950BAE010E9494
:100AB0009704DF91CF910895EF92FF920F931F93C8
:100AC000CF93DF93E0903009F09031090091320923
:100AD00010913309C8E6D2E008C0EC81FD8130975F
:100AE00019F08E819F810995609682E0C837D807FA
:100AF000A0F3C8E6D2E01AC06C857D858E859F85FF
:100B00006E0D7F1D801F911F6C597F4F8F4F9F4F20
:100B10006C877D878E879F876E197F09800B910B6D
:100B2000AE010E94970497FD08C0609682E0C83726
:100B3000D80710F320E030E002C02FEF3FEFC901EB
:100B4000DF91CF911F910F91FF90EF9008950F9338
:100B50001F93DF93CF93CDB7DEB72A970FB6F894E4
:100B6000DEBF0FBECDBFDC0114960D911C91159711
:100B7000C8010896F80122853385A085B1851396B2
:100B80003C932E931297F901B183A083D801199653
:100B90009C938E9318971B969C938E931A971696F8
:100BA000ED91FC911797CF01069626813781281782
:100BB000390771F462817381CE0101964AE050E0F9
:100BC0000E94C131EF81F885309711F0C801099575
:100BD000F801178216822A960FB6F894DEBF0FBE70
:100BE000CDBFCF91DF911F910F910895EF92FF92AA
:100BF0000F931F93CF93DF938C01C0E4D2E00AC020
:100C000068817981F801808191810E94F52800979F
:100C100039F02A96F2E0C836DF0790F3C0E0D0E062
:100C2000CE01DF91CF911F910F91FF90EF9008952A
:100C3000CF92DF92EF92FF920F931F93CF93DF93A8
:100C40007B018A01FC01C681D7812097A9F02897F2
:100C500026E0C22ED12CC80ED91E09C0C701BE0184
:100C6000A8010E94282B0884D985C02D2897CE0181
:100C700008968C159D0591F7DF91CF911F910F91EB
:100C8000FF90EF90DF90CF9008958F929F92AF9258
:100C9000BF92CF92DF92EF92FF920F931F93DF9359
:100CA000CF93CDB7DEB72A970FB6F894DEBF0FBE4D
:100CB000CDBF4C015B018A016115710519F486E114
:100CC00090E025C08CE090E00E94892E6C017C01B0
:100CD000009739F487E190E09093ED048093EC0461
:100CE0006AC0DC0111969C928E9215961C930E930D
:100CF00014971396BC92AE9212970E94F6058C013F
:100D0000009761F4F6011782168286E090E09093D6
:100D1000ED048093EC04EE24FF244DC0D601179619
:100D20009C938E931697FC0186819781009731F4EE
:100D3000C80106969783868391878087D80112968B
:100D40006D917C911397CE0101964AE050E00E948C
:100D5000C131E981FA81309741F0C60109950097C8
:100D600021F0F60117821682D2CFC6010896D8016B
:100D70001696ED91FC91179793838283D60119966D
:100D8000FC93EE93189798012A5F3F4F1B963C9374
:100D90002E931A97F80197838683F1E0AF16B1047A
:100DA00019F486E696E002C08AE696E0B60147E0CE
:100DB00050E00E94282BC7012A960FB6F894DEBF98
:100DC0000FBECDBFCF91DF911F910F91FF90EF909C
:100DD000DF90CF90BF90AF909F908F900895CF936A
:100DE000DF93EC018E819F81009749F489E090E0C8
:100DF0009093ED048093EC042FEF3FEF18C08A81AD
:100E00009B818130910519F48EE696E002C082E75D
:100E100096E0BE0147E050E00E94282B8EE796E066
:100E2000BE0146E050E00E94282B20E030E0C901DE
:100E3000DF91CF910895CF92DF92EF92FF920F93BF
:100E40001F93DF93CF93CDB7DEB72A970FB6F894F1
:100E5000DEBF0FBECDBF8C017B016A01DC0116969F
:100E6000ED91FC911797309719F489E090E012C04A
:100E700062817381CE0101964AE050E00E94C13147
:100E8000F801828180FF04C0EB81FC81309749F436
:100E900081E090E09093ED048093EC042FEF3FEF1E
:100EA00012C0C801B701A60109959C0197FF05C0B2
:100EB00088279927821B930B02C080E090E09093D3
:100EC000ED048093EC04C9012A960FB6F894DEBFB6
:100ED0000FBECDBFCF91DF911F910F91FF90EF908B
:100EE000DF90CF900895CF92DF92EF92FF920F9311
:100EF0001F93DF93CF93CDB7DEB72A970FB6F89441
:100F0000DEBF0FBECDBF8C017B016A01DC011696EE
:100F1000ED91FC911797309719F489E090E012C099
:100F200062817381CE0101964AE050E00E94C13196
:100F3000F801828181FF04C0ED81FE81309749F480
:100F400081E090E09093ED048093EC042FEF3FEF6D
:100F500012C0C801B701A60109959C0197FF05C001
:100F600088279927821B930B02C080E090E0909322
:100F7000ED048093EC04C9012A960FB6F894DEBF05
:100F80000FBECDBFCF91DF911F910F91FF90EF90DA
:100F9000DF90CF900895EF92FF920F931F93DF930E
:100FA000CF93CDB7DEB72A970FB6F894DEBF0FBE4A
:100FB000CDBF8C017B01DC011696ED91FC9117975A
:100FC000309719F489E090E00EC062817381CE0100
:100FD00001964AE050E00E94C131E985FA853097D8
:100FE00049F481E090E09093ED048093EC042FEFBE
:100FF0003FEF11C0C801B70109959C0197FF05C0DB
:1010000088279927821B930B02C080E090E0909381
:10101000ED048093EC04C9012A960FB6F894DEBF64
:101020000FBECDBFCF91DF911F910F91FF90EF9039
:101030000895CF93DF930E945C2AC8ECD0E004C0EF
:1010400088EE93E00E949E2A21978FEFCF3FD8072A
:10105000B9F70E94EB03DF91CF910895809185024B
:10106000813071F480918A02882311F080E001C000
:1010700082E0809385028823F9F48DE391E01EC01D
:101080008EE996E060E070E047E050E00E94282B97
:1010900097FF0CC000D089E595E6EDB7FEB79283C7
:1010A00081830E945E270F900F90089581E08093C6
:1010B000850287E391E002C082E391E000D000D096
:1010C00027E335E6EDB7FEB732832183948383832C
:1010D0000E945E270F900F900F900F9008950E942E
:1010E0002E08089580918602909187020E941B0726
:1010F0000895EF92FF920F931F93DF93CF93CDB795
:10110000DEB7A8970FB6F894DEBF0FBECDBFDC01E7
:1011100014960D911C9115978091880290918902E7
:1011200008171907F9F481E080938A0280918502FB
:10113000813011F01092850285E1E82EF12CEC0E41
:10114000FD1EC801B70144E150E00E941B07AC013D
:10115000181619060CF0D3C08091EA049091EB04A4
:10116000B701C2C0D8011696ED91FC911797CF0137
:101170000696268137812817390709F4C0C0809167
:101180008602909187020817190741F080912E0975
:1011900090912F090817190709F0B1C080918402B6
:1011A000882339F080912E0990912F09081719078B
:1011B00089F480918502813069F0C801BE016F5FBA
:1011C0007F4F44E150E00E941B077C01181619066E
:1011D0001CF095C0EE24FF2480912E0990912F09D8
:1011E00008171907C1F52091860230918702FE0188
:1011F000319680E090E007C041914D3119F40E9492
:101200002E0807C001968E159F051CF42115310587
:1012100099F780918502813019F486E996E069C0DA
:10122000882361F48091880290918902009731F0BF
:10123000BE016F5F7F4FA7010E94730780918402F8
:10124000813009F45CC080918602909187020097FA
:1012500009F046C054C080918402882309F047C039
:10126000FE01319680E090E030C021912A3A61F58C
:1012700081E08093840200D000D000D0EDB7FEB7AB
:10128000319688E795E6ADB7BEB712969C938E93DC
:101290001197A0918602B091870216960D90BC918D
:1012A000A02D8D919C919383828381E491E095831D
:1012B00084830E945E27EDB7FEB736960FB6F8948A
:1012C000FEBF0FBEEDBF04C001968E159F056CF2E8
:1012D00080918402813099F08091EA049091EB042E
:1012E000BE016F5F7F4FA7010E94730708C082E8AD
:1012F00096E060E070E047E050E00E94282BA8965E
:101300000FB6F894DEBF0FBECDBFCF91DF911F9116
:101310000F91FF90EF90089580918602909187023F
:101320000E947307089580918602909187020E941F
:10133000EF06089587E491E063E070E040E050E05C
:101340000E9445069093870280938602009799F049
:101350001092840282E08093850280E591E063E050
:1013600070E040E050E00E9445069093890280932F
:101370008802009719F42DEE3FEF02C020E030E024
:10138000C90108951F93FB011FB7F89460E270E054
:101390000E940032660F771F660F771FE60FF71F58
:1013A00021E030E040E050E004C0220F331F441F32
:1013B000551F8A95D2F780819181A281B381822BBA
:1013C000932BA42BB52B80839183A283B3831FBF60
:1013D0001F9108951F93FB011FB7F89460E270E01E
:1013E0000E940032660F771F660F771FE60FF71F08
:1013F00021E030E040E050E004C0220F331F441FE2
:10140000551F8A95D2F780819181A281B381822B69
:10141000932BA42BB52B80839183A283B3831FBF0F
:101420001F9108952F923F924F925F927F928F92D9
:101430009F92AF92BF92CF92DF92EF92FF920F9363
:101440001F93DF93CF9300D000D000D0CDB7DEB78D
:101450006BE8E62E62E0F62E53E2A52EB12CCC24EA
:10146000DD2480E090E020E030E041E0442E512C8B
:1014700001C0980189010F5F1F4FF50170806091D5
:10148000A702462F50E0022E02C0559547950A94B8
:10149000E2F740FD0BC0A20102C0440F551F2A9580
:1014A000E2F79A01262B2093A70251C0F701808012
:1014B00087249924939440E050E02FE8222E22E0E4
:1014C000322E200E311E98012C563D4F3A8329832F
:1014D000F801EF55FD4FFC83EB83F10120812921B9
:1014E00079F1292D282161F1E981FA8120812921D1
:1014F00089F0F7012081292169F4CA018C0D9D1D15
:101500006AE972E04D835E830E94C20981E090E047
:101510005E814D81EB81FC812081292189F0F701D9
:101520002081292169F0CA018C0D9D1D6AE972E0B4
:101530004D835E830E94C20981E090E05E814D810F
:101540004F5F5F4F4830510511F0990CC6CFF7013E
:1015500071927F0128E030E0C20ED31E43E050E0DC
:10156000A40EB51E0530110509F083CF009741F098
:1015700086E896E06AE972E047E050E00E94282B96
:1015800026960FB6F894DEBF0FBECDBFCF91DF9188
:101590001F910F91FF90EF90DF90CF90BF90AF9091
:1015A0009F908F907F905F904F903F902F900895E5
:1015B00088329105B8F5AC014770507021E030E0F9
:1015C00002C0220F331F4A95E2F773E09595879585
:1015D0007A95E1F790E0722F7095FC01EB56FD4F84
:1015E000508157235083DC01AE55BD4F4C914723AA
:1015F0004C93DC01A057BD4F3C9137233C9360FFD7
:1016000002C0522B508361FF05C0FC01EE55FD4F17
:10161000422B408367FF09C080579D4F232BFC015D
:10162000208303C02AEE3FEF02C020E030E0C90172
:1016300008958091E80080FFFCCF089581E08093B9
:10164000D70080EA8093D80082E189BD09B400FE0A
:10165000FDCF80E98093D8001092E00010926E01D7
:101660001092700110926F018CE08093E20080E094
:1016700090E0089580E090E008950F931F9380918B
:101680006E018823A9F11FB7F89483E08093E900E5
:10169000E091F200862F972FDC0120E030E0F0E0AF
:1016A00083E00FC08093E9009091E80095FD02C0AF
:1016B0001FBF10C08093E9009091F1009D932F5FB0
:1016C0003F4F642F752FE617F7070CF4BF0126175D
:1016D000370744F383E08093E9008091F200882388
:1016E00029F48091E8008F778093E8001FBF02C043
:1016F00025EF3FEFC9011F910F910895E2EEF0E051
:101700008081877F8083089580916E0190E00895A5
:1017100080916F019091700108951F93DC01809179
:101720006E01882309F41BC12FB7F89484E08093DD
:10173000E90080917901882341F08091E80085FDDE
:1017400002C02FBF16C01092790114E050E44AE3A2
:1017500035E0FEC08091E400875E9091E80095FD41
:1017600015C02FBF9091E400981731F481E0809369
:1017700079012BEF3FEFF5C090916E01992309F4A9
:10178000EEC02FB7F8941093E900E7CF8091F200F4
:10179000E52FE81B8E2F90E06817790708F4E62FF5
:1017A0006E1B7109F0E0E134F10508F0C5C0EB5C97
:1017B000FD4CEE0FFF1F0590F491E02D09948D91E3
:1017C0008093F1008D918093F1008D918093F100D1
:1017D0008D918093F1008D918093F1008D91809394
:1017E000F1008D918093F1008D918093F1008D91A6
:1017F0008093F1008D918093F1008D918093F100A1
:101800008D918093F1008D918093F1008D91809363
:10181000F1008D918093F1008D918093F1008D9175
:101820008093F1008D918093F1008D918093F10070
:101830008D918093F1008D918093F1008D91809333
:10184000F1008D918093F1008D918093F1008D9145
:101850008093F1008D918093F1008D918093F10040
:101860008D918093F1008D918093F1008D91809303
:10187000F1008D918093F1008D918093F1008D9115
:101880008093F1008D918093F1008D918093F10010
:101890008D918093F1008D918093F1008D918093D3
:1018A000F1008D918093F1008D918093F1008D91E5
:1018B0008093F1008D918093F1008D918093F100E0
:1018C0008D918093F1008D918093F1008D918093A3
:1018D000F1008D918093F1008D918093F1008D91B5
:1018E0008093F1008D918093F1008D918093F100B0
:1018F0008D918093F1008D918093F1008D91809373
:10190000F1008D918093F1008D918093F1008D9184
:101910008093F1008D918093F1008D918093F1007F
:101920008D918093F1008D918093F1008D91809342
:10193000F1008D918093F1008D918093F100809161
:10194000E80085FD02C04093E800309378012FBF86
:101950006115710509F0FECE20E030E002C025EFF0
:101960003FEFC9011F910895EF92FF92CF93DF934C
:10197000CB01EA01209759F480916E01882379F018
:1019800080916F019091700180FD0BC008C0BA0179
:101990000E948D0B009729F0CFEFDFEF02C0C5EF5B
:1019A000DFEFCE01DF91CF91FF90EF90089583E0BC
:1019B00090E09093CD008093CC001092AD021092F5
:1019C000AC021092AB021092AA0288E98093C9007F
:1019D00080E090E0089580E090E00895862F972FB2
:1019E000FC0180E090E008C021913091C80035FFF3
:1019F000FCCF2093CE00019684179507ACF3CA0163
:101A00000895E9ECF0E0808187768083089500D026
:101A100087E896E6EDB7FEB7928381830E945E2742
:101A20000F900F900895EF92FF92CF93DF93823043
:101A30009105D4F1DB0112968D919C9113970E9430
:101A40007431615070406330710598F000D000D05F
:101A500088EB96E6EDB7FEB7928381837483638348
:101A60000E945E270F900F900F900F90CAEEDFEF4D
:101A70001DC060939A01FB01EE0FFF1FE60FF71FD9
:101A8000EE0FFF1FE156F9492081318142815381D8
:101A900060E472E48FE090E00E9413322150304005
:101AA0003093CD002093CC00C0E0D0E080919A012B
:101AB000882351F000D084EB96E6ADB7BEB71296FE
:101AC0009C938E93119707C000D086EB96E6EDB7F6
:101AD000FEB7928381830E945E2700D000D0EDB7CD
:101AE000FEB731968BEA96E6ADB7BEB712969C93D9
:101AF0008E93119781E090E0938382838AE791E04F
:101B0000958384830E945E27EDB7FEB736960FB6A5
:101B1000F894FEBF0FBEEDBF80919A01813051F065
:101B200000D084EB96E6ADB7BEB712969C938E9329
:101B3000119707C000D086EB96E6EDB7FEB792830B
:101B400081830E945E2700D000D0EDB7FEB73196AA
:101B50008BEA96E6ADB7BEB712969C938E9311971B
:101B600082E090E09383828381E891E0958384838F
:101B70000E945E27EDB7FEB736960FB6F894FEBF0B
:101B80000FBEEDBFCE01DF91CF91FF90EF90089592
:101B9000EF92FF92CF93DF93CB016091AC027091F3
:101BA000AD0220E230E0261B370BC091AA02D09193
:101BB000AB02C20FD31FCF71D0704C175D070CF46E
:101BC000EA012C173D070CF4E901209749F1625511
:101BD0007D4FAE010E9428298091AC029091AD0208
:101BE0008C0F9D1F8F7190709093AD028093AC020B
:101BF0001092CF021092CE022091AA023091AB0235
:101C0000281B390B2F7130702115310559F084E5EF
:101C100092E066E776E047E050E00E94180602C0D6
:101C2000C5EFDFEFCE01DF91CF91FF90EF900895E8
:101C3000883091056CF440917E0021E030E002C0D4
:101C4000220F331F8A95E2F7422B40937E000895BE
:101C500040917D00089721E030E002C0220F331F41
:101C60008A95E2F7422B40937D000895CF93DF934E
:101C700080917C008F7380937C0080917C008064D5
:101C800080937C0080917A00876080937A008091B5
:101C90007A008F7780937A00C0E0D0E0CE010E9476
:101CA000180E2196C830D105C9F780E090E0DF9189
:101CB000CF910895DF92EF92FF920F931F93DC0173
:101CC0008830910508F046C0E090D002F090D10233
:101CD0000091D2021091D302E1E0F0E002C0EE0FD9
:101CE000FF1F8A95E2F79F01442737FD4095542F47
:101CF000CA01B9016E217F218023912361157105ED
:101D00008105910539F52E293F29402B512B209330
:101D1000D0023093D1024093D2025093D3029D015E
:101D2000220F331F2A0F3B1F220F331F2652394920
:101D300099F080917E00E095E823E0937E00809109
:101D40007C00807E80937C0080917C008A2B809335
:101D50007C0002C020E030E0C9011F910F91FF908C
:101D6000EF90DF9008958A5D9646959587952BEACA
:101D70003AEA829FF001839FF00D929FF00D1124AB
:101D800061E070E00E2E02C0660F771F0A94E2F742
:101D900060957095882777FD8095982F2091D002C7
:101DA0003091D1024091D2025091D30226233723A1
:101DB000482359232093D0023093D1024093D2027A
:101DC0005093D302CF010E94180E089580917A009B
:101DD000806480937A0080917A0086FDFCCF8091A8
:101DE000780090E0A0E0B0E040917900342F20E04E
:101DF000442737FD4095542F282B392B4A2B5B2B3A
:101E0000B901CA0108954150504050938700409352
:101E1000860080E090E00895809186009091870090
:101E20000196BC0180E090E00895415050405093ED
:101E300097004093960080E090E00895809196008E
:101E4000909197000196BC0180E090E00895415088
:101E50004093D10080E090E008952091D10030E0DF
:101E60002F5F3F4F442737FD4095542FB901CA01DA
:101E70000895DF93CF9300D000D0CDB7DEB748BD33
:101E800080E090E00F900F900F900F90CF91DF9136
:101E9000089568B570E080E090E00895FC01389600
:101EA00025913591459154912F5F3F4F4F4F5F4F93
:101EB000B901CA01089521E030E004B404FC02C075
:101EC00020E030E0C9010895411551056105710513
:101ED00019F084B5806102C084B58F7E84BD80E036
:101EE00090E00895BB27A72F962F852F8093890018
:101EF0004093880080E090E0089580918800909160
:101F00008900BC0180E090E008958091800021E08C
:101F100030E086FD02C020E030E0C901089541159F
:101F200051056105710521F080918000806403C036
:101F3000809180008F7B8093800080E090E0089506
:101F4000BB27A72F962F852F80938B0040938A0065
:101F500080E090E0089580918A0090918B00BC0110
:101F600080E090E008958091800021E030E084FDE1
:101F700002C020E030E0C901089541155105610516
:101F8000710521F080918000806103C08091800004
:101F90008F7E8093800080E090E00895BB27A72F7C
:101FA000962F852F80938D0040938C0080E090E0E9
:101FB000089580918C0090918D00BC0180E090E0AC
:101FC00008958091800021E030E082FD02C020E091
:101FD00030E0C9010895411551056105710521F0F1
:101FE00080918000846003C0809180008B7F80930B
:101FF000800080E090E00895BB27A72F962F852FC3
:10200000809399004093980080E090E0089580913B
:10201000980090919900BC0180E090E00895809133
:10202000900021E030E086FD02C020E030E0C901F0
:102030000895411551056105710521F080919000C9
:10204000806403C0809190008F7B8093900080E03B
:1020500090E008954093D20080E090E00895609170
:10206000D20070E080E090E008958091C10099274F
:1020700087FD9095892F881F8827881F90E00895F5
:10208000411551056105710521F08091C1008068FD
:1020900003C08091C1008F778093C10080E090E001
:1020A000089521E030E002C0220F331F8A95E2F745
:1020B000442737FD4095542F8091D5029091D60248
:1020C000A091D702B091D802282339234A235B2359
:1020D00061E070E0211531054105510511F460E022
:1020E00070E0CB0108958E5097469595879595950C
:1020F000879527EB3DE6AC01429FC001439F900DC1
:10210000529F900D11240E945110009729F0809148
:10211000D40281508093D4028091D402882329F480
:102120008091C100847F8093C1008091C2008E7F26
:102130008093C200579808951F931091D4021123E1
:1021400049F481E08093D4028091C1008B60809338
:10215000C10017C08E5097469595879595958795A0
:1021600027EB3DE6AC01429FC001439F900D529F7B
:10217000900D11240E945110009719F41F5F1093C5
:10218000D4028091C20089608093C200579A80E097
:1021900090E01F9108951F938E50974695958795CF
:1021A0009595879547EB5DE6849F9001859F300D5F
:1021B000949F300D1124122FC9010E9451100097D5
:1021C00029F08091D90281508093D9028091D9025F
:1021D000882371F4809190008D7F8093900080918E
:1021E0009100807E8093910010929700109296004B
:1021F000809190008F77809390003E9821E030E0AE
:1022000002C0220F331F1A95E2F72095309544271C
:1022100037FD4095542F8091D5029091D602A09120
:10222000D702B091D80282239323A423B5238093AD
:10223000D5029093D602A093D702B093D8021F91F3
:1022400008950F931F938E50974695958795959572
:10225000879547EB5DE6849F9001859F300D949FA5
:10226000300D1124022F1091D9021123A1F481E025
:102270008093D90280919000826080939000809139
:1022800091008A61809391008FE39CE9909397007D
:102290008093960008C0C9010E945110009719F45C
:1022A0001F5F1093D9028091900080688093900006
:1022B0003E9A21E030E002C0220F331F0A95E2F778
:1022C000442737FD4095542F8091D5029091D60236
:1022D000A091D702B091D802822B932BA42BB52BBF
:1022E0008093D5029093D602A093D702B093D802E0
:1022F00080E090E01F910F9108950E945110009787
:1023000029F08091DA0281508093DA028091DA021A
:10231000882371F4809180008D7F8093800080916C
:102320008100807E80938100109287001092860049
:1023300008951F938E509746959587959595879507
:1023400047EB5DE6849F9001859F300D949F300D93
:102350001124122FC9010E947D11E0E8F0E0808174
:10236000877F8083279821E030E002C0220F331F4F
:102370001A95E2F720953095442737FD4095542F64
:102380008091D5029091D602A091D702B091D80247
:1023900082239323A423B5238093D5029093D6025E
:1023A000A093D702B093D8021F9108951F938E5027
:1023B0009746959587959595879547EB5DE6849F1C
:1023C0009001859F300D949F300D1124122FC9016B
:1023D0000E947D11E0E8F0E080818F7D8083269867
:1023E00021E030E002C0220F331F1A95E2F720955A
:1023F0003095442737FD4095542F8091D502909118
:10240000D602A091D702B091D80282239323A423AD
:10241000B5238093D5029093D602A093D702B093B0
:10242000D8021F9108951F938E50974695958795D2
:102430009595879547EB5DE6849F9001859F300DCC
:10244000949F300D1124122FC9010E947D11E0E8E4
:10245000F0E080818F778083259821E030E002C012
:10246000220F331F1A95E2F720953095442737FD48
:102470004095542F8091D5029091D602A091D70219
:10248000B091D80282239323A423B5238093D5024D
:102490009093D602A093D702B093D8021F910895CB
:1024A0001F931091DA021123A1F481E08093DA02E4
:1024B00080918000826080938000809181008A6199
:1024C000809381008FE39CE990938700809386003E
:1024D00007C00E945110009719F41F5F1093DA0291
:1024E0001F9108951F938E509746959587959595C2
:1024F000879547EB5DE6849F9001859F300D949F03
:10250000300D1124122FC9010E945012E0E8F0E0B2
:10251000808188608083279A21E030E002C0220F0A
:10252000331F1A95E2F7442737FD4095542F8091C9
:10253000D5029091D602A091D702B091D802822BF9
:10254000932BA42BB52B8093D5029093D602A09306
:10255000D702B093D80280E090E01F9108951F93B6
:102560008E509746959587959595879547EB5DE6AF
:10257000849F9001859F300D949F300D1124122F60
:10258000C9010E945012E0E8F0E0808180628083FF
:10259000269A21E030E002C0220F331F1A95E2F79D
:1025A000442737FD4095542F8091D5029091D60253
:1025B000A091D702B091D802822B932BA42BB52BDC
:1025C0008093D5029093D602A093D702B093D802FD
:1025D00080E090E01F9108951F938E509746959547
:1025E00087959595879547EB5DE6849F9001859F3C
:1025F000300D949F300D1124122FC9010E945012EA
:10260000E0E8F0E0808180688083259A21E030E076
:1026100002C0220F331F1A95E2F7442737FD409579
:10262000542F8091D5029091D602A091D702B091FB
:10263000D802822B932BA42BB52B8093D502909399
:10264000D602A093D702B093D80280E090E01F9109
:1026500008951F938E5097469595879595958795E4
:1026600047EB5DE6849F9001859F300D949F300D70
:102670001124122FC9010E945110009729F0809156
:10268000DB0281508093DB028091DB02882319F406
:1026900084B58C7F84BD84B58F7D84BD509821E046
:1026A00030E002C0220F331F1A95E2F720953095D3
:1026B000442737FD4095542F8091D5029091D60242
:1026C000A091D702B091D80282239323A423B523EB
:1026D0008093D5029093D602A093D702B093D802EC
:1026E0001F9108950F931F938E5097469595879548
:1026F0009595879547EB5DE6849F9001859F300D0A
:10270000949F300D1124022F1091DB02112339F414
:1027100081E08093DB0284B5836084BD08C0C90179
:102720000E945110009719F41F5F1093DB0284B5CB
:10273000806284BD509A21E030E002C0220F331F36
:102740000A95E2F7442737FD4095542F8091D50232
:102750009091D602A091D702B091D802822B932BF0
:10276000A42BB52B8093D5029093D602A093D702C9
:10277000B093D80280E090E01F910F910895289ABD
:10278000239A80E090E0089580E48CBD8CB5806849
:102790008CBD80E090E008958CB58F778CBD8CB5B2
:1027A0008F7B8CBD089580911A0590911B058095B3
:1027B000909520911C0530911D05820F931F8F70FD
:1027C0009070242F352F821793070CF49C0121154C
:1027D0003105F1F0862F972FFC0180E090E014C0C6
:1027E00040911A0550911B056191DA01A050BB4F31
:1027F0005E966C935E974F5F5F4F4F705070509333
:102800001B0540931A050196821793074CF302C0EB
:1028100025EF3FEFC9010895EF92FF92CF93DF9329
:10282000CB01609104057091050520E130E0261B85
:10283000370BC0910205D0910305C20FD31FCF7093
:10284000D0704C175D070CF4EA012C173D070CF40F
:10285000E901209749F16A5F7A4FAE010E94282969
:1028600080910405909105058C0F9D1F8F709070CD
:102870009093050580930405109217051092160594
:102880002091020530910305281B390B2F70307001
:102890002115310559F08EE592E066E776E047E0D4
:1028A00050E00E94180602C0C5EFDFEFCE01DF91B5
:1028B000CF91FF90EF90089500D080EC97E6EDB7B0
:1028C000FEB7928381830E945E270F900F90089538
:1028D000AF92BF92CF92DF92EF92FF920F931F932E
:1028E000CF93DF93C0E0D0E021EFE22E27E6F22E77
:1028F0009BEEC92E97E6D92E89EEA82E87E6B82E34
:102900008E01077010700115110591F400D000D0F0
:10291000ADB7BEB71296FC92EE9211971496DC9367
:10292000CE9313970E945E270F900F900F900F90F9
:10293000899100D000D0EDB7FEB73196ADB7BEB7E4
:102940001296DC92CE921197828313820E945E27A8
:102950000F900F900F900F900730110549F400D0A1
:10296000EDB7FEB7B282A1820E945E270F900F9052
:10297000F1E0C030DF0721F600D087EE97E6ADB773
:10298000BEB712969C938E9311970E945E270F906C
:102990000F9080E090E0DF91CF911F910F91FF9019
:1029A000EF90DF90CF90BF90AF900895CF93DF93DB
:1029B000C3EAD1E0CE0162E070E040E050E00E9466
:1029C00045069093EB048093EA04CE0161E070E049
:1029D00040E050E00E94450690932F0980932E0915
:1029E00080E090E0DF91CF910895E1E6F0E080E8AB
:1029F000808310820E94BD280E94D02A0E94CB2989
:102A000080E090E00895EF92FF920F931F93DA0118
:102A1000FC0184819581FC01E60FF71FE590F5909C
:102A200005911491EC921196FC92119712960C93C9
:102A3000129713961C93139721153105C1F06C5F03
:102A40007F4F680F791FFB01259135914591549176
:102A500014962C93149715963C93159716964C93B1
:102A6000169717965C93179728E030E002C024E091
:102A700030E0C9011F910F91FF90EF900895CF931F
:102A8000DF93FA01DC011696CD91DC911797C60F02
:102A9000D71F80819181A281B38188839983AA8382
:102AA000BB832115310559F084819581A681B781B9
:102AB0008C839D83AE83BF8328E030E002C024E096
:102AC00030E0C901DF91CF910895EF92FF92CF934B
:102AD000DF93EC0100D089E798E6EDB7FEB792836B
:102AE00081830E945E270F900F90209721F000D0E5
:102AF00082E798E603C000D08CE698E6EDB7FEB713
:102B0000928381830E945E270F900F90CE01DF9108
:102B1000CF91FF90EF900895AC018FEA91E061E0D2
:102B200070E00E9445069C01009721F420912E0937
:102B300030912F09C9010895EF92FF92CF93DF934F
:102B4000E82EE7017E01F92EE701209759F1C70130
:102B50000E948C1599838883009721F400D088E522
:102B600098E618C08FEA91E062E070E0A7010E9449
:102B700045069B838A83009731F48091EA04909103
:102B8000EB049B838A838A819B81009771F400D038
:102B900083E498E6EDB7FEB7928381830E945E27B7
:102BA0000F900F902FEF3FEF02C020E030E0C901FF
:102BB000DF91CF91FF90EF900895CF93DF93DA01EB
:102BC000EC01EC81FD812115310559F4E60FF71F69
:102BD000859194918C9311969C93119722E030E00B
:102BE00009C06E0F7F1FCA0148E050E00E94C1314A
:102BF00028E030E0C901DF91CF910895CF93DF93B2
:102C0000DA01EC01EC81FD812115310539F4E60F83
:102C1000F71FE491EC9321E030E009C06E0F7F1FB5
:102C2000CA0148E050E00E94C13128E030E0C9010B
:102C3000DF91CF9108959B01BA01FC0186819781B4
:102C4000820F931F48E050E00E94282988E090E01E
:102C50000895FB01BA01DC0116968D919C9117979E
:102C60002115310559F4E80FF91FDA018D919C9176
:102C700011979183808322E030E008C08E0F9F1F60
:102C800048E050E00E94282928E030E0C90108957A
:102C9000FB01BA01DC0116968D919C9117972115C5
:102CA000310541F4E80FF91FDA018C91808321E0AE
:102CB00030E008C08E0F9F1F48E050E00E94282996
:102CC00028E030E0C90108959B01FC016481758111
:102CD000620F731FCA0148E050E00E94282988E073
:102CE00090E0089540E150E00E94730797FF0BC009
:102CF00000D088E198E6EDB7FEB7928381830E9409
:102D00005E270F900F900895FC01A681B781048083
:102D1000F581E02D6681778112968D919C911397B4
:102D20000E94721608956F927F928F929F92AF9237
:102D3000BF92CF92DF92EF92FF920F931F93DF9398
:102D4000CF93CDB7DEB7A4970FB6F894DEBF0FBE12
:102D5000CDBFDC0116960D911C9117978091E00272
:102D60009091E102009739F481E090E09093E102C4
:102D70008093E00227C0F80184899589009711F1BA
:102D80008091300990913109A0913209B0913309B5
:102D90002091DC023091DD02245F3F4F281B390B6C
:102DA00037FF10C000D08DE298E6ADB7BEB71296DF
:102DB0009C938E9311970E945E27F801158A148ABE
:102DC0000F900F908091300990913109A0913209B4
:102DD000B09133098093DC029093DD02A093DE0270
:102DE000B093DF02D801ED90FC90119794E0C92ECA
:102DF000D12CC00ED11E54968D919C915597B60141
:102E0000680F791F40E150E0481B590BC7010E9431
:102E10001B07181619068CF0009749F4C7010E9489
:102E2000EF06C8010E948C15F80191838083D801B8
:102E300055961C921E92549733C1F8012489358906
:102E4000280F391F358B248B2031310508F428C118
:102E5000158A148A6681862F8E71823009F020C10E
:102E6000858182958F7061706295607F682B70E0BC
:102E700083E0660F771F8A95E1F76D537149FEE68F
:102E80006B3E7F0770F4CE01019648E050E00E944F
:102E9000C131D80117968C91179790E086FD00C13B
:102EA00017C0F801828193812DEE3FEF4FEF5FEF66
:102EB000D80118962D933D934D935C931B971796CD
:102EC0002C911797206217962C931797B601E4C0A0
:102ED0008F71907095958795A1E0EA2EF12C02C034
:102EE000EE0CFF1C8A95E2F789809A80CC24DD24C1
:102EF000AA24BB24F9E06F2E712C6C0E7D1E29C014
:102F00006B817C816C0D7D1DC3014AE050E00E9405
:102F1000C131EB85FC858591949149855A85F801ED
:102F200024816581362F3F702417350758F02150D2
:102F300030402E0D3F1D41505040480F591F421741
:102F400053075CF40894A11CB11C8AE090E0C80E01
:102F5000D91EA814B904A4F28CC0D80117962C91DC
:102F6000179730E02078307069897A89611571058A
:102F700021F1CE01439640E150E02BA33CA30E94F7
:102F8000C131D8011796EC911797F0E0CE01019668
:102F90002BA13CA1E0FD09C0EE71F070E80FF91F14
:102FA000C288D388A0E0B0E00CC03197EE71F07019
:102FB000E80FF91FA28DB38D02C0A0E0B0E0CC24D1
:102FC000DD244F815885BA01C8010496E0E1EE2E58
:102FD000FC010190CF01FB010192BF01EA94C1F70E
:102FE000FA01838180648383C114D10499F0D801EC
:102FF00014966C91149715968C91782F7F70898513
:103000009A85681B790B4C5F5F4FCE010996F601DC
:10301000099512C01097A1F0F80164818581782F7D
:103020007F7089859A85681B790BA801485F5F4F7F
:10303000CE010996FD0109959C0197FF12C002C0BF
:103040002FEF3FEFEF81F885D80112968D919C917B
:103050001397309521953F4F442737FD4095542FC6
:1030600013C06F817885F801828193810E94721666
:1030700017C0EF81F885D80112968D919C91139716
:1030800026E130E040E050E02483358346835783D7
:10309000238120622383BF0140E150E00E94730737
:1030A000A4960FB6F894DEBF0FBECDBFCF91DF91CF
:1030B0001F910F91FF90EF90DF90CF90BF90AF9056
:1030C0009F908F907F906F9008959B0168E070E0D3
:1030D0000E9400326F5F7F4FFB01EE0FFF1FE60F74
:1030E000F71F2115310551F092A121E030E002C017
:1030F000220F331F8A95E2F7922B0AC092A121E09A
:1031000030E002C0220F331F8A95E2F72095922308
:1031100092A3089568E070E00E9400326F5F7F4FD5
:10312000FB01EE0FFF1FE60FF71F90A121E030E03B
:1031300002C0220F331F8A95E2F7922321E030E08C
:1031400011F420E030E0C901089568E070E00E94C9
:1031500000326F5F7F4FFB01EE0FFF1FE60FF71F7F
:1031600090A121E030E002C0220F331F8A95E2F7E0
:10317000922321E030E011F420E030E0C90108950D
:103180009C01FB014FB7F89460E270E00E940032AE
:10319000660F771F660F771FE60FF71F80819181FB
:1031A000A281B3814FBF2F71307004C0B695A7952F
:1031B000979587952A95D2F79C0121703070C901A7
:1031C00008958FEF9FEF08958FEF9FEF08958FEF92
:1031D0009FEF08958FEF9FEF08958FEF9FEF089572
:1031E0008FEF9FEF0895AF92BF92CF92DF92EF9251
:1031F000FF920F931F93CF93DF935B01E42EE701C0
:103200007E01F52EE7012115310521F474E0C72E6A
:10321000D12C03C061E0C62ED12C00E010E0188252
:103220007801EA0CFB1CC70168E073E00E94C0183B
:10323000009719F0888182608883C70160E173E09C
:103240000E94C018009719F0888181608883C701A7
:1032500068E173E00E94C018009719F088818068C7
:1032600088830F5F1F4F0C151D0514F42196D7CFCF
:10327000C601DF91CF911F910F91FF90EF90DF90EA
:10328000CF90BF90AF900895DC011496ED91FC9122
:10329000159780819181A281B3812091F8023091AC
:1032A000F9024091FA025091FB02822B932BA42B3E
:1032B000B52B8093F8029093F902A093FA02B09391
:1032C000FB02108211821282138284819581A68171
:1032D000B7812091FC023091FD024091FE02509195
:1032E000FF02822B932BA42BB52B8093FC0290938F
:1032F000FD02A093FE02B093FF0214821582168293
:1033000017828091F8029091F902A091FA02B0918F
:10331000FB020097A105B105B9F48091FC029091E0
:10332000FD02A091FE02B091FF020097A105B10538
:1033300059F400D08CEE98E6EDB7FEB79283818306
:103340000E945E270F900F9083EC9EE6835C9E4662
:10335000E3E095958795EA95E1F7909301038093D3
:10336000000381E090E090930303809302038EE8D2
:1033700096E060E073E047E050E00E94282B08955B
:10338000CF92DF92EF92FF920F931F93DF93CF9331
:10339000CDB7DEB728970FB6F894DEBF0FBECDBF0E
:1033A0008B01D42EC52E08501D4F2115310521F457
:1033B000B4E0EB2EF12C03C0A1E0EA2EF12CCE01FB
:1033C000019668EF72E048E050E00E9428299601DB
:1033D000832F9C2DFC0180E090E0D8012C9121935B
:1033E0001D928D0101968E159F05BCF389819A81EE
:1033F000AB81BC810097A105B10549F48D819E8107
:10340000AF81B8850097A105B10509F445C0809149
:10341000F8029091F902A091FA02B091FB02009794
:10342000A105B105C9F58091FC029091FD02A09122
:10343000FE02B091FF020097A105B10569F583EC8A
:103440009EE6835C9E46F3E095958795FA95E1F7B5
:1034500090930503809304031092070310920603D0
:103460008EE896E064E073E047E050E00E94282B8D
:10347000009791F000D000D08DEF98E6EDB7FEB741
:103480009283818382EC91E0948383830E945E2700
:103490000F900F900F900F90C70128960FB6F894D9
:1034A000DEBF0FBECDBFCF91DF911F910F91FF9077
:1034B000EF90DF90CF900895AF92BF92CF92DF92BE
:1034C000EF92FF920F931F93CF93DF938B01211500
:1034D000310521F494E0C92ED12C03C081E0C82E1F
:1034E000D12CE42EE7017E01F52EE701EE24FF2426
:1034F0005E01888181FF05C0C80168E073E00E9419
:10350000EA09888180FF05C0C80160E173E00E947C
:10351000EA09888187FF05C0C80168E173E00E945D
:10352000EA092196F5016081C80170E00E94D80A7D
:103530009C0197FD09C00894E11CF11C0F5F1F4F0F
:10354000EC14FD04ACF29601C901DF91CF911F91FB
:103550000F91FF90EF90DF90CF90BF90AF900895C4
:103560002F923F924F925F926F927F928F929F9293
:10357000AF92BF92CF92DF92EF92FF920F931F9381
:10358000DF93CF9300D000D000D0CDB7DEB73B01A2
:103590008C01F3E0000F111FFA95E1F74115510579
:1035A00011F4290103C0E8E04E2E512CEE24FF2433
:1035B0003E832D8392C0C70168E070E00E94003214
:1035C0009B014D815E814830510521F1C70160E1C9
:1035D00070E00E9400325B01AA0CBB1CA60CB71C59
:1035E000C70160E270E00E9400326B01CC0CDD1C70
:1035F000CC0CDD1CC60CD71C61E070E080E090E0D4
:1036000069837A838B839C83882499241301220EF7
:10361000331E57C0F301E60FF71F4081C8018770C2
:103620009070009799F6C8016D817E810E940032EA
:103630006F5F7F4FFB01EE0FFF1FE60FF71F42A3E7
:1036400046C08D819E818031910559F0803291056F
:1036500071F08830910509F045C0D1018C9190E05E
:1036600003C0F50180819181A0E0B0E005C0F601C2
:1036700080819181A281B3819401200F311F498102
:103680005A816B817C8184239523A623B72361E033
:1036900070E00097A105B10511F460E070E0C90188
:1036A0000E9465180894811C911C69817A818B8124
:1036B0009C81660F771F881F991F69837A838B838C
:1036C0009C838D819E81881699060CF4BACFAD81BA
:1036D000BE81EA0EFB1E0A0F1B1FE414F5040CF456
:1036E0006ACF04C02AEE422E2FEF522EC201269638
:1036F0000FB6F894DEBF0FBECDBFCF91DF911F9103
:103700000F91FF90EF90DF90CF90BF90AF909F9080
:103710008F907F906F905F904F903F902F90089583
:10372000CB01BA01A90128E030E00E94B01A089547
:10373000CB01BA01A90120E130E00E94B01A08953E
:10374000CB01BA01A90120E230E00E94B01A08952D
:10375000CB01BA01A90128E030E00E94B01A089517
:10376000CB01BA01A90128E030E00E94B01A089507
:103770002F923F924F925F926F927F928F929F9281
:10378000AF92BF92CF92DF92EF92FF920F931F936F
:10379000DF93CF9300D000D0CDB7DEB73B013C83A1
:1037A0002B838C0163E0000F111F6A95E1F741152F
:1037B000510511F4290103C028E0422E512CCC24DC
:1037C000DD2428E030E08FC0C601B9010E9400323C
:1037D0001B01F301E60FF71F8B819C81803191055E
:1037E000E9F080329105F1F08830910519F5C801B2
:1037F00087709070009781F4C8016B817C810E9472
:1038000000326F5F7F4FDB01AA0FBB1FA60FB71FF0
:1038100090968C91909701C08AEE8083AAEDBFEFBD
:10382000B183A0838AED9FEFAFEFBFEF80839183D9
:10383000A283B383882499245401EE24FF241CC05E
:10384000C701800F911F29833A830E948A18AA27F3
:1038500097FDA095BA2F0E2C04C0880F991FAA1FA0
:10386000BB1F0A94D2F7882A992AAA2ABB2A08944D
:10387000E11CF11C3A812981AB81BC81EA16FB066F
:10388000FCF2A031B10559F0A032B105A9F0A83081
:10389000B10571F5F301E20DF31D80821EC0C60172
:1038A0006B817C810E940032660F771F660D771D49
:1038B000FB019182808211C0C6016B817C810E94D4
:1038C0000032660F771F660F771F660D771DDB01CD
:1038D0008D929D92AD92BC921397EB81FC81CE0E9E
:1038E000DF1E0E0F1F1FC414D5040CF46DCF04C0CF
:1038F000AAEE4A2EAFEF5A2EC2010F900F900F90F2
:103900000F90CF91DF911F910F91FF90EF90DF907B
:10391000CF90BF90AF909F908F907F906F905F906F
:103920004F903F902F900895CB01BA01A90128E054
:1039300030E00E94B81B0895CB01BA01A90120E133
:1039400030E00E94B81B0895CB01BA01A90120E222
:1039500030E00E94B81B08956F927F928F929F92E1
:10396000AF92BF92CF92DF92EF92FF920F931F938D
:10397000DF93CF93CDB7DEB728970FB6F894DEBFAD
:103980000FBECDBF4C01762E672E8A0179014115FD
:10399000510519F4C22EDF2C03C078E2C72ED12CBA
:1039A000C4015E010894A11CB11CB501A8019701D6
:1039B0000E94B81B97FD1EC0C60168E070E00E941F
:1039C0000032C301E92FF62DD50180E090E005C05B
:1039D00031912C91232B2D93019686179707C4F3D1
:1039E000C401BE016F5F7F4FA70198010E94B01A0A
:1039F0009C0102C02FEF3FEFC90128960FB6F89443
:103A0000DEBF0FBECDBFCF91DF911F910F91FF9011
:103A1000EF90DF90CF90BF90AF909F908F907F906E
:103A20006F900895CB01BA01A90120E130E00E9416
:103A3000AC1C0895CB01BA01A90120E230E00E943C
:103A4000AC1C08956F927F928F929F92AF92BF921B
:103A5000CF92DF92EF92FF920F931F93DF93CF935A
:103A6000CDB7DEB728970FB6F894DEBF0FBECDBF37
:103A70004C01762E672E8A0179014115510519F402
:103A8000C22EDF2C03C0E8E2CE2ED12CC4015E0191
:103A90000894A11CB11CB501A80197010E94B81B94
:103AA00097FD1EC0C60168E070E00E940032C301AD
:103AB000E92FF62DD50180E090E005C031912C91E1
:103AC000232B2D93019686179707C4F3C401BE01DB
:103AD0006F5F7F4FA70198010E94B01A9C0102C03E
:103AE0002FEF3FEFC90128960FB6F894DEBF0FBE47
:103AF000CDBFCF91DF911F910F91FF90EF90DF909D
:103B0000CF90BF90AF909F908F907F906F900895CF
:103B1000CB01BA01A90120E130E00E94221D0895E5
:103B2000CB01BA01A90120E230E00E94221D0895D4
:103B30002F923F924F925F927F928F929F92AF927D
:103B4000BF92CF92DF92EF92FF920F931F93CF938A
:103B5000DF931C01F62FE72FC9014115510531F400
:103B600068E070E00E9400327B0103C018E0E12EA3
:103B7000F12CCF01892E9E2E00E010E0B1E0AB2E9B
:103B8000B12C39C0F40141904F015524C20183701A
:103B900090708330910599F16801C20CD31CC60165
:103BA0000E948A189C01C60168E070E00E94003201
:103BB000782E6F5F7F4FEB01CC0FDD1FC60FD71F35
:103BC000C601B9010E94651841FE09C029A1C501BD
:103BD00002C0880F991F7A94E2F7282B09C029A107
:103BE000C50102C0880F991F7A94E2F780952823B7
:103BF00029A30F5F1F4F0E151F0524F204C0FAEE14
:103C0000EF2EFFEFFF2EC701DF91CF911F910F9194
:103C1000FF90EF90DF90CF90BF90AF909F908F90EC
:103C20007F905F904F903F902F900895CB01BA0105
:103C3000A90128E030E00E94981D0895CB01BA0147
:103C4000A90120E130E00E94981D0895CB01BA013E
:103C5000A90120E230E00E94981D0895CF92DF92E2
:103C6000EF92FF920F931F93CF93DF937C01F62F78
:103C7000E72FC9014115510531F468E070E00E9459
:103C800000329B0102C021E030E0CF01C92EE601E5
:103C90006E01DE2EE601E0E0F0E008E010E01DC07D
:103CA000CF018E0D9F1DB8010E9400326F5F7F4FC4
:103CB000DB01AA0FBB1FA60FB71F91964C919197DE
:103CC00050E002C0559547958A95E2F740FF02C043
:103CD00082E001C081E089933196E217F30704F393
:103CE000C901DF91CF911F910F91FF90EF90DF906D
:103CF000CF900895CB01BA01A90128E030E00E94DD
:103D00002E1E0895CB01BA01A90120E130E00E94E6
:103D10002E1E0895CB01BA01A90120E230E00E94D5
:103D20002E1E08958AEE9FEF089580917A009927BC
:103D300087FD9095A92FB92F8827B7FD83959927DF
:103D4000AA27BB27FA0180839183A283B38380E0F3
:103D500090E00895FA0180819181A281B38100975A
:103D6000A105B10531F00E94360E80917A0080687D
:103D700003C080917A008F7780937A0080E090E092
:103D80000895EF92FF920F931F93DF93CF9300D08C
:103D900000D0CDB7DEB78A01CB01E6E096958795D6
:103DA000EA95E1F76F7370706C30710509F45EC0CD
:103DB0006D30710558F46430710551F1683071054A
:103DC00009F441C06115710571F07FC0643171055E
:103DD00009F478C06831710509F474C06031710567
:103DE00009F073C057C021E4298324E42A836AE0E0
:103DF00070E00E94EC31605D6B83805D8C83C80154
:103E0000BE016F5F7F4F44E050E00E9428295AC0F6
:103E1000FC01EE0FFF1FE80FF91FEE0FFF1FE65228
:103E2000F949808190E0880F991F21E030E04181BD
:103E3000442311F420E030E0822B932BAA2797FD36
:103E4000A095BA2F0DC0FC01EE0FFF1FE80FF91F60
:103E5000EE0FFF1FE652F94982819381A481B5815B
:103E6000F80180839183A283B3832CC020917A00D0
:103E700027FF2EC00E945A0E7C01009761F10E941C
:103E8000E60EF8016083718382839383C7010E94E9
:103E9000B30E18C02091D0023091D1024091D202CD
:103EA0005091D30204C056954795379527958A952A
:103EB000D2F72170307040705070F8012083318348
:103EC0004283538320E030E008C02AEE3FEF05C074
:103ED00023EF3FEF02C020EF3FEFC9010F900F909B
:103EE0000F900F90CF91DF911F910F91FF90EF9066
:103EF0000895CF92DF92EF92FF920F931F93DF937B
:103F0000CF93CDB7DEB760970FB6F894DEBF0FBE84
:103F1000CDBF6B018A019B0146E0369527954A95F6
:103F2000E1F78CE190E0289FB001299F700D389F48
:103F3000700D11242EE0E22E27E6F22EE60EF71E7B
:103F4000665E7849CE01019640E150E00E94C131A1
:103F50008FE3C822DD24A0E1CA16D10461F1B4E1E7
:103F6000CB16D10481F1ECE0CE16D104B9F5D8011D
:103F70008C9180FF06C0E981FA81C70109956C0127
:103F800006C0EB81FC81C7010995CC24DD24EF85B7
:103F9000F889309739F1D8014D915D916D917C91FF
:103FA0007695679557954795417050706070707021
:103FB000C701099517C0F801408151816281738161
:103FC000E985FA8507C0D8014D915D916D917C918D
:103FD000EB85FC85C70109956C0104C08AEEC82EEB
:103FE0008FEFD82EC60160960FB6F894DEBF0FBED5
:103FF000CDBFCF91DF911F910F91FF90EF90DF9098
:10400000CF9008958F929F92AF92BF92CF92DF92FE
:10401000EF92FF920F931F93DF93CF93CDB7DEB74D
:1040200060970FB6F894DEBF0FBECDBF5B018A016B
:104030004B0166E0969487946A95E1F78CE190E0F5
:10404000889E7001899EF00C989EF00C11245EE011
:10405000C52E57E6D52ECE0CDF1CB701665E78491B
:10406000CE01019640E150E00E94C1318FE3A822C9
:10407000BB24E8E0AE16B10409F450C0F9E0AF1675
:10408000B10448F4A114B104B1F084E0A816B1045D
:1040900009F082C020C0E0E1AE16B10409F46FC09F
:1040A000F4E1AF16B10409F46DC08CE0A816B104B8
:1040B00009F072C040C0C801B60144E050E00E945F
:1040C000C131F801808193819083838381819281C2
:1040D0009183828364C0F701EE5EF84985919591E2
:1040E000A591B491B070F80180839183A283B383CA
:1040F00029853A852115310529F0B16080839183A6
:10410000A283B3838B859C85009709F448C0F8018E
:1041100080819181A281B381B2602CC0F701EA5EF7
:10412000F84985919591A591B491F8018083918387
:10413000A283B38334C0C4010E94511021E030E057
:1041400040E050E0009719F420E030E0A901F801C8
:104150002083318342835383ED85FE853097F9F0C8
:10416000C60109950097D9F0F80180819181A2815B
:10417000B381826080839183A283B38310C0ED8179
:10418000FE8102C0EF81F885C6010995F8016083C0
:1041900071838283938303C02AEE3FEF02C020E045
:1041A00030E0C90160960FB6F894DEBF0FBECDBFF8
:1041B000CF91DF911F910F91FF90EF90DF90CF9003
:1041C000BF90AF909F908F90089521153105A9F46D
:1041D000CB0183709070009799F46C7F68527E4F8A
:1041E000FB0180819181A281B381FA018083918357
:1041F000A283B38324E030E005C02FEF3FEF02C07D
:104200002AEE3FEFC9010895009711F0769A0895BC
:104210007698089580E090E00E9404216E9A80E0F4
:1042200090E0089521E030E0009711F420E030E0C4
:10423000C9010E9404210895EF92FF920F931F93EA
:10424000FA012115310509F086C06830710541F089
:104250006C30710509F446C06430710509F07BC00B
:104260002091D8013091D9014091DA015091DB01C0
:10427000E080F180028113818091DC019091DD0169
:10428000A091DE01B091DF016430710529F4E82AC4
:10429000F92A0A2B1B2B08C0E094F0940095109586
:1042A000E822F9220A231B23E092DC01F092DD01CF
:1042B0000093DE011093DF01E094F09400951095D7
:1042C0008091E8019091E901A091EA01B091EB01A0
:1042D000E822F9220A231B23E216F3060407150736
:1042E00031F53CC08091D8019091D901A091DA01BB
:1042F000B091DB01E080F18002811381E094F094C1
:1043000000951095E822F9220A231B232091E80149
:104310003091E9014091EA015091EB01E22AF32A40
:10432000042B152BE816F9060A071B07B9F081E0E4
:1043300090E0E114F1040105110511F480E090E032
:104340000E941221E092D801F092D9010093DA0183
:104350001093DB0103C02FEF3FEF02C024E030E0F9
:10436000C9011F910F91FF90EF900895EF92FF9276
:104370000F931F93DC011496ED91FC9115978081AA
:1043800091818032910508F08DC0E090E801F090B5
:10439000E9010091EA011091EB0161E070E002C0D7
:1043A000660F771F8A95E2F7CB0180959095AA2733
:1043B00097FDA095BA2F8E219F21A023B123809332
:1043C000E8019093E901A093EA01B093EB01228107
:1043D00033812115310589F09B01442737FD409534
:1043E000542F282B392B4A2B5B2B2093E801309339
:1043F000E9014093EA015093EB018091E80190912B
:10440000E901A091EA01B091EB01E816F9060A076B
:104410001B0709F447C0E090DC01F090DD0100913A
:10442000DE011091DF01A80197012095309540959C
:104430005095282339234A235B238091D8019091FA
:10444000D901A091DA01B091DB01281739074A0799
:104450005B0741F12093D8013093D9014093DA01F1
:104460005093DB01211531054105510581F0882765
:1044700077FD8095982F6E297F29802B912B609353
:10448000DC017093DD018093DE019093DF0181E018
:1044900090E0211531054105510511F480E090E0CF
:1044A0000E9412211F910F91FF90EF900895CF93DA
:1044B000DF939B01FA0168E070E00E9400326F5FB9
:1044C0007F4FDB01AA0FBB1FA60FB71FBD016E5F99
:1044D0007F4FED01219641E050E002C0440F551F8F
:1044E0008A95E2F7309729F092968C919297842BD7
:1044F00006C092968C919297942F909589239296CC
:104500008C9392972115310519F088A1842B07C04F
:10451000FB0180A1842B80A388A14095842388A3DC
:10452000DF91CF910895CF93DF93EC0181E190E08B
:1045300061E070E0AE010E945722209741F081E1D6
:1045400090E060E070E041E050E00E945722DF918F
:10455000CF910895CF93DF93EC0180E190E061E08B
:1045600070E0AE010E945722209741F080E190E078
:1045700060E070E041E050E00E945722DF91CF916F
:1045800008958093D003882361F0843051F08930FE
:1045900041F082E996E060E070E047E050E00E9480
:1045A000282B089583EE9EE6835C9E4633E0959526
:1045B00087953A95E1F79093D2038093D10381E0F8
:1045C00090E09093D4038093D3038EE896E061ED5E
:1045D00073E047E050E00E94282B009759F000D08C
:1045E0008BEB9AE6EDB7FEB7928381830E945E273C
:1045F0000F900F900895AF92BF92CF92DF92EF92FB
:10460000FF920F931F93CF93DF935C016B017A01AD
:104610002115310519F008E010E002C004E010E0B7
:10462000C0E0D0E0FE01EC7FEE0DFF1D80819181A6
:10463000A281B381F501208131812C0D3D1D2C0F0C
:104640003D1F2C31310509F446C02D313105A8F448
:104650002031310509F458C02131310528F42830C2
:10466000310509F058C01BC02431310509F44CC094
:104670002831310509F04FC017C02832310571F1DA
:104680002932310528F42432310509F044C026C00E
:104690002C32310541F128333105E9F52CC09093D6
:1046A00045038093440330C081709070009761F19E
:1046B00080914A0381FD32C0826080934A0382E97F
:1046C00096E060E070E047E050E00E94282B9C01FB
:1046D00097FF1AC025C080934B0316C090934703E1
:1046E0008093460311C08093CE038091D003843021
:1046F00059F483E007C08093CD038091D0038930C3
:1047000019F488E00E94C1222496C017D10708F44A
:1047100089CF980105C02FEF3FEF02C020EF3FEF98
:10472000C901DF91CF911F910F91FF90EF90DF9022
:10473000CF90BF90AF9008952F923F924F925F928B
:104740006F927F928F929F92AF92BF92CF92DF92A1
:10475000EF92FF920F931F93DF93CF9300D000D07F
:10476000CDB7DEB79A8389832B013A012115310534
:1047700019F008E010E002C004E010E083EE9EE6CD
:10478000835C9E4673E0959587957A95E1F7382E80
:10479000292E20E030E060E8C62ED12CE12CF12C4F
:1047A00055EDA52E53E0B52E41EE842E4AE6942E0B
:1047B000F901EC7FE60DF71DA981BA818D919C91DD
:1047C0001197840D951D820F931F8032910509F476
:1047D0008FC081329105E0F48031910509F480C0E9
:1047E0008131910540F48830910579F18C30910543
:1047F00009F0A1C02FC08831910509F471C08C3136
:10480000910509F472C08431910509F094C068C023
:104810008C32910509F471C08D32910548F48432CF
:10482000910509F477C08832910509F084C072C0FF
:104830008433910509F467C08833910509F466C093
:104840008033910509F077C05BC08091440390915B
:10485000450364C080914A0390E0A0E0B0E080830B
:104860009183A283B3830097A105B10509F45CC0CD
:104870003092D503F50121821092D8031092D7030C
:104880008EE896E065ED73E047E050E02B833C83D3
:104890000E94282B2B813C81009779F000D0ADB786
:1048A000BEB712969C928E9211972B833C830E94E6
:1048B0005E270F900F903C812B818091D003843034
:1048C00099F1893089F182E996E061E070E047E092
:1048D00050E02B833C830E94282B2B813C8124C0F9
:1048E00010821182128213821FC080914B0310C06C
:1048F000C082D182E282F38217C08091CE0308C0C9
:104900008091CF0305C08091CC0302C08091CD037C
:1049100090E004C08091460390914703A0E0B0E08E
:1049200080839183A283B3832C5F3F4F201731078D
:1049300008F43ECF02C00FEF1FEFC8010F900F9099
:104940000F900F90CF91DF911F910F91FF90EF90FB
:10495000DF90CF90BF90AF909F908F907F906F909F
:104960005F904F903F902F90089580E090E00E94DC
:10497000AA22809140039091410362E070E00E947E
:104980000032CB010E949E2A089581E090E00E94AF
:1049900093228091400390914103019662E070E080
:1049A0000E940032CB010E949E2A0895EF92FF924E
:1049B0000F931F9381E090E00E94AA22E0903009BB
:1049C000F0903109009132091091330912C08091A1
:1049D000300990913109A0913209B09133092091A9
:1049E0004203309143032E0D3F1D281B390B37FD29
:1049F0000FC080E190E00E94A518009741F38091DC
:104A00004003909141030E949E2A20E030E002C0C2
:104A100022E93FEFC9011F910F91FF90EF90089598
:104A2000EF92FF920F931F93CF93DF93C7E0D0E0F5
:104A3000082F10E0E2E0EE2EF12CC8010C2E02C08F
:104A4000959587950A94E2F7817090700E94932261
:104A500080914003909141030196B7010E9400327A
:104A6000CB010E949E2A0E94D62497FD19C00E9465
:104A7000B52421973FEFCF3FD307F9F60E94C52415
:104A80000E94D62497FD0CC081E190E00E94A518F9
:104A9000EC010E94B524209731F420E030E005C0FD
:104AA00022E93FEF02C02FEF3FEFC901DF91CF9125
:104AB0001F910F91FF90EF9008951F93182F80E0A2
:104AC00090E00E94932280914003909141030196CF
:104AD00062E070E00E940032CB010E949E2A0E9498
:104AE000D62481E090E00E9493228091400390912F
:104AF00041030E949E2A10934A03113011F08BE06B
:104B000001C080E08093D0030E94D2221F910895BB
:104B1000EF92FF920F931F93CF93DF93DC011496D4
:104B20002C911497222339F0213009F034C11092CE
:104B30004A0380E029C18AEF90E090934303809379
:104B40004203E0E4F3E08AE090E090934103809335
:104B500040038091D003853009F470C0863050F452
:104B6000813019F1813098F0823039F1833009F0C9
:104B700027C12CC0873009F482C0873008F474C084
:104B8000883009F47FC08A3009F01AC100C180E082
:104B900090E00E94932280914003909141030E94F3
:104BA0009E2A0E94B52481E0EFC0809144030E94B8
:104BB000102597FD60C082E0E7C080914603909188
:104BC0004703009741F11186108634C0E091CF036E
:104BD000F0E0E05CFC4F84850E94102597FD4BC0FF
:104BE00020914803309149032F5F3F4F3093490391
:104BF000209348036091CF036F5F6F776093CF037B
:104C000040914603509147038091CE032417350706
:104C100021F48093CF0385E0B7C090E0861B910913
:104C20008F7790708430910519F40E94D22202C0CF
:104C3000009711F083E0A8C084E0A6C080914403EF
:104C400080FFA5C00E94C5240E94D62480E090E089
:104C50000E94932280914003909141030E949E2ADA
:104C60000E94B52486E090C08091440381600E9438
:104C7000102597FF02C080E88BC087E085C01186B1
:104C800010867FC00091480310914903C801019626
:104C900091878087005C1C4FF80114860E94C52410
:104CA000C0E0D0E0045F1F4FF2E0EF2EF12C0E9435
:104CB000D62497FD28C0D8018C91880F8C9381E170
:104CC00090E00E94A518009721F0F8018081816092
:104CD000808380E090E00E94AA22C730D10549F489
:104CE0008091400390914103B7010E940032CB01B3
:104CF00004C080914003909141030E949E2A219616
:104D0000C830D105A1F6C1E0D0E020914803309130
:104D1000490380914603909147032817390711F002
:104D2000C0E0D0E0209721F480E090E00E94932240
:104D30008091400390914103019662E070E00E94EF
:104D40000032CB010E949E2A0E94D62497FD02C009
:104D50000E94B524209711F08AE016C08091CC0300
:104D600090E0809590952091CD03820F911D8F77D3
:104D700090708C31910519F40E94D22202C00097E4
:104D800011F088E001C089E00E94C12219C081E0D1
:104D90000E945D2515C000D000D0EDB7FEB731965A
:104DA00088E99AE6ADB7BEB712969C938E93119799
:104DB000228313820E945E270F900F900F900F9016
:104DC000DF91CF911F910F91FF90EF900895000018
:104DD0005353004B435349534F4D4F53494D0038A4
:104DE0004F4900394F4930314F4931314F49000067
:104DF000434E0000434E0000434E0000434E00006F
:104E0000434E0000434E0000354433314F49004CBF
:104E100043530041445331445852314458540000E4
:104E20003444444C585432314F4900003644000059
:104E3000434E0000434E425748230000434E0000BB
:104E4000434E0000434E4B4853480000434E000081
:104E50003541000034410000434E0000434E000045
:104E600033410000324100003141000030410F93D6
:104E70001F93CF93DF939C01AB01C9EDD3E0CE012B
:104E8000B9010E946C278C01CE010E94B429C8018F
:104E9000DF91CF911F910F910895DF93CF93CDB7FD
:104EA000DEB79E01275F3F4F8D819E816F817885A0
:104EB000A9010E946C27CF91DF910895DF93CF93D2
:104EC000CDB7DEB7FE01359681919191BF010E9469
:104ED0003727CF91DF9108952F923F924F925F92A3
:104EE0006F927F928F929F92AF92BF92CF92DF92FA
:104EF000EF92FF920F931F93DF93CF93CDB7DEB75F
:104F000062970FB6F894DEBF0FBECDBF1C014E01F5
:104F10000894811C911C8C01FB0106C1853229F586
:104F200031E0A32EB12C20E2422E512C9AE0C92E62
:104F3000D12C9501DA0103C080E3482E512C319623
:104F40008491893609F466C08A36D8F4883509F424
:104F500057C0893588F48A3261F18B3250F4882346
:104F600009F4E6C0853249F5AD01D8018D938D0174
:104F7000DAC0803311F5E0CF833649F18436E9F4A5
:104F800049C08037E9F1813730F48E3609F4CAC060
:104F90008F3699F42EC08537E9F1883789F1833748
:104FA00061F4AD014E5F5F4F8D919C91BF01DA01BD
:104FB00019C0CD90DC9011971296982F915399308B
:104FC00008F0BDCF282F30E020533040B8CFAD01DE
:104FD0008C91D8018D938D014E5F5F4FA4C0F80175
:104FE00021938F01FC012191CF012223C1F7FB0105
:104FF00099C05901AD01BAE0CB16D10439F00CC00B
:105000005901AD0170E1C72ED12C06C068E0C62E53
:10501000D12C02C05901AD01CA0102969A8B898B2D
:10502000DA018D919C91119797FF0BC0BAE0CB16D6
:10503000D10439F4909581959F4F31E0E32EF12C06
:1050400002C0EE24FF2421E1622E712C6C0E7D1E25
:1050500020E130E0AF01F30138018A010BC021509B
:105060003040B6010E94EC31DC01A451BE4F8C915E
:105070008293CB01009731F02115310581F7F801BA
:10508000830109C0F80183012031310521F420E3B7
:10509000288B2FE030E0E114F10489F080E248161B
:1050A000510451F421503040D401A20FB31F9DE2AE
:1050B0009C93EE24FF2403C081E0E82EF12CD40160
:1050C000A20FB31F80E190E08A199B098E0D9F1DEE
:1050D00003C0215030404E9282179307D4F3E1145D
:1050E000F10439F021503040D401A20FB31F8DE2FA
:1050F0008C9340E150E0421B530BC401820F931F7D
:10510000D8017F0106C0FC016191CF016D932F5F33
:105110003F4F20313105BCF3F701040F151F4989BA
:105120005A8901C0AD0131968491882309F0F6CEE9
:105130009801D8011C9222193309C90162960FB651
:10514000F894DEBF0FBECDBFCF91DF911F910F91BD
:10515000FF90EF90DF90CF90BF90AF909F908F9097
:105160007F906F905F904F903F902F90089582E1D5
:1051700089BD09B400FEFDCF089584E085BD8AEFA6
:1051800087BD81E080936E00089580EA8093D80007
:10519000089580E98093D800089581E88093D7002E
:1051A0000895262F372FD901282F392FF9012D9156
:1051B00021932223E1F70895FC019F0141914423AB
:1051C000E1F7281B390BC9010895462F572FFC0121
:1051D0009F014115510529F06191415050406623CE
:1051E000B9F7281B390BC9010895FC01DB01819136
:1051F0009D91891729F0891740F42FEF3FEF07C0E1
:105200008823A9F720E030E002C021E030E0C901A6
:105210000895282F392FD901862F972FFC010DC013
:105220008D919191891729F0891758F42FEF3FEF4D
:105230000DC0882349F0415050404115510581F778
:1052400003C021E030E002C020E030E0C901089551
:10525000CF93DF939C01DC01FB01CB01822B932BCD
:1052600080FD1DC0DB01F901CA0105C0CD91DD91B2
:10527000C193D193029782309105C0F7FA01F69558
:10528000E795CF01880F991F481B590BFC01D901E5
:10529000A80FB91FE60FF71F02C081918D934150EF
:1052A00050408FEF4F3F5807C1F7C901DF91CF91B1
:1052B0000895EF92FF920F931F939C0120FD24C04D
:1052C000CB01AA2797FDA095BA2F9070A070B0705F
:1052D000EE24F82E092F1A2FE82AF92A0A2B1B2B65
:1052E000F901CA0103C0E192F1920297823091055F
:1052F000D0F7CA0196958795FC01EE0FFF1F4E1B54
:105300005F0BCF01820F931FFC0101C061934150DD
:1053100050408FEF4F3F5807C9F7C9011F910F91B8
:10532000FF90EF9008950895DF93CF9300D0CDB70D
:10533000DEB79A8389838A30910521F48DE090E06D
:105340000E9494298091EA049091EB04009739F02F
:10535000BE016F5F7F4F41E050E00E9473070F90E6
:105360000F90CF91DF910895EF92FF92CF93DF934B
:10537000E82EE7017E01F92EE70103C090E00E94CC
:10538000942989918823D1F780E090E0DF91CF9133
:10539000FF90EF900895EF92FF920F931F93CF939A
:1053A000DF93C8E0D1E006E41BE61FC0E991F99164
:1053B00009950097D1F000D000D000D0EDB7FEB72E
:1053C0003196ADB7BEB712961C930E931197E28239
:1053D000F382958384830E945E278DB79EB70696DD
:1053E0000FB6F8949EBF0FBE8DBF7E0191E0C8310D
:1053F000D907E0F2C8E0D1E006E41BE61FC0E9915E
:10540000F99109950097D1F000D000D000D0EDB708
:10541000FEB73196ADB7BEB712961C930E93119797
:10542000E282F382958384830E945E278DB79EB7C4
:1054300006960FB6F8949EBF0FBE8DBF7E0191E019
:10544000C830D907E0F280E090E0DF91CF911F9162
:105450000F91FF90EF900895FC01609130097091D9
:10546000310980913209909133096F5F7F4F8F4FDF
:105470009F4F20913009309131094091320950916C
:105480003309261737074807590799F72E2F3F2F5B
:1054900002C02150304012161306DCF3209130096F
:1054A000309131094091320950913309261B370B55
:1054B000480B590BC9010895CF92DF92EF92FF92EA
:1054C0000F931F93CF93DF9300E012E0C0E0D2E090
:1054D00004C00C0F1D1FCC0FDD1FC8010E942C2A19
:1054E0000097B9F3159507957E01F594E794F59427
:1054F000E79482E0C82ED12C0FC0E701C00FD11F66
:10550000CE010E942C2A009709F0E801C701B601DC
:105510000E9400327B018E01E114F10471F71093B7
:105520003E0400933D0480E090E0DF91CF911F9115
:105530000F91FF90EF90DF90CF9008959C01E09144
:105540003D04F0913E0440E157E2E49FC001E59F35
:10555000900DF49F900D112460EA7FE00E940032CC
:1055600006C0019718161906E4F32051374287E266
:105570002131380718F0862F972FF4CF2E9FC001C6
:105580002F9F900D3E9F900D112460EA7FE00E94B6
:10559000EC3102C06150704016161706DCF3089516
:1055A000EF92FF920F931F93CF93DF93CEE5D6E058
:1055B00087EDE82E84E0F82E38C085EE94E0BE0139
:1055C00044E050E00E94C1310091E5041091E604EE
:1055D00024C08DED94E0B80148E050E00E94C13154
:1055E0006091DF047091E00487ED94E046E050E0C4
:1055F0000E94C131F092E004E092DF04D093DE0417
:10560000C093DD04E091D704F091D804309719F0ED
:105610008DED94E00995085F1F4F8091E70490910C
:10562000E80408171907A9F6249686E0C23AD807B5
:1056300020F280E290E0909344048093430480E061
:1056400090E0DF91CF911F910F91FF90EF9008951F
:105650001F931FB7F894E0913F04F09140044091EC
:10566000430450914404415050409F01209530958F
:10567000A0914104B09142042A0F3B1F24233523FB
:105680002115310521F41FBF24EF3FEF16C09F0104
:105690002F5F3F4F242335233093400420933F0452
:1056A0001FBFEE0FFF1FEE0FFF1FEB5BFB4F738360
:1056B00062839183808320E030E0C9011F910895C7
:1056C000AF92BF92CF92DF92EF92FF920F931F9310
:1056D000CF93DF9300914304109144040150104094
:1056E00080913F0490914004209141043091420404
:1056F000821B930B08231923CC24DD2445ECA42E14
:1057000044E0B42E5AC0C0914104D0914204CC0F61
:10571000DD1FCC0FDD1FCB5BDB4F6991799183EDF2
:1057200094E044E050E00E94C131E090D304F09056
:10573000D40428C08BEC94E0B70148E050E00E940C
:10574000C1316091CD047091CE0485EC94E046E0C7
:1057500050E00E94C131B092CE04A092CD04888165
:1057600099819093D0048093CF04E091C704F09185
:10577000C804309719F08BEC94E0099588E090E02C
:10578000E80EF91E8091D5049091D604E816F9062A
:1057900089F680914304909144040197209141043B
:1057A000309142042F5F3F4F822393239093420412
:1057B000809341040894C11CD11CC016D1060CF47E
:1057C000A2CFDF91CF911F910F91FF90EF90DF90CB
:1057D000CF90BF90AF90089520E030E067E070E098
:1057E00040E054E0FB01E21BF30BDA0102C0B59587
:1057F000A795EA95E2F7A817B9073CF42F5F3F4F4A
:105800002830310579F72FEF3FEFC9010895CF9385
:10581000DF93062E02C0959587950A94E2F7805093
:105820009F4F48E050E0461B570B21E030E002C09C
:10583000220F331F4A95E2F7821B930BEFB7F894C0
:1058400060E270E00E940032EB01CC0FDD1FCC0F54
:10585000DD1FCC5CD64F21E030E040E050E004C0DA
:10586000220F331F441F551F8A95D2F7209530957C
:105870004095509588819981AA81BB818223932389
:10588000A423B52388839983AA83BB83EFBFDF91C9
:10589000CF910895CF93DF93062E02C095958795FB
:1058A0000A94E2F780509F4F48E050E0461B570BA8
:1058B00021E030E002C0220F331F4A95E2F7821B3D
:1058C000930BEFB7F89460E270E00E940032EB01B6
:1058D000CC0FDD1FCC0FDD1FCC5CD64F21E030E0BC
:1058E00040E050E004C0220F331F441F551F8A952B
:1058F000D2F788819981AA81BB81822B932BA42B1B
:10590000B52B88839983AA83BB83EFBFDF91CF91A7
:105910000895DF93CF9300D0CDB7DEB7FC01EE0F33
:10592000FF1FE855F44925913491C9010F900F905C
:10593000CF91DF9108954F925F926F927F928F92F5
:105940009F92AF92BF92CF92DF92EF92FF920F930E
:105950001F93DF93CF93CDB7DEB764970FB6F8945C
:10596000DEBF0FBECDBF7C014B010E94892C6C01B4
:105970005701AA0CBB1CB50168547449CE010196AD
:1059800042E050E00E94C13169817A818E010B5F53
:105990001F4F980140E050E010C0FB0185919591A8
:1059A000A591B491F90180839183A283B3832C5F85
:1059B0003F4F4F5F5F4F6C5F7F4F4C155D056CF342
:1059C00088E090E08E199F0921E030E002C0220FAC
:1059D000331F8A95E2F780E091E0821B930B60E22F
:1059E00070E00E940032FB01EE0FFF1FEE0FFF1F61
:1059F000EC5CF64F60E070E073C0419051906190B4
:105A00007190D8012D913D914D915D918D01242191
:105A1000352146215721211531054105510509F44C
:105A20005DC0F501E853F449859194918B839C8383
:105A3000AB81BC81CA01B90180709070611571059C
:105A40008105910531F49A0144275527E1E1F0E001
:105A500002C0E1E0F0E0222329F4232F342F452F68
:105A600055273896CA01B9016F70707080709070B8
:105A7000611571058105910541F474E056954795CE
:105A8000379527957A95D1F73496CA01B901637095
:105A9000707080709070611571058105910541F4F9
:105AA00062E056954795379527956A95D1F73296D6
:105AB00020FF3196A095B095AE0FBF1F02C0AA0F70
:105AC000BB1FEA94E2F7F401B183A08343E0AA0F7D
:105AD000BB1F4A95E1F7A25DBA4F08C06F5F7F4FC9
