:1000000032C00000000000000000000000000000FE
:1000100000000000000000000000000000000000E0
:1000200000000000000000003DC000007DC0000096
:1000300000000000000000000000000000000000C0
:1000400000000000000000000000000000000000B0
:10005000000000000000000000000000D0C200000E
:10006000000044C2E6C111241FBECFEFDAE0CDBFCD
:10007000DEBFE2E9FFE600E7A0E0B1E0E23EF00724
:100080001CF425902D92FACFA0E5B2E007E0A03253
:10009000B00714F41D92FBCF0E941F1578940E94A4
:1000A0004B08E1CF1F920F920FB60F9211248F933E
:1000B0009F938091E1001092E10083FF13C01092A2
:1000C000E90091E09093EB001092EC0092E19093A4
:1000D000ED0098E09093F00010926E011092700184
:1000E00010926F0182FF19C080916E01882379F010
:1000F00080917801882359F081508093780188237A
:1001000031F484E08093E9008AE38093E80083E09F
:100110008093E90084E08093F0009F918F910F908D
:100120000FBE0F901F9018951F920F920FB60F924F
:100130001124EF92FF920F931F932F933F934F93AE
:100140005F936F937F938F939F93AF93BF93EF933F
:10015000FF93DF93CF930F92CDB7DEB78091F4007A
:1001600083FF14C083E08093E9008091E80082FF60
:1001700008C082E292E060E976E047E050E00E9449
:100180004A068091E800887F8093E8001092E90099
:100190008091E80083FF32C12091F1003091F1009D
:1001A0008091F100E82EFF244091F100942F80E02F
:1001B000E82AF92A0091F10010E04091F100942F13
:1001C00080E0082B192B6091F100A091F10082EFE3
:1001D0008093E800363009F059C089E697E69C0123
:1001E00025503040FC013797459154914E155F05DD
:1001F000F9F4F9014591549140175107C9F42E5F64
:100200003F4FF901859194912E5F3F4FF901249161
:10021000462F50E07A2F60E0462B572B4F3F510579
:1002200019F010F04FEF50E0421750F4242F08C09F
:100230000796295F3F4FF7E683399F0799F6DEC09F
:10024000AEEF4091E80050E0BA0165707070611542
:100250007105B9F342FDD5C0322F213108F030E1EC
:10026000AC01632F07C0FA014F5F5F4FE491E09349
:10027000F10061506623B9F7830F911D231BA093F2
:10028000E8002223F1F63031E1F2BBC0353051F401
:100290008EEF8093E8000E94BC108E2D80688093C2
:1002A000E300AFC0393061F5222309F0A7C0E09226
:1002B0006E011092700110926F01109278018EEF12
:1002C0008093E80041E08CE897E64093E900FC0168
:1002D0000196E491E093EB00EE2369F09C012F5F1F
:1002E0003F4FFC0184918093EC00C9010196F90114
:1002F00024912093ED004F5F453039F78EE179C0AE
:10030000383051F4203809F079C00E94BC10809137
:100310006E018093F1004AC0313279F4213A09F03C
:100320006DC00E94BC10E1E7F1E081918093F10083
:1003300021E0E837F207C9F739C03032A1F42132A1
:1003400009F05CC08091E80082FFFCCFE1E7F1E0BA
:100350008091F100819331E0E837F307C9F78BEF23
:100360008093E80023C0323251F4213209F046C0B4
:10037000F0927001E0926F010E94BC1017C033230D
:10038000C9F429830E94BC102981223851F40093BA
:10039000E9009091EB0081E095FF80E01092E90088
:1003A00001C080E08093F1001092F1008EEF809305
:1003B000E80027C0313011F0333001F52230F1F47C
:1003C000E114F104D9F40F77802F81508430B0F418
:1003D0008EEF8093E8000093E900333079F089E1F3
:1003E0008093EB0081E090E002C0880F991F0A958E
:1003F000E2F78093EA001092EA0003C081E2809362
:10040000EB000F90CF91DF91FF91EF91BF91AF91F2
:100410009F918F917F916F915F914F913F912F911C
:100420001F910F91FF90EF900F900FBE0F901F90B4
:1004300018951F920F920FB60F9211242F933F938E
:100440004F935F936F937F938F939F93AF93BF93DC
:10045000EF93FF9320918202309183026091840296
:1004600070918502A901461B570B4F715070C9014D
:1004700080959095860F971F8F719070009731F43B
:1004800081E090E09093A7028093A6026091CE0055
:100490008091A6029091A702009761F4F901E058BB
:1004A000FD4F66832F5F3F4F2F7130703093830273
:1004B000209382024115510541F48CE292E060E9FB
:1004C00076E047E050E00E944A06FF91EF91BF912D
:1004D000AF919F918F917F916F915F914F913F91DC
:1004E0002F910F900FBE0F901F9018951F920F9293
:1004F0000FB60F9211242F933F934F935F936F93F7
:100500007F938F939F93AF93BF93EF93FF93AEB57A
:10051000A53009F52091EC043091ED048091EA04B6
:100520009091EB04821B930B8F739070009789F06E
:10053000E091EE04F091EF04E20FF31F80818EBD95
:10054000C90101968F7390709093ED048093EC0431
:1005500045C01EBC43C01EBCAA2309F43FC0409145
:10056000E0045091E1046091E2047091E3049A0187
:10057000261B370B2F733070CA0180959095860F1C
:10058000971F8F739070009731F481E090E0909303
:10059000E7048093E6048091E6049091E7040097D5
:1005A00091F4E091E404F091E504E40FF51FA083D9
:1005B0008091E0049091E10401968F739070909384
:1005C000E1048093E0042115310541F486E392E0D3
:1005D00060E976E047E050E00E944A06FF91EF9123
:1005E000BF91AF919F918F917F916F915F914F914B
:1005F0003F912F910F900FBE0F901F9018951F9253
:100600000F920FB60F9211242F933F934F935F9346
:100610006F937F938F939F93AF93BF93EF93FF93CA
:100620008091F2069091F306A091F406B091F50640
:100630000196A11DB11D8093F2069093F306A0933D
:10064000F406B093F50688E796E060E070E047E0D6
:1006500050E00E94032CFF91EF91BF91AF919F91C9
:100660008F917F916F915F914F913F912F910F905B
:100670000FBE0F901F90189558076807500758072E
:1006800068076807680768077807780778077807B2
:10069000680770076807680778078007800788077A
:1006A0009007980770077807880790079807A007B2
:1006B000A007A807B007B807A807B0079101B612AE
:1006C000AA12AC0192148614FD019D310D30020274
:1006D000FF2FF32F0A02D52FC92F12023730BD2F5B
:1006E0006C696E696E6F494F3A206769742039638F
:1006F0006537373931206275696C742067696F20FE
:10070000323031342D31302D30322031343A3233E1
:100710003A313420636F6C6F73696D6F40636F6F34
:100720006C6D6173740A000000000000000000009E
:1007300000000000000000000000000000000000B9
:1007400000000000000000000000000000000000A9
:100750000000FB65000000000000F56500000000DF
:1007600000008066000000000000746600000000C9
:1007700000005C690000AE0200000166000000009D
:10078000000056690000AE020000316B000000005E
:1007900000003F6A000000000000CD6B0000000078
:1007A0000000646F0000CC0400005E6F0000CC0409
:1007B00000007A660000000000000000070707073D
:1007C00000000000000007070707000007000707F8
:1007D00000000000000000000707000007070707EF
:1007E0000000000000000000000000000000000009
:1007F00000000000000000000000000000000000F9
:10080000000000000000000088E796E060E070E073
:1008100047E050E00E94032C089583B7817F83BF97
:1008200083B7816083BF889583B78E7F83BF089528
:1008300000D000D08CEB95E6EDB7FEB792838183B4
:1008400088E191E0948383830E9439280F900F9070
:100850000F900F9002C00E944F2C0E943B2C0097DB
:10086000D1F70E940D04F9CF00D000D081EF95E6BA
:10087000EDB7FEB79283818380E291E09483838316
:100880000E94392880E592E09093510280935002B3
:1008900090935302809352020F900F900F900F90FD
:1008A00080E090E00895AF92BF92CF92DF92EF92F6
:1008B000FF920F931F93CF93DF93C0915002D0917B
:1008C000510226970E811F8106501040E12C91E0C5
:1008D000F92EC12C82E0D82E4CC08091F206909166
:1008E000F306A091F406B091F50628813981821BA8
:1008F000930B97FD43C06C817D818CE796E047E0C8
:1009000050E00E94032CAE80BF8080E5A81682E0F4
:10091000B806C1F09501265030404091F206509142
:10092000F3066091F4067091F506F90180819181DA
:10093000A281B381840F951FA61FB71F8083918367
:10094000A283B383A885B985F501B383A283AD9251
:10095000BC92FF82EE82D986C886CE016AE070E042
:100960000E94B12EF80186819781E8018C01065022
:100970001040F2E0CA34DF0709F0AFCFDF91CF912A
:100980001F910F91FF90EF90DF90CF90BF90AF90AD
:100990000895EF92FF920F931F93CF93DF937B0104
:1009A0008C01EA018AE090E00E94652FFC0100972B
:1009B00009F46AC08091F2069091F306A091F406C2
:1009C000B091F5068E0D9F1DA01FB11F80839183EE
:1009D000A283B383D583C483EFB6F894A091500269
:1009E000B091510282E0A035B80791F5CF0106968B
:1009F00013969C938E931297B783A683B187A08793
:100A000011969C938E933CC0208131814281538109
:100A10006D917D918D919C911397E901C61BD70B28
:100A2000D7FF0AC0621B730B840B950B6D937D93EC
:100A30008D939C93139714C0261B370B480B590BAF
:100A4000208331834283538316960D90BC91A02D51
:100A500016978D010A5F1F4F82E000351807A1F637
:100A6000CF0106961896CD91DC91199719969C9313
:100A70008E93189717830683D187C08799838883BD
:100A8000EFBE20E030E002C024EF3FEFC901DF916C
:100A9000CF911F910F91FF90EF900895CF93DF9327
:100AA000FC01C481D581EA81FB818E819F810995FA
:100AB0009F838E8388859985AA85BB852C853D85F6
:100AC0004E855F85820F931FA41FB51F8C879D875E
:100AD000AE87BF872091F2063091F3064091F4066D
:100AE0005091F506B901681B790B77FD09C0DA0151
:100AF000C9010196A11DB11D8C879D87AE87BF8757
:100B00006C857D858E859F85621B730B840B950B91
:100B1000AE010E94C904DF91CF910895EF92FF9238
:100B20000F931F93CF93DF93E090F206F090F306BC
:100B30000091F4061091F506C0E4D2E008C0EC8103
:100B4000FD81309719F08E819F810995609682E032
:100B5000C035D807A0F3C0E4D2E01AC06C857D850B
:100B60008E859F856E0D7F1D801F911F6C597F4F55
:100B70008F4F9F4F6C877D878E879F876E197F0968
:100B8000800B910BAE010E94C90497FD08C06096CE
:100B900082E0C035D80710F320E030E002C02FEF2C
:100BA0003FEFC901DF91CF911F910F91FF90EF901F
:100BB00008950F931F93DF93CF93CDB7DEB72A9796
:100BC0000FB6F894DEBF0FBECDBFDC0114960D91B9
:100BD0001C911597C8010896F80122853385A085D8
:100BE000B18513963C932E931297F901B183A0839C
:100BF000D80119969C938E9318971B969C938E936D
:100C00001A971696ED91FC911797CF0106962681BB
:100C100037812817390771F462817381CE010196FB
:100C20004AE050E00E944832EF81F885309711F099
:100C3000C8010995F801178216822A960FB6F89412
:100C4000DEBF0FBECDBFCF91DF911F910F910895F1
:100C5000EF92FF920F931F93CF93DF938C01C8E124
:100C6000D2E00AC068817981F801808191810E9477
:100C7000D029009739F02A96F2E0C034DF0790F3CC
:100C8000C0E0D0E0CE01DF91CF911F910F91FF9096
:100C9000EF900895CF92DF92EF92FF920F931F9300
:100CA000CF93DF937B018A01FC01C681D781209716
:100CB000A9F0289726E0C22ED12CC80ED91E09C053
:100CC000C701BE01A8010E94032C0884D985C02D4C
:100CD0002897CE0108968C159D0591F7DF91CF914D
:100CE0001F910F91FF90EF90DF90CF9008958F921A
:100CF0009F92AF92BF92CF92DF92EF92FF920F93AB
:100D00001F93DF93CF93CDB7DEB72A970FB6F89432
:100D1000DEBF0FBECDBF4C015B018A0161157105BD
:100D200019F486E190E025C08CE090E00E94652FE8
:100D30006C017C01009739F487E190E09093CB043B
:100D40008093CA046AC0DC0111969C928E9215961B
:100D50001C930E9314971396BC92AE9212970E9416
:100D600028068C01009761F4F6011782168286E04E
:100D700090E09093CB048093CA04EE24FF244DC0EE
:100D8000D60117969C938E931697FC0186819781C6
:100D9000009731F4C80106969783868391878087F0
:100DA000D80112966D917C911397CE0101964AE07D
:100DB00050E00E944832E981FA81309741F0C60143
:100DC0000995009721F0F60117821682D2CFC6014D
:100DD0000896D8011696ED91FC911797938382831C
:100DE000D6011996FC93EE93189798012A5F3F4F0E
:100DF0001B963C932E931A97F80197838683F1E014
:100E0000AF16B10419F480E896E002C084E896E0D9
:100E1000B60147E050E00E94032CC7012A960FB6A6
:100E2000F894DEBF0FBECDBFCF91DF911F910F9120
:100E3000FF90EF90DF90CF90BF90AF909F908F90FA
:100E40000895CF93DF93EC018E819F81009749F441
:100E500089E090E09093CB048093CA042FEF3FEF9A
:100E600018C08A819B818130910519F488E896E049
:100E700002C08CE896E0BE0147E050E00E94032CDF
:100E800088E996E0BE0146E050E00E94032C20E095
:100E900030E0C901DF91CF910895CF92DF92EF92B8
:100EA000FF920F931F93DF93CF93CDB7DEB72A97AF
:100EB0000FB6F894DEBF0FBECDBF8C017B016A0177
:100EC000DC011696ED91FC911797309719F489E0A3
:100ED00090E012C062817381CE0101964AE050E039
:100EE0000E944832F801828180FF04C0EB81FC81BE
:100EF000309749F481E090E09093CB048093CA044A
:100F00002FEF3FEF12C0C801B701A60109959C0160
:100F100097FF05C088279927821B930B02C080E0AA
:100F200090E09093CB048093CA04C9012A960FB62F
:100F3000F894DEBF0FBECDBFCF91DF911F910F910F
:100F4000FF90EF90DF90CF900895CF92DF92EF92D5
:100F5000FF920F931F93DF93CF93CDB7DEB72A97FE
:100F60000FB6F894DEBF0FBECDBF8C017B016A01C6
:100F7000DC011696ED91FC911797309719F489E0F2
:100F800090E012C062817381CE0101964AE050E088
:100F90000E944832F801828181FF04C0ED81FE8108
:100FA000309749F481E090E09093CB048093CA0499
:100FB0002FEF3FEF12C0C801B701A60109959C01B0
:100FC00097FF05C088279927821B930B02C080E0FA
:100FD00090E09093CB048093CA04C9012A960FB67F
:100FE000F894DEBF0FBECDBFCF91DF911F910F915F
:100FF000FF90EF90DF90CF900895EF92FF920F93C4
:101000001F93DF93CF93CDB7DEB72A970FB6F8942F
:10101000DEBF0FBECDBF8C017B01DC011696ED91CA
:10102000FC911797309719F489E090E00EC0628127
:101030007381CE0101964AE050E00E944832E98572
:10104000FA85309749F481E090E09093CB04809347
:10105000CA042FEF3FEF11C0C801B70109959C01E9
:1010600097FF05C088279927821B930B02C080E059
:1010700090E09093CB048093CA04C9012A960FB6DE
:10108000F894DEBF0FBECDBFCF91DF911F910F91BE
:10109000FF90EF900895CF93DF930E94372BC8EC19
:1010A000D0E004C088EE93E00E94792B21978FEF67
:1010B000CF3FD807B9F70E941804DF91CF91089568
:1010C00080915502813071F480915A02882311F089
:1010D00080E001C082E0809355028823F9F48DE31B
:1010E00091E01EC088EB96E060E070E047E050E0E1
:1010F0000E94032C97FF0CC000D089E296E6EDB762
:10110000FEB7928381830E9439280F900F90089533
:1011100081E08093550287E391E002C082E391E091
:1011200000D000D027E036E6EDB7FEB7328321834A
:10113000948383830E9439280F900F900F900F9013
:1011400008950E9460080895809156029091570278
:101150000E944D070895EF92FF920F931F93DF9324
:10116000CF93CDB7DEB7C054D0400FB6F894DEBFF2
:101170000FBECDBFDC0114960D911C911597809187
:1011800058029091590208171907E9F481E08093F9
:101190005A0280915502813011F010925502C80117
:1011A0008E010F5F1F4FB80140E450E00E944D07D1
:1011B000AC01181619060CF0D3C08091C8049091A8
:1011C000C904B801C2C0D8011696ED91FC911797D9
:1011D000CF010696268137812817390709F4C0C048
:1011E00080915602909157020817190741F080919B
:1011F000F0069091F1060817190709F0B1C0809127
:101200005402882339F08091F0069091F106081776
:10121000190789F480915502813069F0C801BE0137
:101220006F5F7F4F40E450E00E944D077C0118162D
:1012300019061CF095C0EE24FF248091F0069091D1
:10124000F10608171907C1F520915602309157028F
:10125000FE01319680E090E007C041914D3119F4D4
:101260000E94600807C001968E159F051CF4211589
:10127000310599F780915502813019F480EB96E0A1
:1012800069C0882361F480915802909159020097B7
:1012900031F0BE016F5F7F4FA7010E94A5078091CB
:1012A0005402813009F45CC080915602909157023B
:1012B000009709F046C054C080915402882309F079
:1012C00047C0FE01319680E090E030C021912A3A7B
:1012D00061F581E08093540200D000D000D0EDB7DA
:1012E000FEB7319688E496E6ADB7BEB712969C93EA
:1012F0008E931197A0915602B091570216960D90B9
:10130000BC91A02D8D919C919383828381E491E087
:10131000958384830E943928EDB7FEB736960FB6C1
:10132000F894FEBF0FBEEDBF04C001968E159F0559
:101330006CF280915402813099F08091C8049091B0
:10134000C904BE016F5F7F4FA7010E94A50708C0B7
:101350008CE996E060E070E047E050E00E94032CEA
:10136000C05CDF4F0FB6F894DEBF0FBECDBFCF918C
:10137000DF911F910F91FF90EF9008958091560299
:10138000909157020E94A50708958091560290916E
:1013900057020E942107089587E491E063E070E01E
:1013A00040E050E00E9477069093570280935602E7
:1013B000009799F01092540282E08093550280E5E4
:1013C00091E063E070E040E050E00E947706909387
:1013D000590280935802009719F42DEE3FEF02C096
:1013E00020E030E0C90108951F93FB011FB7F89476
:1013F00060E270E00E946832660F771F660F771F09
:10140000E60FF71F21E030E040E050E004C0220F7B
:10141000331F441F551F8A95D2F780819181A28185
:10142000B381822B932BA42BB52B80839183A28332
:10143000B3831FBF1F9108951F93FB011FB7F8943B
:1014400060E270E00E946832660F771F660F771FB8
:10145000E60FF71F21E030E040E050E004C0220F2B
:10146000331F441F551F8A95D2F780819181A28135
:10147000B381822B932BA42BB52B80839183A283E2
:10148000B3831FBF1F9108952F923F924F925F9297
:101490007F928F929F92AF92BF92CF92DF92EF9204
:1014A000FF920F931F93DF93CF9300D000D000D013
:1014B000CDB7DEB76BE5E62E62E0F62E53E2A52E41
:1014C000B12CCC24DD2480E090E020E030E041E04D
:1014D000442E512C01C0980189010F5F1F4FF50167
:1014E000708060917702462F50E0022E02C0559521
:1014F00047950A94E2F740FD0BC0A20102C0440FD9
:10150000551F2A95E2F79A01262B2093770251C0A6
:10151000F701808087249924939440E050E02FE5E0
:10152000222E22E0322E200E311E98012C593D4FE2
:101530003A832983F801EF58FD4FFC83EB83F101D7
:101540002081292179F1292D282161F1E981FA8170
:101550002081292189F0F7012081292169F4CA011C
:101560008C0D9D1D6AE672E04D835E830E94F40936
:1015700081E090E05E814D81EB81FC812081292119
:1015800089F0F7012081292169F0CA018C0D9D1D88
:101590006AE672E04D835E830E94F40981E090E088
:1015A0005E814D814F5F5F4F4830510511F0990CBE
:1015B000C6CFF70171927F0128E030E0C20ED31E42
:1015C00043E050E0A40EB51E0530110509F083CFAD
:1015D000009741F080EA96E06AE672E047E050E06A
:1015E0000E94032C26960FB6F894DEBF0FBECDBF27
:1015F000CF91DF911F910F91FF90EF90DF90CF90EF
:10160000BF90AF909F908F907F905F904F903F9052
:101610002F9008951F938832910508F048C0AC01BF
:101620004770507021E030E002C0220F331F4A950E
:10163000E2F7E3E095958795EA95E1F790E0122FC0
:101640001095FC01EB59FD4F508151235083DC0173
:10165000AE58BD4F4C9141234C93DC01A05ABD4F75
:101660003C9131233C9360FF02C0522B508361FFB9
:1016700005C0FC01EE58FD4F422B408367FF05C0BB
:10168000FC01E05AFD4F322B30836C707070611595
:10169000710581F0FC01EB59FD4F3081322B308315
:1016A000FC01EE58FD4F8081822B808303C02AEE1F
:1016B0003FEF02C020E030E0C9011F91089588305B
:1016C00091056CF440917E0021E030E002C0220FD1
:1016D000331F8A95E2F7422B40937E000895409194
:1016E0007D00089721E030E002C0220F331F8A9569
:1016F000E2F7422B40937D000895CF93DF938091D2
:101700007C008F7380937C0080917C008064809348
:101710007C0080917A00876080937A0080917A00C3
:101720008F7780937A00C7E8D6E605C0888190E07D
:101730000E945F0B269686E6CB3AD807B9F780E081
:1017400090E0DF91CF9108950F931F93FC012181C9
:10175000822F90E08830910574F430917E0081E012
:1017600090E002C0880F991F2A95E2F780958323A5
:1017700080937E0010C040917D009C012850304035
:1017800081E090E002C0880F991F2A95E2F78095CA
:10179000842380937D002181822F90E030917C0012
:1017A000307E30937C0030917C00883091050CF0C5
:1017B000205E232B20937C0080917A0080648093AC
:1017C0007A0080917A0086FDFCCF1091780000911C
:1017D0007900818190E00E945F0B302F20E0442748
:1017E00037FD4095542F812F90E0A0E0B0E0282BEA
:1017F000392B4A2B5B2BB901CA011F910F91089518
:1018000041505040509387004093860080E090E024
:10181000089580918600909187000196BC0180E038
:1018200090E00895415050405093970040939600A7
:1018300080E090E008958091960090919700019645
:10184000BC0180E090E0089541504093D10080E0D9
:1018500090E008952091D10030E02F5F3F4F442762
:1018600037FD4095542FB901CA010895DF93CF93F6
:1018700000D000D0CDB7DEB748BD80E090E00F903B
:101880000F900F900F90CF91DF91089568B570E0A1
:1018900080E090E00895FC013896259135914591BE
:1018A00054912F5F3F4F4F4F5F4FB901CA010895C9
:1018B00021E030E004B404FC02C020E030E0C901C3
:1018C0000895411551056105710519F084B58061D0
:1018D00002C084B58F7E84BD80E090E00895BB2770
:1018E000A72F962F852F809389004093880080E052
:1018F00090E008958091880090918900BC0180E07B
:1019000090E008958091800021E030E086FD02C0E3
:1019100020E030E0C90108954115510561057105C8
:1019200021F080918000806403C0809180008F7BD3
:101930008093800080E090E00895BB27A72F962F2A
:10194000852F80938B0040938A0080E090E008957B
:1019500080918A0090918B00BC0180E090E0089516
:101960008091800021E030E084FD02C020E030E082
:10197000C9010895411551056105710521F0809156
:101980008000806103C0809180008F7E8093800002
:1019900080E090E00895BB27A72F962F852F809396
:1019A0008D0040938C0080E090E0089580918C0041
:1019B00090918D00BC0180E090E0089580918000BE
:1019C00021E030E082FD02C020E030E0C90108954E
:1019D000411551056105710521F0809180008460F9
:1019E00003C0809180008B7F8093800080E090E036
:1019F0000895BB27A72F962F852F8093990040939A
:101A0000980080E090E0089580919800909199006E
:101A1000BC0180E090E008958091900021E030E0EA
:101A200086FD02C020E030E0C9010895411551054E
:101A30006105710521F080919000806403C0809160
:101A400090008F7B8093900080E090E00895409319
:101A5000D20080E090E008956091D20070E080E0D4
:101A600090E008958091C100992787FD9095892F76
:101A7000881F8827881F90E008954115510561054A
:101A8000710521F08091C100806803C08091C10080
:101A90008F778093C10080E090E0089521E030E0EE
:101AA00002C0220F331F8A95E2F7442737FD409585
:101AB000542F8091790290917A02A0917B02B0918B
:101AC0007C02282339234A235B2361E070E021153F
:101AD00031054105510511F460E070E0CB01089536
:101AE0008A5B9646959587959595879527EB3DE674
:101AF000AC01429FC001439F900D529F900D112455
:101B00000E944E0D009729F08091780281508093B9
:101B1000780280917802882329F48091C100847F23
:101B20008093C1008091C2008E7F8093C20057983D
:101B300008951F9310917802112349F481E0809356
:101B400078028091C1008B608093C10017C08A5BCE
:101B50009646959587959595879527EB3DE6AC013B
:101B6000429FC001439F900D529F900D11240E94EF
:101B70004E0D009719F41F5F109378028091C200F8
:101B800089608093C200579A80E090E01F91089589
:101B90001F938A5B9646959587959595879547EB14
:101BA0005DE6849F9001859F300D949F300D112438
:101BB000122FC9010E944E0D009729F080917D02DD
:101BC000815080937D0280917D02882371F4809101
:101BD00090008D7F8093900080919100807E809313
:101BE00091001092970010929600809190008F774C
:101BF000809390003E9821E030E002C0220F331F16
:101C00001A95E2F720953095442737FD4095542FDB
:101C10008091790290917A02A0917B02B0917C022E
:101C200082239323A423B5238093790290937A028D
:101C3000A0937B02B0937C021F9108950F931F9392
:101C40008A5B9646959587959595879547EB5DE6D2
:101C5000849F9001859F300D949F300D1124022F99
:101C600010917D021123A1F481E080937D02809187
:101C70009000826080939000809191008A618093AF
:101C800091008FE39CE9909397008093960008C0A1
:101C9000C9010E944E0D009719F41F5F10937D0239
:101CA000809190008068809390003E9A21E030E01F
:101CB00002C0220F331F0A95E2F7442737FD4095F3
:101CC000542F8091790290917A02A0917B02B09179
:101CD0007C02822B932BA42BB52B809379029093BB
:101CE0007A02A0937B02B0937C0280E090E01F9187
:101CF0000F9108950E944E0D009729F080917E0269
:101D0000815080937E0280917E02882371F48091BD
:101D100080008D7F8093800080918100807E809301
:101D20008100109287001092860008951F938A5BAD
:101D30009646959587959595879547EB5DE6849FA3
:101D40009001859F300D949F300D1124122FC901F1
:101D50000E947A0EE0E8F0E08081877F80832798F8
:101D600021E030E002C0220F331F1A95E2F72095E0
:101D70003095442737FD4095542F809179029091FA
:101D80007A02A0917B02B0917C0282239323A42348
:101D9000B5238093790290937A02A0937B02B0934B
:101DA0007C021F9108951F938A5B964695958795AF
:101DB0009595879547EB5DE6849F9001859F300D53
:101DC000949F300D1124122FC9010E947A0EE0E871
:101DD000F0E080818F7D8083269821E030E002C092
:101DE000220F331F1A95E2F720953095442737FDCF
:101DF0004095542F8091790290917A02A0917B02B4
:101E0000B0917C0282239323A423B523809379028B
:101E100090937A02A0937B02B0937C021F91089565
:101E20001F938A5B9646959587959595879547EB81
:101E30005DE6849F9001859F300D949F300D1124A5
:101E4000122FC9010E947A0EE0E8F0E080818F77BE
:101E50008083259821E030E002C0220F331F1A95BD
:101E6000E2F720953095442737FD4095542F809117
:101E7000790290917A02A0917B02B0917C02822338
:101E80009323A423B5238093790290937A02A0939D
:101E90007B02B0937C021F9108951F9310917E02E4
:101EA0001123A1F481E080937E0280918000826002
:101EB00080938000809181008A61809381008FE30C
:101EC0009CE9909387008093860007C00E944E0D86
:101ED000009719F41F5F10937E021F9108951F93BE
:101EE0008A5B9646959587959595879547EB5DE630
:101EF000849F9001859F300D949F300D1124122FE7
:101F0000C9010E944D0FE0E8F0E080818860808385
:101F1000279A21E030E002C0220F331F1A95E2F722
:101F2000442737FD4095542F8091790290917A0291
:101F3000A0917B02B0917C02822B932BA42BB52B1A
:101F40008093790290937A02A0937B02B0937C02F3
:101F500080E090E01F9108951F938A5B96469595C7
:101F600087959595879547EB5DE6849F9001859FC2
:101F7000300D949F300D1124122FC9010E944D0F76
:101F8000E0E8F0E0808180628083269A21E030E002
:101F900002C0220F331F1A95E2F7442737FD409500
:101FA000542F8091790290917A02A0917B02B09196
:101FB0007C02822B932BA42BB52B809379029093D8
:101FC0007A02A0937B02B0937C0280E090E01F91A4
:101FD00008951F938A5B9646959587959595879565
:101FE00047EB5DE6849F9001859F300D949F300DF7
:101FF0001124122FC9010E944D0FE0E8F0E080810A
:1020000080688083259A21E030E002C0220F331FD0
:102010001A95E2F7442737FD4095542F80917902B5
:1020200090917A02A0917B02B0917C02822B932B3B
:10203000A42BB52B8093790290937A02A0937B0214
:10204000B0937C0280E090E01F9108951F938A5B1B
:102050009646959587959595879547EB5DE6849F80
:102060009001859F300D949F300D1124122FC901CE
:102070000E944E0D009729F080917F02815080933D
:102080007F0280917F02882319F484B58C7F84BD00
:1020900084B58F7D84BD509821E030E002C0220FCE
:1020A000331F1A95E2F720953095442737FD409568
:1020B000542F8091790290917A02A0917B02B09185
:1020C0007C0282239323A423B523809379029093E7
:1020D0007A02A0937B02B0937C021F9108950F9324
:1020E0001F938A5B9646959587959595879547EBBF
:1020F0005DE6849F9001859F300D949F300D1124E3
:10210000022F10917F02112339F481E080937F0226
:1021100084B5836084BD08C0C9010E944E0D00973C
:1021200019F41F5F10937F0284B5806284BD509ABA
:1021300021E030E002C0220F331F0A95E2F7442766
:1021400037FD4095542F8091790290917A02A091A9
:102150007B02B0917C02822B932BA42BB52B809316
:10216000790290937A02A0937B02B0937C0280E084
:1021700090E01F910F9108958091E80080FFFCCFBF
:10218000089581E08093D70080EA8093D80082E1AF
:1021900089BD09B400FEFDCF80E98093D80010927C
:1021A000E00010926E011092700110926F018CE0AD
:1021B0008093E20080E090E0089580E090E0089550
:1021C0000F931F9380916E018823A9F11FB7F89494
:1021D00083E08093E900E091F200862F972FDC01E5
:1021E00020E030E0F0E083E00FC08093E9009091C0
:1021F000E80095FD02C01FBF10C08093E9009091D8
:10220000F1009D932F5F3F4F642F752FE617F7075F
:102210000CF4BF012617370744F383E08093E900ED
:102220008091F200882329F48091E8008F778093D1
:10223000E8001FBF02C025EF3FEFC9011F910F91BA
:102240000895E2EEF0E08081877F80830895809199
:102250006E0190E0089580916F0190917001089552
:102260001F93DC0180916E01882309F41BC12FB7F5
:10227000F89484E08093E90080917901882341F00B
:102280008091E80085FD02C02FBF16C01092790131
:1022900014E050E44AE335E0FEC08091E400875E3C
:1022A0009091E80095FD15C02FBF9091E40098171C
:1022B00031F481E0809379012BEF3FEFF5C09091ED
:1022C0006E01992309F4EEC02FB7F8941093E9003A
:1022D000E7CF8091F200E52FE81B8E2F90E0681782
:1022E000790708F4E62F6E1B7109F0E0E134F1057F
:1022F00008F0C5C0E356FD4CEE0FFF1F0590F491AA
:10230000E02D09948D918093F1008D918093F100DF
:102310008D918093F1008D918093F1008D91809348
:10232000F1008D918093F1008D918093F1008D915A
:102330008093F1008D918093F1008D918093F10055
:102340008D918093F1008D918093F1008D91809318
:10235000F1008D918093F1008D918093F1008D912A
:102360008093F1008D918093F1008D918093F10025
:102370008D918093F1008D918093F1008D918093E8
:10238000F1008D918093F1008D918093F1008D91FA
:102390008093F1008D918093F1008D918093F100F5
:1023A0008D918093F1008D918093F1008D918093B8
:1023B000F1008D918093F1008D918093F1008D91CA
:1023C0008093F1008D918093F1008D918093F100C5
:1023D0008D918093F1008D918093F1008D91809388
:1023E000F1008D918093F1008D918093F1008D919A
:1023F0008093F1008D918093F1008D918093F10095
:102400008D918093F1008D918093F1008D91809357
:10241000F1008D918093F1008D918093F1008D9169
:102420008093F1008D918093F1008D918093F10064
:102430008D918093F1008D918093F1008D91809327
:10244000F1008D918093F1008D918093F1008D9139
:102450008093F1008D918093F1008D918093F10034
:102460008D918093F1008D918093F1008D918093F7
:10247000F1008D918093F1008D918093F1008D9109
:102480008093F1008091E80085FD02C04093E80050
:10249000309378012FBF6115710509F0FECE20E061
:1024A00030E002C025EF3FEFC9011F910895EF9280
:1024B000FF92CF93DF93CB01EA01209759F48091EB
:1024C0006E01882379F080916F019091700180FDF9
:1024D0000BC008C0BA010E943011009729F0CFEF5D
:1024E000DFEF02C0C5EFDFEFCE01DF91CF91FF90AC
:1024F000EF90089583E090E09093CD008093CC001E
:10250000109285021092840210928302109282022D
:1025100088E98093C90080E090E0089580E090E031
:102520000895862F972FFC0180E090E008C021914C
:102530003091C80035FFFCCF2093CE000196841760
:102540009507ACF3CA010895E9ECF0E08081877645
:102550008083089500D089E398E6EDB7FEB79283B3
:1025600081830E9439280F900F900895EF92FF9277
:10257000CF93DF9382309105CCF1DB011296ED9180
:10258000FC911397808190E0C1978330910598F07A
:1025900000D000D02AE638E6EDB7FEB732832183BB
:1025A000948383830E9439280F900F900F900F908F
:1025B000CAEEDFEF1DC080939A01FC01EE0FFF1FF2
:1025C000E80FF91FEE0FFF1FEF5AF7492081318105
:1025D0004281538160E472E48FE090E00E947B329C
:1025E000215030403093CD002093CC00C0E0D0E0AB
:1025F00080919A01882351F000D086E698E6ADB725
:10260000BEB712969C938E93119707C000D088E6B0
:1026100098E6EDB7FEB7928381830E94392800D0F7
:1026200000D0EDB7FEB731968DE598E6ADB7BEB7F1
:1026300012969C938E93119781E090E0938382830E
:102640008AE791E0958384830E943928EDB7FEB72D
:1026500036960FB6F894FEBF0FBEEDBF80919A017B
:10266000813051F000D086E698E6ADB7BEB712963D
:102670009C938E93119707C000D088E698E6EDB73B
:10268000FEB7928381830E94392800D000D0EDB735
:10269000FEB731968DE598E6ADB7BEB712969C931E
:1026A0008E93119782E090E09383828381E891E09A
:1026B000958384830E943928EDB7FEB736960FB60E
:1026C000F894FEBF0FBEEDBFCE01DF91CF91FF901A
:1026D000EF900895EF92FF92CF93DF93CB0160913B
:1026E00084027091850220E230E0261B370BC091F6
:1026F0008202D0918302C20FD31FCF71D0704C17CA
:102700005D070CF4EA012C173D070CF4E901209752
:1027100049F16A577D4FAE010E94032A80918402DD
:10272000909185028C0F9D1F8F7190709093850200
:10273000809384021092A7021092A6022091820236
:1027400030918302281B390B2F7130702115310510
:1027500059F08CE292E060E976E047E050E00E94B8
:102760004A0602C0C5EFDFEFCE01DF91CF91FF90A7
:10277000EF900895289A239A80E090E00895809140
:10278000EA049091EB04809590952091EC043091AF
:10279000ED04820F931F8F739070242F352F8217B3
:1027A00093070CF49C012115310519F1862F972F01
:1027B000DC0140E050E019C06D91E091EE04F09131
:1027C000EF048091EA049091EB04E80FF91F608315
:1027D0008091EA049091EB0401968F73907090932E
:1027E000EB048093EA044F5F5F4F4217530724F3D3
:1027F00002C025EF3FEFC90108958CB58F778CBDDE
:102800008CB58F7B8CBD8091E4049091E50460E4ED
:1028100070E00E94B12E8091EE049091EF0460E48C
:1028200070E00E94B12E0895EF92FF921F93CF9314
:10283000DF93CB011FB7F894E091E204F091E30439
:1028400020E430E02E1B3F0BC091E004D091E10466
:10285000C20FD31FCF73D0704C175D070CF4EA0181
:102860002C173D070CF4E901209721F41FBFC5EF99
:10287000DFEF2DC06091E4047091E5046E0F7F1FBF
:10288000AE010E94032A8091E2049091E3048C0F30
:102890009D1F8F7390709093E3048093E2041092D5
:1028A000E7041092E6042091E0043091E104281B33
:1028B000390B2F7330702115310541F086E392E01A
:1028C00060E976E047E050E00E944A061FBFCE0173
:1028D000DF91CF911F91FF90EF90089580E48CBD20
:1028E0008CB580688CBD80E490E00E94652F909349
:1028F000E5048093E40480E490E00E94652F9093C7
:10290000EF048093EE0480E090E0089500D08AE820
:1029100098E6EDB7FEB7928381830E9439280F9025
:102920000F900895AF92BF92CF92DF92EF92FF92F5
:102930000F931F93CF93DF93C0E0D0E02BEBE22EF9
:1029400028E6F22E95EBC92E98E6D92E83EBA82E19
:1029500088E6B82E8E01077010700115110591F4EC
:1029600000D000D0ADB7BEB71296FC92EE92119790
:102970001496DC93CE9313970E9439280F900F90F2
:102980000F900F90899100D000D0EDB7FEB731962F
:10299000ADB7BEB71296DC92CE92119782831382A6
:1029A0000E9439280F900F900F900F90073011055B
:1029B00049F400D0EDB7FEB7B282A1820E94392857
:1029C0000F900F90F1E0C030DF0721F600D081EBCF
:1029D00098E6ADB7BEB712969C938E9311970E945E
:1029E00039280F900F9080E090E0DF91CF911F91F8
:1029F0000F91FF90EF90DF90CF90BF90AF90089530
:102A0000CF93DF93C3EAD1E0CE0162E070E040E013
:102A100050E00E9477069093C9048093C804CE01C9
:102A200061E070E040E050E00E9477069093F1068C
:102A30008093F00680E090E0DF91CF910895E1E689
:102A4000F0E080E8808310820E9498290E94AB2BDE
:102A50000E94A62A80E090E008950895EF92FF92E8
:102A60000F931F93DA01FC0184819581FC01E60F2D
:102A7000F71FE590F59005911491EC921196FC9258
:102A8000119712960C93129713961C931397211576
:102A90003105C1F06C5F7F4F680F791FFB012591F5
:102AA00035914591549114962C93149715963C9317
:102AB000159716964C93169717965C93179728E0E0
:102AC00030E002C024E030E0C9011F910F91FF9077
:102AD000EF900895CF93DF93FA01DC011496CD9126
:102AE000DC911597C60FD71F88819981AA81BB8178
:102AF00080839183A283B3832115310559F08C81A2
:102B00009D81AE81BF8184839583A683B78328E0AE
:102B100030E002C024E030E0C901DF91CF91089598
:102B2000CF93DF93FA01DC011696CD91DC911797D4
:102B3000C60FD71F80819181A281B3818883998339
:102B4000AA83BB832115310559F084819581A68123
:102B5000B7818C839D83AE83BF8328E030E002C0C1
:102B600024E030E0C901DF91CF910895AC018FEAF4
:102B700091E061E070E00E9477069C01009721F4EB
:102B80002091F0063091F106C9010895EF92FF926D
:102B9000CF93DF93E82EE7017E01F92EE70120971E
:102BA00059F1C7010E94B61599838883009721F4D3
:102BB00000D082E499E618C08FEA91E062E070E00C
:102BC000A7010E9477069B838A83009731F4809146
:102BD000C8049091C9049B838A838A819B81009752
:102BE00071F400D08DE299E6EDB7FEB79283818350
:102BF0000E9439280F900F902FEF3FEF02C020E086
:102C000030E0C901DF91CF91FF90EF900895CF930D
:102C1000DF93DA01EC01EC81FD812115310559F4D6
:102C2000E60FF71F859194918C9311969C931197C1
:102C300022E030E009C06E0F7F1FCA0148E050E07B
:102C40000E94483228E030E0C901DF91CF91089519
:102C5000CF93DF93DA01EC01EC81FD812115310581
:102C600039F4E60FF71FE491EC9321E030E009C05E
:102C70006E0F7F1FCA0148E050E00E94483228E0F2
:102C800030E0C901DF91CF9108959B01BA01FC01A9
:102C900086819781820F931F48E050E00E94032AAB
:102CA00088E090E00895FB01BA01DC0116968D9151
:102CB0009C9117972115310559F4E80FF91FDA0196
:102CC0008D919C9111979183808322E030E008C020
:102CD0008E0F9F1F48E050E00E94032A28E030E05A
:102CE000C9010895FB01BA01DC0116968D919C91F2
:102CF00017972115310541F4E80FF91FDA018C917E
:102D0000808321E030E008C08E0F9F1F48E050E034
:102D10000E94032A28E030E0C90108959B01FC01CC
:102D200064817581620F731FCA0148E050E00E9400
:102D3000032A88E090E00895FA01DC0114968D9151
:102D40009C9115972115310559F4680F791FDB0106
:102D50008D919C9111979183808322E030E009C08E
:102D6000680F791FCA0148E050E00E94032A28E05A
:102D700030E0C9010895FA01DC0114968D919C910F
:102D800015972115310541F4680F791FDB018C91EE
:102D9000808321E030E009C0680F791FCA0148E054
:102DA00050E00E94032A28E030E0C90108959B0109
:102DB000FC0164817581620F731FCA0148E050E015
:102DC0000E94032A88E090E0089540E150E00E94CC
:102DD000A50797FF0BC000D082E099E6EDB7FEB7DC
:102DE000928381830E9439280F900F900895FC01EF
:102DF000A681B7810480F581E02D668177811296E6
:102E00008D919C9113970E94E51608958F929F9241
:102E1000AF92BF92CF92DF92EF92FF920F931F93E8
:102E2000DF93CF93CDB7DEB7A4970FB6F894DEBF8C
:102E30000FBECDBFDC0116960D911C9117978091A6
:102E4000AC029091AD02009739F481E090E090934C
:102E5000AD028093AC0227C0F80184899589009760
:102E600011F18091F2069091F306A091F406B091D1
:102E7000F5062091A8023091A902245F3F4F281B3C
:102E8000390B37FF10C000D087E199E6ADB7BEB768
:102E900012969C938E9311970E943928F801158AF7
:102EA000148A0F900F908091F2069091F306A091F2
:102EB000F406B091F5068093A8029093A902A0931E
:102EC000AA02B093AB02D801ED90FC90119794E068
:102ED000C92ED12CC00ED11E54968D919C91559720
:102EE000B601680F791F40E150E0481B590BC7013C
:102EF0000E944D07181619068CF0009749F4C70177
:102F00000E942107C8010E94B615F80191838083B1
:102F1000D80155961C921E92549733C1F80124890A
:102F20003589280F391F358B248B2031310508F462
:102F300028C1158A148A6681862F8E71823009F025
:102F400020C1858182958F7061706295607F682B4A
:102F500070E083E0660F771F8A95E1F76659704944
:102F6000FFE662397F0770F4CE01019648E050E039
:102F70000E944832D80117968C91179790E086FDF1
:102F800000C117C0F801828193812DEE3FEF4FEF12
:102F90005FEFD80118962D933D934D935C931B974B
:102FA00017962C911797206217962C931797B601B6
:102FB000E4C08F71907095958795A1E0EA2EF12C71
:102FC00002C0EE0CFF1C8A95E2F7CC24DD24AA2473
:102FD000BB24F9E08F2E912C8C0E9D1E29C06B8195
:102FE0007C816C0D7D1DC4014AE050E00E94483296
:102FF000EB85FC858591949149855A85F80124815A
:103000006581362F3F702417350758F02150304026
:103010002E0D3F1D41505040480F591F4217530776
:103020006CF40894A11CB11C8AE090E0C80ED91E73
:1030300089819A81A816B90694F28CC0D801179696
:103040002C91179730E02078307069897A89611562
:10305000710521F1CE01439640E150E02BA33CA342
:103060000E944832D8011796EC911797F0E0CE01F4
:1030700001962BA13CA1E0FD09C0EE71F070E80FB4
:10308000F91FC288D388A0E0B0E00CC03197EE7180
:10309000F070E80FF91FA28DB38D02C0A0E0B0E080
:1030A000CC24DD244F815885BA01C8010496E0E1A3
:1030B000EE2EFC010190CF01FB010192BF01EA94C9
:1030C000C1F7FA01838180648383C114D10499F02C
:1030D000D80114966C91149715968C91782F7F7067
:1030E00089859A85681B790B4C5F5F4FCE010996E5
:1030F000F601099512C01097A1F0F801648185814D
:10310000782F7F7089859A85681B790BA801485FA5
:103110005F4FCE010996FD0109959C0197FF12C0F2
:1031200002C02FEF3FEFEF81F885D80112968D9105
:103130009C911397309521953F4F442737FD40953B
:10314000542F13C06F817885F801828193810E948A
:10315000E51617C0EF81F885D80112968D919C91E4
:10316000139726E130E040E050E024833583468326
:103170005783238120622383BF0140E150E00E94F6
:10318000A507A4960FB6F894DEBF0FBECDBFCF91B2
:10319000DF911F910F91FF90EF90DF90CF90BF9044
:1031A000AF909F908F9008959B0168E070E00E941F
:1031B00068326F5F7F4FFB01EE0FFF1FE60FF71FB7
:1031C0002115310551F092A121E030E002C0220F1B
:1031D000331F8A95E2F7922B0AC092A121E030E0DA
:1031E00002C0220F331F8A95E2F72095922392A303
:1031F000089568E070E00E9468326F5F7F4FFB01C6
:10320000EE0FFF1FE60FF71F90A121E030E002C094
:10321000220F331F8A95E2F7922321E030E011F468
:1032200020E030E0C90108959C01FB014FB7F894FC
:1032300060E270E00E946832660F771F660F771FAA
:10324000E60FF71F80819181A281B3814FBF2F715B
:10325000307004C0B695A795979587952A95D2F7B3
:103260009C0121703070C90108958FEF9FEF089580
:103270008FEF9FEF08958FEF9FEF08958FEF9FEFF0
:1032800008958FEF9FEF08958FEF9FEF08952F928E
:103290003F924F925F926F927F928F929F92AF92E6
:1032A000BF92CF92DF92EF92FF920F931F93DF9323
:1032B000CF9300D000D000D0CDB7DEB73B018C015A
:1032C00063E0000F111F6A95E1F74115510511F4F4
:1032D000290103C098E0492E512CEE24FF243E839F
:1032E0002D8392C0C70168E070E00E9468329B01A4
:1032F0004D815E814830510521F1C70160E170E0E8
:103300000E9468325B01AA0CBB1CA60CB71CC7014B
:1033100060E270E00E9468326B01CC0CDD1CCC0CCA
:10332000DD1CC60CD71C61E070E080E090E0698392
:103330007A838B839C83882499241301220E331E65
:1033400057C0F301E60FF71F4081C80187709070E6
:10335000009799F6C8016D817E810E9468326F5F87
:103360007F4FFB01EE0FFF1FE60FF71F42A346C082
:103370008D819E818031910559F08032910571F0E7
:103380008830910509F045C0D1018C9190E003C0CF
:10339000F50180819181A0E0B0E005C0F601808157
:1033A0009181A281B3819401200F311F49815A81FB
:1033B0006B817C8184239523A623B72361E070E091
:1033C0000097A105B10511F460E070E0C9010E9409
:1033D000D4180894811C911C69817A818B819C810D
:1033E000660F771F881F991F69837A838B839C835D
:1033F0008D819E81881699060CF4BACFAD81BE816D
:10340000EA0EFB1E0A0F1B1FE414F5040CF46ACF2E
:1034100004C06AEE462E6FEF562EC20126960FB6F6
:10342000F894DEBF0FBECDBFCF91DF911F910F91FA
:10343000FF90EF90DF90CF90BF90AF909F908F90D4
:103440007F906F905F904F903F902F900895CB01A9
:10345000BA01A90128E030E00E9447190895CB0184
:10346000BA01A90120E130E00E9447190895CB017B
:10347000BA01A90120E230E00E9447190895CB016A
:10348000BA01A90128E030E00E9447190895CB0154
:10349000BA01A90128E030E00E94471908952F924F
:1034A0003F924F925F926F927F928F929F92AF92D4
:1034B000BF92CF92DF92EF92FF920F931F93DF9311
:1034C000CF9300D000D0CDB7DEB73B013C832B8338
:1034D0008C0163E0000F111F6A95E1F7411551055A
:1034E00011F4290103C098E0492E512CCC24DD248D
:1034F00028E030E08FC0C601B9010E9468321B018C
:10350000F301E60FF71F8B819C8180319105E9F073
:1035100080329105F1F08830910519F5C801877066
:103520009070009781F4C8016B817C810E946832A1
:103530006F5F7F4FDB01AA0FBB1FA60FB71F9096CF
:103540008C91909701C08AEE8083AAEDBFEFB18382
:10355000A0838AED9FEFAFEFBFEF80839183A283BB
:10356000B383882499245401EE24FF241CC0C7018E
:10357000800F911F29833A830E94F918AA2797FD8B
:10358000A095BA2F0E2C04C0880F991FAA1FBB1F2D
:103590000A94D2F7882A992AAA2ABB2A0894E11CFD
:1035A000F11C3A812981AB81BC81EA16FB06FCF251
:1035B000A031B10559F0A032B105A9F0A830B1058C
:1035C00071F5F301E20DF31D80821EC0C6016B810F
:1035D0007C810E946832660F771F660D771DFB01A4
:1035E0009182808211C0C6016B817C810E94683209
:1035F000660F771F660F771F660D771DDB018D92B3
:103600009D92AD92BC921397EB81FC81CE0EDF1E92
:103610000E0F1F1FC414D5040CF46DCF04C07AEE36
:10362000472E7FEF572EC2010F900F900F900F90F3
:10363000CF91DF911F910F91FF90EF90DF90CF908E
:10364000BF90AF909F908F907F906F905F904F90C2
:103650003F902F900895CB01BA01A90128E030E0F6
:103660000E944F1A0895CB01BA01A90120E130E070
:103670000E944F1A0895CB01BA01A90120E230E05F
:103680000E944F1A08956F927F928F929F92AF92ED
:10369000BF92CF92DF92EF92FF920F931F93DF932F
:1036A000CF93CDB7DEB728970FB6F894DEBF0FBE25
:1036B000CDBF4C01762E672E8A0179014115510547
:1036C00019F4C22EDF2C03C078E2C72ED12CC4011E
:1036D0005E010894A11CB11CB501A80197010E94CC
:1036E0004F1A97FD1EC0C60168E070E00E94683264
:1036F000C301E92FF62DD50180E090E005C031919E
:103700002C91232B2D93019686179707C4F3C401A0
:10371000BE016F5F7F4FA70198010E9447199C016E
:1037200002C02FEF3FEFC90128960FB6F894DEBF15
:103730000FBECDBFCF91DF911F910F91FF90EF9002
:10374000DF90CF90BF90AF909F908F907F906F90C1
:103750000895CB01BA01A90120E130E00E94431B8A
:103760000895CB01BA01A90120E230E00E94431B79
:1037700008956F927F928F929F92AF92BF92CF9255
:10378000DF92EF92FF920F931F93DF93CF93CDB70A
:10379000DEB728970FB6F894DEBF0FBECDBF4C0141
:1037A000762E672E8A0179014115510519F4C22E32
:1037B000DF2C03C0E8E2CE2ED12CC4015E010894B8
:1037C000A11CB11CB501A80197010E944F1A97FDD9
:1037D0001EC0C60168E070E00E946832C301E92F94
:1037E000F62DD50180E090E005C031912C91232B7E
:1037F0002D93019686179707C4F3C401BE016F5F2E
:103800007F4FA70198010E9447199C0102C02FEF2A
:103810003FEFC90128960FB6F894DEBF0FBECDBFAB
:10382000CF91DF911F910F91FF90EF90DF90CF909C
:10383000BF90AF909F908F907F906F900895CB0135
:10384000BA01A90120E130E00E94B91B0895CB0123
:10385000BA01A90120E230E00E94B91B08952F921D
:103860003F924F925F927F928F929F92AF92BF92C0
:10387000CF92DF92EF92FF920F931F93CF93DF933C
:103880001C01F62FE72FC9014115510531F468E0FD
:1038900070E00E9468327B0103C018E0E12EF12C39
:1038A000CF01892E9E2E00E010E0B1E0AB2EB12CAE
:1038B00039C0F40141904F015524C20183709070CA
:1038C0008330910599F16801C20CD31CC6010E9496
:1038D000F9189C01C60168E070E00E946832782EF9
:1038E0006F5F7F4FEB01CC0FDD1FC60FD71FC601E7
:1038F000B9010E94D41841FE09C029A1C50102C026
:10390000880F991F7A94E2F7282B09C029A1C501D5
:1039100002C0880F991F7A94E2F78095282329A383
:103920000F5F1F4F0E151F0524F204C0FAEEEF2E95
:10393000FFEFFF2EC701DF91CF911F910F91FF90F5
:10394000EF90DF90CF90BF90AF909F908F907F903F
:103950005F904F903F902F900895CB01BA01A9013D
:1039600028E030E00E942F1C0895CB01BA01A90184
:1039700020E130E00E942F1C0895CB01BA01A9017B
:1039800020E230E00E942F1C0895CF92DF92EF9248
:10399000FF920F931F93CF93DF937C01F62FE72FB6
:1039A000C9014115510531F468E070E00E946832A8
:1039B0009B0102C021E030E0CF01C92EE6016E017B
:1039C000DE2EE601E0E0F0E008E010E01DC0CF01EF
:1039D0008E0D9F1DB8010E9468326F5F7F4FDB0123
:1039E000AA0FBB1FA60FB71F91964C91919750E05D
:1039F00002C0559547958A95E2F740FF02C082E0E4
:103A000001C081E089933196E217F30704F3C901FD
:103A1000DF91CF911F910F91FF90EF90DF90CF90AA
:103A20000895CB01BA01A90128E030E00E94C51C2D
:103A30000895CB01BA01A90120E130E00E94C51C24
:103A40000895CB01BA01A90120E230E00E94C51C13
:103A50000895AF92BF92CF92DF92EF92FF920F93B1
:103A60001F93CF93DF938B012115310521F434E0AF
:103A7000C32ED12C03C021E0C22ED12CE42EE701AD
:103A80007E01F52EE701EE24FF245E01888181FF8F
:103A900005C0C80164EE72E00E941C0A888180FFA4
:103AA00005C0C8016CEE72E00E941C0A888182FF8A
:103AB00005C0C8016CEC72E00E941C0A888183FF7B
:103AC00005C0C80164ED72E00E941C0A888187FF6E
:103AD00005C0C80164EF72E00E941C0A2196F5013E
:103AE0006081C80170E00E940A0B9C0197FD09C02B
:103AF0000894E11CF11C0F5F1F4FEC14FD042CF225
:103B00009601C901DF91CF911F910F91FF90EF9026
:103B1000DF90CF90BF90AF9008956F927F928F9279
:103B20009F92AF92BF92CF92DF92EF92FF920F934C
:103B30001F93DF93CF93CDB7DEB728970FB6F894D6
:103B4000DEBF0FBECDBF80E090E0BE016F5F7F4F54
:103B500040E050E020E230E00E944F1A84E090E024
:103B6000BE016B5F7F4F40E050E020E230E00E94FA
:103B70004F1AA980BA80CB80DC806D807E808F80D8
:103B800098848091D0029091D102A091D202B091FC
:103B9000D30286219721A821B9212091C802309112
:103BA000C9024091CA025091CB02822B932BA42BC5
:103BB000B52BE8ECF2E02091CC023091CD0240919F
:103BC000CE025091CF022A213B214C215D2112913E
:103BD0000291F290E2902E293F29402B512BA09484
:103BE000B094C094D094E090D402F090D5020091AB
:103BF000D6021091D702AE20BF20C022D1222A299E
:103C00003B294C295D29208331834283538360946F
:103C10007094809490942091D8023091D902409170
:103C2000DA025091DB0262227322842295228629D5
:103C30009729A829B9298093C8029093C902A09313
:103C4000CA02B093CB0228960FB6F894DEBF0FBE1F
:103C5000CDBFCF91DF911F910F91FF90EF90DF903B
:103C6000CF90BF90AF909F908F907F906F9008956E
:103C7000CF92DF92EF92FF920F931F93DF93CF9338
:103C8000CDB7DEB728970FB6F894DEBF0FBECDBF15
:103C90008B01D42EC52E0C531D4F2115310521F457
:103CA00064E0E62EF12C03C051E0E52EF12CCE01AC
:103CB000019664EC72E048E050E00E94032A96010D
:103CC000832F9C2DFC0180E090E0D8012C91219362
:103CD0001D928D0101968E159F05BCF30E948D1DCE
:103CE00089819A81AB81BC810097A105B10549F416
:103CF0008D819E81AF81B8850097A105B10509F43A
:103D000045C08091C4029091C502A091C602B091B5
:103D1000C7020097A105B105C9F58091C80290912D
:103D2000C902A091CA02B091CB020097A105B105CA
:103D300069F58AE69FE68A569F4643E09595879502
:103D40004A95E1F79093E1028093E0021092E3023A
:103D50001092E20288EA96E060EE72E047E050E0FE
:103D60000E94032C009791F000D000D082EC99E6DD
:103D7000EDB7FEB79283818382EC91E094838383D5
:103D80000E9439280F900F900F900F90C70128962E
:103D90000FB6F894DEBF0FBECDBFCF91DF911F915C
:103DA0000F91FF90EF90DF90CF900895DC01149673
:103DB000ED91FC9115972091D4023091D50240915C
:103DC000D6025091D7028091CC029091CD02A09161
:103DD000CE02B091CF02822B932BA42BB52B8095D2
:103DE0009095A095B09520813181428153818223A5
:103DF0009323A423B5232091C4023091C50240919E
:103E0000C6025091C702822B932BA42BB52B809313
:103E1000C4029093C502A093C602B093C702108259
:103E20001182128213822091D8023091D9024091DE
:103E3000DA025091DB028091D0029091D102A091E0
:103E4000D202B091D302822B932BA42BB52B809559
:103E50009095A095B0952481358146815781822324
:103E60009323A423B5232091C8023091C902409125
:103E7000CA025091CB02822B932BA42BB52B80939B
:103E8000C8029093C902A093CA02B093CB021482D5
:103E90001582168217820E948D1D8AE69FE68A5639
:103EA0009F4673E0959587957A95E1F79093DD02AB
:103EB0008093DC028091C4029091C502A091C60259
:103EC000B091C7020097A105B10589F421E030E067
:103ED0008091C8029091C902A091CA02B091CB0210
:103EE0000097A105B10529F420E030E002C021E0EF
:103EF00030E03093DF022093DE0288EA96E06CED3A
:103F000072E047E050E00E94032C0895AF92BF9208
:103F1000CF92DF92EF92FF920F931F93CF93DF9395
:103F20005B01E42EE7017E01F52EE7012115310545
:103F300021F4F4E0CF2ED12C03C0E1E0CE2ED12C21
:103F4000EE24FF24188287010A0D1B1DC80164EEB0
:103F500072E00E941419009719F0888182608883AA
:103F6000C8016CEE72E00E941419009719F0888164
:103F700081608883C8016CEC72E00E94141900977C
:103F800019F0888184608883C80164ED72E00E9422
:103F90001419009719F0888188608883C80164EF3C
:103FA00072E00E941419009719F088818068888354
:103FB0000894E11CF11CEC14FD0414F42196C2CF0A
:103FC000C601DF91CF911F910F91FF90EF90DF908D
:103FD000CF90BF90AF90089580917A00992787FD88
:103FE0009095A92FB92F8827B7FD83959927AA27E0
:103FF000BB27FA0180839183A283B38380E090E0A2
:104000000895FA0180819181A281B3810097A10571
:10401000B10531F00E947D0B80917A00806803C069
:1040200080917A008F7780937A0080E090E0089505
:10403000AF92BF92CF92DF92EF92FF920F931F93B6
:10404000DF93CF93CDB7DEB72A970FB6F894DEBFD4
:104050000FBECDBF6B018A017B0166E0F694E79449
:104060006A95E1F755E0A52EB12CAC0EBD1EB70147
:10407000660F771F6E0D7F1D660F771F6A57794990
:10408000C50146E050E00E9448328FE3C822DD249B
:10409000E4E0CE16D10409F441C0F5E0CF16D10416
:1040A00020F4C114D10459F057C088E0C816D104D7
:1040B000D1F1ECE0CE16D10409F04EC03EC081E44F
:1040C0008983FAE0EF16F10430F0C7016AE070E08E
:1040D0000E94543201C06E2D605D6A838AE0E8164A
:1040E000F10438F0C7016AE070E00E945432805D4C
:1040F00001C080E08B831C82C801BE016F5F7F4FCF
:1041000044E050E00E94032AF8018081938190836B
:10411000838381819281918382831BC08D8190E012
:10412000A0E0B0E004C08F819885A985BA85F80128
:1041300080839183A283B3830CC080917A0087FF30
:104140000EC0C5010E94A40BF801608371838283B5
:10415000938320E030E005C02AEE3FEF02C023EF5A
:104160003FEFC9012A960FB6F894DEBF0FBECDBF50
:10417000CF91DF911F910F91FF90EF90DF90CF9043
:10418000BF90AF900895CF92DF92EF92FF920F937E
:104190001F93DF93CF93CDB7DEB760970FB6F89438
:1041A000DEBF0FBECDBF6B018A019B0146E0369595
:1041B00027954A95E1F78CE190E0289FB001299F6F
:1041C000700D389F700D11242AEBE22E26E6F22E98
:1041D000E60EF71E6A537949CE01019640E150E0A0
:1041E0000E9448328FE3C822DD24A0E1CA16D10420
:1041F00061F1B4E1CB16D10481F1ECE0CE16D1042B
:10420000B9F5D8018C9180FF06C0E981FA81C70118
:1042100009956C0106C0EB81FC81C7010995CC248E
:10422000DD24EF85F889309739F1D8014D915D9102
:104230006D917C9176956795579547954170507033
:1042400060707070C701099517C0F80140815181F5
:1042500062817381E985FA8507C0D8014D915D912E
:104260006D917C91EB85FC85C70109956C0104C0BB
:104270008AEEC82E8FEFD82EC60160960FB6F8943E
:10428000DEBF0FBECDBFCF91DF911F910F91FF9089
:10429000EF90DF90CF9008958F929F92AF92BF9250
:1042A000CF92DF92EF92FF920F931F93DF93CF9302
:1042B000CDB7DEB760970FB6F894DEBF0FBECDBFA7
:1042C0005B018A014B0166E0969487946A95E1F759
:1042D0008CE190E0889E7001899EF00C989EF00C15
:1042E00011245AEBC52E56E6D52ECE0CDF1CB70195
:1042F0006A537949CE01019640E150E00E9448326C
:104300008FE3A822BB24E8E0AE16B10409F450C044
:10431000F9E0AF16B10448F4A114B104B1F084E09F
:10432000A816B10409F082C020C0E0E1AE16B104C5
:1043300009F46FC0F4E1AF16B10409F46DC08CE06C
:10434000A816B10409F072C040C0C801B60144E02B
:1043500050E00E944832F8018081938190838383EA
:10436000818192819183828364C0F701E254F9498B
:1043700085919591A591B491B070F8018083918356
:10438000A283B38329853A852115310529F0B160CF
:1043900080839183A283B3838B859C85009709F4E6
:1043A00048C0F80180819181A281B381B2602CC0A4
:1043B000F701EE53F94985919591A591B491F801D2
:1043C00080839183A283B38334C0C4010E944E0DC5
:1043D00021E030E040E050E0009719F420E030E0C8
:1043E000A901F8012083318342835383ED85FE8543
:1043F0003097F9F0C60109950097D9F0F80180814E
:104400009181A281B381826080839183A283B383EF
:1044100010C0ED81FE8102C0EF81F885C6010995CB
:10442000F801608371838283938303C02AEE3FEF98
:1044300002C020E030E0C90160960FB6F894DEBFFC
:104440000FBECDBFCF91DF911F910F91FF90EF90E5
:10445000DF90CF90BF90AF909F908F9008952115DF
:104460003105A9F4CB0183709070009799F46C7FAB
:1044700068527E4FFB0180819181A281B381FA0154
:1044800080839183A283B38324E030E005C02FEFC3
:104490003FEF02C02AEE3FEFC9010895009711F0E7
:1044A000769A08957698089580E090E00E944E22D2
:1044B0006E9A80E090E0089521E030E0009711F4DA
:1044C00020E030E0C9010E944E220895EF92FF9251
:1044D0000F931F93FA012115310509F086C068304A
:1044E000710541F06C30710509F446C06430710506
:1044F00009F07BC02091D8013091D9014091DA01B7
:104500005091DB01E080F180028113818091DC0118
:104510009091DD01A091DE01B091DF016430710561
:1045200029F4E82AF92A0A2B1B2B08C0E094F094FE
:1045300000951095E822F9220A231B23E092DC0162
:10454000F092DD010093DE011093DF01E094F0941E
:10455000009510958091E8019091E901A091EA0100
:10456000B091EB01E822F9220A231B23E216F3069D
:104570000407150731F53CC08091D8019091D9010D
:10458000A091DA01B091DB01E080F180028113811A
:10459000E094F09400951095E822F9220A231B2359
:1045A0002091E8013091E9014091EA015091EB013D
:1045B000E22AF32A042B152BE816F9060A071B0733
:1045C000B9F081E090E0E114F1040105110511F466
:1045D00080E090E00E945C22E092D801F092D90144
:1045E0000093DA011093DB0103C02FEF3FEF02C00D
:1045F00024E030E0C9011F910F91FF90EF900895E2
:10460000EF92FF920F931F93DC011496ED91FC91B2
:104610001597808191818032910508F074C0E090F7
:10462000E801F090E9010091EA011091EB0121E02D
:1046300030E002C0220F331F8A95E2F7C90180954E
:104640009095AA2797FDA095BA2F8E219F21A02390
:10465000B1238093E8019093E901A093EA01B0931C
:10466000EB01428153814115510581F0442737FD0B
:104670004095542F282B392B4A2B5B2B2093E80194
:104680003093E9014093EA015093EB018091E801F6
:104690009091E901A091EA01B091EB01E816F906C9
:1046A0000A071B0781F12091DC013091DD01409167
:1046B000DE015091DF0120953095409550952823DB
:1046C00039234A235B238091D8019091D901A0918D
:1046D000DA01B091DB01281739074A075B0799F027
:1046E0002093D8013093D9014093DA015093DB0134
:1046F00081E090E0211531054105510511F480E07C
:1047000090E00E945C221F910F91FF90EF9008951E
:10471000519A009719F0599A519808955998089507
:10472000509A009719F0589A5098089558980895FB
:1047300081E090E00E948823089580E090E00E944C
:104740009023089581E090E00E9490238091F206EA
:104750009091F306A091F406B091F50620911E0306
:1047600030911F03280F391F0DC08091F2069091E0
:10477000F306A091F406B091F506A901481B590B68
:1047800057FD05C0489BF1CF20E030E002C022E990
:104790003FEFC90108950F931F93CF93DF93C7E0B5
:1047A000D0E0082F10E0C8010C2E02C09595879527
:1047B0000A94E2F7817090700E9488230E94A223DD
:1047C00097FD15C00E949D2321973FEFCF3FD30750
:1047D00051F70E9498230E94A22397FD08C009B1B7
:1047E0000E949D2301FD06C020E030E005C022E9C3
:1047F0003FEF02C02FEF3FEFC901DF91CF911F9133
:104800000F9108958093AE03882331F0843021F016
:1048100021E030E0893011F420E030E0C901089552
:104820008AE89FE68A569F4623E0959587952A95C4
:10483000E1F79093B0038093AF0381E090E0909311
:10484000B2038093B10388EA96E06FEA73E047E031
:1048500050E00E94032C009759F000D080E89BE6BE
:10486000EDB7FEB7928381830E9439280F900F9095
:1048700008951F93182F80E090E00E9488230E94E3
:10488000A22381E090E00E94882310932803113036
:1048900011F08BE001C080E08093AE030E941024F1
:1048A0001F910895BF92CF92DF92EF92FF920F93E4
:1048B0001F93CF93DF93DC0114962C91149722233E
:1048C00049F0213009F06BC11092280380E00E946A
:1048D00002247AC14AEFE42EF12C01E010E032E22A
:1048E000C32E33E0D32EF0921F03E0921E031093E9
:1048F0001D0300931C038091AE03853009F47EC034
:10490000863050F48130E9F0813098F0823099F1AE
:10491000833009F059C13AC0873009F4A9C0873003
:1049200008F49BC0883009F4B5C08A3009F04CC146
:104930002EC180E090E00E9488230E949D2381E0A8
:104940000EC18091220390912303009749F081E0EA
:1049500090E020912403309125032115310511F0B9
:1049600080E090E020912003822B0E94CB2397FDD2
:104970007BC082E0F4C080912403909125030097CE
:1049800051F1109227031092260334C0E091AD0339
:10499000F0E0E45EFC4F86850E94CB2397FD64C067
:1049A00020912603309127032F5F3F4F3093270339
:1049B000209326036091AD036F5F6F776093AD0323
:1049C00040912403509125038091AC0324173507AF
:1049D00021F48093AD0385E0C2C090E0861B91096D
:1049E0008F7790708430910519F40E94102402C0D2
:1049F000009711F083E0B3C084E0B1C0809122033E
:104A000090912303009709F4C2C0209124033091B0
:104A100025032115310579F4BFEF8F3F9B0719F46A
:104A20008FEF9FEF02C080E090E090932703809388
:104A3000260388E00BC00E9498230E94A22380E0F6
:104A400090E00E9488230E949D2386E00E94022419
:104A500010922703109226039EC08091200381604C
:104A60000E94CB2397FF02C080E892C087E077C006
:104A70008091220390912303EFEF8F3F9E0719F45B
:104A80008FEF9FEF02C080E090E090932703809328
:104A9000260379C00E949823C8E0D0E0BB240E947E
:104AA000A22397FD0BC0BB0C499B02C0F1E0BF2ABB
:104AB00080E090E00E949023219789F78091AA03DB
:104AC00090E0FC01E45EFC4FB68620912603309115
:104AD00027034FEF2F3F3407C9F42B2D30E080958B
:104AE00090954091AB03840F911D8F779070821742
:104AF000930710F481E84CC010922703109226030C
:104B0000B0922203D60111961C9211978091260330
:104B10009091270301969093270380932603C1E089
:104B2000D0E020912203309123038217930711F0E4
:104B3000C0E0D0E0209721F480E090E00E9488233C
:104B40000E94A22397FD02C00E949D238091AA0388
:104B50008F5F8F778093AA03209721F08AE00E94CD
:104B6000022419C090E0809590952091AB03820FAC
:104B7000911D8F7790708C31910519F40E9410244B
:104B800002C0009711F088E0EACF89E0E8CF81E029
:104B90000E94392419C0009709F0A5CE15C000D095
:104BA00000D0EDB7FEB731968DE59BE6ADB7BEB749
:104BB00012969C938E931197228313820E94392818
:104BC0000F900F900F900F90DF91CF911F910F9149
:104BD000FF90EF90DF90CF90BF9008958CEA96E021
:104BE00060E070E047E050E00E94032C0895AF922F
:104BF000BF92CF92DF92EF92FF920F931F93CF93CA
:104C0000DF935C016B017A012115310519F008E091
:104C100010E002C004E010E0C0E0D0E0FE01EC7F54
:104C2000EE0DFF1D80819181A281B381F50120816C
:104C300031812C0D3D1D2C0F3D1F2C31310509F408
:104C400047C02D313105A8F42031310509F460C089
:104C50002131310528F42830310509F060C01CC02D
:104C60002431310509F454C02831310509F057C009
:104C700018C028323105A1F12932310528F4243237
:104C8000310509F04CC027C02C32310571F12833B1
:104C9000310509F044C031C0909321038093200373
:104CA00037C081709070009799F18091280381FD41
:104CB00039C08260809328038CEA96E060E070E05F
:104CC00047E050E00E94032C9C0197FF21C02CC0BC
:104CD000809329031DC0909325038093240318C05B
:104CE000909323038093220313C08093AC0380919D
:104CF000AE03843069F483E007C08093AB038091F6
:104D0000AE03893029F488E00E9402240E94EE2537
:104D10002496C017D10708F481CF980105C02FEF62
:104D20003FEF02C020EF3FEFC901DF91CF911F910C
:104D30000F91FF90EF90DF90CF90BF90AF900895CC
:104D40002F923F924F925F926F927F928F929F929B
:104D5000AF92BF92CF92DF92EF92FF920F931F9389
:104D6000DF93CF9300D000D0CDB7DEB79A8389838D
:104D70002B013A012115310519F008E010E002C0BD
:104D800004E010E08AE89FE68A569F46E3E09595A6
:104D90008795EA95E1F7382E292E20E030E070E87B
:104DA000C72ED12CE12CF12C63EBA62E63E0B62E9E
:104DB00056EA852E5BE6952EF901EC7FE60DF71D90
:104DC000A981BA818D919C911197840D951D820FB7
:104DD000931F8032910509F48FC081329105E0F470
:104DE0008031910509F480C08131910540F488300B
:104DF000910579F18C30910509F0AAC02FC0883156
:104E0000910509F471C08C31910509F472C08431A7
:104E1000910509F09DC068C08C32910509F471C0FC
:104E20008D32910548F48432910509F477C08832B7
:104E3000910509F08DC079C08433910509F467C0EC
:104E40008833910509F467C08033910509F080C06B
:104E50005BC0809120039091210364C0809128035E
:104E600090E0A0E0B0E080839183A283B3830097B9
:104E7000A105B10509F465C03092B303F5012182A3
:104E80001092B6031092B50388EA96E063EB73E0E4
:104E900047E050E02B833C830E94032C2B813C8114
:104EA000009779F000D0ADB7BEB712969C928E9263
:104EB00011972B833C830E9439280F900F903C81DF
:104EC0002B818091AE038430E1F18930D1F18CEAFD
:104ED00096E061E070E047E050E02B833C830E9465
:104EE000032C2B813C812DC01082118212821382EF
:104EF00028C0809129030DC0C082D182E282F38252
:104F000020C08091AC0305C08091AD0302C08091A8
:104F1000AA0390E007C08091AB03FBCF80912403EC
:104F200090912503A0E0B0E008C080912203909109
:104F30002303AA2797FDA095BA2F80839183A2838C
:104F4000B3832C5F3F4F2017310708F435CF02C0E1
:104F50000FEF1FEFC8010F900F900F900F90CF91A0
:104F6000DF911F910F91FF90EF90DF90CF90BF9056
:104F7000AF909F908F907F906F905F904F903F90F9
:104F80002F90089500005353004B435349534F4D06
:104F90004F53494D00384F4900394F4930314F493F
:104FA00031314F490000434E0000434E0000434E54
:104FB0000000434E0000434E0000434E00003544C5
:104FC00033314F49004C435300414453314458520C
:104FD0003144585400003444444C585432314F4901
:104FE000000036440000434E0000434E4257482321
:104FF0000000434E0000434E0000434E4B485348D0
:105000000000434E00003541000034410000434E93
:105010000000434E000033410000324100003141A6
:10502000000030410F931F93CF93DF939C01AB019E
:10503000C7EBD3E0CE01B9010E9447288C01CE0115
:105040000E948F2AC801DF91CF911F910F9108957F
:10505000DF93CF93CDB7DEB79E01275F3F4F8D81A2
:105060009E816F817885A9010E944728CF91DF91A9
:105070000895DF93CF93CDB7DEB7FE0135968191CA
:105080009191BF010E941228CF91DF9108952F9234
:105090003F924F925F926F927F928F929F92AF92C8
:1050A000BF92CF92DF92EF92FF920F931F93DF9305
:1050B000CF93CDB7DEB762970FB6F894DEBF0FBEC1
:1050C000CDBF1C014E010894811C911C8C01FB0179
:1050D00006C1853229F531E0A32EB12C20E2422E03
:1050E000512C9AE0C92ED12C9501DA0103C080E33E
:1050F000482E512C31968491893609F466C08A363F
:10510000D8F4883509F457C0893588F48A3261F1BA
:105110008B3250F4882309F4E6C0853249F5AD019D
:10512000D8018D938D01DAC0803311F5E0CF83363D
:1051300049F18436E9F449C08037E9F1813730F428
:105140008E3609F4CAC08F3699F42EC08537E9F13E
:10515000883789F1833761F4AD014E5F5F4F8D91E0
:105160009C91BF01DA0119C0CD90DC901197129685
:10517000982F9153993008F0BDCF282F30E020535D
:105180003040B8CFAD018C91D8018D938D014E5F29
:105190005F4FA4C0F80121938F01FC012191CF0141
:1051A0002223C1F7FB0199C05901AD01BAE0CB162A
:1051B000D10439F00CC05901AD0170E1C72ED12CDA
:1051C00006C068E0C62ED12C02C05901AD01CA014B
:1051D00002969A8B898BDA018D919C91119797FF9A
:1051E0000BC0BAE0CB16D10439F4909581959F4F4E
:1051F00031E0E32EF12C02C0EE24FF2421E1622EE7
:10520000712C6C0E7D1E20E130E0AF01F3013801FE
:105210008A010BC021503040B6010E945432DC019B
:10522000A451BE4F8C918293CB01009731F0211590
:10523000310581F7F801830109C0F80183012031AC
:10524000310521F420E3288B2FE030E0E114F10454
:1052500089F080E24816510451F421503040D401C5
:10526000A20FB31F9DE29C93EE24FF2403C081E0B4
:10527000E82EF12CD401A20FB31F80E190E08A192F
:105280009B098E0D9F1D03C0215030404E92821706
:105290009307D4F3E114F10439F021503040D401E4
:1052A000A20FB31F8DE28C9340E150E0421B530BE1
:1052B000C401820F931FD8017F0106C0FC016191D8
:1052C000CF016D932F5F3F4F20313105BCF3F701C4
:1052D000040F151F49895A8901C0AD013196849187
:1052E000882309F0F6CE9801D8011C9222193309BF
:1052F000C90162960FB6F894DEBF0FBECDBFCF9145
:10530000DF911F910F91FF90EF90DF90CF90BF90B2
:10531000AF909F908F907F906F905F904F903F9055
:105320002F90089582E189BD09B400FEFDCF089554
:1053300084E085BD8AEF87BD81E080936E0008958B
:1053400080EA8093D800089580E98093D80008957A
:1053500081E88093D7000895262F372FD901282F71
:10536000392FF9012D9121932223E1F70895FC01B2
:105370009F0141914423E1F7281B390BC90108958E
:10538000462F572FFC019F014115510529F06191CE
:10539000415050406623B9F7281B390BC9010895C5
:1053A000FC01DB0181919D91891729F0891740F457
:1053B0002FEF3FEF07C08823A9F720E030E002C0BD
:1053C00021E030E0C9010895282F392FD901862F17
:1053D000972FFC010DC08D919191891729F08917A4
:1053E00058F42FEF3FEF0DC0882349F04150504053
:1053F0004115510581F703C021E030E002C020E0F3
:1054000030E0C9010895CF93DF939C01DC01FB01DB
:10541000CB01822B932B80FD1DC0DB01F901CA015A
:1054200005C0CD91DD91C193D19302978230910552
:10543000C0F7FA01F695E795CF01880F991F481B31
:10544000590BFC01D901A80FB91FE60FF71F02C0C5
:1054500081918D93415050408FEF4F3F5807C1F7D6
:10546000C901DF91CF910895EF92FF920F931F939F
:105470009C0120FD24C0CB01AA2797FDA095BA2F3F
:105480009070A070B070EE24F82E092F1A2FE82A21
:10549000F92A0A2B1B2BF901CA0103C0E192F192F0
:1054A000029782309105D0F7CA0196958795FC0145
:1054B000EE0FFF1F4E1B5F0BCF01820F931FFC01EE
:1054C00001C06193415050408FEF4F3F5807C9F7DB
:1054D000C9011F910F91FF90EF9008950895DF93F8
:1054E000CF9300D0CDB7DEB79A8389838A309105F8
:1054F00021F48DE090E00E946F2A8091C804909181
:10550000C904009739F0BE016F5F7F4F41E050E062
:105510000E94A5070F900F90CF91DF910895EF9211
:10552000FF92CF93DF93E82EE7017E01F92EE7018A
:1055300003C090E00E946F2A89918823D1F780E010
:1055400090E0DF91CF91FF90EF900895EF92FF925E
:105550000F931F93CF93DF93C8E0D1E00BE01CE6DD
:105560001FC0E991F99109950097D1F000D000D0C2
:1055700000D0EDB7FEB73196ADB7BEB712961C930B
:105580000E931197E282F382958384830E943928D7
:105590008DB79EB706960FB6F8949EBF0FBE8DBF0F
:1055A0007E0191E0C831D907E0F2C8E0D1E00BE01C
:1055B0001CE61FC0E991F99109950097D1F000D040
:1055C00000D000D0EDB7FEB73196ADB7BEB712969A
:1055D0001C930E931197E282F382958384830E9439
:1055E00039288DB79EB706960FB6F8949EBF0FBEAA
:1055F0008DBF7E0191E0C830D907E0F280E090E0F5
:10560000DF91CF911F910F91FF90EF900895FC01D2
:105610006091F2067091F3068091F4069091F50680
:105620006F5F7F4F8F4F9F4F2091F2063091F306AF
:105630004091F4065091F506261737074807590799
:1056400099F72E2F3F2F02C021503040121613061B
:10565000DCF32091F2063091F3064091F40650916C
:10566000F506261B370B480B590BC9010895CF923D
:10567000DF92EF92FF920F931F93CF93DF9300E09F
:1056800012E0C0E0D2E004C00C0F1D1FCC0FDD1FE4
:10569000C8010E94072B0097B9F3159507957E0165
:1056A000F594E794F594E79482E0C82ED12C0FC0CE
:1056B000E701C00FD11FCE010E94072B009709F010
:1056C000E801C701B6010E9468327B018E01E11436
:1056D000F10471F710931C0400931B0480E090E028
:1056E000DF91CF911F910F91FF90EF90DF90CF90BE
:1056F00008959C01E0911B04F0911C0440E157E2E5
:10570000E49FC001E59F900DF49F900D112460EA85
:105710007FE00E94683206C0019718161906E4F36C
:105720002051374287E22131380718F0862F972F12
:10573000F4CF2E9FC0012F9F900D3E9F900D1124FE
:1057400060EA7FE00E94543202C061507040161639
:105750001706DCF30895EF92FF920F931F93CF93F8
:10576000DF93C8E7D6E085EBE82E84E0F82E38C05A
:1057700083EC94E0BE0144E050E00E944832009186
:10578000C3041091C40424C08BEB94E0B80148E03A
:1057900050E00E9448326091BD047091BE0485EBD8
:1057A00094E046E050E00E944832F092BE04E0925D
:1057B000BD04D093BC04C093BB04E091B504F09148
:1057C000B604309719F08BEB94E00995085F1F4FF2
:1057D0008091C5049091C60408171907A9F624966C
:1057E00086E0CC3BD80720F280E290E09093220440
:1057F0008093210480E090E0DF91CF911F910F9181
:10580000FF90EF9008951F931FB7F894E0911D0447
:10581000F0911E04409121045091220441505040C7
:105820009F0120953095A0911F04B09120042A0F6C
:105830003B1F242335232115310521F41FBF24EFFD
:105840003FEF16C09F012F5F3F4F24233523309336
:105850001E0420931D041FBFEE0FFF1FEE0FFF1F3E
:10586000ED5DFB4F738362839183808320E030E0A2
:10587000C9011F91089520912104309122042150E3
:10588000304080911D0490911E0440911F0450915E
:105890002004841B950B28233923C9010895AF9256
:1058A000BF92CF92DF92EF92FF920F931F93CF930D
:1058B000DF930E943B2C6C01EE24FF2443EAA42ECC
:1058C00044E0B42E58C0C0911F04D0912004CC0FE6
:1058D000DD1FCC0FDD1FCD5DDB4F6991799181EB31
:1058E00094E044E050E00E9448320091B1041091ED
:1058F000B20426C089EA94E0B80148E050E00E9472
:1059000048326091AB047091AC0483EA94E046E0C5
:1059100050E00E944832B092AC04A092AB0488815F
:1059200099819093AE048093AD04E091A504F09129
:10593000A604309719F089EA94E00995085F1F4F93
:105940008091B3049091B4040817190799F68091D7
:10595000210490912204019720911F04309120048A
:105960002F5F3F4F822393239093200480931F0443
:105970000894E11CF11CEC14FD040CF4A4CFDF919D
:10598000CF911F910F91FF90EF90DF90CF90BF903C
:10599000AF90089520E030E067E070E040E052E032
:1059A000FB01E21BF30BDA0102C0B595A795EA955E
:1059B000E2F7A817B9073CF42F5F3F4F28303105B5
:1059C00079F72FEF3FEFC9010895CF93DF93062EAC
:1059D00002C0959587950A94E2F780509F4F48E062
:1059E00050E0461B570B21E030E002C0220F331F6E
:1059F0004A95E2F7821B930BEFB7F89460E270E0F0
:105A00000E946832EB01CC0FDD1FCC0FDD1FCA50A6
:105A1000D94F21E030E040E050E004C0220F331FB6
:105A2000441F551F8A95D2F7209530954095509583
:105A300088819981AA81BB8182239323A423B523E2
:105A400088839983AA83BB83EFBFDF91CF910895A9
:105A5000CF93DF93062E02C0959587950A94E2F7BF
:105A600080509F4F48E050E0461B570B21E030E04C
:105A700002C0220F331F4A95E2F7821B930BEFB748
:105A8000F89460E270E00E946832EB01CC0FDD1FF9
:105A9000CC0FDD1FCA50D94F21E030E040E050E08C
:105AA00004C0220F331F441F551F8A95D2F78881E7
:105AB0009981AA81BB81822B932BA42BB52B888340
:105AC0009983AA83BB83EFBFDF91CF910895DF93C2
:105AD000CF9300D0CDB7DEB7FC01EE0FFF1FE35927
