:1000000032C00000000000000000000000000000FE
:1000100000000000000000000000000000000000E0
:1000200000000000000000003DC000007DC0000096
:1000300000000000000000000000000000000000C0
:1000400000000000000000000000000000000000B0
:10005000000000000000000000000000C3C200001B
:10006000000044C2E6C111241FBECFEFDAE0CDBFCD
:10007000DEBFE6E0FCE60DE6A0E0B1E0EE35F0071D
:100080001CF425902D92FACFA0E6B2E009E0A0344E
:10009000B00714F41D92FBCF0E94341478940E9490
:1000A0001908E1CF1F920F920FB60F9211248F9370
:1000B0009F938091E1001092E10083FF13C01092A2
:1000C000E90091E09093EB001092EC0092E19093A4
:1000D000ED0098E09093F00010926E011092700184
:1000E00010926F0182FF19C080916E01882379F010
:1000F00080917801882359F081508093780188237A
:1001000031F484E08093E9008AE38093E80083E09F
:100110008093E90084E08093F0009F918F910F908D
:100120000FBE0F901F9018951F920F920FB60F924F
:100130001124EF92FF920F931F932F933F934F93AE
:100140005F936F937F938F939F93AF93BF93EF933F
:10015000FF93DF93CF930F92CDB7DEB78091F4007A
:1001600083FF14C083E08093E9008091E80082FF60
:1001700008C08AE292E066E776E047E050E00E943D
:1001800018068091E800887F8093E8001092E900CB
:100190008091E80083FF32C12091F1003091F1009D
:1001A0008091F100E82EFF244091F100942F80E02F
:1001B000E82AF92A0091F10010E04091F100942F13
:1001C00080E0082B192B6091F100A091F10082EFE3
:1001D0008093E800363009F059C08FE193E69C0126
:1001E00025503040FC013797459154914E155F05DD
:1001F000F9F4F9014591549140175107C9F42E5F64
:100200003F4FF901859194912E5F3F4FF901249161
:10021000462F50E07A2F60E0462B572B4F3F510579
:1002200019F010F04FEF50E0421750F4242F08C09F
:100230000796295F3F4FF3E689349F0799F6DEC0A2
:10024000AEEF4091E80050E0BA0165707070611542
:100250007105B9F342FDD5C0322F213108F030E1EC
:10026000AC01632F07C0FA014F5F5F4FE491E09349
:10027000F10061506623B9F7830F911D231BA093F2
:10028000E8002223F1F63031E1F2BBC0353051F401
:100290008EEF8093E8000E94190B8E2D806880936A
:1002A000E300AFC0393061F5222309F0A7C0E09226
:1002B0006E011092700110926F01109278018EEF12
:1002C0008093E80041E082E493E64093E900FC017A
:1002D0000196E491E093EB00EE2369F09C012F5F1F
:1002E0003F4FFC0184918093EC00C9010196F90114
:1002F00024912093ED004F5F453039F78EE179C0AE
:10030000383051F4203809F079C00E94190B8091DF
:100310006E018093F1004AC0313279F4213A09F03C
:100320006DC00E94190BE1E7F1E081918093F1002B
:1003300021E0E837F207C9F739C03032A1F42132A1
:1003400009F05CC08091E80082FFFCCFE1E7F1E0BA
:100350008091F100819331E0E837F307C9F78BEF23
:100360008093E80023C0323251F4213209F046C0B4
:10037000F0927001E0926F010E94190B17C03323B5
:10038000C9F429830E94190B2981223851F4009362
:10039000E9009091EB0081E095FF80E01092E90088
:1003A00001C080E08093F1001092F1008EEF809305
:1003B000E80027C0313011F0333001F52230F1F47C
:1003C000E114F104D9F40F77802F81508430B0F418
:1003D0008EEF8093E8000093E900333079F089E1F3
:1003E0008093EB0081E090E002C0880F991F0A958E
:1003F000E2F78093EA001092EA0003C081E2809362
:10040000EB000F90CF91DF91FF91EF91BF91AF91F2
:100410009F918F917F916F915F914F913F912F911C
:100420001F910F91FF90EF900F900FBE0F901F90B4
:1004300018951F920F920FB60F9211242F933F938E
:100440004F935F936F937F938F939F93AF93BF93DC
:10045000EF93FF9320918A0230918B0260918C027E
:1004600070918D02A901461B570B4F715070C90145
:1004700080959095860F971F8F719070009731F43B
:1004800081E090E09093AF028093AE026091CE0045
:100490008091AE029091AF02009761F4F901E857A4
:1004A000FD4F66832F5F3F4F2F71307030938B026B
:1004B00020938A024115510541F484E392E066E7F6
:1004C00076E047E050E00E941806FF91EF91BF915F
:1004D000AF919F918F917F916F915F914F913F91DC
:1004E0002F910F900FBE0F901F9018951F920F9293
:1004F0000FB60F9211242F933F934F935F936F93F7
:100500007F938F939F93AF93BF93EF93FF93AEB57A
:10051000A530F1F42091FC043091FD048091FA049F
:100520009091FB04821B930B8F709070009771F079
:10053000F901E052FB4F868D8EBDC90101968F7087
:1005400090709093FD048093FC043BC01EBC39C0A6
:100550002091E2043091E3046091E4047091E50499
:10056000A901461B570B4F705070C901809590959B
:10057000860F971F8F709070009731F481E090E0A4
:100580009093F7048093F6048091F6049091F70419
:10059000009761F4F901E052FB4FA6832F5F3F4FB4
:1005A0002F7030703093E3042093E204411551051D
:1005B00041F48EE392E066E776E047E050E00E9487
:1005C0001806FF91EF91BF91AF919F918F917F910D
:1005D0006F915F914F913F912F910F900FBE0F90B0
:1005E0001F9018951F920F920FB60F9211242F9300
:1005F0003F934F935F936F937F938F939F93AF93AB
:10060000BF93EF93FF938091100990911109A091EE
:100610001209B09113090196A11DB11D8093100913
:1006200090931109A0931209B09313098EE596E0F7
:1006300060E070E047E050E00E94632AFF91EF9194
:10064000BF91AF919F918F917F916F915F914F91EA
:100650003F912F910F900FBE0F901F901895FE069F
:100660000E07F606FE060E070E070E070E071E07FC
:100670001E071E071E070E0716070E070E071E078A
:10068000260726072E0736073E0716071E072E07E2
:1006900036073E07460746074E0756075E074E07D2
:1006A00056079401A7139B13020208308A2E0702F3
:1006B0005E2E522E0F02342E282E1702B42E1C2E20
:1006C000000000000000000000000000000000002A
:1006D000000000000000000000000000000000001A
:1006E000000000000000000000000000000000000A
:1006F00000000000000000008D620000000000000B
:10070000876200000000000012630000000000008B
:100710000663000000000000A1650000C2020000A6
:1007200093620000000000009B650000C202000010
:1007300087670000000000009566000000000000D0
:100740002368000000000000D86B0000CE04000009
:10075000D26B0000CE0400000C630000000000001B
:100760000000070707070000000000000707070751
:100770000000070007070000000000000000070756
:10078000000007070707000000000000000000004D
:100790000000000000000000000000000000000059
:1007A00000000000000000000000000000008EE5D6
:1007B00096E060E070E047E050E00E94632A089510
:1007C00083B7817F83BF83B7816083BF889583B7F9
:1007D0008E7F83BF089500D000D08EE492E6EDB7FF
:1007E000FEB79283818388E191E0948383830E94A2
:1007F00099260F900F900F900F900E949B2A0E94B5
:10080000E003FBCF00D000D083E892E6EDB7FEB75F
:100810009283818380E291E0948383830E9499266E
:1008200080E692E09093610280936002909363026D
:10083000809362020F900F900F900F9080E090E0F5
:100840000895AF92BF92CF92DF92EF92FF920F93F3
:100850001F93CF93DF93C0916002D09161022697DE
:100860000E811F8106501040E12C91E0F92EC12C21
:1008700082E0D82E4CC08091100990911109A0916E
:100880001209B091130928813981821B930B97FDBE
:1008900043C06C817D8182E696E047E050E00E9493
:1008A000632AAE80BF8080E6A81682E0B806C1F059
:1008B00095012650304040911009509111096091E6
:1008C000120970911309F90180819181A281B3818C
:1008D000840F951FA61FB71F80839183A283B383C4
:1008E000A885B985F501B383A283AD92BC92FF823E
:1008F000EE82D986C886CE016AE070E00E940F2D94
:10090000F80186819781E8018C0106501040F2E0E1
:10091000CA35DF0709F0AFCFDF91CF911F910F915B
:10092000FF90EF90DF90CF90BF90AF900895EF923F
:10093000FF920F931F93CF93DF937B018C01EA010A
:100940008AE090E00E94C42DFC01009709F46AC07F
:100950008091100990911109A0911209B091130989
:100960008E0D9F1DA01FB11F80839183A283B3832F
:10097000D583C483EFB6F894A0916002B091610270
:1009800082E0A036B80791F5CF01069613969C93A6
:100990008E931297B783A683B187A08711969C93F5
:1009A0008E933CC020813181428153816D917D9134
:1009B0008D919C911397E901C61BD70BD7FF0AC0F5
:1009C000621B730B840B950B6D937D938D939C939E
:1009D000139714C0261B370B480B590B2083318308
:1009E0004283538316960D90BC91A02D16978D01CE
:1009F0000A5F1F4F82E000361807A1F6CF01069666
:100A00001896CD91DC91199719969C938E9318970F
:100A100017830683D187C08799838883EFBE20E040
:100A200030E002C024EF3FEFC901DF91CF911F9169
:100A30000F91FF90EF900895CF93DF93FC01C48155
:100A4000D581EA81FB818E819F8109959F838E8369
:100A500088859985AA85BB852C853D854E855F85D2
:100A6000820F931FA41FB51F8C879D87AE87BF87FA
:100A700020911009309111094091120950911309E8
:100A8000B901681B790B77FD09C0DA01C90101962C
:100A9000A11DB11D8C879D87AE87BF876C857D8525
:100AA0008E859F85621B730B840B950BAE010E9494
:100AB0009704DF91CF910895EF92FF920F931F93C8
:100AC000CF93DF93E0901009F09011090091120983
:100AD00010911309C8E4D2E008C0EC81FD81309781
:100AE00019F08E819F810995609682E0C835D807FC
:100AF000A0F3C8E4D2E01AC06C857D858E859F8501
:100B00006E0D7F1D801F911F6C597F4F8F4F9F4F20
:100B10006C877D878E879F876E197F09800B910B6D
:100B2000AE010E94970497FD08C0609682E0C83528
:100B3000D80710F320E030E002C02FEF3FEFC901EB
:100B4000DF91CF911F910F91FF90EF9008950F9338
:100B50001F93DF93CF93CDB7DEB72A970FB6F894E4
:100B6000DEBF0FBECDBFDC0114960D911C91159711
:100B7000C8010896F80122853385A085B1851396B2
:100B80003C932E931297F901B183A083D801199653
:100B90009C938E9318971B969C938E931A971696F8
:100BA000ED91FC911797CF01069626813781281782
:100BB000390771F462817381CE0101964AE050E0F9
:100BC0000E94B330EF81F885309711F0C801099584
:100BD000F801178216822A960FB6F894DEBF0FBE70
:100BE000CDBFCF91DF911F910F910895EF92FF92AA
:100BF0000F931F93CF93DF938C01C0E2D2E00AC022
:100C000068817981F801808191810E943028009764
:100C100039F02A96F2E0C834DF0790F3C0E0D0E064
:100C2000CE01DF91CF911F910F91FF90EF9008952A
:100C3000CF92DF92EF92FF920F931F93CF93DF93A8
:100C40007B018A01FC01C681D7812097A9F02897F2
:100C500026E0C22ED12CC80ED91E09C0C701BE0184
:100C6000A8010E94632A0884D985C02D2897CE0147
:100C700008968C159D0591F7DF91CF911F910F91EB
:100C8000FF90EF90DF90CF9008958F929F92AF9258
:100C9000BF92CF92DF92EF92FF920F931F93DF9359
:100CA000CF93CDB7DEB72A970FB6F894DEBF0FBE4D
:100CB000CDBF4C015B018A016115710519F486E114
:100CC00090E025C08CE090E00E94C42D6C017C0176
:100CD000009739F487E190E09093CD048093CC04A1
:100CE0006AC0DC0111969C928E9215961C930E930D
:100CF00014971396BC92AE9212970E94F6058C013F
:100D0000009761F4F6011782168286E090E09093D6
:100D1000CD048093CC04EE24FF244DC0D601179659
:100D20009C938E931697FC0186819781009731F4EE
:100D3000C80106969783868391878087D80112968B
:100D40006D917C911397CE0101964AE050E00E948C
:100D5000B330E981FA81309741F0C60109950097D7
:100D600021F0F60117821682D2CFC6010896D8016B
:100D70001696ED91FC91179793838283D60119966D
:100D8000FC93EE93189798012A5F3F4F1B963C9374
:100D90002E931A97F80197838683F1E0AF16B1047A
:100DA00019F486E696E002C08AE696E0B60147E0CE
:100DB00050E00E94632AC7012A960FB6F894DEBF5E
:100DC0000FBECDBFCF91DF911F910F91FF90EF909C
:100DD000DF90CF90BF90AF909F908F900895CF936A
:100DE000DF93EC018E819F81009749F489E090E0C8
:100DF0009093CD048093CC042FEF3FEF18C08A81ED
:100E00009B818130910519F48EE696E002C082E75D
:100E100096E0BE0147E050E00E94632A8EE796E02C
:100E2000BE0146E050E00E94632A20E030E0C901A4
:100E3000DF91CF910895CF92DF92EF92FF920F93BF
:100E40001F93DF93CF93CDB7DEB72A970FB6F894F1
:100E5000DEBF0FBECDBF8C017B016A01DC0116969F
:100E6000ED91FC911797309719F489E090E012C04A
:100E700062817381CE0101964AE050E00E94B33056
:100E8000F801828180FF04C0EB81FC81309749F436
:100E900081E090E09093CD048093CC042FEF3FEF5E
:100EA00012C0C801B701A60109959C0197FF05C0B2
:100EB00088279927821B930B02C080E090E09093D3
:100EC000CD048093CC04C9012A960FB6F894DEBFF6
:100ED0000FBECDBFCF91DF911F910F91FF90EF908B
:100EE000DF90CF900895CF92DF92EF92FF920F9311
:100EF0001F93DF93CF93CDB7DEB72A970FB6F89441
:100F0000DEBF0FBECDBF8C017B016A01DC011696EE
:100F1000ED91FC911797309719F489E090E012C099
:100F200062817381CE0101964AE050E00E94B330A5
:100F3000F801828181FF04C0ED81FE81309749F480
:100F400081E090E09093CD048093CC042FEF3FEFAD
:100F500012C0C801B701A60109959C0197FF05C001
:100F600088279927821B930B02C080E090E0909322
:100F7000CD048093CC04C9012A960FB6F894DEBF45
:100F80000FBECDBFCF91DF911F910F91FF90EF90DA
:100F9000DF90CF900895EF92FF920F931F93DF930E
:100FA000CF93CDB7DEB72A970FB6F894DEBF0FBE4A
:100FB000CDBF8C017B01DC011696ED91FC9117975A
:100FC000309719F489E090E00EC062817381CE0100
:100FD00001964AE050E00E94B330E985FA853097E7
:100FE00049F481E090E09093CD048093CC042FEFFE
:100FF0003FEF11C0C801B70109959C0197FF05C0DB
:1010000088279927821B930B02C080E090E0909381
:10101000CD048093CC04C9012A960FB6F894DEBFA4
:101020000FBECDBFCF91DF911F910F91FF90EF9039
:101030000895CF93DF930E949729C8ECD0E004C0B5
:1010400088EE93E00E94D92921978FEFCF3FD807F0
:10105000B9F70E94EB03DF91CF910895809165026B
:10106000813071F480916A02882311F080E001C020
:1010700082E0809365028823F9F48DE391E01EC03D
:101080008EE996E060E070E047E050E00E94632A5D
:1010900097FF0CC000D08BEB92E6EDB7FEB79283C2
:1010A00081830E9499260F900F90089581E080938C
:1010B000650287E391E002C082E391E000D000D0B6
:1010C00029E932E6EDB7FEB7328321839483838327
:1010D0000E9499260F900F900F900F9008950E94F4
:1010E0002E08089580916602909167020E941B0766
:1010F0000895EF92FF920F931F93DF93CF93CDB795
:10110000DEB7A8970FB6F894DEBF0FBECDBFDC01E7
:1011100014960D911C911597809168029091690227
:1011200008171907F9F481E080936A02809165023B
:10113000813011F01092650285E1E82EF12CEC0E61
:10114000FD1EC801B70144E150E00E941B07AC013D
:10115000181619060CF0D3C08091CA049091CB04E4
:10116000B701C2C0D8011696ED91FC911797CF0137
:101170000696268137812817390709F4C0C0809167
:101180006602909167020817190741F080910E09D5
:1011900090910F090817190709F0B1C080916402F6
:1011A000882339F080910E0990910F0908171907CB
:1011B00089F480916502813069F0C801BE016F5FDA
:1011C0007F4F44E150E00E941B077C01181619066E
:1011D0001CF095C0EE24FF2480910E0990910F0918
:1011E00008171907C1F52091660230916702FE01C8
:1011F000319680E090E007C041914D3119F40E9492
:101200002E0807C001968E159F051CF42115310587
:1012100099F780916502813019F486E996E069C0FA
:10122000882361F48091680290916902009731F0FF
:10123000BE016F5F7F4FA7010E9473078091640218
:10124000813009F45CC0809166029091670200973A
:1012500009F046C054C080916402882309F047C059
:10126000FE01319680E090E030C021912A3A61F58C
:1012700081E08093640200D000D000D0EDB7FEB7CB
:1012800031968AED92E6ADB7BEB712969C938E93D7
:101290001197A0916602B091670216960D90BC91CD
:1012A000A02D8D919C919383828381E491E095831D
:1012B00084830E949926EDB7FEB736960FB6F89450
:1012C000FEBF0FBEEDBF04C001968E159F056CF2E8
:1012D00080916402813099F08091CA049091CB048E
:1012E000BE016F5F7F4FA7010E94730708C082E8AD
:1012F00096E060E070E047E050E00E94632AA89624
:101300000FB6F894DEBF0FBECDBFCF91DF911F9116
:101310000F91FF90EF90089580916602909167027F
:101320000E947307089580916602909167020E945F
:10133000EF06089587E491E063E070E040E050E05C
:101340000E9445069093670280936602009799F089
:101350001092640282E08093650280E591E063E090
:1013600070E040E050E00E9445069093690280934F
:101370006802009719F42DEE3FEF02C020E030E044
:10138000C90108951F93FB011FB7F89460E270E054
:101390000E94D330660F771F660F771FE60FF71F87
:1013A00021E030E040E050E004C0220F331F441F32
:1013B000551F8A95D2F780819181A281B381822BBA
:1013C000932BA42BB52B80839183A283B3831FBF60
:1013D0001F9108951F93FB011FB7F89460E270E01E
:1013E0000E94D330660F771F660F771FE60FF71F37
:1013F00021E030E040E050E004C0220F331F441FE2
:10140000551F8A95D2F780819181A281B381822B69
:10141000932BA42BB52B80839183A283B3831FBF0F
:101420001F9108952F923F924F925F927F928F92D9
:101430009F92AF92BF92CF92DF92EF92FF920F9363
:101440001F93DF93CF9300D000D000D0CDB7DEB78D
:101450006BE6E62E62E0F62E53E2A52EB12CCC24EC
:10146000DD2480E090E020E030E041E0442E512C8B
:1014700001C0980189010F5F1F4FF50170806091D5
:101480008702462F50E0022E02C0559547950A94D8
:10149000E2F740FD0BC0A20102C0440F551F2A9580
:1014A000E2F79A01262B2093870251C0F701808032
:1014B00087249924939440E050E02FE6222E22E0E6
:1014C000322E200E311E98012C583D4F3A8329832D
:1014D000F801EF57FD4FFC83EB83F10120812921B7
:1014E00079F1292D282161F1E981FA8120812921D1
:1014F00089F0F7012081292169F4CA018C0D9D1D15
:101500006AE772E04D835E830E94C20981E090E049
:101510005E814D81EB81FC812081292189F0F701D9
:101520002081292169F0CA018C0D9D1D6AE772E0B6
:101530004D835E830E94C20981E090E05E814D810F
:101540004F5F5F4F4830510511F0990CC6CFF7013E
:1015500071927F0128E030E0C20ED31E43E050E0DC
:10156000A40EB51E0530110509F083CF009741F098
:1015700086E896E06AE772E047E050E00E94632A5E
:1015800026960FB6F894DEBF0FBECDBFCF91DF9188
:101590001F910F91FF90EF90DF90CF90BF90AF9091
:1015A0009F908F907F905F904F903F902F900895E5
:1015B00088329105B8F5AC014770507021E030E0F9
:1015C00002C0220F331F4A95E2F773E09595879585
:1015D0007A95E1F790E0722F7095FC01EB58FD4F82
:1015E000508157235083DC01AE57BD4F4C914723A8
:1015F0004C93DC01A059BD4F3C9137233C9360FFD5
:1016000002C0522B508361FF05C0FC01EE57FD4F15
:10161000422B408367FF09C080599D4F232BFC015B
:10162000208303C02AEE3FEF02C020E030E0C90172
:1016300008958091E80080FFFCCF089581E08093B9
:10164000D70080EA8093D80082E189BD09B400FE0A
:10165000FDCF80E98093D8001092E00010926E01D7
:101660001092700110926F018CE08093E20080E094
:1016700090E0089580E090E008950F931F9380918B
:101680006E018823A9F11FB7F89483E08093E900E5
:10169000E091F200862F972FDC0120E030E0F0E0AF
:1016A00083E00FC08093E9009091E80095FD02C0AF
:1016B0001FBF10C08093E9009091F1009D932F5FB0
:1016C0003F4F642F752FE617F7070CF4BF0126175D
:1016D000370744F383E08093E9008091F200882388
:1016E00029F48091E8008F778093E8001FBF02C043
:1016F00025EF3FEFC9011F910F910895E2EEF0E051
:101700008081877F8083089580916E0190E00895A5
:1017100080916F019091700108951F93DC01809179
:101720006E01882309F41BC12FB7F89484E08093DD
:10173000E90080917901882341F08091E80085FDDE
:1017400002C02FBF16C01092790114E050E44AE3A2
:1017500035E0FEC08091E400875E9091E80095FD41
:1017600015C02FBF9091E400981731F481E0809369
:1017700079012BEF3FEFF5C090916E01992309F4A9
:10178000EEC02FB7F8941093E900E7CF8091F200F4
:10179000E52FE81B8E2F90E06817790708F4E62FF5
:1017A0006E1B7109F0E0E134F10508F0C5C0EA51A3
:1017B000FF4CEE0FFF1F0590F491E02D09948D91E1
:1017C0008093F1008D918093F1008D918093F100D1
:1017D0008D918093F1008D918093F1008D91809394
:1017E000F1008D918093F1008D918093F1008D91A6
:1017F0008093F1008D918093F1008D918093F100A1
:101800008D918093F1008D918093F1008D91809363
:10181000F1008D918093F1008D918093F1008D9175
:101820008093F1008D918093F1008D918093F10070
:101830008D918093F1008D918093F1008D91809333
:10184000F1008D918093F1008D918093F1008D9145
:101850008093F1008D918093F1008D918093F10040
:101860008D918093F1008D918093F1008D91809303
:10187000F1008D918093F1008D918093F1008D9115
:101880008093F1008D918093F1008D918093F10010
:101890008D918093F1008D918093F1008D918093D3
:1018A000F1008D918093F1008D918093F1008D91E5
:1018B0008093F1008D918093F1008D918093F100E0
:1018C0008D918093F1008D918093F1008D918093A3
:1018D000F1008D918093F1008D918093F1008D91B5
:1018E0008093F1008D918093F1008D918093F100B0
:1018F0008D918093F1008D918093F1008D91809373
:10190000F1008D918093F1008D918093F1008D9184
:101910008093F1008D918093F1008D918093F1007F
:101920008D918093F1008D918093F1008D91809342
:10193000F1008D918093F1008D918093F100809161
:10194000E80085FD02C04093E800309378012FBF86
:101950006115710509F0FECE20E030E002C025EFF0
:101960003FEFC9011F910895EF92FF92CF93DF934C
:10197000CB01EA01209759F480916E01882379F018
:1019800080916F019091700180FD0BC008C0BA0179
:101990000E948D0B009729F0CFEFDFEF02C0C5EF5B
:1019A000DFEFCE01DF91CF91FF90EF90089583E0BC
:1019B00090E09093CD008093CC0010928D02109215
:1019C0008C0210928B0210928A0288E98093C900DF
:1019D00080E090E0089580E090E00895862F972FB2
:1019E000FC0180E090E008C021913091C80035FFF3
:1019F000FCCF2093CE00019684179507ACF3CA0163
:101A00000895E9ECF0E08081877680830895EF9275
:101A1000FF92CF93DF93CB0160918C0270918D0286
:101A200020E230E0261B370BC0918A02D0918B0256
:101A3000C20FD31FCF71D0704C175D070CF4EA01B1
:101A40002C173D070CF4E901209749F162577D4FAF
:101A5000AE010E94632880918C0290918D028C0FC0
:101A60009D1F8F71907090938D0280938C021092C5
:101A7000AF021092AE0220918A0230918B02281B95
:101A8000390B2F7130702115310559F084E392E044
:101A900066E776E047E050E00E94180602C0C5EF16
:101AA000DFEFCE01DF91CF91FF90EF900895883066
:101AB00091056CF440917E0021E030E002C0220FDD
:101AC000331F8A95E2F7422B40937E0008954091A0
:101AD0007D00089721E030E002C0220F331F8A9575
:101AE000E2F7422B40937D000895CF93DF938091DE
:101AF0007C008F7380937C0080917C008064809355
:101B00007C0080917A00876080937A0080917A00CF
:101B10008F7780937A00C0E0D0E0CE010E94570D0D
:101B20002196C830D105C9F780E090E0DF91CF91D0
:101B30000895DF92EF92FF920F931F93DC0188309C
:101B4000910508F046C0E090B002F090B10200911B
:101B5000B2021091B302E1E0F0E002C0EE0FFF1F0D
:101B60008A95E2F79F01442737FD4095542FCA011B
:101B7000B9016E217F2180239123611571058105B3
:101B8000910539F52E293F29402B512B2093B00286
:101B90003093B1024093B2025093B3029D01220FE1
:101BA000331F2A0F3B1F220F331F2B503C4999F044
:101BB00080917E00E095E823E0937E0080917C0098
:101BC000807E80937C0080917C008A2B80937C00B7
:101BD00002C020E030E0C9011F910F91FF90EF900B
:101BE000DF900895855F9346959587952BEA3AEAAD
:101BF000829FF001839FF00D929FF00D112461E010
:101C000070E00E2E02C0660F771F0A94E2F760950F
:101C10007095882777FD8095982F2091B00230919C
:101C2000B1024091B2025091B302262337234823D8
:101C300059232093B0023093B1024093B2025093E3
:101C4000B302CF010E94570D089580917A008064FD
:101C500080937A0080917A0086FDFCCF8091780095
:101C600090E0A0E0B0E040917900342F20E04427DC
:101C700037FD4095542F282B392B4A2B5B2BB9016C
:101C8000CA01089541505040509387004093860008
:101C900080E090E008958091860090918700019601
:101CA000BC0180E090E0089541505040509397006F
:101CB0004093960080E090E0089580919600909186
:101CC00097000196BC0180E090E008954150409358
:101CD000D10080E090E008952091D10030E02F5FA6
:101CE0003F4F442737FD4095542FB901CA0108954D
:101CF000DF93CF9300D000D0CDB7DEB748BD80E0F2
:101D000090E00F900F900F900F90CF91DF9108957A
:101D100068B570E080E090E00895FC013896259168
:101D20003591459154912F5F3F4F4F4F5F4FB90110
:101D3000CA01089521E030E004B404FC02C020E0B0
:101D400030E0C9010895411551056105710519F08B
:101D500084B5806102C084B58F7E84BD80E090E050
:101D60000895BB27A72F962F852F80938900409336
:101D7000880080E090E0089580918800909189002B
:101D8000BC0180E090E008958091800021E030E087
:101D900086FD02C020E030E0C901089541155105DB
:101DA0006105710521F080918000806403C08091FD
:101DB00080008F7B8093800080E090E00895BB27B7
:101DC000A72F962F852F80938B0040938A0080E069
:101DD00090E0089580918A0090918B00BC0180E092
:101DE00090E008958091800021E030E084FD02C001
:101DF00020E030E0C90108954115510561057105E4
:101E000021F080918000806103C0809180008F7EEE
:101E10008093800080E090E00895BB27A72F962F45
:101E2000852F80938D0040938C0080E090E0089592
:101E300080918C0090918D00BC0180E090E008952D
:101E40008091800021E030E082FD02C020E030E09F
:101E5000C9010895411551056105710521F0809171
:101E60008000846003C0809180008B7F809380001D
:101E700080E090E00895BB27A72F962F852F8093B1
:101E800099004093980080E090E008958091980038
:101E900090919900BC0180E090E0089580919000BD
:101EA00021E030E086FD02C020E030E0C901089565
:101EB000411551056105710521F080919000806404
:101EC00003C0809190008F7B8093900080E090E031
:101ED00008954093D20080E090E008956091D20090
:101EE00070E080E090E008958091C100992787FD1F
:101EF0009095892F881F8827881F90E008954115A5
:101F000051056105710521F08091C100806803C011
:101F10008091C1008F778093C10080E090E00895A8
:101F200021E030E002C0220F331F8A95E2F74427F8
:101F300037FD4095542F8091B4029091B502A09145
:101F4000B602B091B702282339234A235B2361E00C
:101F500070E0211531054105510511F460E070E094
:101F6000CB010895895294469595879595958795C7
:101F700027EB3DE6AC01429FC001439F900D529F6D
:101F8000900D11240E94900F009729F08091BB02C0
:101F900081508093BB028091BB02882329F48091F9
:101FA000C100847F8093C1008091C2008E7F8093A6
:101FB000C200579808951F931091BB02112349F452
:101FC00081E08093BB028091C1008B608093C1004F
:101FD00017C089529446959587959595879527EBD7
:101FE0003DE6AC01429FC001439F900D529F900D72
:101FF00011240E94900F009719F41F5F1093BB02E9
:102000008091C20089608093C200579A80E090E07E
:102010001F9108951F93895294469595879595959C
:10202000879547EB5DE6849F9001859F300D949FD7
:10203000300D1124122FC9010E94900F009729F032
:102040008091BA0281508093BA028091BA028823AB
:1020500071F4809190008D7F809390008091910029
:10206000807E80939100109297001092960080914C
:1020700090008F77809390003E9821E030E002C07E
:10208000220F331F1A95E2F720953095442737FD2C
:102090004095542F8091B4029091B502A091B60260
:1020A000B091B70282239323A423B5238093B40273
:1020B0009093B502A093B602B093B7021F91089512
:1020C0000F931F938952944695958795959587957B
:1020D00047EB5DE6849F9001859F300D949F300D06
:1020E0001124022F1091BA021123A1F481E08093F0
:1020F000BA0280919000826080939000809191005C
:102100008A61809391008FE39CE99093970080937C
:10211000960008C0C9010E94900F009719F41F5F34
:102120001093BA02809190008068809390003E9A4C
:1021300021E030E002C0220F331F0A95E2F7442766
:1021400037FD4095542F8091B4029091B502A09133
:10215000B602B091B702822B932BA42BB52B8093A0
:10216000B4029093B502A093B602B093B70280E098
:1021700090E01F910F9108950E94900F009729F011
:102180008091B90281508093B9028091B90288236D
:1021900071F4809180008D7F809380008091810018
:1021A000807E8093810010928700109286000895AF
:1021B0001F9389529446959587959595879547EBFA
:1021C0005DE6849F9001859F300D949F300D112412
:1021D000122FC9010E94BC10E0E8F0E08081877FE7
:1021E0008083279821E030E002C0220F331F1A9528
:1021F000E2F720953095442737FD4095542F809184
:10220000B4029091B502A091B602B091B7028223B8
:102210009323A423B5238093B4029093B502A09393
:10222000B602B093B7021F9108951F938952944646
:10223000959587959595879547EB5DE6849F9001E9
:10224000859F300D949F300D1124122FC9010E94DB
:10225000BC10E0E8F0E080818F7D8083269821E04B
:1022600030E002C0220F331F1A95E2F72095309517
:10227000442737FD4095542F8091B4029091B502C8
:10228000A091B602B091B70282239323A423B52371
:102290008093B4029093B502A093B602B093B702B4
:1022A0001F9108951F93895294469595879595950A
:1022B000879547EB5DE6849F9001859F300D949F45
:1022C000300D1124122FC9010E94BC10E0E8F0E08B
:1022D00080818F778083259821E030E002C0220F33
:1022E000331F1A95E2F720953095442737FD409526
:1022F000542F8091B4029091B502A091B602B09192
:10230000B70282239323A423B5238093B40290932E
:10231000B502A093B602B093B7021F9108951F9320
:102320001091B9021123A1F481E08093B902809148
:102330008000826080938000809181008A61809318
:1023400081008FE39CE9909387008093860007C00B
:102350000E94900F009719F41F5F1093B9021F910C
:1023600008951F93895294469595879595958795DD
:1023700047EB5DE6849F9001859F300D949F300D63
:102380001124122FC9010E948F11E0E8F0E0808132
:1023900088608083279A21E030E002C0220F331F3B
:1023A0001A95E2F7442737FD4095542F8091B402E7
:1023B0009091B502A091B602B091B702822B932BF7
:1023C000A42BB52B8093B4029093B502A093B602D0
:1023D000B093B70280E090E01F9108951F93895257
:1023E0009446959587959595879547EB5DE6849FEF
:1023F0009001859F300D949F300D1124122FC9013B
:102400000E948F11E0E8F0E0808180628083269A4C
:1024100021E030E002C0220F331F1A95E2F7442773
:1024200037FD4095542F8091B4029091B502A09150
:10243000B602B091B702822B932BA42BB52B8093BD
:10244000B4029093B502A093B602B093B70280E0B5
:1024500090E01F9108951F93895294469595879512
:102460009595879547EB5DE6849F9001859F300D9C
:10247000949F300D1124122FC9010E948F11E0E8A2
:10248000F0E0808180688083259A21E030E002C0FE
:10249000220F331F1A95E2F7442737FD4095542F3A
:1024A0008091B4029091B502A091B602B091B702AA
:1024B000822B932BA42BB52B8093B4029093B5025F
:1024C000A093B602B093B70280E090E01F91089508
:1024D0001F9389529446959587959595879547EBD7
:1024E0005DE6849F9001859F300D949F300D1124EF
:1024F000122FC9010E94900F009729F08091B80215
:1025000081508093B8028091B802882319F484B571
:102510008C7F84BD84B58F7D84BD509821E030E0F0
:1025200002C0220F331F1A95E2F7209530954427F9
:1025300037FD4095542F8091B4029091B502A0913F
:10254000B602B091B70282239323A423B5238093CC
:10255000B4029093B502A093B602B093B7021F9154
:1025600008950F931F938952944695958795959555
:10257000879547EB5DE6849F9001859F300D949F82
:10258000300D1124022F1091B802112339F481E08B
:102590008093B80284B5836084BD08C0C9010E94DD
:1025A000900F009719F41F5F1093B80284B58062F2
:1025B00084BD509A21E030E002C0220F331F0A95FB
:1025C000E2F7442737FD4095542F8091B402909153
:1025D000B502A091B602B091B702822B932BA42B27
:1025E000B52B8093B4029093B502A093B602B0933A
:1025F000B70280E090E01F910F910895289A239AE6
:1026000080E090E0089580E48CBD8CB580688CBD3E
:1026100080E090E008958CB58F778CBD8CB58F7B72
:102620008CBD08958091FA049091FB04809590955B
:102630002091FC043091FD04820F931F8F709070E5
:10264000242F352F821793070CF49C012115310597
:10265000F1F0862F972FFC0180E090E014C04091AC
:10266000FA045091FB046191DA01A052BB4F5E96CF
:102670006C935E974F5F5F4F4F7050705093FB04A9
:102680004093FA040196821793074CF302C025EF9A
:102690003FEFC9010895EF92FF92CF93DF93CB01F3
:1026A0006091E4047091E50420E130E0261B370BD3
:1026B000C091E204D091E304C20FD31FCF70D07059
:1026C0004C175D070CF4EA012C173D070CF4E901E7
:1026D000209749F16A517B4FAE010E946328809197
:1026E000E4049091E5048C0F9D1F8F70907090937F
:1026F000E5048093E4041092F7041092F60420910C
:10270000E2043091E304281B390B2F70307021153F
:10271000310559F08EE392E066E776E047E050E05D
:102720000E94180602C0C5EFDFEFCE01DF91CF9106
:10273000FF90EF90089500D08BED94E6EDB7FEB7D3
:10274000928381830E9499260F900F900895AF92F3
:10275000BF92CF92DF92EF92FF920F931F93CF938E
:10276000DF93C0E0D0E02CE0E22E25E6F22E96E0EA
:10277000C92E95E6D92E84E0A82E85E6B82E8E01C6
:10278000077010700115110591F400D000D0ADB79D
:10279000BEB71296FC92EE9211971496DC93CE93EC
:1027A00013970E9499260F900F900F900F90899188
:1027B00000D000D0EDB7FEB73196ADB7BEB71296D8
:1027C000DC92CE921197828313820E9499260F90F9
:1027D0000F900F900F900730110549F400D0EDB71E
:1027E000FEB7B282A1820E9499260F900F90F1E06D
:1027F000C030DF0721F600D082E095E6ADB7BEB766
:1028000012969C938E9311970E9499260F900F9089
:1028100080E090E0DF91CF911F910F91FF90EF90BA
:10282000DF90CF90BF90AF900895CF93DF93CBE828
:10283000D1E0CE0162E070E040E050E00E94450649
:102840009093CB048093CA04CE0161E070E040E035
:1028500050E00E94450690930F0980930E0980E096
:1028600090E0DF91CF910895E1E6F0E080E8808389
:1028700010820E94F8270E940B2A0E94062980E0FD
:1028800090E00895EF92FF920F931F93DA01FC01FD
:1028900084819581FC01E60FF71FE590F590059185
:1028A0001491EC921196FC92119712960C93129738
:1028B00013961C93139721153105C1F06C5F7F4F60
:1028C000680F791FFB01259135914591549114961C
:1028D0002C93149715963C93159716964C93169730
:1028E00017965C93179728E030E002C024E030E0B0
:1028F000C9011F910F91FF90EF900895CF93DF933F
:10290000FA01DC011696CD91DC911797C60FD71FFF
:1029100080819181A281B38188839983AA83BB83BB
:102920002115310559F084819581A681B7818C8369
:102930009D83AE83BF8328E030E002C024E030E016
:10294000C901DF91CF910895EF92FF92CF93DF936A
:10295000EC0100D084E995E6EDB7FEB79283818360
:102960000E9499260F900F90209721F000D08DE8BB
:1029700095E603C000D087E895E6EDB7FEB79283F1
:1029800081830E9499260F900F90CE01DF91CF9105
:10299000FF90EF900895AC0187E991E061E070E06D
:1029A0000E9445069C01009721F420910E09309168
:1029B0000F09C9010895EF92FF92CF93DF93E82E9C
:1029C000E7017E01F92EE701209759F1C7010E9426
:1029D000CB1499838883009721F400D083E795E690
:1029E00018C087E991E062E070E0A7010E94450607
:1029F0009B838A83009731F48091CA049091CB0421
:102A00009B838A838A819B81009771F400D08EE535
:102A100095E6EDB7FEB7928381830E9499260F90C9
:102A20000F902FEF3FEF02C020E030E0C901DF91AF
:102A3000CF91FF90EF900895CF93DF93DA01EC01EF
:102A4000EC81FD812115310559F4E60FF71F8591C1
:102A500094918C9311969C93119722E030E009C0D9
:102A60006E0F7F1FCA0148E050E00E94B33028E09B
:102A700030E0C901DF91CF910895CF93DF93DA0160
:102A8000EC01EC81FD812115310539F4E60FF71FCA
:102A9000E491EC9321E030E009C06E0F7F1FCA0182
:102AA00048E050E00E94B33028E030E0C901DF91F7
:102AB000CF9108959B01BA01FC0186819781820F15
:102AC000931F48E050E00E94632888E090E008955A
:102AD000FB01BA01DC0116968D919C911797211587
:102AE000310559F4E80FF91FDA018D919C91119786
:102AF0009183808322E030E008C08E0F9F1F48E062
:102B000050E00E94632828E030E0C9010895FB01ED
:102B1000BA01DC0116968D919C911797211531050C
:102B200041F4E80FF91FDA018C91808321E030E055
:102B300008C08E0F9F1F48E050E00E94632828E0E5
:102B400030E0C90108959B01FC0164817581620F29
:102B5000731FCA0148E050E00E94632888E090E0BB
:102B6000089540E150E00E94730797FF0BC000D02A
:102B700083E395E6EDB7FEB7928381830E949926A1
:102B80000F900F900895FC01A681B7810480F58114
:102B9000E02D6681778112968D919C9113970E940A
:102BA000B11508958F929F92AF92BF92CF92DF920C
:102BB000EF92FF920F931F93DF93CF93CDB7DEB7C2
:102BC000A4970FB6F894DEBF0FBECDBFDC011696FA
:102BD0000D911C9117978091C0029091C1020097AE
:102BE00039F481E090E09093C1028093C00227C045
:102BF000F80184899589009711F1809110099091CD
:102C00001109A0911209B09113092091BC023091D1
:102C1000BD02245F3F4F281B390B37FF10C000D087
:102C200088E495E6ADB7BEB712969C938E93119744
:102C30000E949926F801158A148A0F900F908091AE
:102C4000100990911109A0911209B0911309809374
:102C5000BC029093BD02A093BE02B093BF02D80104
:102C6000ED90FC90119794E0C92ED12CC00ED11E8E
:102C700054968D919C915597B601680F791F40E14C
:102C800050E0481B590BC7010E941B071816190674
:102C90008CF0009749F4C7010E94EF06C8010E941A
:102CA000CB14F80191838083D80155961C921E9213
:102CB000549733C1F80124893589280F391F358B82
:102CC000248B2031310508F428C1158A148A6681C5
:102CD000862F8E71823009F020C1858182958F7098
:102CE00061706295607F682B70E083E0660F771FEC
:102CF0008A95E1F762527449FCE666307F0770F40A
:102D0000CE01019648E050E00E94B330D8011796FA
:102D10008C91179790E086FD00C117C0F801828161
:102D200093812DEE3FEF4FEF5FEFD80118962D9373
:102D30003D934D935C931B9717962C9117972062A8
:102D400017962C931797B601E4C08F7190709595E4
:102D50008795A1E0EA2EF12C02C0EE0CFF1C8A95AB
:102D6000E2F7CC24DD24AA24BB24F9E08F2E912C99
:102D70008C0E9D1E29C06B817C816C0D7D1DC40154
:102D80004AE050E00E94B330EB85FC858591949138
:102D900049855A85F80124816581362F3F702417B3
:102DA000350758F0215030402E0D3F1D4150504006
:102DB000480F591F421753076CF40894A11CB11C0B
:102DC0008AE090E0C80ED91E89819A81A816B906BA
:102DD00094F28CC0D80117962C91179730E0207888
:102DE000307069897A896115710521F1CE014396A8
:102DF00040E150E02BA33CA30E94B330D8011796CA
:102E0000EC911797F0E0CE0101962BA13CA1E0FDDB
:102E100009C0EE71F070E80FF91FC288D388A0E0F6
:102E2000B0E00CC03197EE71F070E80FF91FA28D81
:102E3000B38D02C0A0E0B0E0CC24DD244F815885E2
:102E4000BA01C8010496E0E1EE2EFC010190CF0129
:102E5000FB010192BF01EA94C1F7FA01838180640A
:102E60008383C114D10499F0D80114966C911497FE
:102E700015968C91782F7F7089859A85681B790BC0
:102E80004C5F5F4FCE010996F601099512C010976D
:102E9000A1F0F80164818581782F7F7089859A85FA
:102EA000681B790BA801485F5F4FCE010996FD01B1
:102EB00009959C0197FF12C002C02FEF3FEFEF81F1
:102EC000F885D80112968D919C9113973095219594
:102ED0003F4F442737FD4095542F13C06F817885AD
:102EE000F801828193810E94B11517C0EF81F885A6
:102EF000D80112968D919C91139726E130E040E025
:102F000050E02483358346835783238120622383C3
:102F1000BF0140E150E00E947307A4960FB6F894F9
:102F2000DEBF0FBECDBFCF91DF911F910F91FF90FC
:102F3000EF90DF90CF90BF90AF909F908F900895CB
:102F40009B0168E070E00E94D3306F5F7F4FFB0110
:102F5000EE0FFF1FE60FF71F2115310551F092A16B
:102F600021E030E002C0220F331F8A95E2F7922B56
:102F70000AC092A121E030E002C0220F331F8A95DF
:102F8000E2F72095922392A3089568E070E00E94F2
:102F9000D3306F5F7F4FFB01EE0FFF1FE60FF71F70
:102FA00090A121E030E002C0220F331F8A95E2F7A2
:102FB000922321E030E011F420E030E0C9010895CF
:102FC00068E070E00E94D3306F5F7F4FFB01EE0F2F
:102FD000FF1FE60FF71F90A121E030E002C0220F93
:102FE000331F8A95E2F7922321E030E011F420E0CC
:102FF00030E0C90108959C01FB014FB7F89460E2ED
:1030000070E00E94D330660F771F660F771FE60FC0
:10301000F71F80819181A281B3814FBF2F713070E2
:1030200004C0B695A795979587952A95D2F79C01E8
:1030300021703070C90108958FEF9FEF08958FEFD1
:103040009FEF08958FEF9FEF08958FEF9FEF089503
:103050008FEF9FEF08958FEF9FEF0895AF92BF928C
:10306000CF92DF92EF92FF920F931F93CF93DF9354
:103070005B01E42EE7017E01F52EE7012115310504
:1030800021F474E0C72ED12C03C061E0C62ED12CF0
:1030900000E010E018827801EA0CFB1CC70168EE22
:1030A00072E00E94FB17009719F088818260888384
:1030B000C70160EF72E00E94FB17009719F088814A
:1030C00081608883C70168EF72E00E94FB17009758
:1030D00019F08881806888830F5F1F4F0C151D05CC
:1030E00014F42196D7CFC601DF91CF911F910F9194
:1030F000FF90EF90DF90CF90BF90AF900895DC01EC
:103100001496ED91FC91159780819181A281B381F4
:103110002091D8023091D9024091DA025091DB021D
:10312000822B932BA42BB52B8093D8029093D9029A
:10313000A093DA02B093DB02108211821282138212
:1031400084819581A681B7812091DC023091DD02D6
:103150004091DE025091DF02822B932BA42BB52BE2
:103160008093DC029093DD02A093DE02B093DF0235
:1031700014821582168217828091D8029091D9020A
:10318000A091DA02B091DB020097A105B105B9F474
:103190008091DC029091DD02A091DE02B091DF020D
:1031A0000097A105B10559F400D087E096E6EDB788
:1031B000FEB7928381830E9499260F900F908EED27
:1031C0009BE68E5D9B46E3E095958795EA95E1F752
:1031D0009093E1028093E00281E090E09093E3021B
:1031E0008093E2028EE896E060EE72E047E050E005
:1031F0000E94632A0895CF92DF92EF92FF920F937D
:103200001F93DF93CF93CDB7DEB728970FB6F8940F
:10321000DEBF0FBECDBF8B01D42EC52E08521D4F71
:103220002115310521F4B4E0EB2EF12C03C0A1E00F
:10323000EA2EF12CCE01019668ED72E048E050E0F4
:103240000E9463289601832F9C2DFC0180E090E072
:10325000D8012C9121931D928D0101968E159F0509
:10326000BCF389819A81AB81BC810097A105B1052E
:1032700049F48D819E81AF81B8850097A105B10584
:1032800009F445C08091D8029091D902A091DA0248
:10329000B091DB020097A105B105C9F58091DC0270
:1032A0009091DD02A091DE02B091DF020097A105AE
:1032B000B10569F58EED9BE68E5D9B46F3E0959535
:1032C0008795FA95E1F79093E5028093E4021092D6
:1032D000E7021092E6028EE896E064EE72E047E0C4
:1032E00050E00E94632A009791F000D000D088E15E
:1032F00096E6EDB7FEB7928381838AEA91E09483E4
:1033000083830E9499260F900F900F900F90C70112
:1033100028960FB6F894DEBF0FBECDBFCF91DF91D8
:103320001F910F91FF90EF90DF90CF900895AF9293
:10333000BF92CF92DF92EF92FF920F931F93CF93A2
:10334000DF938B012115310521F494E0C92ED12C96
:1033500003C081E0C82ED12CE42EE7017E01F52EBA
:10336000E701EE24FF245E01888181FF05C0C801CA
:1033700068EE72E00E94EA09888180FF05C0C801FA
:1033800060EF72E00E94EA09888187FF05C0C801EA
:1033900068EF72E00E94EA092196F5016081C80198
:1033A00070E00E94D80A9C0197FD09C00894E11CB6
:1033B000F11C0F5F1F4FEC14FD04ACF29601C90124
:1033C000DF91CF911F910F91FF90EF90DF90CF9001
:1033D000BF90AF9008952F923F924F925F926F925D
:1033E0007F928F929F92AF92BF92CF92DF92EF9295
:1033F000FF920F931F93DF93CF9300D000D000D0A4
:10340000CDB7DEB73B018C01F3E0000F111FFA9539
:10341000E1F74115510511F4290103C0E8E04E2EF2
:10342000512CEE24FF243E832D8392C0C70168E017
:1034300070E00E94D3309B014D815E814830510580
:1034400021F1C70160E170E00E94D3305B01AA0C5A
:10345000BB1CA60CB71CC70160E270E00E94D33011
:103460006B01CC0CDD1CCC0CDD1CC60CD71C61E048
:1034700070E080E090E069837A838B839C8388246A
:1034800099241301220E331E57C0F301E60FF71FD4
:103490004081C80187709070009799F6C8016D81CE
:1034A0007E810E94D3306F5F7F4FFB01EE0FFF1FC5
:1034B000E60FF71F42A346C08D819E8180319105A2
:1034C00059F08032910571F08830910509F045C0BE
:1034D000D1018C9190E003C0F50180819181A0E041
:1034E000B0E005C0F60180819181A281B381940191
:1034F000200F311F49815A816B817C818423952360
:10350000A623B72361E070E00097A105B10511F48F
:1035100060E070E0C9010E94A0170894811C911C12
:1035200069817A818B819C81660F771F881F991F23
:1035300069837A838B839C838D819E81881699060B
:103540000CF4BACFAD81BE81EA0EFB1E0A0F1B1F21
:10355000E414F5040CF46ACF04C02AEE422E2FEFD7
:10356000522EC20126960FB6F894DEBF0FBECDBF15
:10357000CF91DF911F910F91FF90EF90DF90CF904F
:10358000BF90AF909F908F907F906F905F904F9083
:103590003F902F900895CB01BA01A90128E030E0B7
:1035A0000E94EB190895CB01BA01A90120E130E096
:1035B0000E94EB190895CB01BA01A90120E230E085
:1035C0000E94EB190895CB01BA01A90128E030E06F
:1035D0000E94EB190895CB01BA01A90128E030E05F
:1035E0000E94EB1908952F923F924F925F926F9233
:1035F0007F928F929F92AF92BF92CF92DF92EF9283
:10360000FF920F931F93DF93CF9300D000D0CDB7DD
:10361000DEB73B013C832B838C0163E0000F111F5D
:103620006A95E1F74115510511F4290103C028E01D
:10363000422E512CCC24DD2428E030E08FC0C6017E
:10364000B9010E94D3301B01F301E60FF71F8B81F4
:103650009C8180319105E9F080329105F1F088304C
:10366000910519F5C80187709070009781F4C80121
:103670006B817C810E94D3306F5F7F4FDB01AA0F8B
:10368000BB1FA60FB71F90968C91909701C08AEE32
:103690008083AAEDBFEFB183A0838AED9FEFAFEFE8
:1036A000BFEF80839183A283B3838824992454013C
:1036B000EE24FF241CC0C701800F911F29833A8389
:1036C0000E94C517AA2797FDA095BA2F0E2C04C0FB
:1036D000880F991FAA1FBB1F0A94D2F7882A992A1C
:1036E000AA2ABB2A0894E11CF11C3A812981AB81EA
:1036F000BC81EA16FB06FCF2A031B10559F0A032FC
:10370000B105A9F0A830B10571F5F301E20DF31D83
:1037100080821EC0C6016B817C810E94D330660FFF
:10372000771F660D771DFB019182808211C0C60153
:103730006B817C810E94D330660F771F660F771FE5
:10374000660D771DDB018D929D92AD92BC92139711
:10375000EB81FC81CE0EDF1E0E0F1F1FC414D5049B
:103760000CF46DCF04C0AAEE4A2EAFEF5A2EC20160
:103770000F900F900F900F90CF91DF911F910F91AD
:10378000FF90EF90DF90CF90BF90AF909F908F9081
:103790007F906F905F904F903F902F900895CB0156
:1037A000BA01A90128E030E00E94F31A0895CB0184
:1037B000BA01A90120E130E00E94F31A0895CB017B
:1037C000BA01A90120E230E00E94F31A08956F9235
:1037D0007F928F929F92AF92BF92CF92DF92EF92A1
:1037E000FF920F931F93DF93CF93CDB7DEB7289748
:1037F0000FB6F894DEBF0FBECDBF4C01762E672EFC
:103800008A0179014115510519F4C22EDF2C03C03C
:1038100078E2C72ED12CC4015E010894A11CB11C12
:10382000B501A80197010E94F31A97FD1EC0C601B9
:1038300068E070E00E94D330C301E92FF62DD50176
:1038400080E090E005C031912C91232B2D930196BF
:1038500086179707C4F3C401BE016F5F7F4FA701AE
:1038600098010E94EB199C0102C02FEF3FEFC901A4
:1038700028960FB6F894DEBF0FBECDBFCF91DF9173
:103880001F910F91FF90EF90DF90CF90BF90AF907E
:103890009F908F907F906F900895CB01BA01A901FE
:1038A00020E130E00E94E71B0895CB01BA01A90195
:1038B00020E230E00E94E71B08956F927F928F9282
:1038C0009F92AF92BF92CF92DF92EF92FF920F93AF
:1038D0001F93DF93CF93CDB7DEB728970FB6F89439
:1038E000DEBF0FBECDBF4C01762E672E8A01790157
:1038F0004115510519F4C22EDF2C03C0E8E2CE2E8B
:10390000D12CC4015E010894A11CB11CB501A80111
:1039100097010E94F31A97FD1EC0C60168E070E08F
:103920000E94D330C301E92FF62DD50180E090E04D
:1039300005C031912C91232B2D9301968617970763
:10394000C4F3C401BE016F5F7F4FA70198010E94BD
:10395000EB199C0102C02FEF3FEFC90128960FB66B
:10396000F894DEBF0FBECDBFCF91DF911F910F91B5
:10397000FF90EF90DF90CF90BF90AF909F908F908F
:103980007F906F900895CB01BA01A90120E130E04A
:103990000E945D1C0895CB01BA01A90120E230E02C
:1039A0000E945D1C08952F923F924F925F927F92EA
:1039B0008F929F92AF92BF92CF92DF92EF92FF923F
:1039C0000F931F93CF93DF931C01F62FE72FC901AD
:1039D0004115510531F468E070E00E94D3307B015D
:1039E00003C018E0E12EF12CCF01892E9E2E00E0BD
:1039F00010E0B1E0AB2EB12C39C0F40141904F0181
:103A00005524C201837090708330910599F168014B
:103A1000C20CD31CC6010E94C5179C01C60168E0F8
:103A200070E00E94D330782E6F5F7F4FEB01CC0F98
:103A3000DD1FC60FD71FC601B9010E94A01741FEA6
:103A400009C029A1C50102C0880F991F7A94E2F725
:103A5000282B09C029A1C50102C0880F991F7A949B
:103A6000E2F78095282329A30F5F1F4F0E151F052E
:103A700024F204C0FAEEEF2EFFEFFF2EC701DF9114
:103A8000CF911F910F91FF90EF90DF90CF90BF905B
:103A9000AF909F908F907F905F904F903F902F902E
:103AA0000895CB01BA01A90128E030E00E94D31C9F
:103AB0000895CB01BA01A90120E130E00E94D31C96
:103AC0000895CB01BA01A90120E230E00E94D31C85
:103AD0000895CF92DF92EF92FF920F931F93CF93AF
:103AE000DF937C01F62FE72FC9014115510531F411
:103AF00068E070E00E94D3309B0102C021E030E01A
:103B0000CF01C92EE6016E01DE2EE601E0E0F0E015
:103B100008E010E01DC0CF018E0D9F1DB8010E946E
:103B2000D3306F5F7F4FDB01AA0FBB1FA60FB71FFC
:103B300091964C91919750E002C0559547958A9582
:103B4000E2F740FF02C082E001C081E08993319634
:103B5000E217F30704F3C901DF91CF911F910F9191
:103B6000FF90EF90DF90CF900895CB01BA01A901AB
:103B700028E030E00E94691D0895CB01BA01A90137
:103B800020E130E00E94691D0895CB01BA01A9012E
:103B900020E230E00E94691D08958AEE9FEF0895AB
:103BA00080917A00992787FD9095A92FB92F8827B2
:103BB000B7FD83959927AA27BB27FA0180839183B4
:103BC000A283B38380E090E00895FA01808191811F
:103BD000A281B3810097A105B10531F00E94750D56
:103BE00080917A00806803C080917A008F778093FB
:103BF0007A0080E090E00895EF92FF920F931F9378
:103C0000DF93CF9300D000D0CDB7DEB78A01CB01D0
:103C1000E6E096958795EA95E1F76F7370706C30E2
:103C2000710509F45EC06D30710558F4643071059A
:103C300051F16830710509F441C06115710571F0E9
:103C40007FC06431710509F478C06831710509F4E9
:103C500074C06031710509F073C057C021E4298335
:103C600024E42A836AE070E00E94BF30605D6B83C9
:103C7000805D8C83C801BE016F5F7F4F44E050E0E0
:103C80000E9463285AC0FC01EE0FFF1FE80FF91FC6
:103C9000EE0FFF1FEB50FC49808190E0880F991FC9
:103CA00021E030E04181442311F420E030E0822B18
:103CB000932BAA2797FDA095BA2F0DC0FC01EE0FFC
:103CC000FF1FE80FF91FEE0FFF1FEB50FC49828129
:103CD0009381A481B581F80180839183A283B3830A
:103CE0002CC020917A0027FF2EC00E94990D7C01E4
:103CF000009761F10E94250EF80160837183828331
:103D00009383C7010E94F20D18C02091B002309138
:103D1000B1024091B2025091B30204C0569547954A
:103D2000379527958A95D2F7217030704070507082
:103D3000F801208331834283538320E030E008C0C0
:103D40002AEE3FEF05C023EF3FEF02C020EF3FEF29
:103D5000C9010F900F900F900F90CF91DF911F919D
:103D60000F91FF90EF900895CF92DF92EF92FF9224
:103D70000F931F93DF93CF93CDB7DEB760970FB646
:103D8000F894DEBF0FBECDBF6B018A019B0146E0F8
:103D9000369527954A95E1F78CE190E0289FB00190
:103DA000299F700D389F700D112429E2E22E24E620
:103DB000F22EE60EF71E6B5C7B49CE01019640E1C8
:103DC00050E00E94B3308FE3C822DD24A0E1CA1680
:103DD000D10461F1B4E1CB16D10481F1ECE0CE164F
:103DE000D104B9F5D8018C9180FF06C0E981FA8130
:103DF000C70109956C0106C0EB81FC81C7010995DB
:103E0000CC24DD24EF85F889309739F1D8014D9124
:103E10005D916D917C917695679557954795417029
:103E2000507060707070C701099517C0F80140812B
:103E3000518162817381E985FA8507C0D8014D916E
:103E40005D916D917C91EB85FC85C70109956C01B5
:103E500004C08AEEC82E8FEFD82EC60160960FB62A
:103E6000F894DEBF0FBECDBFCF91DF911F910F91B0
:103E7000FF90EF90DF90CF9008958F929F92AF9236
:103E8000BF92CF92DF92EF92FF920F931F93DF9337
:103E9000CF93CDB7DEB760970FB6F894DEBF0FBEF5
:103EA000CDBF5B018A014B0166E0969487946A95C9
:103EB000E1F78CE190E0889E7001899EF00C989E5D
:103EC000F00C112459E2C52E54E6D52ECE0CDF1C81
:103ED000B7016B5C7B49CE01019640E150E00E9446
:103EE000B3308FE3A822BB24E8E0AE16B10409F496
:103EF00050C0F9E0AF16B10448F4A114B104B1F018
:103F000084E0A816B10409F082C020C0E0E1AE163A
:103F1000B10409F46FC0F4E1AF16B10409F46DC047
:103F20008CE0A816B10409F072C040C0C801B60107
:103F300044E050E00E94B330F80180819381908387
:103F40008383818192819183828364C0F701E35DE1
:103F5000FB4985919591A591B491B070F80180834A
:103F60009183A283B38329853A852115310529F0F0
:103F7000B16080839183A283B3838B859C850097F6
:103F800009F448C0F80180819181A281B381B260B7
:103F90002CC0F701EF5CFB4985919591A591B491F7
:103FA000F80180839183A283B38334C0C4010E944B
:103FB000900F21E030E040E050E0009719F420E05D
:103FC00030E0A901F8012083318342835383ED85DA
:103FD000FE853097F9F0C60109950097D9F0F801F0
:103FE00080819181A281B381826080839183A28349
:103FF000B38310C0ED81FE8102C0EF81F885C60158
:104000000995F801608371838283938303C02AEE4C
:104010003FEF02C020E030E0C90160960FB6F8948F
:10402000DEBF0FBECDBFCF91DF911F910F91FF90EB
:10403000EF90DF90CF90BF90AF909F908F900895BA
:1040400021153105A9F4CB0183709070009799F484
:104050006C7F60547E4FFB0180819181A281B3818E
:10406000FA0180839183A283B38324E030E005C00A
:104070002FEF3FEF02C02AEE3FEFC90108950097EE
:1040800011F0769A08957698089580E090E00E9465
:104090003F206E9A80E090E0089521E030E00097A4
:1040A00011F420E030E0C9010E943F200895EF9212
:1040B000FF920F931F93FA012115310509F086C075
:1040C0006830710541F06C30710509F446C0643008
:1040D000710509F07BC02091C0013091C101409170
:1040E000C2015091C301E080F1800281138180916F
:1040F000C4019091C501A091C601B091C70164307F
:10410000710529F4E82AF92A0A2B1B2B08C0E09430
:10411000F09400951095E822F9220A231B23E092DF
:10412000C401F092C5010093C6011093C701E09449
:10413000F094009510958091D0019091D101A091BB
:10414000D201B091D301E822F9220A231B23E216FF
:10415000F3060407150731F53CC08091C00190912A
:10416000C101A091C201B091C301E080F180028140
:104170001381E094F09400951095E822F9220A2327
:104180001B232091D0013091D1014091D201509157
:10419000D301E22AF32A042B152BE816F9060A07A5
:1041A0001B07B9F081E090E0E114F104010511056D
:1041B00011F480E090E00E944D20E092C001F09266
:1041C000C1010093C2011093C30103C02FEF3FEF61
:1041D00002C024E030E0C9011F910F91FF90EF90E1
:1041E0000895EF92FF920F931F93DC011496ED91C7
:1041F000FC911597808191818032910508F08DC0E6
:10420000E090D001F090D1010091D2011091D30142
:1042100061E070E002C0660F771F8A95E2F7CB017C
:1042200080959095AA2797FDA095BA2F8E219F2162
:10423000A023B1238093D0019093D101A093D20108
:10424000B093D301228133812115310589F09B017F
:10425000442737FD4095542F282B392B4A2B5B2BB5
:104260002093D0013093D1014093D2015093D301D8
:104270008091D0019091D101A091D201B091D30150
:10428000E816F9060A071B0709F447C0E090C401C5
:10429000F090C5010091C6011091C701A8019701D6
:1042A0002095309540955095282339234A235B2348
:1042B0008091C0019091C101A091C201B091C30150
:1042C000281739074A075B0741F12093C001309353
:1042D000C1014093C2015093C3012115310541052D
:1042E000510581F0882777FD8095982F6E297F29C9
:1042F000802B912B6093C4017093C5018093C601FC
:104300009093C70181E090E02115310541055105E9
:1043100011F480E090E00E944D201F910F91FF90DA
:10432000EF900895CF93DF939B01FA0168E070E06E
:104330000E94D3306F5F7F4FDB01AA0FBB1FA60F18
:10434000B71FBD016E5F7F4FED01219641E050E048
:1043500002C0440F551F8A95E2F7309729F09296D4
:104360008C919297842B06C092968C919297942F61
:104370009095892392968C9392972115310519F087
:1043800088A1842B07C0FB0180A1842B80A388A176
:104390004095842388A3DF91CF910895CF93DF9335
:1043A000EC0181E190E061E070E0AE010E949221B9
:1043B000209741F081E190E060E070E041E050E062
:1043C0000E949221DF91CF910895CF93DF93EC016A
:1043D00080E190E061E070E0AE010E9492212097C0
:1043E00041F080E190E060E070E041E050E00E9448
:1043F0009221DF91CF9108958093B003882361F0DB
:10440000843051F0893041F082E996E060E070E05C
:1044100047E050E00E94632A08958EEF9BE68E5D90
:104420009B4633E0959587953A95E1F79093B203D3
:104430008093B10381E090E09093B4038093B30341
:104440008EE896E061EB73E047E050E00E94632A5B
:10445000009759F000D086ED97E6EDB7FEB792834E
:1044600081830E9499260F900F900895AF92BF927A
:10447000CF92DF92EF92FF920F931F93CF93DF9330
:104480005C016B017A012115310519F008E010E09B
:1044900002C004E010E0C0E0D0E0FE01EC7FEE0DD1
:1044A000FF1D80819181A281B381F501208131813D
:1044B0002C0D3D1D2C0F3D1F2C31310509F446C03C
:1044C0002D313105A8F42031310509F458C02131CE
:1044D000310528F42830310509F058C01BC02431BB
:1044E000310509F44CC02831310509F04FC017C01F
:1044F0002832310571F12932310528F42432310591
:1045000009F044C026C02C32310541F12833310571
:10451000E9F52CC0909325038093240330C081706B
:104520009070009761F180912A0381FD32C0826012
:1045300080932A0382E996E060E070E047E050E073
:104540000E94632A9C0197FF1AC025C080932B0309
:1045500016C0909327038093260311C08093AE0367
:104560008091B003843059F483E007C08093AD0399
:104570008091B003893019F488E00E94FC212496D0
:10458000C017D10708F489CF980105C02FEF3FEF7E
:1045900002C020EF3FEFC901DF91CF911F910F9132
:1045A000FF90EF90DF90CF90BF90AF9008952F9243
:1045B0003F924F925F926F927F928F929F92AF92B3
:1045C000BF92CF92DF92EF92FF920F931F93DF93F0
:1045D000CF9300D000D0CDB7DEB79A8389832B016B
:1045E0003A012115310519F008E010E002C004E09D
:1045F00010E08EEF9BE68E5D9B4673E09595879568
:104600007A95E1F7382E292E20E030E060E8C62EBA
:10461000D12CE12CF12C55EBA52E53E0B52E4CEF0F
:10462000842E47E6942EF901EC7FE60DF71DA98153
:10463000BA818D919C911197840D951D820F931FC6
:104640008032910509F48FC081329105E0F4803108
:10465000910509F480C08131910540F488309105BD
:1046600079F18C30910509F0A1C02FC088319105F6
:1046700009F471C08C31910509F472C0843191053F
:1046800009F094C068C08C32910509F471C08D3274
:10469000910548F48432910509F477C08832910578
:1046A00009F084C072C08433910509F467C088336F
:1046B000910509F466C08033910509F077C05BC0AD
:1046C000809124039091250364C080912A0390E097
:1046D000A0E0B0E080839183A283B3830097A1051B
:1046E000B10509F45CC03092B503F5012182109246
:1046F000B8031092B7038EE896E065EB73E047E0ED
:1047000050E02B833C830E94632A2B813C810097DD
:1047100079F000D0ADB7BEB712969C928E921197E9
:104720002B833C830E9499260F900F903C812B8114
:104730008091B003843099F1893089F182E996E063
:1047400061E070E047E050E02B833C830E94632AE5
:104750002B813C8124C010821182128213821FC0DF
:1047600080912B0310C0C082D182E282F38217C0F5
:104770008091AE0308C08091AF0305C08091AC0367
:1047800002C08091AD0390E004C080912603909117
:104790002703A0E0B0E080839183A283B3832C5FE2
:1047A0003F4F2017310708F43ECF02C00FEF1FEF35
:1047B000C8010F900F900F900F90CF91DF911F9134
:1047C0000F91FF90EF90DF90CF90BF90AF909F90B0
:1047D0008F907F906F905F904F903F902F900895B3
:1047E00080E090E00E94E5218091200390912103D8
:1047F00062E070E00E94D330CB010E94D929089575
:1048000081E090E00E94CE218091200390912103CD
:10481000019662E070E00E94D330CB010E94D9295A
:104820000895EF92FF920F931F9381E090E00E9412
:10483000E521E0901009F090110900911209109102
:10484000130912C08091100990911109A0911209C9
:10485000B091130920912203309123032E0D3F1DA7
:10486000281B390B37FD0FC080E190E00E94E01754
:10487000009741F380912003909121030E94D92950
:1048800020E030E002C022E93FEFC9011F910F9103
:10489000FF90EF900895EF92FF920F931F93CF93A5
:1048A000DF93C7E0D0E0082F10E0E2E0EE2EF12C1D
:1048B000C8010C2E02C0959587950A94E2F7817085
:1048C00090700E94CE218091200390912103019647
:1048D000B7010E94D330CB010E94D9290E94112434
:1048E00097FD19C00E94F02321973FEFCF3FD307D8
:1048F000F9F60E9400240E94112497FD0CC081E16A
:1049000090E00E94E017EC010E94F023209731F420
:1049100020E030E005C022E93FEF02C02FEF3FEF7B
:10492000C901DF91CF911F910F91FF90EF900895F2
:104930001F93182F80E090E00E94CE2180912003E9
:1049400090912103019662E070E00E94D330CB0188
:104950000E94D9290E94112481E090E00E94CE217A
:1049600080912003909121030E94D92910932A035A
:10497000113011F08BE001C080E08093B0030E9401
:104980000D221F910895EF92FF920F931F93CF93E3
:10499000DF93DC0114962C911497222339F02130F7
:1049A00009F034C110922A0380E029C18AEF90E017
:1049B0009093230380932203E0E2F3E08AE090E007
:1049C00090932103809320038091B003853009F4F4
:1049D00070C0863050F4813019F1813098F0823007
:1049E00039F1833009F027C12CC0873009F482C027
:1049F000873008F474C0883009F47FC08A3009F029
:104A00001AC100C180E090E00E94CE218091200375
:104A1000909121030E94D9290E94F02381E0EFC0E8
:104A2000809124030E944B2497FD60C082E0E7C080
:104A30008091260390912703009741F111861086FB
:104A400034C0E091AF03F0E0E05EFC4F84850E944B
:104A50004B2497FD4BC020912803309129032F5FF1
:104A60003F4F30932903209328036091AF036F5F7A
:104A70006F776093AF034091260350912703809195
:104A8000AE032417350721F48093AF0385E0B7C048
:104A900090E0861B91098F7790708430910519F40E
:104AA0000E940D2202C0009711F083E0A8C084E0AC
:104AB000A6C08091240380FFA5C00E9400240E940C
:104AC000112480E090E00E94CE21809120039091FB
:104AD00021030E94D9290E94F02386E090C0809192
:104AE000240381600E944B2497FF02C080E88BC0A2
:104AF00087E085C0118610867FC000912803109141
:104B00002903C801019691878087005E1C4FF80138
:104B100014860E940024C0E0D0E0045F1F4FF2E042
:104B2000EF2EF12C0E94112497FD28C0D8018C9102
:104B3000880F8C9381E190E00E94E017009721F0AC
:104B4000F80180818160808380E090E00E94E5210F
:104B5000C730D10549F48091200390912103B7011A
:104B60000E94D330CB0104C0809120039091210397
:104B70000E94D9292196C830D105A1F6C1E0D0E024
:104B800020912803309129038091260390912703D7
:104B90002817390711F0C0E0D0E0209721F480E019
:104BA00090E00E94CE2180912003909121030196F4
:104BB00062E070E00E94D330CB010E94D9290E94AC
:104BC000112497FD02C00E94F023209711F08AE083
:104BD00016C08091AC0390E0809590952091AD0334
:104BE000820F911D8F7790708C31910519F40E947E
:104BF0000D2202C0009711F088E001C089E00E94F8
:104C0000FC2119C081E00E94982415C000D000D07A
:104C1000EDB7FEB7319683EB97E6ADB7BEB7129608
:104C20009C938E931197228313820E9499260F9052
:104C30000F900F900F90DF91CF911F910F91FF90E8
:104C4000EF90089500005353004B435349534F4D89
:104C50004F53494D00384F4900394F4930314F4982
:104C600031314F490000434E0000434E0000434E97
:104C70000000434E0000434E0000434E0000354408
:104C800033314F49004C435300414453314458524F
:104C90003144585400003444444C585432314F4944
:104CA000000036440000434E0000434E4257482364
:104CB0000000434E0000434E0000434E4B48534813
:104CC0000000434E00003541000034410000434ED7
:104CD0000000434E000033410000324100003141EA
:104CE000000030410F931F93CF93DF939C01AB01E2
:104CF000C9EBD3E0CE01B9010E94A7268C01CE01F9
:104D00000E94EF28C801DF91CF911F910F91089564
:104D1000DF93CF93CDB7DEB79E01275F3F4F8D81E5
:104D20009E816F817885A9010E94A726CF91DF918E
:104D30000895DF93CF93CDB7DEB7FE01359681910D
:104D40009191BF010E947226CF91DF9108952F9219
:104D50003F924F925F926F927F928F929F92AF920B
:104D6000BF92CF92DF92EF92FF920F931F93DF9348
:104D7000CF93CDB7DEB762970FB6F894DEBF0FBE04
:104D8000CDBF1C014E010894811C911C8C01FB01BC
:104D900006C1853229F531E0A32EB12C20E2422E46
:104DA000512C9AE0C92ED12C9501DA0103C080E381
:104DB000482E512C31968491893609F466C08A3682
:104DC000D8F4883509F457C0893588F48A3261F1FE
:104DD0008B3250F4882309F4E6C0853249F5AD01E1
:104DE000D8018D938D01DAC0803311F5E0CF833681
:104DF00049F18436E9F449C08037E9F1813730F46C
:104E00008E3609F4CAC08F3699F42EC08537E9F181
:104E1000883789F1833761F4AD014E5F5F4F8D9123
:104E20009C91BF01DA0119C0CD90DC9011971296C8
:104E3000982F9153993008F0BDCF282F30E02053A0
:104E40003040B8CFAD018C91D8018D938D014E5F6C
:104E50005F4FA4C0F80121938F01FC012191CF0184
:104E60002223C1F7FB0199C05901AD01BAE0CB166D
:104E7000D10439F00CC05901AD0170E1C72ED12C1D
:104E800006C068E0C62ED12C02C05901AD01CA018E
:104E900002969A8B898BDA018D919C91119797FFDD
:104EA0000BC0BAE0CB16D10439F4909581959F4F91
:104EB00031E0E32EF12C02C0EE24FF2421E1622E2A
:104EC000712C6C0E7D1E20E130E0AF01F301380142
:104ED0008A010BC021503040B6010E94BF30DC0176
:104EE000AC52BE4F8C918293CB01009731F02115CB
:104EF000310581F7F801830109C0F80183012031F0
:104F0000310521F420E3288B2FE030E0E114F10497
:104F100089F080E24816510451F421503040D40108
:104F2000A20FB31F9DE29C93EE24FF2403C081E0F7
:104F3000E82EF12CD401A20FB31F80E190E08A1972
:104F40009B098E0D9F1D03C0215030404E92821749
:104F50009307D4F3E114F10439F021503040D40127
:104F6000A20FB31F8DE28C9340E150E0421B530B24
:104F7000C401820F931FD8017F0106C0FC0161911B
:104F8000CF016D932F5F3F4F20313105BCF3F70107
:104F9000040F151F49895A8901C0AD0131968491CA
:104FA000882309F0F6CE9801D8011C922219330902
:104FB000C90162960FB6F894DEBF0FBECDBFCF9188
:104FC000DF911F910F91FF90EF90DF90CF90BF90F6
:104FD000AF909F908F907F906F905F904F903F9099
:104FE0002F90089582E189BD09B400FEFDCF089598
:104FF00084E085BD8AEF87BD81E080936E000895CF
:1050000080EA8093D800089580E98093D8000895BD
:1050100081E88093D7000895262F372FD901282FB4
:10502000392FF9012D9121932223E1F70895FC01F5
:105030009F0141914423E1F7281B390BC9010895D1
:10504000462F572FFC019F014115510529F0619111
:10505000415050406623B9F7281B390BC901089508
:10506000FC01DB0181919D91891729F0891740F49A
:105070002FEF3FEF07C08823A9F720E030E002C000
:1050800021E030E0C9010895282F392FD901862F5A
:10509000972FFC010DC08D919191891729F08917E7
:1050A00058F42FEF3FEF0DC0882349F04150504096
:1050B0004115510581F703C021E030E002C020E036
:1050C00030E0C9010895CF93DF939C01DC01FB011F
:1050D000CB01822B932B80FD1DC0DB01F901CA019E
:1050E00005C0CD91DD91C193D19302978230910596
:1050F000C0F7FA01F695E795CF01880F991F481B75
:10510000590BFC01D901A80FB91FE60FF71F02C008
:1051100081918D93415050408FEF4F3F5807C1F719
:10512000C901DF91CF910895EF92FF920F931F93E2
:105130009C0120FD24C0CB01AA2797FDA095BA2F82
:105140009070A070B070EE24F82E092F1A2FE82A64
:10515000F92A0A2B1B2BF901CA0103C0E192F19233
:10516000029782309105D0F7CA0196958795FC0188
:10517000EE0FFF1F4E1B5F0BCF01820F931FFC0131
:1051800001C06193415050408FEF4F3F5807C9F71E
:10519000C9011F910F91FF90EF9008950895DF933B
:1051A000CF9300D0CDB7DEB79A8389838A3091053B
:1051B00021F48DE090E00E94CF288091CA04909164
:1051C000CB04009739F0BE016F5F7F4F41E050E0A4
:1051D0000E9473070F900F90CF91DF910895EF9287
:1051E000FF92CF93DF93E82EE7017E01F92EE701CE
:1051F00003C090E00E94CF2889918823D1F780E0F6
:1052000090E0DF91CF91FF90EF900895EF92FF92A1
:105210000F931F93CF93DF93C8E0D1E001E618E628
:105220001FC0E991F99109950097D1F000D000D005
:1052300000D0EDB7FEB73196ADB7BEB712961C934E
:105240000E931197E282F382958384830E949926BC
:105250008DB79EB706960FB6F8949EBF0FBE8DBF52
:105260007E0191E0C831D907E0F2C8E0D1E001E663
:1052700018E61FC0E991F99109950097D1F000D087
:1052800000D000D0EDB7FEB73196ADB7BEB71296DD
:105290001C930E931197E282F382958384830E947C
:1052A00099268DB79EB706960FB6F8949EBF0FBE8F
:1052B0008DBF7E0191E0C830D907E0F280E090E038
:1052C000DF91CF911F910F91FF90EF900895FC0116
:1052D0006091100970911109809112099091130940
:1052E0006F5F7F4F8F4F9F4F2091100930911109B1
:1052F000409112095091130926173707480759079B
:1053000099F72E2F3F2F02C021503040121613065E
:10531000DCF320911009309111094091120950914C
:105320001309261B370B480B590BC9010895CF925F
:10533000DF92EF92FF920F931F93CF93DF9300E0E2
:1053400012E0C0E0D2E004C00C0F1D1FCC0FDD1F27
:10535000C8010E9467290097B9F3159507957E014A
:10536000F594E794F594E79482E0C82ED12C0FC011
:10537000E701C00FD11FCE010E946729009709F0F5
:10538000E801C701B6010E94D3307B018E01E11410
:10539000F10471F710931E0400931D0480E090E067
:1053A000DF91CF911F910F91FF90EF90DF90CF9001
:1053B00008959C01E0911D04F0911E0440E157E224
:1053C000E49FC001E59F900DF49F900D112460EAC9
:1053D0007FE00E94D33006C0019718161906E4F347
:1053E0002051374287E22131380718F0862F972F56
:1053F000F4CF2E9FC0012F9F900D3E9F900D112442
:1054000060EA7FE00E94BF3002C061507040161613
:105410001706DCF30895EF92FF920F931F93CF933B
:10542000DF93CEE5D6E087EBE82E84E0F82E38C097
:1054300085EC94E0BE0144E050E00E94B33000915E
:10544000C5041091C60424C08DEB94E0B80148E077
:1054500050E00E94B3306091BF047091C00487EBAC
:1054600094E046E050E00E94B330F092C004E09235
:10547000BF04D093BE04C093BD04E091B704F09183
:10548000B804309719F08DEB94E00995085F1F4F31
:105490008091C7049091C80408171907A9F62496AB
:1054A00086E0C23AD80720F280E290E0909324048C
:1054B0008093230480E090E0DF91CF911F910F91C2
:1054C000FF90EF9008951F931FB7F894E0911F0489
:1054D000F091200440912304509124044150504005
:1054E0009F0120953095A0912104B09122042A0FAC
:1054F0003B1F242335232115310521F41FBF24EF41
:105500003FEF16C09F012F5F3F4F24233523309379
:10551000200420931F041FBFEE0FFF1FEE0FFF1F7D
:10552000EB5DFB4F738362839183808320E030E0E7
:10553000C9011F910895AF92BF92CF92DF92EF926F
:10554000FF920F931F93CF93DF9300912304109149
:1055500024040150104080911F0490912004209158
:10556000210430912204821B930B08231923CC249D
:10557000DD2445EAA42E44E0B42E5AC0C091210493
:10558000D0912204CC0FDD1FCC0FDD1FCB5DDB4F94
:105590006991799183EB94E044E050E00E94B3304C
:1055A000E090B304F090B40428C08BEA94E0B70113
:1055B00048E050E00E94B3306091AD047091AE04B9
:1055C00085EA94E046E050E00E94B330B092AE0429
:1055D000A092AD04888199819093B0048093AF0428
:1055E000E091A704F091A804309719F08BEA94E0B9
:1055F000099588E090E0E80EF91E8091B50490913D
:10560000B604E816F90689F68091230490912404E3
:10561000019720912104309122042F5F3F4F822374
:10562000932390932204809321040894C11CD11CDD
:10563000C016D1060CF4A2CFDF91CF911F910F912C
:10564000FF90EF90DF90CF90BF90AF90089520E053
:1056500030E067E070E040E054E0FB01E21BF30B58
:10566000DA0102C0B595A795EA95E2F7A817B90740
:105670003CF42F5F3F4F2830310579F72FEF3FEF94
:10568000C9010895CF93DF93062E02C095958795A3
:105690000A94E2F780509F4F48E050E0461B570BBA
:1056A00021E030E002C0220F331F4A95E2F7821B4F
:1056B000930BEFB7F89460E270E00E94D330EB01F7
:1056C000CC0FDD1FCC0FDD1FCC5ED64F21E030E0CC
:1056D00040E050E004C0220F331F441F551F8A953D
:1056E000D2F7209530954095509588819981AA816F
:1056F000BB8182239323A423B52388839983AA8320
:10570000BB83EFBFDF91CF910895CF93DF93062E38
:1057100002C0959587950A94E2F780509F4F48E024
:1057200050E0461B570B21E030E002C0220F331F30
:105730004A95E2F7821B930BEFB7F89460E270E0B2
:105740000E94D330EB01CC0FDD1FCC0FDD1FCC5EF0
:10575000D64F21E030E040E050E004C0220F331F7C
:10576000441F551F8A95D2F788819981AA81BB81F0
:10577000822B932BA42BB52B88839983AA83BB837D
:10578000EFBFDF91CF910895DF93CF9300D0CDB7D6
:10579000DEB7FC01EE0FFF1FED53F7492591349161
:1057A000C9010F900F90CF91DF9108954F925F92B2
:1057B0006F927F928F929F92AF92BF92CF92DF9221
:1057C000EF92FF920F931F93DF93CF93CDB7DEB786
:1057D00064970FB6F894DEBF0FBECDBF7C014B01BE
:1057E0000E94C42B6C015701AA0CBB1CB5016D5261
:1057F0007749CE01019642E050E00E94B3306981C2
:105800007A818E010B5F1F4F980140E050E010C07D
:10581000FB0185919591A591B491F90180839183C4
:10582000A283B3832C5F3F4F4F5F5F4F6C5F7F4F0F
:105830004C155D056CF388E090E08E199F0921E01E
:1058400030E002C0220F331F8A95E2F780E091E03A
:10585000821B930B60E270E00E94D330FB01EE0FDD
:10586000FF1FEE0FFF1FEC5EF64F60E070E073C0AD
:105870004190519061907190D8012D913D914D9141
:105880005D918D01242135214621572121153105B6
:105890004105510509F45DC0F501ED51F7498591C8
:1058A00094918B839C83AB81BC81CA01B9018070C8
:1058B0009070611571058105910531F49A014427B5
:1058C0005527E1E1F0E002C0E1E0F0E0222329F415
:1058D000232F342F452F55273896CA01B9016F70F1
:1058E000707080709070611571058105910541F4AB
:1058F00074E056954795379527957A95D1F7349664
:10590000CA01B90163707070807090706115710583
:105910008105910541F462E05695479537952795A5
:105920006A95D1F7329620FF3196A095B095AE0FCB
:10593000BF1F02C0AA0FBB1FEA94E2F7F401B183B4
:10594000A08343E0AA0FBB1F4A95E1F7A25FBA4FBD
:1059500008C06F5F7F4F6C157D050CF489CFA0E008
:10596000B0E0CD0164960FB6F894DEBF0FBECDBF98
:10597000CF91DF911F910F91FF90EF90DF90CF902B
:10598000BF90AF909F908F907F906F905F904F905F
:105990000895CF92DF92EF92FF920F931F93DF93C0
:1059A000CF9300D0CDB7DEB76C018B01CB01BE0128
:1059B0006F5F7F4F0E94D62B009731F189819A81CA
:1059C000B8010E94422B78010894E108F10889810E
:1059D0009A81B7010E94852B81E090E00E2C02C0D5
:1059E000880F991F0A94E2F729813A818227932729
:1059F000B7010E94852B0C191D090230110524F0F6
:105A0000C601B7010E94C92C0F900F90CF91DF9172
:105A10001F910F91FF90EF90DF90CF9008956F92BC
:105A20007F928F929F92AF92BF92CF92DF92EF922E
:105A3000FF920F931F93CF93DF93EC01CE50D5408D
:105A4000CB010E94272B8C0124E0C030D20720F02C
:105A500000D080EA98E60CC001979E0102C03595FF
:105A600027958A95E2F720FF0CC000D08BE798E6D7
:105A7000EDB7FEB7928381830E9499260F900F9015
:105A80006BC07E01F3E0F594E794FA95E1F7C70166
:105A9000B8010E94852BE8E0CE2ED12CC01AD10A85
:105AA00071E0A72EB12C60E2662E712C0730110533
:105AB00009F452C0E501002E02C0CC0FDD1F0A948C
:105AC000E2F74E018E249F249401002E02C03595EA
:105AD00027950A94E2F720503F4FC5010C2C02C0D5
