:1000000032C00000000000000000000000000000FE
:1000100000000000000000000000000000000000E0
:1000200000000000000000003DC000007DC0000096
:1000300000000000000000000000000000000000C0
:1000400000000000000000000000000000000000B0
:10005000000000000000000000000000F6C20000E8
:1000600000006AC20CC211241FBECFEFDAE0CDBF80
:10007000DEBFE0E0FCE60DE6A0E0B1E0E833F0072B
:100080001CF425902D92FACFA0E4B2E007E0A03155
:10009000B00714F41D92FBCF0E94CB1478940E94F9
:1000A0004D08E1CF1F920F920FB60F9211248F933C
:1000B0009F938091E1001092E10083FF13C01092A2
:1000C000E90091E09093EB001092EC0092E19093A4
:1000D000ED0098E09093F0001092520110925401BC
:1000E0001092530182FF19C080915201882379F048
:1000F00080915C01882359F0815080935C018823B2
:1001000031F484E08093E9008AE38093E80083E09F
:100110008093E90084E08093F0009F918F910F908D
:100120000FBE0F901F9018951F920F920FB60F924F
:100130001124EF92FF920F931F932F933F934F93AE
:100140005F936F937F938F939F93AF93BF93EF933F
:10015000FF93DF93CF930F92CDB7DEB78091F4007A
:1001600083FF14C083E08093E9008091E80082FF60
:1001700008C08AE092E06CED76E047E050E00E9433
:100180004C068091E800887F8093E8001092E90097
:100190008091E80083FF58C12091F1003091F10077
:1001A0008091F100E82EFF244091F100942F80E02F
:1001B000E82AF92A0091F10010E04091F100942F13
:1001C00080E0082B192B6091F100A091F10082EFE3
:1001D0008093E800363009F059C084E795E69C0129
:1001E00025503040FC013797459154914E155F05DD
:1001F000F9F4F9014591549140175107C9F42E5F64
:100200003F4FF901859194912E5F3F4FF901249161
:10021000462F50E07A2F60E0462B572B4F3F510579
:1002200019F010F04FEF50E0421750F4242F08C09F
:100230000796295F3F4FF5E68E399F0799F604C16F
:10024000AEEF4091E80050E0BA0165707070611542
:100250007105B9F342FDFBC0322F213108F030E1C6
:10026000AC01632F07C0FA014F5F5F4FE491E09349
:10027000F10061506623B9F7830F911D231BA093F2
:10028000E8002223F1F63031E1F2E1C0353051F4DB
:100290008EEF8093E8000E9468108E2D8068809316
:1002A000E300D5C0393061F5222309F0CDC0E092DA
:1002B0005201109254011092530110925C018EEF82
:1002C0008093E80041E087E995E64093E900FC016E
:1002D0000196E491E093EB00EE2369F09C012F5F1F
:1002E0003F4FFC0184918093EC00C9010196F90114
:1002F00024912093ED004F5F453039F78EE19FC088
:10030000383051F4203809F09FC00E946810809165
:1003100052018093F10070C0313279F4213A09F032
:1003200093C00E946810E5E5F1E081918093F100AF
:1003300021E0EC35F207C9F75FC0303209F039C06F
:10034000213209F081C08091E80082FFFCCFE5E511
:10035000F1E08091F100819331E0EC35F307C9F7CA
:100360008BEF8093E8008EEF8093E8008091550139
:1003700090915601A0915701B0915801803B44E003
:10038000940740E0A40740E0B40709F060C087E7A5
:1003900097E790930108809300082BE088E190E0B4
:1003A0000FB6F894A895809360000FBE209360006C
:1003B0004EC0323251F4213209F046C0F09254015D
:1003C000E09253010E94681017C03323C9F42983B7
:1003D0000E9468102981223851F40093E90090911D
:1003E000EB0081E095FF80E01092E90001C080E021
:1003F0008093F1001092F1008EEF8093E80027C007
:10040000313011F0333001F52230F1F4E114F10410
:10041000D9F40F77802F81508430B0F48EEF809321
:10042000E8000093E900333079F089E18093EB0034
:1004300081E090E002C0880F991F0A95E2F780934F
:10044000EA001092EA0003C081E28093EB000F9073
:10045000CF91DF91FF91EF91BF91AF919F918F91DC
:100460007F916F915F914F913F912F911F910F91CC
:10047000FF90EF900F900FBE0F901F9018951F9256
:100480000F920FB60F9211242F933F934F935F93C8
:100490006F937F938F939F93AF93BF93EF93FF934C
:1004A0002091720230917302609174027091750212
:1004B000A901461B570B4F715070C901809590954B
:1004C000860F971F8F719070009731F481E090E054
:1004D00090939702809396026091CE00809196024D
:1004E00090919702009761F4F901E059FD4F6683FE
:1004F0002F5F3F4F2F713070309373022093720241
:100500004115510541F484E192E06CED76E047E05D
:1005100050E00E944C06FF91EF91BF91AF919F91E7
:100520008F917F916F915F914F913F912F910F909C
:100530000FBE0F901F9018951F920F920FB60F923B
:1005400011242F933F934F935F936F937F938F93D8
:100550009F93AF93BF93EF93FF93AEB5A53009F58B
:100560002091DC043091DD048091DA049091DB0469
:10057000821B930B8F739070009789F0E091DE04DB
:10058000F091DF04E20FF31F80818EBDC901019657
:100590008F7390709093DD048093DC0445C01EBC83
:1005A00043C01EBCAA2309F43FC04091D00450911F
:1005B000D1046091D2047091D3049A01261B370BA9
:1005C0002F733070CA0180959095860F971F8F7397
:1005D0009070009731F481E090E09093D70480937D
:1005E000D6048091D6049091D704009791F4E091BD
:1005F000D404F091D504E40FF51FA0838091D004BA
:100600009091D10401968F7390709093D104809350
:10061000D0042115310541F48EE192E06CED76E0D5
:1006200047E050E00E944C06FF91EF91BF91AF91DF
:100630009F918F917F916F915F914F913F912F91FA
:100640000F900FBE0F901F9018951F920F920FB62C
:100650000F9211242F933F934F935F936F937F9348
:100660008F939F93AF93BF93EF93FF938091E20695
:100670009091E306A091E406B091E5060196A11DD4
:10068000B11D8093E2069093E306A093E406B09335
:10069000E50684EC96E060E070E047E050E00E9400
:1006A0005B2BFF91EF91BF91AF919F918F917F91C4
:1006B0006F915F914F913F912F910F900FBE0F90CF
:1006C0001F901895A407B4079C07A407B407B407A4
:1006D000B407B407C407C407C407C407B407BC07FA
:1006E000B407B407C407CC07CC07D407DC07E4077A
:1006F000BC07C407D407DC07E407EC07EC07F407E2
:10070000FC070408F407FC077501621256129001F9
:100710003E143214E101DD30572FE601492F3D2F01
:10072000EE011F2F132FF601812F072F6C696E69C1
:100730006E6F494F3A2067697420616232386239BE
:1007400030206275696C74207361622032303134FC
:100750002D31302D31312031363A33363A3138208F
:10076000636F6C6F73696D6F40636F6F6C6D6173F6
:10077000740A0000000000000000000000000000FB
:100780000000000000000000000000000000000069
:1007900000000000000000000000000000000664EF
:1007A00000000000000000640000000000008B64F6
:1007B0000000000000007F640000000000004167AE
:1007C00000009E0200000C640000000000003B6777
:1007D00000009E020000166900000000000024686E
:1007E0000000000000008069000000000000D26BE3
:1007F0000000BC040000CC6B0000BC040000856459
:1008000000000000000000000707070700000000CC
:1008100000000707070700000700070700000000A7
:10082000000000000707000007070707000000009E
:1008300000000000000000000000000000000000B8
:1008400000000000000000000000000000000000A8
:100850000000000084EC96E060E070E047E050E0CB
:100860000E945B2B089583B7817F83BF83B781602C
:1008700083BF889583B78E7F83BF089502C00E948F
:10088000A72B0E94932B0097D1F70E943304F9CF36
:1008900080E492E09093410280934002909343025F
:1008A0008093420280E090E00895AF92BF92CF9291
:1008B000DF92EF92FF920F931F93CF93DF93C0913C
:1008C0004002D091410226970E811F8106501040B0
:1008D000E12C91E0F92EC12C82E0D82E4CC0809101
:1008E000E2069091E306A091E406B091E506288126
:1008F0003981821B930B97FD43C06C817D8188EC0D
:1009000096E047E050E00E945B2BAE80BF8080E421
:10091000A81682E0B806C1F09501265030404091FB
:10092000E2065091E3066091E4067091E506F90154
:1009300080819181A281B381840F951FA61FB71F6B
:1009400080839183A283B383A885B985F501B3839E
:10095000A283AD92BC92FF82EE82D986C886CE0178
:100960006AE070E00E94092EF80186819781E80113
:100970008C0106501040F2E0CA33DF0709F0AFCF18
:10098000DF91CF911F910F91FF90EF90DF90CF906B
:10099000BF90AF900895EF92FF920F931F93CF9364
:1009A000DF937B018C01EA018AE090E00E94BD2E7A
:1009B000FC01009709F46AC08091E2069091E30679
:1009C000A091E406B091E5068E0D9F1DA01FB11FFA
:1009D00080839183A283B383D583C483EFB6F894D5
:1009E000A0914002B091410282E0A034B80791F595
:1009F000CF01069613969C938E931297B783A68386
:100A0000B187A08711969C938E933CC02081318141
:100A1000428153816D917D918D919C911397E90154
:100A2000C61BD70BD7FF0AC0621B730B840B950B39
:100A30006D937D938D939C93139714C0261B370B56
:100A4000480B590B208331834283538316960D90B4
:100A5000BC91A02D16978D010A5F1F4F82E00034D4
:100A60001807A1F6CF0106961896CD91DC9119973B
:100A700019969C938E93189717830683D187C08706
:100A800099838883EFBE20E030E002C024EF3FEF7F
:100A9000C901DF91CF911F910F91FF90EF900895C1
:100AA000CF93DF93FC01C481D581EA81FB818E81E4
:100AB0009F8109959F838E8388859985AA85BB85AB
:100AC0002C853D854E855F85820F931FA41FB51F22
:100AD0008C879D87AE87BF872091E2063091E30621
:100AE0004091E4065091E506B901681B790B77FD4A
:100AF00009C0DA01C9010196A11DB11D8C879D872E
:100B0000AE87BF876C857D858E859F85621B730B45
:100B1000840B950BAE010E94CB04DF91CF91089519
:100B2000EF92FF920F931F93CF93DF93E090E20633
:100B3000F090E3060091E4061091E506C8E2D2E0E9
:100B400008C0EC81FD81309719F08E819F81099555
:100B5000609682E0C833D807A0F3C8E2D2E01AC09A
:100B60006C857D858E859F856E0D7F1D801F911FF5
:100B70006C597F4F8F4F9F4F6C877D878E879F87E4
:100B80006E197F09800B910BAE010E94CB0497FD7B
:100B900008C0609682E0C833D80710F320E030E048
:100BA00002C02FEF3FEFC901DF91CF911F910F914D
:100BB000FF90EF9008950F931F93DF93CF93CDB7DE
:100BC000DEB72A970FB6F894DEBF0FBECDBFDC01AB
:100BD00014960D911C911597C8010896F80122856D
:100BE0003385A085B18513963C932E931297F90116
:100BF000B183A083D80119969C938E9318971B9666
:100C00009C938E931A971696ED91FC911797CF01AE
:100C10000696268137812817390771F4628173811E
:100C2000CE0101964AE050E00E946A31EF81F885DA
:100C3000309711F0C8010995F801178216822A969B
:100C40000FB6F894DEBF0FBECDBFCF91DF911F91DD
:100C50000F910895EF92FF920F931F93CF93DF931D
:100C60008C01C0E0D2E00AC068817981F8018081FE
:100C700091810E946E29009739F02A96F2E0C832DD
:100C8000DF0790F3C0E0D0E0CE01DF91CF911F915C
:100C90000F91FF90EF900895CF92DF92EF92FF9225
:100CA0000F931F93CF93DF937B018A01FC01C681D1
:100CB000D7812097A9F0289726E0C22ED12CC80E04
:100CC000D91E09C0C701BE01A8010E945B2B088480
:100CD000D985C02D2897CE0108968C159D0591F7D2
:100CE000DF91CF911F910F91FF90EF90DF90CF9008
:100CF00008958F929F92AF92BF92CF92DF92EF9220
:100D0000FF920F931F93DF93CF93CDB7DEB72A9750
:100D10000FB6F894DEBF0FBECDBF4C015B018A0158
:100D20006115710519F486E190E025C08CE090E032
:100D30000E94BD2E6C017C01009739F487E190E0A0
:100D40009093BB048093BA046AC0DC0111969C9214
:100D50008E9215961C930E9314971396BC92AE9296
:100D600012970E942A068C01009761F4F6011782FF
:100D7000168286E090E09093BB048093BA04EE2440
:100D8000FF244DC0D60117969C938E931697FC01B5
:100D900086819781009731F4C801069697838683F0
:100DA00091878087D80112966D917C911397CE011F
:100DB00001964AE050E00E946A31E981FA81309759
:100DC00041F0C6010995009721F0F60117821682BD
:100DD000D2CFC6010896D8011696ED91FC911797CF
:100DE00093838283D6011996FC93EE93189798010A
:100DF0002A5F3F4F1B963C932E931A97F8019783D7
:100E00008683F1E0AF16B10419F48CEC96E002C0D1
:100E100080ED96E0B60147E050E00E945B2BC701F1
:100E20002A960FB6F894DEBF0FBECDBFCF91DF91EB
:100E30001F910F91FF90EF90DF90CF90BF90AF90F8
:100E40009F908F900895CF93DF93EC018E819F81C7
:100E5000009749F489E090E09093BB048093BA0432
:100E60002FEF3FEF18C08A819B818130910519F4E3
:100E700084ED96E002C088ED96E0BE0147E050E0C8
:100E80000E945B2B84EE96E0BE0146E050E00E949B
:100E90005B2B20E030E0C901DF91CF910895CF9224
:100EA000DF92EF92FF920F931F93DF93CF93CDB713
:100EB000DEB72A970FB6F894DEBF0FBECDBF8C0108
:100EC0007B016A01DC011696ED91FC911797309732
:100ED00019F489E090E012C062817381CE0101961D
:100EE0004AE050E00E946A31F801828180FF04C02C
:100EF000EB81FC81309749F481E090E09093BB0452
:100F00008093BA042FEF3FEF12C0C801B701A601CA
:100F100009959C0197FF05C088279927821B930B91
:100F200002C080E090E09093BB048093BA04C901B2
:100F30002A960FB6F894DEBF0FBECDBFCF91DF91DA
:100F40001F910F91FF90EF90DF90CF900895CF9277
:100F5000DF92EF92FF920F931F93DF93CF93CDB762
:100F6000DEB72A970FB6F894DEBF0FBECDBF8C0157
:100F70007B016A01DC011696ED91FC911797309781
:100F800019F489E090E012C062817381CE0101966C
:100F90004AE050E00E946A31F801828181FF04C07A
:100FA000ED81FE81309749F481E090E09093BB049D
:100FB0008093BA042FEF3FEF12C0C801B701A6011A
:100FC00009959C0197FF05C088279927821B930BE1
:100FD00002C080E090E09093BB048093BA04C90102
:100FE0002A960FB6F894DEBF0FBECDBFCF91DF912A
:100FF0001F910F91FF90EF90DF90CF900895EF92A7
:10100000FF920F931F93DF93CF93CDB7DEB72A974D
:101010000FB6F894DEBF0FBECDBF8C017B01DC01A3
:101020001696ED91FC911797309719F489E090E0AE
:101030000EC062817381CE0101964AE050E00E94A9
:101040006A31E985FA85309749F481E090E0909320
:10105000BB048093BA042FEF3FEF11C0C801B70162
:1010600009959C0197FF05C088279927821B930B40
:1010700002C080E090E09093BB048093BA04C90161
:101080002A960FB6F894DEBF0FBECDBFCF91DF9189
:101090001F910F91FF90EF900895CF93DF9314BEAF
:1010A00088E10FB6F89480936000109260000FBE44
:1010B0000E948F2AC8ECD0E004C088EE93E00E9422
:1010C000D12A21978FEFCF3FD807B9F70E943E046E
:1010D000DF91CF91089580914502813071F4809124
:1010E0004A02882311F080E001C082E0809345022B
:1010F0008823F9F481E291E01EC084E097E060E08B
:1011000070E047E050E00E945B2B97FF0CC000D0DE
:1011100084E394E6EDB7FEB7928381830E94D727DC
:101120000F900F90089581E0809345028BE191E04C
:1011300002C086E191E000D000D022E134E6EDB7B4
:10114000FEB732832183948383830E94D7270F9035
:101150000F900F900F9008950E946B080895809152
:101160004602909147020E944F070895EF92FF9226
:101170000F931F93DF93CF93CDB7DEB7C054D0400A
:101180000FB6F894DEBF0FBECDBFDC0114960D91F3
:101190001C911597809148029091490208171907F0
:1011A000E9F481E080934A0280914502813011F098
:1011B00010924502C8018E010F5F1F4FB80140E435
:1011C00050E00E944F07AC01181619060CF0D3C06E
:1011D0008091B8049091B904B801C2C0D8011696A4
:1011E000ED91FC911797CF0106962681378128173C
:1011F000390709F4C0C08091460290914702081750
:10120000190741F08091E0069091E106081719074F
:1012100009F0B1C080914402882339F08091E00642
:101220009091E1060817190789F4809145028130F1
:1012300069F0C801BE016F5F7F4F40E450E00E943B
:101240004F077C01181619061CF095C0EE24FF24E8
:101250008091E0069091E10608171907C1F52091E9
:10126000460230914702FE01319680E090E007C0CF
:1012700041914D3119F40E946B0807C001968E15FB
:101280009F051CF42115310599F7809145028130A5
:1012900019F48CEF96E069C0882361F480914802CC
:1012A00090914902009731F0BE016F5F7F4FA70117
:1012B0000E94A70780914402813009F45CC08091AC
:1012C000460290914702009709F046C054C08091B1
:1012D0004402882309F047C0FE01319680E090E087
:1012E00030C021912A3A61F581E08093440200D018
:1012F00000D000D0EDB7FEB7319683E594E6ADB7E8
:10130000BEB712969C938E931197A0914602B0910E
:10131000470216960D90BC91A02D8D919C919383C0
:10132000828385E291E0958384830E94D727EDB77D
:10133000FEB736960FB6F894FEBF0FBEEDBF04C0E1
:1013400001968E159F056CF280914402813099F0D0
:101350008091B8049091B904BE016F5F7F4FA701DF
:101360000E94A70708C088EE96E060E070E047E0C2
:1013700050E00E945B2BC05CDF4F0FB6F894DEBFDD
:101380000FBECDBFCF91DF911F910F91FF90EF90D6
:10139000089580914602909147020E94A707089500
:1013A00080914602909147020E94230708958BE2A4
:1013B00091E063E070E040E050E00E947906909395
:1013C000470280934602009799F01092440282E00F
:1013D0008093450284E391E063E070E040E050E0F8
:1013E0000E9479069093490280934802009719F46D
:1013F0002DEE3FEF02C020E030E0C90108951F93B9
:10140000FB011FB7F89460E270E00E948A31660F1A
:10141000771F660F771FE60FF71F21E030E040E0EF
:1014200050E004C0220F331F441F551F8A95D2F786
:1014300080819181A281B381822B932BA42BB52B28
:1014400080839183A283B3831FBF1F9108951F934D
:10145000FB011FB7F89460E270E00E948A31660FCA
:10146000771F660F771FE60FF71F21E030E040E09F
:1014700050E004C0220F331F441F551F8A95D2F736
:1014800080819181A281B381822B932BA42BB52BD8
:1014900080839183A283B3831FBF1F9108952F92EE
:1014A0003F924F925F927F928F929F92AF92BF92A4
:1014B000CF92DF92EF92FF920F931F93DF93CF9320
:1014C00000D000D000D0CDB7DEB76BE4E62E62E0EE
:1014D000F62E53E2A52EB12CCC24DD2480E090E042
:1014E00020E030E041E0442E512C01C098018901F8
:1014F0000F5F1F4FF501708060916702462F50E02B
:10150000022E02C0559547950A94E2F740FD0BC0A4
:10151000A20102C0440F551F2A95E2F79A01262B1B
:101520002093670251C0F701808087249924939407
:1015300040E050E02FE4222E22E0322E200E311E19
:1015400098012C5A3D4F3A832983F801EF59FD4FFA
:10155000FC83EB83F1012081292179F1292D2821B8
:1015600061F1E981FA812081292189F0F701208147
:10157000292169F4CA018C0D9D1D6AE572E04D8335
:101580005E830E94FF0981E090E05E814D81EB81E6
:10159000FC812081292189F0F7012081292169F02E
:1015A000CA018C0D9D1D6AE572E04D835E830E9429
:1015B000FF0981E090E05E814D814F5F5F4F4830D1
:1015C000510511F0990CC6CFF70171927F0128E007
:1015D00030E0C20ED31E43E050E0A40EB51E05302D
:1015E000110509F083CF009741F08CEE96E06AE593
:1015F00072E047E050E00E945B2B26960FB6F8940D
:10160000DEBF0FBECDBFCF91DF911F910F91FF9035
:10161000EF90DF90CF90BF90AF909F908F907F9092
:101620005F904F903F902F9008951F9388329105BF
:1016300008F048C0AC014770507021E030E002C0B3
:10164000220F331F4A95E2F7E3E095958795EA95D7
:10165000E1F790E0122F1095FC01EB5AFD4F5081FD
:1016600051235083DC01AE59BD4F4C9141234C9323
:10167000DC01A05BBD4F3C9131233C9360FF02C075
:10168000522B508361FF05C0FC01EE59FD4F422BE8
:10169000408367FF05C0FC01E05BFD4F322B3083C8
:1016A0006C7070706115710581F0FC01EB5AFD4F93
:1016B0003081322B3083FC01EE59FD4F8081822B2B
:1016C000808303C02AEE3FEF02C020E030E0C90172
:1016D0001F910895ECE7F0E080818F738083808113
:1016E00080648083EAE7F0E0808187608083808186
:1016F0008F77808380E090E00895FC012181822F24
:1017000090E030917C00307E30937C0030917C0002
:10171000883091050CF0205E232B20937C00809173
:101720007A00806480937A0080917A0086FDFCCFF5
:101730008091780090917900392F20E0442737FD7F
:101740004095542F90E0A0E0B0E0282B392B4A2B95
:101750005B2BB901CA010895415050405093870056
:101760004093860080E090E00895809186009091FB
:1017700087000196BC0180E090E008954150504000
:10178000509397004093960080E090E008958091F8
:101790009600909197000196BC0180E090E008953A
:1017A00041504093D10080E090E008952091D10015
:1017B00030E02F5F3F4F442737FD4095542FB9014C
:1017C000CA010895DF93CF9300D000D0CDB7DEB724
:1017D00048BD80E090E00F900F900F900F90CF9158
:1017E000DF91089568B570E080E090E00895FC0115
:1017F000389625913591459154912F5F3F4F4F4F2A
:101800005F4FB901CA01089521E030E004B404FC3F
:1018100002C020E030E0C90108954115510561057D
:10182000710519F084B5806102C084B58F7E84BDD6
:1018300080E090E00895BB27A72F962F852F8093F7
:1018400089004093880080E090E0089580918800AE
:1018500090918900BC0180E090E008958091800023
:1018600021E030E086FD02C020E030E0C9010895AB
:10187000411551056105710521F08091800080645A
:1018800003C0809180008F7B8093800080E090E097
:101890000895BB27A72F962F852F80938B00409309
:1018A0008A0080E090E0089580918A0090918B00FA
:1018B000BC0180E090E008958091800021E030E05C
:1018C00084FD02C020E030E0C901089541155105B2
:1018D0006105710521F080918000806103C08091D5
:1018E00080008F7E8093800080E090E00895BB2789
:1018F000A72F962F852F80938D0040938C0080E03A
:1019000090E0089580918C0090918D00BC0180E062
:1019100090E008958091800021E030E082FD02C0D7
:1019200020E030E0C90108954115510561057105B8
:1019300021F080918000846003C0809180008B7FC3
:101940008093800080E090E00895BB27A72F962F1A
:10195000852F809399004093980080E090E008954F
:101960008091980090919900BC0180E090E00895EA
:101970008091900021E030E086FD02C020E030E060
:10198000C9010895411551056105710521F0809146
:101990009000806403C0809190008F7B80939000C2
:1019A00080E090E008954093D20080E090E00895B8
:1019B0006091D20070E080E090E008958091C100D5
:1019C000992787FD9095892F881F8827881F90E089
:1019D0000895411551056105710521F08091C100FF
:1019E000806803C08091C1008F778093C10080E040
:1019F00090E0089521E030E002C0220F331F8A9565
:101A0000E2F7442737FD4095542F80916902909169
:101A10006A02A0916B02B0916C02282339234A23F9
:101A20005B2361E070E0211531054105510511F49A
:101A300060E070E0CB010895855C944695958795AC
:101A40009595879527EB3DE6AC01429FC001439FEA
:101A5000900D529F900D11240E94FA0C009729F0CE
:101A60008091680281508093680280916802882387
:101A700029F48091C100847F8093C1008091C200CD
:101A80008E7F8093C200579808951F93109168022B
:101A9000112349F481E0809368028091C1008B603A
:101AA0008093C10017C0855C944695958795959560
:101AB000879527EB3DE6AC01429FC001439F900D07
:101AC000529F900D11240E94FA0C009719F41F5F89
:101AD000109368028091C20089608093C200579A77
:101AE00080E090E01F9108951F93855C9446959542
:101AF00087959595879547EB5DE6849F9001859F37
:101B0000300D949F300D1124122FC9010E94FA0C40
:101B1000009729F080916D02815080936D02809131
:101B20006D02882371F4809190008D7F80939000E6
:101B300080919100807E8093910010929700109286
:101B40009600809190008F77809390003E9821E0DE
:101B500030E002C0220F331F1A95E2F7209530952E
:101B6000442737FD4095542F8091690290916A0275
:101B7000A0916B02B0916C0282239323A423B5231E
:101B80008093690290936A02A0936B02B0936C02F7
:101B90001F9108950F931F93855C944695958795A3
:101BA0009595879547EB5DE6849F9001859F300D65
:101BB000949F300D1124022F10916D021123A1F476
:101BC00081E080936D02809190008260809390000C
:101BD000809191008A61809391008FE39CE99093BA
:101BE00097008093960008C0C9010E94FA0C0097E4
:101BF00019F41F5F10936D028091900080688093AC
:101C000090003E9A21E030E002C0220F331F0A9577
:101C1000E2F7442737FD4095542F80916902909157
:101C20006A02A0916B02B0916C02822B932BA42BC1
:101C3000B52B8093690290936A02A0936B02B093D4
:101C40006C0280E090E01F910F9108950E94FA0CC1
:101C5000009729F080916E02815080936E028091EE
:101C60006E02882371F4809180008D7F80938000C4
:101C700080918100807E8093810010928700109275
:101C8000860008951F93855C944695958795959554
:101C9000879547EB5DE6849F9001859F300D949F6B
:101CA000300D1124122FC9010E94260EE0E8F0E049
:101CB0008081877F8083279821E030E002C0220F57
:101CC000331F1A95E2F720953095442737FD40954C
:101CD000542F8091690290916A02A0916B02B09199
:101CE0006C0282239323A423B523809369029093EB
:101CF0006A02A0936B02B0936C021F9108951F9328
:101D0000855C9446959587959595879547EB5DE617
:101D1000849F9001859F300D949F300D1124122FC8
:101D2000C9010E94260EE0E8F0E080818F7D80836B
:101D3000269821E030E002C0220F331F1A95E2F707
:101D400020953095442737FD4095542F80916902A6
:101D500090916A02A0916B02B0916C02822393234E
:101D6000A423B5238093690290936A02A0936B0227
:101D7000B0936C021F9108951F93855C94469595CE
:101D800087959595879547EB5DE6849F9001859FA4
:101D9000300D949F300D1124122FC9010E94260E80
:101DA000E0E8F0E080818F778083259821E030E0C3
:101DB00002C0220F331F1A95E2F720953095442771
:101DC00037FD4095542F8091690290916A02A0914D
:101DD0006B02B0916C0282239323A423B5238093DA
:101DE000690290936A02A0936B02B0936C021F91F8
:101DF00008951F9310916E021123A1F481E0809346
:101E00006E028091800082608093800080918100CA
:101E10008A61809381008FE39CE99093870080938F
:101E2000860007C00E94FA0C009719F41F5F1093F8
:101E30006E021F9108951F93855C94469595879532
:101E40009595879547EB5DE6849F9001859F300DC2
:101E5000949F300D1124122FC9010E94F90EE0E861
:101E6000F0E0808188608083279A21E030E002C022
:101E7000220F331F1A95E2F7442737FD4095542F60
:101E80008091690290916A02A0916B02B0916C02FC
:101E9000822B932BA42BB52B8093690290936A021B
:101EA000A0936B02B0936C0280E090E01F910895C4
:101EB0001F93855C9446959587959595879547EBF7
:101EC0005DE6849F9001859F300D949F300D112415
:101ED000122FC9010E94F90EE0E8F0E080818062D3
:101EE0008083269A21E030E002C0220F331F1A952A
:101EF000E2F7442737FD4095542F80916902909175
:101F00006A02A0916B02B0916C02822B932BA42BDE
:101F1000B52B8093690290936A02A0936B02B093F1
:101F20006C0280E090E01F9108951F93855C9446B9
:101F3000959587959595879547EB5DE6849F9001EC
:101F4000859F300D949F300D1124122FC9010E94DE
:101F5000F90EE0E8F0E0808180688083259A21E036
:101F600030E002C0220F331F1A95E2F7442737FDF5
:101F70004095542F8091690290916A02A0916B0262
:101F8000B0916C02822B932BA42BB52B809369020A
:101F900090936A02A0936B02B0936C0280E090E091
:101FA0001F9108951F93855C944695958795959507
:101FB000879547EB5DE6849F9001859F300D949F48
:101FC000300D1124122FC9010E94FA0C009729F03C
:101FD00080916F02815080936F0280916F028823FD
:101FE00019F484B58C7F84BD84B58F7D84BD5098F1
:101FF00021E030E002C0220F331F1A95E2F720954E
:102000003095442737FD4095542F80916902909177
:102010006A02A0916B02B0916C0282239323A423E5
:10202000B5238093690290936A02A0936B02B093E8
:102030006C021F9108950F931F93855C94469595AC
:1020400087959595879547EB5DE6849F9001859FE1
:10205000300D949F300D1124022F10916F02112327
:1020600039F481E080936F0284B5836084BD08C039
:10207000C9010E94FA0C009719F41F5F10936F02B8
:1020800084B5806284BD509A21E030E002C0220F06
:10209000331F0A95E2F7442737FD4095542F80916E
:1020A000690290916A02A0916B02B0916C02822B3E
:1020B000932BA42BB52B8093690290936A02A09373
:1020C0006B02B0936C0280E090E01F910F91089535
:1020D0008091E80080FFFCCF089581E08093D700D5
:1020E00080EA8093D80082E189BD09B400FEFDCF6B
:1020F00080E98093D8001092E00010925201109273
:102100005401109253018CE08093E20080E090E053
:10211000089580E090E008950F931F9380915201FD
:102120008823A9F11FB7F89483E08093E900E09138
:10213000F200862F972FDC0120E030E0F0E083E012
:102140000FC08093E9009091E80095FD02C01FBF89
:1021500010C08093E9009091F1009D932F5F3F4F55
:10216000642F752FE617F7070CF4BF012617370702
:1021700044F383E08093E9008091F200882329F4FE
:102180008091E8008F778093E8001FBF02C025EFA1
:102190003FEFC9011F910F910895E2EEF0E08081B9
:1021A000877F808308958091520190E00895809107
:1021B00053019091540108951F93DC0180915201C5
:1021C000882309F41BC12FB7F89484E08093E900B9
:1021D00080915D01882341F08091E80085FD02C077
:1021E0002FBF16C010925D0114E050E44AE335E0C1
:1021F000FEC08091E400875E9091E80095FD15C0D7
:102200002FBF9091E400981731F481E080935D0135
:102210002BEF3FEFF5C090915201992309F4EEC0E6
:102220002FB7F8941093E900E7CF8091F200E52FE3
:10223000E81B8E2F90E06817790708F4E62F6E1BD5
:102240007109F0E0E134F10508F0C5C0E154FE4C3D
:10225000EE0FFF1F0590F491E02D09948D9180936E
:10226000F1008D918093F1008D918093F1008D911B
:102270008093F1008D918093F1008D918093F10016
:102280008D918093F1008D918093F1008D918093D9
:10229000F1008D918093F1008D918093F1008D91EB
:1022A0008093F1008D918093F1008D918093F100E6
:1022B0008D918093F1008D918093F1008D918093A9
:1022C000F1008D918093F1008D918093F1008D91BB
:1022D0008093F1008D918093F1008D918093F100B6
:1022E0008D918093F1008D918093F1008D91809379
:1022F000F1008D918093F1008D918093F1008D918B
:102300008093F1008D918093F1008D918093F10085
:102310008D918093F1008D918093F1008D91809348
:10232000F1008D918093F1008D918093F1008D915A
:102330008093F1008D918093F1008D918093F10055
:102340008D918093F1008D918093F1008D91809318
:10235000F1008D918093F1008D918093F1008D912A
:102360008093F1008D918093F1008D918093F10025
:102370008D918093F1008D918093F1008D918093E8
:10238000F1008D918093F1008D918093F1008D91FA
:102390008093F1008D918093F1008D918093F100F5
:1023A0008D918093F1008D918093F1008D918093B8
:1023B000F1008D918093F1008D918093F1008D91CA
:1023C0008093F1008D918093F1008D918093F100C5
:1023D0008D918093F1008D918093F1008091E800C0
:1023E00085FD02C04093E80030935C012FBF61156A
:1023F000710509F0FECE20E030E002C025EF3FEF8E
:10240000C9011F910895EF92FF92CF93DF93CB0103
:10241000EA01209759F480915201882379F0809144
:1024200053019091540180FD0BC008C0BA010E9475
:10243000DC10009729F0CFEFDFEF02C0C5EFDFEF30
:10244000CE01DF91CF91FF90EF90089583E090E06F
:102450009093CD008093CC0010927502109274027C
:10246000109273021092720288E98093C90080E092
:1024700090E0089580E090E00895862F972FFC016A
:1024800080E090E008C021913091C80035FFFCCF7A
:102490002093CE00019684179507ACF3CA010895E6
:1024A000E9ECF0E0808187768083089500D084E4B1
:1024B00096E6EDB7FEB7928381830E94D7270F90EF
:1024C0000F900895EF92FF92CF93DF9382309105A2
:1024D000CCF1DB011296ED91FC911397808190E095
:1024E000C1978330910598F000D000D025E736E6FB
:1024F000EDB7FEB732832183948383830E94D7276D
:102500000F900F900F900F90CAEEDFEF1DC08093D9
:102510007E01FC01EE0FFF1FE80FF91FEE0FFF1FFA
:10252000E45AF949208131814281538160E472E4A7
:102530008FE090E00E949D31215030403093CD00DB
:102540002093CC00C0E0D0E080917E01882351F040
:1025500000D081E796E6ADB7BEB712969C938E93F6
:10256000119707C000D083E796E6EDB7FEB79283D8
:1025700081830E94D72700D000D0EDB7FEB73196F7
:1025800088E696E6ADB7BEB712969C938E931197E8
:1025900081E090E0938382838EE591E0958384834C
:1025A0000E94D727EDB7FEB736960FB6F894FEBF58
:1025B0000FBEEDBF80917E01813051F000D081E7E8
:1025C00096E6ADB7BEB712969C938E93119707C04F
:1025D00000D083E796E6EDB7FEB7928381830E9431
:1025E000D72700D000D0EDB7FEB7319688E696E643
:1025F000ADB7BEB712969C938E93119782E090E090
:102600009383828385E691E0958384830E94D72714
:10261000EDB7FEB736960FB6F894FEBF0FBEEDBF0E
:10262000CE01DF91CF91FF90EF900895EF92FF924E
:10263000CF93DF93CB01609174027091750220E219
:1026400030E0261B370BC0917202D0917302C20F8B
:10265000D31FCF71D0704C175D070CF4EA012C1713
:102660003D070CF4E901209749F16A587D4FAE010E
:102670000E94A12980917402909175028C0F9D1F78
:102680008F719070909375028093740210929702EC
:10269000109296022091720230917302281B390B1E
:1026A0002F7130702115310559F084E192E06CED05
:1026B00076E047E050E00E944C0602C0C5EFDFEF35
:1026C000CE01DF91CF91FF90EF900895289A239A41
:1026D00080E090E008958091DA049091DB04809589
:1026E00090952091DC043091DD04820F931F8F734D
:1026F0009070242F352F821793070CF49C0121151D
:10270000310519F1862F972FDC0140E050E019C008
:102710006D91E091DE04F091DF048091DA049091F4
:10272000DB04E80FF91F60838091DA049091DB04E9
:1027300001968F7390709093DB048093DA044F5F5F
:102740005F4F4217530724F302C025EF3FEFC90143
:1027500008958CB58F778CBD8CB58F7B8CBD8091A7
:10276000D4049091D50460E470E00E94092E809119
:10277000DE049091DF0460E470E00E94092E089569
:10278000EF92FF921F93CF93DF93CB011FB7F89483
:10279000E091D204F091D30420E430E02E1B3F0BF3
:1027A000C091D004D091D104C20FD31FCF73D07089
:1027B0004C175D070CF4EA012C173D070CF4E901F6
:1027C000209721F41FBFC5EFDFEF2DC06091D40427
:1027D0007091D5046E0F7F1FAE010E94A1298091D8
:1027E000D2049091D3048C0F9D1F8F73907090939F
:1027F000D3048093D2041092D7041092D60420916F
:10280000D0043091D104281B390B2F73307021155F
:10281000310541F08EE192E06CED76E047E050E06A
:102820000E944C061FBFCE01DF91CF911F91FF90F8
:10283000EF90089580E48CBD8CB580688CBD80E4F9
:1028400090E00E94BD2E9093D5048093D40480E440
:1028500090E00E94BD2E9093DF048093DE0480E020
:1028600090E0089500D085E996E6EDB7FEB7928333
:1028700081830E94D7270F900F900895AF92BF9247
:10288000CF92DF92EF92FF920F931F93CF93DF933C
:10289000C0E0D0E026EBE22E26E6F22E90EBC92E29
:1028A00096E6D92E8EEAA82E86E6B82E8E010770FF
:1028B00010700115110591F400D000D0ADB7BEB76E
:1028C0001296FC92EE9211971496DC93CE93139786
:1028D0000E94D7270F900F900F900F90899100D0F2
:1028E00000D0EDB7FEB73196ADB7BEB71296DC9209
:1028F000CE921197828313820E94D7270F900F9058
:102900000F900F900730110549F400D0EDB7FEB7D6
:10291000B282A1820E94D7270F900F90F1E0C030C1
:10292000DF0721F600D08CEA96E6ADB7BEB7129667
:102930009C938E9311970E94D7270F900F9080E061
:1029400090E0DF91CF911F910F91FF90EF90DF907A
:10295000CF90BF90AF900895CF93DF93C7E8D1E0B9
:10296000CE0162E070E040E050E00E947906909372
:10297000B9048093B804CE0161E070E040E050E01B
:102980000E9479069093E1068093E00680E090E053
:10299000DF91CF910895E1E6F0E080E88083108236
:1029A0000E9436290E94032B0E94442A80E090E076
:1029B00008950895EF92FF920F931F93DA01FC019F
:1029C00084819581FC01E60FF71FE590F590059154
:1029D0001491EC921196FC92119712960C93129707
:1029E00013961C93139721153105C1F06C5F7F4F2F
:1029F000680F791FFB0125913591459154911496EB
:102A00002C93149715963C93159716964C931697FE
:102A100017965C93179728E030E002C024E030E07E
:102A2000C9011F910F91FF90EF900895CF93DF930D
:102A3000FA01DC011496CD91DC911597C60FD71FD2
:102A400088819981AA81BB8180839183A283B3838A
:102A50002115310559F08C819D81AE81BF81848320
:102A60009583A683B78328E030E002C024E030E0FD
:102A7000C901DF91CF910895CF93DF93FA01DC0173
:102A80001696CD91DC911797C60FD71F8081918143
:102A9000A281B38188839983AA83BB8321153105E1
:102AA00059F084819581A681B7818C839D83AE8303
:102AB000BF8328E030E002C024E030E0C901DF91AC
:102AC000CF910895AC0183E991E061E070E00E944C
:102AD00079069C01009721F42091E0063091E106EF
:102AE000C9010895EF92FF92CF93DF93E82EE7019B
:102AF0007E01F92EE701209759F1C7010E94621566
:102B000099838883009721F400D087E297E618C064
:102B100083E991E062E070E0A7010E9479069B835F
:102B20008A83009731F48091B8049091B9049B8313
:102B30008A838A819B81009771F400D082E197E6B5
:102B4000EDB7FEB7928381830E94D7270F900F9035
:102B50002FEF3FEF02C020E030E0C901DF91CF91BD
:102B6000FF90EF900895CF93DF93DA01EC01EC81B1
:102B7000FD812115310559F4E60FF71F85919491D8
:102B80008C9311969C93119722E030E009C06E0F50
:102B90007F1FCA0148E050E00E946A3128E030E01F
:102BA000C901DF91CF910895CF93DF93DA01EC0152
:102BB000EC81FD812115310539F4E60FF71FE49111
:102BC000EC9321E030E009C06E0F7F1FCA0148E09E
:102BD00050E00E946A3128E030E0C901DF91CF91D6
:102BE00008959B01BA01FC0186819781820F931F92
:102BF00048E050E00E94A12988E090E00895FB01A0
:102C0000BA01DC0116968D919C911797211531051B
:102C100059F4E80FF91FDA018D919C911197918376
:102C2000808322E030E008C08E0F9F1F48E050E014
:102C30000E94A12928E030E0C9010895FB01BA01F2
:102C4000DC0116968D919C9117972115310541F461
:102C5000E80FF91FDA018C91808321E030E008C091
:102C60008E0F9F1F48E050E00E94A12928E030E02D
:102C7000C90108959B01FC0164817581620F731F76
:102C8000CA0148E050E00E94A12988E090E0089540
:102C9000FA01DC0114968D919C911597211531054F
:102CA00059F4680F791FDB018D919C9111979183E5
:102CB000808322E030E009C0680F791FCA0148E034
:102CC00050E00E94A12928E030E0C9010895FA01EE
:102CD000DC0114968D919C9115972115310541F4D5
:102CE000680F791FDB018C91808321E030E009C0FF
:102CF000680F791FCA0148E050E00E94A12928E02E
:102D000030E0C90108959B01FC0164817581620F67
:102D1000731FCA0148E050E00E94A12988E090E0BA
:102D2000089540E150E00E94A70797FF0BC000D034
:102D30008DEF96E6EDB7FEB7928381830E94D72789
:102D40000F900F900895FC01A681B7810480F58152
:102D5000E02D6681778112968D919C9113970E9448
:102D6000911608958F929F92AF92BF92CF92DF9269
:102D7000EF92FF920F931F93DF93CF93CDB7DEB700
:102D8000A4970FB6F894DEBF0FBECDBFDC01169638
:102D90000D911C91179780919C0290919D02009734
:102DA00039F481E090E090939D0280939C0219C0D9
:102DB000F801848995890097A1F08091E2069091AD
:102DC000E306A091E406B091E506209198023091C7
:102DD0009902245F3F4F281B390B37FF02C0158A29
:102DE000148A8091E2069091E306A091E406B091E6
:102DF000E5068093980290939902A0939A02B0936B
:102E00009B02D801ED90FC90119794E0C92ED12C33
:102E1000C00ED11E54968D919C915597B601680FA6
:102E2000791F40E150E0481B590BC7010E944F0732
:102E3000181619068CF0009749F4C7010E94230761
:102E4000C8010E946215F80191838083D8015596CC
:102E50001C921E92549733C1F80124893589280F9A
:102E6000391F358B248B2031310508F428C1158A90
:102E7000148A6681862F8E71823009F020C1858187
:102E800082958F7061706295607F682B70E083E03F
:102E9000660F771F8A95E1F768527449FCE6603047
:102EA0007F0770F4CE01019648E050E00E946A313D
:102EB000D80117968C91179790E086FD00C117C036
:102EC000F801828193812DEE3FEF4FEF5FEFD80144
:102ED00018962D933D934D935C931B9717962C91C9
:102EE0001797206217962C931797B601E4C08F713D
:102EF000907095958795A1E0EA2EF12C02C0EE0C1A
:102F0000FF1C8A95E2F7CC24DD24AA24BB24F9E037
:102F10008F2E912C8C0E9D1E29C06B817C816C0D97
:102F20007D1DC4014AE050E00E946A31EB85FC85BA
:102F30008591949149855A85F80124816581362FC0
:102F40003F702417350758F0215030402E0D3F1D9B
:102F500041505040480F591F421753076CF40894D2
:102F6000A11CB11C8AE090E0C80ED91E89819A810B
:102F7000A816B90694F28CC0D80117962C91179711
:102F800030E02078307069897A896115710521F106
:102F9000CE01439640E150E02BA33CA30E946A314E
:102FA000D8011796EC911797F0E0CE0101962BA16E
:102FB0003CA1E0FD09C0EE71F070E80FF91FC28876
:102FC000D388A0E0B0E00CC03197EE71F070E80F4C
:102FD000F91FA28DB38D02C0A0E0B0E0CC24DD24A7
:102FE0004F815885BA01C8010496E0E1EE2EFC013C
:102FF0000190CF01FB010192BF01EA94C1F7FA01F0
:10300000838180648383C114D10499F0D80114961C
:103010006C91149715968C91782F7F7089859A857D
:10302000681B790B4C5F5F4FCE010996F60109953D
:1030300012C01097A1F0F80164818581782F7F700C
:1030400089859A85681B790BA801485F5F4FCE017F
:103050000996FD0109959C0197FF12C002C02FEF50
:103060003FEFEF81F885D80112968D919C911397CF
:10307000309521953F4F442737FD4095542F13C07D
:103080006F817885F801828193810E94911617C023
:10309000EF81F885D80112968D919C91139726E1C6
:1030A00030E040E050E0248335834683578323811A
:1030B00020622383BF0140E150E00E94A707A4964D
:1030C0000FB6F894DEBF0FBECDBFCF91DF911F9139
:1030D0000F91FF90EF90DF90CF90BF90AF909F90B7
:1030E0008F9008959B0168E070E00E948A316F5FC5
:1030F0007F4FFB01EE0FFF1FE60FF71F2115310574
:1031000051F092A121E030E002C0220F331F8A95D6
:10311000E2F7922B0AC092A121E030E002C0220F18
:10312000331F8A95E2F72095922392A3089568E0D1
:1031300070E00E948A316F5F7F4FFB01EE0FFF1F2F
:10314000E60FF71F90A121E030E002C0220F331FED
:103150008A95E2F7922321E030E011F420E030E09C
:10316000C90108959C01FB014FB7F89460E270E03B
:103170000E948A31660F771F660F771FE60FF71FD1
:1031800080819181A281B3814FBF2F71307004C0C3
:10319000B695A795979587952A95D2F79C012170AA
:1031A0003070C90108958FEF9FEF08958FEF9FEF63
:1031B00008958FEF9FEF08958FEF9FEF08958FEFA2
:1031C0009FEF08958FEF9FEF08952F923F924F92B8
:1031D0005F926F927F928F929F92AF92BF92CF92A7
:1031E000DF92EF92FF920F931F93DF93CF9300D064
:1031F00000D000D0CDB7DEB73B018C0163E0000FFB
:10320000111F6A95E1F74115510511F4290103C019
:1032100098E0492E512CEE24FF243E832D8392C04A
:10322000C70168E070E00E948A319B014D815E8198
:103230004830510521F1C70160E170E00E948A31F8
:103240005B01AA0CBB1CA60CB71CC70160E270E0B6
:103250000E948A316B01CC0CDD1CCC0CDD1CC60C31
:10326000D71C61E070E080E090E069837A838B8313
:103270009C83882499241301220E331E57C0F30126
:10328000E60FF71F4081C80187709070009799F68C
:10329000C8016D817E810E948A316F5F7F4FFB0183
:1032A000EE0FFF1FE60FF71F42A346C08D819E81E0
:1032B0008031910559F08032910571F08830910587
:1032C00009F045C0D1018C9190E003C0F5018081E7
:1032D0009181A0E0B0E005C0F60180819181A281DA
:1032E000B3819401200F311F49815A816B817C8108
:1032F00084239523A623B72361E070E00097A105FE
:10330000B10511F460E070E0C9010E9472180894E0
:10331000811C911C69817A818B819C81660F771F4A
:10332000881F991F69837A838B839C838D819E81FB
:10333000881699060CF4BACFAD81BE81EA0EFB1E49
:103340000A0F1B1FE414F5040CF46ACF04C06AEEE4
:10335000462E6FEF562EC20126960FB6F894DEBFAA
:103360000FBECDBFCF91DF911F910F91FF90EF90D6
:10337000DF90CF90BF90AF909F908F907F906F9095
:103380005F904F903F902F900895CB01BA01A90113
:1033900028E030E00E94E5180895CB01BA01A901A8
:1033A00020E130E00E94E5180895CB01BA01A9019F
:1033B00020E230E00E94E5180895CB01BA01A9018E
:1033C00028E030E00E94E5180895CB01BA01A90178
:1033D00028E030E00E94E51808952F923F924F9226
:1033E0005F926F927F928F929F92AF92BF92CF9295
:1033F000DF92EF92FF920F931F93DF93CF9300D052
:1034000000D0CDB7DEB73B013C832B838C0163E05A
:10341000000F111F6A95E1F74115510511F42901BB
:1034200003C098E0492E512CCC24DD2428E030E064
:103430008FC0C601B9010E948A311B01F301E60F5A
:10344000F71F8B819C8180319105E9F080329105D5
:10345000F1F08830910519F5C801877090700097D8
:1034600081F4C8016B817C810E948A316F5F7F4F3C
:10347000DB01AA0FBB1FA60FB71F90968C919097E8
:1034800001C08AEE8083AAEDBFEFB183A0838AEDED
:103490009FEFAFEFBFEF80839183A283B383882434
:1034A00099245401EE24FF241CC0C701800F911FF2
:1034B00029833A830E949718AA2797FDA095BA2FCF
:1034C0000E2C04C0880F991FAA1FBB1F0A94D2F7A5
:1034D000882A992AAA2ABB2A0894E11CF11C3A815D
:1034E0002981AB81BC81EA16FB06FCF2A031B10553
:1034F00059F0A032B105A9F0A830B10571F5F3017A
:10350000E20DF31D80821EC0C6016B817C810E948A
:103510008A31660F771F660D771DFB0191828082CD
:1035200011C0C6016B817C810E948A31660F771FB2
:10353000660F771F660D771DDB018D929D92AD9210
:10354000BC921397EB81FC81CE0EDF1E0E0F1F1F66
:10355000C414D5040CF46DCF04C07AEE472E7FEF6F
:10356000572EC2010F900F900F900F90CF91DF91C7
:103570001F910F91FF90EF90DF90CF90BF90AF9091
:103580009F908F907F906F905F904F903F902F9083
:103590000895CB01BA01A90128E030E00E94ED199D
:1035A0000895CB01BA01A90120E130E00E94ED1994
:1035B0000895CB01BA01A90120E230E00E94ED1983
:1035C00008956F927F928F929F92AF92BF92CF9207
:1035D000DF92EF92FF920F931F93DF93CF93CDB7BC
:1035E000DEB728970FB6F894DEBF0FBECDBF4C01F3
:1035F000762E672E8A0179014115510519F4C22EE4
:10360000DF2C03C078E2C72ED12CC4015E010894E0
:10361000A11CB11CB501A80197010E94ED1997FDED
:103620001EC0C60168E070E00E948A31C301E92F24
:10363000F62DD50180E090E005C031912C91232B2F
:103640002D93019686179707C4F3C401BE016F5FDF
:103650007F4FA70198010E94E5189C0102C02FEF3F
:103660003FEFC90128960FB6F894DEBF0FBECDBF5D
:10367000CF91DF911F910F91FF90EF90DF90CF904E
:10368000BF90AF909F908F907F906F900895CB01E7
:10369000BA01A90120E130E00E94E11A0895CB01AE
:1036A000BA01A90120E230E00E94E11A08956F9268
:1036B0007F928F929F92AF92BF92CF92DF92EF92C2
:1036C000FF920F931F93DF93CF93CDB7DEB7289769
:1036D0000FB6F894DEBF0FBECDBF4C01762E672E1D
:1036E0008A0179014115510519F4C22EDF2C03C05E
:1036F000E8E2CE2ED12CC4015E010894A11CB11CBD
:10370000B501A80197010E94ED1997FD1EC0C601E1
:1037100068E070E00E948A31C301E92FF62DD501DF
:1037200080E090E005C031912C91232B2D930196E0
:1037300086179707C4F3C401BE016F5F7F4FA701CF
:1037400098010E94E5189C0102C02FEF3FEFC901CC
:1037500028960FB6F894DEBF0FBECDBFCF91DF9194
:103760001F910F91FF90EF90DF90CF90BF90AF909F
:103770009F908F907F906F900895CB01BA01A9011F
:1037800020E130E00E94571B0895CB01BA01A90146
:1037900020E230E00E94571B08952F923F924F92F3
:1037A0005F927F928F929F92AF92BF92CF92DF9261
:1037B000EF92FF920F931F93CF93DF931C01F62F8D
:1037C000E72FC9014115510531F468E070E00E940E
:1037D0008A317B0103C018E0E12EF12CCF01892E44
:1037E0009E2E00E010E0B1E0AB2EB12C39C0F40108
:1037F00041904F015524C201837090708330910530
:1038000099F16801C20CD31CC6010E9497189C0153
:10381000C60168E070E00E948A31782E6F5F7F4FAA
:10382000EB01CC0FDD1FC60FD71FC601B9010E94E7
:10383000721841FE09C029A1C50102C0880F991F55
:103840007A94E2F7282B09C029A1C50102C0880F8C
:10385000991F7A94E2F78095282329A30F5F1F4FC1
:103860000E151F0524F204C0FAEEEF2EFFEFFF2E17
:10387000C701DF91CF911F910F91FF90EF90DF90E3
:10388000CF90BF90AF909F908F907F905F904F9020
:103890003F902F900895CB01BA01A90128E030E0B4
:1038A0000E94CD1B0895CB01BA01A90120E130E0AF
:1038B0000E94CD1B0895CB01BA01A90120E230E09E
:1038C0000E94CD1B0895CF92DF92EF92FF920F934B
:1038D0001F93CF93DF937C01F62FE72FC90141158A
:1038E000510531F468E070E00E948A319B0102C00A
:1038F00021E030E0CF01C92EE6016E01DE2EE601A7
:10390000E0E0F0E008E010E01DC0CF018E0D9F1D4B
:10391000B8010E948A316F5F7F4FDB01AA0FBB1F86
:10392000A60FB71F91964C91919750E002C0559504
:1039300047958A95E2F740FF02C082E001C081E02E
:1039400089933196E217F30704F3C901DF91CF9110
:103950001F910F91FF90EF90DF90CF900895CB01D2
:10396000BA01A90128E030E00E94631C0895CB0150
:10397000BA01A90120E130E00E94631C0895CB0147
:10398000BA01A90120E230E00E94631C0895AF92C1
:10399000BF92CF92DF92EF92FF920F931F93CF933C
:1039A000DF938B012115310521F434E0C32ED12C96
:1039B00003C021E0C22ED12CE42EE7017E01F52EBA
:1039C000E701EE24FF245E01888181FF05C0C80164
:1039D00064ED72E00E94270A888180FF05C0C8015B
:1039E0006CED72E00E94270A888182FF05C0C80141
:1039F0006CEB72E00E94270A888183FF05C0C80132
:103A000064EC72E00E94270A888187FF05C0C80124
:103A100064EE72E00E94270A2196F5016081C801D8
:103A200070E00E94150B9C0197FD09C00894E11CF1
:103A3000F11C0F5F1F4FEC14FD042CF29601C9011D
:103A4000DF91CF911F910F91FF90EF90DF90CF907A
:103A5000BF90AF9008956F927F928F929F92AF9296
:103A6000BF92CF92DF92EF92FF920F931F93DF935B
:103A7000CF93CDB7DEB728970FB6F894DEBF0FBE51
:103A8000CDBF80E090E0BE016F5F7F4F40E050E02F
:103A900020E230E00E94ED1984E090E0BE016B5F0F
:103AA0007F4F40E050E020E230E00E94ED19A98015
:103AB000BA80CB80DC806D807E808F8098848091FE
:103AC000C0029091C102A091C202B091C3028621AE
:103AD0009721A821B9212091B8023091B9024091D3
:103AE000BA025091BB02822B932BA42BB52BE8EB8F
:103AF000F2E02091BC023091BD024091BE02509193
:103B0000BF022A213B214C215D2112910291F290AA
:103B1000E2902E293F29402B512BA094B094C094C1
:103B2000D094E090C402F090C5020091C6021091BA
:103B3000C702AE20BF20C022D1222A293B294C290E
:103B40005D292083318342835383609470948094F1
:103B500090942091C8023091C9024091CA025091BC
:103B6000CB02622273228422952286299729A829D2
:103B7000B9298093B8029093B902A093BA02B09386
:103B8000BB0228960FB6F894DEBF0FBECDBFCF9113
:103B9000DF911F910F91FF90EF90DF90CF90BF903A
:103BA000AF909F908F907F906F900895CF92DF920B
:103BB000EF92FF920F931F93DF93CF93CDB7DEB7B2
:103BC00028970FB6F894DEBF0FBECDBF8B01D42E61
:103BD000C52E0C541D4F2115310521F464E0E62E4D
:103BE000F12C03C051E0E52EF12CCE01019664EBDF
:103BF00072E048E050E00E94A1299601832F9C2D9D
:103C0000FC0180E090E0D8012C9121931D928D0160
:103C100001968E159F05BCF30E942B1D89819A8108
:103C2000AB81BC810097A105B10549F48D819E81CE
:103C3000AF81B8850097A105B10509F445C0809111
:103C4000B4029091B502A091B602B091B70200976C
:103C5000A105B105C9F58091B8029091B902A09172
:103C6000BA02B091BB020097A105B10569F588EDD4
:103C70009BE6885D9B4643E0959587954A95E1F7DD
:103C80009093D1028093D0021092D3021092D2026C
:103C900084EF96E060ED72E047E050E00E945B2B1D
:103CA000009791F000D000D087EA97E6EDB7FEB715
:103CB0009283818386EA91E0948383830E94D7274D
:103CC0000F900F900F900F90C70128960FB6F894A1
:103CD000DEBF0FBECDBFCF91DF911F910F91FF903F
:103CE000EF90DF90CF900895DC011496ED91FC9158
:103CF00015972091C4023091C5024091C60250919F
:103D0000C7028091BC029091BD02A091BE02B09109
:103D1000BF02822B932BA42BB52B80959095A09559
:103D2000B095208131814281538182239323A42342
:103D3000B5232091B4023091B5024091B602509162
:103D4000B702822B932BA42BB52B8093B4029093B4
:103D5000B502A093B602B093B7021082118212820C
:103D600013822091C8023091C9024091CA02509139
:103D7000CB028091C0029091C102A091C202B09189
:103D8000C302822B932BA42BB52B80959095A095E5
:103D9000B095248135814681578182239323A423C2
:103DA000B5232091B8023091B9024091BA025091E6
:103DB000BB02822B932BA42BB52B8093B80290933C
:103DC000B902A093BA02B093BB0214821582168284
:103DD00017820E942B1D88ED9BE6885D9B4673E051
:103DE000959587957A95E1F79093CD028093CC02D3
:103DF0008091B4029091B502A091B602B091B70241
:103E00000097A105B10589F421E030E08091B80266
:103E10009091B902A091BA02B091BB020097A1059E
:103E2000B10529F420E030E002C021E030E0309319
:103E3000CF022093CE0284EF96E06CEC72E047E074
:103E400050E00E945B2B0895AF92BF92CF92DF9219
:103E5000EF92FF920F931F93CF93DF935B01E42EBA
:103E6000E7017E01F52EE7012115310521F4F4E08B
:103E7000CF2ED12C03C0E1E0CE2ED12CEE24FF2496
:103E8000188287010A0D1B1DC80164ED72E00E94B3
:103E9000B218009719F0888182608883C8016CEDA0
:103EA00072E00E94B218009719F0888181608883BF
:103EB000C8016CEB72E00E94B218009719F088817B
:103EC00084608883C80164EC72E00E94B218009795
:103ED00019F0888188608883C80164EE72E00E94CE
:103EE000B218009719F08881806888830894E11CD3
:103EF000F11CEC14FD0414F42196C2CFC601DF912D
:103F0000CF911F910F91FF90EF90DF90CF90BF90D6
:103F1000AF90089580917A00992787FD9095A92FF9
:103F2000B92F8827B7FD83959927AA27BB27FA01C0
:103F300080839183A283B38380E090E00895FA01A7
:103F400080819181A281B3810097A105B10531F0F3
:103F50000E946A0B80917A00806803C080917A0089
:103F60008F7780937A0080E090E00895AF92BF92BF
:103F7000CF92DF92EF92FF920F931F93DF93CF9335
:103F8000CDB7DEB72A970FB6F894DEBF0FBECDBF10
:103F90006B018A017B0166E0F694E7946A95E1F78C
:103FA00055E0A52EB12CAC0EBD1EB701660F771FD4
:103FB0006E0D7F1D660F771F6F567B49C50146E06A
:103FC00050E00E946A318FE3C822DD24E4E0CE167F
:103FD000D10409F441C0F5E0CF16D10420F4C11496
:103FE000D10459F057C088E0C816D104D1F1ECE0F3
:103FF000CE16D10409F04EC03EC081E48983FAE0B8
:10400000EF16F10430F0C7016AE070E00E947631EB
:1040100001C06E2D605D6A838AE0E816F10438F015
:10402000C7016AE070E00E947631805D01C080E0E7
:104030008B831C82C801BE016F5F7F4F44E050E05C
:104040000E94A129F80180819381908383838181DB
:104050009281918382831BC08D8190E0A0E0B0E0CB
:1040600004C08F819885A985BA85F80180839183E2
:10407000A283B3830CC080917A0087FF0EC0C50174
:104080000E947D0BF801608371838283938320E01B
:1040900030E005C02AEE3FEF02C023EF3FEFC90139
:1040A0002A960FB6F894DEBF0FBECDBFCF91DF9139
:1040B0001F910F91FF90EF90DF90CF90BF90AF9046
:1040C0000895CF92DF92EF92FF920F931F93DF93A9
:1040D000CF93CDB7DEB760970FB6F894DEBF0FBEB3
:1040E000CDBF6B018A019B0146E0369527954A9525
:1040F000E1F78CE190E0289FB001299F700D389F77
:10410000700D112425ECE22E24E6F22EE60EF71EA9
:104110006F527B49CE01019640E150E00E946A3126
:104120008FE3C822DD24A0E1CA16D10461F1B4E115
:10413000CB16D10481F1ECE0CE16D104B9F5D8014B
:104140008C9180FF06C0E981FA81C70109956C0155
:1041500006C0EB81FC81C7010995CC24DD24EF85E5
:10416000F889309739F1D8014D915D916D917C912D
:10417000769567955795479541705070607070704F
:10418000C701099517C0F80140815181628173818F
:10419000E985FA8507C0D8014D915D916D917C91BB
:1041A000EB85FC85C70109956C0104C08AEEC82E19
:1041B0008FEFD82EC60160960FB6F894DEBF0FBE03
:1041C000CDBFCF91DF911F910F91FF90EF90DF90C6
:1041D000CF9008958F929F92AF92BF92CF92DF922D
:1041E000EF92FF920F931F93DF93CF93CDB7DEB77C
:1041F00060970FB6F894DEBF0FBECDBF5B018A019A
:104200004B0166E0969487946A95E1F78CE190E023
:10421000889E7001899EF00C989EF00C112455EC3C
:10422000C52E54E6D52ECE0CDF1CB7016F527B494C
:10423000CE01019640E150E00E946A318FE3A8224E
:10424000BB24E8E0AE16B10409F450C0F9E0AF16A3
:10425000B10448F4A114B104B1F084E0A816B1048B
:1042600009F082C020C0E0E1AE16B10409F46FC0CD
:10427000F4E1AF16B10409F46DC08CE0A816B104E6
:1042800009F072C040C0C801B60144E050E00E948D
:104290006A31F80180819381908383838181928147
:1042A0009183828364C0F701E753FB49859195911F
:1042B000A591B491B070F80180839183A283B383F8
:1042C00029853A852115310529F0B16080839183D4
:1042D000A283B3838B859C85009709F448C0F801BD
:1042E00080819181A281B381B2602CC0F701E35338
:1042F000FB4985919591A591B491F80180839183B3
:10430000A283B38334C0C4010E94FA0C21E030E0E0
:1043100040E050E0009719F420E030E0A901F801F6
:104320002083318342835383ED85FE853097F9F0F6
:10433000C60109950097D9F0F80180819181A28189
:10434000B381826080839183A283B38310C0ED81A7
:10435000FE8102C0EF81F885C6010995F8016083EE
:1043600071838283938303C02AEE3FEF02C020E073
:1043700030E0C90160960FB6F894DEBF0FBECDBF26
:10438000CF91DF911F910F91FF90EF90DF90CF9031
:10439000BF90AF909F908F90089521153105A9F49B
:1043A000CB0183709070009799F46C7F64547E4FBA
:1043B000FB0180819181A281B381FA018083918385
:1043C000A283B38324E030E005C02FEF3FEF02C0AB
:1043D0002AEE3FEFC9010895009711F0769A0895EB
:1043E0007698089580E090E00E94EC216E9A80E03B
:1043F00090E0089521E030E0009711F420E030E0F3
:10440000C9010E94EC210895EF92FF920F931F9330
:10441000FA012115310509F086C06830710541F0B7
:104420006C30710509F446C06430710509F07BC039
:104430002091BC013091BD014091BE015091BF015E
:10444000E080F180028113818091C0019091C101CF
:10445000A091C201B091C3016430710529F4E82A2A
:10446000F92A0A2B1B2B08C0E094F09400951095B4
:10447000E822F9220A231B23E092C001F092C10135
:104480000093C2011093C301E094F094009510953D
:104490008091CC019091CD01A091CE01B091CF013E
:1044A000E822F9220A231B23E216F3060407150764
:1044B00031F53CC08091BC019091BD01A091BE013D
:1044C000B091BF01E080F18002811381E094F0940B
:1044D00000951095E822F9220A231B232091CC0194
:1044E0003091CD014091CE015091CF01E22AF32AC3
:1044F000042B152BE816F9060A071B07B9F081E013
:1045000090E0E114F1040105110511F480E090E060
:104510000E94FA21E092BC01F092BD010093BE011D
:104520001093BF0103C02FEF3FEF02C024E030E043
:10453000C9011F910F91FF90EF900895EF92FF92A4
:104540000F931F93DC011496ED91FC9115978081D8
:1045500091818032910508F074C0E090CC01F09018
:10456000CD010091CE011091CF0121E030E002C0D9
:10457000220F331F8A95E2F7C90180959095AA27EB
:1045800097FDA095BA2F8E219F21A023B123809360
:10459000CC019093CD01A093CE01B093CF01428185
:1045A00053814115510581F0442737FD4095542F23
:1045B000282B392B4A2B5B2B2093CC013093CD0138
:1045C0004093CE015093CF018091CC019091CD01C9
:1045D000A091CE01B091CF01E816F9060A071B079A
:1045E00081F12091C0013091C1014091C2015091EF
:1045F000C3012095309540955095282339234A23AF
:104600005B238091BC019091BD01A091BE01B0914E
:10461000BF01281739074A075B0799F02093BC01AF
:104620003093BD014093BE015093BF0181E090E003
:10463000211531054105510511F480E090E00E94FB
:10464000FA211F910F91FF90EF900895519A0097D2
:1046500019F0599A5198089559980895509A0097C9
:1046600019F0589A509808955898089581E090E06C
:104670000E942623089580E090E00E942E23089552
:1046800081E090E00E942E238091E2069091E30663
:10469000A091E406B091E50620910E0330910F033E
:1046A000280F391F0DC08091E2069091E306A0917A
:1046B000E406B091E506A901481B590B57FD05C05A
:1046C000489BF1CF20E030E002C022E93FEFC90172
:1046D00008950F931F93CF93DF93C7E0D0E0082F87
:1046E00010E0C8010C2E02C0959587950A94E2F758
:1046F000817090700E9426230E94402397FD15C070
:104700000E943B2321973FEFCF3FD30751F70E94F1
:1047100036230E94402397FD08C009B10E943B2325
:1047200001FD06C020E030E005C022E93FEF02C0F5
:104730002FEF3FEFC901DF91CF911F910F910895A6
:1047400080939E03882331F0843021F021E030E013
:10475000893011F420E030E0C901089588EF9BE62C
:10476000885D9B4623E0959587952A95E1F7909380
:10477000A00380939F0381E090E09093A203809335
:10478000A10384EF96E06FE973E047E050E00E94F8
:104790005B2B009759F000D083E599E6EDB7FEB7A3
:1047A000928381830E94D7270F900F9008951F93C3
:1047B000182F80E090E00E9426230E94402381E091
:1047C00090E00E94262310931803113011F08BE023
:1047D00001C080E080939E030E94AE231F91089544
:1047E000BF92CF92DF92EF92FF920F931F93CF93DE
:1047F000DF93DC0114962C911497222349F0213089
:1048000009F06BC11092180380E00E94A0237AC1C6
:104810004AEFE42EF12C01E010E032E1C32E33E048
:10482000D32EF0920F03E0920E0310930D0300932A
:104830000C0380919E03853009F47EC0863050F4CD
:104840008130E9F0813098F0823099F1833009F0BD
:1048500059C13AC0873009F4A9C0873008F49BC019
:10486000883009F4B5C08A3009F04CC12EC180E00F
:1048700090E00E9426230E943B2381E00EC180919C
:10488000120390911303009749F081E090E020918A
:104890001403309115032115310511F080E090E0EB
:1048A00020911003822B0E94692397FD7BC082E038
:1048B000F4C08091140390911503009751F1109268
:1048C00017031092160334C0E0919D03F0E0E45FFB
:1048D000FC4F86850E94692397FD64C020911603D2
:1048E000309117032F5F3F4F309317032093160328
:1048F00060919D036F5F6F7760939D0340911403F8
:104900005091150380919C032417350721F480935F
:104910009D0385E0C2C090E0861B91098F7790705F
:104920008430910519F40E94AE2302C0009711F063
:1049300083E0B3C084E0B1C080911203909113036F
:10494000009709F4C2C0209114033091150321157A
:10495000310579F4BFEF8F3F9B0719F48FEF9FEF7D
:1049600002C080E090E0909317038093160388E0E4
:104970000BC00E9436230E94402380E090E00E94FA
:1049800026230E943B2386E00E94A0231092170357
:10499000109216039EC08091100381600E946923CB
:1049A00097FF02C080E892C087E077C08091120331
:1049B00090911303EFEF8F3F9E0719F48FEF9FEF56
:1049C00002C080E090E0909317038093160379C0B3
:1049D0000E943623C8E0D0E0BB240E94402397FD0C
:1049E0000BC0BB0C499B02C0F1E0BF2A80E090E005
:1049F0000E942E23219789F780919A0390E0FC0171
:104A0000E45FFC4FB68620911603309117034FEFF9
:104A10002F3F3407C9F42B2D30E0809590954091BD
:104A20009B03840F911D8F7790708217930710F46A
:104A300081E84CC01092170310921603B092120333
:104A4000D60111961C92119780911603909117032D
:104A500001969093170380931603C1E0D0E0209154
:104A60001203309113038217930711F0C0E0D0E0D6
:104A7000209721F480E090E00E9426230E944023AA
:104A800097FD02C00E943B2380919A038F5F8F772E
:104A900080939A03209721F08AE00E94A02319C0F6
:104AA00090E08095909520919B03820F911D8F77C8
:104AB00090708C31910519F40E94AE2302C00097CA
:104AC00011F088E0EACF89E0E8CF81E00E94D723A7
:104AD00019C0009709F0A5CE15C000D000D0EDB7E1
:104AE000FEB7319682E499E6ADB7BEB712969C93B5
:104AF0008E931197228313820E94D7270F900F90D5
:104B00000F900F90DF91CF911F910F91FF90EF9039
:104B1000DF90CF90BF90089588EF96E060E070E05E
:104B200047E050E00E945B2B0895AF92BF92CF9276
:104B3000DF92EF92FF920F931F93CF93DF935C016D
:104B40006B017A012115310519F008E010E002C06F
:104B500004E010E0C0E0D0E0FE01EC7FEE0DFF1DB0
:104B600080819181A281B381F501208131812C0D59
:104B70003D1D2C0F3D1F2C31310509F447C02D314F
:104B80003105A8F42031310509F460C02131310527
:104B900028F42830310509F060C01CC024313105EB
:104BA00009F454C02831310509F057C018C0283223
:104BB0003105A1F12932310528F42432310509F0FB
:104BC0004CC027C02C32310571F12833310509F072
:104BD00044C031C0909311038093100337C081709B
:104BE0009070009799F18091180381FD39C082601F
:104BF0008093180388EF96E060E070E047E050E0B3
:104C00000E945B2B9C0197FF21C02CC0809319034D
:104C10001DC0909315038093140318C09093130341
:104C20008093120313C080939C0380919E03843071
:104C300069F483E007C080939B0380919E038930D1
:104C400029F488E00E94A0230E948C252496C01796
:104C5000D10708F481CF980105C02FEF3FEF02C0C4
:104C600020EF3FEFC901DF91CF911F910F91FF908E
:104C7000EF90DF90CF90BF90AF9008952F923F922A
:104C80004F925F926F927F928F929F92AF92BF925C
:104C9000CF92DF92EF92FF920F931F93DF93CF9308
:104CA00000D000D0CDB7DEB79A8389832B013A01BB
:104CB0002115310519F008E010E002C004E010E011
:104CC00088EF9BE6885D9B46E3E095958795EA959E
:104CD000E1F7382E292E20E030E070E8C72ED12CE5
:104CE000E12CF12C63EAA62E63E0B62E59E6852E60
:104CF00059E6952EF901EC7FE60DF71DA981BA81E1
:104D00008D919C911197840D951D820F931F803278
:104D1000910509F48FC081329105E0F4803191054D
:104D200009F480C08131910540F48830910579F112
:104D30008C30910509F0AAC02FC08831910509F483
:104D400071C08C31910509F472C08431910509F06C
:104D50009DC068C08C32910509F471C08D329105F7
:104D600048F48432910509F477C08832910509F03E
:104D70008DC079C08433910509F467C088339105EB
:104D800009F467C08033910509F080C05BC0809151
:104D900010039091110364C08091180390E0A0E08B
:104DA000B0E080839183A283B3830097A105B1050E
:104DB00009F465C03092A303F50121821092A60385
:104DC0001092A50384EF96E063EA73E047E050E0B9
:104DD0002B833C830E945B2B2B813C81009779F0D5
:104DE00000D0ADB7BEB712969C928E9211972B83CE
:104DF0003C830E94D7270F900F903C812B8180919C
:104E00009E038430E1F18930D1F188EF96E061E0D2
:104E100070E047E050E02B833C830E945B2B2B81AA
:104E20003C812DC0108211821282138228C0809191
:104E300019030DC0C082D182E282F38220C080912A
:104E40009C0305C080919D0302C080919A0390E06D
:104E500007C080919B03FBCF8091140390911503B1
:104E6000A0E0B0E008C08091120390911303AA273C
:104E700097FDA095BA2F80839183A283B3832C5F83
:104E80003F4F2017310708F435CF02C00FEF1FEF57
:104E9000C8010F900F900F900F90CF91DF911F914D
:104EA0000F91FF90EF90DF90CF90BF90AF909F90C9
:104EB0008F907F906F905F904F903F902F900895CC
:104EC00000005353004B435349534F4D4F53494DEB
:104ED00000384F4900394F4930314F4931314F493E
:104EE0000000434E0000434E0000434E0000434E7E
:104EF0000000434E0000434E0000354433314F491B
:104F0000004C4353004144533144585231445854A7
:104F100000003444444C585432314F490000364468
:104F20000000434E0000434E425748230000434ECA
:104F30000000434E0000434E4B4853480000434E90
:104F400000003541000034410000434E0000434E54
:104F50000000334100003241000031410000304187
:104F60000F931F93CF93DF939C01AB01C7EAD3E06C
:104F7000CE01B9010E94E5278C01CE010E942D2AA5
:104F8000C801DF91CF911F910F910895DF93CF93C7
:104F9000CDB7DEB79E01275F3F4F8D819E816F8128
:104FA0007885A9010E94E527CF91DF910895DF93CD
:104FB000CF93CDB7DEB7FE01359681919191BF01B8
:104FC0000E94B027CF91DF9108952F923F924F9288
:104FD0005F926F927F928F929F92AF92BF92CF9289
:104FE000DF92EF92FF920F931F93DF93CF93CDB792
:104FF000DEB762970FB6F894DEBF0FBECDBF1C01BF
:105000004E010894811C911C8C01FB0106C1853264
:1050100029F531E0A32EB12C20E2422E512C9AE04A
:10502000C92ED12C9501DA0103C080E3482E512C02
:1050300031968491893609F466C08A36D8F4883569
:1050400009F457C0893588F48A3261F18B3250F403
:10505000882309F4E6C0853249F5AD01D8018D9366
:105060008D01DAC0803311F5E0CF833649F1843603
:10507000E9F449C08037E9F1813730F48E3609F41C
:10508000CAC08F3699F42EC08537E9F1883789F187
:10509000833761F4AD014E5F5F4F8D919C91BF01ED
:1050A000DA0119C0CD90DC9011971296982F915388
:1050B000993008F0BDCF282F30E020533040B8CFD2
:1050C000AD018C91D8018D938D014E5F5F4FA4C0CF
:1050D000F80121938F01FC012191CF012223C1F717
:1050E000FB0199C05901AD01BAE0CB16D10439F0EA
:1050F0000CC05901AD0170E1C72ED12C06C068E08B
:10510000C62ED12C02C05901AD01CA0102969A8B5C
:10511000898BDA018D919C91119797FF0BC0BAE0B2
:10512000CB16D10439F4909581959F4F31E0E32E51
:10513000F12C02C0EE24FF2421E1622E712C6C0EB2
:105140007D1E20E130E0AF01F30138018A010BC080
:1051500021503040B6010E947631DC01A053BE4F91
:105160008C918293CB01009731F02115310581F7A5
:10517000F801830109C0F80183012031310521F4D0
:1051800020E3288B2FE030E0E114F10489F080E285
:105190004816510451F421503040D401A20FB31FDE
:1051A0009DE29C93EE24FF2403C081E0E82EF12CC5
:1051B000D401A20FB31F80E190E08A199B098E0DE4
:1051C0009F1D03C0215030404E9282179307D4F3A5
:1051D000E114F10439F021503040D401A20FB31F83
:1051E0008DE28C9340E150E0421B530BC401820FCF
:1051F000931FD8017F0106C0FC016191CF016D931F
:105200002F5F3F4F20313105BCF3F701040F151F0D
:1052100049895A8901C0AD0131968491882309F0EA
:10522000F6CE9801D8011C9222193309C901629661
:105230000FB6F894DEBF0FBECDBFCF91DF911F91A7
:105240000F91FF90EF90DF90CF90BF90AF909F9025
:105250008F907F906F905F904F903F902F90089528
:1052600082E189BD09B400FEFDCF089584E085BDCB
:105270008AEF87BD81E080936E00089580EA809375
:10528000D800089580E98093D800089581E880933C
:10529000D7000895262F372FD901282F392FF9014C
:1052A0002D9121932223E1F70895FC019F01419163
:1052B0004423E1F7281B390BC9010895462F572FC6
:1052C000FC019F014115510529F061914150504069
:1052D0006623B9F7281B390BC9010895FC01DB01CE
:1052E00081919D91891729F0891740F42FEF3FEFA5
:1052F00007C08823A9F720E030E002C021E030E0B9
:10530000C9010895282F392FD901862F972FFC0125
:105310000DC08D919191891729F0891758F42FEFBD
:105320003FEF0DC0882349F04150504041155105D1
:1053300081F703C021E030E002C020E030E0C90185
:105340000895CF93DF939C01DC01FB01CB01822BFD
:10535000932B80FD1DC0DB01F901CA0105C0CD9171
:10536000DD91C193D193029782309105C0F7FA0184
:10537000F695E795CF01880F991F481B590BFC0143
:10538000D901A80FB91FE60FF71F02C081918D93B5
:10539000415050408FEF4F3F5807C1F7C901DF918F
:1053A000CF910895EF92FF920F931F939C0120FDE0
:1053B00024C0CB01AA2797FDA095BA2F9070A070AA
:1053C000B070EE24F82E092F1A2FE82AF92A0A2B9A
:1053D0001B2BF901CA0103C0E192F19202978230BE
:1053E0009105D0F7CA0196958795FC01EE0FFF1F36
:1053F0004E1B5F0BCF01820F931FFC0101C0619315
:10540000415050408FEF4F3F5807C9F7C9011F91D6
:105410000F91FF90EF9008950895DF93CF9300D000
:10542000CDB7DEB79A8389838A30910521F48DE068
:1054300090E00E940D2A8091B8049091B9040097E1
:1054400039F0BE016F5F7F4F41E050E00E94A70737
:105450000F900F90CF91DF910895EF92FF92CF932D
:10546000DF93E82EE7017E01F92EE70103C090E00B
:105470000E940D2A89918823D1F780E090E0DF9186
:10548000CF91FF90EF900895CF93DF93C8E0D1E0E4
:1054900003C0E991F991099581E0C631D807C8F3B5
:1054A000C8E0D1E003C0E991F991099581E0C830E5
:1054B000D807C8F380E090E0DF91CF910895FC0118
:1054C0006091E2067091E3068091E4069091E50612
:1054D0006F5F7F4F8F4F9F4F2091E2063091E30621
:1054E0004091E4065091E50626173707480759070B
:1054F00099F72E2F3F2F02C021503040121613066D
:10550000DCF32091E2063091E3064091E4065091ED
:10551000E506261B370B480B590BC9010895CF929E
:10552000DF92EF92FF920F931F93CF93DF9300E0F0
:1055300012E0C0E0D2E004C00C0F1D1FCC0FDD1F35
:10554000C8010E945F2A0097B9F3159507957E015F
:10555000F594E794F594E79482E0C82ED12C0FC01F
:10556000E701C00FD11FCE010E945F2A009709F00A
:10557000E801C701B6010E948A317B018E01E11466
:10558000F10471F710930C0400930B0480E090E099
:10559000DF91CF911F910F91FF90EF90DF90CF900F
:1055A00008959C01E0910B04F0910C0440E157E256
:1055B000E49FC001E59F900DF49F900D112460EAD7
:1055C0007FE00E948A3106C0019718161906E4F39D
:1055D0002051374287E22131380718F0862F972F64
:1055E000F4CF2E9FC0012F9F900D3E9F900D112450
:1055F00060EA7FE00E94763102C06150704016166A
:105600001706DCF30895EF92FF920F931F93CF9349
:10561000DF93C4ECD6E085EAE82E84E0F82E38C0AB
:1056200083EB94E0BE0144E050E00E946A310091B7
:10563000B3041091B40424C08BEA94E0B80148E0AC
:1056400050E00E946A316091AD047091AE0485EA29
:1056500094E046E050E00E946A31F092AE04E0929D
:10566000AD04D093AC04C093AB04E091A504F091D9
:10567000A604309719F08BEA94E00995085F1F4F54
:105680008091B5049091B60408171907A9F62496DD
:1056900087E0C830D80720F280E290E090931204AF
:1056A0008093110480E090E0DF91CF911F910F91E2
:1056B000FF90EF9008951F931FB7F894E0910D04A9
:1056C000F0910E0440911104509112044150504049
:1056D0009F0120953095A0910F04B09110042A0FDE
:1056E0003B1F242335232115310521F41FBF24EF4F
:1056F0003FEF16C09F012F5F3F4F24233523309388
:105700000E0420930D041FBFEE0FFF1FEE0FFF1FAF
:10571000ED5EFB4F738362839183808320E030E0F2
:10572000C9011F9108952091110430911204215054
:10573000304080910D0490910E0440910F045091DF
:105740001004841B950B28233923C9010895AF92B7
:10575000BF92CF92DF92EF92FF920F931F93CF935E
:10576000DF930E94932B6C01EE24FF2443E9A42EC7
:1057700044E0B42E58C0C0910F04D0911004CC0F57
:10578000DD1FCC0FDD1FCD5EDB4F6991799181EA82
:1057900094E044E050E00E946A310091A10410912D
:1057A000A20426C089E994E0B80148E050E00E94D4
:1057B0006A3160919B0470919C0483E994E046E017
:1057C00050E00E946A31B0929C04A0929B048881B0
:1057D000998190939E0480939D04E0919504F091AB
:1057E0009604309719F089E994E00995085F1F4FF6
:1057F0008091A3049091A4040817190799F6809149
:10580000110490911204019720910F04309110041B
:105810002F5F3F4F822393239093100480930F04B4
:105820000894E11CF11CEC14FD040CF4A4CFDF91EE
:10583000CF911F910F91FF90EF90DF90CF90BF908D
:10584000AF90089520E030E067E070E040E052E083
:10585000FB01E21BF30BDA0102C0B595A795EA95AF
:10586000E2F7A817B9073CF42F5F3F4F2830310506
:1058700079F72FEF3FEFC9010895CF93DF93062EFD
:1058800002C0959587950A94E2F780509F4F48E0B3
:1058900050E0461B570B21E030E002C0220F331FBF
:1058A0004A95E2F7821B930BEFB7F89460E270E041
:1058B0000E948A31EB01CC0FDD1FCC0FDD1FCA51D6
:1058C000D94F21E030E040E050E004C0220F331F08
:1058D000441F551F8A95D2F72095309540955095D5
:1058E00088819981AA81BB8182239323A423B52334
:1058F00088839983AA83BB83EFBFDF91CF910895FB
:10590000CF93DF93062E02C0959587950A94E2F710
:1059100080509F4F48E050E0461B570B21E030E09D
:1059200002C0220F331F4A95E2F7821B930BEFB799
:10593000F89460E270E00E948A31EB01CC0FDD1F29
:10594000CC0FDD1FCA51D94F21E030E040E050E0DC
:1059500004C0220F331F441F551F8A95D2F7888138
:105960009981AA81BB81822B932BA42BB52B888391
:105970009983AA83BB83EFBFDF91CF910895DF9313
:10598000CF9300D0CDB7DEB7FC01EE0FFF1FEA5F6B
:10599000F54925913491C9010F900F90CF91DF9176
:1059A00008954F925F926F927F928F929F92AF92E3
:1059B000BF92CF92DF92EF92FF920F931F93DF93EC
:1059C000CF93CDB7DEB764970FB6F894DEBF0FBEA6
:1059D000CDBF7C014B010E94BF2C6C015701AA0C6A
:1059E000BB1CB5016A5E7549CE01019642E050E0EC
:1059F0000E946A3169817A818E010B5F1F4F980185
:105A000040E050E010C0FB0185919591A591B491C3
:105A1000F90180839183A283B3832C5F3F4F4F5F53
:105A20005F4F6C5F7F4F4C155D056CF388E090E035
:105A30008E199F0921E030E002C0220F331F8A95A2
:105A4000E2F780E091E0821B930B60E270E00E943D
:105A50008A31FB01EE0FFF1FEE0FFF1FEA51F94FD6
:105A600060E070E072C04190519061907190D801F7
:105A70002D913D914D915D918D012421352146213E
:105A80005721211531054105510509F45CC0F50187
:105A9000EA5DF549859194918B839C83AB81BC81B0
:105AA000CA01B90180709070611571058105910579
:105AB00031F49A0144275527E1E1F0E002C0E1E02A
:105AC000F0E0222329F4232F342F452F5527389631
:105AD000CA01B9016F7070708070907061157105A6
