:1000000032C00000000000000000000000000000FE
:1000100000000000000000000000000000000000E0
:1000200000000000000000003DC000007DC0000096
:1000300000000000000000000000000000000000C0
:1000400000000000000000000000000000000000B0
:10005000000000000000000000000000F6C20000E8
:1000600000006AC20CC211241FBECFEFDAE0CDBF80
:10007000DEBFEEEBF8E609E6A0E0B1E0EE3FF00708
:100080001CF425902D92FACFA0E4B2E007E0A03D49
:10009000B00714F41D92FBCF0E94931278940E9433
:1000A0006008E1CF1F920F920FB60F9211248F9329
:1000B0009F938091E1001092E10083FF13C01092A2
:1000C000E90091E09093EB001092EC0092E19093A4
:1000D000ED0098E09093F0001092520110925401BC
:1000E0001092530182FF19C080915201882379F048
:1000F00080915C01882359F0815080935C018823B2
:1001000031F484E08093E9008AE38093E80083E09F
:100110008093E90084E08093F0009F918F910F908D
:100120000FBE0F901F9018951F920F920FB60F924F
:100130001124EF92FF920F931F932F933F934F93AE
:100140005F936F937F938F939F93AF93BF93EF933F
:10015000FF93DF93CF930F92CDB7DEB78091F4007A
:1001600083FF14C083E08093E9008091E80082FF60
:1001700008C082E192E06CED76E047E050E00E943A
:100180004C068091E800887F8093E8001092E90097
:100190008091E80083FF58C12091F1003091F10077
:1001A0008091F100E82EFF244091F100942F80E02F
:1001B000E82AF92A0091F10010E04091F100942F13
:1001C00080E0082B192B6091F100A091F10082EFE3
:1001D0008093E800363009F059C08FEF91E69C011A
:1001E00025503040FC013797459154914E155F05DD
:1001F000F9F4F9014591549140175107C9F42E5F64
:100200003F4FF901859194912E5F3F4FF901249161
:10021000462F50E07A2F60E0462B572B4F3F510579
:1002200019F010F04FEF50E0421750F4242F08C09F
:100230000796295F3F4FF2E689329F0799F604C17E
:10024000AEEF4091E80050E0BA0165707070611542
:100250007105B9F342FDFBC0322F213108F030E1C6
:10026000AC01632F07C0FA014F5F5F4FE491E09349
:10027000F10061506623B9F7830F911D231BA093F2
:10028000E8002223F1F63031E1F2E1C0353051F4DB
:100290008EEF8093E8000E94330E8E2D806880934D
:1002A000E300D5C0393061F5222309F0CDC0E092DA
:1002B0005201109254011092530110925C018EEF82
:1002C0008093E80041E082E292E64093E900FC017D
:1002D0000196E491E093EB00EE2369F09C012F5F1F
:1002E0003F4FFC0184918093EC00C9010196F90114
:1002F00024912093ED004F5F453039F78EE19FC088
:10030000383051F4203809F09FC00E94330E80919C
:1003100052018093F10070C0313279F4213A09F032
:1003200093C00E94330EE5E5F1E081918093F100E6
:1003300021E0EC35F207C9F75FC0303209F039C06F
:10034000213209F081C08091E80082FFFCCFE5E511
:10035000F1E08091F100819331E0EC35F307C9F7CA
:100360008BEF8093E8008EEF8093E8008091550139
:1003700090915601A0915701B0915801803B44E003
:10038000940740E0A40740E0B40709F060C087E7A5
:1003900097E790930108809300082BE088E190E0B4
:1003A0000FB6F894A895809360000FBE209360006C
:1003B0004EC0323251F4213209F046C0F09254015D
:1003C000E09253010E94330E17C03323C9F42983EE
:1003D0000E94330E2981223851F40093E900909154
:1003E000EB0081E095FF80E01092E90001C080E021
:1003F0008093F1001092F1008EEF8093E80027C007
:10040000313011F0333001F52230F1F4E114F10410
:10041000D9F40F77802F81508430B0F48EEF809321
:10042000E8000093E900333079F089E18093EB0034
:1004300081E090E002C0880F991F0A95E2F780934F
:10044000EA001092EA0003C081E28093EB000F9073
:10045000CF91DF91FF91EF91BF91AF919F918F91DC
:100460007F916F915F914F913F912F911F910F91CC
:10047000FF90EF900F900FBE0F901F9018951F9256
:100480000F920FB60F9211242F933F934F935F93C8
:100490006F937F938F939F93AF93BF93EF93FF934C
:1004A0002091790230917A0260917B0270917C02F6
:1004B000A901461B570B4F735070C9018095909549
:1004C000860F971F8F739070009731F481E090E052
:1004D0009093BE028093BD026091CE008091BD02D8
:1004E0009091BE02009761F4F901E958FD4F6683CF
:1004F0002F5F3F4F2F73307030937A022093790231
:100500004115510541F48CE192E06CED76E047E055
:1005100050E00E944C06FF91EF91BF91AF919F91E7
:100520008F917F916F915F914F913F912F910F909C
:100530000FBE0F901F9018951F920F920FB60F923B
:1005400011242F933F934F935F936F937F938F93D8
:100550009F93AF93BF93EF93FF93AEB5A53009F58B
:100560002091A5053091A6058091A3059091A40541
:10057000821B930B8F739070009789F0E091A70511
:10058000F091A805E20FF31F80818EBDC90101968D
:100590008F7390709093A6058093A50545C01EBCEF
:1005A00043C01EBCAA2309F43FC040919905509155
:1005B0009A0560919B0570919C059A01261B370B4B
:1005C0002F733070CA0180959095860F971F8F7397
:1005D0009070009731F481E090E09093A0058093B3
:1005E0009F0580919F059091A005009791F4E0915F
:1005F0009D05F0919E05E40FF51FA083809199055C
:1006000090919A0501968F73907090939A058093BC
:1006100099052115310541F486E292E06CED76E012
:1006200047E050E00E944C06FF91EF91BF91AF91DF
:100630009F918F917F916F915F914F913F912F91FA
:100640000F900FBE0F901F9018951F920F920FB62C
:100650000F9211242F933F934F935F936F937F9348
:100660008F939F93AF93BF93EF93FF938091AB07CB
:100670009091AC07A091AD07B091AE070196A11D76
:10068000B11D8093AB079093AC07A093AD07B093D7
:10069000AE0784EC96E060E070E047E050E00E9436
:1006A0002A29FF91EF91BF91AF919F918F917F91F7
:1006B0006F915F914F913F912F910F900FBE0F90CF
:1006C0001F901895A407B4079C07A407B407B407A4
:1006D000B407B407C407C407C407C407B407BC07FA
:1006E000B407B407C407CC07CC07D407DC07E4077A
:1006F000BC07C407D407DC07E407EC07EC07F407E2
:10070000FC070408F407FC076701B8103010A801C3
:100710000612FA11E701F72E712DEC01632D572D0A
:10072000F401392D2D2DFC019B2D212D6C696E6955
:100730006E6F494F3A2067697420313164623637F1
:1007400034206275696C742067696F2032303135EE
:100750002D30332D31322031353A32343A33312095
:10076000636F6C6F73696D6F40636F6F6C6D6173F6
:10077000740A0000000000000000000000000000FB
:100780000000000000000000000000000000000069
:100790000000000000000000000000000000F65F04
:1007A000000000000000F05F000000000000B060EA
:1007B000000000000000A460000000000000CA6308
:1007C0000000C50200001460000000000000C463C7
:1007D0000000C5020000C065000000000000AD641C
:1007E0000000000000003E6600000000000090686D
:1007F0000000850500008A68000085050000AA60E9
:1008000000000000000000000707070700000000CC
:1008100000000707070700000700070700000000A7
:10082000000000000707000007070707000000009E
:1008300000000000000000000000000000000000B8
:1008400000000000000000000000000000000000A8
:100850000000000084EC96E060E070E047E050E0CB
:100860000E942A29089583B7817F83BF83B781605F
:1008700083BF889583B78E7F83BF089502C00E948F
:10088000C1290E94AD290097D1F70E943304F9CF06
:1008900080E492E09093410280934002909343025F
:1008A0008093420280E090E00895AF92BF92CF9291
:1008B000DF92EF92FF920F931F93CF93DF93C0913C
:1008C0004002D091410226970E811F8106501040B0
:1008D000E12C91E0F92EC12C82E0D82E4CC0809101
:1008E000AB079091AC07A091AD07B091AE072881FE
:1008F0003981821B930B97FD43C06C817D8188EC0D
:1009000096E047E050E00E942A29AE80BF8080E454
:10091000A81682E0B806C1F09501265030404091FB
:10092000AB075091AC076091AD077091AE07F9012C
:1009300080819181A281B381840F951FA61FB71F6B
:1009400080839183A283B383A885B985F501B3839E
:10095000A283AD92BC92FF82EE82D986C886CE0178
:100960006AE070E00E94232CF80186819781E801FB
:100970008C0106501040F2E0CA33DF0709F0AFCF18
:10098000DF91CF911F910F91FF90EF90DF90CF906B
:10099000BF90AF900895EF92FF920F931F93CF9364
:1009A000DF937B018C01EA018AE090E00E94D72C62
:1009B000FC01009709F46AC08091AB079091AC07E5
:1009C000A091AD07B091AE078E0D9F1DA01FB11F66
:1009D00080839183A283B383D583C483EFB6F894D5
:1009E000A0914002B091410282E0A034B80791F595
:1009F000CF01069613969C938E931297B783A68386
:100A0000B187A08711969C938E933CC02081318141
:100A1000428153816D917D918D919C911397E90154
:100A2000C61BD70BD7FF0AC0621B730B840B950B39
:100A30006D937D938D939C93139714C0261B370B56
:100A4000480B590B208331834283538316960D90B4
:100A5000BC91A02D16978D010A5F1F4F82E00034D4
:100A60001807A1F6CF0106961896CD91DC9119973B
:100A700019969C938E93189717830683D187C08706
:100A800099838883EFBE20E030E002C024EF3FEF7F
:100A9000C901DF91CF911F910F91FF90EF900895C1
:100AA000CF93DF93FC01C481D581EA81FB818E81E4
:100AB0009F8109959F838E8388859985AA85BB85AB
:100AC0002C853D854E855F85820F931FA41FB51F22
:100AD0008C879D87AE87BF872091AB073091AC078D
:100AE0004091AD075091AE07B901681B790B77FDB6
:100AF00009C0DA01C9010196A11DB11D8C879D872E
:100B0000AE87BF876C857D858E859F85621B730B45
:100B1000840B950BAE010E94CB04DF91CF91089519
:100B2000EF92FF920F931F93CF93DF93E090AB0769
:100B3000F090AC070091AD071091AE07C0E3D2E092
:100B400008C0EC81FD81309719F08E819F81099555
:100B5000609682E0C034D807A0F3C0E3D2E01AC0A8
:100B60006C857D858E859F856E0D7F1D801F911FF5
:100B70006C597F4F8F4F9F4F6C877D878E879F87E4
:100B80006E197F09800B910BAE010E94CB0497FD7B
:100B900008C0609682E0C034D80710F320E030E04F
:100BA00002C02FEF3FEFC901DF91CF911F910F914D
:100BB000FF90EF9008950F931F93DF93CF93CDB7DE
:100BC000DEB72A970FB6F894DEBF0FBECDBFDC01AB
:100BD00014960D911C911597C8010896F80122856D
:100BE0003385A085B18513963C932E931297F90116
:100BF000B183A083D80119969C938E9318971B9666
:100C00009C938E931A971696ED91FC911797CF01AE
:100C10000696268137812817390771F4628173811E
:100C2000CE0101964AE050E00E94842FEF81F885C2
:100C3000309711F0C8010995F801178216822A969B
:100C40000FB6F894DEBF0FBECDBFCF91DF911F91DD
:100C50000F910895EF92FF920F931F93CF93DF931D
:100C60008C01C8E0D2E00AC068817981F8018081F6
:100C700091810E943D27009739F02A96F2E0C03317
:100C8000DF0790F3C0E0D0E0CE01DF91CF911F915C
:100C90000F91FF90EF900895AF92BF92CF92DF92A5
:100CA000EF92FF920F931F93CF93DF937B018A0103
:100CB000FC01C681D781209721F1289726E0C22E1A
:100CC000D12CC80ED91E8CEFA82E8FE5B82E14C0DB
:100CD000C701BE01A8010E942A2997FF09C000D0C0
:100CE000EDB7FEB7B282A1820E94A6250F900F90A9
:100CF0000884D985C02D2897CE0108968C159D05AE
:100D000039F7DF91CF911F910F91FF90EF90DF9016
:100D1000CF90BF90AF9008958F929F92AF92BF9265
:100D2000CF92DF92EF92FF920F931F93DF93CF93B7
:100D3000CDB7DEB72A970FB6F894DEBF0FBECDBF92
:100D40004C015B018A016115710519F486E190E09F
:100D500025C08CE090E00E94D72C6C017C010097AC
:100D600039F487E190E090938405809383056AC00D
:100D7000DC0111969C928E9215961C930E931497FB
:100D80001396BC92AE9212970E942A068C0100978D
:100D900061F4F6011782168286E090E09093840554
:100DA00080938305EE24FF244DC0D60117969C93B3
:100DB0008E931697FC0186819781009731F4C801C4
:100DC00006969783868391878087D80112966D91C6
:100DD0007C911397CE0101964AE050E00E94842F47
:100DE000E981FA81309741F0C6010995009721F019
:100DF000F60117821682D2CFC6010896D801169640
:100E0000ED91FC91179793838283D6011996FC93F9
:100E1000EE93189798012A5F3F4F1B963C932E93B1
:100E20001A97F80197838683F1E0AF16B10419F49D
:100E30008CEC96E002C080ED96E0B60147E050E011
:100E40000E942A29C7012A960FB6F894DEBF0FBE6A
:100E5000CDBFCF91DF911F910F91FF90EF90DF9069
:100E6000CF90BF90AF909F908F900895CF93DF93D6
:100E7000EC018E819F81009749F489E090E0909386
:100E80008405809383052FEF3FEF18C08A819B81F3
:100E90008130910519F484ED96E002C088ED96E06A
:100EA000BE0147E050E00E942A2984EE96E0BE0190
:100EB00046E050E00E942A2920E030E0C901DF919D
:100EC000CF910895CF92DF92EF92FF920F931F93ED
:100ED000DF93CF93CDB7DEB72A970FB6F894DEBF76
:100EE0000FBECDBF8C017B016A01DC011696ED912E
:100EF000FC911797309719F489E090E012C0628155
:100F00007381CE0101964AE050E00E94842FF801DF
:100F1000828180FF04C0EB81FC81309749F481E03D
:100F200090E090938405809383052FEF3FEF12C0EC
:100F3000C801B701A60109959C0197FF05C0882744
:100F40009927821B930B02C080E090E09093840568
:100F500080938305C9012A960FB6F894DEBF0FBEB1
:100F6000CDBFCF91DF911F910F91FF90EF90DF9058
:100F7000CF900895CF92DF92EF92FF920F931F933D
:100F8000DF93CF93CDB7DEB72A970FB6F894DEBFC5
:100F90000FBECDBF8C017B016A01DC011696ED917D
:100FA000FC911797309719F489E090E012C06281A4
:100FB0007381CE0101964AE050E00E94842FF8012F
:100FC000828181FF04C0ED81FE81309749F481E088
:100FD00090E090938405809383052FEF3FEF12C03C
:100FE000C801B701A60109959C0197FF05C0882794
:100FF0009927821B930B02C080E090E090938405B8
:1010000080938305C9012A960FB6F894DEBF0FBE00
:10101000CDBFCF91DF911F910F91FF90EF90DF90A7
:10102000CF900895EF92FF920F931F93DF93CF938A
:10103000CDB7DEB72A970FB6F894DEBF0FBECDBF8F
:101040008C017B01DC011696ED91FC91179730978E
:1010500019F489E090E00EC062817381CE0101969F
:101060004AE050E00E94842FE985FA85309749F4E0
:1010700081E090E090938405809383052FEF3FEF0C
:1010800011C0C801B70109959C0197FF05C08827C9
:101090009927821B930B02C080E090E09093840517
:1010A00080938305C9012A960FB6F894DEBF0FBE60
:1010B000CDBFCF91DF911F910F91FF90EF900895D9
:1010C000CF93DF9314BE88E10FB6F894809360004D
:1010D000109260000FBE0E945E28C8ECD0E004C0F1
:1010E00088EE93E00E94A02821978FEFCF3FD8078A
:1010F000B9F70E943E04DF91CF9108958091450297
:10110000813071F480914A02882311F080E001C09F
:1011100082E0809345028823F9F481E291E01EC0C9
:1011200084E097E060E070E047E050E00E942A2908
:1011300097FF0CC000D08CE390E6EDB7FEB792832A
:1011400081830E94A6250F900F90089581E08093DF
:1011500045028BE191E002C086E191E000D000D031
:101160002AE130E6EDB7FEB732832183948383838F
:101170000E94A6250F900F900F900F9008950E9447
:101180007E08089580914602909147020E9462076E
:10119000089580914602909147020E94BA070895EF
:1011A000EF92FF920F931F93DF93CF93CDB7DEB7EC
:1011B000C054D0400FB6F894DEBF0FBECDBFDC01E7
:1011C00014960D911C9115978091480290914902B7
:1011D00008171907E9F481E080934A0280914502DB
:1011E000813011F010924502C8018E010F5F1F4F30
:1011F000B80140E450E00E946207AC0118161906DD
:101200000CF0F2C08091810590918205B80183C0F5
:10121000D8011696ED91FC911797CF01069626817D
:1012200037812817390709F4DFC080914602909171
:1012300047020817190741F08091A9079091AA0762
:101240000817190709F0D0C080914402882339F0AB
:101250008091A9079091AA070817190789F480912E
:101260004502813069F0C801BE016F5F7F4F40E4E5
:1012700050E00E9462077C01181619061CF0B4C0E9
:10128000EE24FF248091A9079091AA070817190757
:1012900009F044C02091460230914702FE01319688
:1012A00080E090E007C041914D3119F40E947E0822
:1012B00007C001968E159F051CF42115310599F77D
:1012C00080914502813049F48CEF96E060E070E057
:1012D00047E050E00E942A2987C0882361F480916A
:1012E000480290914902009731F0BE016F5F7F4F35
:1012F000A7010E94BA0780914402813009F474C0AA
:101300008091460290914702009709F46DC0BE019A
:101310006F5F7F4FA7010E94BA0766C080914402A9
:10132000882309F04AC0FE01319620E030E039C040
:101330000191802F8A5A823090F581E08093440297
:1013400000D000D000D0EDB7FEB7319688E790E628
:10135000ADB7BEB712969C938E931197A09146029B
:10136000B091470216960D90BC91A02D2D913C9105
:101370003383228325E231E0358324830E94A6252E
:10138000EDB7FEB736960FB6F894FEBF0FBEEDBFB1
:10139000802F90E08A5A90400E948C1005C02F5FE9
:1013A0003F4F2E153F0524F2809144028130E1F039
:1013B0008091810590918205AACF88EE96E060E049
:1013C00070E047E050E00E942A2997FF0DC000D04E
:1013D0008BE590E6ADB7BEB712969C938E931197AE
:1013E0000E94A6250F900F90C05CDF4F0FB6F894B7
:1013F000DEBF0FBECDBFCF91DF911F910F91FF9048
:10140000EF90089580914602909147020E9436071E
:1014100008958BE291E063E070E040E050E00E94CC
:101420008C069093470280934602009799F01092A1
:10143000440282E08093450284E391E063E070E03F
:1014400040E050E00E948C0690934902809348024D
:10145000009719F42DEE3FEF02C020E030E0C90103
:1014600008951F93FB011FB7F89460E270E00E949B
:10147000A42F660F771F660F771FE60FF71F21E077
:1014800030E040E050E004C0220F331F441F551FDE
:101490008A95D2F780819181A281B381822B932B8F
:1014A000A42BB52B80839183A283B3831FBF1F918D
:1014B00008951F93FB011FB7F89460E270E00E944B
:1014C000A42F660F771F660F771FE60FF71F21E027
:1014D00030E040E050E004C0220F331F441F551F8E
:1014E0008A95D2F780819181A281B381822B932B3F
:1014F000A42BB52B80839183A283B3831FBF1F913D
:1015000008952F923F924F925F927F928F929F9277
:10151000AF92BF92CF92DF92EF92FF920F931F9301
:10152000DF93CF9300D000D000D0CDB7DEB76BE40F
:10153000E62E62E0F62E53E2A52EB12CCC24DD245B
:1015400080E090E020E030E041E0442E512C01C0EA
:10155000980189010F5F1F4FF5017080609167024C
:10156000462F50E0022E02C0559547950A94E2F7A7
:1015700040FD0BC0A20102C0440F551F2A95E2F79F
:101580009A01262B2093670251C0F701808087249F
:101590009924939440E050E02FE4222E22E0322E52
:1015A000200E311E98012C5A3D4F3A832983F801B1
:1015B000EF59FD4FFC83EB83F1012081292179F163
:1015C000292D282161F1E981FA812081292189F0E1
:1015D000F7012081292169F4CA018C0D9D1D6AE55E
:1015E00072E04D835E830E94310A81E090E05E816B
:1015F0004D81EB81FC812081292189F0F701208137
:10160000292169F0CA018C0D9D1D6AE572E04D83A8
:101610005E830E94310A81E090E05E814D814F5FE0
:101620005F4F4830510511F0990CC6CFF701719208
:101630007F0128E030E0C20ED31E43E050E0A40E4C
:10164000B51E0530110509F083CF009741F08CEEEF
:1016500096E06AE572E047E050E00E942A2926966B
:101660000FB6F894DEBF0FBECDBFCF91DF911F91B3
:101670000F91FF90EF90DF90CF90BF90AF909F9031
:101680008F907F905F904F903F902F9008951F9381
:101690008832910508F048C0AC014770507021E0D5
:1016A00030E002C0220F331F4A95E2F7E3E0959540
:1016B0008795EA95E1F790E0122F1095FC01EB5A1F
:1016C000FD4F508151235083DC01AE59BD4F4C91E9
:1016D00041234C93DC01A05BBD4F3C9131233C93F3
:1016E00060FF02C0522B508361FF05C0FC01EE5920
:1016F000FD4F422B408367FF05C0FC01E05BFD4FBF
:10170000322B30836C7070706115710581F0FC01B3
:10171000EB5AFD4F3081322B3083FC01EE59FD4FE7
:101720008081822B808303C02AEE3FEF02C020E03D
:1017300030E0C9011F910895ECE7F0E080818F73DC
:101740008083808180648083EAE7F0E08081876025
:10175000808380818F77808380E090E00895FC0112
:101760002181822F90E030917C00307E30937C008C
:1017700030917C00883091050CF0205E232B209363
:101780007C0080917A00806480937A0080917A0056
:1017900086FDFCCF8091780090917900392F20E070
:1017A000442737FD4095542F90E0A0E0B0E0282B6F
:1017B000392B4A2B5B2BB901CA01089584B583608C
:1017C00084BD85B5886085BD089584B58C7F84BD52
:1017D00085B5877F85BD0895E0E8F0E0808182606F
:1017E0008083E1E8F0E080818A6180838FE39CE977
:1017F00090938700809386000895E0E8F0E0808170
:101800008D7F8083E1E8F0E08081807E808310928C
:101810008700109286000895E0E9F0E08081826000
:101820008083E1E9F0E080818A6180838FE39CE935
:1018300090939700809396000895E0E9F0E080810E
:101840008D7F8083E1E9F0E08081807E808310924B
:101850009700109296000895E1ECF0E080818B6093
:1018600080830895E1ECF0E08081847F8083089597
:10187000411551056105710521F04150504060400E
:101880007040509387004093860080E090E0089578
:10189000209186003091870040E050E02F5F3F4F5D
:1018A0004F4F5F4FB901CA010895411551056105B8
:1018B000710521F0415050406040704050939700B6
:1018C0004093960080E090E008952091960030913A
:1018D000970040E050E02F5F3F4F4F4F5F4FB901FF
:1018E000CA0108954093D10080E090E0089560918E
:1018F000D10070E080E090E00895FC01A089B189FA
:101900008C919389892321E030E011F420E030E0CC
:10191000C9010895FC01A089B18993894115510538
:101920006105710519F08C91892B03C08C919095FC
:1019300089238C9380E090E00895DF93CF9300D0CB
:1019400000D0CDB7DEB749835A836B837C83842F65
:10195000952FA62FB72F0097A105B10539F0019754
:10196000A109B10989839A83AB83BC83898188BD2E
:1019700080E090E00F900F900F900F90CF91DF914B
:10198000089528B530E02F5F3F4F442737FD40953D
:10199000542FB901CA010895FC01628573858485BD
:1019A00095850895411551056105710521F0415056
:1019B000504060407040DC015796ED91FC91589783
:1019C0005183408380E090E00895DC015796ED91CB
:1019D000FC9158972081318140E050E02F5F3F4FCC
:1019E0004F4F5F4FB901CA0108954093D20080E084
:1019F00090E008956091D20070E080E090E008955A
:101A00008091C100992787FD9095892F881F88278D
:101A1000881F90E00895411551056105710521F079
:101A20008091C100806803C08091C1008F7780934E
:101A3000C10080E090E0089521E030E002C0220F74
:101A4000331F8A95E2F7442737FD4095542F809144
:101A50006C0290916D02A0916E02B0916F022823EA
:101A600039234A235B2361E070E0211531054105EC
:101A7000510511F460E070E0CB0108950F931F93BE
:101A8000CF93DF93EC0108811981C8010E941C0DDE
:101A9000009731F0F801E059FD4F8081815080833B
:101AA000F801E059FD4F8081882319F4EBA5FCA5CE
:101AB0000995E889F98980819A899095892380839D
:101AC00021E030E002C0220F331F0A95E2F7C9017E
:101AD000AA2797FDA095BA2F4091680250916902FC
:101AE00060916A0270916B0284239523A623B72329
:101AF0000097A105B10539F4EC89FD8980819E89A3
:101B000090958923808320953095442737FD409513
:101B1000542F80916C0290916D02A0916E02B09151
:101B20006F0282239323A423B52380936C029093A6
:101B30006D02A0936E02B0936F02DF91CF911F915F
:101B40000F910895EF92FF920F931F93CF93DF931E
:101B5000EC01F8808E859F858C0100591D4FF8019E
:101B6000E080EE2031F481E08083E9A5FAA50995B3
:101B700007C00E941C0D009719F4E394F801E0825D
:101B8000E889F98980819A89892B8083EC89FD898C
:101B900080816E898623209168023091690240918C
:101BA0006A0250916B028823C9F081E090E00F2C0B
:101BB00002C0880F991F0A94E2F7AA2797FDA09503
:101BC000BA2F822B932BA42BB52B80936802909372
:101BD0006902A0936A02B0936B021DC081E090E09D
:101BE0000F2C02C0880F991F0A94E2F780959095F8
:101BF000AA2797FDA095BA2F82239323A423B52368
:101C00008093680290936902A0936A02B0936B027A
:101C10008081862B808321E030E002C0220F331FB9
:101C2000FA94E2F7442737FD4095542F80916C02D7
:101C300090916D02A0916E02B0916F02822B932B56
:101C4000A42BB52B80936C0290936D02A0936E022F
:101C5000B0936F0280E090E0DF91CF911F910F91E0
:101C6000FF90EF9008958091E80080FFFCCF0895E9
:101C700081E08093D70080EA8093D80082E189BD1B
:101C800009B400FEFDCF80E98093D8001092E000F7
:101C90001092520110925401109253018CE08093E3
:101CA000E20080E090E0089580E090E008950F93D6
:101CB0001F93809152018823A9F11FB7F89483E004
:101CC0008093E900E091F200862F972FDC0120E05D
:101CD00030E0F0E083E00FC08093E9009091E800ED
:101CE00095FD02C01FBF10C08093E9009091F100E4
:101CF0009D932F5F3F4F642F752FE617F7070CF466
:101D0000BF012617370744F383E08093E9008091F1
:101D1000F200882329F48091E8008F778093E8000F
:101D20001FBF02C025EF3FEFC9011F910F9108951A
:101D3000E2EEF0E08081877F8083089580915201F8
:101D400090E00895809153019091540108951F935C
:101D5000DC0180915201882309F41BC12FB7F8944C
:101D600084E08093E90080915D01882341F08091B7
:101D7000E80085FD02C02FBF16C010925D0114E07F
:101D800050E44AE335E0FEC08091E400875E909124
:101D9000E80095FD15C02FBF9091E400981731F42D
:101DA00081E080935D012BEF3FEFF5C090915201F0
:101DB000992309F4EEC02FB7F8941093E900E7CF08
:101DC0008091F200E52FE81B8E2F90E068177907CD
:101DD00008F4E62F6E1B7109F0E0E134F10508F01C
:101DE000C5C0E954F04DEE0FFF1F0590F491E02DB2
:101DF00009948D918093F1008D918093F1008D91E4
:101E00008093F1008D918093F1008D918093F1008A
:101E10008D918093F1008D918093F1008D9180934D
:101E2000F1008D918093F1008D918093F1008D915F
:101E30008093F1008D918093F1008D918093F1005A
:101E40008D918093F1008D918093F1008D9180931D
:101E5000F1008D918093F1008D918093F1008D912F
:101E60008093F1008D918093F1008D918093F1002A
:101E70008D918093F1008D918093F1008D918093ED
:101E8000F1008D918093F1008D918093F1008D91FF
:101E90008093F1008D918093F1008D918093F100FA
:101EA0008D918093F1008D918093F1008D918093BD
:101EB000F1008D918093F1008D918093F1008D91CF
:101EC0008093F1008D918093F1008D918093F100CA
:101ED0008D918093F1008D918093F1008D9180938D
:101EE000F1008D918093F1008D918093F1008D919F
:101EF0008093F1008D918093F1008D918093F1009A
:101F00008D918093F1008D918093F1008D9180935C
:101F1000F1008D918093F1008D918093F1008D916E
:101F20008093F1008D918093F1008D918093F10069
:101F30008D918093F1008D918093F1008D9180932C
:101F4000F1008D918093F1008D918093F1008D913E
:101F50008093F1008D918093F1008D918093F10039
:101F60008D918093F1008D918093F1008D918093FC
:101F7000F1008091E80085FD02C04093E8003093B5
:101F80005C012FBF6115710509F0FECE20E030E045
:101F900002C025EF3FEFC9011F910895EF92FF9214
:101FA000CF93DF93CB01EA01209759F4809152013E
:101FB000882379F0809153019091540180FD0BC0EA
:101FC00008C0BA010E94A70E009729F0CFEFDFEFFB
:101FD00002C0C5EFDFEFCE01DF91CF91FF90EF9010
:101FE00008958091760290E0FC01EE0FFF1FE80F4C
:101FF000F91FEE0FFF1FEB57FE4F808191819093E9
:10200000CD008093CC0010927C0210927B02109243
:102010007A021092790282E08093C80088E9809366
:10202000C90080E090E0089580E090E00895862F58
:10203000972FFC0180E090E008C021913091C8000A
:1020400035FFFCCF2093CE00019684179507ACF3A3
:10205000CA010895E9ECF0E08081877680830895D5
:1020600000D089ED92E6EDB7FEB7928381830E949E
:10207000A6250F900F900895EF92FF92CF93DF93D4
:10208000CB0160917B0270917C0220E430E0261B42
:10209000370BC0917902D0917A02C20FD31FCF7350
:1020A000D0704C175D070CF4EA012C173D070CF4B7
:1020B000E901209749F163587D4FAE010E947027D6
:1020C00080917B0290917C028C0F9D1F8F7390708A
:1020D00090937C0280937B021092BE021092BD020C
:1020E0002091790230917A02281B390B2F733070BE
:1020F0002115310559F08CE192E06CED76E047E076
:1021000050E00E944C0602C0C5EFDFEFCE01DF9128
:10211000CF91FF90EF9008958430910598F000D012
:1021200000D02EEF32E6EDB7FEB7328321839483E1
:1021300083830E94A6250F900F900F900F902AEE98
:102140003FEF14C08093760290E0FC01EE0FFF1F7A
:10215000E80FF91FEE0FFF1FEB57FE4F80819181B3
:102160009093CD008093CC0020E030E0C901089529
:102170008F929F92AF92BF92CF92DF92EF92FF9297
:102180000F931F93CF93DF938230910564F0DB01AF
:102190001296ED91FC911397808190E0C1970E9477
:1021A0008C108C0102C000E010E0E9E8EE2EE1E0C6
:1021B000FE2EC0E0D0E07AEFC72E72E6D72E6CEF8D
:1021C000A62E62E6B62E51EF852E52E6952E809110
:1021D000760290E0C817D90731F400D0EDB7FEB70A
:1021E000B282A18207C000D0ADB7BEB71296DC9212
:1021F000CE9211970E94A62500D000D02196EDB76F
:10220000FEB73196ADB7BEB712969C928E921197DB
:10221000D383C283D7018D919C91958384830E943F
:10222000A625E6E0F0E0EE0EFF1E8DB79EB70696FF
:102230000FB6F8949EBF0FBE8DBFC330D10539F6DF
:10224000C801DF91CF911F910F91FF90EF90DF9028
:10225000CF90BF90AF909F908F900895289A239A27
:1022600080E090E008958091A3059091A405809569
:1022700090952091A5053091A605820F931F8F732D
:102280009070242F352F821793070CF49C01211591
:10229000310519F1862F972FDC0140E050E019C07D
:1022A0006D91E091A705F091A8058091A30590910B
:1022B000A405E80FF91F60838091A3059091A40500
:1022C00001968F7390709093A4058093A3054F5F40
:1022D0005F4F4217530724F302C025EF3FEFC901B8
:1022E00008958CB58F778CBD8CB58F7B8CBD80911C
:1022F0009D0590919E0560E470E00E94232C8091E2
:10230000A7059091A80560E470E00E94232C089531
:10231000EF92FF921F93CF93DF93CB011FB7F894F7
:10232000E0919B05F0919C0520E430E02E1B3F0BD3
:10233000C0919905D0919A05C20FD31FCF73D07069
:102340004C175D070CF4EA012C173D070CF4E9016A
:10235000209721F41FBFC5EFDFEF2DC060919D05D1
:1023600070919E056E0F7F1FAE010E9470278091B5
:102370009B0590919C058C0F9D1F8F73907090937F
:102380009C0580939B051092A00510929F052091BB
:10239000990530919A05281B390B2F733070211540
:1023A000310541F086E292E06CED76E047E050E0E6
:1023B0000E944C061FBFCE01DF91CF911F91FF906D
:1023C000EF90089580E48CBD8CB580688CBD80E46E
:1023D00090E00E94D72C90939E0580939D0580E409
:1023E00090E00E94D72C9093A8058093A70580E0E9
:1023F00090E0089500D08EE193E6EDB7FEB79283AA
:1024000081830E94A6250F900F900895AF92BF92EE
:10241000CF92DF92EF92FF920F931F93CF93DF93B0
:10242000C0E0D0E02FE3E22E23E6F22E99E3C92E9E
:1024300093E6D92E87E3A82E83E6B82E8E01077087
:1024400010700115110591F400D000D0ADB7BEB7E2
:102450001296FC92EE9211971496DC93CE931397FA
:102460000E94A6250F900F900F900F90899100D099
:1024700000D0EDB7FEB73196ADB7BEB71296DC927D
:10248000CE921197828313820E94A6250F900F90FF
:102490000F900F900730110549F400D0EDB7FEB74B
:1024A000B282A1820E94A6250F900F90F1E0C03069
:1024B000DF0721F600D085E393E6ADB7BEB71296ED
:1024C0009C938E9311970E94A6250F900F9080E009
:1024D00090E0DF91CF911F910F91FF90EF90DF90EF
:1024E000CF90BF90AF900895CF93DF93CFE9D1E025
:1024F000CE0162E070E040E050E00E948C069093D4
:10250000820580938105CE0161E070E040E050E0FB
:102510000E948C069093AA078093A90780E090E020
:10252000DF91CF910895E1E6F0E080E880831082AA
:102530000E9405270E94D2280E94132880E090E084
:1025400008950895EF92FF920F931F93DA01FC0113
:1025500084819581FC01E60FF71FE590F5900591C8
:102560001491EC921196FC92119712960C9312977B
:1025700013961C93139721153105C1F06C5F7F4FA3
:10258000680F791FFB01259135914591549114965F
:102590002C93149715963C93159716964C93169773
:1025A00017965C93179728E030E002C024E030E0F3
:1025B000C9011F910F91FF90EF900895CF93DF9382
:1025C000FA01DC011496CD91DC911597C60FD71F47
:1025D00088819981AA81BB8180839183A283B383FF
:1025E0002115310559F08C819D81AE81BF81848395
:1025F0009583A683B78328E030E002C024E030E072
:10260000C901DF91CF910895CF93DF93FA01DC01E7
:102610001696CD91DC911797C60FD71F80819181B7
:10262000A281B38188839983AA83BB832115310555
:1026300059F084819581A681B7818C839D83AE8377
:10264000BF8328E030E002C024E030E0C901DF9120
:10265000CF910895AC018BEA91E061E070E00E94B7
:102660008C069C01009721F42091A9073091AA07BC
:10267000C9010895EF92FF92CF93DF93E82EE7010F
:102680007E01F92EE701209759F1C7010E942A1314
:1026900099838883009721F400D080EB93E618C0DB
:1026A0008BEA91E062E070E0A7010E948C069B83B8
:1026B0008A83009731F480918105909182059B83F4
:1026C0008A838A819B81009771F400D08BE993E61D
:1026D000EDB7FEB7928381830E94A6250F900F90DD
:1026E0002FEF3FEF02C020E030E0C901DF91CF9132
:1026F000FF90EF900895CF93DF93DA01EC01EC8126
:10270000FD812115310559F4E60FF71F859194914C
:102710008C9311969C93119722E030E009C06E0FC4
:102720007F1FCA0148E050E00E94842F28E030E07B
:10273000C901DF91CF910895CF93DF93DA01EC01C6
:10274000EC81FD812115310539F4E60FF71FE49185
:10275000EC9321E030E009C06E0F7F1FCA0148E012
:1027600050E00E94842F28E030E0C901DF91CF9132
:1027700008959B01BA01FC0186819781820F931F06
:1027800048E050E00E94702788E090E00895FB0147
:10279000BA01DC0116968D919C9117972115310590
:1027A00059F4E80FF91FDA018D919C9111979183EB
:1027B000808322E030E008C08E0F9F1F48E050E089
:1027C0000E94702728E030E0C9010895FB01BA019A
:1027D000DC0116968D919C9117972115310541F4D6
:1027E000E80FF91FDA018C91808321E030E008C006
:1027F0008E0F9F1F48E050E00E94702728E030E0D5
:10280000C90108959B01FC0164817581620F731FEA
:10281000CA0148E050E00E94702788E090E00895E7
:10282000FA01DC0114968D919C91159721153105C3
:1028300059F4680F791FDB018D919C911197918359
:10284000808322E030E009C0680F791FCA0148E0A8
:1028500050E00E94702728E030E0C9010895FA0195
:10286000DC0114968D919C9115972115310541F449
:10287000680F791FDB018C91808321E030E009C073
:10288000680F791FCA0148E050E00E94702728E0D5
:1028900030E0C90108959B01FC0164817581620FDC
:1028A000731FCA0148E050E00E94702788E090E062
:1028B000089540E150E00E94BA0797FF0BC000D096
:1028C00086E893E6EDB7FEB7928381830E94A62542
:1028D0000F900F900895FC01A681B78164817581E6
:1028E00012968D919C9113970E94591408958F927E
:1028F0009F92AF92BF92CF92DF92EF92FF920F938F
:102900001F93DF93CF93CDB7DEB7A4970FB6F8949C
:10291000DEBF0FBECDBFDC0116960D911C9117973F
:1029200094E0E92EF12CE00EF11E8091C30290910B
:10293000C402009739F481E090E09093C402809340
:10294000C30219C0F801848995890097A1F080918C
:10295000AB079091AC07A091AD07B091AE07209165
:10296000BF023091C002245F3F4F281B390B37FF55
:1029700002C0158A148A8091AB079091AC07A09190
:10298000AD07B091AE078093BF029093C002A093B1
:10299000C102B093C202D801CD90DC901197549639
:1029A0008D919C915597B701680F791F40E150E0D8
:1029B000481B590BC6010E946207181619068CF0B5
:1029C000009749F4C6010E943607C8010E942A13E5
:1029D000F80191838083D80155961C921E925497DA
:1029E00044C1F80124893589280F391F358B248B80
:1029F0002031310508F439C1158A148A6681862F81
:102A00008E71823009F031C1858182958F7061703D
:102A10006295607F682B70E083E0660F771F8A9570
:102A2000E1F76A567749F8E66E3B7F0788F46E0156
:102A30000894C11CD11CC60148E050E00E94842FBC
:102A4000D80117968C91179790E086FD18C025C085
:102A5000F801828193812DEE3FEF4FEF5FEFD801B8
:102A600018962D933D934D935C931B9717962C913D
:102A70001797206217962C931797B701F2C0ED8134
:102A8000FE810190F081E02D309709F4EEC0C7017E
:102A9000B60140E050E00995E8C08F7190709595BF
:102AA0008795A1E0EA2EF12C02C0EE0CFF1C8A955E
:102AB000E2F7CC24DD24AA24BB24F9E08F2E912C4C
:102AC0008C0E9D1E29C06B817C816C0D7D1DC40107
:102AD0004AE050E00E94842FEB85FC85859194911B
:102AE00049855A85F80124816581362F3F70241766
:102AF000350758F0215030402E0D3F1D41505040B9
:102B0000480F591F421753076CF40894A11CB11CBD
:102B10008AE090E0C80ED91E89819A81A816B9066C
:102B200094F28CC0D80117962C91179730E020783A
:102B3000307069897A896115710521F1CE0143965A
:102B400040E150E02BA33CA30E94842FD8011796AC
:102B5000EC911797F0E0CE0101962BA13CA1E0FD8E
:102B600009C0EE71F070E80FF91FC288D388A0E0A9
:102B7000B0E00CC03197EE71F070E80FF91FA28D34
:102B8000B38D02C0A0E0B0E0CC24DD244F81588595
:102B9000BA01C8010496E0E1EE2EFC010190CF01DC
:102BA000FB010192BF01EA94C1F7FA0183818064BD
:102BB0008383C114D10499F0D80114966C911497B1
:102BC00015968C91782F7F7089859A85681B790B73
:102BD0004C5F5F4FCE010996F601099512C0109720
:102BE000A1F0F80164818581782F7F7089859A85AD
:102BF000681B790BA801485F5F4FCE010996FD0164
:102C000009959C0197FF12C002C02FEF3FEFEF81A3
:102C1000F885D80112968D919C9113973095219546
:102C20003F4F442737FD4095542F13C06F8178855F
:102C3000F801828193810E94591417C0EF81F885B1
:102C4000D80112968D919C91139726E130E040E0D7
:102C500050E0248335834683578323812062238376
:102C6000BF0140E150E00E94BA07A4960FB6F89465
:102C7000DEBF0FBECDBFCF91DF911F910F91FF90AF
:102C8000EF90DF90CF90BF90AF909F908F9008957E
:102C90009B0168E070E00E94A42F6F5F7F4FFB01F3
:102CA000EE0FFF1FE60FF71F2115310551F092A11E
:102CB00021E030E002C0220F331F8A95E2F7922B09
:102CC0000AC092A121E030E002C0220F331F8A9592
:102CD000E2F72095922392A3089568E070E00E94A5
:102CE000A42F6F5F7F4FFB01EE0FFF1FE60FF71F53
:102CF00090A121E030E002C0220F331F8A95E2F755
:102D0000922321E030E011F420E030E0C901089581
:102D10009C01FB014FB7F89460E270E00E94A42F81
:102D2000660F771F660F771FE60FF71F808191816F
:102D3000A281B3814FBF2F71307004C0B695A795A3
:102D4000979587952A95D2F79C0121703070C9011B
:102D500008958FEF9FEF08958FEF9FEF08958FEF06
:102D60009FEF08958FEF9FEF08958FEF9FEF0895E6
:102D70008FEF9FEF08952F923F924F925F926F9245
:102D80007F928F929F92AF92BF92CF92DF92EF92FB
:102D9000FF920F931F93DF93CF9300D000D000D00A
:102DA000CDB7DEB73B018C0163E0000F111F6A95C0
:102DB000E1F74115510511F4290103C098E0492EAE
:102DC000512CEE24FF243E832D8392C0C70168E07E
:102DD00070E00E94A42F9B014D815E814830510517
:102DE00021F1C70160E170E00E94A42F5B01AA0CF1
:102DF000BB1CA60CB71CC70160E270E00E94A42FA8
:102E00006B01CC0CDD1CCC0CDD1CC60CD71C61E0AE
:102E100070E080E090E069837A838B839C838824D0
:102E200099241301220E331E57C0F301E60FF71F3A
:102E30004081C80187709070009799F6C8016D8134
:102E40007E810E94A42F6F5F7F4FFB01EE0FFF1F5B
:102E5000E60FF71F42A346C08D819E818031910508
:102E600059F08032910571F08830910509F045C024
:102E7000D1018C9190E003C0F50180819181A0E0A7
:102E8000B0E005C0F60180819181A281B3819401F7
:102E9000200F311F49815A816B817C8184239523C6
:102EA000A623B72361E070E00097A105B10511F4F6
:102EB00060E070E0C9010E9448160894811C911CD2
:102EC00069817A818B819C81660F771F881F991F8A
:102ED00069837A838B839C838D819E818816990672
:102EE0000CF4BACFAD81BE81EA0EFB1E0A0F1B1F88
:102EF000E414F5040CF46ACF04C06AEE462E6FEFBA
:102F0000562EC20126960FB6F894DEBF0FBECDBF77
:102F1000CF91DF911F910F91FF90EF90DF90CF90B5
:102F2000BF90AF909F908F907F906F905F904F90E9
:102F30003F902F900895CB01BA01A90128E030E01D
:102F40000E94BB160895CB01BA01A90120E130E02F
:102F50000E94BB160895CB01BA01A90120E230E01E
:102F60000E94BB160895CB01BA01A90128E030E008
:102F70000E94BB160895CB01BA01A90128E030E0F8
:102F80000E94BB1608952F923F924F925F926F92CC
:102F90007F928F929F92AF92BF92CF92DF92EF92E9
:102FA000FF920F931F93DF93CF9300D000D0CDB744
:102FB000DEB73B013C832B838C0163E0000F111FC4
:102FC0006A95E1F74115510511F4290103C098E014
:102FD000492E512CCC24DD2428E030E08FC0C601DE
:102FE000B9010E94A42F1B01F301E60FF71F8B818B
:102FF0009C8180319105E9F080329105F1F08830B3
:10300000910519F5C80187709070009781F4C80187
:103010006B817C810E94A42F6F5F7F4FDB01AA0F21
:10302000BB1FA60FB71F90968C91909701C08AEE98
:103030008083AAEDBFEFB183A0838AED9FEFAFEF4E
:10304000BFEF80839183A283B383882499245401A2
:10305000EE24FF241CC0C701800F911F29833A83EF
:103060000E946D16AA2797FDA095BA2F0E2C04C0BA
:10307000880F991FAA1FBB1F0A94D2F7882A992A82
:10308000AA2ABB2A0894E11CF11C3A812981AB8150
:10309000BC81EA16FB06FCF2A031B10559F0A03262
:1030A000B105A9F0A830B10571F5F301E20DF31DEA
:1030B00080821EC0C6016B817C810E94A42F660F96
:1030C000771F660D771DFB019182808211C0C601BA
:1030D0006B817C810E94A42F660F771F660F771F7C
:1030E000660D771DDB018D929D92AD92BC92139778
:1030F000EB81FC81CE0EDF1E0E0F1F1FC414D50402
:103100000CF46DCF04C07AEE472E7FEF572EC2012C
:103110000F900F900F900F90CF91DF911F910F9113
:10312000FF90EF90DF90CF90BF90AF909F908F90E7
:103130007F906F905F904F903F902F900895CB01BC
:10314000BA01A90128E030E00E94C3170895CB011D
:10315000BA01A90120E130E00E94C3170895CB0114
:10316000BA01A90120E230E00E94C31708956F92CE
:103170007F928F929F92AF92BF92CF92DF92EF9207
:10318000FF920F931F93DF93CF93CDB7DEB72897AE
:103190000FB6F894DEBF0FBECDBF4C01762E672E62
:1031A0008A0179014115510519F4C22EDF2C03C0A3
:1031B00078E2C72ED12CC4015E010894A11CB11C79
:1031C000B501A80197010E94C31797FD1EC0C60153
:1031D00068E070E00E94A42FC301E92FF62DD5010D
:1031E00080E090E005C031912C91232B2D93019626
:1031F00086179707C4F3C401BE016F5F7F4FA70115
:1032000098010E94BB169C0102C02FEF3FEFC9013D
:1032100028960FB6F894DEBF0FBECDBFCF91DF91D9
:103220001F910F91FF90EF90DF90CF90BF90AF90E4
:103230009F908F907F906F900895CB01BA01A90164
:1032400020E130E00E94B7180895CB01BA01A9012E
:1032500020E230E00E94B71808956F927F928F921B
:103260009F92AF92BF92CF92DF92EF92FF920F9315
:103270001F93DF93CF93CDB7DEB728970FB6F8949F
:10328000DEBF0FBECDBF4C01762E672E8A017901BD
:103290004115510519F4C22EDF2C03C0E8E2CE2EF1
:1032A000D12CC4015E010894A11CB11CB501A80178
:1032B00097010E94C31797FD1EC0C60168E070E029
:1032C0000E94A42FC301E92FF62DD50180E090E0E4
:1032D00005C031912C91232B2D93019686179707CA
:1032E000C4F3C401BE016F5F7F4FA70198010E9424
:1032F000BB169C0102C02FEF3FEFC90128960FB605
:10330000F894DEBF0FBECDBFCF91DF911F910F911B
:10331000FF90EF90DF90CF90BF90AF909F908F90F5
:103320007F906F900895CB01BA01A90120E130E0B0
:103330000E942D190895CB01BA01A90120E230E0C5
:103340000E942D1908952F923F924F925F927F9283
:103350008F929F92AF92BF92CF92DF92EF92FF92A5
:103360000F931F93CF93DF931C01F62FE72FC90113
:103370004115510531F468E070E00E94A42F7B01F3
:1033800003C018E0E12EF12CCF01892E9E2E00E023
:1033900010E0B1E0AB2EB12C39C0F40141904F01E7
:1033A0005524C201837090708330910599F16801B2
:1033B000C20CD31CC6010E946D169C01C60168E0B8
:1033C00070E00E94A42F782E6F5F7F4FEB01CC0F2F
:1033D000DD1FC60FD71FC601B9010E94481641FE66
:1033E00009C029A1C50102C0880F991F7A94E2F78C
:1033F000282B09C029A1C50102C0880F991F7A9402
:10340000E2F78095282329A30F5F1F4F0E151F0594
:1034100024F204C0FAEEEF2EFFEFFF2EC701DF917A
:10342000CF911F910F91FF90EF90DF90CF90BF90C1
:10343000AF909F908F907F905F904F903F902F9094
:103440000895CB01BA01A90128E030E00E94A31938
:103450000895CB01BA01A90120E130E00E94A3192F
:103460000895CB01BA01A90120E230E00E94A3191E
:103470000895CF92DF92EF92FF920F931F93CF9315
:10348000DF937C01F62FE72FC9014115510531F477
:1034900068E070E00E94A42F9B0102C021E030E0B0
:1034A000CF01C92EE6016E01DE2EE601E0E0F0E07C
:1034B00008E010E01DC0CF018E0D9F1DB8010E94D5
:1034C000A42F6F5F7F4FDB01AA0FBB1FA60FB71F93
:1034D00091964C91919750E002C0559547958A95E9
:1034E000E2F740FF02C082E001C081E0899331969B
:1034F000E217F30704F3C901DF91CF911F910F91F8
:10350000FF90EF90DF90CF900895CB01BA01A90111
:1035100028E030E00E94391A0895CB01BA01A901D0
:1035200020E130E00E94391A0895CB01BA01A901C7
:1035300020E230E00E94391A0895AF92BF92CF92F4
:10354000DF92EF92FF920F931F93CF93DF938B0144
:103550002115310521F434E0C32ED12C03C021E024
:10356000C22ED12CE42EE7017E01F52EE701EE24D8
:10357000FF245E01888181FF05C0C8016BEF72E006
:103580000E94590A888180FF05C0C80163E073E08A
:103590000E94590A888182FF05C0C80163EE72E06B
:1035A0000E94590A888183FF05C0C8016BEE72E052
:1035B0000E94590A888187FF05C0C8016BE073E04B
:1035C0000E94590A2196F5016081C80170E00E94AD
:1035D000470B9C0197FD09C00894E11CF11C0F5F8B
:1035E0001F4FEC14FD042CF29601C901DF91CF911D
:1035F0001F910F91FF90EF90DF90CF90BF90AF9011
:1036000008956F927F928F929F92AF92BF92CF92C6
:10361000DF92EF92FF920F931F93DF93CF93CDB77B
:10362000DEB728970FB6F894DEBF0FBECDBF80E09F
:1036300090E0BE016F5F7F4F40E050E020E230E05D
:103640000E94C31784E090E0BE016B5F7F4F40E0B3
:1036500050E020E230E00E94C317A980BA80CB80FE
:10366000DC806D807E808F8098848091E7029091CD
:10367000E802A091E902B091EA0286219721A821EF
:10368000B9212091DF023091E0024091E102509196
:10369000E202822B932BA42BB52BEFEDF2E02091CD
:1036A000E3023091E4024091E5025091E6022A21C2
:1036B0003B214C215D2112910291F290E2902E2942
:1036C0003F29402B512BA094B094C094D094E0900B
:1036D000EB02F090EC020091ED021091EE02AE20B0
:1036E000BF20C022D1222A293B294C295D292083D1
:1036F000318342835383609470948094909420919A
:10370000EF023091F0024091F1025091F2026222F8
:1037100073228422952286299729A829B929809382
:10372000DF029093E002A093E102B093E2022896B8
:103730000FB6F894DEBF0FBECDBFCF91DF911F91C2
:103740000F91FF90EF90DF90CF90BF90AF909F9040
:103750008F907F906F900895CF92DF92EF92FF92BB
:103760000F931F93DF93CF93CDB7DEB728970FB694
:10377000F894DEBF0FBECDBF8B01D42EC52E0552EF
:103780001D4F2115310521F464E0E62EF12C03C014
:1037900051E0E52EF12CCE0101966BED72E048E090
:1037A00050E00E9470279601832F9C2DFC0180E041
:1037B00090E0D8012C9121931D928D0101968E15D8
:1037C0009F05BCF30E94011B89819A81AB81BC815A
:1037D0000097A105B10549F48D819E81AF81B8851F
:1037E0000097A105B10509F445C08091DB029091D5
:1037F000DC02A091DD02B091DE020097A105B105C7
:10380000C9F58091DF029091E002A091E102B091B0
:10381000E2020097A105B10569F586E998E68659A7
:10382000984643E0959587954A95E1F79093F8027D
:103830008093F7021092FA021092F90284EF96E058
:1038400067EF72E047E050E00E942A29009791F06C
:1038500000D000D080E394E6EDB7FEB79283818379
:103860008EEB91E0948383830E94A6250F900F90A6
:103870000F900F90C70128960FB6F894DEBF0FBEC9
:10388000CDBFCF91DF911F910F91FF90EF90DF900F
:10389000CF900895DC011496ED91FC91159720913D
:1038A000EB023091EC024091ED025091EE028091DA
:1038B000E3029091E402A091E502B091E602822B2E
:1038C000932BA42BB52B80959095A095B095208136
:1038D00031814281538182239323A423B5232091F4
:1038E000DB023091DC024091DD025091DE02822B3E
:1038F000932BA42BB52B8093DB029093DC02A09337
:10390000DD02B093DE0210821182128213822091B6
:10391000EF023091F0024091F1025091F202809159
:10392000E7029091E802A091E902B091EA02822BAD
:10393000932BA42BB52B80959095A095B0952481C1
:1039400035814681578182239323A423B523209177
:10395000DF023091E0024091E1025091E202822BBD
:10396000932BA42BB52B8093DF029093E002A093BE
:10397000E102B093E20214821582168217820E943D
:10398000011B86E998E68659984673E095958795D8
:103990007A95E1F79093F4028093F3028091DB0231
:1039A0009091DC02A091DD02B091DE020097A105AA
:1039B000B10589F421E030E08091DF029091E002CE
:1039C000A091E102B091E2020097A105B10529F4AE
:1039D00020E030E002C021E030E03093F602209396
:1039E000F50284EF96E063EF72E047E050E00E945A
:1039F0002A290895AF92BF92CF92DF92EF92FF9261
:103A00000F931F93CF93DF935B01E42EE7017E01B9
:103A1000F52EE7012115310521F4F4E0CF2ED12C4C
:103A200003C0E1E0CE2ED12CEE24FF2418828701C2
:103A30000A0D1B1DC8016BEF72E00E9488160097EB
:103A400019F0888182608883C80163E073E00E9476
:103A50008816009719F0888181608883C80163EE19
:103A600072E00E948816009719F08881846088832C
:103A7000C8016BEE72E00E948816009719F08881E9
:103A800088608883C8016BE073E00E948816009705
:103A900019F08881806888830894E11CF11CEC147B
:103AA000FD0414F42196C2CFC601DF91CF911F917E
:103AB0000F91FF90EF90DF90CF90BF90AF9008955F
:103AC00080917A00992787FD9095A92FB92F882793
:103AD000B7FD83959927AA27BB27FA018083918395
:103AE000A283B38380E090E00895FA018081918100
:103AF000A281B3810097A105B10531F00E949C0B12
:103B000080917A00806803C080917A008F778093DB
:103B10007A0080E090E00895AF92BF92CF92DF925A
:103B2000EF92FF920F931F93DF93CF93CDB7DEB742
:103B30002A970FB6F894DEBF0FBECDBF6B018A0186
:103B40007B0166E0F694E7946A95E1F755E0A52ECF
:103B5000B12CAC0EBD1EB701660F771F6E0D7F1D19
:103B6000660F771F6A547F49C50146E050E00E9406
:103B7000842F8FE3C822DD24E4E0CE16D10409F4BB
:103B800041C0F5E0CF16D10420F4C114D10459F09E
:103B900057C088E0C816D104D1F1ECE0CE16D104AC
:103BA00009F04EC03EC081E48983FAE0EF16F104CB
:103BB00030F0C7016AE070E00E94902F01C06E2DC6
:103BC000605D6A838AE0E816F10438F0C7016AE0B4
:103BD00070E00E94902F805D01C080E08B831C828A
:103BE000C801BE016F5F7F4F44E050E00E94702724
:103BF000F801808193819083838381819281918375
:103C000082831BC08D8190E0A0E0B0E004C08F8172
:103C10009885A985BA85F80180839183A283B383AF
:103C20000CC080917A0087FF0EC0C5010E94AF0BC7
:103C3000F801608371838283938320E030E005C0C4
:103C40002AEE3FEF02C023EF3FEFC9012A960FB6DD
:103C5000F894DEBF0FBECDBFCF91DF911F910F91C2
:103C6000FF90EF90DF90CF90BF90AF900895AF920C
:103C7000BF92CF92DF92EF92FF920F931F93DF9349
:103C8000CF93CDB7DEB7AD970FB6F894DEBF0FBEBA
:103C9000CDBF5B017A016B0196E0D694C7949A95EB
:103CA000E1F78DE290E0C89EB001C99E700DD89EEC
:103CB000700D11246A517F498E010F5F1F4FC8019B
:103CC0004DE250E00E94842FDA82C9828FE3A8225D
:103CD000BB24A0E1AA16B10469F1B4E1AB16B104AA
:103CE00089F1ECE0AE16B104C1F5D7018C9180FFEB
:103CF00006C0EA8DFB8DC80109958C0106C0EC8DCC
:103D0000FD8DC801099500E010E0E8A5F9A5309700
:103D100031F1D7014D915D916D917C9176956795CB
:103D2000579547954170507060707070CE01019644
:103D3000099515C0F7014081518162817381EAA123
:103D4000FBA107C0D7014D915D916D917C91ECA1D4
:103D5000FDA1C80109958C0102C00AEE1FEFC80140
:103D6000AD960FB6F894DEBF0FBECDBFCF91DF91F9
:103D70001F910F91FF90EF90DF90CF90BF90AF9089
:103D80000895AF92BF92CF92DF92EF92FF920F937E
:103D90001F93DF93CF93CDB7DEB7AD970FB6F894EF
:103DA000DEBF0FBECDBF5B018A016B0126E0D6945A
:103DB000C7942A95E1F78DE290E0C89EB001C99EB4
:103DC000700DD89E700D11246A517F497E010894B0
:103DD000E11CF11CC7014DE250E00E94842FC98212
:103DE000DA828FE3A822BB24E8E0AE16B10409F41E
:103DF0004FC0F9E0AF16B10448F4A114B104B1F01A
:103E000084E0A816B10409F07BC022C0E0E1AE1640
:103E1000B10409F468C0F4E1AF16B10409F466C056
:103E20008CE0A816B10409F06BC038C0C801BE010F
:103E30006D5F7F4F44E050E00E947027F801808161
:103E400093819083838381819281918382835BC0FC
:103E50008F819885A985BA85B070F8018083918398
:103E6000A283B3832AA13BA12115310529F0B160BA
:103E700080839183A283B3838CA19DA1009709F4D1
:103E800042C0F80180819181A281B381B26026C0D5
:103E90008B859C85AD85BE85F80120C0C6010E943A
:103EA0001C0D21E030E040E050E0009719F420E0E4
:103EB00030E0A901F8012083318342835383EEA1CE
:103EC000FFA1309701F1CE01019609950097D9F035
:103ED000F80180819181A281B38182608083918386
:103EE000A283B38310C0EE8DFF8D02C0E8A1F9A1BB
:103EF000C7010995F801608371838283938303C0AE
:103F00002AEE3FEF02C020E030E0C901AD960FB6C7
:103F1000F894DEBF0FBECDBFCF91DF911F910F91FF
:103F2000FF90EF90DF90CF90BF90AF90089580E02A
:103F300090E00895CF93DF93FC01C481D5818881FF
:103F400099818032910508F053C08A819B81009746
:103F500009F44EC083E393E060E070E040E150E09C
:103F60000E94A127409134034F7040614093340375
:103F70001092350328813981C90180529C4F880FE6
:103F8000991F880F991F8C7F9F7080933303892F0F
:103F90008F70407F482B4093340385E08093360335
:103FA00081E090E002C0880F991F2A95E2F7AA27C6
:103FB00097FDA095BA2F8093370390933803A09371
:103FC0003903B0933A0380EF96E063E373E047E090
:103FD00050E00E942A2997FF0BC000D081E795E6A8
:103FE000EDB7FEB7928381830E94A6250F900F90B4
:103FF000DF91CF9108954115510559F000D08AE81D
:1040000095E6EDB7FEB7928381830E94A6250F90B7
:104010000F900895519A009719F0599A5198089560
:1040200059980895509A009719F0589A5098089501
:104030005898089581E090E00E940A20089580E059
:1040400090E00E941220089581E090E00E941220EA
:104050008091AB079091AC07A091AD07B091AE07EE
:104060002091450330914603280F391F0DC08091E0
:10407000AB079091AC07A091AD07B091AE07A90135
:10408000481B590B57FD05C0489BF1CF20E030E09D
:1040900002C022E93FEFC90108950F931F93CF9308
:1040A000DF93C7E0D0E0082F10E0C8010C2E02C05B
:1040B000959587950A94E2F7817090700E940A2086
:1040C0000E94242097FD15C00E941F2021973FEFDA
:1040D000CF3FD30751F70E941A200E94242097FD5A
:1040E00008C009B10E941F2001FD06C020E030E099
:1040F00005C022E93FEF02C02FEF3FEFC901DF917A
:10410000CF911F910F9108958093D503882331F0AB
:10411000843021F021E030E0893011F420E030E0FB
:10412000C901089586EB98E68659984623E095954F
:1041300087952A95E1F79093D7038093D60381E082
:1041400090E09093D9038093D80384EF96E066EDD6
:1041500073E047E050E00E942A29009759F000D010
:1041600081E196E6EDB7FEB7928381830E94A62592
:104170000F900F9008951F93182F80E090E00E94F9
:104180000A200E94242081E090E00E940A201093DF
:104190004F03113011F08BE001C080E08093D50314
:1041A0000E9492201F910895AF92BF92CF92DF920A
:1041B000EF92FF920F931F93CF93DF93DC0114963E
:1041C0002C911497222349F0213009F079C11092E3
:1041D0004F0380E00E9484208BC15AEFE52EF12C22
:1041E00001E010E044E0B42E39E4C32E33E0D32ED6
:1041F000F0924603E0924503109344030093430377
:104200008091D503853009F488C0863050F4813020
:10421000E9F0813098F0823099F1833009F068C17B
:104220003AC0873009F4B1C0873008F4A5C088309F
:1042300009F4BDC08A3009F05BC13AC180E090E06A
:104240000E940A200E941F2081E018C1809149032A
:1042500090914A03009749F081E090E020914B0350
:1042600030914C032115310511F080E090E0209150
:104270004703822B0E944D2097FD1BC082E0FEC0A9
:1042800080914B0390914C03009779F110924E036B
:1042900010924D0340C0E091D403F0E0ED5BFC4F81
:1042A00086850E944D2097FF06C08091D30380939E
:1042B000D40380E8FEC080914D0390914E03019697
:1042C00090934E0380934D036091D4036F5F6F779B
:1042D0006093D40340914B0350914C032091D3033E
:1042E0008417950721F42093D40385E0C7C030E0FC
:1042F000261B31092F7730702115310561F4481BD9
:10430000590B141615060CF0F1C082E080934F0390
:104310000E949220EBC083E0B1C08091490390914C
:104320004A03009709F4C4C020914B0330914C0319
:104330002115310579F4BFEF8F3F9B0719F48FEFFB
:104340009FEF02C080E090E090934E0380934D0376
:1043500088E00BC00E941A200E94242080E090E098
:104360000E940A200E941F2086E00E948420109252
:104370004E0310924D03A0C08091470381600E94BC
:104380004D2097FD96CF87E079C0809149039091A9
:104390004A03EFEF8F3F9E0719F48FEF9FEF02C0A4
:1043A00080E090E090934E0380934D037DC00E9487
:1043B0001A20C0E0D0E0AA240E94242097FD0DC05E
:1043C000AA0C499B02C0F1E0AF2A80E090E00E9475
:1043D00012202196C830D10579F78091D10390E061
:1043E000FC01ED5BFC4FA68620914D0330914E03FE
:1043F0004FEF2F3F3407C9F42A2D30E08095909578
:104400004091D203840F911D8F779070821793078C
:1044100010F481E84EC010924E0310924D03A0920A
:104420004903D60111961C92119780914D039091EA
:104430004E03019690934E0380934D03C1E0D0E06C
:104440002091490330914A038217930711F0C0E08D
:10445000D0E0209721F480E090E00E940A200E94A2
:10446000242097FD02C00E941F208091D1038F5FFE
:104470008F778093D103209721F08AE00E948420D7
:104480001BC090E0809590952091D203820F911DE2
:104490008F7790708837910529F4B0924F030E946E
:1044A000922002C0009711F088E0E8CF89E0E6CFC3
:1044B00081E00E94BB201CC0009709F099CE18C073
:1044C00000D000D0EDB7FEB7319680E096E6ADB7EC
:1044D000BEB712969C938E931197228313820E94EB
:1044E000A6250F900F900F900F9002C084E0C6CFCA
:1044F000DF91CF911F910F91FF90EF90DF90CF90C0
:10450000BF90AF9008956F927F928F929F92AF92DB
:10451000BF92CF92DF92EF92FF920F931F93CF93B0
:10452000DF933C014B015A012115310521F0F8E0E0
:10453000CF2ED12C03C0E4E0CE2ED12CC0E0D0E0B1
:10454000FE01EC7FEA0DFB1DE080F180028113810A
:10455000F30180819181880D991D8C0F9D1F803101
:10456000910509F43EC08131910528F48830910508
:1045700009F03EC007C08431910599F18831910559
:10458000B9F51BC0C701907090934803809347030F
:10459000BB27A12F902F8F2D9F7090934C0380935A
:1045A0004B0364E116950795F794E7946A95D1F764
:1045B000F0924A03E092490314C0C70181709070E1
:1045C000009759F088EF96E060E070E047E050E037
:1045D0000E942A299C0197FD0DC08E2D8270809328
:1045E00050032496CC15DD0508F4AACF960102C02D
:1045F0002FEF3FEFC901DF91CF911F910F91FF90F6
:10460000EF90DF90CF90BF90AF909F908F907F9072
:104610006F9008952F923F924F925F926F927F9288
:104620008F929F92AF92BF92CF92DF92EF92FF92C2
:104630000F931F93DF93CF9300D000D0CDB7DEB799
:104640009A8389832B013A012115310519F008E07D
:1046500010E002C004E010E086EB98E68659984628
:10466000B3E095958795BA95E1F7382E292E1C82EF
:104670001B82A0E8CA2ED12CE12CF12CFAEDAF2E32
:10468000F3E0BF2EE7E28E2EE6E69E2EEB81FC8164
:10469000EC7FE60DF71DA981BA818D919C91119750
:1046A000840D951D2B813C81820F931F80319105D4
:1046B00009F4A7C08131910540F48830910591F04B
:1046C0008C30910509F0B1C035C08831910509F4ED
:1046D00098C08032910509F499C08431910509F0A0
:1046E000A4C08FC080914B0390914C03A0E0B0E038
:1046F000BA2FA92F982F88272091490330914A0378
:10470000442737FD4095542FA90133272227822BB8
:10471000932BA42BB52B209147033091480340E005
:1047200050E0822B932BA42BB52B80839183A28303
:10473000B38370C08091D10390E02091D203821B9B
:104740009109A0E0B0E08F779070A070B070BA2FA0
:10475000A92F982F882720914F0330E040E050E0A8
:10476000822B932BA42BB52B2091D30330E02095E3
:1047700030954091D403240F311D40E050E02F7755
:10478000307040705070A90133272227822B932B61
:10479000A42BB52B80839183A283B38380914F0395
:1047A0008823C1F13092DA03D50111962C92109230
:1047B000DD031092DC0384EF96E06AED73E047E0DE
:1047C00050E00E942A29009749F000D0EDB7FEB7CB
:1047D000928281820E94A6250F900F908091D5032E
:1047E0008430C1F08930B1F08330A1F0883091F08D
:1047F00088EF96E061E070E047E050E00E942A29EF
:1048000009C0108211821282138204C0C082D18238
:10481000E282F3822B813C812C5F3F4F3C832B83D0
:104820002017310708F432CF02C00FEF1FEFC80185
:104830000F900F900F900F90CF91DF911F910F91DC
:10484000FF90EF90DF90CF90BF90AF909F908F90B0
:104850007F906F905F904F903F902F90089588EFDA
:1048600096E060E070E047E050E00E942A29089559
:10487000AF92BF92CF92DF92EF92FF920F931F936E
:10488000CF93DF932115310519F0C8E0D0E002C0C5
:10489000C1E0D0E00091D10310E06091D20370E05C
:1048A0006801C61AD70A8FE7C822DD24CC16DD06B8
:1048B000F4F15A0180E890E0861B970B080F191F4E
:1048C0000F771070801791070CF48C01C017D10777
:1048D0000CF48E016F5A7C4FC501A8010E9470270D
:1048E0007E01E01AF10A1E141F048CF4E601C01BBD
:1048F000D10BEC16FD060CF4E701C501800F911FEA
:1049000061E573E0AE010E9470270C0F1D1F8091BE
:10491000D203800F8F778093D2038091D5038930A3
:1049200051F488E00E9484200E942F2404C01AEED3
:10493000E12E1FEFF12EC701DF91CF911F910F9153
:10494000FF90EF90DF90CF90BF90AF900895CF92FF
:10495000DF92EF92FF920F931F93CF93DF93211576
:10496000310521F098E0E92EF12C03C081E0E82E1A
:10497000F12C2091D403C22FD0E08091D30390E09A
:104980008C01009510950C0F1D1F0F7710700E15E0
:104990001F050CF456C02FE730E0281B390BC20F5F
:1049A000D31FCF77D0702C173D0714F4E90121965F
:1049B0006A01EC16FD060CF4E7018F5A9C4FB60114
:1049C000AE010E947027EC1AFD0A1E141F0484F425
:1049D0000C1B1D0BE016F1060CF48701B6016C0FE1
:1049E0007D1F81E593E0A8010E947027C00FD11FB1
:1049F0002091D3032C0F2F772093D3038091D503DD
:104A0000843019F530E08091D403281B31092F77C9
:104A1000307080914B0390914C0340914D03509125
:104A20004E03841B950B8937910510F088E790E0C1
:104A30002817390750F083E00E9484200E942F2419
:104A400004C00AEEE02E0FEFF02EC701DF91CF91E8
:104A50001F910F91FF90EF90DF90CF90089500008D
:104A60005353004B435349534F4D4F53494D00004F
:104A700038440000394400303144003131440030C2
:104A80004350003143500032435000334350003410
:104A9000435000354350000035440033314400009A
:104AA00033440000324431445852314458540000D9
:104AB0003444444C585400323144000036440030F1
:104AC000455000314550425748230033455000348B
:104AD0004550003545504B4853480037455000007D
:104AE000354100003441003246500033465000004A
:104AF00033410000324100003141000030410F934A
:104B00001F93CF93DF939C01AB01CEEDD3E0CE0199
:104B1000B9010E94B4258C01CE010E94FC27C80176
:104B2000DF91CF911F910F910895DF93CF93CDB770
:104B3000DEB79E01275F3F4F8D819E816F81788513
:104B4000A9010E94B425CF91DF910895DF93CF93FF
:104B5000CDB7DEB7FE01359681919191BF010E94DC
:104B60007F25CF91DF9108952F923F924F925F92D0
:104B70006F927F928F929F92AF92BF92CF92DF926D
:104B8000EF92FF920F931F93DF93CF93CDB7DEB7D2
:104B900062970FB6F894DEBF0FBECDBF1C014E0169
:104BA0000894811C911C8C01FB0106C1853229F5FA
:104BB00031E0A32EB12C20E2422E512C9AE0C92ED6
:104BC000D12C9501DA0103C080E3482E512C319697
:104BD0008491893609F466C08A36D8F4883509F498
:104BE00057C0893588F48A3261F18B3250F48823BA
:104BF00009F4E6C0853249F5AD01D8018D938D01E8
:104C0000DAC0803311F5E0CF833649F18436E9F418
:104C100049C08037E9F1813730F48E3609F4CAC0D3
:104C20008F3699F42EC08537E9F1883789F18337BB
:104C300061F4AD014E5F5F4F8D919C91BF01DA0130
:104C400019C0CD90DC9011971296982F91539930FE
:104C500008F0BDCF282F30E020533040B8CFAD0151
:104C60008C91D8018D938D014E5F5F4FA4C0F801E8
:104C700021938F01FC012191CF012223C1F7FB0178
:104C800099C05901AD01BAE0CB16D10439F00CC07E
:104C90005901AD0170E1C72ED12C06C068E0C62EC7
:104CA000D12C02C05901AD01CA0102969A8B898BA1
:104CB000DA018D919C91119797FF0BC0BAE0CB164A
:104CC000D10439F4909581959F4F31E0E32EF12C7A
:104CD00002C0EE24FF2421E1622E712C6C0E7D1E99
:104CE00020E130E0AF01F30138018A010BC021500F
:104CF0003040B6010E94902FDC01AA52BE4F8C9129
:104D00008293CB01009731F02115310581F7F8012D
:104D1000830109C0F80183012031310521F420E32A
:104D2000288B2FE030E0E114F10489F080E248168E
:104D3000510451F421503040D401A20FB31F9DE221
:104D40009C93EE24FF2403C081E0E82EF12CD401D3
:104D5000A20FB31F80E190E08A199B098E0D9F1D61
:104D600003C0215030404E9282179307D4F3E114D0
:104D7000F10439F021503040D401A20FB31F8DE26D
:104D80008C9340E150E0421B530BC401820F931FF0
:104D9000D8017F0106C0FC016191CF016D932F5FA7
:104DA0003F4F20313105BCF3F701040F151F49892E
:104DB0005A8901C0AD0131968491882309F0F6CE5D
:104DC0009801D8011C9222193309C90162960FB6C5
:104DD000F894DEBF0FBECDBFCF91DF911F910F9131
:104DE000FF90EF90DF90CF90BF90AF909F908F900B
:104DF0007F906F905F904F903F902F90089582E149
:104E000089BD09B400FEFDCF089584E085BD8AEF19
:104E100087BD81E080936E00089580EA8093D8007A
:104E2000089580E98093D800089581E88093D700A1
:104E30000895262F372FD901282F392FF9012D91C9
:104E400021932223E1F70895FC019F01419144231E
:104E5000E1F7281B390BC9010895462F572FFC0194
:104E60009F014115510529F0619141505040662341
:104E7000B9F7281B390BC9010895FC01DB018191A9
:104E80009D91891729F0891740F42FEF3FEF07C054
:104E90008823A9F720E030E002C021E030E0C9011A
:104EA0000895282F392FD901862F972FFC010DC087
:104EB0008D919191891729F0891758F42FEF3FEFC1
:104EC0000DC0882349F0415050404115510581F7EC
:104ED00003C021E030E002C020E030E0C9010895C5
:104EE000CF93DF939C01DC01FB01CB01822B932B41
:104EF00080FD1DC0DB01F901CA0105C0CD91DD9126
:104F0000C193D193029782309105C0F7FA01F695CB
:104F1000E795CF01880F991F481B590BFC01D90158
:104F2000A80FB91FE60FF71F02C081918D93415062
:104F300050408FEF4F3F5807C1F7C901DF91CF9124
:104F40000895EF92FF920F931F939C0120FD24C0C0
:104F5000CB01AA2797FDA095BA2F9070A070B070D2
:104F6000EE24F82E092F1A2FE82AF92A0A2B1B2BD8
:104F7000F901CA0103C0E192F192029782309105D2
:104F8000D0F7CA0196958795FC01EE0FFF1F4E1BC7
:104F90005F0BCF01820F931FFC0101C06193415051
:104FA00050408FEF4F3F5807C9F7C9011F910F912C
:104FB000FF90EF9008950895DF93CF9300D0CDB781
:104FC000DEB79A8389838A30910521F48DE090E0E1
:104FD0000E94DC278091810590918205009739F02D
:104FE000BE016F5F7F4F41E050E00E94BA070F9013
:104FF0000F90CF91DF910895EF92FF92CF93DF93BF
:10500000E82EE7017E01F92EE70103C090E00E943F
:10501000DC2789918823D1F780E090E0DF91CF9160
:10502000FF90EF900895CF93DF93C8E0D1E003C0E5
:10503000E991F991099581E0C631D807C8F3C8E034
:10504000D1E003C0E991F991099581E0C830D80712
:10505000C8F380E090E0DF91CF910895FC0160916A
:10506000AB077091AC078091AD079091AE076F5F71
:105070007F4F8F4F9F4F2091AB073091AC074091EE
:10508000AD075091AE07261737074807590799F71C
:105090002E2F3F2F02C02150304012161306DCF392
:1050A0002091AB073091AC074091AD075091AE070E
:1050B000261B370B480B590BC9010895CF92DF927D
:1050C000EF92FF920F931F93CF93DF9300E012E0D4
:1050D000C0E0D2E004C00C0F1D1FCC0FDD1FC801C3
:1050E0000E942E280097B9F3159507957E01F59437
:1050F000E794F594E79482E0C82ED12C0FC0E70125
:10510000C00FD11FCE010E942E28009709F0E801A0
:10511000C701B6010E94A42F7B018E01E114F104A6
:1051200071F7109343040093420480E090E0DF9114
:10513000CF911F910F91FF90EF90DF90CF90089546
:105140009C01E0914204F091430440E157E2E49F66
:10515000C001E59F900DF49F900D112460EA7FE05F
:105160000E94A42F06C0019718161906E4F32051D7
:10517000374287E22131380718F0862F972FF4CF76
:105180002E9FC0012F9F900D3E9F900D112460EA2D
:105190007FE00E94902F02C06150704016161706E3
:1051A000DCF30895EF92FF920F931F93CF93DF9359
:1051B000C4ECD6E08EE6E82E85E0F82E38C08CE709
:1051C00095E0BE0144E050E00E94842F00917C05F0
:1051D00010917D0524C084E795E0B80148E050E0D7
:1051E0000E94842F60917605709177058EE695E098
:1051F00046E050E00E94842FF0927705E092760519
:10520000D0937505C0937405E0916E05F0916F051C
:10521000309719F084E795E00995085F1F4F80915A
:105220007E0590917F0508171907A9F6249687E057
:10523000C830D80720F280E490E09093490480932E
:10524000480480E090E0DF91CF911F910F91FF9093
:10525000EF9008951F931FB7F894E0914404F091E4
:1052600045044091480450914904415050409F01E9
:1052700020953095A0914604B09147042A0F3B1F1A
:10528000242335232115310521F41FBF24EF3FEFDF
:1052900016C09F012F5F3F4F2423352330934504D1
:1052A000209344041FBFEE0FFF1FEE0FFF1FE65BAE
:1052B000FB4F738362839183808320E030E0C901D8
:1052C0001F910895EF92FF920F931F93CF93DF9357
:1052D0009C018B018CE595E0B90144E050E00E940F
:1052E000842FC0915C05D0915D0530E6E32E35E05A
:1052F000F32E23C086E695E0BE0148E050E00E9410
:10530000842F609168057091690580E695E046E01C
:1053100050E00E94842FF0926905E0926805109396
:105320006B0500936A05E0916205F0916305309783
:1053300019F086E695E00995289680915E05909192
:105340005F05C817D907B1F680E090E0DF91CF91F3
:105350001F910F91FF90EF90089520914804309194
:10536000490421503040809144049091450440917B
:10537000460450914704841B950B28233923C90107
:105380000895AF92BF92CF92DF92EF92FF920F9368
:105390001F93CF93DF930E94AD296C01EE24FF246D
:1053A0005AE4A52E55E0B52E58C0C0914604D091C0
:1053B0004704CC0FDD1FCC0FDD1FC65BDB4F6991AF
:1053C000799188E595E044E050E00E94842F0091B7
:1053D00058051091590526C080E595E0B80148E0D0
:1053E00050E00E94842F60915205709153058AE429
:1053F00095E046E050E00E94842FB0925305A092C1
:105400005205888199819093550580935405E091C8
:105410004C05F0914D05309719F080E595E0099520
:10542000085F1F4F80915A0590915B050817190777
:1054300099F680914804909149040197209146047F
:10544000309147042F5F3F4F82239323909347046B
:10545000809346040894E11CF11CEC14FD040CF448
:10546000A4CFDF91CF911F910F91FF90EF90DF902C
:10547000CF90BF90AF90089520E030E067E070E0FB
:1054800040E052E0FB01E21BF30BDA0102C0B595EC
:10549000A795EA95E2F7A817B9073CF42F5F3F4FAD
:1054A0002830310579F72FEF3FEFC9010895CF93E9
:1054B000DF93062E02C0959587950A94E2F78050F7
:1054C0009F4F48E050E0461B570B21E030E002C000
:1054D000220F331F4A95E2F7821B930BEFB7F89424
:1054E00060E270E00E94A42FEB01CC0FDD1FCC0F17
:1054F000DD1FC155D84F21E030E040E050E004C04E
:10550000220F331F441F551F8A95D2F720953095DF
:105510004095509588819981AA81BB8182239323EC
:10552000A423B52388839983AA83BB83EFBFDF912C
:10553000CF910895CF93DF93062E02C0959587955E
:105540000A94E2F780509F4F48E050E0461B570B0B
:1055500021E030E002C0220F331F4A95E2F7821BA0
:10556000930BEFB7F89460E270E00E94A42FEB0178
:10557000CC0FDD1FCC0FDD1FC155D84F21E030E02F
:1055800040E050E004C0220F331F441F551F8A958E
:10559000D2F788819981AA81BB81822B932BA42B7E
:1055A000B52B88839983AA83BB83EFBFDF91CF910B
:1055B0000895DF93CF9300D0CDB7DEB7FC01EE0F97
:1055C000FF1FEC53F94925913491C9010F900F90B9
:1055D000CF91DF9108954F925F926F927F928F9259
:1055E0009F92AF92BF92CF92DF92EF92FF920F9372
:1055F0001F93DF93CF93CDB7DEB764970FB6F894C0
:10560000DEBF0FBECDBF7C014B010E94D92A6C01C9
:105610005701AA0CBB1CB5016C527949CE01019609
:1056200042E050E00E94842F69817A818E010B5FF5
:105630001F4F980140E050E010C0FB01859195910B
:10564000A591B491F90180839183A283B3832C5FE8
:105650003F4F4F5F5F4F6C5F7F4F4C155D056CF3A5
:1056600088E090E08E199F0921E030E002C0220F0F
:10567000331F8A95E2F780E091E0821B930B60E292
:1056800070E00E94A42FFB01EE0FFF1FEE0FFF1F23
:10569000E155F84F60E070E072C041905190619028
:1056A0007190D8012D913D914D915D918D012421F5
:1056B000352146215721211531054105510509F4B0
:1056C0005CC0F501EC51F949859194918B839C83E1
:1056D000AB81BC81CA01B901807090706115710500
:1056E0008105910531F49A0144275527E1E1F0E065
:1056F00002C0E1E0F0E0222329F4232F342F452FCC
:1057000055273896CA01B9016F707070807090701B
:10571000611571058105910541F474E05695479531
:10572000379527957A95D1F73496CA01B9016370F8
:10573000707080709070611571058105910541F45C
:1057400062E056954795379527956A95D1F7329639
:1057500020FF3196A095B095AE0FBF1F02C0AA0FD3
:10576000BB1FEA94E2F7F401B183A083AA0FBB1F29
:10577000AA0FBB1FA755BA4F08C06F5F7F4F6C15AC
:105780007D050CF48ACFA0E0B0E0CD0164960FB6A1
:10579000F894DEBF0FBECDBFCF91DF911F910F9167
:1057A000FF90EF90DF90CF90BF90AF909F908F9041
:1057B0007F906F905F904F900895CF92DF92EF921D
:1057C000FF920F931F93DF93CF9300D0CDB7DEB737
:1057D0006C018B01CB01BE016F5F7F4F0E94EB2AF2
:1057E000009731F189819A81B8010E94572A780186
:1057F0000894E108F10889819A81B7010E949A2AE8
:1058000081E090E00E2C02C0880F991F0A94E2F705
:1058100029813A8182279327B7010E949A2A0C197D
:105820001D090230110524F0C601B7010E94DD2BCD
:105830000F900F90CF91DF911F910F91FF90EF90FC
:10584000DF90CF9008956F927F928F929F92AF9248
:10585000BF92CF92DF92EF92FF920F931F93CF935D
:10586000DF93EC01C95AD540CB010E943C2A8C0140
:1058700022E0C030D20720F000D081EA96E60CC0CA
:1058800001979E0102C0359527958A95E2F720FF82
:105890000CC000D08CE796E6EDB7FEB7928381830B
:1058A0000E94A6250F900F906AC07E01F594E794A0
:1058B000F594E794C701B8010E949A2AE8E0CE2E39
:1058C000D12CC01AD10A71E0A72EB12C60E2662E4D
:1058D000712C0730110509F452C0E501002E02C0F9
:1058E000CC0FDD1F0A94E2F74E018E249F24940111
:1058F000002E02C0359527950A94E2F720503F4FBD
:10590000C5010C2C02C0880F991F0A94E2F7281BCE
:10591000390B4FB7F894C901B3010E94A42F660F49
:10592000771F660F771F6155784FFB01808191814A
:10593000A281B3814FBF0894C108D1082F71307084
:1059400004C0B695A795979587952A95D2F781704B
:1059500090700097A1F0C095D095CE21DF21C701AE
:10596000B8010E94572AC401B8010E94572A0F5F4C
:105970001F4FCE01B8010E949A2A7E01AACFDF9163
:10598000CF911F910F91FF90EF90DF90CF90BF903C
:10599000AF909F908F907F906F90089580E090E0FF
:1059A00067E070E00E949A2A80E090E00895AF924C
:1059B000BF92CF92DF92EF92FF920F931F93DF93EC
:1059C000CF9300D0CDB7DEB70E943C2A8C018091E6
:1059D0008005882329F40E94CE2C81E080938005E5
:1059E00017FD1FC078015E010894A11CB11C07C0FF
:1059F0000894E11CF11CC801B7010E94DD2BC8010D
:105A0000B5010E94EB2A6C01009729F487E0E816A3
:105A1000F10474F308C089819A81B8010E94572A61
:105A200002C0CC24DD24C6010F900F90CF91DF91EE
:105A30001F910F91FF90EF90DF90CF90BF90AF90AC
:105A4000089500D083E897E6EDB7FEB7928381838F
:105A50000E94A6250F900F90089500D08EE897E63B
:105A6000EDB7FEB7928381830E94A6250F900F9019
:105A7000089500D086E398E6EDB7FEB79283818360
:105A80000E94A62585E098E6EDB7FEB79283818354
:105A90000E94A62585EA97E6EDB7FEB7928381833B
:105AA0000E94A6250F900F9080E090E0089500D00E
:105AB0008AE698E6EDB7FEB7928381830E94A62519
:105AC0000F900F90089500D08CE297E0EDB7FEB7ED
:105AD000928381830E94A6250F900F9080E090E032
