:1000000032C00000000000000000000000000000FE
:1000100000000000000000000000000000000000E0
:1000200000000000000000003DC000007EC0000095
:1000300000000000000000000000000000000000C0
:1000400000000000000000000000000000000000B0
:1000500000000000000000000000000048C2000096
:1000600000000000E9C111241FBECFEFDAE0CDBFD0
:10007000DEBFEBE0F3E406E4A0E0B1E0E33AF00732
:100080001CF425902D92FACFA0EAB4E00AE0A03249
:10009000B00714F41D92FBCF0E948F0C78940E943D
:1000A000DF06E1CF1F920F920FB60F9211248F93AC
:1000B0009F938091E1001092E100982F83FF13C07D
:1000C0001092E90081E08093EB001092EC0082E155
:1000D0008093ED0088E08093F0001092E50110928B
:1000E000E7011092E60192FF19C08091E501882393
:1000F00079F08091EF01882359F081508093EF01CE
:10010000882331F484E08093E9008AE38093E80057
:1001100083E08093E90084E08093F0009F918F91C9
:100120000F900FBE0F901F9018951F920F920FB651
:100130000F9211240F931F932F933F934F935F932D
:100140006F937F938F939F93AF93BF93EF93FF939F
:100150008091F40083FF14C083E08093E9008091D4
:10016000E80082FF08C082E794E061ED73E047E0B9
:1001700050E00E9402068091E800887F8093E800AA
:100180001092E9008091E80083FF40C14091F100A6
:100190003091F1008091F100682F70E02091F10022
:1001A000922F80E0682B792B8091F100A82FB0E08E
:1001B0002091F100922F80E0A82BB92B1091F10033
:1001C0000091F10082EF8093E800363009F05AC0C8
:1001D00021E330E4A90145505040F901379785915A
:1001E00094918617970701F5FA01859194918A17E2
:1001F0009B07D1F49A012E5F3F4FF90165917491ED
:100200002E5F3F4FF9014491212F30E0902F80E085
:10021000282B392B2F3F310519F010F02FEF30E04C
:10022000241758F4422F09C0295F3F4F495F5F4FA1
:10023000F0E42B353F0789F6E9C05EEF8091E800D6
:10024000282F30E0C90185709070892BB9F322FD09
:10025000E0C0342F413108F030E1232FCB0106C03C
:10026000FC010196E491E093F10021502223C1F7B3
:10027000630F711D431B5093E8004423F9F630319E
:10028000E9F2C7C0353061F48EEF8093E8008091C9
:10029000E80080FFFCCF862F80688093E300B9C020
:1002A000393061F5442309F0B1C06093E501109243
:1002B000E7011092E6011092EF018EEF8093E800C3
:1002C00084E590E421E02093E900FC010196E491AB
:1002D000E093EB00EE2369F0AC014F5F5F4FFC0150
:1002E00084918093EC00CA010196FA013491309315
:1002F000ED002F5F253039F78EE183C0383061F48F
:10030000403809F083C08091E80080FFFCCF8091E5
:10031000E5018093F10052C0313289F4413A09F08D
:1003200075C08091E80080FFFCCFE8EEF1E081919C
:100330008093F10081E0EF3EF807C9F73FC030320B
:10034000A1F4413209F062C08091E80082FFFCCF45
:10035000E8EEF1E08091F100819381E0EF3EF80753
:10036000C9F78BEF8093E80029C0323261F4413243
:1003700009F04CC07093E7016093E6018091E800BA
:1003800080FFFCCF1BC03323E9F48091E80080FF9D
:10039000FCCF423811F080E00DC0A093E9008091BD
:1003A000EB0090E025E0969587952A95E1F781701E
:1003B0001092E9008093F1001092F1008EEF80938B
:1003C000E80027C0313011F0333001F54230F1F44C
:1003D000672BE1F42A2F2F77822F81508430B0F4DD
:1003E0008EEF8093E8002093E900333079F089E1C3
:1003F0008093EB0081E090E002C0880F991F2A955E
:10040000E2F78093EA001092EA0003C081E2809351
:10041000EB00FF91EF91BF91AF919F918F917F91F1
:100420006F915F914F913F912F911F910F910F907D
:100430000FBE0F901F9018951F920F920FB60F923C
:1004400011242F933F934F935F936F937F938F93D9
:100450009F93AF93BF93EF93FF9320918A073091BF
:100460008B0760918C0770918D07C90180959095DD
:10047000860F971F8F739070892B31F481E090E085
:100480009093CF078093CE074091CE008091CE0706
:100490009091CF07892B61F4F901E857F84F468313
:1004A000C90101968F73907090938B0780938A0790
:1004B000261B370B2F733070232B41F48CE794E00D
:1004C00061ED73E047E050E00E940206FF91EF917A
:1004D000BF91AF919F918F917F916F915F914F915C
:1004E0003F912F910F900FBE0F901F9018951F9264
:1004F0000F920FB60F9211242F933F934F935F9358
:100500006F937F938F939F93AF93BF93EF93FF93DB
:100510008091100A9091110AA091120AB091130AC9
:100520000196A11DB11D8093100A9093110AA0930A
:10053000120AB093130A89EB93E060E070E047E0A1
:1005400050E00E94A91EFF91EF91BF91AF919F9142
:100550008F917F916F915F914F913F912F910F906C
:100560000FBE0F901F9018950000000007070707A7
:10057000000000000000070707070000070007074A
:100580000000000000000000070700000707070741
:10059000000000000000000000000000000000005B
:1005A000000000000000000000000000000000004B
:1005B0000000000000000000E62FF72FA82FB92F41
:1005C00003C0C89531960D9241505040D0F7089520
:1005D00089EB93E060E070E047E050E00E94A91EE4
:1005E000089583B7817F83BF83B7816083BF889578
:1005F00083B78E7F83BF089500D000D08AE191E059
:10060000EDB7FEB79283818383E491E09483838383
:100610000E94311B0F900F900F900F900E94F81EB8
:100620000E94F102FBCFBF92CF92DF92EF92FF9236
:100630000F931F93CF93DF938B019C016091A404D0
:100640007091A50484E0643A780709F475C0EB0161
:100650002697A885B985EE81FF81B383A283ED93A8
:10066000FC937F836E8379876887209709F464C041
:100670008091100A9091110AA091120AB091130A68
:10068000800F911FA21FB31F88839983AA83BB8306
:100690005D834C83BFB6F894E091A004F091A1046F
:1006A00084E0E03AF80729F473836283FF83EE83E2
:1006B0003BC0DF0124C0E880F9800A811B812D91B5
:1006C0003D914D915C911397C701821B930B97FF4E
:1006D0000AC02E193F09400B510B2D933D934D93AA
:1006E0005C93139717C0E21AF30A040B150BE88208
:1006F000F9820A831B8316960D90BC91A02D169744
:1007000086E0C82ED12CCA0EDB1E80EAC81684E013
:10071000D80689F61896ED91FC91199719967C9355
:100720006E931897DF82CE82F987E88771836083A2
:10073000BFBE20E030E002C024EF3FEFC901DF91EF
:10074000CF911F910F91FF90EF90DF90CF90BF90CE
:10075000089500D000D08FE491E0EDB7FEB792830A
:10076000818383E591E0948383830E94311B80EA37
:1007700094E09093A1048093A0049093A3048093A9
:10078000A20484EA94E09093A5048093A404909337
:10079000A7048093A604AEEAB4E040E050E00F90D6
:1007A0000F900F900F90782F692FCA01880F991F13
:1007B0009A01E3E0220F331FEA95E1F7820F931FBE
:1007C00082559B4FE091A604F091A7049093A70453
:1007D0008093A6047C9311966C9311971396FC93C7
:1007E000EE931297918380834F5F5F4F1A9640324A
:1007F0005105D9F680E090E00895CF92DF92EF9214
:10080000FF920F931F93CF93DF93C091A004D091D9
:10081000A10426970E811F8106501040B4EACB2E0A
:10082000B4E0DB2E4EC08091100A9091110AA09185
:10083000120AB091130A28813981821B930B97FD0C
:100840004BC06C817D818DEB93E047E050E00E94CE
:10085000A91EEE81FF8184E0E03AF807A9F03697FF
:100860002091100A3091110A4091120A5091130AF6
:1008700080819181A281B381820F931FA41FB51F34
:1008800080839183A283B383A885B985EE81FF819C
:10089000B383A283ED93FC93E091A404F091A504AB
:1008A000F382E282FF83EE83D986C886F092A504A4
:1008B000E092A404F80186819781E8018C0106503A
:1008C0001040A6E0EA2EF12CEC0EFD1EF0EAEF1629
:1008D000F4E0FF0609F0A7CFDF91CF911F910F91B0
:1008E000FF90EF90DF90CF900895CF93DF93FC01BE
:1008F000C481D581EA81FB818E819F8109959F8387
:100900008E8388859985AA85BB852C853D854E85F6
:100910005F85820F931FA41FB51F8C879D87AE87AD
:10092000BF872091100A3091110A4091120A50910C
:10093000130AB901681B790B77FD0CC02F5F3F4F7D
:100940004F4F5F4F2C873D874E875F872150304048
:10095000404050406C857D858E859F85621B730B62
:10096000840B950BAE010E941303DF91CF91089584
:10097000CF92DF92EF92FF920F931F93CF93DF936B
:10098000E090100AF090110A0091120A1091130AD7
:10099000C8E8D4E08BE6C82E81E0D82E18C000D07D
:1009A00000D0EDB7FEB7D282C1828881998194834D
:1009B00083830E94311BEC81FD810F900F900F907B
:1009C0000F90309719F08E819F8109956096F4E021
:1009D000C839DF0720F3C8E8D4E01DC06C857D85E9
:1009E0008E859F856E0D7F1D801F911F6C597F4FD7
:1009F0008F4F9F4F6C877D878E879F876E197F09EA
:100A0000800B910BAE010E94130397FF03C02FEFE1
:100A10003FEF07C0609684E0C839D807F8F220E0BD
:100A200030E0C901DF91CF911F910F91FF90EF90BE
:100A3000DF90CF900895DC011696ED91FC91179709
:100A4000309719F489E090E00FC012968C911297BC
:100A500080FF08C00280F381E02D0280F381E02D49
:100A6000309749F481E090E090930D0A80930C0A4E
:100A70002FEF3FEF10C0CD0109959C0197FD03C0FA
:100A800080E090E004C088279927821B930B909305
:100A90000D0A80930C0AC9010895DC011696ED91A8
:100AA000FC911797309719F489E090E00FC01296E7
:100AB0008C91129781FF08C00280F381E02D0480A1
:100AC000F581E02D309749F481E090E090930D0A94
:100AD00080930C0A2FEF3FEF10C0CD0109959C01C8
:100AE00097FD03C080E090E004C088279927821B0F
:100AF000930B90930D0A80930C0AC9010895DC01B1
:100B00001696ED91FC911797309719F489E090E0D3
:100B10000AC00280F381E02D0084F185E02D30973A
:100B200049F481E090E090930D0A80930C0A2FEF36
:100B30003FEF0FC009959C0197FD03C080E090E056
:100B400004C088279927821B930B90930D0A8093EA
:100B50000C0AC9010895CF93DF93FC01C481D581AC
:100B6000CE010896AA85BB85E885F985B383A28363
:100B7000ED93FC93998788879B878A87EE81FF8115
:100B80009F012A5F3F4F868197818217930751F417
:100B90000280F381E02D0680F781E02D309711F07F
:100BA000CE0109951F821E82DF91CF910895CF93C8
:100BB000DF93EC018E819F81892B49F489E090E0DD
:100BC00090930D0A80930C0A2FEF3FEF17C08A8194
:100BD0009B81019719F08DEC93E002C089EC93E0C2
:100BE000BE0147E050E00E94A91E89ED93E0BE01DE
:100BF00046E050E00E94A91E20E030E0C901DF91EC
:100C0000CF910895CF92DF92EF92FF920F931F93AF
:100C1000CF93DF93FC016B017A01668177816115C7
:100C20007105A1F0EB0128978C010A5F1F4F09C0E5
:100C3000C601BE01A7010E94A91E0884D985C02D46
:100C40002897CE0108960817190791F7DF91CF91E1
:100C50001F910F91FF90EF90DF90CF9008950F9329
:100C60001F93CF93DF938C01C8E6D4E00AC068815C
:100C70007981F801808191810E94DA1C892B39F0F9
:100C80002A96F4E0C638DF0790F3C0E0D0E0CE014A
:100C9000DF91CF911F910F910895EF92FF920F93E3
:100CA0001F93CF93DF93DC017B016115710529F060
:100CB000EEEEF5E020E030E017C086E190E019C0EC
:100CC000808191813C96892B69F4E901CC0FDD1F6D
:100CD000C20FD31FCC0FDD1FCC0FDD1FC851DA4F61
:100CE00079F405C02F5F3F4F2032310549F787E186
:100CF00090E090930D0A80930C0AC0E0D0E057C0BA
:100D0000B983A8835D834C83FB82EA82CE010E9473
:100D10002F068C01009729F41F821E8286E090E046
:100D2000E8CF9F838E83DC0116968D919C91179757
:100D3000892B51F4C801069617969C938E931697AB
:100D400019969C938E931897D8011296ED91FC9169
:100D500013970190F081E02D309739F0CE0109957D
:100D6000009719F01F821E82C4CFCE010896D801C9
:100D70001696ED91FC91179793838283F987E88704
:100D80000A5F1F4F1B870A8706501040F8019783A0
:100D90008683F1E0EF16F10419F085EC93E002C0D0
:100DA00081EC93E0BE0147E050E00E94A91ECE0115
:100DB000DF91CF911F910F91FF90EF90089580EDFB
:100DC00097E020E931E0F9013197F1F70197D9F780
:100DD0000E94FC0208958091690790916A070E9421
:100DE0001B0508958091690790916A070E944D053F
:100DF0000895EF92FF920F931F93DF93CF93CDB798
:100E0000DEB764970FB6F894DEBF0FBECDBFDC012E
:100E100014960D911C911597D8011696ED91FC91A1
:100E200017978681978136968E179F0709F4E2C03F
:100E30008091690790916A070817190741F080911E
:100E40000E0A90910F0A0817190709F0D3C0809174
:100E50006807882351F080910E0A90910F0A0817B5
:100E6000190719F0EE24FF240DC0C801BE016F5F01
:100E70007F4F44E150E00E941B057C0118161906C3
:100E80000CF0B8C080910E0A90910F0A081719074C
:100E900009F056C0A0916907B0916A0720E030E0E0
:100EA000AE014F5F5F4F3AC0FA01E20FF31F80813E
:100EB0008D3191F590E080916807813009F091E0E3
:100EC000909368071696ED91FC9117974081518198
:100ED000913019F021E831E002C02EE831E000D075
:100EE00000D000D0EDB7FEB7319684E991E0ADB700
:100EF000BEB712969C938E9311975383428335838A
:100F000024830E94311BEDB7FEB736960FB6F894D6
:100F1000FEBF0FBEEDBF07C02F5F3F4F2E153F0531
:100F200014F4109709F680916807813009F462C0C3
:100F30008091690790916A07009709F04CC05AC0E8
:100F400080916807882309F04DC020E030E0AE01B1
:100F50004F5F5F4F35C0FA01E20FF31F80818A3A7D
:100F600069F581E08093680700D000D000D0ADB76C
:100F7000BEB7119684E991E0EDB7FEB79283818305
:100F8000E0916907F0916A070680F781E02D808182
:100F9000918113969C938E9312978EE891E015960B
:100FA0009C938E9314970E94311B8DB79EB7069623
:100FB0000FB6F8949EBF0FBE8DBF05C02F5F3F4F89
:100FC0002E153F0544F280916807813099F0809199
:100FD0000A0A90910B0ABE016F5F7F4FA7010E9422
:100FE0004D0508C08DED93E060E070E047E050E013
:100FF0000E94A91E64960FB6F894DEBF0FBECDBF47
:10100000CF91DF911F910F91FF90EF900895809104
:10101000690790916A070E94D705089580EB91E0D7
:1010200063E070E040E050E00E944D0690936A0754
:1010300080936907892B19F42DEE3FEF04C01092BD
:10104000680720E030E0C90108951F93CF93DF9334
:10105000FC01162F8832910518F02AEE3FEF39C0B7
:1010600068E070E00E94C11F21E030E002C0220F62
:10107000331F8A95E2F7CF0168E070E00E94C11F3C
:10108000A62FB0E0822F8095ED01CF58D84F488130
:1010900048234883FD01EA58F84F908198239083B4
:1010A000FD01E558F84F50815823508310FF02C0CE
:1010B000422B488311FF05C0FD01EA58F84F922BDF
:1010C000908317FF04C0A558B84F522B5C9320E0C3
:1010D00030E0C901DF91CF911F9108952F923F9287
:1010E0004F925F926F927F928F929F92AF92BF9238
:1010F000CF92DF92EF92FF920F931F93DF93CF93E4
:1011000000D000D000D0CDB7DEB790906B07BCE622
:10111000AB2EB7E0BB2E20E030E040E050E0EE2404
:10112000FF24A3E2CA2ED12CF1E02F2E312C412C2A
:10113000512C89010F5F1F4FD6018C90892D90E0B3
:10114000022E02C0959587950A94E2F780FD09C0AA
:1011500081E090E002C0880F991F2A95E2F7982A53
:101160008EC0F5017081F82DF727F983F801E65854
:10117000F84F20812A831E821D8261E0C8018059B8
:10118000984F9C838B83E5E76E2EE7E07E2E600E02
:10119000711E8A81862309F469C08981862309F436
:1011A00065C0AB81BC818C91862371F1862F87232A
:1011B00059F58D819E818E0D9F1DFC0155E0F595A1
:1011C000E7955A95E1F7EE0FFF1FEE0FFF1FE0586E
:1011D000F84F8F719070A201910104C0220F331F4C
:1011E000441F551F8A95D2F7DA01C9012081318148
:1011F00042815381282B392B4A2B5B2B208331834F
:101200004283538341E050E0D3018C91862371F1F6
:10121000862F872359F18D819E818E0D9F1DFC01A4
:1012200035E0F595E7953A95E1F7EE0FFF1FEE0FE4
:10123000FF1FE058F84F8F719070A201910104C018
:10124000220F331F441F551F8A95D2F7DA01C901B7
:101250002081318142815381282B392B4A2B5B2BF2
:10126000208331834283538341E050E08D819E810E
:1012700001969E838D83089711F0660F8ACFD50162
:101280008D925D01E8E0F0E0EE0EFF1E23E030E01D
:10129000C20ED31E0530110511F098014ACF90926D
:1012A0006B07452B41F081EE93E060E877E047E083
:1012B00050E00E94A91E26960FB6F894DEBF0FBE1E
:1012C000CDBFCF91DF911F910F91FF90EF90DF90F5
:1012D000CF90BF90AF909F908F907F906F905F90D6
:1012E0004F903F902F9008958091E50190E00895F0
:1012F0008091E6019091E701089581E08093D70005
:1013000080EA8093D80082E189BD09B400FEFDCF58
:1013100080E98093D8001092E0001092E5011092CD
:10132000E7011092E6018CE08093E2008091E100F9
:1013300090E083709070892BC9F380E090E008956D
:1013400080E090E00895EF92FF920F931F937A014F
:101350008091E501882319F4A5EFBFEF33C01FB7D3
:10136000F89483E08093E9008091F200A0E0B0E07F
:10137000482F50E003E011C00093E9008091E8009D
:1013800085FD02C01FBF11C00093E9008091F100EC
:10139000FB01EA0FFB1F8083119697014E155F0535
:1013A0000CF49A01A217B3073CF383E08093E900A1
:1013B0008091F200882329F48091E8008F77809350
:1013C000E8001FBFCD011F910F91FF90EF9008958E
:1013D000CF93DF93EC018091E501882309F41EC1CE
:1013E0009FB7F89484E08093E9008091F00188230E
:1013F00041F08091E80085FD02C09FBF17C01092A8
:10140000F001392FB4E040E45AE3A5E000C1909127
:10141000E400975E8091E80085FD15C03FBF809194
:10142000E400891731F481E08093F0012BEF3FEF66
:10143000F7C08091E501882309F4F0C03FB7F89424
:10144000B093E900E7CF8091F200242F281B822F70
:1014500090E06817790708F4262F822F90E08134F6
:10146000910508F0C6C08C52904EFC01EE0FFF1F94
:101470000590F491E02D099489918093F100899170
:101480008093F10089918093F10089918093F1001C
:1014900089918093F10089918093F10089918093E3
:1014A000F10089918093F10089918093F1008991F5
:1014B0008093F10089918093F10089918093F100EC
:1014C00089918093F10089918093F10089918093B3
:1014D000F10089918093F10089918093F1008991C5
:1014E0008093F10089918093F10089918093F100BC
:1014F00089918093F10089918093F1008991809383
:10150000F10089918093F10089918093F100899194
:101510008093F10089918093F10089918093F1008B
:1015200089918093F10089918093F1008991809352
:10153000F10089918093F10089918093F100899164
:101540008093F10089918093F10089918093F1005B
:1015500089918093F10089918093F1008991809322
:10156000F10089918093F10089918093F100899134
:101570008093F10089918093F10089918093F1002B
:1015800089918093F10089918093F10089918093F2
:10159000F10089918093F10089918093F100899104
:1015A0008093F10089918093F10089918093F100FB
:1015B00089918093F10089918093F10089918093C2
:1015C000F10089918093F10089918093F1008991D4
:1015D0008093F10089918093F10089918093F100CB
:1015E00089918093F10089918093F1008991809392
:1015F000F10089918093F1008091E80085FD02C09F
:101600005093E800621B7109A093EF013FBF611581
:10161000710509F0FCCE20E030E002C025EF3FEF7D
:10162000C901DF91CF910895CF93DF93EA0141156E
:10163000510559F48091E501882381F08091E601FC
:101640009091E70180FD0CC009C0CB01BA010E9456
:10165000E809892B29F0CFEFDFEF02C0C5EFDFEFFC
:10166000CE01DF91CF910895E2EEF0E08081877F97
:101670008083089587E090E09093CD008093CC0024
:1016800010928D0710928C0710928B0710928A0788
:1016900088E98093C90080E090E0089580E090E0C0
:1016A000089520E030E00CC0FB01E20FF31FE08161
:1016B0008091C80085FFFCCFE093CE002F5F3F4FA5
:1016C000241735078CF3CA010895E9ECF0E0808116
:1016D000877680830895CF93DF93CB0160918C0749
:1016E00070918D0720E430E0261B370BC0918A07EC
:1016F000D0918B07C20FD31FCF73D0704C175D07EB
:101700000CF4EA012C173D070CF4E901209719F4B9
:10171000C5EFDFEF27C06257784FAE010E940A1D68
:1017200020918C0730918D072C0F3D1F2F73307047
:1017300030938D0720938C071092CF071092CE071D
:1017400080918A0790918B07821B930B8F73907007
:10175000892B41F08CE794E061ED73E047E050E0C5
:101760000E940206CE01DF91CF910895ECE7F0E0F0
:1017700080818F738083808180648083EAE7F0E0DA
:1017800080818760808380818F7780838FEF8093D3
:101790007E0080937D0080E090E00895DF92EF92DC
:1017A000FF920F931F93BC018830910508F046C04B
:1017B000E090D007F090D1070091D2071091D307A5
:1017C000E1E0F0E002C0EE0FFF1F8A95E2F79F0113
:1017D000442737FD4095542FDA01C9018E219F21FE
:1017E000A023B1230097A105B10541F52E293F297A
:1017F000402B512B2093D0073093D1074093D20731
:101800005093D3079B01220F331F260F371F220F40
:10181000331F2D503F4BA1F090917E008E2F80956D
:10182000892380937E0080917C00807E80937C0061
:1018300080917C00862B80937C0002C020E030E009
:10184000C9011F910F91FF90EF90DF900895CF9302
:10185000DF93835F9044959587952BEA3AEA829FC0
:10186000B001839F700D929F700D1124E1E0F0E0B4
:10187000EF01062E02C0CC0FDD1F0A94E2F79E0195
:1018800020953095442737FD4095542F8091D007FF
:101890009091D107A091D207B091D30782239323CF
:1018A000A423B5238093D0079093D107A093D207A8
:1018B000B093D3076830710534F480917E008C2B8F
:1018C00080937E000CC020917D00CB01089702C060
:1018D000EE0FFF1F8A95E2F72E2B20937D00DF91FC
:1018E000CF91089580917A00806480937A008091EE
:1018F0007A0086FDFCCF8091780090E0A0E0B0E017
:1019000060917900362F20E0442737FD4095542F11
:10191000282B392B4A2B5B2BB901CA010895E1E62C
:10192000F0E080E8808310820E94A01C0E94341E98
:101930000E94B41D80E090E008950F931F930EE085
:1019400012E0C80162E070E040E050E00E944D0605
:1019500090930B0A80930A0AC80161E070E040E0AE
:1019600050E00E944D0690930F0A80930E0A80E08B
:1019700090E01F910F910895CF93DF93EA01FC014E
:1019800044815581FA01E60FF71F85919591A59144
:10199000B49188839983AA83BB83232B19F424E011
:1019A00030E00EC0FB013496E40FF51F8591959150
:1019B000A591B4918C839D83AE83BF8328E030E0F2
:1019C000C901DF91CF910895CF93DF93EA01DC0144
:1019D0001696ED91FC911797E60FF71F8881998174
:1019E000AA81BB8180839183A283B383232B19F4C3
:1019F00024E030E00AC08C819D81AE81BF81848368
:101A00009583A683B78328E030E0C901DF91CF91A9
:101A10000895EF92FF920F931F93CF93DF938C0162
:101A2000DC0113968C9185FD03C060E270E002C07A
:101A300061E270E086FD03C047E152E002C04AE186
:101A400052E087FD03C020E230E002C02BE230E02C
:101A5000EDB7FEB738970FB6F894FEBF0FBEEDBFD7
:101A600031968DE192E0ADB7BEB712969C938E93FE
:101A700011977383628355834483378326830E943F
:101A8000311BF8019281692F629566956770592F15
:101A900056955F70818182958F70492F4170429574
:101AA000407F482B8DB79EB708960FB6F8949EBF1F
:101AB0000FBE8DBF838190E0877090708330910559
:101AC00009F1843091054CF48130910591F0823018
:101AD0009105ACF4892B81F024C085309105C1F0CB
:101AE0008530910594F086309105A9F00797C9F4E7
:101AF00015C025E232E017C029E232E014C02DE221
:101B000032E011C021E332E00EC025E332E00BC029
:101B10002AE332E008C02FE332E005C023E432E0DC
:101B200002C027E432E0ADB7BEB71C970FB6F894F9
:101B3000BEBF0FBEADBFEDB7FEB731968FE492E0EA
:101B400012969C938E93119762831382548315820D
:101B50004683178231872087D8019C9111968C91FA
:101B60008F70928783870E94311BEDB7FEB73A963C
:101B70000FB6F894FEBF0FBEEDBF86E692E09283EB
:101B800081830E94311BE80124960F900F900C5E18
:101B90001F4F8BE6E82E82E0F82E14C000D000D054
:101BA000EDB7FEB73196ADB7BEB71296FC92EE9286
:101BB00011978991828313820E94311B0F900F909D
:101BC0000F900F90C017D10749F700D083E792E03C
:101BD000EDB7FEB7928381830E94311B0F900F9067
:101BE000DF91CF911F910F91FF90EF900895EF92A9
:101BF000FF920F931F938C01FB01E680F78084E036
:101C000090E0E80EF91EC7010E94090DF8018281DB
:101C10009381B70140E150E00E944D0597FF0BC052
:101C200000D085E792E0EDB7FEB7928381830E94F2
:101C3000311B0F900F901F910F91FF90EF9008951F
:101C4000FC0164817581868197810E94F70D08955A
:101C5000CF93DF93EC01009719F42AE832E002C039
:101C60002FE832E000D000D085E992E0EDB7FEB772
:101C700092838183348323830E94311B0F900F90C2
:101C80000F900F90CE01DF91CF910895CF93DF9306
:101C9000EC01009719F42FEF3FEF3AC08FE992E083
:101CA00061E070E0AE010E944D06009721F4809142
:101CB0000E0A90910F0A99838883892B21F400D012
:101CC0008CEA92E01BC08FE992E062E070E0AE0126
:101CD0000E944D069B838A83892B31F480910A0AE6
:101CE00090910B0A9B838A838A819B81892B19F0AF
:101CF00020E030E00DC000D080EC92E0EDB7FEB700
:101D0000928381830E94311B2FEF3FEF0F900F9042
:101D1000C901DF91CF91089523E46B30720718F069
:101D20000E940A1D08950E94DC0208958F929F92DE
:101D3000AF92BF92CF92DF92EF92FF920F931F93D9
:101D4000DF93CF93CDB7DEB7A2970FB6F894DEBF7F
:101D50000FBECDBFDC0116960D911C911797F801AF
:101D6000C080D18054E0E52EF12CE00EF11E848974
:101D70009589B701680F791F40E150E0481B590B66
:101D8000C6010E941B059C0118161906CCF000978D
:101D900099F4C6010E94D7058FE992E061E070E0F6
:101DA000A8010E944D06009721F480910E0A90919F
:101DB0000F0AD8018D939C93F801158A148A3BC1B0
:101DC000D80154968D919C915597820F931F5596EB
:101DD0009C938E935497409708F42DC155961C926E
:101DE0001E925497C7010E94090DF8016681862F43
:101DF00086958F70813009F01EC1858182958F7024
:101E000061706295607F682B70E043E0660F771F1A
:101E10004A95E1F765517D4BF3E46B307F0768F439
:101E2000CE01019648E050E00E94DC02D8011796EE
:101E30008C9190E086FDFFC010C08DEE9FEFAFEF5C
:101E4000BFEFF80180879187A287B387878180627F
:101E5000878382819381B701EAC08F7190709595D5
:101E6000879521E0A22EB12C02C0AA0CBB1C8A953A
:101E7000E2F7CC24DD24EE24FF2499E0892E912C76
:101E80008C0E9D1E2CC06B817C816E0D7F1DC4014C
:101E90004AE050E00E94DC02EB85FC85659174917C
:101EA00049855A85D80114962C91149715968C91D2
:101EB000382F3F702417350758F0215030402A0D35
:101EC0003B1D41505040460F571F421753076CF4BB
:101ED0000894C11CD11CEAE0F0E0EE0EFF1E8981DF
:101EE0009A81C816D9067CF28EC0D80117968C91BB
:101EF000A82EBB24B0E8AB22BB2469897A8961157E
:101F0000710519F4EE24FF2420C0CE014396E3E4CA
:101F10006B307E0740F0DC01FB0180E101900D9207
:101F20008150E1F704C040E150E00E948C0ED801DE
:101F300017968C9190E0FE01319680FD09C08E715C
:101F40009070E80FF91FE288F388CC24DD2409C0E3
:101F500001978E719070E80FF91FC28CD38CEE241C
:101F6000FF24EF81F8853496D801149680E10D9016
:101F700001928150E1F7EF81F88587818064878342
:101F8000E114F104A1F0D80114966C911497159600
:101F90008C91782F7F7089859A85681B790B38968C
:101FA000CE010996AF019501F701099517C0C1143B
:101FB000D10419F42FEF3FEF14C0F801648185813B
:101FC000782F7F7089859A85681B790BA801485FF7
:101FD0005F4FCE0109969501F60109959C0197FF87
:101FE0000BC0EF81F88588279927821B930BAA27BE
:101FF00097FDA095BA2F0DC0C801BE016F5F7F4F3E
:102000000E94F70D18C0EF81F88586E190E0A0E00E
:10201000B0E080879187A287B387878180628783BA
:102020003496D80112968D919C911397BF0140E18F
:1020300050E00E944D05A2960FB6F894DEBF0FBE89
:10204000CDBFCF91DF911F910F91FF90EF90DF9067
:10205000CF90BF90AF909F908F9008950F931F9354
:10206000CF93DF93DB01EC016C817D81232B61F445
:102070009B012A0F3B1FF90185919491EA019983F5
:10208000888322E030E009C06A0F7B1FCA0148E064
:1020900050E00E948C0E28E030E0C901DF91CF9122
:1020A0001F910F9108950F931F93CF93DF93DB013F
:1020B0008A01EC016C817D81232B91F49B012A0F15
:1020C0003B1FE3E42B303E0720F0F9018491EA0145
:1020D0008883F9018081E801888321E030E009C02C
:1020E0006A0F7B1FCA0148E050E00E948C0E28E076
:1020F00030E0C901DF91CF911F910F910895FC014C
:1021000086819781860F971FBA0148E050E00E94B0
:102110000A1D88E090E00895CF93DF93FA01EC0167
:10212000AE81BF81232B49F4A60FB71F8081918117
:102130008D939C9322E030E00AC0CD01860F971F5B
:10214000BA0148E050E00E940A1D28E030E0C901D1
:10215000DF91CF910895CF93DF93FA01EC01AE8127
:10216000BF81232B39F4A60FB71F80818C9321E008
:1021700030E00AC0CD01860F971FBA0148E050E059
:102180000E940A1D28E030E0C901DF91CF91089537
:10219000FC0124813581260F371FCA01B90148E0AF
:1021A00050E00E940A1D88E090E008959C01FB0128
:1021B00068E070E00E94C11F482FC90168E070E02C
:1021C0000E94C11F6F5F7F4FDB01AA0FBB1FA60FCD
:1021D000B71FEF2B61F092962C91929781E090E0DF
:1021E00002C0880F991F4A95E2F7282B0CC09296DF
:1021F0002C91929781E090E002C0880F991F4A9538
:10220000E2F78095282392962C9308959C01FB0178
:1022100068E070E00E94C11F482FC90168E070E0CB
:102220000E94C11F6F5F7F4FDB01AA0FBB1FA60F6C
:10223000B71FEF2B61F092962C91929781E090E07E
:1022400002C0880F991F4A95E2F7282B0CC092967E
:102250002C91929781E090E002C0880F991F4A95D7
:10226000E2F78095282392962C9308959C0168E0CC
:1022700070E00E94C11F6F5F7F4FFB01EE0FFF1FD9
:10228000E60FF71F40A1E0E0F0E0C90168E070E070
:102290000E94C11F21E030E002C0220F331F8A9547
:1022A000E2F7422311F0E1E0F0E0CF0108959C0154
:1022B000FB0160E270E00E94C11F660F771F660F8E
:1022C000771FE60FF71FC90160E270E00E94C11F8F
:1022D00021E030E040E050E004C0220F331F441FF3
:1022E000551F8A95D2F780819181A281B381822B7B
:1022F000932BA42BB52B80839183A283B383089562
:102300002F923F924F925F926F927F928F929F9205
:10231000AF92BF92CF92DF92EF92FF920F931F93F3
:10232000DF93CF93CDB7DEB728970FB6F894DEBF13
:102330000FBECDBF5B015C834B83680183E0AA0CB9
:10234000BB1C8A95E1F7232B29F048E050E05A8323
:10235000498302C01A830983222433248DC0C1011A
:1023600068E070E00E94C11F9B0158E0C516D104CF
:1023700049F1C10160E170E00E94C11F4B01880C6E
:10238000991C8B819C81880E991EC10160E270E0CE
:102390000E94C11FDB01AA0FBB1FAA0FBB1FEB814D
:1023A000FC81AE0FBF1FB887AF8325016624772459
:1023B000B1E0EB2EF12C012D112DE20FF31FFE8366
:1023C000ED8353C0EB81FC81E60FF71F4081C5010F
:1023D00087709070892B69F6C50168E070E00E94F3
:1023E000C11F6F5F7F4FFB01EE0FFF1FE60FF71F4F
:1023F00042A33EC0F0E1CF16D10491F040E2C416F2
:10240000D104A1F058E0C516D10429F08AEE9FEF5F
:102410009A83898337C0AD81BE818C9190E003C0DF
:10242000F40180819181A0E0B0E006C0EF81F885E1
:1024300080819181A281B38160E070E08E219F2133
:10244000A023B1230097A105B10511F061E070E070
:10245000C2010E94D6100894611C711CEE0CFF1C76
:10246000001F111F0894411C511C6C147D0414F2B0
:102470002C0C3D1CAC0CBD1C49815A812416350620
:102480000CF46DCF89819A8128960FB6F894DEBF3F
:102490000FBECDBFCF91DF911F910F91FF90EF90B5
:1024A000DF90CF90BF90AF909F908F907F906F9074
:1024B0005F904F903F902F9008950F931F9308E0E7
:1024C00010E00E9480111F910F9108950F931F93A8
:1024D00000E110E00E9480111F910F9108950F9369
:1024E0001F9300E210E00E9480111F910F91089548
:1024F0008FEF9FEF08952F923F924F925F926F92CE
:102500007F928F929F92AF92BF92CF92DF92EF9283
:10251000FF920F931F93DF93CF9300D000D0CDB7DE
:10252000DEB73B015A834983480163E0660C771CA0
:102530006A95E1F7232B21F058E0252E312C01C0BC
:102540001801442455249EC0C20168E070E00E9436
:10255000C11F6B0129813A81260F371F80E1881640
:102560009104F1F090E289169104F9F0A8E08A163E
:10257000910421F5C30187709070892B11F08AEEC8
:102580000DC0C30168E070E00E94C11F6F5F7F4F04
:10259000FB01EE0FFF1FE60FF71F80A1F9018083FB
:1025A000EAEDFFEFD901ED93FC938AED9FEFAFEFDA
:1025B000BFEFF90180839183A283B38353011C820F
:1025C0001B82EE24FF2487011BC0C5010E94361127
:1025D000AA2797FDA095BA2F0B8004C0880F991FDA
:1025E000AA1FBB1F0A94D2F7E82AF92A0A2B1B2B31
:1025F0008B819C8101969C838B830894A11CB11CC8
:10260000AB81BC81A815B90504F3B0E18B16910428
:10261000A1F0E0E28E169104F9F0F8E08F16910433
:1026200029F03AEE232E3FEF332E30C089819A8174
:10263000C80ED91ED601EC9221C0C20160E170E043
:102640000E94C11FFB01EE0FFF1F89819A81E80FD5
:10265000F91FF182E08212C0C20160E270E00E94C4
:10266000C11FFB01EE0FFF1FEE0FFF1FA981BA81F3
:10267000EA0FFB1FE082F18202831383480C591C8E
:10268000680C791C421453040CF45ECFC1010F9006
:102690000F900F900F90CF91DF911F910F91FF90AE
:1026A000EF90DF90CF90BF90AF909F908F907F90F2
:1026B0006F905F904F903F902F9008950F931F93CE
:1026C00008E010E00E947B121F910F9108950F9374
:1026D0001F9300E110E00E947B121F910F9108955B
:1026E0000F931F9300E210E00E947B121F910F9145
:1026F00008958FEF9FEF08952F923F924F925F9230
:102700006F927F928F929F92AF92BF92CF92DF9201
:10271000EF92FF920F931F93DF93CF93CDB7DEB766
:1027200028970FB6F894DEBF0FBECDBF3C012B013A
:102730001A016901902E812E2115310521F078E2D0
:10274000E72EF12C04C0802F912F9C017901C30149
:10275000B2015E010894A11CB11CA5019601092DCE
:10276000182D0E947B1297FF03C02FEF3FEF21C06F
:10277000C70168E070E00E94C11F9B01D50140E0E5
:1027800050E009C0F101E40FF51F8C919081892B75
:102790008D934F5F5F4F42175307A4F3C301B201FC
:1027A000AE014F5F5F4F292D382D86010E948011A9
:1027B0009C01C90128960FB6F894DEBF0FBECDBFAD
:1027C000CF91DF911F910F91FF90EF90DF90CF900D
:1027D000BF90AF909F908F907F906F905F904F9041
:1027E0003F902F9008950F931F9308E010E00E94F0
:1027F00080111F910F9108950F931F9300E110E036
:102800000E947C131F910F9108950F931F9300E274
:1028100010E00E947C131F910F9108958FEF9FEF9E
:1028200008952F923F924F925F926F927F928F9274
:102830009F92AF92BF92CF92DF92EF92FF920F934F
:102840001F93DF93CF93CDB7DEB728970FB6F894D9
:10285000DEBF0FBECDBF3C012B011A016901902ED6
:10286000812E2115310521F0E8E2EE2EF12C04C075
:10287000802F912F9C017901C301B2015E01089460
:10288000A11CB11CA5019601092D182D0E947B12D7
:1028900097FF03C02FEF3FEF21C0C70168E070E052
:1028A0000E94C11F9B01D50140E050E009C0F10129
:1028B000E40FF51F8C919081892B8D934F5F5F4FB3
:1028C00042175307A4F3C301B201AE014F5F5F4F3C
:1028D000292D382D86010E9480119C01C90128965E
:1028E0000FB6F894DEBF0FBECDBFCF91DF911F9121
:1028F0000F91FF90EF90DF90CF90BF90AF909F909F
:102900008F907F906F905F904F903F902F900895A1
:102910000F931F9308E010E00E9480111F910F9108
:1029200008950F931F9300E110E00E9411141F916E
:102930000F9108950F931F9300E210E00E9411146D
:102940001F910F9108958FEF9FEF08952F923F925F
:102950004F925F926F927F929F92AF92BF92CF926F
:10296000DF92EF92FF920F931F93CF93DF931B01A0
:102970002A01232B21F0B8E0CB2ED12C06C0C801B0
:1029800068E070E00E94C11F6B01EE24FF24A1E00B
:102990006A2E712C43C0F201EE0DFF1D8081A82E1E
:1029A000BB24C50183709070039719F42AEE3FEFA2
:1029B0003AC08701020D131DC8010E9436119C0107
:1029C000C80168E070E00E94C11F982EC80168E04D
:1029D00070E00E94C11F6F5F7F4FEB01CC0FDD1FC6
:1029E000C60FD71FC801B9010E94D610A1FE09C0A9
:1029F00029A1C30102C0880F991F9A94E2F7282BDE
:102A000009C029A1C30102C0880F991F9A94E2F757
:102A10008095282329A30894E11CF11CEC14FD04E3
:102A20000CF4B9CF9601C901DF91CF911F910F919D
:102A3000FF90EF90DF90CF90BF90AF909F907F90EE
:102A40006F905F904F903F902F9008950F931F933A
:102A500008E010E00E94A6141F910F9108950F93B3
:102A60001F9300E110E00E94A6141F910F9108959A
:102A70000F931F9300E210E00E94A6141F910F9184
:102A800008958FEF9FEF0895AF92BF92CF92DF929C
:102A9000EF92FF920F931F93CF93DF935B016A0135
:102AA000232B21F091E0E92EF12C06C0C80168E04B
:102AB00070E00E94C11F7B01C0E0D0E025C08E0104
:102AC0000A0D1B1DC80168E070E00E94C11F6F5F06
:102AD0007F4FFB01EE0FFF1FE60FF71F21A130E034
:102AE000C80168E070E00E94C11F02C035952795BB
:102AF0008A95E2F720FD02C081E001C082E0F60184
:102B0000EC0FFD1F80832196CE15DF05C4F2C701AF
:102B1000DF91CF911F910F91FF90EF90DF90CF90B9
:102B2000BF90AF9008950F931F9308E010E00E94AC
:102B300044151F910F9108950F931F9300E110E02A
:102B40000E9444151F910F9108950F931F9300E267
:102B500010E00E9444151F910F9108958FEF9FEF91
:102B60000895AF92BF92CF92DF92EF92FF920F93B0
:102B70001F93CF93DF935B01232B21F071E0C72ECE
:102B8000D12C03C064E0C62ED12C8A01EE24FF2490
:102B900042E0F801108297012A0D3B1DC90160E255
:102BA00070E00E94C11FEB01CC0FDD1FCC0FDD1FB9
:102BB000FE01E650F84F80819181A281B3812F718F
:102BC0003070022E04C0B695A795979587950A9404
:102BD000D2F781709070892B11F0F8014083FE01CB
:102BE000EE5FF74F80819181A281B381022E04C0F4
:102BF000B695A795979587950A94D2F781709070AE
:102C0000892B21F0F801808181608083C65FD74FD6
:102C100088819981AA81BB8104C0B695A7959795B3
:102C200087952A95D2F781709070892B21F0F80151
:102C30008081806880830894E11CF11CEC14FD0401
:102C40001CF40F5F1F4FA5CFC601DF91CF911F91DD
:102C50000F91FF90EF90DF90CF90BF90AF900895CD
:102C6000DC011496ED91FC91159780819181A281F0
:102C7000B3812091F2073091F3074091F40750910E
:102C8000F507822B932BA42BB52B8093F2079093FF
:102C9000F307A093F407B093F50710821182128214
:102CA000138284819581A681B7812091F6073091A6
:102CB000F7074091F8075091F907822B932BA42B2B
:102CC000B52B8093F6079093F707A093F807B0937E
:102CD000F90714821582168217828091F20790916B
:102CE000F307A091F407B091F5070097A105B1058E
:102CF000B9F48091F6079091F707A091F807B09189
:102D0000F9070097A105B10559F400D087EE92E0CC
:102D1000EDB7FEB7928381830E94311B0F900F9015
:102D20008BEE92E48B5E9244E3E095958795EA956D
:102D3000E1F79093EB078093EA0781E090E09093AE
:102D4000ED078093EC0789EE93E06AEE77E047E0C9
:102D500050E00E94A91E0895CF92DF92EF92FF9259
:102D60000F931F93DF93CF93CDB7DEB728970FB69E
:102D7000F894DEBF0FBECDBF6A01232B21F0B1E076
:102D8000EB2EF12C03C0A4E0EA2EF12C8B010E50A7
:102D9000184FCE01019662EF77E048E050E00E94C4
:102DA0000A1D20E030E0F601E20FF31FD8018C91FC
:102DB0008083F80111928F012F5F3F4F2E153F0541
:102DC00094F389819A81AB81BC810097A105B105FB
:102DD00049F48D819E81AF81B8850097A105B10529
:102DE00009F449C08091F2079091F307A091F4078C
:102DF000B091F5070097A105B105E9F58091F607B7
:102E00009091F707A091F807B091F9070097A105F5
:102E1000B10589F58BEE92E48B5E9244F3E09595D3
:102E20008795FA95E1F79093EF078093EE0710925C
:102E3000F1071092F00789EE93E06EEE77E047E03D
:102E400050E00E94A91E892BB1F000D000D088EF7D
:102E500092E0ADB7BEB712969C938E93119787E020
:102E600093E014969C938E9313970E94311B0F90BE
:102E70000F900F900F90C70128960FB6F894DEBF01
:102E80000FBECDBFCF91DF911F910F91FF90EF90BB
:102E9000DF90CF900895CF92DF92EF92FF920F9341
:102EA0001F93CF93DF938B01232B21F091E0C92E49
:102EB000D12C03C084E0C82ED12CEA01EE24FF24DB
:102EC000888181FF05C0C8016AEF77E00E94571131
:102ED000888180FF05C0C80162E078E00E94571138
:102EE000888187FF05C0C8016AE078E00E94571119
:102EF0006881C80170E00E9425089C0197FD0BC005
:102F00000894E11CF11C0F5F1F4FEC14FD0414F436
:102F10002196D6CF9601C901DF91CF911F910F91D4
:102F2000FF90EF90DF90CF9008958AEE9FEF089585
:102F3000FA0180917A00108211821282138287FF37
:102F400008C081E090E0A0E0B0E080839183A2839C
:102F5000B38380E090E00895FA0180819181A2819D
:102F6000B3810097A105B10531F00E94B60B8091A5
:102F70007A00806803C080917A008F7780937A000E
:102F800080E090E00895EF92FF920F931F93DF93FC
:102F9000CF9300D000D0CDB7DEB77A019B0156E0C9
:102FA000369527955A95E1F7F901EE0FFF1FE20FCD
:102FB000F31FEE0FFF1FED50FF4B6F7370706C30FF
:102FC000710509F450C06D30710550F4643071051D
:102FD00089F16830710509F441C0672B81F00CC09C
:102FE0006431710509F472C06831710509F46EC06D
:102FF0006031710509F452C02AEE3FEF69C081E4E7
:10300000898384E48A83C9016AE070E00E94AD1F6D
:10301000605D6B83C9016AE070E00E94AD1F805D56
:103020008C83C701BE016F5F7F4F44E050E00E9478
:103030000A1D4CC08081282F30E0220F331F40E052
:1030400050E08181882311F041E050E0242B352BA2
:10305000C901AA2797FDA095BA2F33C08281938119
:10306000A481B5812EC080917A0087FD03C023EF33
:103070003FEF2EC0C9010E94CE0B8C01009719F4BE
:1030800020EF3FEF25C00E94720CF701608371832F
:1030900082839383C8010E94270C18C08091D007B7
:1030A0009091D107A091D207B091D30704C0B695F3
:1030B000A795979587952A95D2F781709070A07003
:1030C000B070F70180839183A283B38320E030E066
:1030D000C9010F900F900F900F90CF91DF911F912A
:1030E0000F91FF90EF900895CF93DF93FB01EA01DA
:1030F000232B19F02FEF3FEF15C0CB018370907099
:10310000892B19F02AEE3FEF0DC0EC7FE25AFC4FFD
:1031100080819181A281B38188839983AA83BB83B3
:1031200024E030E0C901DF91CF9108958EE190E075
:1031300060E070E00E9406116E9A80E090E00895D1
:10314000CF93DF93EC01009711F0C1E0D0E000D005
:1031500000D000D0EDB7FEB7319683E293E0ADB773
:10316000BEB712969C938E9311978EE190E0938355
:103170008283C483D5830E94311B8DB79EB7069688
:103180000FB6F8949EBF0FBE8DBF8EE190E0BE01DA
:103190000E940611DF91CF910895AF92BF92CF9216
:1031A000DF92EF92FF920F931F93FA01232B09F006
:1031B00092C06830710541F06C30710509F452C05D
:1031C0006430710509F087C0A0905E03B0905F0382
:1031D000C0906003D090610380819181A281B3810E
:1031E0006430710569F4209162033091630340916A
:1031F000640350916503282B392B4A2B5B2B12C09B
:103200009C01AD01209530954095509580916203C9
:1032100090916303A0916403B0916503282339233F
:103220004A235B2320936203309363034093640338
:103230005093650379018A01E094F094009510950C
:1032400080916E0390916F03A0917003B091710310
:10325000E822F9220A231B23EA14FB040C051D05AE
:1032600031F53CC020915E0330915F0340916003D3
:1032700050916103E080F18002811381E094F09429
:1032800000951095E222F3220423152380916E030A
:1032900090916F03A0917003B0917103E82AF92A0D
:1032A0000A2B1B2BE216F30604071507B9F080E082
:1032B00090E0E114F1040105110511F081E090E0C6
:1032C0000E94A018E0925E03F0925F0300936003F7
:1032D0001093610303C02FEF3FEF02C024E030E002
:1032E000C9011F910F91FF90EF90DF90CF90BF9099
:1032F000AF900895EF92FF920F931F93CF93DF93B8
:10330000DC011496CD91DC91159700D000D000D04F
:10331000EDB7FEB731968FE293E0ADB7BEB7129628
:103320009C938E93119782E793E093838283D58356
:10333000C4830E94311B88819981EDB7FEB7369610
:103340000FB6F894FEBF0FBEEDBF8032910508F0B6
:1033500008C1E0906E03F0906F030091700310912C
:10336000710361E070E002C0660F771F8A95E2F793
:10337000CB01809590959C01442737FD4095542FB3
:103380002E213F214023512320936E0330936F035E
:1033900040937003509371038A819B81892B89F03C
:1033A000CB01AA2797FDA095BA2F282B392B4A2BA2
:1033B0005B2B20936E0330936F0340937003509305
:1033C000710320916E0330916F034091700350910F
:1033D0007103E216F30604071507A9F400D000D024
:1033E00000D0EDB7FEB731968FE393E0ADB7BEB72F
:1033F00012969C938E93119782E793E09383828336
:103400008AEB90E069C0E0906203F0906303009162
:10341000640310916503E094F09400951095E22206
:10342000F3220423152300D000D000D086E493E0DB
:10343000ADB7BEB712969C938E931197EDB7FEB7BA
:1034400023833483458356830E94311B82E593E0B6
:10345000ADB7BEB712969C938E931197809162037D
:1034600090916303A0916403B0916503809590955A
:10347000A095B095EDB7FEB783839483A583B683FB
:103480000E94311B2DB73EB72A5F3F4F0FB6F8940D
:103490003EBF0FBE2DBF80915E0390915F03A09150
:1034A0006003B0916103E816F9060A071B0709F5E6
:1034B00000D000D000D0EDB7FEB731968FE393E097
:1034C000ADB7BEB712969C938E93119782E793E0A7
:1034D0009383828382EC90E0958384830E94311BE6
:1034E000EDB7FEB736960FB6F894FEBF0FBEEDBF30
:1034F00038C0E0925E03F0925F0300936003109384
:103500006103E114F1040105110501F181E090E08E
:10351000088002C0880F991F0A94E2F7AA2797FD36
:10352000A095BA2F20916203309163034091640308
:1035300050916503822B932BA42BB52B80936203B0
:1035400090936303A0936403B093650380E090E0DD
:10355000E114F1040105110511F081E090E00E94F1
:10356000A018DF91CF911F910F91FF90EF900895D8
:1035700000005353004B435349534F4D4F53494D54
:1035800055594F4A5A434341594343415843434194
:103590000000434E0000434E0000434E0000434EE7
:1035A0000000434E0000434E44594F4A4947414DA5
:1035B000004C435300414453314458523144585411
:1035C0004C594F4A444C585449544C4152594F4A13
:1035D0000000434E0000434E425748230000434E34
:1035E0000000434E0000434E4B4853480000434EFA
:1035F0005345524F003142500000434E0000434EAD
:103600005944454C5244454C5A5A55425448474CEB
:10361000DF93CF93CDB7DEB79E01275F3F4F8D81FC
:103620009E816F817885A9010E943F1BCF91DF9118
:103630000895EF92FF920F931F939C01AB0102E656
:1036400018E0C801B9010E943F1BF82EE92EC801FD
:103650000E94A41D8F2D9E2D1F910F91FF90EF9022
:103660000895DF93CF93CDB7DEB7FE0135968191F4
:103670009191BF010E94191BCF91DF9108952F9264
:103680003F924F925F926F927F928F929F92AF92F2
:10369000BF92CF92DF92EF92FF920F931F93DF932F
:1036A000CF93CDB7DEB764970FB6F894DEBF0FBEE9
:1036B000CDBF9C8B8B8B1B013A014C014DE214C199
:1036C000853259F46AE0C62ED12C20E230E03A8BE4
:1036D000298B51E0452E512C07C0D4018D9369C030
:1036E000E0E3F0E0FA8BE98B0894211C311CD10156
:1036F0009C91993609F466C09A36B0F4983531F148
:10370000993568F49A3231F19B3230F4992309F4F7
:10371000F0C0953231F54BC0903319F5E1CF9336B7
:1037200061F19436F1F44EC0903781F0913730F466
:103730009E3609F4D6C09F36A1F43DC0953709F4F2
:1037400041C0983719F0933761F421C030E1C32E9E
:10375000D12C38C0F301C080D18022E030E0620E6D
:10376000731E892F8153893008F0BECF492E55240E
:1037700080ED9FEF480E591EB7CFD3018C91F40115
:1037800081934F0122E030E0620E731EAAC0D30184
:10379000ED91FC9104C0D4018D934D01319680814F
:1037A0008823C9F7E2E0F0E06E0E7F1E9AC0D401D4
:1037B0009D934D0196C0BAE0CB16D10419F428E0D0
:1037C000C22ED12CF301E080F180F7FE0CC0FAE0AC
:1037D000CF16D10441F4F094E194F108F39491E010
:1037E000A92EB12C02C0AA24BB2400E110E017C00E
:1037F0000150104021E030E02C0F3D1F200F311F01
:10380000C701B6010E94AD1FFC01E757FC4F808144
:10381000D9018C93C701B6010E94AD1F7B01E11451
:10382000F10421F00115110519F707C00031110548
:1038300021F4B0E3B88B0FE010E0A114B10499F0CB
:10384000E989FA89B09721F081E0A82EB12C0BC04C
:1038500001501040E1E0F0E0EC0FFD1FE00FF11F20
:103860004083AA24BB2401501040E1E0F0E0EC0FBB
:10387000FD1FE00FF11F0F5F1F4F80E190E08419E3
:1038800095098A0D9B1D05C0015010402989208390
:10389000319780179107C4F3AB2849F001501040CD
:1038A000E1E0F0E0EC0FFD1FE00FF11F4083A1E02D
:1038B000B0E0AC0FBD1FA00FB11FF401980104C010
:1038C0008D9181932F5F3F4F20313105CCF382E002
:1038D00090E0680E791E80E190E0801B910B880ECD
:1038E000991E0894211C311CD1018C91882309F068
:1038F000E7CEF401108294018B899C89281B390B37
:10390000C90164960FB6F894DEBF0FBECDBFCF914C
:10391000DF911F910F91FF90EF90DF90CF90BF90BC
:10392000AF909F908F907F906F905F904F903F905F
:103930002F90089582E189BD09B400FEFDCF08955E
:1039400084E085BD8AEF87BD81E080936E00089595
:1039500080EA8093D800089580E98093D800089584
:1039600081E88093D7000895AC01DB01FC018D91C3
:1039700081938823E1F7CA0108959C01FC0101C0ED
:10398000319680818823E1F7CF01821B930B089544
:10399000AC019B01FA0101C031962115310529F0D6
:1039A0002150304080818823B9F79F01241B350BBB
:1039B000C9010895DC01FB018D919191891741F0B6
:1039C000891718F021E030E007C02FEF3FEF04C067
:1039D000882391F720E030E0C9010895DC01FB0164
:1039E00012C08C919081891741F0891718F021E05D
:1039F00030E00EC02FEF3FEF0BC0882339F0119657
:103A00003196415050404115510559F720E030E0C2
:103A1000C9010895EF92FF920F931F93CF93DF9305
:103A20008C01EB017C01CE01802B912B80FD1FC00E
:103A3000BA0120E030E00EC0F801E20FF31FDE0112
:103A4000A20FB31F8D919C9191838083625070402F
:103A50002E5F3F4F6230710578F7CA018E7FBE013D
:103A6000680F791F7801E80EF91E481B590B20E0FA
:103A700030E00AC0F701E20FF31FDB01A20FB31F12
:103A80008C9180832F5F3F4F415050408FEF4F3FCD
:103A9000580781F7C801DF91CF911F910F91FF90D7
:103AA000EF900895CF93DF93EC01FA019C0180FD24
:103AB00020C0CB01AA2797FDA095BA2F9070A070C7
:103AC000B0702227382F492F5A2F282B392B4A2BF9
:103AD0005B2BCF01DE0103C02D933D930297823013
:103AE0009105D0F7CF018E7F9E01280F391FE81B6B
:103AF000F90BD90101C06D9331978FEFEF3FF807B4
:103B0000D1F7CE01DF91CF910895DF93CF9300D00D
:103B1000CDB7DEB79A8389830A9721F48DE090E0D0
:103B20000E94851D80910A0A90910B0A009739F036
:103B3000BE016F5F7F4F41E050E00E944D050F9046
:103B40000F90CF91DF910895CF93DF93EC0104C0E4
:103B5000219690E00E94851D88818823C9F780E026
:103B600090E0DF91CF9108950F931F93CF93DF9350
:103B7000CEE0D1E00AE913E020C0E881F98109959F
:103B80000097D1F000D000D000D0EDB7FEB731964D
:103B9000ADB7BEB712961C930E931197D383C28311
:103BA000958384830E94311B8DB79EB706960FB60E
:103BB000F8949EBF0FBE8DBF229691E0CA31D907FF
:103BC000E0F2CEE0D1E00AE913E020C0E881F9811B
:103BD00009950097D1F000D000D000D0EDB7FEB726
:103BE0003196ADB7BEB712961C930E931197D3833F
:103BF000C283958384830E94311B8DB79EB706963E
:103C00000FB6F8949EBF0FBE8DBF229691E0CE30C6
:103C1000D907E0F280E090E0DF91CF911F910F9102
:103C20000895CF93DF932FB7F89480910609909170
:103C3000070939E08630930721F42FBFC0E0D0E0B8
:103C40000FC0EC012297AC81BD81EA81FB81B38377
:103C5000A283ED93FC939B838A839D838C832FBFE8
:103C6000CE01DF91CF9108950F931F93CF93DF93F0
:103C700086E099E0909307098093060990930909DB
:103C800080930809ACE0B9E020E030E0582F492FDC
:103C9000C90163E0880F991F6A95E1F7845F964F29
:103CA000E0910809F09109099093090980930809A6
:103CB0005C9311964C9311971396FC93EE93129785
:103CC000918380832F5F3F4F18962032310501F793
:103CD000E6ECF8E0A6EEB8E0E083F183E283F3835C
:103CE000AC930B2E11960C9211970A2E12960C92F1
:103CF00012970B2E13960C9213973496149688E015
:103D0000E63EF80749F709EB13E018C0F801C08157
:103D1000D1810CC019830883EA81FB810190F08175
:103D2000E02D309711F0CE0109952896F801828197
:103D30009381C817D90771F70C5F1F4FF3E00D3E51
:103D40001F0720F380E090E0DF91CF911F910F914A
:103D500008950F931F93CF93DF938C019A014830FE
:103D6000510518F02AEE3FEF3DC08FB7F89440910F
:103D700006095091070999E04630590711F48FBFA1
:103D800011C0EA012297AC81BD81EA81FB81B38336
:103D9000A283ED93FC935B834A835D834C838FBF47
:103DA000209719F424EF3FEF1DC07F836E831983A2
:103DB00008838FB7F894220F331F220F331FE0912F
:103DC000B403F091B503E20FF31FA281B3815383D3
:103DD0004283FB83EA83BD83AC834D935C938FBFA7
:103DE00020E030E0C901DF91CF911F910F9108953C
:103DF0004F925F926F927F928F929F92AF92BF92FB
:103E0000CF92DF92EF92FF920F931F93CF93DF93A6
:103E100016E0412E19E0512E4FB7F8942091B403CB
:103E20003091B5038091B6039091B7039093B50399
:103E30008093B4033093B7032093B6034FBFB8E029
:103E40006B2E712CACE1CA2ED12CE091B603F0910F
:103E5000B703EC0DFD1D0081118102501040D80107
:103E60001296ED90FC901397CEEFDFEFEC0EFD1E57
:103E700045C0F80180809180D401CD91DC910FC0C4
:103E8000F801868197819D838C83EA81FB81028082
:103E9000F381E02D309711F0CE0109952896D401D9
:103EA00012968D919C911397C817D90749F70894DA
:103EB000610871088FB7F894E801AC81BD81EA818F
:103EC000FB81B383A283ED93FC93E0910609F0910B
:103ED0000709B382A282FB83EA835D824C82B0929F
:103EE0000709A09206098FBFF7018281938187019C
:103EF000FEEFEF2EFFEFFF2EE80EF91EE2E0AE2EF2
:103F0000B12CA00EB11E8091B6039091B7038C0D19
:103F10009D1DA816B90609F0ACCF8CEF9FEFC80E17
:103F2000D91E9CEFC9169FEFD90609F08ECFA8E0E5
:103F30006A16710409F070CFDF91CF911F910F9134
:103F4000FF90EF90DF90CF90BF90AF909F908F90B9
:103F50007F906F905F904F900895AA1BBB1B51E11B
:103F600007C0AA1FBB1FA617B70710F0A61BB70BE9
:103F7000881F991F5A95A9F780959095BC01CD018E
:103F8000089597FB092E07260AD077FD04D0E5DFB8
:103F900006D000201AF4709561957F4F0895F6F7CA
:103FA000909581959F4F0895FC0AF90AF60AF30A45
:103FB000F00AED0AEA0AE70AE40AE10ADE0ADB0A85
:103FC000D80AD50AD20ACF0ACC0AC90AC60AC30A35
:103FD000C00ABD0ABA0AB70AB40AB10AAE0AAB0AE5
:103FE000A80AA50AA20A9F0A9C0A990A960A930A95
:103FF000900A8D0A8A0A870A840A810A7E0A7B0A45
:10400000780A750A720A6F0A6C0A690A660A630AF4
:10401000600A5D0A5A0A570A540A510A4E0A4B0AA4
:10402000480A450A420A3F0A3C0A000100005E4075
:10403000120002000070404300030000B34004017E
:10404000030904B7401602030904CF40080303091B
:1040500004D9400C0001C1120180360181361201E1
:10406000000202000010C0167A04000101020301E0
:1040700009024300020100C03209040000010202EB
:104080000100052400100105240101010424020699
:104090000524060001070582031000400904010001
:1040A000020A000000070503024000000705840221
:1040B00040000004030904160344006F0067002059
:1040C00000480075006E0074006500720000000872
:1040D00003590055004E0000000C03300030003042
:1040E0000030003000000008000000A00F0000FFBA
:1040F000FFFFFF0A00401F00000A00401F00000AE7
:1041000000401F00000A00401F00000A00401F007E
:10411000000A00401F00000A00401F00000A004083
:104120001F000053102E10BC0CC810AB108C10E4F4
:104130000C7F1053102E10BC0CC8100000000000A3
:104140000000005E136713701379135D1266126F1F
:104150001278120000000000000000F313FC1305A9
:10416000140E140000000000000000881491149A3E
:1041700014A31493159C15A515AE1526152F1538E7
:1041800015411500000000B1150000000000004BB3
:1041900017000000000000AC160000000000000046
:1041A0000000000000114213420000334108001BD0
:1041B000421D42000033411000254270350000339B
:1041C0004110012742680500003341100329429045
:1041D000050000334110052B420000000073411020
:1041E000072D4200000000834110092F420000000B
:1041F00000434118092F4200000000534120092FBD
:104200004200000000634128093142F20700009398
:10421000410800341278560200000008005445534B
:104220005428000000A00028002800000200020816
:1042300000080000000000C3170000000000009507
:10424000170000000000009817000000000000ACFC
:104250001700000000854287420000334108008FAC
:1042600042E7400000334110008F42EF400000332E
:104270004114008F4200000000434240009142F38D
:104280004000003342080035120100030000000422
:1042900000C00F53102E107418C81000000000CD7D
:1042A0001800000000C142C342000033410800CBA7
:1042B000425E035E0393421800CD42CF42000033BA
:1042C0004108001111AAAA0B0000001000080013F9
:1042D000000000000000000000E142E34200003363
:1042E000410800020001000C0000000B00A3410087
:1042F00000120805005342000026080300A34200F4
:0B430000003A080100D74200004E0800
:10430B000000000000000000000000000000A903F6
:10431B00B8047D093A0B9D0CB60B48656C6C6F2C81
:10432B0020426174686F7320697320737065616BD1
:10433B00696E6720286275696C74206F6E20257317
:10434B00290A004A756E2020332032303134002583
:10435B00730A0073797374656D5F74696D65725F51
:10436B00696E6974000000FD0300005461736B3AC1
:10437B002025730A000000750400000000AB050047
:10438B00006D6970732D636F6E736F6C65006D6379
:10439B0075696F000D0A25733A207377697463682A
:1043AB00656420746F206D6F64652025730D0A00A2
:1043BB006176722D7561727400756172742D6D75F5
:1043CB00782D79756E000E08EB06F20607080000D3
:1043DB000000F906000000006E0800007573622DE6
:1043EB00756172740000000000E10000000008001D
:1043FB0000A009A309140B340B00006176722D7514
:10440B00617274004E0B6B0B510B650B00007573D7
:10441B00622D75617274003C2D002D3E00256325C5
:10442B007325630A007772620072646200726477AC
:10443B00007772770072646477007772647700722A
:10444B0064710077727100756E6B6E6F776E000919
:10445B0025753A25752E2575202573206F2030780C
:10446B00253034780A0009703A2000307825303234
:10447B007820000A006D6375696F3A206F75747050
:10448B007574206572726F720A00646561640061F5
:10449B006C697665006D6375696F2025730A00750D
:1044AB006172742D6D75782D79756E006D637569FC
:1044BB006F3A20696E2070697065206572720A0010
:1044CB006D6375696F3A206F757420706970652024
:1044DB006572720A006D6375696F000000960E00BD
:1044EB00000000200E00004E554C4C206770696F89
:1044FB00206576656E740A0025733A206576742004
:10450B006572726F720A005F5F6770696F5F6576C5
:10451B0074735F7374617475735F72640000003041
:10452B001600006770696F25642D3E25640A00250F
:10453B00732C206964617461203D2025700A00256D
:10454B00732025640A0072203D203078253038789E
:10455B000A006D203D203078253038780A000000A5
:10456B000000FFFFFFFF0000000000000000000044
:10457B0000006D6375696F5F6972715F68616E646E
:10458B006C650096187A19000030313233343536A9
:10459B0037383961626364656600696E697463619B
:1045AB006C6C2061742025703A206572726F7220DA
:1045BB0025690A00E608C608002104310419042104
:1045CB0004310431043104310441044104410441F8
:1045DB0004310439043104310441044904490451C0
:1045EB0004590461043904410451045904000000C6
:1045FB0000000000000000000000000000000000B0
:10460B00000000000000000000000000000000009F
:10461B000000000000000000000000750100000019
:10462B000000006501000000000000D60100000042
:10463B00000000D001000068070000E1020000D478
:10464B000700007B01000000000000DB020000D42B
:10465B0007000083030000000000001D03000000A2
:10466B000000000000000000B901C60100000000BE
:10467B000000DC01F101000000000000FB0104025E
:10468B000000000000000000D502280E460ED407E3
:08469B00983A00000300000042
:040000030000006693
:00000001FF
