:1000000032C00000000000000000000000000000FE
:1000100000000000000000000000000000000000E0
:1000200000000000000000003DC000007DC0000096
:1000300000000000000000000000000000000000C0
:1000400000000000000000000000000000000000B0
:10005000000000000000000000000000C3C200001B
:10006000000044C2E6C111241FBECFEFDAE0CDBFCD
:10007000DEBFE2E5FBE50CE5A0E0B1E0EA39F00720
:100080001CF425902D92FACFA0E5B2E009E0A03251
:10009000B00714F41D92FBCF0E94E91078940E94DF
:1000A000ED07E1CF1F920F920FB60F9211248F939D
:1000B0009F938091E1001092E10083FF13C01092A2
:1000C000E90091E09093EB001092EC0092E19093A4
:1000D000ED0098E09093F00010926A0110926C018C
:1000E00010926B0182FF19C080916A01882379F018
:1000F00080917401882359F0815080937401882382
:1001000031F484E08093E9008AE38093E80083E09F
:100110008093E90084E08093F0009F918F910F908D
:100120000FBE0F901F9018951F920F920FB60F924F
:100130001124EF92FF920F931F932F933F934F93AE
:100140005F936F937F938F939F93AF93BF93EF933F
:10015000FF93DF93CF930F92CDB7DEB78091F4007A
:1001600083FF14C083E08093E9008091E80082FF60
:1001700008C08AE192E066E776E047E050E00E943E
:10018000EC058091E800887F8093E8001092E900F8
:100190008091E80083FF32C12091F1003091F1009D
:1001A0008091F100E82EFF244091F100942F80E02F
:1001B000E82AF92A0091F10010E04091F100942F13
:1001C00080E0082B192B6091F100A091F10082EFE3
:1001D0008093E800363009F059C08AE395E59C0128
:1001E00025503040FC013797459154914E155F05DD
:1001F000F9F4F9014591549140175107C9F42E5F64
:100200003F4FF901859194912E5F3F4FF901249161
:10021000462F50E07A2F60E0462B572B4F3F510579
:1002200019F010F04FEF50E0421750F4242F08C09F
:100230000796295F3F4FF5E584369F0799F6DEC0A4
:10024000AEEF4091E80050E0BA0165707070611542
:100250007105B9F342FDD5C0322F213108F030E1EC
:10026000AC01632F07C0FA014F5F5F4FE491E09349
:10027000F10061506623B9F7830F911D231BA093F2
:10028000E8002223F1F63031E1F2BBC0353051F401
:100290008EEF8093E8000E94A00A8E2D80688093E4
:1002A000E300AFC0393061F5222309F0A7C0E09226
:1002B0006A0110926C0110926B01109274018EEF22
:1002C0008093E80041E08DE595E54093E900FC016D
:1002D0000196E491E093EB00EE2369F09C012F5F1F
:1002E0003F4FFC0184918093EC00C9010196F90114
:1002F00024912093ED004F5F453039F78EE179C0AE
:10030000383051F4203809F079C00E94A00A809159
:100310006A018093F1004AC0313279F4213A09F040
:100320006DC00E94A00AEDE6F1E081918093F1009A
:1003300021E0E437F207C9F739C03032A1F42132A5
:1003400009F05CC08091E80082FFFCCFEDE6F1E0AF
:100350008091F100819331E0E437F307C9F78BEF27
:100360008093E80023C0323251F4213209F046C0B4
:10037000F0926C01E0926B010E94A00A17C0332337
:10038000C9F429830E94A00A2981223851F40093DC
:10039000E9009091EB0081E095FF80E01092E90088
:1003A00001C080E08093F1001092F1008EEF809305
:1003B000E80027C0313011F0333001F52230F1F47C
:1003C000E114F104D9F40F77802F81508430B0F418
:1003D0008EEF8093E8000093E900333079F089E1F3
:1003E0008093EB0081E090E002C0880F991F0A958E
:1003F000E2F78093EA001092EA0003C081E2809362
:10040000EB000F90CF91DF91FF91EF91BF91AF91F2
:100410009F918F917F916F915F914F913F912F911C
:100420001F910F91FF90EF900F900FBE0F901F90B4
:1004300018951F920F920FB60F9211242F933F938E
:100440004F935F936F937F938F939F93AF93BF93DC
:10045000EF93FF932091790230917A0260917B02B1
:1004600070917C02A901461B570B4F715070C90156
:1004700080959095860F971F8F719070009731F43B
:1004800081E090E090939E0280939D026091CE0067
:1004900080919D0290919E02009761F4F901E958C4
:1004A000FD4F66832F5F3F4F2F71307030937A027C
:1004B000209379024115510541F484E292E066E708
:1004C00076E047E050E00E94EC05FF91EF91BF918C
:1004D000AF919F918F917F916F915F914F913F91DC
:1004E0002F910F900FBE0F901F9018951F920F9293
:1004F0000FB60F9211242F933F934F935F936F93F7
:100500007F938F939F93AF93BF93EF93FF93AEB57A
:10051000A530F1F42091E5043091E6048091E304E4
:100520009091E404821B930B8F709070009771F090
:10053000F901E753FB4F868D8EBDC90101968F707F
:1005400090709093E6048093E5043BC01EBC39C0D4
:100550002091CB043091CC046091CD047091CE04F5
:10056000A901461B570B4F705070C901809590959B
:10057000860F971F8F709070009731F481E090E0A4
:100580009093E0048093DF048091DF049091E00475
:10059000009761F4F901E753FB4FA6832F5F3F4FAC
:1005A0002F7030703093CC042093CB04411551054B
:1005B00041F48EE292E066E776E047E050E00E9488
:1005C000EC05FF91EF91BF91AF919F918F917F913A
:1005D0006F915F914F913F912F910F900FBE0F90B0
:1005E0001F9018951F920F920FB60F9211242F9300
:1005F0003F934F935F936F937F938F939F93AF93AB
:10060000BF93EF93FF938091F9089091FA08A0911E
:10061000FB08B091FC080196A11DB11D8093F9085B
:100620009093FA08A093FB08B093FC088EE596E03F
:1006300060E070E047E050E00E943C26FF91EF91BF
:10064000BF91AF919F918F917F916F915F914F91EA
:100650003F912F910F900FBE0F901F901895BE06DF
:10066000CE06B606BE06CE06CE06CE06CE06DE0602
:10067000DE06DE06DE06CE06D606CE06CE06DE0692
:10068000E606E606EE06F606FE06D606DE06EE06EA
:10069000F606FE060607000000000000000000004D
:1006A000000000000000000000000000000000004A
:1006B0000000000000000000F554000000000000F1
:1006C000EF540000000000002D5500000000000065
:1006D0002755000000000000A8570000AD020000F0
:1006E000FB54000000000000A2570000AD02000013
:1006F0008E590000000000009C580000000000001F
:100700002A5A000000000000000007070707000049
:1007100000000000070707070000070007070000A8
:10072000000000000000070700000707070700009F
:1007300000000000000000000000000000000000B9
:1007400000000000000000000000000000000000A9
:100750000000000000008EE596E060E070E047E0F9
:1007600050E00E943C26089583B7817F83BF83B702
:10077000816083BF889583B78E7F83BF089500D043
:1007800000D086EB94E5EDB7FEB79283818386E1D6
:1007900091E0948383830E9472220F900F900F90B8
:1007A0000F900E9474260E94B403FBCF00D000D0AB
:1007B0008BEE94E5EDB7FEB7928381838EE191E0F5
:1007C000948383830E94722280E592E09093510289
:1007D0008093500290935302809352020F900F9097
:1007E0000F900F9080E090E00895AF92BF92CF926B
:1007F000DF92EF92FF920F931F93CF93DF93C091FD
:100800005002D091510226970E811F810650104050
:10081000E12C91E0F92EC12C82E0D82E4CC08091C1
:10082000F9089091FA08A091FB08B091FC08288182
:100830003981821B930B97FD43C06C817D8182E6D9
:1008400096E047E050E00E943C26AE80BF8080E505
:10085000A81682E0B806C1F09501265030404091BC
:10086000F9085091FA086091FB087091FC08F901B1
:1008700080819181A281B381840F951FA61FB71F2C
:1008800080839183A283B383A885B985F501B3835F
:10089000A283AD92BC92FF82EE82D986C886CE0139
:1008A0006AE070E00E94E828F80186819781E801FB
:1008B0008C0106501040F2E0CA34DF0709F0AFCFD8
:1008C000DF91CF911F910F91FF90EF90DF90CF902C
:1008D000BF90AF900895EF92FF920F931F93CF9325
:1008E000DF937B018C01EA018AE090E00E949D2960
:1008F000FC01009709F46AC08091F9089091FA0808
:10090000A091FB08B091FC088E0D9F1DA01FB11F88
:1009100080839183A283B383D583C483EFB6F89495
:10092000A0915002B091510282E0A035B80791F534
:10093000CF01069613969C938E931297B783A68346
:10094000B187A08711969C938E933CC02081318102
:10095000428153816D917D918D919C911397E90115
:10096000C61BD70BD7FF0AC0621B730B840B950BFA
:100970006D937D938D939C93139714C0261B370B17
:10098000480B590B208331834283538316960D9075
:10099000BC91A02D16978D010A5F1F4F82E0003594
:1009A0001807A1F6CF0106961896CD91DC911997FC
:1009B00019969C938E93189717830683D187C087C7
:1009C00099838883EFBE20E030E002C024EF3FEF40
:1009D000C901DF91CF911F910F91FF90EF90089582
:1009E000CF93DF93FC01C481D581EA81FB818E81A5
:1009F0009F8109959F838E8388859985AA85BB856C
:100A00002C853D854E855F85820F931FA41FB51FE2
:100A10008C879D87AE87BF872091F9083091FA08AF
:100A20004091FB085091FC08B901681B790B77FDD8
:100A300009C0DA01C9010196A11DB11D8C879D87EE
:100A4000AE87BF876C857D858E859F85621B730B06
:100A5000840B950BAE010E946B04DF91CF9108953A
:100A6000EF92FF920F931F93CF93DF93E090F908DB
:100A7000F090FA080091FB081091FC08C8E3D2E05E
:100A800008C0EC81FD81309719F08E819F81099516
:100A9000609682E0C834D807A0F3C8E3D2E01AC059
:100AA0006C857D858E859F856E0D7F1D801F911FB6
:100AB0006C597F4F8F4F9F4F6C877D878E879F87A5
:100AC0006E197F09800B910BAE010E946B0497FD9C
:100AD00008C0609682E0C834D80710F320E030E008
:100AE00002C02FEF3FEFC901DF91CF911F910F910E
:100AF000FF90EF9008950F931F93DF93CF93CDB79F
:100B0000DEB72A970FB6F894DEBF0FBECDBFDC016B
:100B100014960D911C911597C8010896F80122852D
:100B20003385A085B18513963C932E931297F901D6
:100B3000B183A083D80119969C938E9318971B9626
:100B40009C938E931A971696ED91FC911797CF016F
:100B50000696268137812817390771F462817381DF
:100B6000CE0101964AE050E00E94E729EF81F88526
:100B7000309711F0C8010995F801178216822A965C
:100B80000FB6F894DEBF0FBECDBFCF91DF911F919E
:100B90000F910895EF92FF920F931F93CF93DF93DE
:100BA0008C01C0E1D2E00AC068817981F8018081BE
:100BB00091810E940924009739F02A96F2E0C83307
:100BC000DF0790F3C0E0D0E0CE01DF91CF911F911D
:100BD0000F91FF90EF900895CF92DF92EF92FF92E6
:100BE0000F931F93CF93DF937B018A01FC01C68192
:100BF000D7812097A9F0289726E0C22ED12CC80EC5
:100C0000D91E09C0C701BE01A8010E943C26088464
:100C1000D985C02D2897CE0108968C159D0591F792
:100C2000DF91CF911F910F91FF90EF90DF90CF90C8
:100C300008958F929F92AF92BF92CF92DF92EF92E0
:100C4000FF920F931F93DF93CF93CDB7DEB72A9711
:100C50000FB6F894DEBF0FBECDBF4C015B018A0119
:100C60006115710519F486E190E025C08CE090E0F3
:100C70000E949D296C017C01009739F487E190E086
:100C80009093B8048093B7046AC0DC0111969C92DB
:100C90008E9215961C930E9314971396BC92AE9257
:100CA00012970E94CA058C01009761F4F601178221
:100CB000168286E090E09093B8048093B704EE2407
:100CC000FF244DC0D60117969C938E931697FC0176
:100CD00086819781009731F4C801069697838683B1
:100CE00091878087D80112966D917C911397CE01E0
:100CF00001964AE050E00E94E729E981FA813097A5
:100D000041F0C6010995009721F0F601178216827D
:100D1000D2CFC6010896D8011696ED91FC9117978F
:100D200093838283D6011996FC93EE9318979801CA
:100D30002A5F3F4F1B963C932E931A97F801978397
:100D40008683F1E0AF16B10419F486E696E002C09E
:100D50008AE696E0B60147E050E00E943C26C701D3
:100D60002A960FB6F894DEBF0FBECDBFCF91DF91AC
:100D70001F910F91FF90EF90DF90CF90BF90AF90B9
:100D80009F908F900895CF93DF93EC018E819F8188
:100D9000009749F489E090E09093B8048093B704F9
:100DA0002FEF3FEF18C08A819B818130910519F4A4
:100DB0008EE696E002C082E796E0BE0147E050E092
:100DC0000E943C268EE796E0BE0146E050E00E947D
:100DD0003C2620E030E0C901DF91CF910895CF9209
:100DE000DF92EF92FF920F931F93DF93CF93CDB7D4
:100DF000DEB72A970FB6F894DEBF0FBECDBF8C01C9
:100E00007B016A01DC011696ED91FC9117973097F2
:100E100019F489E090E012C062817381CE010196DD
:100E20004AE050E00E94E729F801828180FF04C077
:100E3000EB81FC81309749F481E090E09093B80415
:100E40008093B7042FEF3FEF12C0C801B701A6018E
:100E500009959C0197FF05C088279927821B930B52
:100E600002C080E090E09093B8048093B704C90179
:100E70002A960FB6F894DEBF0FBECDBFCF91DF919B
:100E80001F910F91FF90EF90DF90CF900895CF9238
:100E9000DF92EF92FF920F931F93DF93CF93CDB723
:100EA000DEB72A970FB6F894DEBF0FBECDBF8C0118
:100EB0007B016A01DC011696ED91FC911797309742
:100EC00019F489E090E012C062817381CE0101962D
:100ED0004AE050E00E94E729F801828181FF04C0C6
:100EE000ED81FE81309749F481E090E09093B80461
:100EF0008093B7042FEF3FEF12C0C801B701A601DE
:100F000009959C0197FF05C088279927821B930BA1
:100F100002C080E090E09093B8048093B704C901C8
:100F20002A960FB6F894DEBF0FBECDBFCF91DF91EA
:100F30001F910F91FF90EF90DF90CF900895EF9267
:100F4000FF920F931F93DF93CF93CDB7DEB72A970E
:100F50000FB6F894DEBF0FBECDBF8C017B01DC0164
:100F60001696ED91FC911797309719F489E090E06F
:100F70000EC062817381CE0101964AE050E00E946A
:100F8000E729E985FA85309749F481E090E090936C
:100F9000B8048093B7042FEF3FEF11C0C801B70129
:100FA00009959C0197FF05C088279927821B930B01
:100FB00002C080E090E09093B8048093B704C90128
:100FC0002A960FB6F894DEBF0FBECDBFCF91DF914A
:100FD0001F910F91FF90EF900895CF93DF930E94A0
:100FE0007025C8ECD0E004C088EE93E00E94B225E2
:100FF00021978FEFCF3FD807B9F70E94BF03DF914A
:10100000CF91089580915502909156020E94EF066B
:10101000089580915502909156020E9447070895C5
:1010200081E090915402913009F480E08093540261
:10103000E0915502F09156020680F781E02D208163
:101040003181813019F480E391E002C086E391E0C0
:1010500000D000D000D0EDB7FEB7319641E055E5A5
:10106000ADB7BEB712965C934E931197338322832C
:10107000958384830E9472228DB79EB706960FB621
:10108000F8949EBF0FBE8DBF0895EF92FF920F930D
:101090001F93DF93CF93CDB7DEB7A8970FB6F89421
:1010A000DEBF0FBECDBFDC0114960D911C911597CC
:1010B000809157029091580208171907C9F481E0EE
:1010C0008093590285E1E82EF12CEC0EFD1EC8013B
:1010D000B70144E150E00E94EF06AC011816190672
:1010E0000CF09EC08091B5049091B604B7018DC0FC
:1010F000D8011696ED91FC911797CF01069626819F
:1011000037812817390709F48BC0809155029091D7
:1011100056020817190741F08091F7089091F808D6
:101120000817190709F07CC080915402882339F010
:101130008091F7089091F8080817190769F4C80119
:10114000BE016F5F7F4F44E150E00E94EF067C01DB
:10115000181619061CF064C0EE24FF248091F708CD
:101160009091F8080817190789F5209155023091D8
:101170005602FE01319680E090E007C041914D316A
:1011800019F40E94100807C001968E159F051CF4E3
:101190002115310599F780915902882361F08091DA
:1011A000570290915802009731F0BE016F5F7F4F58
:1011B000A7010E94470780915402813089F18091F4
:1011C0005502909156020097E1F42AC08091540292
:1011D0008823F1F4FE01319680E090E007C0219170
:1011E0002A3A19F40E94100804C001968E159F0532
:1011F000B4F380915402813099F08091B5049091BC
:10120000B604BE016F5F7F4FA7010E94470708C069
:1012100082E896E060E070E047E050E00E943C2603
:10122000A8960FB6F894DEBF0FBECDBFCF91DF9169
:101230001F910F91FF90EF9008958091550290912A
:1012400056020E94C306089583E491E063E070E0D3
:1012500040E050E00E941906909356028093550298
:10126000009781F0109254028CE491E063E070E00A
:1012700040E050E00E941906909358028093570274
:10128000009719F42DEE3FEF02C020E030E0C901D5
:1012900008951F93FB011FB7F89460E270E00E946D
:1012A000072A660F771F660F771FE60FF71F21E0EB
:1012B00030E040E050E004C0220F331F441F551FB0
:1012C0008A95D2F780819181A281B381822B932B61
:1012D000A42BB52B80839183A283B3831FBF1F915F
:1012E00008951F93FB011FB7F89460E270E00E941D
:1012F000072A660F771F660F771FE60FF71F21E09B
:1013000030E040E050E004C0220F331F441F551F5F
:101310008A95D2F780819181A281B381822B932B10
:10132000A42BB52B80839183A283B3831FBF1F910E
:1013300008952F923F924F925F927F928F929F9249
:10134000AF92BF92CF92DF92EF92FF920F931F93D3
:10135000DF93CF9300D000D000D0CDB7DEB76AE5E1
:10136000E62E62E0F62E53E2A52EB12CCC24DD242D
:1013700080E090E020E030E041E0442E512C01C0BC
:10138000980189010F5F1F4FF5017080609176020F
:10139000462F50E0022E02C0559547950A94E2F779
:1013A00040FD0BC0A20102C0440F551F2A95E2F771
:1013B0009A01262B2093760251C0F7018080872462
:1013C0009924939440E050E02EE5222E22E0322E24
:1013D000200E311E98012D593D4F3A832983F80183
:1013E000E059FD4FFC83EB83F1012081292179F144
:1013F000292D282161F1E981FA812081292189F0B3
:10140000F7012081292169F4CA018C0D9D1D69E62F
:1014100072E04D835E830E94490981E090E05E8125
:101420004D81EB81FC812081292189F0F701208108
:10143000292169F0CA018C0D9D1D69E672E04D837A
:101440005E830E94490981E090E05E814D814F5F9B
:101450005F4F4830510511F0990CC6CFF7017192DA
:101460007F0128E030E0C20ED31E43E050E0A40E1E
:10147000B51E0530110509F083CF009741F086E8CD
:1014800096E069E672E047E050E00E943C2626962E
:101490000FB6F894DEBF0FBECDBFCF91DF911F9185
:1014A0000F91FF90EF90DF90CF90BF90AF909F9003
:1014B0008F907F905F904F903F902F90089588324B
:1014C0009105B8F5AC014770507021E030E002C0E2
:1014D000220F331F4A95E2F773E0959587957A9529
:1014E000E1F790E0722F7095FC01EC59FD4F5081AF
:1014F00057235083DC01AF58BD4F4C9147234C9389
:10150000DC01A15ABD4F3C9137233C9360FF02C0E0
:10151000522B508361FF05C0FC01EF58FD4F422B59
:10152000408367FF09C0815A9D4F232BFC01208314
:1015300003C02AEE3FEF02C020E030E0C901089569
:101540008091E80080FFFCCF089581E08093D70070
:1015500080EA8093D80082E189BD09B400FEFDCF06
:1015600080E98093D8001092E00010926A011092F6
:101570006C0110926B018CE08093E20080E090E0BF
:10158000089580E090E008950F931F9380916A0181
:101590008823A9F11FB7F89483E08093E900E091D4
:1015A000F200862F972FDC0120E030E0F0E083E0AE
:1015B0000FC08093E9009091E80095FD02C01FBF25
:1015C00010C08093E9009091F1009D932F5F3F4FF1
:1015D000642F752FE617F7070CF4BF01261737079E
:1015E00044F383E08093E9008091F200882329F49A
:1015F0008091E8008F778093E8001FBF02C025EF3D
:101600003FEFC9011F910F910895E2EEF0E0808154
:10161000877F8083089580916A0190E0089580918A
:101620006B0190916C0108951F93DC0180916A0118
:10163000882309F41BC12FB7F89484E08093E90054
:1016400080917501882341F08091E80085FD02C0FA
:101650002FBF16C01092750114E050E44AE335E044
:10166000FEC08091E400875E9091E80095FD15C072
:101670002FBF9091E400981731F481E080937501B9
:101680002BEF3FEFF5C090916A01992309F4EEC06A
:101690002FB7F8941093E900E7CF8091F200E52F7F
:1016A000E81B8E2F90E06817790708F4E62F6E1B71
:1016B0007109F0E0E134F10508F0C5C0E65EF54DD2
:1016C000EE0FFF1F0590F491E02D09948D9180930A
:1016D000F1008D918093F1008D918093F1008D91B7
:1016E0008093F1008D918093F1008D918093F100B2
:1016F0008D918093F1008D918093F1008D91809375
:10170000F1008D918093F1008D918093F1008D9186
:101710008093F1008D918093F1008D918093F10081
:101720008D918093F1008D918093F1008D91809344
:10173000F1008D918093F1008D918093F1008D9156
:101740008093F1008D918093F1008D918093F10051
:101750008D918093F1008D918093F1008D91809314
:10176000F1008D918093F1008D918093F1008D9126
:101770008093F1008D918093F1008D918093F10021
:101780008D918093F1008D918093F1008D918093E4
:10179000F1008D918093F1008D918093F1008D91F6
:1017A0008093F1008D918093F1008D918093F100F1
:1017B0008D918093F1008D918093F1008D918093B4
:1017C000F1008D918093F1008D918093F1008D91C6
:1017D0008093F1008D918093F1008D918093F100C1
:1017E0008D918093F1008D918093F1008D91809384
:1017F000F1008D918093F1008D918093F1008D9196
:101800008093F1008D918093F1008D918093F10090
:101810008D918093F1008D918093F1008D91809353
:10182000F1008D918093F1008D918093F1008D9165
:101830008093F1008D918093F1008D918093F10060
:101840008D918093F1008D918093F1008091E8005B
:1018500085FD02C04093E800309374012FBF6115ED
:10186000710509F0FECE20E030E002C025EF3FEF29
:10187000C9011F910895EF92FF92CF93DF93CB019F
:10188000EA01209759F480916A01882379F08091C8
:101890006B0190916C0180FD0BC008C0BA010E94E1
:1018A000140B009729F0CFEFDFEF02C0C5EFDFEF99
:1018B000CE01DF91CF91FF90EF90089583E090E00B
:1018C0009093CD008093CC0010927C0210927B020A
:1018D00010927A021092790288E98093C90080E020
:1018E00090E0089580E090E00895862F972FFC0106
:1018F00080E090E008C021913091C80035FFFCCF16
:101900002093CE00019684179507ACF3CA01089581
:10191000E9ECF0E08081877680830895EF92FF9272
:10192000CF93DF93CB0160917B0270917C0220E228
:1019300030E0261B370BC0917902D0917A02C20F9A
:10194000D31FCF71D0704C175D070CF4EA012C1730
:101950003D070CF4E901209749F163587D4FAE0132
:101960000E943C2480917B0290917C028C0F9D1FF1
:101970008F71907090937C0280937B0210929E02F4
:1019800010929D022091790230917A02281B390B26
:101990002F7130702115310559F084E292E066E72D
:1019A00076E047E050E00E94EC0502C0C5EFDFEFB3
:1019B000CE01DF91CF91FF90EF900895ECE7F0E03A
:1019C00080818F738083808180648083EAE7F0E088
:1019D00080818760808380818F7780838FEF809381
:1019E0007E0080937D0080E090E00895DF92EF928A
:1019F000FF920F931F93DC018830910508F046C0D9
:101A0000E0909F02F090A0020091A1021091A2022A
:101A1000E1E0F0E002C0EE0FFF1F8A95E2F79F01C0
:101A2000442737FD4095542FCA01B9016E217F210B
:101A300080239123611571058105910539F52E29C2
:101A40003F29402B512B20939F023093A0024093BB
:101A5000A1025093A2029D01220F331F2A0F3B1FA8
:101A6000220F331F205F394A99F080917E00E09564
:101A7000E823E0937E0080917C00807E80937C0050
:101A800080917C008A2B80937C0002C020E030E0B3
:101A9000C9011F910F91FF90EF90DF900895CF93B0
:101AA000DF9380519645959587952BEA3AEA829F78
:101AB000B001839F700D929F700D1124E1E0F0E062
:101AC000EF01062E02C0CC0FDD1F0A94E2F79E0143
:101AD00020953095442737FD4095542F80919F02E3
:101AE0009091A002A091A102B091A202822393231F
:101AF000A423B52380939F029093A002A093A102F8
:101B0000B093A2026830710534F480917E008C2B72
:101B100080937E000DC020917D00CB010897AF011E
:101B200002C0440F551F8A95E2F7242B20937D00B5
:101B3000DF91CF91089580917A00806480937A003C
:101B400080917A0086FDFCCF8091780090E0A0E043
:101B5000B0E040917900342F20E0442737FD4095D4
:101B6000542F282B392B4A2B5B2BB901CA0108951E
:101B700084B5836084BD85B5856085BD85B58D7F61
:101B800085BD089584B58C7F84BD85B58E7F85BD68
:101B90000895E0E8F0E0808182608083E1E8F0E091
:101BA00080818B61808387E893E1909387008093A5
:101BB00086000895E0E8F0E080818D7F8083E1E891
:101BC000F0E08081807E80830895CF93DF93EC01E5
:101BD00084309105FCF000D000D000D0EDB7FEB706
:101BE000319688EE96E5ADB7BEB712969C938E936C
:101BF000119783EA91E093838283D583C4830E9403
:101C000072228DB79EB706960FB6F8949EBF0FBE90
:101C10008DBF93C08130910529F1823091051CF46C
:101C2000009749F08AC08230910599F1833091057F
:101C300009F083C047C08091A3029091A402A091B3
:101C4000A502B091A60283709070A070B07000974A
:101C5000A105B10511F40E94B80D84B5806884BD5A
:101C6000279A48C08091A3029091A402A091A50256
:101C7000B091A60283709070A070B0700097A1051B
:101C8000B10511F40E94B80D84B5806284BD509AEC
:101C900031C0809180008068809380008091A30291
:101CA0009091A402A091A502B091A6028C709070B0
:101CB000A070B0700097A105B10511F40E94C90D84
:101CC000259A18C08091A3029091A402A091A50228
:101CD000B091A6028C709070A070B0700097A105B2
:101CE000B10511F40E94C90D80918000806280933B
:101CF0008000269A21E030E00C2E02C0220F331F14
:101D00000A94E2F7442737FD4095542F8091A302AF
:101D10009091A402A091A502B091A602822B932BD0
:101D2000A42BB52B8093A3029093A402A093A502A9
:101D3000B093A60220E030E002C02DEE3FEFC901D3
:101D4000DF91CF910895CF93DF93FC01843091050B
:101D50000CF100D000D000D0ADB7BEB7119680EC2A
:101D600096E5CDB7DEB79A8389838BE991E0139628
:101D70009C938E9312971596FC93EE9314970E9462
:101D800072228DB79EB706960FB6F8949EBF0FBE0F
:101D90008DBF5FC061E070E002C0660F771F8A955B
:101DA000E2F760957095882777FD8095982F2091B0
:101DB000A3023091A4024091A5025091A6022623CD
:101DC0003723482359232093A3023093A40240933E
:101DD000A5025093A602E130F10591F0E230F10541
:101DE0001CF4309741F035C0E230F105C9F0E33022
:101DF000F10579F51CC084B58F7784BD279804C0A0
:101E000084B58F7D84BD50982370307040705070C1
:101E10002115310541055105F9F40E94C20D1CC080
:101E2000809180008F7780938000259806C08091F4
:101E300080008F7D8093800026982C7030704070D9
:101E40005070211531054105510531F40E94DA0D1C
:101E500003C02DEE3FEF02C020E030E0C901DF916A
:101E6000CF91089584309105FCF000D000D000D0CF
:101E7000EDB7FEB7319628E936E5ADB7BEB7129695
:101E80003C932E9311972FE831E03383228395837F
:101E900084830E9472228DB79EB706960FB6F8947F
:101EA0009EBF0FBE8DBF1EC021E030E002C0220FDA
:101EB000331F8A95E2F7442737FD4095542F8091D0
:101EC000A3029091A402A091A502B091A60228239A
:101ED00039234A235B2361E070E021153105410578
:101EE000510511F460E070E0CB010895DF93CF93CA
:101EF00000D000D0CDB7DEB749835A836B837C8393
:101F000084309105FCF000D000D000D0EDB7FEB7D2
:101F1000319620E736E5ADB7BEB712963C932E93C7
:101F2000119727E831E033832283958384830E94CD
:101F300072228DB79EB706960FB6F8949EBF0FBE5D
:101F40008DBF34C08130910581F0823091051CF441
:101F5000009741F02BC08230910551F083309105FC
:101F600029F514C0898187BD1EC0898188BD1BC029
:101F700089819A81AB81BC81892F9A2FAB2FBB2796
:101F8000809389008981809388000DC089819A811E
:101F9000AB81BC81892F9A2FAB2FBB2780938B00FD
:101FA000898180938A0020E030E002C02DEE3FEF6F
:101FB000C9010F900F900F900F90CF91DF9108956E
:101FC000843091051CF100D000D000D0EDB7FEB7F1
:101FD000319628E436E5ADB7BEB712963C932E9302
:101FE00011972FE731E033832283958384830E9406
:101FF00072228DB79EB706960FB6F8949EBF0FBE9D
:102000008DBF2DEE3FEF4FEF5FEF24C08130910584
:1020100079F0823091051CF4009741F018C08230AD
:10202000910549F08330910591F40AC027B501C0AC
:1020300028B530E009C0209188003091890004C0A3
:1020400020918A0030918B0040E050E003C020E0F6
:1020500030E0A901B901CA010895289A239A80E0C5
:1020600090E0089580E48CBD8CB580688CBD80E0E4
:1020700090E008958CB58F778CBD8CB58F7B8CBD2F
:1020800008958091E3049091E404809590952091C7
:10209000E5043091E604820F931F8F709070242F17
:1020A000352F821793070CF49C0121153105F1F0AF
:1020B000862F972FFC0180E090E014C04091E3044C
:1020C0005091E4046191DA01A753BB4F5E966C9383
:1020D0005E974F5F5F4F4F7050705093E404409392
:1020E000E3040196821793074CF302C025EF3FEFFC
:1020F000C9010895EF92FF92CF93DF93CB016091D6
:10210000CD047091CE0420E130E0261B370BC09146
:10211000CB04D091CC04C20FD31FCF70D0704C171A
:102120005D070CF4EA012C173D070CF4E901209738
:1021300049F161537B4FAE010E943C248091CD0454
:102140009091CE048C0F9D1F8F7090709093CE0451
:102150008093CD041092E0041092DF042091CB0410
:102160003091CC04281B390B2F70307021153105AC
:1021700059F08EE292E066E776E047E050E00E9498
:10218000EC0502C0C5EFDFEFCE01DF91CF91FF90EC
:10219000EF900895CF93DF93C2EBD1E0CE0162E0E0
:1021A00070E040E050E00E9419069093B6048093DE
:1021B000B504CE0161E070E040E050E00E941906F5
:1021C0009093F8088093F70880E090E0DF91CF913A
:1021D0000895E1E6F0E080E8808310820E94D12338
:1021E0000E94E4250E94DF2480E090E00895EF92B1
:1021F000FF920F931F93DA01FC0184819581FC010A
:10220000E60FF71FE590F59005911491EC92119669
:10221000FC92119712960C93129713961C93139796
:1022200021153105C1F06C5F7F4F680F791FFB01ED
:10223000259135914591549114962C9314971596A8
:102240003C93159716964C93169717965C93179791
:1022500028E030E002C024E030E0C9011F910F9176
:10226000FF90EF900895CF93DF93FA01DC0116966B
:10227000CD91DC911797C60FD71F80819181A281E4
:10228000B38188839983AA83BB832115310559F0D3
:1022900084819581A681B7818C839D83AE83BF8322
:1022A00028E030E002C024E030E0C901DF91CF91A6
:1022B0000895EF92FF92CF93DF93EC0100D08BE96A
:1022C00097E5EDB7FEB7928381830E9472220F904B
:1022D0000F90209721F000D084E997E503C000D04B
:1022E0008EE897E5EDB7FEB7928381830E94722254
:1022F0000F900F90CE01DF91CF91FF90EF90089556
:10230000AC018BEB91E061E070E00E9419069C014A
:10231000009721F42091F7083091F808C901089539
:10232000EF92FF92CF93DF93E82EE7017E01F92E23
:10233000E701209759F1C7010E9480119983888392
:10234000009721F400D08AE797E518C08BEB91E065
:1023500062E070E0A7010E9419069B838A830097C0
:1023600031F48091B5049091B6049B838A838A816D
:102370009B81009771F400D085E697E5EDB7FEB735
:10238000928381830E9472220F900F902FEF3FEF74
:1023900002C020E030E0C901DF91CF91FF90EF90C3
:1023A0000895CF93DF93DA01EC01EC81FD812115D3
:1023B000310559F4E60FF71F859194918C9311968E
:1023C0009C93119722E030E009C06E0F7F1FCA0175
:1023D00048E050E00E94E72928E030E0C901DF91A1
:1023E000CF910895CF93DF93DA01EC01EC81FD8169
:1023F0002115310539F4E60FF71FE491EC9321E044
:1024000030E009C06E0F7F1FCA0148E050E00E9413
:10241000E72928E030E0C901DF91CF9108959B01C1
:10242000BA01FC0186819781820F931F48E050E03A
:102430000E943C2488E090E00895FB01BA01DC0191
:1024400016968D919C9117972115310559F4E80F37
:10245000F91FDA018D919C9111979183808322E07D
:1024600030E008C08E0F9F1F48E050E00E943C24DF
:1024700028E030E0C9010895FB01BA01DC0116969D
:102480008D919C9117972115310541F4E80FF91FA3
:10249000DA018C91808321E030E008C08E0F9F1F0D
:1024A00048E050E00E943C2428E030E0C901089553
:1024B0009B01FC0164817581620F731FCA0148E0B2
:1024C00050E00E943C2488E090E0089540E150E014
:1024D0000E94470797FF0BC000D08AE397E5EDB74E
:1024E000FEB7928381830E9472220F900F9008950D
:1024F000FC01A681B7810480F581E02D668177819A
:1025000012968D919C9113970E94661208958F9256
:102510009F92AF92BF92CF92DF92EF92FF920F9372
:102520001F93DF93CF93CDB7DEB7A4970FB6F89480
:10253000DEBF0FBECDBFDC0116960D911C91179723
:102540008091AB029091AC02009739F481E090E069
:102550009093AC028093AB0227C0F80184899589DF
:10256000009711F18091F9089091FA08A091FB0869
:10257000B091FC082091A7023091A802245F3F4F40
:10258000281B390B37FF10C000D08FE497E5ADB79B
:10259000BEB712969C938E9311970E947222F801F7
:1025A000158A148A0F900F908091F9089091FA087B
:1025B000A091FB08B091FC088093A7029093A80219
:1025C000A093A902B093AA02D801ED90FC901197B4
:1025D00094E0C92ED12CC00ED11E54968D919C91A1
:1025E0005597B601680F791F40E150E0481B590B21
:1025F000C7010E94EF06181619068CF0009749F4DF
:10260000C7010E94C306C8010E948011F80191838E
:102610008083D80155961C921E92549733C1F801BD
:1026200024893589280F391F358B248B20313105BA
:1026300008F428C1158A148A6681862F8E7182302B
:1026400009F020C1858182958F7061706295607FED
:10265000682B70E083E0660F771F8A95E1F7665D6F
:10266000744AFBE562357F0770F4CE01019648E0BD
:1026700050E00E94E729D80117968C91179790E0B7
:1026800086FD00C117C0F801828193812DEE3FEFD6
:102690004FEF5FEFD80118962D933D934D935C93C8
:1026A0001B9717962C911797206217962C931797C4
:1026B000B601E4C08F71907095958795A1E0EA2EE0
:1026C000F12C02C0EE0CFF1C8A95E2F7CC24DD242D
:1026D000AA24BB24F9E08F2E912C8C0E9D1E29C0BC
:1026E0006B817C816C0D7D1DC4014AE050E00E942D
:1026F000E729EB85FC858591949149855A85F801F8
:1027000024816581362F3F702417350758F02150FA
:1027100030402E0D3F1D41505040480F591F421769
:1027200053076CF40894A11CB11C8AE090E0C80E19
:10273000D91E89819A81A816B90694F28CC0D80155
:1027400017962C91179730E02078307069897A8934
:102750006115710521F1CE01439640E150E02BA3B4
:102760003CA30E94E729D8011796EC911797F0E057
:10277000CE0101962BA13CA1E0FD09C0EE71F070E5
:10278000E80FF91FC288D388A0E0B0E00CC03197F1
:10279000EE71F070E80FF91FA28DB38D02C0A0E0BA
:1027A000B0E0CC24DD244F815885BA01C8010496DD
:1027B000E0E1EE2EFC010190CF01FB010192BF018F
:1027C000EA94C1F7FA01838180648383C114D10440
:1027D00099F0D80114966C91149715968C91782FD6
:1027E0007F7089859A85681B790B4C5F5F4FCE019E
:1027F0000996F601099512C01097A1F0F8016481BD
:102800008581782F7F7089859A85681B790BA8014F
:10281000485F5F4FCE010996FD0109959C0197FF26
:1028200012C002C02FEF3FEFEF81F885D80112965A
:102830008D919C911397309521953F4F442737FDFB
:102840004095542F13C06F817885F8018281938160
:102850000E94661217C0EF81F885D80112968D91FB
:102860009C91139726E130E040E050E024833583CB
:1028700046835783238120622383BF0140E150E0D8
:102880000E944707A4960FB6F894DEBF0FBECDBFD7
:10289000CF91DF911F910F91FF90EF90DF90CF903C
:1028A000BF90AF909F908F9008959B0168E070E07B
:1028B0000E94072A6F5F7F4FFB01EE0FFF1FE60F9D
:1028C000F71F2115310551F092A121E030E002C03F
:1028D000220F331F8A95E2F7922B0AC092A121E0C2
:1028E00030E002C0220F331F8A95E2F72095922331
:1028F00092A3089568E070E00E94072A6F5F7F4FFF
:10290000FB01EE0FFF1FE60FF71F90A121E030E063
:1029100002C0220F331F8A95E2F7922321E030E0B4
:1029200011F420E030E0C901089568E070E00E94F1
:10293000072A6F5F7F4FFB01EE0FFF1FE60FF71FA8
:1029400090A121E030E002C0220F331F8A95E2F708
:10295000922321E030E011F420E030E0C901089535
:102960009C01FB014FB7F89460E270E00E94072AD7
:10297000660F771F660F771FE60FF71F8081918123
:10298000A281B3814FBF2F71307004C0B695A79557
:10299000979587952A95D2F79C0121703070C901CF
:1029A00008958FEF9FEF08958FEF9FEF08958FEFBA
:1029B0009FEF08958FEF9FEF08958FEF9FEF08959A
:1029C0008FEF9FEF0895AF92BF92CF92DF92EF9279
:1029D000FF920F931F93CF93DF935B01E42EE701E8
:1029E0007E01F52EE7012115310521F474E0C72E93
:1029F000D12C03C061E0C62ED12C00E010E018827B
:102A00007801EA0CFB1CC70163ED72E00E94B01470
:102A1000009719F0888182608883C7016BED72E0AE
:102A20000E94B014009719F0888181608883C701E3
:102A300063EE72E00E94B014009719F088818068FC
:102A400088830F5F1F4F0C151D0514F42196D7CFF7
:102A5000C601DF91CF911F910F91FF90EF90DF9012
:102A6000CF90BF90AF900895DC011496ED91FC914A
:102A7000159780819181A281B3812091C302309109
:102A8000C4024091C5025091C602822B932BA42B05
:102A9000B52B8093C3029093C402A093C502B09358
:102AA000C602108211821282138284819581A681CE
:102AB000B7812091C7023091C8024091C90250915C
:102AC000CA02822B932BA42BB52B8093C702909321
:102AD000C802A093C902B093CA021482158216825A
:102AE00017828091C3029091C402A091C502B09157
:102AF000C6020097A105B105B9F48091C702909173
:102B0000C802A091C902B091CA020097A105B105FF
:102B100059F400D08EE098E5EDB7FEB7928381833B
:102B20000E9472220F900F908AE29BE58A529B4589
:102B3000E3E095958795EA95E1F79093CC02809331
:102B4000CB0281E090E09093CE028093CD028EE89C
:102B500096E06BEC72E047E050E00E943C2608955E
:102B6000CF92DF92EF92FF920F931F93DF93CF9359
:102B7000CDB7DEB728970FB6F894DEBF0FBECDBF36
:102B80008B01D42EC52E0D531D4F2115310521F477
:102B9000B4E0EB2EF12C03C0A1E0EA2EF12CCE0123
:102BA000019663EC72E048E050E00E943C249601FC
:102BB000832F9C2DFC0180E090E0D8012C91219383
:102BC0001D928D0101968E159F05BCF389819A8116
:102BD000AB81BC810097A105B10549F48D819E812F
:102BE000AF81B8850097A105B10509F445C0809172
:102BF000C3029091C402A091C502B091C602009791
:102C0000A105B105C9F58091C7029091C802A091B4
:102C1000C902B091CA020097A105B10569F58AE21F
:102C20009BE58A529B45F3E095958795FA95E1F7E8
:102C30009093D0028093CF021092D2021092D102D0
:102C40008EE896E06FEC72E047E050E00E943C2690
:102C5000009791F000D000D08FE198E5EDB7FEB776
:102C6000928381838EEC91E0948383830E9472220D
:102C70000F900F900F900F90C70128960FB6F89401
:102C8000DEBF0FBECDBFCF91DF911F910F91FF909F
:102C9000EF90DF90CF900895AF92BF92CF92DF92E6
:102CA000EF92FF920F931F93CF93DF938B01211528
:102CB000310521F494E0C92ED12C03C081E0C82E47
:102CC000D12CE42EE7017E01F52EE701EE24FF244E
:102CD0005E01888181FF05C0C80163ED72E00E943A
:102CE0007109888180FF05C0C8016BED72E00E9408
:102CF0007109888187FF05C0C80163EE72E00E94F8
:102D000071092196F5016081C80170E00E945F0A97
:102D10009C0197FD09C00894E11CF11C0F5F1F4F37
:102D2000EC14FD04ACF29601C901DF91CF911F9123
:102D30000F91FF90EF90DF90CF90BF90AF900895EC
:102D40002F923F924F925F926F927F928F929F92BB
:102D5000AF92BF92CF92DF92EF92FF920F931F93A9
:102D6000DF93CF9300D000D000D0CDB7DEB73B01CA
:102D70008C01F3E0000F111FFA95E1F741155105A1
:102D800011F4290103C0E8E04E2E512CEE24FF245B
:102D90003E832D8392C0C70168E070E00E94072A3D
:102DA0009B014D815E814830510521F1C70160E1F1
:102DB00070E00E94072A5B01AA0CBB1CA60CB71C82
:102DC000C70160E270E00E94072A6B01CC0CDD1C99
:102DD000CC0CDD1CC60CD71C61E070E080E090E0FC
:102DE00069837A838B839C83882499241301220E20
:102DF000331E57C0F301E60FF71F4081C8018770EB
:102E00009070009799F6C8016D817E810E94072A13
:102E10006F5F7F4FFB01EE0FFF1FE60FF71F42A30F
:102E200046C08D819E818031910559F08032910597
:102E300071F08830910509F045C0D1018C9190E086
:102E400003C0F50180819181A0E0B0E005C0F601EA
:102E500080819181A281B3819401200F311F49812A
:102E60005A816B817C8184239523A623B72361E05B
:102E700070E00097A105B10511F460E070E0C901B0
:102E80000E9455140894811C911C69817A818B8160
:102E90009C81660F771F881F991F69837A838B83B4
:102EA0009C838D819E81881699060CF4BACFAD81E2
:102EB000BE81EA0EFB1E0A0F1B1FE414F5040CF47E
:102EC0006ACF04C02AEE422E2FEF522EC201269660
:102ED0000FB6F894DEBF0FBECDBFCF91DF911F912B
:102EE0000F91FF90EF90DF90CF90BF90AF909F90A9
:102EF0008F907F906F905F904F903F902F900895AC
:102F0000CB01BA01A90128E030E00E94A016089583
:102F1000CB01BA01A90120E130E00E94A01608957A
:102F2000CB01BA01A90120E230E00E94A016089569
:102F3000CB01BA01A90128E030E00E94A016089553
:102F4000CB01BA01A90128E030E00E94A016089543
:102F50002F923F924F925F926F927F928F929F92A9
:102F6000AF92BF92CF92DF92EF92FF920F931F9397
:102F7000DF93CF9300D000D0CDB7DEB73B013C83C9
:102F80002B838C0163E0000F111F6A95E1F7411557
:102F9000510511F4290103C028E0422E512CCC2404
:102FA000DD2428E030E08FC0C601B9010E94072A65
:102FB0001B01F301E60FF71F8B819C818031910586
:102FC000E9F080329105F1F08830910519F5C801DA
:102FD00087709070009781F4C8016B817C810E949A
:102FE000072A6F5F7F4FDB01AA0FBB1FA60FB71F1A
:102FF00090968C91909701C08AEE8083AAEDBFEFE6
:10300000B183A0838AED9FEFAFEFBFEF8083918301
:10301000A283B383882499245401EE24FF241CC086
:10302000C701800F911F29833A830E947A14AA272F
:1030300097FDA095BA2F0E2C04C0880F991FAA1FC8
:10304000BB1F0A94D2F7882A992AAA2ABB2A089475
:10305000E11CF11C3A812981AB81BC81EA16FB0697
:10306000FCF2A031B10559F0A032B105A9F0A830A9
:10307000B10571F5F301E20DF31D80821EC0C6019A
:103080006B817C810E94072A660F771F660D771D72
:10309000FB019182808211C0C6016B817C810E94FC
:1030A000072A660F771F660F771F660D771DDB01F6
:1030B0008D929D92AD92BC921397EB81FC81CE0EC6
:1030C000DF1E0E0F1F1FC414D5040CF46DCF04C0F7
:1030D000AAEE4A2EAFEF5A2EC2010F900F900F901A
:1030E0000F90CF91DF911F910F91FF90EF90DF90A4
:1030F000CF90BF90AF909F908F907F906F905F9098
:103100004F903F902F900895CB01BA01A90128E07C
:1031100030E00E94A8170895CB01BA01A90120E16F
:1031200030E00E94A8170895CB01BA01A90120E25E
:1031300030E00E94A81708956F927F928F929F921D
:10314000AF92BF92CF92DF92EF92FF920F931F93B5
:10315000DF93CF93CDB7DEB728970FB6F894DEBFD5
:103160000FBECDBF4C01762E672E8A017901411525
:10317000510519F4C22EDF2C03C078E2C72ED12CE2
:10318000C4015E010894A11CB11CB501A8019701FE
:103190000E94A81797FD1EC0C60168E070E00E945B
:1031A000072AC301E92FF62DD50180E090E005C084
:1031B00031912C91232B2D93019686179707C4F3F9
:1031C000C401BE016F5F7F4FA70198010E94A01646
:1031D0009C0102C02FEF3FEFC90128960FB6F8946B
:1031E000DEBF0FBECDBFCF91DF911F910F91FF903A
:1031F000EF90DF90CF90BF90AF909F908F907F9097
:103200006F900895CB01BA01A90120E130E00E943E
:103210009C180895CB01BA01A90120E230E00E9478
:103220009C1808956F927F928F929F92AF92BF9257
:10323000CF92DF92EF92FF920F931F93DF93CF9382
:10324000CDB7DEB728970FB6F894DEBF0FBECDBF5F
:103250004C01762E672E8A0179014115510519F42A
:10326000C22EDF2C03C0E8E2CE2ED12CC4015E01B9
:103270000894A11CB11CB501A80197010E94A817D0
:1032800097FD1EC0C60168E070E00E94072AC301D6
:10329000E92FF62DD50180E090E005C031912C9109
:1032A000232B2D93019686179707C4F3C401BE0103
:1032B0006F5F7F4FA70198010E94A0169C0102C07A
:1032C0002FEF3FEFC90128960FB6F894DEBF0FBE6F
:1032D000CDBFCF91DF911F910F91FF90EF90DF90C5
:1032E000CF90BF90AF909F908F907F906F900895F8
:1032F000CB01BA01A90120E130E00E941219089522
:10330000CB01BA01A90120E230E00E941219089510
:103310002F923F924F925F927F928F929F92AF92A5
:10332000BF92CF92DF92EF92FF920F931F93CF93B2
:10333000DF931C01F62FE72FC9014115510531F428
:1033400068E070E00E94072A7B0103C018E0E12ECC
:10335000F12CCF01892E9E2E00E010E0B1E0AB2EC3
:10336000B12C39C0F40141904F015524C201837042
:1033700090708330910599F16801C20CD31CC6018D
:103380000E947A149C01C60168E070E00E94072A3E
:10339000782E6F5F7F4FEB01CC0FDD1FC60FD71F5D
:1033A000C601B9010E94551441FE09C029A1C501F9
:1033B00002C0880F991F7A94E2F7282B09C029A12F
:1033C000C50102C0880F991F7A94E2F780952823DF
:1033D00029A30F5F1F4F0E151F0524F204C0FAEE3C
:1033E000EF2EFFEFFF2EC701DF91CF911F910F91BD
:1033F000FF90EF90DF90CF90BF90AF909F908F9015
:103400007F905F904F903F902F900895CB01BA012D
:10341000A90128E030E00E9488190895CB01BA0183
:10342000A90120E130E00E9488190895CB01BA017A
:10343000A90120E230E00E9488190895CF92DF921E
:10344000EF92FF920F931F93CF93DF937C01F62FA0
:10345000E72FC9014115510531F468E070E00E9481
:10346000072A9B0102C021E030E0CF01C92EE6010E
:103470006E01DE2EE601E0E0F0E008E010E01DC0A5
:10348000CF018E0D9F1DB8010E94072A6F5F7F4FED
:10349000DB01AA0FBB1FA60FB71F91964C91919706
:1034A00050E002C0559547958A95E2F740FF02C06B
:1034B00082E001C081E089933196E217F30704F3BB
:1034C000C901DF91CF911F910F91FF90EF90DF9095
:1034D000CF900895CB01BA01A90128E030E00E9405
:1034E0001E1A0895CB01BA01A90120E130E00E9423
:1034F0001E1A0895CB01BA01A90120E230E00E9412
:103500001E1A08958AEE9FEF089580917A009927F8
:1035100087FD9095A92FB92F8827B7FD8395992707
:10352000AA27BB27FA0180839183A283B38380E01B
:1035300090E00895FA0180819181A281B381009782
:10354000A105B10531F00E94DE0C80917A008068FF
:1035500003C080917A008F7780937A0080E090E0BA
:103560000895EF92FF920F931F93DF93CF9300D0B4
:1035700000D0CDB7DEB78A01CB01E6E096958795FE
:10358000EA95E1F76F7370706C30710509F45EC0F5
:103590006D30710558F46430710551F16830710572
:1035A00009F441C06115710571F07FC06431710586
:1035B00009F478C06831710509F474C0603171058F
:1035C00009F073C057C021E4298324E42A836AE008
:1035D00070E00E94F329605D6B83805D8C83C8017D
:1035E000BE016F5F7F4F44E050E00E943C245AC010
:1035F000FC01EE0FFF1FE80FF91FEE0FFF1FE05F4A
:10360000F94A808190E0880F991F21E030E04181E4
:10361000442311F420E030E0822B932BAA2797FD5E
:10362000A095BA2F0DC0FC01EE0FFF1FE80FF91F88
:10363000EE0FFF1FE05FF94A82819381A481B5817B
:10364000F80180839183A283B3832CC020917A00F8
:1036500027FF2EC00E94F60C7C01009761F10E94AA
:103660009B0DF8016083718382839383C7010E945D
:103670004F0D18C020919F023091A0024091A102ED
:103680005091A20204C056954795379527958A9583
:10369000D2F72170307040705070F8012083318370
:1036A0004283538320E030E008C02AEE3FEF05C09C
:1036B00023EF3FEF02C020EF3FEFC9010F900F90C3
:1036C0000F900F90CF91DF911F910F91FF90EF908E
:1036D0000895FA01CB0126E0969587952A95E1F7A2
:1036E0006F7370706830710521F06C30710591F462
:1036F00007C040815181628173810E94760F05C0AD
:10370000208120FF04C00E94E50D9C0105C00E949D
:10371000A30EFBCF2AEE3FEFC90108950F931F932D
:10372000DF93CF9300D000D0CDB7DEB78A01CB01B5
:1037300036E0969587953A95E1F76F73707064302F
:10374000710519F16530710520F46115710541F0BD
:1037500044C06830710531F16C307105F1F52CC051
:1037600020E5298327E52A836AE070E00E94F32997
:10377000605D6B83805D8C83C801BE016F5F7F4F8E
:1037800044E050E00E943C2414C08C5B994AFC0148
:10379000808190E0A0E0B0E0FA0180839183A28371
:1037A000B38307C00E94E00FF801608371838283B6
:1037B000938320E030E013C00E94320F21E030E01C
:1037C00040E050E0009719F420E030E0A901F80152
:1037D0002083318342835383ECCF2AEE3FEFC9012C
:1037E0000F900F900F900F90CF91DF911F910F913D
:1037F000089521153105A9F4CB01837090700097CD
:1038000099F46C7F6C517E4FFB0180819181A28184
:10381000B381FA0180839183A283B38324E030E0F3
:1038200005C02FEF3FEF02C02AEE3FEFC901089518
:10383000009711F0769A08957698089580E090E0C8
:103840000E94181C6E9A80E090E0089521E030E01C
:10385000009711F420E030E0C9010E94181C08957F
:10386000EF92FF920F931F93FA012115310509F092
:1038700086C06830710541F06C30710509F446C0AE
:103880006430710509F07BC02091E4013091E501BD
:103890004091E6015091E701E080F18002811381BF
:1038A0008091E8019091E901A091EA01B091EB01CA
:1038B0006430710529F4E82AF92A0A2B1B2B08C069
:1038C000E094F09400951095E822F9220A231B2336
:1038D000E092E801F092E9010093EA011093EB0114
:1038E000E094F094009510958091F4019091F50189
:1038F000A091F601B091F701E822F9220A231B23D7
:10390000E216F3060407150731F53CC08091E40187
:103910009091E501A091E601B091E701E080F1808E
:1039200002811381E094F09400951095E822F92229
:103930000A231B232091F4013091F5014091F601F7
:103940005091F701E22AF32A042B152BE816F90609
:103950000A071B07B9F081E090E0E114F1040105CA
:10396000110511F480E090E00E94261CE092E40131
:10397000F092E5010093E6011093E70103C02FEFF9
:103980003FEF02C024E030E0C9011F910F91FF908A
:10399000EF900895EF92FF920F931F93DC0114961E
:1039A000ED91FC911597808191818032910508F00D
:1039B0008DC0E090F401F090F5010091F6011091B6
:1039C000F70161E070E002C0660F771F8A95E2F7A9
:1039D000CB0180959095AA2797FDA095BA2F8E21AF
:1039E0009F21A023B1238093F4019093F501A0932C
:1039F000F601B093F701228133812115310589F059
:103A00009B01442737FD4095542F282B392B4A2BF7
:103A10005B2B2093F4013093F5014093F601509312
:103A2000F7018091F4019091F501A091F601B09118
:103A3000F701E816F9060A071B0709F447C0E090EA
:103A4000E801F090E9010091EA011091EB01A80171
:103A500097012095309540955095282339234A2386
:103A60005B238091E4019091E501A091E601B09182
:103A7000E701281739074A075B0741F12093E40162
:103A80003093E5014093E6015093E701211531059C
:103A90004105510581F0882777FD8095982F6E2983
:103AA0007F29802B912B6093E8017093E90180932B
:103AB000EA019093EB0181E090E021153105410589
:103AC000510511F480E090E00E94261C1F910F9197
:103AD000FF90EF900895CF93DF939B01FA0168E088
:103AE00070E00E94072A6F5F7F4FDB01AA0FBB1FA8
:103AF000A60FB71FBD016E5F7F4FED01219641E01C
:103B000050E002C0440F551F8A95E2F7309729F024
:103B100092968C919297842B06C092968C91929754
:103B2000942F9095892392968C9392972115310525
:103B300019F088A1842B07C0FB0180A1842B80A3EE
:103B400088A14095842388A3DF91CF910895CF93D6
:103B5000DF93EC0181E190E061E070E0AE010E9452
:103B60006B1D209741F081E190E060E070E041E062
:103B700050E00E946B1DDF91CF910895CF93DF93AA
:103B8000EC0180E190E061E070E0AE010E946B1D0D
:103B9000209741F080E190E060E070E041E050E08B
:103BA0000E946B1DDF91CF91089580939B03882322
:103BB00061F0843051F0893041F082E996E060E0B4
:103BC00070E047E050E00E943C2608958AE49BE5BF
:103BD0008A529B4533E0959587953A95E1F7909306
:103BE0009D0380939C0381E090E090939F038093DA
:103BF0009E038EE896E06CE973E047E050E00E9497
:103C00003C26009759F000D08DED99E5EDB7FEB751
:103C1000928381830E9472220F900F900895AF9239
:103C2000BF92CF92DF92EF92FF920F931F93CF93A9
:103C3000DF935C016B017A012115310519F008E071
:103C400010E002C004E010E0C0E0D0E0FE01EC7F34
:103C5000EE0DFF1D80819181A281B381F50120814C
:103C600031812C0D3D1D2C0F3D1F2C31310509F4E8
:103C700046C02D313105A8F42031310509F458C072
:103C80002131310528F42830310509F058C01BC016
:103C90002431310509F44CC02831310509F04FC0F9
:103CA00017C02832310571F12932310528F4243248
:103CB000310509F044C026C02C32310541F12833CA
:103CC0003105E9F52CC09093100380930F0330C0A9
:103CD00081709070009761F18091150381FD32C071
:103CE00082608093150382E996E060E070E047E02F
:103CF00050E00E943C269C0197FF1AC025C080938B
:103D0000160316C0909312038093110311C0809381
:103D1000990380919B03843059F483E007C080931A
:103D2000980380919B03893019F488E00E94D51D87
:103D30002496C017D10708F489CF980105C02FEF4A
:103D40003FEF02C020EF3FEFC901DF91CF911F91FC
:103D50000F91FF90EF90DF90CF90BF90AF900895BC
:103D60002F923F924F925F926F927F928F929F928B
:103D7000AF92BF92CF92DF92EF92FF920F931F9379
:103D8000DF93CF9300D000D0CDB7DEB79A8389837D
:103D90002B013A012115310519F008E010E002C0AD
:103DA00004E010E08AE49BE58A529B4573E0959518
:103DB00087957A95E1F7382E292E20E030E060E8EB
:103DC000C62ED12CE12CF12C50EAA52E53E0B52EB5
:103DD00043E0842E4AE5942EF901EC7FE60DF71DB1
:103DE000A981BA818D919C911197840D951D820FA7
:103DF000931F8032910509F48FC081329105E0F460
:103E00008031910509F480C08131910540F48830FA
:103E1000910579F18C30910509F0A1C02FC088314E
:103E2000910509F471C08C31910509F472C0843197
:103E3000910509F094C068C08C32910509F471C0F5
:103E40008D32910548F48432910509F477C08832A7
:103E5000910509F084C072C08433910509F467C0EC
:103E60008833910509F466C08033910509F077C065
:103E70005BC080910F039091100364C08091150383
:103E800090E0A0E0B0E080839183A283B3830097A9
:103E9000A105B10509F45CC03092A003F5012182AF
:103EA0001092A3031092A2038EE896E060EA73E0FA
:103EB00047E050E02B833C830E943C262B813C81D1
:103EC000009779F000D0ADB7BEB712969C928E9253
:103ED00011972B833C830E9472220F900F903C819C
:103EE0002B8180919B03843099F1893089F182E99B
:103EF00096E061E070E047E050E02B833C830E9455
:103F00003C262B813C8124C01082118212821382B4
:103F10001FC08091160310C0C082D182E282F3825A
:103F200017C08091990308C080919A0305C08091C1
:103F3000970302C08091980390E004C08091110320
:103F400090911203A0E0B0E080839183A283B383B9
:103F50002C5F3F4F2017310708F43ECF02C00FEF10
:103F60001FEFC8010F900F900F900F90CF91DF912E
:103F70001F910F91FF90EF90DF90CF90BF90AF9087
:103F80009F908F907F906F905F904F903F902F9079
:103F9000089580E090E00E94BE1D80910B039091F7
:103FA0000C0362E070E00E94072ACB010E94B22558
:103FB000089581E090E00E94A71D80910B039091ED
:103FC0000C03019662E070E00E94072ACB010E9478
:103FD000B2250895EF92FF920F931F9381E090E036
:103FE0000E94BE1DE090F908F090FA080091FB08CD
:103FF0001091FC0812C08091F9089091FA08A091E4
:10400000FB08B091FC0820910D0330910E032E0D9A
:104010003F1D281B390B37FD0FC080E190E00E9447
:104020009514009741F380910B0390910C030E942B
:10403000B22520E030E002C022E93FEFC9011F9124
:104040000F91FF90EF900895EF92FF920F931F93BF
:10405000CF93DF93C7E0D0E0082F10E0E2E0EE2E30
:10406000F12CC8010C2E02C0959587950A94E2F7B1
:10407000817090700E94A71D80910B0390910C039A
:104080000196B7010E94072ACB010E94B2250E9427
:10409000EA1F97FD19C00E94C91F21973FEFCF3F2C
:1040A000D307F9F60E94D91F0E94EA1F97FD0CC0A2
:1040B00081E190E00E949514EC010E94C91F2097B5
:1040C00031F420E030E005C022E93FEF02C02FEFDD
:1040D0003FEFC901DF91CF911F910F91FF90EF90BA
:1040E00008951F93182F80E090E00E94A71D8091F3
:1040F0000B0390910C03019662E070E00E94072A86
:10410000CB010E94B2250E94EA1F81E090E00E944C
:10411000A71D80910B0390910C030E94B225109370
:104120001503113011F08BE001C080E080939B03F8
:104130000E94E61D1F910895EF92FF920F931F9327
:10414000CF93DF93DC0114962C911497222339F03E
:10415000213009F034C11092150380E029C18AEFA3
:1041600090E090930E0380930D03EBE0F3E08AE080
:1041700090E090930C0380930B0380919B03853018
:1041800009F470C0863050F4813019F1813098F014
:10419000823039F1833009F027C12CC0873009F40F
:1041A00082C0873008F474C0883009F47FC08A3038
:1041B00009F01AC100C180E090E00E94A71D809123
:1041C0000B0390910C030E94B2250E94C91F81E04D
:1041D000EFC080910F030E94242097FD60C082E011
:1041E000E7C08091110390911203009741F111866D
:1041F000108634C0E0919A03F0E0E55FFC4F8485BF
:104200000E94242097FD4BC020911303309114038A
:104210002F5F3F4F309314032093130360919A0351
:104220006F5F6F7760939A0340911103509112036F
:10423000809199032417350721F480939A0385E030
:10424000B7C090E0861B91098F77907084309105FC
:1042500019F40E94E61D02C0009711F083E0A8C087
:1042600084E0A6C080910F0380FFA5C00E94D91FE3
:104270000E94EA1F80E090E00E94A71D80910B033E
:1042800090910C030E94B2250E94C91F86E090C045
:1042900080910F0381600E94242097FF02C080E874
:1042A0008BC087E085C0118610867FC00091130304
:1042B00010911403C801019691878087055F1C4FF8
:1042C000F80114860E94D91FC0E0D0E0045F1F4FA0
:1042D000F2E0EF2EF12C0E94EA1F97FD28C0D801D2
:1042E0008C91880F8C9381E190E00E949514009747
:1042F00021F0F80180818160808380E090E00E945D
:10430000BE1DC730D10549F480910B0390910C0379
:10431000B7010E94072ACB0104C080910B03909142
:104320000C030E94B2252196C830D105A1F6C1E048
:10433000D0E02091130330911403809111039091E8
:1043400012032817390711F0C0E0D0E0209721F4BC
:1043500080E090E00E94A71D80910B0390910C03D8
:10436000019662E070E00E94072ACB010E94B2250C
:104370000E94EA1F97FD02C00E94C91F209711F0FA
:104380008AE016C08091970390E0809590952091E7
:104390009803820F911D8F7790708C31910519F4DD
:1043A0000E94E61D02C0009711F088E001C089E07C
:1043B0000E94D51D19C081E00E94712015C000D057
:1043C00000D0EDB7FEB731968AEB99E5ADB7BEB731
:1043D00012969C938E931197228313820E947222CD
:1043E0000F900F900F900F90DF91CF911F910F9131
:1043F000FF90EF90089500005353004B43534953EF
:104400004F4D4F53494D00384F4900394F493031D6
:104410004F4931314F490000434E0000434E0000E8
:10442000434E0000434E0000434E0000434E000048
:10443000354433314F49004C4353004144533144D8
:1044400058523144585400003444444C585432318A
:104450004F49000036440000434E0000434E42578F
:1044600048230000434E0000434E0000434E4B489B
:1044700053480000434E0000354100003441000025
:10448000434E0000434E0000334100003241000023
:104490003141000030410F931F93CF93DF939C0174
:1044A000AB01C4EAD3E0CE01B9010E9480228C01A5
:1044B000CE010E94C824C801DF91CF911F910F91B6
:1044C0000895DF93CF93CDB7DEB79E01275F3F4FAF
:1044D0008D819E816F817885A9010E948022CF9174
:1044E000DF910895DF93CF93CDB7DEB7FE01359608
:1044F00081919191BF010E944B22CF91DF9108954C
:104500002F923F924F925F926F927F928F929F92E3
:10451000AF92BF92CF92DF92EF92FF920F931F93D1
:10452000DF93CF93CDB7DEB762970FB6F894DEBFB7
:104530000FBECDBF1C014E010894811C911C8C0143
:10454000FB0106C1853229F531E0A32EB12C20E212
:10455000422E512C9AE0C92ED12C9501DA0103C0CC
:1045600080E3482E512C31968491893609F466C037
:104570008A36D8F4883509F457C0893588F48A32E8
:1045800061F18B3250F4882309F4E6C0853249F595
:10459000AD01D8018D938D01DAC0803311F5E0CFE4
:1045A000833649F18436E9F449C08037E9F181372F
:1045B00030F48E3609F4CAC08F3699F42EC0853790
:1045C000E9F1883789F1833761F4AD014E5F5F4FC0
:1045D0008D919C91BF01DA0119C0CD90DC901197AB
:1045E0001296982F9153993008F0BDCF282F30E0C4
:1045F00020533040B8CFAD018C91D8018D938D01FF
:104600004E5F5F4FA4C0F80121938F01FC012191FF
:10461000CF012223C1F7FB0199C05901AD01BAE0D6
:10462000CB16D10439F00CC05901AD0170E1C72E91
:10463000D12C06C068E0C62ED12C02C05901AD01B4
:10464000CA0102969A8B898BDA018D919C91119700
:1046500097FF0BC0BAE0CB16D10439F49095819541
:104660009F4F31E0E32EF12C02C0EE24FF2421E124
:10467000622E712C6C0E7D1E20E130E0AF01F30143
:1046800038018A010BC021503040B6010E94F32945
:10469000DC01A850BE4F8C918293CB01009731F082
:1046A0002115310581F7F801830109C0F801830163
:1046B0002031310521F420E3288B2FE030E0E11494
:1046C000F10489F080E24816510451F42150304041
:1046D000D401A20FB31F9DE29C93EE24FF2403C0DC
:1046E00081E0E82EF12CD401A20FB31F80E190E00D
:1046F0008A199B098E0D9F1D03C0215030404E9298
:1047000082179307D4F3E114F10439F021503040BB
:10471000D401A20FB31F8DE28C9340E150E0421B05
:10472000530BC401820F931FD8017F0106C0FC0107
:104730006191CF016D932F5F3F4F20313105BCF365
:10474000F701040F151F49895A8901C0AD0131963F
:104750008491882309F0F6CE9801D8011C92221981
:104760003309C90162960FB6F894DEBF0FBECDBF04
:10477000CF91DF911F910F91FF90EF90DF90CF903D
:10478000BF90AF909F908F907F906F905F904F9071
:104790003F902F90089582E189BD09B400FEFDCFBE
:1047A000089584E085BD8AEF87BD81E080936E0027
:1047B000089580EA8093D800089580E98093D80016
:1047C000089581E88093D7000895262F372FD901C7
:1047D000282F392FF9012D9121932223E1F70895F4
:1047E000FC019F0141914423E1F7281B390BC901CA
:1047F0000895462F572FFC019F014115510529F0BF
:104800006191415050406623B9F7281B390BC9010B
:104810000895FC01DB0181919D91891729F0891789
:1048200040F42FEF3FEF07C08823A9F720E030E0E6
:1048300002C021E030E0C9010895282F392FD901A5
:10484000862F972FFC010DC08D919191891729F02A
:10485000891758F42FEF3FEF0DC0882349F04150DE
:1048600050404115510581F703C021E030E002C0FE
:1048700020E030E0C9010895CF93DF939C01DC0173
:10488000FB01CB01822B932B80FD1DC0DB01F901C5
:10489000CA0105C0CD91DD91C193D19302978230B9
:1048A0009105C0F7FA01F695E795CF01880F991F9A
:1048B000481B590BFC01D901A80FB91FE60FF71FC0
:1048C00002C081918D93415050408FEF4F3F580768
:1048D000C1F7C901DF91CF910895EF92FF920F9335
:1048E0001F939C0120FD24C0CB01AA2797FDA09512
:1048F000BA2F9070A070B070EE24F82E092F1A2FE6
:10490000E82AF92A0A2B1B2BF901CA0103C0E192FC
:10491000F192029782309105D0F7CA01969587955A
:10492000FC01EE0FFF1F4E1B5F0BCF01820F931F89
:10493000FC0101C06193415050408FEF4F3F580739
:10494000C9F7C9011F910F91FF90EF900895089545
:10495000DF93CF9300D0CDB7DEB79A8389838A30B7
:10496000910521F48DE090E00E94A8248091B50487
:104970009091B604009739F0BE016F5F7F4F41E020
:1049800050E00E9447070F900F90CF91DF9108955C
:10499000EF92FF92CF93DF93E82EE7017E01F92E8D
:1049A000E70103C090E00E94A82489918823D1F7F1
:1049B00080E090E0DF91CF91FF90EF900895EF922B
:1049C000FF920F931F93CF93DF93C8E0D1E008E6E7
:1049D0001AE51FC0E991F99109950097D1F000D02F
:1049E00000D000D0EDB7FEB73196ADB7BEB7129686
:1049F0001C930E931197E282F382958384830E9425
:104A000072228DB79EB706960FB6F8949EBF0FBE62
:104A10008DBF7E0191E0C631D907E0F2C8E0D1E058
:104A200008E61AE51FC0E991F99109950097D1F0C0
:104A300000D000D000D0EDB7FEB73196ADB7BEB70D
:104A400012961C930E931197E282F38295838483CE
:104A50000E9472228DB79EB706960FB6F8949EBF3D
:104A60000FBE8DBF7E0191E0C830D907E0F280E033
:104A700090E0DF91CF911F910F91FF90EF900895FB
:104A8000FC016091F9087091FA088091FB089091FF
:104A9000FC086F5F7F4F8F4F9F4F2091F908309137
:104AA000FA084091FB085091FC0826173707480781
:104AB000590799F72E2F3F2F02C021503040121670
:104AC0001306DCF32091F9083091FA084091FB08B5
:104AD0005091FC08261B370B480B590BC901089550
:104AE000CF92DF92EF92FF920F931F93CF93DF93BA
:104AF00000E012E0C0E0D2E004C00C0F1D1FCC0F9C
:104B0000DD1FC8010E9440250097B9F31595079550
:104B10007E01F594E794F594E79482E0C82ED12CB9
:104B20000FC0E701C00FD11FCE010E9440250097A2
:104B300009F0E801C701B6010E94072A7B018E0136
:104B4000E114F10471F7109309040093080480E064
:104B500090E0DF91CF911F910F91FF90EF90DF9048
:104B6000CF9008959C01E0910804F091090440E180
:104B700057E2E49FC001E59F900DF49F900D112432
:104B800060EA7FE00E94072A06C0019718161906FE
:104B9000E4F32051374287E22131380718F0862F9D
:104BA000972FF4CF2E9FC0012F9F900D3E9F900D09
:104BB000112460EA7FE00E94F32902C06150704036
:104BC00016161706DCF30895EF92FF920F931F93CA
:104BD000CF93DF93CEE5D6E082EAE82E84E0F82E8C
:104BE00038C080EB94E0BE0144E050E00E94E72929
:104BF0000091B0041091B10424C088EA94E0B80197
:104C000048E050E00E94E7296091AA047091AB044B
:104C100082EA94E046E050E00E94E729F092AB047B
:104C2000E092AA04D093A904C093A804E091A2043E
:104C3000F091A304309719F088EA94E00995085F91
:104C40001F4F8091B2049091B30408171907A9F679
:104C5000249686E0C639D80720F280E290E090934F
:104C60000F0480930E0480E090E0DF91CF911F91BC
:104C70000F91FF90EF9008951F931FB7F894E09164
:104C80000A04F0910B0440910E0450910F0441501E
:104C900050409F0120953095A0910C04B0910D04D7
:104CA0002A0F3B1F242335232115310521F41FBF73
:104CB00024EF3FEF16C09F012F5F3F4F2423352382
:104CC00030930B0420930A041FBFEE0FFF1FEE0F5B
:104CD000FF1FE05FFB4F738362839183808320E03B
:104CE00030E0C9011F910895AF92BF92CF92DF9239
:104CF000EF92FF920F931F93CF93DF9300910E04D7
:104D000010910F040150104080910A0490910B04FF
:104D100020910C0430910D04821B930B082319235E
:104D2000CC24DD2440E9A42E44E0B42E5AC0C09126
:104D30000C04D0910D04CC0FDD1FCC0FDD1FC05F24
:104D4000DB4F699179918EE994E044E050E00E9454
:104D5000E729E0909E04F0909F0428C086E994E043
:104D6000B70148E050E00E94E729609198047091F3
:104D7000990480E994E046E050E00E94E729B0926F
:104D80009904A09298048881998190939B048093C0
:104D90009A04E0919204F0919304309719F086E917
:104DA00094E0099588E090E0E80EF91E8091A00457
:104DB0009091A104E816F90689F680910E0490916D
:104DC0000F04019720910C0430910D042F5F3F4F89
:104DD0008223932390930D0480930C040894C11CA8
:104DE000D11CC016D1060CF4A2CFDF91CF911F9138
:104DF0000F91FF90EF90DF90CF90BF90AF9008950C
:104E000020E030E067E070E040E054E0FB01E21BAE
:104E1000F30BDA0102C0B595A795EA95E2F7A8175A
:104E2000B9073CF42F5F3F4F2830310579F72FEF5A
:104E30003FEFC9010895CF93DF93062E02C09595E9
:104E400087950A94E2F780509F4F48E050E0461B58
:104E5000570B21E030E002C0220F331F4A95E2F7E2
:104E6000821B930BEFB7F89460E270E00E94072A70
:104E7000EB01CC0FDD1FCC0FDD1FC350D74F21E05E
:104E800030E040E050E004C0220F331F441F551FA4
:104E90008A95D2F7209530954095509588819981D3
:104EA000AA81BB8182239323A423B523888399837A
:104EB000AA83BB83EFBFDF91CF910895CF93DF9398
:104EC000062E02C0959587950A94E2F780509F4F71
:104ED00048E050E0461B570B21E030E002C0220FB3
:104EE000331F4A95E2F7821B930BEFB7F89460E209
:104EF00070E00E94072AEB01CC0FDD1FCC0FDD1FF5
:104F0000C350D74F21E030E040E050E004C0220F12
:104F1000331F441F551F8A95D2F788819981AA8132
:104F2000BB81822B932BA42BB52B88839983AA83D7
:104F3000BB83EFBFDF91CF910895DF93CF9300D074
:104F4000CDB7DEB7FC01EE0FFF1FE653F54A259102
:104F50003491C9010F900F90CF91DF9108954F9236
:104F60005F926F927F928F929F92AF92BF92CF92F9
:104F7000DF92EF92FF920F931F93DF93CF93CDB702
:104F8000DEB764970FB6F894DEBF0FBECDBF7C01CD
:104F90004B010E949D276C015701AA0CBB1CB50157
:104FA0006652754ACE01019642E050E00E94E72920
:104FB00069817A818E010B5F1F4F980140E050E0BC
:104FC00010C0FB0185919591A591B491F901808361
:104FD0009183A283B3832C5F3F4F4F5F5F4F6C5F22
:104FE0007F4F4C155D056CF388E090E08E199F09AA
:104FF00021E030E002C0220F331F8A95E2F780E003
:1050000091E0821B930B60E270E00E94072AFB0193
:10501000EE0FFF1FEE0FFF1FE350F74F60E070E051
:1050200073C04190519061907190D8012D913D9144
:105030004D915D918D012421352146215721211566
:1050400031054105510509F45DC0F501E651F54A08
:10505000859194918B839C83AB81BC81CA01B901FA
:1050600080709070611571058105910531F49A0188
:1050700044275527E1E1F0E002C0E1E0F0E022231F
:1050800029F4232F342F452F55273896CA01B9010B
:105090006F70707080709070611571058105910559
:1050A00041F474E056954795379527957A95D1F751
:1050B0003496CA01B9016370707080709070611588
:1050C00071058105910541F462E056954795379544
:1050D00027956A95D1F7329620FF3196A095B09525
:1050E000AE0FBF1F02C0AA0FBB1FEA94E2F7F40184
:1050F000B183A08343E0AA0FBB1F4A95E1F7A950F3
:10510000BB4F08C06F5F7F4F6C157D050CF489CFD6
:10511000A0E0B0E0CD0164960FB6F894DEBF0FBEFC
:10512000CDBFCF91DF911F910F91FF90EF90DF9056
:10513000CF90BF90AF909F908F907F906F905F9037
:105140004F900895CF92DF92EF92FF920F931F93AB
:10515000DF93CF9300D0CDB7DEB76C018B01CB01CD
:10516000BE016F5F7F4F0E94AF27009731F18981A9
:105170009A81B8010E941B2778010894E108F10880
:1051800089819A81B7010E945E2781E090E00E2C10
:1051900002C0880F991F0A94E2F729813A81822779
:1051A0009327B7010E945E270C191D0902301105D3
:1051B00024F0C601B7010E94A2280F900F90CF9152
:1051C000DF911F910F91FF90EF90DF90CF900895A6
:1051D0006F927F928F929F92AF92BF92CF92DF9207
:1051E000EF92FF920F931F93CF93DF93EC01C75F72
:1051F000D440CB010E9400278C0124E0C030D207AC
:1052000020F000D087EA9AE50CC001979E0102C009
:10521000359527958A95E2F720FF0CC000D082E8EB
:105220009AE5EDB7FEB7928381830E9472220F90B8
:105230000F906BC07E01F3E0F594E794FA95E1F7E7
:10524000C701B8010E945E27E8E0CE2ED12CC01A1B
:10525000D10A71E0A72EB12C60E2662E712C0730C6
:10526000110509F452C0E501002E02C0CC0FDD1F6C
:105270000A94E2F74E018E249F249401002E02C06E
:10528000359527950A94E2F720503F4FC5010C2C25
:1052900002C0880F991F0A94E2F7281B390B4FB7F9
:1052A000F894C901B3010E94072A660F771F660FA1
:1052B000771F6350774FFB0180819181A281B38179
:1052C0004FBF0894C108D1082F71307004C0B69543
:1052D000A795979587952A95D2F78170907000973A
:1052E000A1F0C095D095CE21DF21C701B8010E9461
:1052F0001B27C401B8010E941B270F5F1F4FCE015F
:10530000B8010E945E277E01AACFDF91CF911F9145
:105310000F91FF90EF90DF90CF90BF90AF909F9054
:105320008F907F906F90089580E090E067E070E04C
:105330000E945E2780E090E00895AF92BF92CF92E6
:10534000DF92EF92FF920F931F93DF93CF9300D0E2
:10535000CDB7DEB70E9400278C018091B40488236A
:1053600029F40E94942981E08093B40417FD1FC0A2
:1053700078015E010894A11CB11C07C00894E11CCF
:10538000F11CC801B7010E94A228C801B5010E9402
:10539000AF276C01009729F487E0E816F10474F355
:1053A00008C089819A81B8010E941B2702C0CC24C1
:1053B000DD24C6010F900F90CF91DF911F910F91C7
:1053C000FF90EF90DF90CF90BF90AF900895E62FC1
:1053D000F72FA82FB92F03C0C89531960D924150D1
:1053E0005040D0F70895AA1BBB1B51E107C0AA1F6C
:1053F000BB1FA617B70710F0A61BB70B881F991F76
:105400005A95A9F780959095BC01CD01089597FB19
:10541000092E07260AD077FD04D0E5DF06D000204C
:105420001AF4709561957F4F0895F6F790958195E0
:105430009F4F0895260C230C200C1D0C1A0C170CE2
:10544000140C110C0E0C0B0C080C050C020CFF0BB1
:10545000FC0BF90BF60BF30BF00BED0BEA0BE70B68
:10546000E40BE10BDE0BDB0BD80BD50BD20BCF0B18
:10547000CC0BC90BC60BC30BC00BBD0BBA0BB70BC8
:10548000B40BB10BAE0BAB0BA80BA50BA20B9F0B78
:105490009C0B990B960B930B900B8D0B8A0B870B28
:1054A000840B810B7E0B7B0B780B750B720B6F0BD8
:1054B0006C0B690B660B48656C6C6F2C2042617439
:1054C000686F7320697320737065616B696E672004
:1054D000282573206275696C74206F6E204A756C84
:1054E0002032322032303134290A0025730A00007C
:1054F00000F50300000000F004000000007B050040
:10550000000D0A25733A2073776974636865642017
:10551000746F206D6F64652025730D0A00240902E5
:105520000809081D09000000004508000000009956
:1055300009000000010000715512000200008355AF
:105540004300030000C6550401030904CA551602AE
:10555000030904E2550803030904EC550C0001C1DA
:1055600012018036018136C10AC40A3B0C050B00CA
:10557000001201000202000010032A018000010154
:1055800002030109024300020100C03209040000C5
:10559000010202010005240010010524010101049B
:1055A00024020605240600010705820310004009B5
:1055B000040100020A000000070503024000000782
:1055C00005840240000004030904160344006F0030
:1055D00067002000480075006E00740065007200CE
:1055E00000000803590055004E0000000C03300075
:1055F00030003000300030000000720C8E0C750C52
:10560000880C000008000000A00F0000FFFFFFFF53
:105610000A00401F00000A00401F00000A00401F4F
:1056200000000A00401F00000A00401F00000A009E
:10563000401F00000A00401F00000A00401F000039
:1056400004000000080810102573207761726E694D
:105650006E673A206E6F20737563682070776D20D7
:105660006465766963652C206964783D25640A0069
:105670002573207761726E696E673A206E6F2073B2
:105680007563682070776D206465766963652C208A
:105690006964783D25640A002573207761726E691C
:1056A0006E673A206E6F20737563682070776D2087
:1056B0006465766963652C206964783D25640A0019
:1056C0002573207761726E696E673A206E6F207362
:1056D0007563682070776D206465766963652C203A
:1056E0006964783D25640A002573207761726E69CC
:1056F0006E673A206E6F20737563682070776D2037
:105700006465766963652C206964783D25640A00C8
:1057100032107A1041103A100000F211D111F71036
:1057200058123C121D1233110F12F211D111F71041
:10573000581200000000000000006D6375696F3AA8
:10574000206F7574707574206572726F720A0064D0
:105750006174615F72656164795F68616E646C65D4
:1057600020746F0A006D6375696F3A206F7574203D
:1057700070697065206572720A006D6375696F3AB1
:1057800020696E2070697065206572720A00646518
:1057900061640A00616C6976650A006D6375696F02
:1057A000200000008712000000007812000084181A
:1057B0008C189418D414801788179017D1140000EF
:1057C000000000000000981702190A19D714000001
:1057D000000000000000A01778198019DA146A1A76
:1057E000721A7A1AE014061A0E1A161ADD1400003C
:1057F0000000E3140000000000004C160000000050
:105800000000B015000000000000000000004E5530
:105810004C4C206770696F206576656E740A0025B0
:10582000733A20657674206572726F720A00000008
:10583000A258A45800002A570800AC58AE580000DF
:105840002A571000B658F64300002A571001B858DE
:10585000060700002A571003BA582E0700002A57DF
:105860001005BC5800000000DE571007BE580000AD
:105870000000EE571009C05800000000AE5718098C
:10588000C05800000000BE572009C05800000000AA
:10589000CE572809C258C3020000FE570000341535
:1058A0000000080034127856020000000800544539
:1058B000535428000000A000280028000002000225
:1058C0000800080000000000B11A000000000000FD
:1058D000821A000000000000851A0000000000008D
:1058E0009A1A000000001659185900002A5708009B
:1058F0002059045600002A57100020590C56000069
:105900002A571400205900000000D45840002259A2
:1059100010560000C45808003512010003000000B2
:105920000400C00F000000008E1B000000000000FB
:10593000691B000000005259545900002A57080002
:105940005C59405600002A5740005E5944560000FA
:105950002459080036120100050000000400C00FA1
:10596000F211D111F91B581200000000301C000088
:1059700000009459965900002A5708009E59E401E6
:10598000E40160591800A059A25900002A571E1CB2
:10599000CA1C000008001111AAAA0B000000100088
:1059A0000800130000000000000000000000B01E0E
:1059B0000000000000000F1E00005F5F6932635F9F
:1059C00062697462616E675F646F5F7472616E7347
:1059D000616374696F6E20212025640A005F5F692E
:1059E00032635F62697462616E675F747269676770
:1059F00065725F6972713A20657674206572726FA4
:105A0000720A006932635F62697462616E675F7215
:105A100065676973746572735F726464773A206551
:105A20007674206572726F720A0000009C2000007C
:105A30000000585A5A5A00002A570800625A0000BB
:105A40000000AA594000645A170317031A5740016F
:105A5000665A170300002A5708001211AAAA080064
:105A60000000340080008000696E697463616C6CB2
:105A70002061742025703A206572726F722025694A
:105A80000A005F5F626174686F735F667265655F6D
:105A90006275666665723A20756E616C69676E65DF
:105AA00064207074720A005F5F626174686F735F74
:105AB000667265655F6275666665723A20696E76C4
:105AC000616C6964207074720A00040002000100B5
:105AD00001000100010001000100FA5A0A5B125B9B
