:1000000032C00000000000000000000000000000FE
:1000100000000000000000000000000000000000E0
:1000200000000000000000003DC000007DC0000096
:1000300000000000000000000000000000000000C0
:1000400000000000000000000000000000000000B0
:10005000000000000000000000000000F6C20000E8
:1000600000006AC20CC211241FBECFEFDAE0CDBF80
:10007000DEBFEEE1FAE60BE6A0E0B1E0E634F00721
:100080001CF425902D92FACFA0E3B2E007E0A03D4A
:10009000B00714F41D92FBCF0E948D1278940E9439
:1000A0006008E1CF1F920F920FB60F9211248F9329
:1000B0009F938091E1001092E10083FF13C01092A2
:1000C000E90091E09093EB001092EC0092E19093A4
:1000D000ED0098E09093F0001092520110925401BC
:1000E0001092530182FF19C080915201882379F048
:1000F00080915C01882359F0815080935C018823B2
:1001000031F484E08093E9008AE38093E80083E09F
:100110008093E90084E08093F0009F918F910F908D
:100120000FBE0F901F9018951F920F920FB60F924F
:100130001124EF92FF920F931F932F933F934F93AE
:100140005F936F937F938F939F93AF93BF93EF933F
:10015000FF93DF93CF930F92CDB7DEB78091F4007A
:1001600083FF14C083E08093E9008091E80082FF60
:1001700008C08AEF91E06CED76E047E050E00E9425
:100180004C068091E800887F8093E8001092E90097
:100190008091E80083FF58C12091F1003091F10077
:1001A0008091F100E82EFF244091F100942F80E02F
:1001B000E82AF92A0091F10010E04091F100942F13
:1001C00080E0082B192B6091F100A091F10082EFE3
:1001D0008093E800363009F059C085E193E69C0130
:1001E00025503040FC013797459154914E155F05DD
:1001F000F9F4F9014591549140175107C9F42E5F64
:100200003F4FF901859194912E5F3F4FF901249161
:10021000462F50E07A2F60E0462B572B4F3F510579
:1002200019F010F04FEF50E0421750F4242F08C09F
:100230000796295F3F4FF3E68F339F0799F604C176
:10024000AEEF4091E80050E0BA0165707070611542
:100250007105B9F342FDFBC0322F213108F030E1C6
:10026000AC01632F07C0FA014F5F5F4FE491E09349
:10027000F10061506623B9F7830F911D231BA093F2
:10028000E8002223F1F63031E1F2E1C0353051F4DB
:100290008EEF8093E8000E942A0E8E2D8068809356
:1002A000E300D5C0393061F5222309F0CDC0E092DA
:1002B0005201109254011092530110925C018EEF82
:1002C0008093E80041E088E393E64093E900FC0175
:1002D0000196E491E093EB00EE2369F09C012F5F1F
:1002E0003F4FFC0184918093EC00C9010196F90114
:1002F00024912093ED004F5F453039F78EE19FC088
:10030000383051F4203809F09FC00E942A0E8091A5
:1003100052018093F10070C0313279F4213A09F032
:1003200093C00E942A0EE5E5F1E081918093F100EF
:1003300021E0EC35F207C9F75FC0303209F039C06F
:10034000213209F081C08091E80082FFFCCFE5E511
:10035000F1E08091F100819331E0EC35F307C9F7CA
:100360008BEF8093E8008EEF8093E8008091550139
:1003700090915601A0915701B0915801803B44E003
:10038000940740E0A40740E0B40709F060C087E7A5
:1003900097E790930108809300082BE088E190E0B4
:1003A0000FB6F894A895809360000FBE209360006C
:1003B0004EC0323251F4213209F046C0F09254015D
:1003C000E09253010E942A0E17C03323C9F42983F7
:1003D0000E942A0E2981223851F40093E90090915D
:1003E000EB0081E095FF80E01092E90001C080E021
:1003F0008093F1001092F1008EEF8093E80027C007
:10040000313011F0333001F52230F1F4E114F10410
:10041000D9F40F77802F81508430B0F48EEF809321
:10042000E8000093E900333079F089E18093EB0034
:1004300081E090E002C0880F991F0A95E2F780934F
:10044000EA001092EA0003C081E28093EB000F9073
:10045000CF91DF91FF91EF91BF91AF919F918F91DC
:100460007F916F915F914F913F912F911F910F91CC
:10047000FF90EF900F900FBE0F901F9018951F9256
:100480000F920FB60F9211242F933F934F935F93C8
:100490006F937F938F939F93AF93BF93EF93FF934C
:1004A000209168023091690260916A0270916B023A
:1004B000A901461B570B4F735070C9018095909549
:1004C000860F971F8F739070009731F481E090E052
:1004D0009093AD028093AC026091CE008091AC020B
:1004E0009091AD02009761F4F901EA59FD4F6683DE
:1004F0002F5F3F4F2F733070309369022093680253
:100500004115510541F484E092E06CED76E047E05E
:1005100050E00E944C06FF91EF91BF91AF919F91E7
:100520008F917F916F915F914F913F912F910F909C
:100530000FBE0F901F9018951F920F920FB60F923B
:1005400011242F933F934F935F936F937F938F93D8
:100550009F93AF93BF93EF93FF93AEB5A53009F58B
:1005600020919E0530919F0580919C0590919D055D
:10057000821B930B8F739070009789F0E091A00518
:10058000F091A105E20FF31F80818EBDC901019694
:100590008F73907090939F0580939E0545C01EBCFD
:1005A00043C01EBCAA2309F43FC04091920550915C
:1005B000930560919405709195059A01261B370B60
:1005C0002F733070CA0180959095860F971F8F7397
:1005D0009070009731F481E090E0909399058093BA
:1005E00098058091980590919905009791F4E09174
:1005F0009605F0919705E40FF51FA0838091920571
:100600009091930501968F739070909393058093CA
:1006100092052115310541F48EE092E06CED76E013
:1006200047E050E00E944C06FF91EF91BF91AF91DF
:100630009F918F917F916F915F914F913F912F91FA
:100640000F900FBE0F901F9018951F920F920FB62C
:100650000F9211242F933F934F935F936F937F9348
:100660008F939F93AF93BF93EF93FF938091A407D2
:100670009091A507A091A607B091A7070196A11D8B
:10068000B11D8093A4079093A507A093A607B093EC
:10069000A70784EC96E060E070E047E050E00E943D
:1006A0009329FF91EF91BF91AF919F918F917F918E
:1006B0006F915F914F913F912F910F900FBE0F90CF
:1006C0001F9018959C07B40794079C07B407B407BC
:1006D000B407B407C407C407C407C407B407BC07FA
:1006E000B407B407C407CC07CC07D407DC07E4077A
:1006F000BC07C407D407DC07E407EC07EC07F407E2
:10070000FC070408F407FC07750124101810900179
:100710000012F411CF01602FDA2DD401CC2DC02DA1
:10072000DC01A22D962DE401042E8A2D6C696E69E0
:100730006E6F494F3A206769742033306536383719
:1007400062206275696C74206D65722032303135BB
:100750002D30322D31312031373A30323A30392094
:10076000636F6C6F73696D6F40636F6F6C6D6173F6
:10077000740A0000000000000000000000000000FB
:100780000000000000000000000000000000000069
:100790000000000000000C61000000000000066185
:1007A000000000000000C661000000000000C267F9
:1007B000000000000000BA61000000000000EC64CE
:1007C0000000B40200002A61000000000000E6649E
:1007D0000000B4020000E266000000000000CF65E7
:1007E0000000000000006067000000000000E869F1
:1007F00000007E050000E26900007E050000C06187
:1008000000000000000000000707070700000000CC
:1008100000000707070700000700070700000000A7
:10082000000000000707000007070707000000009E
:1008300000000000000000000000000000000000B8
:1008400000000000000000000000000000000000A8
:100850000000000084EC96E060E070E047E050E0CB
:100860000E949329089583B7817F83BF83B78160F6
:1008700083BF889583B78E7F83BF089502C00E948F
:100880002A2A0E94162A0097D1F70E943304F9CF32
:1008900080E392E090933102809330029093330290
:1008A0008093320280E090E00895AF92BF92CF92A1
:1008B000DF92EF92FF920F931F93CF93DF93C0913C
:1008C0003002D091310226970E811F8106501040D0
:1008D000E12C91E0F92EC12C82E0D82E4CC0809101
:1008E000A4079091A507A091A607B091A70728811A
:1008F0003981821B930B97FD43C06C817D8188EC0D
:1009000096E047E050E00E949329AE80BF8080E3EC
:10091000A81682E0B806C1F09501265030404091FB
:10092000A4075091A5076091A6077091A707F90148
:1009300080819181A281B381840F951FA61FB71F6B
:1009400080839183A283B383A885B985F501B3839E
:10095000A283AD92BC92FF82EE82D986C886CE0178
:100960006AE070E00E948C2CF80186819781E80192
:100970008C0106501040F2E0CA32DF0709F0AFCF19
:10098000DF91CF911F910F91FF90EF90DF90CF906B
:10099000BF90AF900895EF92FF920F931F93CF9364
:1009A000DF937B018C01EA018AE090E00E94402DF8
:1009B000FC01009709F46AC08091A4079091A507F3
:1009C000A091A607B091A7078E0D9F1DA01FB11F74
:1009D00080839183A283B383D583C483EFB6F894D5
:1009E000A0913002B091310282E0A033B80791F5B6
:1009F000CF01069613969C938E931297B783A68386
:100A0000B187A08711969C938E933CC02081318141
:100A1000428153816D917D918D919C911397E90154
:100A2000C61BD70BD7FF0AC0621B730B840B950B39
:100A30006D937D938D939C93139714C0261B370B56
:100A4000480B590B208331834283538316960D90B4
:100A5000BC91A02D16978D010A5F1F4F82E00033D5
:100A60001807A1F6CF0106961896CD91DC9119973B
:100A700019969C938E93189717830683D187C08706
:100A800099838883EFBE20E030E002C024EF3FEF7F
:100A9000C901DF91CF911F910F91FF90EF900895C1
:100AA000CF93DF93FC01C481D581EA81FB818E81E4
:100AB0009F8109959F838E8388859985AA85BB85AB
:100AC0002C853D854E855F85820F931FA41FB51F22
:100AD0008C879D87AE87BF872091A4073091A5079B
:100AE0004091A6075091A707B901681B790B77FDC4
:100AF00009C0DA01C9010196A11DB11D8C879D872E
:100B0000AE87BF876C857D858E859F85621B730B45
:100B1000840B950BAE010E94CB04DF91CF91089519
:100B2000EF92FF920F931F93CF93DF93E090A40770
:100B3000F090A5070091A6071091A707C8E1D2E0A1
:100B400008C0EC81FD81309719F08E819F81099555
:100B5000609682E0C832D807A0F3C8E1D2E01AC09C
:100B60006C857D858E859F856E0D7F1D801F911FF5
:100B70006C597F4F8F4F9F4F6C877D878E879F87E4
:100B80006E197F09800B910BAE010E94CB0497FD7B
:100B900008C0609682E0C832D80710F320E030E049
:100BA00002C02FEF3FEFC901DF91CF911F910F914D
:100BB000FF90EF9008950F931F93DF93CF93CDB7DE
:100BC000DEB72A970FB6F894DEBF0FBECDBFDC01AB
:100BD00014960D911C911597C8010896F80122856D
:100BE0003385A085B18513963C932E931297F90116
:100BF000B183A083D80119969C938E9318971B9666
:100C00009C938E931A971696ED91FC911797CF01AE
:100C10000696268137812817390771F4628173811E
:100C2000CE0101964AE050E00E94ED2FEF81F88559
:100C3000309711F0C8010995F801178216822A969B
:100C40000FB6F894DEBF0FBECDBFCF91DF911F91DD
:100C50000F910895EF92FF920F931F93CF93DF931D
:100C60008C01C0EFD1E00AC068817981F8018081F0
:100C700091810E94A627009739F02A96F2E0C831A8
:100C8000DF0790F3C0E0D0E0CE01DF91CF911F915C
:100C90000F91FF90EF900895AF92BF92CF92DF92A5
:100CA000EF92FF920F931F93CF93DF937B018A0103
:100CB000FC01C681D781209721F1289726E0C22E1A
:100CC000D12CC80ED91E82E1A82E81E6B82E14C000
:100CD000C701BE01A8010E94932997FF09C000D057
:100CE000EDB7FEB7B282A1820E940F260F900F903F
:100CF0000884D985C02D2897CE0108968C159D05AE
:100D000039F7DF91CF911F910F91FF90EF90DF9016
:100D1000CF90BF90AF9008958F929F92AF92BF9265
:100D2000CF92DF92EF92FF920F931F93DF93CF93B7
:100D3000CDB7DEB72A970FB6F894DEBF0FBECDBF92
:100D40004C015B018A016115710519F486E190E09F
:100D500025C08CE090E00E94402D6C017C01009742
:100D600039F487E190E090937D0580937C056AC01B
:100D7000DC0111969C928E9215961C930E931497FB
:100D80001396BC92AE9212970E942A068C0100978D
:100D900061F4F6011782168286E090E090937D055B
:100DA00080937C05EE24FF244DC0D60117969C93BA
:100DB0008E931697FC0186819781009731F4C801C4
:100DC00006969783868391878087D80112966D91C6
:100DD0007C911397CE0101964AE050E00E94ED2FDE
:100DE000E981FA81309741F0C6010995009721F019
:100DF000F60117821682D2CFC6010896D801169640
:100E0000ED91FC91179793838283D6011996FC93F9
:100E1000EE93189798012A5F3F4F1B963C932E93B1
:100E20001A97F80197838683F1E0AF16B10419F49D
:100E30008CEC96E002C080ED96E0B60147E050E011
:100E40000E949329C7012A960FB6F894DEBF0FBE01
:100E5000CDBFCF91DF911F910F91FF90EF90DF9069
:100E6000CF90BF90AF909F908F900895CF93DF93D6
:100E7000EC018E819F81009749F489E090E0909386
:100E80007D0580937C052FEF3FEF18C08A819B8101
:100E90008130910519F484ED96E002C088ED96E06A
:100EA000BE0147E050E00E94932984EE96E0BE0127
:100EB00046E050E00E94932920E030E0C901DF9134
:100EC000CF910895CF92DF92EF92FF920F931F93ED
:100ED000DF93CF93CDB7DEB72A970FB6F894DEBF76
:100EE0000FBECDBF8C017B016A01DC011696ED912E
:100EF000FC911797309719F489E090E012C0628155
:100F00007381CE0101964AE050E00E94ED2FF80176
:100F1000828180FF04C0EB81FC81309749F481E03D
:100F200090E090937D0580937C052FEF3FEF12C0FA
:100F3000C801B701A60109959C0197FF05C0882744
:100F40009927821B930B02C080E090E090937D056F
:100F500080937C05C9012A960FB6F894DEBF0FBEB8
:100F6000CDBFCF91DF911F910F91FF90EF90DF9058
:100F7000CF900895CF92DF92EF92FF920F931F933D
:100F8000DF93CF93CDB7DEB72A970FB6F894DEBFC5
:100F90000FBECDBF8C017B016A01DC011696ED917D
:100FA000FC911797309719F489E090E012C06281A4
:100FB0007381CE0101964AE050E00E94ED2FF801C6
:100FC000828181FF04C0ED81FE81309749F481E088
:100FD00090E090937D0580937C052FEF3FEF12C04A
:100FE000C801B701A60109959C0197FF05C0882794
:100FF0009927821B930B02C080E090E090937D05BF
:1010000080937C05C9012A960FB6F894DEBF0FBE07
:10101000CDBFCF91DF911F910F91FF90EF90DF90A7
:10102000CF900895EF92FF920F931F93DF93CF938A
:10103000CDB7DEB72A970FB6F894DEBF0FBECDBF8F
:101040008C017B01DC011696ED91FC91179730978E
:1010500019F489E090E00EC062817381CE0101969F
:101060004AE050E00E94ED2FE985FA85309749F477
:1010700081E090E090937D0580937C052FEF3FEF1A
:1010800011C0C801B70109959C0197FF05C08827C9
:101090009927821B930B02C080E090E090937D051E
:1010A00080937C05C9012A960FB6F894DEBF0FBE67
:1010B000CDBFCF91DF911F910F91FF90EF900895D9
:1010C000CF93DF9314BE88E10FB6F894809360004D
:1010D000109260000FBE0E94C728C8ECD0E004C088
:1010E00088EE93E00E94092921978FEFCF3FD80720
:1010F000B9F70E943E04DF91CF91089580913502A7
:10110000813071F480913A02882311F080E001C0AF
:1011100082E0809335028823F9F481E291E01EC0D9
:1011200084E097E060E070E047E050E00E9493299F
:1011300097FF0CC000D082E591E6EDB7FEB7928331
:1011400081830E940F260F900F90089581E0809375
:1011500035028BE191E002C086E191E000D000D041
:1011600020E331E6EDB7FEB7328321839483838396
:101170000E940F260F900F900F900F9008950E94DD
:101180007E08089580913602909137020E9462078E
:101190000895EF92FF920F931F93DF93CF93CDB7F4
:1011A000DEB7C054D0400FB6F894DEBF0FBECDBF3F
:1011B000DC0114960D911C91159780913802909145
:1011C000390208171907E9F481E080933A02809107
:1011D0003502813011F010923502C8018E010F5F87
:1011E0001F4FB80140E450E00E946207AC0118169E
:1011F00019060CF0E9C080917A0590917B05B80141
:1012000083C0D8011696ED91FC911797CF010696F1
:10121000268137812817390709F4D6C08091360214
:10122000909137020817190741F08091A207909119
:10123000A3070817190709F0C7C080913402882353
:1012400039F08091A2079091A3070817190789F434
:1012500080913502813069F0C801BE016F5F7F4F18
:1012600040E450E00E9462077C01181619061CF049
:10127000ABC0EE24FF248091A2079091A30708172A
:10128000190709F044C02091360230913702FE015F
:10129000319680E090E007C041914D3119F40E94F1
:1012A0007E0807C001968E159F051CF42115310597
:1012B00099F780913502813049F48CEF96E060E037
:1012C00070E047E050E00E9493297EC0882361F4DB
:1012D0008091380290913902009731F0BE016F5F22
:1012E0007F4FA7010E94BA0780913402813009F430
:1012F0006BC08091360290913702009709F464C068
:10130000BE016F5F7F4FA7010E94BA075DC0809149
:101310003402882309F041C0FE01319680E090E05C
:1013200030C021912A3A61F581E08093340200D0E7
:1013300000D000D0EDB7FEB731968EE891E6ADB79C
:10134000BEB712969C938E931197A0913602B091DE
:10135000370216960D90BC91A02D8D919C91938390
:10136000828385E291E0958384830E940F26EDB706
:10137000FEB736960FB6F894FEBF0FBEEDBF04C0A1
:1013800001968E159F056CF2809134028130E1F058
:1013900080917A0590917B05B3CF88EE96E060E06E
:1013A00070E047E050E00E94932997FF0DC000D005
:1013B00081E791E6ADB7BEB712969C938E931197D5
:1013C0000E940F260F900F90C05CDF4F0FB6F8946D
:1013D000DEBF0FBECDBFCF91DF911F910F91FF9068
:1013E000EF90089580913602909137020E94BA07DB
:1013F000089580913602909137020E943607089531
:101400008BE291E063E070E040E050E00E948C06E7
:101410009093370280933602009799F0109234022D
:1014200082E08093350284E391E063E070E040E085
:1014300050E00E948C069093390280933802009706
:1014400019F42DEE3FEF02C020E030E0C90108950D
:101450001F93FB011FB7F89460E270E00E940D300B
:10146000660F771F660F771FE60FF71F21E030E04A
:1014700040E050E004C0220F331F441F551F8A95DF
:10148000D2F780819181A281B381822B932BA42BEF
:10149000B52B80839183A283B3831FBF1F910895CF
:1014A0001F93FB011FB7F89460E270E00E940D30BB
:1014B000660F771F660F771FE60FF71F21E030E0FA
:1014C00040E050E004C0220F331F441F551F8A958F
:1014D000D2F780819181A281B381822B932BA42B9F
:1014E000B52B80839183A283B3831FBF1F9108957F
:1014F0002F923F924F925F927F928F929F92AF92E4
:10150000BF92CF92DF92EF92FF920F931F93DF93E0
:10151000CF9300D000D000D0CDB7DEB76BE3E62E7E
:1015200062E0F62E53E2A52EB12CCC24DD2480E01F
:1015300090E020E030E041E0442E512C01C09801C1
:1015400089010F5F1F4FF501708060915702462F90
:1015500050E0022E02C0559547950A94E2F740FDEF
:101560000BC0A20102C0440F551F2A95E2F79A0151
:10157000262B2093570251C0F7018080872499249D
:10158000939440E050E02FE3222E22E0322E200EF2
:10159000311E98012C5B3D4F3A832983F801EF5AA5
:1015A000FD4FFC83EB83F1012081292179F1292D65
:1015B000282161F1E981FA812081292189F0F7014F
:1015C0002081292169F4CA018C0D9D1D6AE472E015
:1015D0004D835E830E94280A81E090E05E814D8108
:1015E000EB81FC812081292189F0F70120812921CB
:1015F00069F0CA018C0D9D1D6AE472E04D835E8323
:101600000E94280A81E090E05E814D814F5F5F4F2C
:101610004830510511F0990CC6CFF70171927F0146
:1016200028E030E0C20ED31E43E050E0A40EB51E09
:101630000530110509F083CF009741F08CEE96E05C
:101640006AE472E047E050E00E94932926960FB6C4
:10165000F894DEBF0FBECDBFCF91DF911F910F91E8
:10166000FF90EF90DF90CF90BF90AF909F908F90C2
:101670007F905F904F903F902F9008951F938832F6
:10168000910508F048C0AC014770507021E030E08F
:1016900002C0220F331F4A95E2F7E3E09595879544
:1016A000EA95E1F790E0122F1095FC01EB5BFD4FFE
:1016B000508151235083DC01AE5ABD4F4C914123E0
:1016C0004C93DC01A05CBD4F3C9131233C9360FF07
:1016D00002C0522B508361FF05C0FC01EE5AFD4F42
:1016E000422B408367FF05C0FC01E05CFD4F322BBD
:1016F00030836C7070706115710581F0FC01EB5BDB
:10170000FD4F3081322B3083FC01EE5AFD4F80813A
:10171000822B808303C02AEE3FEF02C020E030E03E
:10172000C9011F910895ECE7F0E080818F738083F9
:10173000808180648083EAE7F0E080818760808335
:1017400080818F77808380E090E00895FC01218183
:10175000822F90E030917C00307E30937C0030917D
:101760007C00883091050CF0205E232B20937C00B8
:1017700080917A00806480937A0080917A0086FD5F
:10178000FCCF8091780090917900392F20E0442798
:1017900037FD4095542F90E0A0E0B0E0282B392B86
:1017A0004A2B5B2BB901CA01089584B5836084BDBF
:1017B00085B5886085BD089584B58C7F84BD85B569
:1017C000877F85BD0895E0E8F0E0808182608083B6
:1017D000E1E8F0E080818A6180838FE39CE9909367
:1017E0008700809386000895E0E8F0E080818D7F97
:1017F0008083E1E8F0E08081807E80831092870022
:10180000109286000895E0E9F0E080818260808394
:10181000E1E9F0E080818A6180838FE39CE9909325
:101820009700809396000895E0E9F0E080818D7F35
:101830008083E1E9F0E08081807E808310929700D0
:10184000109296000895E1ECF0E080818B60808337
:101850000895E1ECF0E08081847F80830895411554
:1018600051056105710521F04150504060407040C4
:10187000509387004093860080E090E00895209187
:1018800086003091870040E050E02F5F3F4F4F4F80
:101890005F4FB901CA0108954115510561057105F0
:1018A00021F0415050406040704050939700409369
:1018B000960080E090E00895209196003091970086
:1018C00040E050E02F5F3F4F4F4F5F4FB901CA01DB
:1018D00008954093D10080E090E008956091D10098
:1018E00070E080E090E00895FC01A089B1898C91BE
:1018F0009389892321E030E011F420E030E0C90130
:101900000895FC01A089B1899389411551056105AC
:10191000710519F08C91892B03C08C9190958923C6
:101920008C9380E090E00895DF93CF9300D000D0B7
:10193000CDB7DEB749835A836B837C83842F952F81
:10194000A62FB72F0097A105B10539F00197A1097E
:10195000B10989839A83AB83BC83898188BD80E088
:1019600090E00F900F900F900F90CF91DF9108951E
:1019700028B530E02F5F3F4F442737FD4095542F67
:10198000B901CA010895FC01628573858485958536
:101990000895411551056105710521F041505040F0
:1019A00060407040DC015796ED91FC91589751834F
:1019B000408380E090E00895DC015796ED91FC9122
:1019C00058972081318140E050E02F5F3F4F4F4FCB
:1019D0005F4FB901CA0108954093D20080E090E0C2
:1019E00008956091D20070E080E090E008958091C9
:1019F000C100992787FD9095892F881F8827881F08
:101A000090E00895411551056105710521F080911F
:101A1000C100806803C08091C1008F778093C100AE
:101A200080E090E0089521E030E002C0220F331FF3
:101A30008A95E2F7442737FD4095542F80915C0248
:101A400090915D02A0915E02B0915F02282339233C
:101A50004A235B2361E070E0211531054105510502
:101A600011F460E070E0CB0108950F931F93CF93C2
:101A7000DF93EC0108811981C8010E94130D0097C2
:101A800031F0F801E05AFD4F808181508083F801E8
:101A9000E05AFD4F8081882319F4EBA5FCA5099538
:101AA000E889F98980819A8990958923808321E04A
:101AB00030E002C0220F331F0A95E2F7C901AA27BE
:101AC00097FDA095BA2F409158025091590260910C
:101AD0005A0270915B0284239523A623B7230097B3
:101AE000A105B10539F4EC89FD8980819E89909525
:101AF0008923808320953095442737FD4095542FC6
:101B000080915C0290915D02A0915E02B0915F02B3
:101B100082239323A423B52380935C0290935D02D8
:101B2000A0935E02B0935F02DF91CF911F910F915E
:101B30000895EF92FF920F931F93CF93DF93EC01E1
:101B4000F8808E859F858C01005A1D4FF801E0803A
:101B5000EE2031F481E08083E9A5FAA5099507C05C
:101B60000E94130D009719F4E394F801E082E889CC
:101B7000F98980819A89892B8083EC89FD8980810C
:101B80006E898623209158023091590240915A0261
:101B900050915B028823C9F081E090E00F2C02C0D5
:101BA000880F991F0A94E2F7AA2797FDA095BA2FEC
:101BB000822B932BA42BB52B809358029093590220
:101BC000A0935A02B0935B021DC081E090E00F2CFD
:101BD00002C0880F991F0A94E2F780959095AA2772
:101BE00097FDA095BA2F82239323A423B523809336
:101BF000580290935902A0935A02B0935B028081DD
:101C0000862B808321E030E002C0220F331FFA943C
:101C1000E2F7442737FD4095542F80915C02909164
:101C20005D02A0915E02B0915F02822B932BA42BE8
:101C3000B52B80935C0290935D02A0935E02B093FB
:101C40005F0280E090E0DF91CF911F910F91FF90B4
:101C5000EF9008958091E80080FFFCCF089581E027
:101C60008093D70080EA8093D80082E189BD09B4CF
:101C700000FEFDCF80E98093D8001092E000109222
:101C8000520110925401109253018CE08093E200B3
:101C900080E090E0089580E090E008950F931F9316
:101CA000809152018823A9F11FB7F89483E08093B3
:101CB000E900E091F200862F972FDC0120E030E070
:101CC000F0E083E00FC08093E9009091E80095FD7B
:101CD00002C01FBF10C08093E9009091F1009D9356
:101CE0002F5F3F4F642F752FE617F7070CF4BF01E6
:101CF0002617370744F383E08093E9008091F200D0
:101D0000882329F48091E8008F778093E8001FBF33
:101D100002C025EF3FEFC9011F910F910895E2EE38
:101D2000F0E08081877F808308958091520190E068
:101D30000895809153019091540108951F93DC01FF
:101D400080915201882309F41BC12FB7F89484E0D5
:101D50008093E90080915D01882341F08091E80043
:101D600085FD02C02FBF16C010925D0114E050E443
:101D70004AE335E0FEC08091E400875E9091E80080
:101D800095FD15C02FBF9091E400981731F481E0C4
:101D900080935D012BEF3FEFF5C0909152019923A5
:101DA00009F4EEC02FB7F8941093E900E7CF8091C3
:101DB000F200E52FE81B8E2F90E06817790708F4F2
:101DC000E62F6E1B7109F0E0E134F10508F0C5C0A3
:101DD000EE5BFF4CEE0FFF1F0590F491E02D099490
:101DE0008D918093F1008D918093F1008D9180937E
:101DF000F1008D918093F1008D918093F1008D9190
:101E00008093F1008D918093F1008D918093F1008A
:101E10008D918093F1008D918093F1008D9180934D
:101E2000F1008D918093F1008D918093F1008D915F
:101E30008093F1008D918093F1008D918093F1005A
:101E40008D918093F1008D918093F1008D9180931D
:101E5000F1008D918093F1008D918093F1008D912F
:101E60008093F1008D918093F1008D918093F1002A
:101E70008D918093F1008D918093F1008D918093ED
:101E8000F1008D918093F1008D918093F1008D91FF
:101E90008093F1008D918093F1008D918093F100FA
:101EA0008D918093F1008D918093F1008D918093BD
:101EB000F1008D918093F1008D918093F1008D91CF
:101EC0008093F1008D918093F1008D918093F100CA
:101ED0008D918093F1008D918093F1008D9180938D
:101EE000F1008D918093F1008D918093F1008D919F
:101EF0008093F1008D918093F1008D918093F1009A
:101F00008D918093F1008D918093F1008D9180935C
:101F1000F1008D918093F1008D918093F1008D916E
:101F20008093F1008D918093F1008D918093F10069
:101F30008D918093F1008D918093F1008D9180932C
:101F4000F1008D918093F1008D918093F1008D913E
:101F50008093F1008D918093F1008D918093F10039
:101F60008091E80085FD02C04093E80030935C0159
:101F70002FBF6115710509F0FECE20E030E002C0F0
:101F800025EF3FEFC9011F910895EF92FF92CF9384
:101F9000DF93CB01EA01209759F480915201882305
:101FA00079F0809153019091540180FD0BC008C0DD
:101FB000BA010E949E0E009729F0CFEFDFEF02C01A
:101FC000C5EFDFEFCE01DF91CF91FF90EF90089545
:101FD00083E090E09093CD008093CC0010926B0250
:101FE00010926A02109269021092680288E9809346
:101FF000C90080E090E0089580E090E00895862F89
:10200000972FFC0180E090E008C021913091C8003A
:1020100035FFFCCF2093CE00019684179507ACF3D3
:10202000CA010895E9ECF0E0808187768083089505
:1020300000D08FEE93E6EDB7FEB7928381830E94C6
:102040000F260F900F900895EF92FF92CF93DF939A
:1020500082309105CCF1DB011296ED91FC91139742
:10206000808190E0C1978330910598F000D000D036
:1020700020E234E6EDB7FEB7328321839483838375
:102080000E940F260F900F900F900F90CAEEDFEF77
:102090001DC080937E01FC01EE0FFF1FE80FF91FAA
:1020A000EE0FFF1FE95FFB4920813181428153819F
:1020B00060E472E48FE090E00E94203021503040D4
:1020C0003093CD002093CC00C0E0D0E080917E0121
:1020D000882351F000D08CE194E6ADB7BEB71296DC
:1020E0009C938E93119707C000D08EE194E6EDB7D4
:1020F000FEB7928381830E940F2600D000D0EDB7F7
:10210000FEB7319683E194E6ADB7BEB712969C93C5
:102110008E93119781E090E0938382838EE591E026
:10212000958384830E940F26EDB7FEB736960FB6CF
:10213000F894FEBF0FBEEDBF80917E01813051F05B
:1021400000D08CE194E6ADB7BEB712969C938E9307
:10215000119707C000D08EE194E6EDB7FEB79283E9
:1021600081830E940F2600D000D0EDB7FEB73196D4
:1021700083E194E6ADB7BEB712969C938E93119708
:1021800082E090E09383828385E691E09583848367
:102190000E940F26EDB7FEB736960FB6F894FEBF35
:1021A0000FBEEDBFCE01DF91CF91FF90EF9008956C
:1021B000EF92FF92CF93DF93CB0160916A0270910F
:1021C0006B0220E430E0261B370BC0916802D091EF
:1021D0006902C20FD31FCF73D0704C175D070CF488
:1021E000EA012C173D070CF4E901209749F16459E5
:1021F0007D4FAE010E94D92780916A0290916B02B7
:102200008C0F9D1F8F73907090936B0280936A0266
:102210001092AD021092AC022091680230916902D6
:10222000281B390B2F7330702115310559F084E0CC
:1022300092E06CED76E047E050E00E944C0602C070
:10224000C5EFDFEFCE01DF91CF91FF90EF900895C2
:10225000289A239A80E090E0089580919C059091BF
:102260009D058095909520919E0530919F05820F48
:10227000931F8F739070242F352F821793070CF4C0
:102280009C012115310519F1862F972FDC0140E0C3
:1022900050E019C06D91E091A005F091A1058091E9
:1022A0009C0590919D05E80FF91F608380919C0526
:1022B00090919D0501968F73907090939D058093EA
:1022C0009C054F5F5F4F4217530724F302C025EF71
:1022D0003FEFC90108958CB58F778CBD8CB58F7B8E
:1022E0008CBD809196059091970560E470E00E9406
:1022F0008C2C8091A0059091A10560E470E00E9473
:102300008C2C0895EF92FF921F93CF93DF93CB0114
:102310001FB7F894E0919405F091950520E430E022
:102320002E1B3F0BC0919205D0919305C20FD31F76
:10233000CF73D0704C175D070CF4EA012C173D07E2
:102340000CF4E901209721F41FBFC5EFDFEF2DC08A
:1023500060919605709197056E0F7F1FAE010E94E8
:10236000D92780919405909195058C0F9D1F8F73AF
:102370009070909395058093940510929905109212
:1023800098052091920530919305281B390B2F73E6
:1023900030702115310541F08EE092E06CED76E071
:1023A00047E050E00E944C061FBFCE01DF91CF9165
:1023B0001F91FF90EF90089580E48CBD8CB58068EC
:1023C0008CBD80E490E00E94402D9093970580930F
:1023D000960580E490E00E94402D9093A1058093A3
:1023E000A00580E090E0089500D080E494E6EDB789
:1023F000FEB7928381830E940F260F900F9008955D
:10240000AF92BF92CF92DF92EF92FF920F931F9302
:10241000CF93DF93C0E0D0E021E6E22E24E6F22E57
:102420009BE5C92E94E6D92E89E5A82E84E6B82E20
:102430008E01077010700115110591F400D000D0C5
:10244000ADB7BEB71296FC92EE9211971496DC933C
:10245000CE9313970E940F260F900F900F900F901E
:10246000899100D000D0EDB7FEB73196ADB7BEB7B9
:102470001296DC92CE921197828313820E940F26CD
:102480000F900F900F900F900730110549F400D076
:10249000EDB7FEB7B282A1820E940F260F900F9077
:1024A000F1E0C030DF0721F600D087E594E6ADB754
:1024B000BEB712969C938E9311970E940F260F9091
:1024C0000F9080E090E0DF91CF911F910F91FF90EE
:1024D000EF90DF90CF90BF90AF900895CF93DF93B0
:1024E000C7E8D1E0CE0162E070E040E050E00E9439
:1024F0008C0690937B0580937A05CE0161E070E0B5
:1025000040E050E00E948C069093A3078093A207BE
:1025100080E090E0DF91CF910895E1E6F0E080E87F
:10252000808310820E946E270E943B290E947C2893
:1025300080E090E008950895EF92FF920F931F932B
:10254000DA01FC0184819581FC01E60FF71FE5901B
:10255000F59005911491EC921196FC9211971296B8
:102560000C93129713961C93139721153105C1F004
:102570006C5F7F4F680F791FFB0125913591459165
:10258000549114962C93149715963C931597169680
:102590004C93169717965C93179728E030E002C08B
:1025A00024E030E0C9011F910F91FF90EF90089552
:1025B000CF93DF93FA01DC011496CD91DC9115974E
:1025C000C60FD71F88819981AA81BB81808391839F
:1025D000A283B3832115310559F08C819D81AE8191
:1025E000BF8184839583A683B78328E030E002C04F
:1025F00024E030E0C901DF91CF910895CF93DF93BC
:10260000FA01DC011696CD91DC911797C60FD71F02
:1026100080819181A281B38188839983AA83BB83BE
:102620002115310559F084819581A681B7818C836C
:102630009D83AE83BF8328E030E002C024E030E019
:10264000C901DF91CF910895AC0183E991E061E088
:1026500070E00E948C069C01009721F42091A20753
:102660003091A307C9010895EF92FF92CF93DF93B2
:10267000E82EE7017E01F92EE701209759F1C70105
:102680000E94241399838883009721F400D082ED5F
:1026900094E618C083E991E062E070E0A7010E942F
:1026A0008C069B838A83009731F480917A05909100
:1026B0007B059B838A838A819B81009771F400D07C
:1026C0008DEB94E6EDB7FEB7928381830E940F26CF
:1026D0000F900F902FEF3FEF02C020E030E0C901D4
:1026E000DF91CF91FF90EF900895CF93DF93DA01C0
:1026F000EC01EC81FD812115310559F4E60FF71F3E
:10270000859194918C9311969C93119722E030E0DF
:1027100009C06E0F7F1FCA0148E050E00E94ED2FF4
:1027200028E030E0C901DF91CF910895CF93DF9386
:10273000DA01EC01EC81FD812115310539F4E60F58
:10274000F71FE491EC9321E030E009C06E0F7F1F8A
:10275000CA0148E050E00E94ED2F28E030E0C901B6
:10276000DF91CF9108959B01BA01FC018681978189
:10277000820F931F48E050E00E94D92788E090E044
:102780000895FB01BA01DC0116968D919C91179773
:102790002115310559F4E80FF91FDA018D919C914B
:1027A00011979183808322E030E008C08E0F9F1F35
:1027B00048E050E00E94D92728E030E0C9010895A0
:1027C000FB01BA01DC0116968D919C91179721159A
:1027D000310541F4E80FF91FDA018C91808321E083
:1027E00030E008C08E0F9F1F48E050E00E94D927BC
:1027F00028E030E0C90108959B01FC0164817581E6
:10280000620F731FCA0148E050E00E94D92788E098
:1028100090E00895FA01DC0114968D919C91159732
:102820002115310559F4680F791FDB018D919C91B9
:1028300011979183808322E030E009C0680F791FEF
:10284000CA0148E050E00E94D92728E030E0C901E1
:102850000895FA01DC0114968D919C91159721152C
:10286000310541F4680F791FDB018C91808321E0F1
:1028700030E009C0680F791FCA0148E050E00E94AB
:10288000D92728E030E0C90108959B01FC0164814B
:102890007581620F731FCA0148E050E00E94D9277A
:1028A00088E090E0089540E150E00E94BA0797FF69
:1028B0000BC000D088EA94E6EDB7FEB7928381831F
:1028C0000E940F260F900F900895FC01A681B781FA
:1028D0006481758112968D919C9113970E94531477
:1028E00008958F929F92AF92BF92CF92DF92EF9214
:1028F000FF920F931F93DF93CF93CDB7DEB7A497CB
:102900000FB6F894DEBF0FBECDBFDC0116960D9159
:102910001C91179794E0E92EF12CE00EF11E8091A6
:10292000B2029091B302009739F481E090E0909365
:10293000B3028093B20219C0F80184899589009787
:10294000A1F08091A4079091A507A091A607B0914E
:10295000A7072091AE023091AF02245F3F4F281BA2
:10296000390B37FF02C0158A148A8091A407909111
:10297000A507A091A607B091A7078093AE029093F8
:10298000AF02A093B002B093B102D801CD90DC9019
:10299000119754968D919C915597B701680F791FA7
:1029A00040E150E0481B590BC6010E94620718160F
:1029B00019068CF0009749F4C6010E943607C80139
:1029C0000E942413F80191838083D80155961C92AC
:1029D0001E92549744C1F80124893589280F391F64
:1029E000358B248B2031310508F439C1158A148ABE
:1029F0006681862F8E71823009F031C18581829582
:102A00008F7061706295607F682B70E083E0660F65
:102A1000771F8A95E1F762517649FAE66E317F07B2
:102A200088F46E010894C11CD11CC60148E050E036
:102A30000E94ED2FD80117968C91179790E086FD94
:102A400018C025C0F801828193812DEE3FEF4FEF32
:102A50005FEFD80118962D933D934D935C931B9790
:102A600017962C911797206217962C931797B701FA
:102A7000F2C0ED81FE810190F081E02D309709F4E4
:102A8000EEC0C701B60140E050E00995E8C08F7183
:102A9000907095958795A1E0EA2EF12C02C0EE0C7E
:102AA000FF1C8A95E2F7CC24DD24AA24BB24F9E09C
:102AB0008F2E912C8C0E9D1E29C06B817C816C0DFC
:102AC0007D1DC4014AE050E00E94ED2FEB85FC859E
:102AD0008591949149855A85F80124816581362F25
:102AE0003F702417350758F0215030402E0D3F1D00
:102AF00041505040480F591F421753076CF4089437
:102B0000A11CB11C8AE090E0C80ED91E89819A816F
:102B1000A816B90694F28CC0D80117962C91179775
:102B200030E02078307069897A896115710521F16A
:102B3000CE01439640E150E02BA33CA30E94ED2F31
:102B4000D8011796EC911797F0E0CE0101962BA1D2
:102B50003CA1E0FD09C0EE71F070E80FF91FC288DA
:102B6000D388A0E0B0E00CC03197EE71F070E80FB0
:102B7000F91FA28DB38D02C0A0E0B0E0CC24DD240B
:102B80004F815885BA01C8010496E0E1EE2EFC01A0
:102B90000190CF01FB010192BF01EA94C1F7FA0154
:102BA000838180648383C114D10499F0D801149681
:102BB0006C91149715968C91782F7F7089859A85E2
:102BC000681B790B4C5F5F4FCE010996F6010995A2
:102BD00012C01097A1F0F80164818581782F7F7071
:102BE00089859A85681B790BA801485F5F4FCE01E4
:102BF0000996FD0109959C0197FF12C002C02FEFB5
:102C00003FEFEF81F885D80112968D919C91139733
:102C1000309521953F4F442737FD4095542F13C0E1
:102C20006F817885F801828193810E94531417C0C7
:102C3000EF81F885D80112968D919C91139726E12A
:102C400030E040E050E0248335834683578323817E
:102C500020622383BF0140E150E00E94BA07A4969E
:102C60000FB6F894DEBF0FBECDBFCF91DF911F919D
:102C70000F91FF90EF90DF90CF90BF90AF909F901B
:102C80008F9008959B0168E070E00E940D306F5FA7
:102C90007F4FFB01EE0FFF1FE60FF71F21153105D8
:102CA00051F092A121E030E002C0220F331F8A953B
:102CB000E2F7922B0AC092A121E030E002C0220F7D
:102CC000331F8A95E2F72095922392A3089568E036
:102CD00070E00E940D306F5F7F4FFB01EE0FFF1F12
:102CE000E60FF71F90A121E030E002C0220F331F52
:102CF0008A95E2F7922321E030E011F420E030E001
:102D0000C90108959C01FB014FB7F89460E270E09F
:102D10000E940D30660F771F660F771FE60FF71FB3
:102D200080819181A281B3814FBF2F71307004C027
:102D3000B695A795979587952A95D2F79C0121700E
:102D40003070C90108958FEF9FEF08958FEF9FEFC7
:102D500008958FEF9FEF08958FEF9FEF08958FEF06
:102D60009FEF08958FEF9FEF08952F923F924F921C
:102D70005F926F927F928F929F92AF92BF92CF920B
:102D8000DF92EF92FF920F931F93DF93CF9300D0C8
:102D900000D000D0CDB7DEB73B018C0163E0000F5F
:102DA000111F6A95E1F74115510511F4290103C07E
:102DB00098E0492E512CEE24FF243E832D8392C0AF
:102DC000C70168E070E00E940D309B014D815E817B
:102DD0004830510521F1C70160E170E00E940D30DB
:102DE0005B01AA0CBB1CA60CB71CC70160E270E01B
:102DF0000E940D306B01CC0CDD1CCC0CDD1CC60C14
:102E0000D71C61E070E080E090E069837A838B8377
:102E10009C83882499241301220E331E57C0F3018A
:102E2000E60FF71F4081C80187709070009799F6F0
:102E3000C8016D817E810E940D306F5F7F4FFB0165
:102E4000EE0FFF1FE60FF71F42A346C08D819E8144
:102E50008031910559F08032910571F088309105EB
:102E600009F045C0D1018C9190E003C0F50180814B
:102E70009181A0E0B0E005C0F60180819181A2813E
:102E8000B3819401200F311F49815A816B817C816C
:102E900084239523A623B72361E070E00097A10562
:102EA000B10511F460E070E0C9010E944216089477
:102EB000811C911C69817A818B819C81660F771FAF
:102EC000881F991F69837A838B839C838D819E8160
:102ED000881699060CF4BACFAD81BE81EA0EFB1EAE
:102EE0000A0F1B1FE414F5040CF46ACF04C06AEE49
:102EF000462E6FEF562EC20126960FB6F894DEBF0F
:102F00000FBECDBFCF91DF911F910F91FF90EF903A
:102F1000DF90CF90BF90AF909F908F907F906F90F9
:102F20005F904F903F902F900895CB01BA01A90177
:102F300028E030E00E94B5160895CB01BA01A9013E
:102F400020E130E00E94B5160895CB01BA01A90135
:102F500020E230E00E94B5160895CB01BA01A90124
:102F600028E030E00E94B5160895CB01BA01A9010E
:102F700028E030E00E94B51608952F923F924F92BC
:102F80005F926F927F928F929F92AF92BF92CF92F9
:102F9000DF92EF92FF920F931F93DF93CF9300D0B6
:102FA00000D0CDB7DEB73B013C832B838C0163E0BF
:102FB000000F111F6A95E1F74115510511F4290120
:102FC00003C098E0492E512CCC24DD2428E030E0C9
:102FD0008FC0C601B9010E940D301B01F301E60F3D
:102FE000F71F8B819C8180319105E9F0803291053A
:102FF000F1F08830910519F5C8018770907000973D
:1030000081F4C8016B817C810E940D306F5F7F4F1E
:10301000DB01AA0FBB1FA60FB71F90968C9190974C
:1030200001C08AEE8083AAEDBFEFB183A0838AED51
:103030009FEFAFEFBFEF80839183A283B383882498
:1030400099245401EE24FF241CC0C701800F911F56
:1030500029833A830E946716AA2797FDA095BA2F65
:103060000E2C04C0880F991FAA1FBB1F0A94D2F709
:10307000882A992AAA2ABB2A0894E11CF11C3A81C1
:103080002981AB81BC81EA16FB06FCF2A031B105B7
:1030900059F0A032B105A9F0A830B10571F5F301DE
:1030A000E20DF31D80821EC0C6016B817C810E94EF
:1030B0000D30660F771F660D771DFB0191828082B0
:1030C00011C0C6016B817C810E940D30660F771F95
:1030D000660F771F660D771DDB018D929D92AD9275
:1030E000BC921397EB81FC81CE0EDF1E0E0F1F1FCB
:1030F000C414D5040CF46DCF04C07AEE472E7FEFD4
:10310000572EC2010F900F900F900F90CF91DF912B
:103110001F910F91FF90EF90DF90CF90BF90AF90F5
:103120009F908F907F906F905F904F903F902F90E7
:103130000895CB01BA01A90128E030E00E94BD1733
:103140000895CB01BA01A90120E130E00E94BD172A
:103150000895CB01BA01A90120E230E00E94BD1719
:1031600008956F927F928F929F92AF92BF92CF926B
:10317000DF92EF92FF920F931F93DF93CF93CDB720
:10318000DEB728970FB6F894DEBF0FBECDBF4C0157
:10319000762E672E8A0179014115510519F4C22E48
:1031A000DF2C03C078E2C72ED12CC4015E01089445
:1031B000A11CB11CB501A80197010E94BD1797FD84
:1031C0001EC0C60168E070E00E940D30C301E92F07
:1031D000F62DD50180E090E005C031912C91232B94
:1031E0002D93019686179707C4F3C401BE016F5F44
:1031F0007F4FA70198010E94B5169C0102C02FEFD6
:103200003FEFC90128960FB6F894DEBF0FBECDBFC1
:10321000CF91DF911F910F91FF90EF90DF90CF90B2
:10322000BF90AF909F908F907F906F900895CB014B
:10323000BA01A90120E130E00E94B1180895CB0144
:10324000BA01A90120E230E00E94B11808956F92FE
:103250007F928F929F92AF92BF92CF92DF92EF9226
:10326000FF920F931F93DF93CF93CDB7DEB72897CD
:103270000FB6F894DEBF0FBECDBF4C01762E672E81
:103280008A0179014115510519F4C22EDF2C03C0C2
:10329000E8E2CE2ED12CC4015E010894A11CB11C21
:1032A000B501A80197010E94BD1797FD1EC0C60178
:1032B00068E070E00E940D30C301E92FF62DD501C2
:1032C00080E090E005C031912C91232B2D93019645
:1032D00086179707C4F3C401BE016F5F7F4FA70134
:1032E00098010E94B5169C0102C02FEF3FEFC90163
:1032F00028960FB6F894DEBF0FBECDBFCF91DF91F9
:103300001F910F91FF90EF90DF90CF90BF90AF9003
:103310009F908F907F906F900895CB01BA01A90183
:1033200020E130E00E9427190895CB01BA01A901DC
:1033300020E230E00E94271908952F923F924F9289
:103340005F927F928F929F92AF92BF92CF92DF92C5
:10335000EF92FF920F931F93CF93DF931C01F62FF1
:10336000E72FC9014115510531F468E070E00E9472
:103370000D307B0103C018E0E12EF12CCF01892E26
:103380009E2E00E010E0B1E0AB2EB12C39C0F4016C
:1033900041904F015524C201837090708330910594
:1033A00099F16801C20CD31CC6010E9467169C01EA
:1033B000C60168E070E00E940D30782E6F5F7F4F8D
:1033C000EB01CC0FDD1FC60FD71FC601B9010E944C
:1033D000421641FE09C029A1C50102C0880F991FEC
:1033E0007A94E2F7282B09C029A1C50102C0880FF1
:1033F000991F7A94E2F78095282329A30F5F1F4F26
:103400000E151F0524F204C0FAEEEF2EFFEFFF2E7B
:10341000C701DF91CF911F910F91FF90EF90DF9047
:10342000CF90BF90AF909F908F907F905F904F9084
:103430003F902F900895CB01BA01A90128E030E018
:103440000E949D190895CB01BA01A90120E130E045
:103450000E949D190895CB01BA01A90120E230E034
:103460000E949D190895CF92DF92EF92FF920F93E1
:103470001F93CF93DF937C01F62FE72FC9014115EE
:10348000510531F468E070E00E940D309B0102C0EC
:1034900021E030E0CF01C92EE6016E01DE2EE6010B
:1034A000E0E0F0E008E010E01DC0CF018E0D9F1DB0
:1034B000B8010E940D306F5F7F4FDB01AA0FBB1F69
:1034C000A60FB71F91964C91919750E002C0559569
:1034D00047958A95E2F740FF02C082E001C081E093
:1034E00089933196E217F30704F3C901DF91CF9175
:1034F0001F910F91FF90EF90DF90CF900895CB0137
:10350000BA01A90128E030E00E94331A0895CB01E6
:10351000BA01A90120E130E00E94331A0895CB01DD
:10352000BA01A90120E230E00E94331A0895AF9257
:10353000BF92CF92DF92EF92FF920F931F93CF93A0
:10354000DF938B012115310521F434E0C32ED12CFA
:1035500003C021E0C22ED12CE42EE7017E01F52E1E
:10356000E701EE24FF245E01888181FF05C0C801C8
:103570006AEE72E00E94500A888180FF05C0C8018F
:1035800062EF72E00E94500A888182FF05C0C80184
:1035900062ED72E00E94500A888183FF05C0C80175
:1035A0006AED72E00E94500A888187FF05C0C80159
:1035B0006AEF72E00E94500A2196F5016081C8010D
:1035C00070E00E943E0B9C0197FD09C00894E11C2D
:1035D000F11C0F5F1F4FEC14FD042CF29601C90182
:1035E000DF91CF911F910F91FF90EF90DF90CF90DF
:1035F000BF90AF9008956F927F928F929F92AF92FB
:10360000BF92CF92DF92EF92FF920F931F93DF93BF
:10361000CF93CDB7DEB728970FB6F894DEBF0FBEB5
:10362000CDBF80E090E0BE016F5F7F4F40E050E093
:1036300020E230E00E94BD1784E090E0BE016B5FA5
:103640007F4F40E050E020E230E00E94BD17A980AB
:10365000BA80CB80DC806D807E808F809884809162
:10366000D6029091D702A091D802B091D9028621BA
:103670009721A821B9212091CE023091CF0240910B
:10368000D0025091D102822B932BA42BB52BEEECC0
:10369000F2E02091D2023091D3024091D4025091B5
:1036A000D5022A213B214C215D2112910291F290F9
:1036B000E2902E293F29402B512BA094B094C09426
:1036C000D094E090DA02F090DB020091DC021091DD
:1036D000DD02AE20BF20C022D1222A293B294C295D
:1036E0005D29208331834283538360947094809456
:1036F00090942091DE023091DF024091E0025091DF
:10370000E102622273228422952286299729A82920
:10371000B9298093CE029093CF02A093D002B093A8
:10372000D10228960FB6F894DEBF0FBECDBFCF9161
:10373000DF911F910F91FF90EF90DF90CF90BF909E
:10374000AF909F908F907F906F900895CF92DF926F
:10375000EF92FF920F931F93DF93CF93CDB7DEB716
:1037600028970FB6F894DEBF0FBECDBF8B01D42EC5
:10377000C52E06531D4F2115310521F464E0E62EB8
:10378000F12C03C051E0E52EF12CCE0101966AEC3C
:1037900072E048E050E00E94D9279601832F9C2DCB
:1037A000FC0180E090E0D8012C9121931D928D01C5
:1037B00001968E159F05BCF30E94FB1A89819A81A0
:1037C000AB81BC810097A105B10549F48D819E8133
:1037D000AF81B8850097A105B10509F445C0809176
:1037E000CA029091CB02A091CC02B091CD02009779
:1037F000A105B105C9F58091CE029091CF02A091AB
:10380000D002B091D1020097A105B10569F58EEE05
:1038100099E68E5E994643E0959587954A95E1F73E
:103820009093E7028093E6021092E9021092E80278
:1038300084EF96E066EE72E047E050E00E94932944
:10384000009791F000D000D082E595E6EDB7FEB785
:103850009283818386EA91E0948383830E940F267A
:103860000F900F900F900F90C70128960FB6F89405
:10387000DEBF0FBECDBFCF91DF911F910F91FF90A3
:10388000EF90DF90CF900895DC011496ED91FC91BC
:1038900015972091DA023091DB024091DC025091C1
:1038A000DD028091D2029091D302A091D402B09116
:1038B000D502822B932BA42BB52B80959095A095A8
:1038C000B095208131814281538182239323A423A7
:1038D000B5232091CA023091CB024091CC02509185
:1038E000CD02822B932BA42BB52B8093CA029093ED
:1038F000CB02A093CC02B093CD021082118212822F
:1039000013822091DE023091DF024091E00250915B
:10391000E1028091D6029091D702A091D802B09195
:10392000D902822B932BA42BB52B80959095A09533
:10393000B095248135814681578182239323A42326
:10394000B5232091CE023091CF024091D002509108
:10395000D102822B932BA42BB52B8093CE02909374
:10396000CF02A093D002B093D102148215821682A6
:1039700017820E94FB1A8EEE99E68E5E994673E0DE
:10398000959587957A95E1F79093E3028093E2020B
:103990008091CA029091CB02A091CC02B091CD024D
:1039A0000097A105B10589F421E030E08091CE02B5
:1039B0009091CF02A091D002B091D1020097A105C1
:1039C000B10529F420E030E002C021E030E030937E
:1039D000E5022093E40284EF96E062EE72E047E0B5
:1039E00050E00E9493290895AF92BF92CF92DF9248
:1039F000EF92FF920F931F93CF93DF935B01E42E1F
:103A0000E7017E01F52EE7012115310521F4F4E0EF
:103A1000CF2ED12C03C0E1E0CE2ED12CEE24FF24FA
:103A2000188287010A0D1B1DC8016AEE72E00E9410
:103A30008216009719F0888182608883C80162EF3E
:103A400072E00E948216009719F088818160888355
:103A5000C80162ED72E00E948216009719F0888119
:103A600084608883C8016AED72E00E948216009724
:103A700019F0888188608883C8016AEF72E00E942B
:103A80008216009719F08881806888830894E11C69
:103A9000F11CEC14FD0414F42196C2CFC601DF9191
:103AA000CF911F910F91FF90EF90DF90CF90BF903B
:103AB000AF90089580917A00992787FD9095A92F5E
:103AC000B92F8827B7FD83959927AA27BB27FA0125
:103AD00080839183A283B38380E090E00895FA010C
:103AE00080819181A281B3810097A105B10531F058
:103AF0000E94930B80917A00806803C080917A00C5
:103B00008F7780937A0080E090E00895AF92BF9223
:103B1000CF92DF92EF92FF920F931F93DF93CF9399
:103B2000CDB7DEB72A970FB6F894DEBF0FBECDBF74
:103B30006B018A017B0166E0F694E7946A95E1F7F0
:103B400055E0A52EB12CAC0EBD1EB701660F771F38
:103B50006E0D7F1D660F771F64537E49C50146E0D9
:103B600050E00E94ED2F8FE3C822DD24E4E0CE1662
:103B7000D10409F441C0F5E0CF16D10420F4C114FA
:103B8000D10459F057C088E0C816D104D1F1ECE057
:103B9000CE16D10409F04EC03EC081E48983FAE01C
:103BA000EF16F10430F0C7016AE070E00E94F92FCF
:103BB00001C06E2D605D6A838AE0E816F10438F07A
:103BC000C7016AE070E00E94F92F805D01C080E0CB
:103BD0008B831C82C801BE016F5F7F4F44E050E0C1
:103BE0000E94D927F801808193819083838381810A
:103BF0009281918382831BC08D8190E0A0E0B0E030
:103C000004C08F819885A985BA85F8018083918346
:103C1000A283B3830CC080917A0087FF0EC0C501D8
:103C20000E94A60BF801608371838283938320E056
:103C300030E005C02AEE3FEF02C023EF3FEFC9019D
:103C40002A960FB6F894DEBF0FBECDBFCF91DF919D
:103C50001F910F91FF90EF90DF90CF90BF90AF90AA
:103C60000895AF92BF92CF92DF92EF92FF920F939F
:103C70001F93DF93CF93CDB7DEB7AD970FB6F89410
:103C8000DEBF0FBECDBF5B017A016B0196E0D6941B
:103C9000C7949A95E1F78DE290E0C89EB001C99E65
:103CA000700DD89E700D112464507E498E010F5FF7
:103CB0001F4FC8014DE250E00E94ED2FDA82C98209
:103CC0008FE3A822BB24A0E1AA16B10469F1B4E1F4
:103CD000AB16B10489F1ECE0AE16B104C1F5D70121
:103CE0008C9180FF06C0EA8DFB8DC80109958C017F
:103CF00006C0EC8DFD8DC801099500E010E0E8A537
:103D0000F9A5309731F1D7014D915D916D917C917D
:103D100076956795579547954170507060707070B3
:103D2000CE010196099515C0F7014081518162814C
:103D30007381EAA1FBA107C0D7014D915D916D91FF
:103D40007C91ECA1FDA1C80109958C0102C00AEE8D
:103D50001FEFC801AD960FB6F894DEBF0FBECDBF02
:103D6000CF91DF911F910F91FF90EF90DF90CF9057
:103D7000BF90AF900895AF92BF92CF92DF92EF9233
:103D8000FF920F931F93DF93CF93CDB7DEB7AD971D
:103D90000FB6F894DEBF0FBECDBF5B018A016B0189
:103DA00026E0D694C7942A95E1F78DE290E0C89E6C
:103DB000B001C99E700DD89E700D112464507E49CB
:103DC0007E010894E11CF11CC7014DE250E00E9405
:103DD000ED2FC982DA828FE3A822BB24E8E0AE1679
:103DE000B10409F44FC0F9E0AF16B10448F4A114CE
:103DF000B104B1F084E0A816B10409F07BC022C080
:103E0000E0E1AE16B10409F468C0F4E1AF16B10404
:103E100009F466C08CE0A816B10409F06BC038C084
:103E2000C801BE016D5F7F4F44E050E00E94D9277A
:103E3000F801808193819083838381819281918332
:103E400082835BC08F819885A985BA85B070F8019F
:103E500080839183A283B3832AA13BA121153105DD
:103E600029F0B16080839183A283B3838CA19DA14B
:103E7000009709F442C0F80180819181A281B38149
:103E8000B26026C08B859C85AD85BE85F80120C0BB
:103E9000C6010E94130D21E030E040E050E00097A1
:103EA00019F420E030E0A901F80120833183428336
:103EB0005383EEA1FFA1309701F1CE010196099540
:103EC0000097D9F0F80180819181A281B38182604D
:103ED00080839183A283B38310C0EE8DFF8D02C0D7
:103EE000E8A1F9A1C7010995F80160837183828374
:103EF000938303C02AEE3FEF02C020E030E0C90107
:103F0000AD960FB6F894DEBF0FBECDBFCF91DF9157
:103F10001F910F91FF90EF90DF90CF90BF90AF90E7
:103F2000089580E090E00895CF93DF93FC01C48171
:103F3000D581888199818032910508F053C08A81AA
:103F40009B81009709F44EC082E293E060E070E04C
:103F500040E150E00E940A28409123034F704061E5
:103F6000409323031092240328813981C901805290
:103F70009C4F880F991F880F991F8C7F9F7080938B
:103F80002203892F8F70407F482B4093230385E0C5
:103F90008093250381E090E002C0880F991F2A9545
:103FA000E2F7AA2797FDA095BA2F80932603909356
:103FB0002703A0932803B093290380EF96E062E2E1
:103FC00073E047E050E00E94932997FF0BC000D0B8
:103FD00083E996E6EDB7FEB7928381830E940F26B0
:103FE0000F900F90DF91CF9108954115510559F031
:103FF00000D08CEA96E6EDB7FEB7928381830E94EB
:104000000F260F900F900895519A009719F0599A22
:104010005198089559980895509A009719F0589A10
:10402000509808955898089581E090E00E940420E7
:10403000089580E090E00E940C20089581E090E0D7
:104040000E940C208091A4079091A507A091A6073B
:10405000B091A7072091340330913503280F391F01
:104060000DC08091A4079091A507A091A607B091DB
:10407000A707A901481B590B57FD05C0489BF1CF65
:1040800020E030E002C022E93FEFC90108950F931C
:104090001F93CF93DF93C7E0D0E0082F10E0C80153
:1040A0000C2E02C0959587950A94E2F78170907066
:1040B0000E9404200E941E2097FD15C00E94192016
:1040C00021973FEFCF3FD30751F70E9414200E9462
:1040D0001E2097FD08C009B10E94192001FD06C0ED
:1040E00020E030E005C022E93FEF02C02FEF3FEFB4
:1040F000C901DF91CF911F910F9108958093C4035F
:10410000882331F0843021F021E030E0893011F44F
:1041100020E030E0C90108958EE09AE68E5E99466F
:1041200023E0959587952A95E1F79093C6038093B0
:10413000C50381E090E09093C8038093C70384EFA8
:1041400096E065EC73E047E050E00E949329009709
:1041500059F000D083E397E6EDB7FEB792838183F1
:104160000E940F260F900F9008951F93182F80E044
:1041700090E00E9404200E941E2081E090E00E94B6
:10418000042010933E03113011F08BE001C080E059
:104190008093C4030E948C201F910895AF92BF9218
:1041A000CF92DF92EF92FF920F931F93CF93DF9303
:1041B000DC0114962C911497222349F0213009F048
:1041C00079C110923E0380E00E947E208BC15AEF9D
:1041D000E52EF12C01E010E044E0B42E38E3C32ECC
:1041E00033E0D32EF0923503E0923403109333037F
:1041F000009332038091C403853009F488C086306F
:1042000050F48130E9F0813098F0823099F18330B8
:1042100009F068C13AC0873009F4B1C0873008F4AA
:10422000A5C0883009F4BDC08A3009F05BC13AC12D
:1042300080E090E00E9404200E94192081E018C1D3
:104240008091380390913903009749F081E090E024
:1042500020913A0330913B032115310511F080E0A4
:1042600090E020913603822B0E94472097FD1BC0CF
:1042700082E0FEC080913A0390913B03009779F170
:1042800010923D0310923C0340C0E091C303F0E064
:10429000EE5CFC4F86850E94472097FF06C0809108
:1042A000C2038093C30380E8FEC080913C039091D9
:1042B0003D03019690933D0380933C036091C303BB
:1042C0006F5F6F776093C30340913A0350913B0354
:1042D0002091C2038417950721F42093C30385E03E
:1042E000C7C030E0261B31092F773070211531050A
:1042F00061F4481B590B141615060CF0F1C082E04E
:1043000080933E030E948C20EBC083E0B1C080917B
:10431000380390913903009709F4C4C020913A03FF
:1043200030913B032115310579F4BFEF8F3F9B0797
:1043300019F48FEF9FEF02C080E090E090933D036F
:1043400080933C0388E00BC00E9414200E941E2032
:1043500080E090E00E9404200E94192086E00E94E4
:104360007E2010923D0310923C03A0C08091360342
:1043700081600E94472097FD96CF87E079C08091A9
:10438000380390913903EFEF8F3F9E0719F48FEFB9
:104390009FEF02C080E090E090933D0380933C0348
:1043A0007DC00E941420C0E0D0E0AA240E941E20FC
:1043B00097FD0DC0AA0C499B02C0F1E0AF2A80E036
:1043C00090E00E940C202196C830D10579F78091A9
:1043D000C00390E0FC01EE5CFC4FA68620913C03FC
:1043E00030913D034FEF2F3F3407C9F42A2D30E0C1
:1043F000809590954091C103840F911D8F779070A7
:104400008217930710F481E84EC010923D0310927A
:104410003C03A0923803D60111961C92119780910B
:104420003C0390913D03019690933D0380933C03A0
:10443000C1E0D0E02091380330913903821793070F
:1044400011F0C0E0D0E0209721F480E090E00E94DD
:1044500004200E941E2097FD02C00E941920809116
:10446000C0038F5F8F778093C003209721F08AE08D
:104470000E947E201BC090E0809590952091C10302
:10448000820F911D8F7790708837910529F4B09233
:104490003E030E948C2002C0009711F088E0E8CF14
:1044A00089E0E6CF81E00E94B5201CC0009709F0AA
:1044B00099CE18C000D000D0EDB7FEB7319682E299
:1044C00097E6ADB7BEB712969C938E931197228351
:1044D00013820E940F260F900F900F900F9002C032
:1044E00084E0C6CFDF91CF911F910F91FF90EF90A5
:1044F000DF90CF90BF90AF9008956F927F928F9290
:104500009F92AF92BF92CF92DF92EF92FF920F9362
:104510001F93CF93DF933C014B015A0121153105C5
:1045200021F0F8E0CF2ED12C03C0E4E0CE2ED12C28
:10453000C0E0D0E0FE01EC7FEA0DFB1DE080F180E1
:1045400002811381F30180819181880D991D8C0F67
:104550009D1F8031910509F43EC08131910528F4F9
:104560008830910509F03EC007C08431910599F16A
:1045700088319105B9F51BC0C7019070909337033E
:1045800080933603BB27A12F902F8F2D9F70909380
:104590003B0380933A0364E116950795F794E794FB
:1045A0006A95D1F7F0923903E092380314C0C7013D
:1045B00081709070009759F088EF96E060E070E0AD
:1045C00047E050E00E9493299C0197FD0DC08E2D7D
:1045D000827080933F032496CC15DD0508F4AACFA2
:1045E000960102C02FEF3FEFC901DF91CF911F91DC
:1045F0000F91FF90EF90DF90CF90BF90AF909F9082
:104600008F907F906F9008952F923F924F925F927C
:104610006F927F928F929F92AF92BF92CF92DF92D2
:10462000EF92FF920F931F93DF93CF9300D000D0B0
:10463000CDB7DEB79A8389832B013A012115310565
:1046400019F008E010E002C004E010E08EE09AE605
:104650008E5E9946B3E095958795BA95E1F7382E29
:10466000292E1C821B82A0E8CA2ED12CE12CF12C11
:10467000F9ECAF2EF3E0BF2EE9E48E2EE7E69E2E96
:10468000EB81FC81EC7FE60DF71DA981BA818D914C
:104690009C911197840D951D2B813C81820F931F56
:1046A0008031910509F4A7C08131910540F488302B
:1046B000910591F08C30910509F0B1C035C0883179
:1046C000910509F498C08032910509F499C08431AC
:1046D000910509F0A4C08FC080913A0390913B03EB
:1046E000A0E0B0E0BA2FA92F982F88272091380397
:1046F00030913903442737FD4095542FA9013327C2
:104700002227822B932BA42BB52B2091360330919B
:10471000370340E050E0822B932BA42BB52B8083F2
:104720009183A283B38370C08091C00390E02091F5
:10473000C103821B9109A0E0B0E08F779070A07058
:10474000B070BA2FA92F982F882720913E0330E010
:1047500040E050E0822B932BA42BB52B2091C20379
:1047600030E0209530954091C303240F311D40E087
:1047700050E02F77307040705070A9013327222706
:10478000822B932BA42BB52B80839183A283B3839D
:1047900080913E038823C1F13092C903D50111965F
:1047A0002C921092CC031092CB0384EF96E069EC2C
:1047B00073E047E050E00E949329009749F000D051
:1047C000EDB7FEB7928281820E940F260F900F9064
:1047D0008091C4038430C1F08930B1F08330A1F0FE
:1047E000883091F088EF96E061E070E047E050E0BB
:1047F0000E94932909C0108211821282138204C080
:10480000C082D182E282F3822B813C812C5F3F4FB8
:104810003C832B832017310708F432CF02C00FEFFF
:104820001FEFC8010F900F900F900F90CF91DF9165
:104830001F910F91FF90EF90DF90CF90BF90AF90BE
:104840009F908F907F906F905F904F903F902F90B0
:10485000089588EF96E060E070E047E050E00E9445
:1048600093290895AF92BF92CF92DF92EF92FF9279
:104870000F931F93CF93DF932115310519F0C8E0F3
:10488000D0E002C0C1E0D0E00091C00310E0609130
:10489000C10370E06801C61AD70A8FE7C822DD2479
:1048A000CC16DD06F4F15A0180E890E0861B970BE8
:1048B000080F191F0F771070801791070CF48C01E7
:1048C000C017D1070CF48E01605C7C4FC501A801B4
:1048D0000E94D9277E01E01AF10A1E141F048CF4ED
:1048E000E601C01BD10BEC16FD060CF4E701C50177
:1048F000800F911F60E473E0AE010E94D9270C0F76
:104900001D1F8091C103800F8F778093C103809119
:10491000C403893051F488E00E947E200E9429243B
:1049200004C01AEEE12E1FEFF12EC701DF91CF91E7
:104930001F910F91FF90EF90DF90CF90BF90AF90BD
:104940000895CF92DF92EF92FF920F931F93CF9330
:10495000DF932115310521F098E0E92EF12C03C0F9
:1049600081E0E82EF12C2091C303C22FD0E080918A
:10497000C20390E08C01009510950C0F1D1F0F775E
:1049800010700E151F050CF456C02FE730E0281BE1
:10499000390BC20FD31FCF77D0702C173D0714F4FB
:1049A000E90121966A01EC16FD060CF4E701805C32
:1049B0009C4FB601AE010E94D927EC1AFD0A1E14C5
:1049C0001F0484F40C1B1D0BE016F1060CF4870188
:1049D000B6016C0F7D1F80E493E0A8010E94D927E7
:1049E000C00FD11F2091C2032C0F2F772093C20339
:1049F0008091C403843019F530E08091C303281BF3
:104A000031092F77307080913A0390913B034091A8
:104A10003C0350913D03841B950B8937910510F0A1
:104A200088E790E02817390750F083E00E947E2045
:104A30000E94292404C00AEEE02E0FEFF02EC701D9
:104A4000DF91CF911F910F91FF90EF90DF90CF906A
:104A5000089521E0FA0180819181A281B3810097BC
:104A6000A105B10509F420E02093CD0384E090E096
:104A700008958091A4079091A507A091A607B091F1
:104A8000A7078091CD03882311F18091CE0388235D
:104A9000F1F481E08093CE0386E19AE68E5E99463A
:104AA00023E0959587952A95E1F79093D00380931D
:104AB000CF0381E090E09093D2038093D10384EF01
:104AC00096E06FEC73E047E050E00E949329089570
:104AD0002091CE0381E090E0A0E0B0E0222319F421
:104AE00080E090E0DC01FA0180839183A283B383AC
:104AF0002223D9F01092CE0386E19AE68E5E994683
:104B000033E0959587953A95E1F79093D403809398
:104B1000D3031092D6031092D50384EF96E063ED91
:104B200073E047E050E00E94932984E090E008950C
:104B300000005353004B435349534F4D4F53494D7E
:104B40000000384400003944003031440031314421
:104B50000030435000314350003243500033435043
:104B60000034435000354350000035440033314495
:104B70000000334400003244314458523144585408
:104B800000003444444C5854003231440000364450
:104B900000304550003145504257482300334550BE
:104BA00000344550003545504B4853480037455078
:104BB0000000354100003441003246500033465079
:104BC000000033410000324100003141000030411B
:104BD0000F931F93CF93DF939C01AB01C7EDD3E0FD
:104BE000CE01B9010E941D268C01CE010E946528CC
:104BF000C801DF91CF911F910F910895DF93CF935B
:104C0000CDB7DEB79E01275F3F4F8D819E816F81BB
:104C10007885A9010E941D26CF91DF910895DF9329
:104C2000CF93CDB7DEB7FE01359681919191BF014B
:104C30000E94E825CF91DF9108952F923F924F92E5
:104C40005F926F927F928F929F92AF92BF92CF921C
:104C5000DF92EF92FF920F931F93DF93CF93CDB725
:104C6000DEB762970FB6F894DEBF0FBECDBF1C0152
:104C70004E010894811C911C8C01FB0106C18532F8
:104C800029F531E0A32EB12C20E2422E512C9AE0DE
:104C9000C92ED12C9501DA0103C080E3482E512C96
:104CA00031968491893609F466C08A36D8F48835FD
:104CB00009F457C0893588F48A3261F18B3250F497
:104CC000882309F4E6C0853249F5AD01D8018D93FA
:104CD0008D01DAC0803311F5E0CF833649F1843697
:104CE000E9F449C08037E9F1813730F48E3609F4B0
:104CF000CAC08F3699F42EC08537E9F1883789F11B
:104D0000833761F4AD014E5F5F4F8D919C91BF0180
:104D1000DA0119C0CD90DC9011971296982F91531B
:104D2000993008F0BDCF282F30E020533040B8CF65
:104D3000AD018C91D8018D938D014E5F5F4FA4C062
:104D4000F80121938F01FC012191CF012223C1F7AA
:104D5000FB0199C05901AD01BAE0CB16D10439F07D
:104D60000CC05901AD0170E1C72ED12C06C068E01E
:104D7000C62ED12C02C05901AD01CA0102969A8BF0
:104D8000898BDA018D919C91119797FF0BC0BAE046
:104D9000CB16D10439F4909581959F4F31E0E32EE5
:104DA000F12C02C0EE24FF2421E1622E712C6C0E46
:104DB0007D1E20E130E0AF01F30138018A010BC014
:104DC00021503040B6010E94F92FDC01A254BE4FA1
:104DD0008C918293CB01009731F02115310581F739
:104DE000F801830109C0F80183012031310521F464
:104DF00020E3288B2FE030E0E114F10489F080E219
:104E00004816510451F421503040D401A20FB31F71
:104E10009DE29C93EE24FF2403C081E0E82EF12C58
:104E2000D401A20FB31F80E190E08A199B098E0D77
:104E30009F1D03C0215030404E9282179307D4F338
:104E4000E114F10439F021503040D401A20FB31F16
:104E50008DE28C9340E150E0421B530BC401820F62
:104E6000931FD8017F0106C0FC016191CF016D93B2
:104E70002F5F3F4F20313105BCF3F701040F151FA1
:104E800049895A8901C0AD0131968491882309F07E
:104E9000F6CE9801D8011C9222193309C9016296F5
:104EA0000FB6F894DEBF0FBECDBFCF91DF911F913B
:104EB0000F91FF90EF90DF90CF90BF90AF909F90B9
:104EC0008F907F906F905F904F903F902F900895BC
:104ED00082E189BD09B400FEFDCF089584E085BD5F
:104EE0008AEF87BD81E080936E00089580EA809309
:104EF000D800089580E98093D800089581E88093D0
:104F0000D7000895262F372FD901282F392FF901DF
:104F10002D9121932223E1F70895FC019F014191F6
:104F20004423E1F7281B390BC9010895462F572F59
:104F3000FC019F014115510529F0619141505040FC
:104F40006623B9F7281B390BC9010895FC01DB0161
:104F500081919D91891729F0891740F42FEF3FEF38
:104F600007C08823A9F720E030E002C021E030E04C
:104F7000C9010895282F392FD901862F972FFC01B9
:104F80000DC08D919191891729F0891758F42FEF51
:104F90003FEF0DC0882349F0415050404115510565
:104FA00081F703C021E030E002C020E030E0C90119
:104FB0000895CF93DF939C01DC01FB01CB01822B91
:104FC000932B80FD1DC0DB01F901CA0105C0CD9105
:104FD000DD91C193D193029782309105C0F7FA0118
:104FE000F695E795CF01880F991F481B590BFC01D7
:104FF000D901A80FB91FE60FF71F02C081918D9349
:10500000415050408FEF4F3F5807C1F7C901DF9122
:10501000CF910895EF92FF920F931F939C0120FD73
:1050200024C0CB01AA2797FDA095BA2F9070A0703D
:10503000B070EE24F82E092F1A2FE82AF92A0A2B2D
:105040001B2BF901CA0103C0E192F1920297823051
:105050009105D0F7CA0196958795FC01EE0FFF1FC9
:105060004E1B5F0BCF01820F931FFC0101C06193A8
:10507000415050408FEF4F3F5807C9F7C9011F916A
:105080000F91FF90EF9008950895DF93CF9300D094
:10509000CDB7DEB79A8389838A30910521F48DE0FC
:1050A00090E00E94452880917A0590917B050097B9
:1050B00039F0BE016F5F7F4F41E050E00E94BA07B8
:1050C0000F900F90CF91DF910895EF92FF92CF93C1
:1050D000DF93E82EE7017E01F92EE70103C090E09F
:1050E0000E94452889918823D1F780E090E0DF91E4
:1050F000CF91FF90EF900895CF93DF93C8E0D1E078
:1051000003C0E991F991099581E0C631D807C8F348
:10511000C8E0D1E003C0E991F991099581E0C83078
:10512000D807C8F380E090E0DF91CF910895FC01AB
:105130006091A4077091A5078091A6079091A70799
:105140006F5F7F4F8F4F9F4F2091A4073091A5072E
:105150004091A6075091A707261737074807590718
:1051600099F72E2F3F2F02C0215030401216130600
:10517000DCF32091A4073091A5074091A607509138
:10518000A707261B370B480B590BC9010895CF926F
:10519000DF92EF92FF920F931F93CF93DF9300E084
:1051A00012E0C0E0D2E004C00C0F1D1FCC0FDD1FC9
:1051B000C8010E9497280097B9F3159507957E01BD
:1051C000F594E794F594E79482E0C82ED12C0FC0B3
:1051D000E701C00FD11FCE010E949728009709F068
:1051E000E801C701B6010E940D307B018E01E11478
:1051F000F10471F710933C0400933B0480E090E0CD
:10520000DF91CF911F910F91FF90EF90DF90CF90A2
:1052100008959C01E0913B04F0913C0440E157E289
:10522000E49FC001E59F900DF49F900D112460EA6A
:105230007FE00E940D3006C0019718161906E4F3AE
:105240002051374287E22131380718F0862F972FF7
:10525000F4CF2E9FC0012F9F900D3E9F900D1124E3
:1052600060EA7FE00E94F92F02C06150704016167C
:105270001706DCF30895EF92FF920F931F93CF93DD
:10528000DF93C4ECD6E087E6E82E85E0F82E38C040
:1052900085E795E0BE0144E050E00E94ED2F0091CB
:1052A00075051091760524C08DE695E0B80148E0BB
:1052B00050E00E94ED2F60916F057091700587E6B8
:1052C00095E046E050E00E94ED2FF0927005E092EC
:1052D0006F05D0936E05C0936D05E0916705F09161
:1052E0006805309719F08DE695E00995085F1F4F26
:1052F000809177059091780508171907A9F62496EB
:1053000087E0C830D80720F280E490E09093420410
:105310008093410480E090E0DF91CF911F910F9145
:10532000FF90EF9008951F931FB7F894E0913D040C
:10533000F0913E044091410450914204415050404C
:105340009F0120953095A0913F04B09140042A0F11
:105350003B1F242335232115310521F41FBF24EFE2
:105360003FEF16C09F012F5F3F4F2423352330931B
:105370003E0420933D041FBFEE0FFF1FEE0FFF1FE3
:10538000ED5BFB4F738362839183808320E030E089
:10539000C9011F910895EF92FF920F931F93CF932E
:1053A000DF939C018B0185E595E0B90144E050E075
:1053B0000E94ED2FC0915505D091560539E5E32E99
:1053C00035E0F32E23C08FE595E0BE0148E050E0C4
:1053D0000E94ED2F609161057091620589E595E06D
:1053E00046E050E00E94ED2FF0926205E0926105E8
:1053F0001093640500936305E0915B05F0915C05F3
:10540000309719F08FE595E009952896809157051A
:1054100090915805C817D907B1F680E090E0DF9168
:10542000CF911F910F91FF90EF900895209141042B
:10543000309142042150304080913D0490913E04CF
:1054400040913F0450914004841B950B282339233D
:10545000C9010895AF92BF92CF92DF92EF92FF926F
:105460000F931F93CF93DF930E94162A6C01EE24B3
:10547000FF2453E4A52E55E0B52E58C0C0913F043B
:10548000D0914004CC0FDD1FCC0FDD1FCD5BDB4F77
:105490006991799181E595E044E050E00E94ED2F1B
:1054A000009151051091520526C089E495E0B8019C
:1054B00048E050E00E94ED2F60914B0570914C0543
:1054C00083E495E046E050E00E94ED2FB0924C0559
:1054D000A0924B058881998190934E0580934D054C
:1054E000E0914505F0914605309719F089E495E083
:1054F0000995085F1F4F8091530590915405081737
:10550000190799F6809141049091420401972091E6
:105510003F04309140042F5F3F4F822393239093A9
:10552000400480933F040894E11CF11CEC14FD043A
:105530000CF4A4CFDF91CF911F910F91FF90EF90CA
:10554000DF90CF90BF90AF90089520E030E067E00B
:1055500070E040E052E0FB01E21BF30BDA0102C015
:10556000B595A795EA95E2F7A817B9073CF42F5F20
:105570003F4F2830310579F72FEF3FEFC9010895EC
:10558000CF93DF93062E02C0959587950A94E2F794
:1055900080509F4F48E050E0461B570B21E030E021
:1055A00002C0220F331F4A95E2F7821B930BEFB71D
:1055B000F89460E270E00E940D30EB01CC0FDD1F2B
:1055C000CC0FDD1FC855D84F21E030E040E050E05F
:1055D00004C0220F331F441F551F8A95D2F7209510
:1055E00030954095509588819981AA81BB8182230D
:1055F0009323A423B52388839983AA83BB83EFBF16
:10560000DF91CF910895CF93DF93062E02C0959539
:1056100087950A94E2F780509F4F48E050E0461B80
:10562000570B21E030E002C0220F331F4A95E2F70A
:10563000821B930BEFB7F89460E270E00E940D308C
:10564000EB01CC0FDD1FCC0FDD1FC855D84F21E07B
:1056500030E040E050E004C0220F331F441F551FCC
:105660008A95D2F788819981AA81BB81822B932B5D
:10567000A42BB52B88839983AA83BB83EFBFDF91CB
:10568000CF910895DF93CF9300D0CDB7DEB7FC0163
:10569000EE0FFF1FE45EF74925913491C9010F9089
:1056A0000F90CF91DF9108954F925F926F927F920A
:1056B0008F929F92AF92BF92CF92DF92EF92FF9222
:1056C0000F931F93DF93CF93CDB7DEB764970FB6D9
:1056D000F894DEBF0FBECDBF7C014B010E94422B70
:1056E0006C015701AA0CBB1CB501645D7749CE0162
:1056F000019642E050E00E94ED2F69817A818E018F
:105700000B5F1F4F980140E050E010C0FB018591F6
:105710009591A591B491F90180839183A283B3837C
:105720002C5F3F4F4F5F5F4F6C5F7F4F4C155D05A8
:105730006CF388E090E08E199F0921E030E002C010
:10574000220F331F8A95E2F780E091E0821B930BD2
:1057500060E270E00E940D30FB01EE0FFF1FEE0FC4
:10576000FF1FE855F84F60E070E072C04190519023
:1057700061907190D8012D913D914D915D918D0178
:105780002421352146215721211531054105510597
:1057900009F45CC0F501E45CF749859194918B8331
:1057A0009C83AB81BC81CA01B90180709070611586
:1057B00071058105910531F49A0144275527E1E1EE
:1057C000F0E002C0E1E0F0E0222329F4232F342F9F
:1057D000452F55273896CA01B9016F7070708070D7
:1057E0009070611571058105910541F474E056953D
:1057F0004795379527957A95D1F73496CA01B9011F
:1058000063707070807090706115710581059105ED
:1058100041F462E056954795379527956A95D1F7FB
:10582000329620FF3196A095B095AE0FBF1F02C0F3
:10583000AA0FBB1FEA94E2F7F401B183A083AA0F79
:10584000BB1FAA0FBB1FAE55BA4F08C06F5F7F4F7B
:105850006C157D050CF48ACFA0E0B0E0CD01649614
:105860000FB6F894DEBF0FBECDBFCF91DF911F9171
:105870000F91FF90EF90DF90CF90BF90AF909F90EF
:105880008F907F906F905F904F900895CF92DF92AE
:10589000EF92FF920F931F93DF93CF9300D0CDB77A
:1058A000DEB76C018B01CB01BE016F5F7F4F0E94A1
:1058B000542B009731F189819A81B8010E94C02A46
:1058C00078010894E108F10889819A81B7010E9462
:1058D000032B81E090E00E2C02C0880F991F0A94E0
:1058E000E2F729813A8182279327B7010E94032B8F
:1058F0000C191D090230110524F0C601B7010E94E0
:10590000462C0F900F90CF91DF911F910F91FF9038
:10591000EF90DF90CF9008956F927F928F929F9239
:10592000AF92BF92CF92DF92EF92FF920F931F93AD
:10593000CF93DF93EC01C25AD540CB010E94A52A38
:105940008C0122E0C030D20720F000D089EF97E62A
:105950000CC001979E0102C0359527958A95E2F704
:1059600020FF0CC000D084ED97E6EDB7FEB7928320
:1059700081830E940F260F900F906AC07E01F594DC
:10598000E794F594E794C701B8010E94032BE8E07F
:10599000CE2ED12CC01AD10A71E0A72EB12C60E214
:1059A000662E712C0730110509F452C0E501002E56
:1059B00002C0CC0FDD1F0A94E2F74E018E249F2413
:1059C0009401002E02C0359527950A94E2F72050E5
:1059D0003F4FC5010C2C02C0880F991F0A94E2F7B3
:1059E000281B390B4FB7F894C901B3010E940D3041
:1059F000660F771F660F771F6855784FFB01808110
:105A00009181A281B3814FBF0894C108D1082F7141
:105A1000307004C0B695A795979587952A95D2F7CB
:105A2000817090700097A1F0C095D095CE21DF21B4
:105A3000C701B8010E94C02AC401B8010E94C02A4F
:105A40000F5F1F4FCE01B8010E94032B7E01AACF2A
:105A5000DF91CF911F910F91FF90EF90DF90CF904A
:105A6000BF90AF909F908F907F906F90089580E04F
:105A700090E067E070E00E94032B80E090E00895E2
:105A8000AF92BF92CF92DF92EF92FF920F931F934C
:105A9000DF93CF9300D0CDB7DEB70E94A52A8C014B
:105AA00080917905882329F40E94372D81E0809325
:105AB000790517FD1FC078015E010894A11CB11C77
:105AC00007C00894E11CF11CC801B7010E94462CD4
:105AD000C801B5010E94542B6C01009729F487E09E
