:1000000032C00000000000000000000000000000FE
:1000100000000000000000000000000000000000E0
:1000200000000000000000003DC000007DC0000096
:1000300000000000000000000000000000000000C0
:1000400000000000000000000000000000000000B0
:10005000000000000000000000000000B4C200002A
:1000600000002AC2CDC111241FBECFEFDAE0CDBF00
:10007000DEBFE4E0FEE60FE6A0E0B1E0EC35F0071D
:100080001CF425902D92FACFA0E6B2E007E0A03351
:10009000B00714F41D92FBCF0E948F1578940E9434
:1000A0002508E1CF1F920F920FB60F9211248F9364
:1000B0009F938091E1001092E10083FF13C01092A2
:1000C000E90091E09093EB001092EC0092E19093A4
:1000D000ED0098E09093F0001092F8011092FA0170
:1000E0001092F90182FF19C08091F801882379F0FC
:1000F00080910202882359F081508093020281117D
:1001000006C084E08093E9008AE38093E80083E0FE
:100110008093E90084E08093F0009F918F910F908D
:100120000FBE0F901F9018951F920F920FB60F924F
:100130001124EF92FF920F931F932F933F934F93AE
:100140005F936F937F938F939F93AF93BF93EF933F
:10015000FF93CF93DF931F92CDB7DEB78091F4006A
:1001600083FF14C083E08093E9008091E80082FF60
:1001700008C047E050E060E576E08AE292E00E9445
:1001800034068091E800887F8093E8001092E900AF
:100190008091E80083FF19C19091F1008091F100F6
:1001A0003091F1002091F100E32EF12CF22A009120
:1001B000F1002091F10010E0122B2091F1006091EC
:1001C000F10032EF3093E800863009F046C036E0A7
:1001D00084EF95E6FC01459154914E155F0539F485
:1001E000FC013296459154914017510721F0079632
:1001F000315081F7EAC0FC01349645915491FC01DD
:100200003696849130E0362B2F3F310519F010F0EF
:100210002FEF30E0281708F4822F3EEF9091E8008E
:10022000292F2570D9F392FDD3C0982F813108F082
:1002300090E1FA01292F222331F064916093F100BB
:1002400021503196F8CF490F511D891B3093E8009A
:100250008111E4CF903111F3BBC0853051F48EEFA2
:100260008093E8000E9452108E2D80688093E300F6
:10027000AFC0893071F5911185C0E092F8011092FC
:10028000FA011092F901109202028EEF8093E800B9
:1002900041E08DEA96E64093E9009C012F5F3F4FD5
:1002A000FC0154915093EB00552361F0F901249126
:1002B0002093EC009C012D5F3F4FFC01329684910E
:1002C0008093ED004F5F453011F0C901E4CF8EE11E
:1002D00077C0883051F4903809F054C00E94521011
:1002E0008091F8018093F10049C0813279F4913A0C
:1002F00009F048C00E945210EBEFF1E08191809329
:10030000F10082E0E230F807C9F738C0803299F492
:100310009132C1F58091E80082FFFCCFEBEFF1E074
:100320008091F100819382E0E230F807C9F78BEF0A
:100330008093E80023C0823251F4913209F045C025
:10034000F092FA01E092F9010E94521017C0811157
:1003500019C099830E9452109981923851F40093E8
:10036000E9008091EB0085FB882780F91092E90075
:1003700001C080E08093F1001092F1008EEF809335
:10038000E80026C0282F2D7F2130F9F49230E9F4BF
:10039000EF28D9F40F779FEF900F9430B0F49EEFD1
:1003A0009093E8000093E900833079F089E180932D
:1003B000EB0081E090E0002E01C0880F0A94EAF77C
:1003C0008093EA001092EA0003C081E28093EB0080
:1003D0000F90DF91CF91FF91EF91BF91AF919F91DE
:1003E0008F917F916F915F914F913F912F911F91CD
:1003F0000F91FF90EF900F900FBE0F901F901895E8
:100400001F920F920FB60F9211242F933F934F9389
:100410005F936F937F938F939F93AF93BF93EF936C
:10042000FF93209192023091930260919402709117
:100430009502A901461B570B4F715527C90180959D
:100440009095860F971F8F719927892B31F481E042
:1004500090E09093B7028093B6026091CE008091B5
:10046000B6029091B702892B61F4F901E057FD4F74
:1004700066832F5F3F4F2F71332730939302209372
:100480009202452B41F447E050E060E576E084E3DA
:1004900092E00E943406FF91EF91BF91AF919F913E
:1004A0008F917F916F915F914F913F912F910F901D
:1004B0000FBE0F901F9018951F920F920FB60F92BC
:1004C00011242F933F934F935F936F937F938F9359
:1004D0009F93AF93BF93EF93FF93AEB5A53009F50C
:1004E0002091FC043091FD048091FA049091FB046A
:1004F000821B930B8F739927892B89F0E091FE045F
:10050000F091FF04E20FF31F80818EBDC9010196B7
:100510008F7399279093FD048093FC0443C01EBC05
:1005200041C01EBCAA23F1F14091F0045091F104A6
:100530006091F2047091F3049A01261B370B2F731C
:100540003327CA0180959095860F971F8F7399273F
:10055000892B31F481E090E09093F7048093F604C6
:100560008091F6049091F704892B91F4E091F404C2
:10057000F091F504E40FF51FA0838091F0049091B1
:10058000F10401968F7399279093F1048093F004FE
:10059000232B41F447E050E060E576E08EE392E003
:1005A0000E943406FF91EF91BF91AF919F918F917F
:1005B0007F916F915F914F913F912F910F900FBE5F
:1005C0000F901F9018951F920F920FB60F92112443
:1005D0002F933F934F935F936F937F938F939F934B
:1005E000AF93BF93EF93FF9380910207909103071E
:1005F000A0910407B09105070196A11DB11D80933C
:10060000020790930307A0930407B093050747E000
:1006100050E060E070E080E496E00E948D2BFF9156
:10062000EF91BF91AF919F918F917F916F915F916A
:100630004F913F912F910F900FBE0F901F901895E3
:100640002007300718072007400748073007300702
:10065000300738074007400740074007300730079A
:10066000300730074807500758076007380740072A
:1006700050075807600768077007780778078007F2
:10068000680770078B01BE13B513AE013A1531151B
:10069000C401EA2F7F2FC901642F5B2FD101502F96
:1006A000472FD90127313E2F6C696E696E6F494F14
:1006B0003A206769742066393537373630206275DD
:1006C000696C7420646F6D20323031342D31302DDF
:1006D00030352031343A35383A343820636F6C6F16
:1006E00073696D6F40617375730A0000000000004C
:1006F00000000000000000000000000000000000FA
:1007000000000000000000000000000000000000E9
:1007100000000000000000000000836400000000F2
:1007200000007D640000000000000865000000007B
:100730000000F864000000000000C8670000BE026E
:1007400000008964000000000000CE670000BE02C7
:1007500000007569000000000000E3670000000071
:100760000000676A000000000000D06D0000DC049B
:100770000000D66D0000DC040000F2640000000000
:10078000000000000707070700000000000007073F
:100790000707000007000707000000000000000036
:1007A000070700000707070700000000000000001F
:1007B0000000000000000000000000000000000039
:1007C0000000000000000000000000000000000029
:1007D00047E050E060E070E080E496E00C948D2B00
:1007E00083B7817F83BF83B7816083BF889583B7D9
:1007F0008E7F83BF089589E391E09F938F9384E474
:1008000094E69F938F930E9410280F900F900F9063
:100810000F900E94C32B892B19F00E94D62BF9CF81
:100820000E94F003F6CF80E091E09F938F9389E7D9
:1008300094E69F938F930E941028E0E6F2E0F18304
:10084000E083F0936302E09362020F900F900F90A9
:100850000F9080E090E008958F929F92AF92BF92A8
:10086000CF92DF92EF92FF920F931F93CF93DF937C
:10087000C0916002D09161022697CE80DF8026E091
:10088000C21AD10800E011E0E12C82E0F82E32E03B
:10089000CA35D30709F44CC0809102079091030731
:1008A000A0910407B091050728813981821B930B21
:1008B00097FD3EC06C817D8147E050E084E496E086
:1008C0000E948D2BEE81FF8132E0E036F307C1F00C
:1008D000409102075091030760910407709105074A
:1008E000DF0116978D909D90AD90BC901397480DA9
:1008F000591D6A1D7B1D4D935D936D937C931397DA
:10090000A885B985B383A283ED93FC931F830E83DF
:10091000F986E8866AE070E0CE010E94062EF601B4
:1009200086819781E6019C01265031096901AFCF8C
:10093000DF91CF911F910F91FF90EF90DF90CF90BB
:10094000BF90AF909F908F900895CF92DF92EF92DB
:10095000FF920F931F93CF93DF936B017C01EA010A
:100960008AE090E00E94D82EFC01009709F469C04B
:1009700000910207109103072091040730910507A9
:100980000C0D1D1D2E1D3F1D0083118322833383FB
:10099000D583C483FFB6F894A0916002B091610240
:1009A00022E0A036B207D1F40696909363028093BA
:1009B0006202B783A683B187A08790936102809378
:1009C00060023BC0041B150B260B370B0083118301
:1009D0002283338316960D90BC91A02D1697CD01DE
:1009E000069622E080369207B9F0008111812281BB
:1009F00033814D915D916D917C911397E801C41BFA
:100A0000D50BD7FFDFCF401B510B620B730B4D9300
:100A10005D936D937C9313979F012A5F3F4F1896C8
:100A2000CD91DC91199719963C932E931897978343
:100A30008683D187C08739832883FFBE80E090E01A
:100A400002C084EF9FEFDF91CF911F910F91FF9034
:100A5000EF90DF90CF9008958F929F92AF92BF92C8
:100A6000CF92DF92EF92FF92CF93DF93C090020775
:100A7000D0900307E0900407F0900507C8E4D2E0A7
:100A800082E0C835D80748F4EC81FD81309719F031
:100A90008E819F8109956096F3CFC8E4D2E046012C
:100AA000570184E6880E911CA11CB11C82E0C83558
:100AB000D807C8F48C859D85AE85BF85880D991DA6
:100AC000AA1DBB1D8C879D87AE87BF87BC01CD014A
:100AD0006C197D098E099F09AE010E94A50497FD3E
:100AE00005C06096E3CF80E090E002C08FEF9FEFFB
:100AF000DF91CF91FF90EF90DF90CF90BF90AF90BC
:100B00009F908F9008950F931F93CF93DF93FC01D5
:100B1000C481D581EA81FB818E819F8109959F8364
:100B20008E8388859985AA85BB850C851D852E8534
:100B30003F85800F911FA21FB31F8C879D87AE87B3
:100B4000BF8700910207109103072091040730919D
:100B50000507A801481B590B57FD09C0D901C80159
:100B60000196A11DB11D8C879D87AE87BF876C85BF
:100B70007D858E859F85601B710B820B930BAE016B
:100B8000DF91CF911F910F910C94A5040F931F93A8
:100B9000CF93DF93CDB7DEB72A970FB6F894DEBFB9
:100BA0000FBECDBFDC0114960D911C911597C801A5
:100BB0000896F801A085B1852285338513963C936C
:100BC0002E931297F901B183A083D80119969C93B3
:100BD0008E9318971B969C938E931A971696ED9169
:100BE000FC911797CF010696268137812817390780
:100BF00071F4628173814AE050E0CE0101960E9457
:100C00007A31EF81F885309711F0C8010995F80124
:100C1000178216822A960FB6F894DEBF0FBECDBF9C
:100C2000DF91CF911F910F9108950F931F93CF9351
:100C3000DF938C01C0E2D2E0F2E0C834DF0758F461
:100C400068817981F801808191810E949429892BA2
:100C500029F02A96F1CF80E090E001C0CE01DF912B
:100C6000CF911F910F910895CF92DF92EF92FF9253
:100C70000F931F93CF93DF937B016A01FC01C68121
:100C8000D781209799F028978C010A5F1F4FCE01DA
:100C900008968017910751F0A601BE01C7010E9476
:100CA0008D2B0884D985C02D2897F1CFDF91CF9166
:100CB0001F910F91FF90EF90DF90CF900895AF922A
:100CC000BF92CF92DF92EF92FF920F931F93CF9339
:100CD000DF93CDB7DEB72A970FB6F894DEBF0FBE0D
:100CE000CDBF7C016B015A016115710519F486E1D4
:100CF00090E024C08CE090E00E94D82E8C010097F8
:100D000039F487E190E09093DB048093DA0469C0C2
:100D1000DC011196FC92EE921596BC92AE9214975D
:100D20001396DC92CE9212970E9415067C010097D2
:100D300061F4F8011782168286E090E09093DB045C
:100D40008093DA0400E010E04CC0D80117969C9321
:100D50008E931697FC0186819781892B31F4C70108
:100D600006969783868391878087D70112966D9127
:100D70007C9113974AE050E0CE0101960E947A31AF
:100D8000E981FA81309741F0C8010995009721F077
:100D9000F80117821682D2CFD7011696ED91FC91F9
:100DA0001797C801089693838283D8011996FC93FC
:100DB000EE93189797012A5F3F4F1B963C932E9313
:100DC0001A97F70197838683CA94CD2819F480E691
:100DD00096E002C08CE596E047E050E0B8010E9442
:100DE0008D2BC8012A960FB6F894DEBF0FBECDBF7B
:100DF000DF91CF911F910F91FF90EF90DF90CF90F7
:100E0000BF90AF900895CF93DF93EC018E819F81C7
:100E1000892B49F489E090E09093DB048093DA0415
:100E20008FEF9FEF17C08A819B81019719F488E5A6
:100E300096E002C084E596E047E050E0BE010E94E3
:100E40008D2B46E050E0BE0188E496E00E948D2B99
:100E500080E090E0DF91CF910895CF92DF92EF9202
:100E6000FF920F931F93CF93DF93CDB7DEB72A97EF
:100E70000FB6F894DEBF0FBECDBF8C017B016A01B7
:100E8000DC011696ED91FC911797309719F489E0E3
:100E900090E012C0628173814AE050E0CE01019679
:100EA0000E947A31F801828180FF04C0EB81FC81CD
:100EB000309749F481E090E09093DB048093DA046A
:100EC0008FEF9FEF11C0A601B701C801099597FFE9
:100ED00005C022273327281B390B02C020E030E051
:100EE0003093DB042093DA042A960FB6F894DEBF21
:100EF0000FBECDBFDF91CF911F910F91FF90EF906B
:100F0000DF90CF900895CF92DF92EF92FF920F93F0
:100F10001F93CF93DF93CDB7DEB72A970FB6F89420
:100F2000DEBF0FBECDBF8C017B016A01DC011696CE
:100F3000ED91FC911797309719F489E090E012C079
:100F4000628173814AE050E0CE0101960E947A31BD
:100F5000F801828181FF04C0ED81FE81309749F460
:100F600081E090E09093DB048093DA048FEF9FEFB1
:100F700011C0A601B701C801099597FF05C0222736
:100F80003327281B390B02C020E030E03093DB040C
:100F90002093DA042A960FB6F894DEBF0FBECDBFB9
:100FA000DF91CF911F910F91FF90EF90DF90CF9045
:100FB0000895EF92FF920F931F93CF93DF93CDB7D6
:100FC000DEB72A970FB6F894DEBF0FBECDBF8C01F7
:100FD0007B01DC011696ED91FC911797309719F47F
:100FE00089E090E00EC0628173814AE050E0CE015A
:100FF00001960E947A31E985FA85309749F481E0BB
:1010000090E09093DB048093DA048FEF9FEF10C0A1
:10101000B701C801099597FF05C022273327281B70
:10102000390B02C020E030E03093DB042093DA0477
:101030002A960FB6F894DEBF0FBECDBFDF91CF91D9
:101040001F910F91FF90EF900895CF93DF930E942F
:10105000CA2AC9ECD0E02197209729F088EE93E0C6
:101060000E94052BF8CFDF91CF910C94FB03809168
:101070006602909167020C9403078091660290913A
:1010800067020C94830780916602909167020C942A
:101090002D0740E050E063E070E081E491E00E94C1
:1010A0005F069093670280936602892B19F48DEE98
:1010B0009FEF08951092640282E08093650240E001
:1010C00050E063E070E08AE491E00E945F06909354
:1010D000690280936802892B51F380E090E00895C3
:1010E00080916502813071F480916A02882311F049
:1010F00080E001C082E08093650281111CC08DE513
:1011000091E01BC047E050E060E070E088E796E0C7
:101110000E948D2B97FF09C083ED94E69F938F93D8
:101120000E9410280F900F90089581E0809365022F
:1011300087E591E002C082E591E09F938F9381EB78
:1011400094E69F938F930E9410280F900F900F901A
:101150000F9008950C947008EF92FF920F931F93D5
:10116000CF93DF93CDB7DEB7C054D1090FB6F89453
:10117000DEBF0FBECDBFDC011496ED90FC9015973D
:101180008091680290916902E816F906D1F481E035
:1011900080936A0280916502813011F0109265029D
:1011A00040E450E0BE016F5F7F4FC7010E942D07F2
:1011B000181619060CF0C3C0AC01BE016F5F7F4F5B
:1011C000AFC0D7011696ED91FC911797CF01069607
:1011D000268137812817390709F4B1C0809166024A
:1011E00090916702E816F90641F08091000790910E
:1011F0000107E816F90609F0A2C08091640288236D
:1012000039F08091000790910107E816F90689F4FA
:1012100080916502813069F040E450E0BE016F5F6B
:101220007F4FC7010E942D078C01181619061CF06C
:1012300086C000E010E08091000790910107E81659
:10124000F906D1F58091660290916702FE01319610
:101250007F019F012E193F09201731073CF40097A9
:1012600029F021912D31A9F70E9470088091650223
:10127000813039F447E050E060E070E080E896E0CB
:101280005CC081110AC08091680290916902009748
:1012900021F0A801B7010E94830780916402813088
:1012A00009F44DC08091660290916702009709F49D
:1012B00046C0A801B70138C080916402811137C0CF
:1012C000FE0131967F01CF018E199F09801791078A
:1012D0000CF581918A3AB9F781E08093640281E646
:1012E00091E09F938F93E0916602F09167020680F0
:1012F000F781E02D81818F9380818F938FE894E631
:101300009F938F930E9410280F900F900F900F9033
:101310000F900F9080916402813089F0A801B7018D
:101320008091D8049091D9040E94830708C047E0B7
:1013300050E060E070E084E696E00E948D2BC05C97
:10134000DF4F0FB6F894DEBF0FBECDBFDF91CF9158
:101350001F910F91FF90EF9008952F923F924F921F
:101360005F926F927F928F929F92AF92BF92CF9235
:10137000DF92EF92FF920F931F93CF93DF93CDB73E
:10138000DEB728970FB6F894DEBF0FBECDBF03E8D7
:1013900012E018870F83F3E22F2E312C60E070E00B
:1013A000A12CB12C40E050E081E090E0A0E0B0E062
:1013B0009A012F5F3F4FF101D080F0906B020F2D0B
:1013C00010E0042E02C0159507950A94E2F700FD7F
:1013D0000CC001E010E002C0000F111F4A95E2F7B7
:1013E000A8014F2940936B0296C0EF81F885E080F9
:1013F000ED24FF24F39440E050E089010D581D4F87
:101400001A830983F901E358FD4FFC83EB838901BB
:1014100008581D4F1E830D83E981FA8110811F2119
:1014200009F472C01F2D1E2109F46EC0EB81FC81EE
:1014300010811F2191F1EF81F88510811F2169F53D
:10144000CFB6F8948A01060F171FF801689414F8B4
:10145000F595E7951694E1F7EE0FFF1FEE0FFF1FCE
:10146000E459FD4F0F7111272C013D0104C0440CBC
:10147000551C661C771C0A95D2F780809180A2804B
:10148000B38084289528A628B72880829182A282DA
:10149000B382CFBEAA24A394B12CED81FE8110812A
:1014A0001F2191F1EF81F88510811F2169F1CFB6DD
:1014B000F8948A01060F171FF801689414F8F5953F
:1014C000E7951694E1F7EE0FFF1FEE0FFF1FE459AB
:1014D000FD4F0F7111272C013D0104C0440C551C18
:1014E000661C771C0A95D2F780809180A280B38019
:1014F00084289528A628B72880829182A282B38268
:10150000CFBEAA24A394B12CFF0C4F5F5F4F48308D
:10151000510509F081CFEF81F885D192F887EF83EB
:10152000685F7F4FF3E02F0E311C2530310511F03D
:10153000A9013ECFAB2801F147E050E06CE672E034
:1015400088E696E028960FB6F894DEBF0FBECDBFB2
:10155000DF91CF911F910F91FF90EF90DF90CF908F
:10156000BF90AF909F908F907F906F905F904F90C3
:101570003F902F900C948D2B28960FB6F894DEBFD9
:101580000FBECDBFDF91CF911F910F91FF90EF90D4
:10159000DF90CF90BF90AF909F908F907F906F9093
:1015A0005F904F903F902F900895CF93DF938832B4
:1015B0009105E0F5AC014770552721E030E001C00E
:1015C000220F4A95EAF7EC01A3E0D595C795AA95B5
:1015D000E1F7522F5095DE01A258BD4F4C914523A3
:1015E0004C93FE01E758FD4F908195239083CC5892
:1015F000DD4F88818523888360FF02C0422B4C9396
:1016000061FF02C0922B908367FF02C0822B888308
:10161000CB018C709927009759F08C91822B8C9379
:101620008081822B808380E090E002C08AEE9FEF71
:10163000DF91CF910895883091056CF490917E00F0
:1016400021E030E0082E01C0220F0A94EAF7922B25
:1016500090937E00089540917D00089721E030E04E
:10166000082E01C0220F0A94EAF7422B40937D0016
:101670000895CF93DF9380917C008F7380937C00DB
:1016800080917C00806480937C0080917A008760E8
:1016900080937A0080917A008F7780937A00CBE1F3
:1016A000D5E685E6CF33D80731F0888190E00E94F7
:1016B0001B0B2696F6CF80E090E0DF91CF91089546
:1016C000CF92DF92EF92FF92FC012181822F90E076
:1016D0008830910574F430917E0081E090E0022E14
:1016E00001C0880F0A94EAF78095832380937E00D7
:1016F0000FC040917D009C012850310981E090E0AD
:1017000001C0880F2A95EAF78095842380937D0095
:10171000218180917C00807E80937C0030917C00D0
:10172000822F90E008970CF0205E232B20937C0002
:1017300080917A00806480937A0080917A0086FD9F
:10174000FCCF80917800C0907900D12CDC2CCC2487
:10175000EE24D7FCE094FE2CC82A818190E00E9400
:101760001B0BC701B601FF90EF90DF90CF9008955B
:1017700041505109509387004093860080E090E0EB
:10178000089560918600709187006F5F7F4F80E0C1
:1017900090E008954150510950939700409396006E
:1017A00080E090E0089560919600709197006F5FDF
:1017B0007F4F80E090E0089541504093D10080E059
:1017C00090E008956091D10070E06F5F7F4F8827AF
:1017D00077FD8095982F0895CF93DF9300D000D0A8
:1017E000CDB7DEB748BD80E090E00F900F900F902E
:1017F0000F90DF91CF91089568B570E080E090E0A0
:1018000008950896FC0165917591859194916F5F9B
:101810007F4F8F4F9F4F089584B58295817090E0E0
:101820000895BB27A72F962F852F8093890040937B
:10183000880080E090E008956091880070918900B0
:1018400080E090E008958091800086FB882780F9F1
:1018500090E00895BB27A72F962F852F80938B00AC
:1018600040938A0080E090E0089560918A00709132
:101870008B0080E090E008958091800082958170D7
:1018800090E00895BB27A72F962F852F80938D007A
:1018900040938C0080E090E0089560918C007091FE
:1018A0008D0080E090E008958091800082FB882781
:1018B00080F990E00895BB27A72F962F852F80935E
:1018C00099004093980080E090E00895609198001E
:1018D0007091990080E090E008958091900086FBDF
:1018E000882780F990E008954093D20080E090E04E
:1018F00008956091D20070E080E090E008958091BA
:10190000C100992787FD9095892F881F8827881FF8
:1019100090E0089584B5452B462B472B11F080614C
:1019200001C08F7E84BD80E090E0089580918000AA
:10193000452B462B472B11F0806401C08F7B809391
:10194000800080E090E0089580918000452B462B38
:10195000472B11F0806101C08F7E8093800080E072
:1019600090E0089580918000452B462B472B11F085
:10197000846001C08B7F8093800080E090E00895B8
:1019800080919000452B462B472B11F0806401C0BD
:101990008F7B8093900080E090E008958091C1005B
:1019A000452B462B472B11F0806801C08F77809321
:1019B000C10080E090E0089541E050E002C0440F93
:1019C000551F8A95E2F7662757FD6095762F80911F
:1019D0008C0290918D02A0918E02B0918F024823CB
:1019E00059236A237B2381E090E0452B462B472B2C
:1019F00011F480E090E008958E5395469595879573
:101A00009595879527EB3DE6AC01429FC001439F2A
:101A1000900D529F900D11240E94DC0C892B29F00F
:101A20008091880281508093880280918802811180
:101A300005C08091C100847F8093C1008091C20065
:101A40008E7F8093C20057980895CF939C012E53A8
:101A50003546359527953595279547EB5DE6249FC7
:101A6000C001259F900D349F900D1124C0918802D4
:101A7000C11109C081E0809388028091C1008B6010
:101A80008093C10007C00E94DC0C892B19F4CF5F42
:101A9000C09388028091C20089608093C200579AE7
:101AA00080E090E0CF910895CF93DF938E539546D9
:101AB000959587959595879527EB3DE6829FE00163
:101AC000839FD00D929FD00D1124CE010E94DC0C7B
:101AD000892B29F08091890281508093890280911D
:101AE000890281110EC0809190008D7F80939000BB
:101AF00080919100807E80939100109297001092C7
:101B00009600809190008F77809390003E9841E0FE
:101B100050E002C0440F551FCA95E2F7409550951A
:101B2000662757FD6095762F80918C0290918D02EB
:101B3000A0918E02B0918F0284239523A623B72310
:101B400080938C0290938D02A0938E02B0938F02AB
:101B5000DF91CF9108951F93CF93DF938E539546D6
:101B6000959587959595879527EB3DE6829FE001B2
:101B7000839FD00D929FD00D1124109189021111D5
:101B800014C081E0809389028091900082608093EC
:101B90009000809191008A61809391008FE39CE98D
:101BA000909397008093960008C0CE010E94DC0CB1
:101BB000892B19F41F5F109389028091900080682F
:101BC000809390003E9A41E050E002C0440F551FC0
:101BD000CA95E2F7662757FD6095762F80918C02B3
:101BE00090918D02A0918E02B0918F02842B952B43
:101BF000A62BB72B80938C0290938D02A0938E021C
:101C0000B0938F0280E090E0DF91CF911F91089513
:101C10000E94DC0C892B29F080918A0281508093EC
:101C20008A0280918A0281110EC0809180008D7F8E
:101C30008093800080918100807E8093810010924B
:101C40008700109286000895CF93DF938E539546B8
:101C5000959587959595879527EB3DE6829FE001C1
:101C6000839FD00D929FD00D1124CE010E94080EAB
:101C7000E0E8F0E08081877F8083279841E050E0B2
:101C800002C0440F551FCA95E2F74095509566274C
:101C900057FD6095762F80918C0290918D02A091D6
:101CA0008E02B0918F0284239523A623B7238093BD
:101CB0008C0290938D02A0938E02B0938F02DF91DD
:101CC000CF910895CF93DF938E5395469595879541
:101CD0009595879527EB3DE6829FE001839FD00D88
:101CE000929FD00D1124CE010E94080EE0E8F0E092
:101CF00080818F7D8083269841E050E002C0440FB0
:101D0000551FCA95E2F740955095662757FD609597
:101D1000762F80918C0290918D02A0918E02B091CD
:101D20008F0284239523A623B72380938C0290935C
:101D30008D02A0938E02B0938F02DF91CF91089510
:101D4000CF93DF938E539546959587959595879577
:101D500027EB3DE6829FE001839FD00D929FD00D3F
:101D60001124CE010E94080EE0E8F0E080818F7718
:101D70008083259841E050E002C0440F551FCA956A
:101D8000E2F740955095662757FD6095762F809134
:101D90008C0290918D02A0918E02B0918F028423CB
:101DA0009523A623B72380938C0290938D02A09352
:101DB0008E02B0938F02DF91CF910895CF93C0919F
:101DC0008A02C11114C081E080938A028091800050
:101DD000826080938000809181008A61809381007D
:101DE0008FE39CE9909387008093860007C00E9450
:101DF000DC0C892B19F4CF5FC0938A02CF91089530
:101E0000CF93DF938E5395469595879595958795B6
:101E100027EB3DE6829FE001839FD00D929FD00D7E
:101E20001124CE010E94DE0EE0E8F0E0808188609F
:101E30008083279A41E050E002C0440F551FCA95A5
:101E4000E2F7662757FD6095762F80918C0290917E
:101E50008D02A0918E02B0918F02842B952BA62B20
:101E6000B72B80938C0290938D02A0938E02B09337
:101E70008F0280E090E0DF91CF910895CF93DF93C0
:101E80008E539546959587959595879527EB3DE6D5
:101E9000829FE001839FD00D929FD00D1124CE012F
:101EA0000E94DE0EE0E8F0E0808180628083269A66
:101EB00041E050E002C0440F551FCA95E2F7662783
:101EC00057FD6095762F80918C0290918D02A091A4
:101ED0008E02B0918F02842B952BA62BB72B80936B
:101EE0008C0290938D02A0938E02B0938F0280E0BB
:101EF00090E0DF91CF910895CF93DF938E53954675
:101F0000959587959595879527EB3DE6829FE0010E
:101F1000839FD00D929FD00D1124CE010E94DE0E22
:101F2000E0E8F0E0808180688083259A41E050E01D
:101F300002C0440F551FCA95E2F7662757FD60950A
:101F4000762F80918C0290918D02A0918E02B0919B
:101F50008F02842B952BA62BB72B80938C0290930A
:101F60008D02A0938E02B0938F0280E090E0DF910B
:101F7000CF910895CF93DF938E539546959587958E
:101F80009595879527EB3DE6829FE001839FD00DD5
:101F9000929FD00D1124CE010E94DC0C892B29F0D8
:101FA00080918B02815080938B0280918B028111F2
:101FB00003C084B58C7F84BD84B58F7D84BD50986B
:101FC00041E050E002C0440F551FCA95E2F740952A
:101FD0005095662757FD6095762F80918C029091E1
:101FE0008D02A0918E02B0918F0284239523A623A7
:101FF000B72380938C0290938D02A0938E02B093AE
:102000008F02DF91CF9108951F93CF93DF938E536B
:102010009546959587959595879527EB3DE6829F03
:10202000E001839FD00D929FD00D112410918B025F
:10203000111107C081E080938B0284B5836084BD59
:1020400008C0CE010E94DC0C892B19F41F5F10938D
:102050008B0284B5806284BD509A41E050E002C09A
:10206000440F551FCA95E2F7662757FD6095762FF6
:1020700080918C0290918D02A0918E02B0918F027E
:10208000842B952BA62BB72B80938C0290938D02DB
:10209000A0938E02B0938F0280E090E0DF91CF9109
:1020A0001F9108958091E80080FFFCCF089581E0A2
:1020B0008093D70080EA8093D80082E189BD09B47B
:1020C00000FEFDCF80E98093D8001092E0001092CE
:1020D000F8011092FA011092F9018CE08093E2006D
:1020E00080E090E0089580E090E00895CF93DF9342
:1020F0008091F801882389F1CFB7F89483E0809329
:10210000E900A091F200FB01B0E0D3E0CF01861B13
:10211000970B9A01A417B5070CF49D01821793073A
:1021200074F4D093E9002091E80025FD02C0CFBFF0
:1021300006C0D093E9008091F1008193E7CF23E0BE
:102140002093E9002091F200211105C02091E800C0
:102150002F772093E800CFBF02C085EF9FEFDF917C
:10216000CF910895E2EEF0E08081877F808308952B
:102170008091F80190E008958091F9019091FA0121
:102180000895EF92FF921F93CF93DF937C01CB01D1
:102190002091F801211103C085EF9FEF58C24FB77E
:1021A000242FF89454E05093E900509103025523F2
:1021B00041F05091E80055FD02C04FBF3BC0109266
:1021C0000302A4E0B0E4CAE3D5E022C0122F40919C
:1021D000F2005B2F541B452F652F70E08617970781
:1021E00008F4482F841B910950E04134510578F1DF
:1021F000F70140814093F100A7014F5F5F4F7A01E3
:102200004091E80045FFC093E800D09302021FBF51
:10221000009709F41AC24091E400475E5091E8002B
:1022200055FDD4CF2FBF2091E400241306C081E0D8
:10223000809303028BEF9FEF0AC22091F8012223C3
:1022400009F4AACF2FB7F894A093E900E7CF4A5238
:102250005E4CFA010C94D031F70140814093F100BB
:10226000A7014F5F5F4F7A01F70140814093F10072
:10227000A7014F5F5F4F7A01F70140814093F10062
:10228000A7014F5F5F4F7A01F70140814093F10052
:10229000A7014F5F5F4F7A01F70140814093F10042
:1022A000A7014F5F5F4F7A01F70140814093F10032
:1022B000A7014F5F5F4F7A01F70140814093F10022
:1022C000A7014F5F5F4F7A01F70140814093F10012
:1022D000A7014F5F5F4F7A01F70140814093F10002
:1022E000A7014F5F5F4F7A01F70140814093F100F2
:1022F000A7014F5F5F4F7A01F70140814093F100E2
:10230000A7014F5F5F4F7A01F70140814093F100D1
:10231000A7014F5F5F4F7A01F70140814093F100C1
:10232000A7014F5F5F4F7A01F70140814093F100B1
:10233000A7014F5F5F4F7A01F70140814093F100A1
:10234000A7014F5F5F4F7A01F70140814093F10091
:10235000A7014F5F5F4F7A01F70140814093F10081
:10236000A7014F5F5F4F7A01F70140814093F10071
:10237000A7014F5F5F4F7A01F70140814093F10061
:10238000A7014F5F5F4F7A01F70140814093F10051
:10239000A7014F5F5F4F7A01F70140814093F10041
:1023A000A7014F5F5F4F7A01F70140814093F10031
:1023B000A7014F5F5F4F7A01F70140814093F10021
:1023C000A7014F5F5F4F7A01F70140814093F10011
:1023D000A7014F5F5F4F7A01F70140814093F10001
:1023E000A7014F5F5F4F7A01F70140814093F100F1
:1023F000A7014F5F5F4F7A01F70140814093F100E1
:10240000A7014F5F5F4F7A01F70140814093F100D0
:10241000A7014F5F5F4F7A01F70140814093F100C0
:10242000A7014F5F5F4F7A01F70140814093F100B0
:10243000A7014F5F5F4F7A01F70140814093F100A0
:10244000A7014F5F5F4F7A01F70140814093F10090
:10245000A7014F5F5F4F7A01F70140814093F10080
:10246000A7014F5F5F4F7A01F70140814093F10070
:10247000A7014F5F5F4F7A01F70140814093F10060
:10248000A7014F5F5F4F7A01F70140814093F10050
:10249000A7014F5F5F4F7A01F70140814093F10040
:1024A000A7014F5F5F4F7A01F70140814093F10030
:1024B000A7014F5F5F4F7A01F70140814093F10020
:1024C000A7014F5F5F4F7A01F70140814093F10010
:1024D000A7014F5F5F4F7A01F70140814093F10000
:1024E000A7014F5F5F4F7A01F70140814093F100F0
:1024F000A7014F5F5F4F7A01F70140814093F100E0
:10250000A7014F5F5F4F7A01F70140814093F100CF
:10251000A7014F5F5F4F7A01F70140814093F100BF
:10252000A7014F5F5F4F7A01F70140814093F100AF
:10253000A7014F5F5F4F7A01F70140814093F1009F
:10254000A7014F5F5F4F7A01F70140814093F1008F
:10255000A7014F5F5F4F7A01F70140814093F1007F
:10256000A7014F5F5F4F7A01F70140814093F1006F
:10257000A7014F5F5F4F7A01F70140814093F1005F
:10258000A7014F5F5F4F7A01F70140814093F1004F
:10259000A7014F5F5F4F7A01F70140814093F1003F
:1025A000A7014F5F5F4F7A01F70140814093F1002F
:1025B000A7014F5F5F4F7A01F70140814093F1001F
:1025C000A7014F5F5F4F7A01F70140814093F1000F
:1025D000A7014F5F5F4F7A01F70140814093F100FF
:1025E000A7014F5F5F4F7A01F70140814093F100EF
:1025F000A7014F5F5F4F7A01F70140814093F100DF
:10260000A7014F5F5F4F7A01F70140814093F100CE
:10261000A7014F5F5F4F7A01F70140814093F100BE
:10262000A7014F5F5F4F7A01F70140814093F100AE
:10263000A7014F5F5F4F7A01F70140814093F1009E
:10264000A7014F5F5F4F7A01D3CD80E090E0DF912B
:10265000CF911F91FF90EF900895CF93DF93CB011F
:10266000EA01209779F48091F801811102C085EF89
:102670000FC08091F9019091FA0180FFF8CF80E0BE
:1026800090E009C0BA010E94C110892B19F08FEFA8
:102690009FEF01C0CE01DF91CF91089580E090E0DF
:1026A0000895CA01FB019F01261B370B2817390724
:1026B00044F421913091C80035FFFCCF2093CE0027
:1026C000F2CF0895E9ECF0E0808187768083089569
:1026D000CF93DF93CB01E0919402F091950220E239
:1026E00030E02E1B3F0BC0919202D0919302C20F9B
:1026F000D31FCF71DD274C175D070CF4EA012C17AF
:102700003D070CF4E901209749F1BF016A567D4F5E
:10271000AE010E94C22980919402909195028C0F83
:102720009D1F8F7199279093950280939402109228
:10273000B7021092B6022091920230919302281BA8
:10274000390B2F713327232B61F047E050E060E510
:1027500076E084E392E00E94340603C085EF9FEFA9
:1027600001C0CE01DF91CF9108958AED96E69F9347
:102770008F930E9410280F900F900895CF93DF93AE
:102780000297A4F1DB011296ED91FC9113978081E1
:1027900090E0C1978330910578F09F938F9384ECFC
:1027A00096E69F938F930E9410280F900F900F90A2
:1027B0000F90CAEEDFEF1CC08093040226E0289F32
:1027C000F001299FF00D1124EE50F949208131814B
:1027D0004281538160E472E48FE090E00E94AE3168
:1027E000215031093093CD002093CC00C0E0D0E0DF
:1027F00080910402882319F080EC96E602C082ECF6
:1028000096E69F938F930E9410280F900F908DE76C
:1028100091E09F938F931F9281E08F9387EB96E6D1
:102820009F938F930E9410280F900F900F900F90FE
:102830000F900F9080910402813019F080EC96E6A1
:1028400002C082EC96E69F938F930E9410280F900F
:102850000F9084E891E09F938F931F9282E08F9373
:1028600087EB96E69F938F930E9410280F900F900E
:102870000F900F900F900F90CE01DF91CF910895A0
:1028800083E090E09093CD008093CC00109295026D
:1028900010929402109293021092920288E980930F
:1028A000C90080E090E00895289A239A80E090E0A3
:1028B00008958091FA049091FB0480959095209161
:1028C000FC043091FD04820F931F8F7399279A01A6
:1028D000841795070CF49C012115310509F1FB01C2
:1028E000CF01861B970B82179307C4F44191A091E7
:1028F000FE04B091FF048091FA049091FB04A80FAC
:10290000B91F4C938091FA049091FB0401968F7348
:1029100099279093FB048093FA04E2CFC9010895AC
:1029200085EF9FEF08958CB58F778CBD8CB58F7B2D
:102930008CBD60E470E08091F4049091F5040E94F5
:10294000062E60E470E08091FE049091FF040C94E8
:10295000062E1F93CF93DF93CB011FB7F894E0911E
:10296000F204F091F30420E430E02E1B3F0BC09101
:10297000F004D091F104C20FD31FCF73DD274C17A1
:102980005D070CF4EA012C173D070CF4E9012097D0
:1029900021F41FBF85EF9FEF2DC06091F40470916B
:1029A000F5046E0F7F1FAE010E94C2298091F204D0
:1029B0009091F3048C0F9D1F8F7399279093F304CC
:1029C0008093F2041092F7041092F6042091F00420
:1029D0003091F104281B390B2F733327232B41F03F
:1029E00047E050E060E576E08EE392E00E94340636
:1029F0001FBFCE01DF91CF911F91089580E48CBD60
:102A00008CB580688CBD80E490E00E94D82E9093B5
:102A1000F5048093F40480E490E00E94D82E909313
:102A2000FF048093FE0480E090E0089540E050E0D1
:102A300062E070E085EA91E00E945F069093D9041D
:102A40008093D80440E050E061E070E085EA91E0D6
:102A50000E945F06909301078093000780E090E05A
:102A6000089583E297E69F938F930E9410280F901A
:102A70000F900895AF92BF92CF92DF92EF92FF92A4
:102A80000F931F93CF93DF93C0E0D0E00CE117E6E4
:102A900086E1E82E87E6F82E94E1C92E97E6D92E36
:102AA0005E0187E0A822BB24A114B10451F4DF9396
:102AB000CF931F930F930E9410280F900F900F90A9
:102AC0000F9089911F928F93FF92EF920E9410288E
:102AD0000F900F900F900F9087E0A816B10431F47B
:102AE000DF92CF920E9410280F900F90C11581E0C5
:102AF000D807B1F682E197E69F938F930E94102842
:102B00000F900F9080E090E0DF91CF911F910F9197
:102B1000FF90EF90DF90CF90BF90AF900895E1E6E7
:102B2000F0E080E8808310820E945A290E943B2BAB
:102B30000E947C2A80E090E008950895CF93DF936F
:102B4000DC011496ED91FC911597E60FF71F80813B
:102B50009181A281B381EA0188839983AA83BB838F
:102B6000232B59F084819581A681B7818C839D8325
:102B7000AE83BF8388E090E002C084E090E0DF9104
:102B8000CF910895CF93DF93DC011696ED91FC91E0
:102B90001797EA0188819981AA81BB81E60FF71F07
:102BA00080839183A283B383232B59F08C819D81F1
:102BB000AE81BF8184839583A683B78388E090E04C
:102BC00002C084E090E0DF91CF910895FA01DC012A
:102BD00014962D913C911597260F371F48E050E031
:102BE000B901CF010E94C22988E090E00895FA015E
:102BF000DC0114968D919C911597232B41F4DC01F7
:102C0000A60FB71F8C91808381E090E00895680F34
:102C1000791F48E050E0CF010E94C22988E090E08F
:102C20000895FA01DC0114968D919C911597232B40
:102C300051F4DC01A60FB71F8D919C919183808385
:102C400082E090E00895680F791F48E050E0CF01DE
:102C50000E94C22988E090E00895FA01DC011496F0
:102C60002D913C911597260F371F48E050E0B90190
:102C7000CF010E94C22988E090E00895FB01BA01CB
:102C8000DC0116968D919C911797232B41F4DA0164
:102C90002C91E80FF91F208381E090E0089548E02F
:102CA00050E08E0F9F1F0E94C22988E090E0089597
:102CB000FB01BA01DC0116968D919C911797232B8D
:102CC00051F4DA012D913C91E80FF91F31832083F3
:102CD00082E090E0089548E050E08E0F9F1F0E9430
:102CE000C22988E090E008959B01BA01FC01868129
:102CF000978148E050E0820F931F0E94C22988E02C
:102D000090E00895CF93DF93FC01C481D581FE014B
:102D1000E60FF71F85919591A591B491FA018083F3
:102D20009183A283B383232B81F0FB013496EC0FB4
:102D3000FD1F85919591A591B491FA0184839583A6
:102D4000A683B78388E090E002C084E090E0DF9142
:102D5000CF910895CF93DF93DA01EC01EC81FD81EF
:102D6000232B39F4E60FF71FE491EC9381E090E018
:102D700009C06E0F7F1F48E050E0CD010E947A31FC
:102D800088E090E0DF91CF910895CF93DF93DA014F
:102D9000EC01EC81FD81232B49F4E60FF71F8591AF
:102DA00094918D939C9382E090E009C06E0F7F1FF9
:102DB00048E050E0CD010E947A3188E090E0DF9158
:102DC000CF910895DC011496ED91FC9115976681E1
:102DD00077811696ED91FC91179740E150E0828142
:102DE00093810E94830797FF08C08AE497E69F9328
:102DF0008F930E9410280F900F900895CF93DF9328
:102E0000EC01009789F1AC0161E070E081EB91E0A9
:102E10000E945F06009721F48091000790910107BE
:102E200099838883892B19F484E797E617C0AE014C
:102E300062E070E081EB91E00E945F069B838A83F1
:102E4000892B31F48091D8049091D9049B838A8393
:102E50008A819B81892B59F48FE597E69F938F9305
:102E60000E9410280F900F908FEF9FEF02C080E01C
:102E700090E0DF91CF9108958F929F92AF92BF9291
:102E8000CF92DF92EF92FF920F931F93CF93DF9336
:102E9000CDB7DEB7A4970FB6F894DEBF0FBECDBF97
:102EA000DC011696ED90FC9017978091BC029091F2
:102EB000BD02892B39F481E090E09093BD028093AC
:102EC000BC0219C0F70184899589892BA1F08091F2
:102ED000020790910307A0910407B0910507209184
:102EE000B8023091B902245F3F4F281B390B37FFDE
:102EF00002C0158A148A8091020790910307A0915D
:102F00000407B09105078093B8029093B902A0938B
:102F1000BA02B093BB02D7010D911C916701B4E0D6
:102F2000CB0ED11CF7016489758940E150E0461B46
:102F3000570B6C0D7D1DC8010E942D071816190630
:102F4000CCF0892B99F4C8010E940307A70161E026
:102F500070E081EB91E00E945F06009721F4809180
:102F6000000790910107D7018D939C93F701158A73
:102F7000148A43C1D70154962D913C915597280F3F
:102F8000391F55963C932E9354972031310508F400
:102F900034C155961C921E92549716966C911697B2
:102FA000862F8E71823009F028C115968C918295FA
:102FB0008F7061706295607F682BB8E06B9FB00185
:102FC000112464527249EEE664307E0708F047C06F
:102FD00048E050E0CE014B960E947A31D701179617
:102FE0008C9186FD0AC18F718695AA24A394B12C79
:102FF00002C0AA0CBB1C8A95E2F7812C912C00E040
:1030000010E08B8D9C8D081719070CF03DC06D8D5D
:103010007E8D680D791D4AE050E0CE0141960E94F8
:103020007A31EB89FC894591549129893A89F701D4
:1030300084816581962F9F708217930750F08A0DC7
:103040009B1D019721503109240F351F281739077F
:103050009CF50F5F1F4FFAE08F0E911CD2CFD70166
:1030600012968D919C9113970DEE1FEF2FEF3FEF6E
:10307000F701008711872287338727812062278302
:1030800040E150E0B60115C0E9A1FAA1D7011296BE
:103090008D919C91139746E150E060E070E044838D
:1030A00055836683778323812062238340E150E048
:1030B000BF010E948307A1C0F7012781207830E07B
:1030C000698D7A8D61157105E1F040E150E0CE0126
:1030D00001962BA33CA30E947A31D7011796EC915D
:1030E0002BA13CA1E0FD7CC0EE7181E090E08C0F53
:1030F0009D1F8E0F911DFC0100811181A12CB12C0F
:1031000004C0A12CB12C00E010E049A15AA180E13B
:10311000F7013496DA0101900D928A95E1F7DA0110
:1031200013968C911397806413968C930115110557
:1031300079F04C5F5F4FF70164818581782F7F7054
:1031400089899A89681B790BCE014196F80115C0CF
:10315000A114B104A1F0A6014C5F5F4FD7011496F2
:103160006C91149715968C91782F7F7089899A8924
:10317000681B790BCE014196F501099502C08FEFCE
:103180009FEFD70112962D913C91139797FF16C090
:10319000E9A1FAA144275527481B590B662757FD7B
:1031A0006095762F4483558366837783838180621D
:1031B000838340E150E0BF01C9017BCF69A17AA1BF
:1031C00040E150E0C9010E94830797FF16C08AE4DE
:1031D00097E69F938F930E9410280F900F900DC039
:1031E000F0E03197EE71FF2781E090E08C0F9D1F9A
:1031F000E80FF91FA084B18486CFA4960FB6F89487
:10320000DEBF0FBECDBFDF91CF911F910F91FF9019
:10321000EF90DF90CF90BF90AF909F908F900895E8
:10322000CF93DF93E82F492FEB0168E070E00E9415
:103230009A312E2F342F37FF02C0295F3F4F93E082
:10324000359527959A95E1F72F5F3F4FF901EE0FDE
:10325000FF1FE20FF31F92A121E030E0082E01C012
:10326000220F0A94EAF7CD2B11F0922B02C0209581
:10327000922392A3DF91CF9108959C0197FF02C002
:10328000295F3F4F53E0359527955A95E1F72F5F1A
:103290003F4FF901EE0FFF1FE20FF31F40A168E05F
:1032A00070E00E949A3121E030E001C0220F8A953F
:1032B000EAF7422381E090E011F480E090E0089585
:1032C0002FB7F894FC0197FD7F96A5E0F595E7955B
:1032D000AA95E1F7EE0FFF1FEE0FFF1FE60FF71F96
:1032E00060E270E00E949A3141E050E060E070E0FE
:1032F00004C0440F551F661F771F8A95D2F780813F
:103300009181A281B381842B952BA62BB72B80832F
:103310009183A283B3832FBF08959C014FB7F89484
:10332000FC0197FD7F9685E0F595E7958A95E1F795
:10333000EE0FFF1FEE0FFF1FE60FF71F8081918139
:10334000A281B3814FBF2F71332704C0B695A795D3
:10335000979587952A95D2F78170992708958FEFD1
:103360009FEF08958FEF9FEF08958FEF9FEF0895E0
:103370008FEF9FEF08958FEF9FEF08958FEF9FEFEF
:1033800008952F923F924F925F926F927F928F9209
:103390009F92AF92BF92CF92DF92EF92FF920F93E4
:1033A0001F93CF93DF9300D000D000D0CDB7DEB70E
:1033B0007A836983890123E0880F991F2A95E1F7B1
:1033C000452B11F4980102C028E030E07C011E82F8
:1033D0001D82ED81FE81E217F3070CF098C06D802D
:1033E0007E8077FE03C087E0680E711CB3E07594A1
:1033F0006794BA95E1F7E981FA816E0E7F1E083075
:103400001105A9F4F3014081C701F7FC0796F3E029
:1034100095958795FA95E1F70196FC01EE0FFF1F50
:10342000E80FF91FC70187709927892B69F1CD80B3
:10343000DE80D7FE03C0FFE0CF0ED11C74E0D59430
:10344000C7947A95E1F7CC0CDD1C89819A81C80E6E
:10345000D91EAD80BE80B7FE03C09FE1A90EB11C8E
:1034600045E0B594A7944A95E1F7AA0CBB1CAA0CB9
:10347000BB1CE981FA81AE0EBF1E212C312C21012B
:103480002394812C912C2CC042A338C0003111050B
:1034900059F10032110561F108301105D1F5F30140
:1034A000808190E0A0E0B0E082219321A421B521A9
:1034B00061E070E0892B8A2B8B2B11F460E070E0C7
:1034C000C4018E0D9F1D2B833C830E941019FFEFBA
:1034D0008F1A9F0A220C331C441C551C3C812B81E3
:1034E000801691069CF20AC0F60180819181DACFA4
:1034F000F50180819181A281B381D6CF8D819E819A
:10350000800F911F9E838D83E00EF11E62CFC90153
:1035100002C08AEE9FEF26960FB6F894DEBF0FBE6C
:10352000CDBFDF91CF911F910F91FF90EF90DF9072
:10353000CF90BF90AF909F908F907F906F905F9053
:103540004F903F902F900895CB01BA01A90128E038
:1035500030E00C94C119CB01BA01A90120E130E09F
:103560000C94C119CB01BA01A90120E230E00C94FE
:10357000C119CB01BA01A90128E030E00C94C119AE
:10358000CB01BA01A90128E030E00C94C1192F92B7
:103590003F924F925F926F927F928F929F92AF92E3
:1035A000BF92CF92DF92EF92FF920F931F93CF9330
:1035B000DF93CDB7DEB728970FB6F894DEBF0FBE06
:1035C000CDBF4B018901F3E0880F991FFA95E1F710
:1035D000452B11F4190103C0E8E02E2E312C7C019B
:1035E00018861F827AED472E55245A94652C752C27
:1035F0002AED3FEFEF81F885E215F3050CF09CC052
:10360000CF80D884D7FE03C087E0C80ED11C63E00A
:10361000D594C7946A95E1F7C80CD91C00311105FF
:10362000F1F000321105F1F00830110501F5C70184
:1036300087709927892B81F4C701F7FC079643E02F
:10364000959587954A95E1F70196FC01EE0FFF1FCE
:10365000E80FF91F80A101C08AEEF6018083F60110
:1036600031832083F601408251826282738240E07E
:1036700050E0BA01A12CB12CA016B1062CF5C50161
:103680008E0D9F1D2D833E8349835A836B837C83DC
:103690000E943D19AA2797FDA095BA2F0A2C04C0B5
:1036A000880F991FAA1FBB1F0A94D2F749815A811C
:1036B0006B817C81482B592B6A2B7B2BFFEFAF1A38
:1036C000BF0A3E812D81D8CF0031110549F000326B
:1036D0001105B1F00830110589F5F601408323C0CA
:1036E000EF81F885F7FD3F9684E0F595E7958A959B
:1036F000E1F7EE0FFF1FE80DF91D5183408313C062
:10370000EF81F885F7FD7F96A5E0F595E795AA95F9
:10371000E1F7EE0FFF1FEE0FFF1FE80DF91D4083CD
:103720005183628373838F819885800F911F98875F
:103730008F83E00EF11E5ECFC10102C08AEE9FEFC3
:1037400028960FB6F894DEBF0FBECDBFDF91CF91A4
:103750001F910F91FF90EF90DF90CF90BF90AF90AF
:103760009F908F907F906F905F904F903F902F90A1
:103770000895CB01BA01A90128E030E00C94C71AE2
:10378000CB01BA01A90120E130E00C94C71ACB01AA
:10379000BA01A90120E230E00C94C71A8F929F92DF
:1037A000AF92BF92CF92DF92EF92FF920F931F934F
:1037B000CF93DF93CDB7DEB728970FB6F894DEBF6F
:1037C0000FBECDBF7C016B018A0159014115510526
:1037D00011F4490103C0B8E28B2E912C9501A80188
:1037E000BE016F5F7F4FC7010E94C71A97FD20C0BF
:1037F000F40197FC3796CF01A3E095958795AA959C
:10380000E1F7FE013196D6019D012C193D092817DB
:1038100039072CF43D912081232B2193F5CF98017A
:10382000A501BE016F5F7F4FC7010E94C11902C091
:103830008FEF9FEF28960FB6F894DEBF0FBECDBF77
:10384000DF91CF911F910F91FF90EF90DF90CF907C
:10385000BF90AF909F908F900895CB01BA01A901BE
:1038600020E130E00C94CE1BCB01BA01A90120E28B
:1038700030E00C94CE1B8F929F92AF92BF92CF926A
:10388000DF92EF92FF920F931F93CF93DF93CDB709
:10389000DEB728970FB6F894DEBF0FBECDBF7C0110
:1038A0006B018A0159014115510511F4490103C009
:1038B00038E2832E912C9501A801BE016F5F7F4FE6
:1038C000C7010E94C71A97FD20C0F40197FC3796E4
:1038D000CF0123E0959587952A95E1F7FE01319672
:1038E000D6019D012C193D09281739072CF43D916B
:1038F0002081232B2193F5CF9801A501BE016F5F95
:103900007F4FC7010E94C11902C08FEF9FEF289619
:103910000FB6F894DEBF0FBECDBFDF91CF911F91E0
:103920000F91FF90EF90DF90CF90BF90AF909F905E
:103930008F900895CB01BA01A90120E130E00C94E9
:103940003B1CCB01BA01A90120E230E00C943B1CE6
:103950008F929F92AF92BF92CF92DF92EF92FF929F
:103960000F931F93CF93DF93CDB7DEB728970FB692
:10397000F894DEBF0FBECDBF20E030E0AE014F5F58
:103980005F4F60E070E080E090E00E94C71B20E0A5
:1039900030E0AE014B5F5F4F64E070E080E090E0AC
:1039A0000E94C71B09811A812B813C81CD80DE805A
:1039B000EF80F8848091E8029091E902A091EA02F8
:1039C000B091EB028C219D21AE21BF21E4E0F3E018
:1039D0004481558166817781842B952BA62BB72B4B
:1039E0004091E4025091E5026091E6027091E70295
:1039F000402351236223732380809180A280B3806F
:103A0000482959296A297B290095109520953095D8
:103A10008090DC029090DD02A090DE02B090DF0288
:103A2000082119212A213B21402B512B622B732B7A
:103A30004083518362837383B701A60140955095FB
:103A4000609570950091E0021091E1022091E202F0
:103A50003091E3024023512362237323842B952B5F
:103A6000A62BB72B84839583A683B78328960FB69E
:103A7000F894DEBF0FBECDBFDF91CF911F910F91A4
:103A8000FF90EF90DF90CF90BF90AF909F908F907E
:103A90000895CF92DF92EF92FF920F931F93CF93EF
:103AA000DF93CDB7DEB728970FB6F894DEBF0FBE11
:103AB000CDBF6A01CB018C5F9C4F7C01232B19F495
:103AC00004E010E002C001E010E048E050E064E0F3
:103AD00073E0CE0101960E94C229D601F7018081D0
:103AE0008D931192CF018E199F0980179107BCF316
:103AF0000E94A81C89819A81AB81BC81892B8A2B69
:103B00008B2B49F48D819E81AF81B885892B8A2BBF
:103B10008B2B09F441C08091040390910503A0917F
:103B20000603B0910703892B8A2B8B2BA9F54091B3
:103B300008035091090360910A0370910B03452B10
:103B4000462B472B49F58CED9DE68C5D9D4643E069
:103B5000959587954A95E1F79093D9028093D8027D
:103B60001092DB021092DA0247E050E068ED72E05A
:103B700080E796E00E948D2B892B71F082E191E025
:103B80009F938F9384ED97E69F938F930E941028C5
:103B90000F900F900F900F90C80128960FB6F894D1
:103BA000DEBF0FBECDBFDF91CF911F910F91FF9070
:103BB000EF90DF90CF900895DC011496ED91FC9189
:103BC00015978091E4029091E502A091E602B091F0
:103BD000E70280959095A095B095408151816281D2
:103BE000738184239523A623B7234091DC0250914F
:103BF000DD026091DE027091DF0240955095609584
:103C0000709584239523A623B723409104035091F4
:103C100005036091060370910703842B952BA62B57
:103C2000B72B8093040390930503A0930603B093EE
:103C3000070310821182128213828091E802909110
:103C4000E902A091EA02B091EB0280959095A095CF
:103C5000B095448155816681778184239523A6237D
:103C6000B7234091E0025091E1026091E20270912D
:103C7000E302409550956095709584239523A62383
:103C8000B723409108035091090360910A03709192
:103C90000B03842B952BA62BB72B809308039093B3
:103CA0000903A0930A03B0930B03148215821682B2
:103CB00017820E94A81C8CED9DE68C5D9D4653E00A
:103CC000959587955A95E1F79093D5028093D40204
:103CD0008091040390910503A0910603B09107031E
:103CE000892B8A2B8B2B89F431E020E0809108030B
:103CF00090910903A0910A03B0910B03892B8A2BA1
:103D00008B2B09F430E0C90102C091E080E0909370
:103D1000D6028093D70247E050E064ED72E080E77E
:103D200096E00C948D2BAF92BF92CF92DF92EF92E0
:103D3000FF920F931F93CF93DF936A01232B21F4FC
:103D4000F4E0EF2EF12C03C0EE24E394F12CEB0110
:103D500086015801F801808181FF05C06CEF72E097
:103D6000CE010E946019F801808180FF05C064EFD8
:103D700072E0CE010E946019F801808182FF05C0C7
:103D800064EE72E0CE010E946019F801808183FF29
:103D900005C06CED72E0CE010E946019F8018081CF
:103DA00087FF05C06CEE72E0CE010E9460190F5FC4
:103DB0001F4FF501608170E0CE010E94D50A97FD8A
:103DC00008C02196C8018C199D098E159F050CF21B
:103DD000C701DF91CF911F910F91FF90EF90DF907E
:103DE000CF90BF90AF900895AF92BF92CF92DF92E5
:103DF000EF92FF920F931F93CF93DF936A01232BD0
:103E000021F4B4E0EB2EF12C03C0EE24E394F12C6A
:103E1000E6015B01AC18BD0818828E010A0D1B1D5E
:103E20006CEF72E0C8010E948D19892B19F088810E
:103E30008260888364EF72E0C8010E948D19892B2B
:103E400019F088818160888364EE72E0C8010E9465
:103E50008D19892B19F08881846088836CED72E05C
:103E6000C8010E948D19892B19F088818860888388
:103E70006CEE72E0C8010E948D19892B19F08881BF
:103E8000806888832196CE018C199D098E159F0527
:103E90001CF2C701DF91CF911F910F91FF90EF901E
:103EA000DF90CF90BF90AF900895AF92BF92CF9226
:103EB000DF92EF92FF920F931F93CF93DF93EB016B
:103EC000452B61F4A90137FF02C0495F5F4F8A01AA
:103ED00063E0159507956A95E1F702C001E010E0EF
:103EE000FE016C01CC1ADD0A58E0A52EB12CCF01E1
:103EF0008C1B9D0B801791072CF596012E0F3F1FF1
:103F0000D90137FD179683E0B595A7958A95E1F716
:103F10001196CD01880F991F8A0F9B1FDC01919686
:103F2000EC90F12CC901B5010E949A3102C0F594C0
:103F3000E7948A95E2F7E0FE02C082E001C081E0EA
:103F40008193D5CFC801DF91CF911F910F91FF9041
:103F5000EF90DF90CF90BF90AF900895CB01BA0162
:103F6000A90128E030E00C94551FCB01BA01A9014A
:103F700020E130E00C94551FCB01BA01A90120E2E9
:103F800030E00C94551F2F923F924F925F926F92A8
:103F90007F928F929F92AF92BF92CF92DF92EF92D9
:103FA000FF920F931F93CF93DF934C01452B61F446
:103FB000790137FF03C027E0E20EF11CD3E0F5944E
:103FC000E794DA95E1F703C0C8E0EC2EF12C8B0101
:103FD000C12CD12CA8E04A2E512CAA24A394B12C98
:103FE000CE14DF040CF040C0F80131908F01832D16
:103FF00083708330A9F1E601C80DD91DCE010E945E
:104000003D199C01CE01B2010E949A31282EAE01C9
:10401000D7FF02C0495F5F4FE3E055954795EA95AA
:10402000E1F74F5F5F4F3A01660C771C640E751E17
:10403000B901CE010E941019F30181A1950102C0BE
:10404000220F331F2A94E2F731FE02C0822B03C0F5
:1040500019012094822181A33FEFC31AD30AC0CF54
:104060007AEEE72EFF24FA94C701DF91CF911F91DA
:104070000F91FF90EF90DF90CF90BF90AF909F9007
:104080008F907F906F905F904F903F902F9008950A
:10409000CB01BA01A90128E030E00C94C31FCB0189
:1040A000BA01A90120E130E00C94C31FCB01BA0191
:1040B000A90120E230E00C94C31F80917A00992777
:1040C00087FD9095A92FB92F8827B7FD839599274C
:1040D000AA27BB27FA0180839183A283B38380E060
:1040E00090E00895FA0180819181A281B381892BAA
:1040F0008A2B8B2B31F00E94390B80917A008068DB
:1041000003C080917A008F7780937A0080E090E0FE
:104110000895CF92DF92EF92FF920F931F93CF9368
:10412000DF93CDB7DEB72A970FB6F894DEBF0FBE88
:10413000CDBF6B018A017B0136E0F694E7943A9596
:10414000E1F726E02E9DB0012F9D700D1124665ED3
:104150007A4946E050E0CE0101960E947A31B601DC
:104160006F73772764307105E1F118F4672B49F01C
:1041700057C068307105D1F16C30710509F440C049
:104180004FC081E48F838AE0E816F10438F0C7015C
:104190006AE070E00E948631605D02C060E36E0DEF
:1041A0006887EAE0EE16F10438F0C7016AE070E0D3
:1041B0000E948631805D01C080E089871A8644E0D4
:1041C00050E0BE01695F7F4FC8010E94C229F8011B
:1041D0008081938190838383818192819183828383
:1041E0001CC0898190E0A0E0B0E004C08B819C817C
:1041F000AD81BE81F80180839183A283B3830DC01A
:1042000080917A0087FF0FC0CE0101960E94600B5B
:10421000F801608371838283938380E090E005C01E
:104220008AEE9FEF02C083EF9FEF2A960FB6F894B5
:10423000DEBF0FBECDBFDF91CF911F910F91FF90D9
:10424000EF90DF90CF900895CF92DF92EF92FF92A0
:104250000F931F93CF93DF93CDB7DEB760970FB661
:10426000F894DEBF0FBECDBF6B017A01CB0126E013
:10427000969587952A95E1F72CE1289F8001299F43
:10428000100D1124025C1A49B801645F7F4F40E1B0
:1042900050E0CE0101960E947A31B6016F73772704
:1042A0006031710551F16431710579F16C3071053E
:1042B000B1F5D7018C9180FF06C0E981FA81C80170
:1042C00009956C0106C0EB81FC81C8010995C12CE0
:1042D000D12CEF85F889309729F1D7014D915D9167
:1042E0006D917C91769567955795479541705527C7
:1042F00066277727C801099515C0F70140815181CC
:1043000062817381E985FA8507C0D7014D915D917E
:104310006D917C91EB85FC85C801099504C08AEEFE
:104320009FEF01C0C60160960FB6F894DEBF0FBEC6
:10433000CDBFDF91CF911F910F91FF90EF90DF9054
:10434000CF900895AF92BF92CF92DF92EF92FF92FB
:104350000F931F93CF93DF93CDB7DEB760970FB660
:10436000F894DEBF0FBECDBF5B017A016B0136E072
:10437000D694C7943A95E1F78CE18C9D80018D9D90
:10438000100D1124025C1A49B801645F7F4F40E1AF
:1043900050E0CE0101960E947A31B5016F73772704
:1043A0006830710509F447C038F46115710589F06A
:1043B00064307105F1F07FC06031710509F46CC0A3
:1043C0006431710509F474C06C30710509F073C073
:1043D0003FC044E050E0B801C7010E947A31F701C4
:1043E0008081938190838383818192819183828371
:1043F0005CC00C5F1F4FF801059115912591349118
:104400003327F701008311832283338389859A85BB
:10441000892B29F0316000831183228333838B85BC
:104420009C85892B09F441C0F70180819181A2818B
:10443000B381B2602CC0085F1F4FF80145915591C0
:1044400065917491F70140835183628373832DC01A
:10445000C6010E94DC0C41E050E060E070E0892B76
:1044600019F440E050E0BA01F701408351836283C0
:104470007383ED85FE853097C1F0C8010995892BBE
:10448000A1F0F70180819181A281B3818260808354
:104490009183A283B38309C0ED81FE81C801099590
:1044A000F701608371838283938380E090E005C08D
:1044B000EF81F885F3CF8AEE9FEF60960FB6F89400
:1044C000DEBF0FBECDBFDF91CF911F910F91FF9047
:1044D000EF90DF90CF90BF90AF900895232BA9F479
:1044E000CB0183709927892B99F4FB01EC7FEB5F5B
:1044F000FD4F80819181A281B381FA0180839183F4
:10450000A283B38384E090E008958FEF9FEF089536
:104510008AEE9FEF08950F931F93DC011496ED919F
:10452000FC911597808191818032910508F06FC0D0
:104530000091150210911602209117023091180275
:1045400041E050E002C0440F551F8A95E2F7CA01CE
:1045500080959095AA2797FDA095BA2F8023912347
:10456000A223B3238093150290931602A0931702FF
:10457000B093180262817381672B81F0662757FD23
:104580006095762F482B592B6A2B7B2B4093150275
:10459000509316026093170270931802409115020F
:1045A00050911602609117027091180204171507B6
:1045B0002607370761F18091090290910A02A091C4
:1045C0000B02B0910C0280959095A095B095842334
:1045D0009523A623B72340910502509106026091CE
:1045E00007027091080284179507A607B70779F0AC
:1045F0008093050290930602A0930702B0930802ED
:10460000892B8A2B8B2B11F0769A01C076981F91FB
:104610000F91089576986E9A80E090E008950F9338
:104620001F93CF93DF93FB01232B09F080C06830E9
:10463000710541F06C30710509F441C064307105B9
:1046400009F075C000910502109106022091070241
:1046500030910802EA0188819981AA81BB81409149
:10466000090250910A0260910B0270910C0234977A
:1046700029F4842B952BA62BB72B08C080959095F9
:10468000A095B09584239523A623B7238093090290
:1046900090930A02A0930B02B0930C028095909520
:1046A000A095B095409115025091160260911702A5
:1046B0007091180284239523A623B72321C000916B
:1046C0000502109106022091070230910802FA01BA
:1046D00080819181A281B38180959095A095B095BC
:1046E00080239123A223B3234091150250911602F7
:1046F0006091170270911802842B952BA62BB72B73
:1047000080179107A207B30779F00097A105B105BB
:1047100011F0769A01C07698809305029093060274
:10472000A0930702B093080284E090E002C08FEFEC
:104730009FEFDF91CF911F910F9108958CEF9DE630
:104740008C5D9D4623E0959587952A95E1F790939A
:1047500031038093300381E090E0909333038093A2
:10476000320347E050E060E373E080E796E00E94A8
:104770008D2B892B41F086EE99E69F938F930E94B3
:1047800010280F900F9008952F923F924F925F92B2
:104790006F927F928F929F92AF92BF92CF92DF9251
:1047A000EF92FF920F931F93CF93DF934C016B0116
:1047B0005A01232B21F078E0E72EF12C03C064E0AE
:1047C000E62EF12C0CEF1DE60C5D1D4633E0159531
:1047D00007953A95E1F7C0E0D0E040E8442E512C2F
:1047E000612C712C5FEB252E59E6352EFE01EC7FF6
:1047F000EA0DFB1DD4018D919C918C0D9D1D8C0F9C
:104800009D1F8032910509F47DC0B8F48031910577
:1048100009F470C030F48830910591F10C97A9F13A
:1048200091C08831910509F465C08C31910509F476
:1048300066C0449709F086C05DC08C32910509F4CA
:1048400066C080F48432910509F46BC0889709F042
:1048500079C080913A0390913B03AA2797FDA095D8
:10486000BA2F65C08433910509F454C0883391058B
:1048700009F454C0C09709F065C08091C5034CC0CD
:10488000809138039091390350C08091400390E0AB
:10489000A0E0B0E080839183A283B383892B8A2B2D
:1048A0008B2B09F448C010932D0300932C03109216
:1048B0002F0310922E0347E050E06CE273E080E794
:1048C00096E00E948D2B892B31F03F922F920E940F
:1048D00010280F900F908091C603843061F18930C9
:1048E00051F147E050E061E070E084E796E00E941B
:1048F0008D2B21C010821182128213821CC08091E4
:1049000041030AC0408251826282738214C0809146
:10491000C40302C08091C20390E007C08091C3032A
:10492000FBCF80913C0390913D03A0E0B0E08083F9
:104930009183A283B3832496CE15DF0508F456CF66
:10494000C70102C08FEF9FEFDF91CF911F910F91B1
:10495000FF90EF90DF90CF90BF90AF909F908F909F
:104960007F906F905F904F903F902F900895519A55
:10497000892B19F0599A5198089559980895589A81
:1049800050980895509A892B11F00C94BF24589890
:104990000895509A0E94BF248091020790910307C6
:1049A000A0910407B0910507209136033091370399
:1049B000280F391F489910C0809102079091030772
:1049C000A0910407B0910507A901481B590B57FF97
:1049D000F1CF82E99FEF089580E090E00895CF93B2
:1049E000C82F80E090E00E94B7240E94C92481E093
:1049F00090E00E94B724C0934003C13011F08BE0D7
:104A000001C080E08093C603CF910C949E23EF9267
:104A1000FF920F931F93CF93DF93C7E0D0E0E82E70
:104A2000F12CC7010C2E02C0959587950A94E2F7E8
:104A3000817099270E94B7240E94C92497FF03C060
:104A400082E99FEF1BC080E090E00E94C224219782
:104A500040F781E090E00E94B7240E94C92497FDAE
:104A6000EFCFC9B180E090E00E94C224C1FB0027D3
:104A700000F910E088279927801B910BDF91CF91D7
:104A80001F910F91FF90EF9008958F929F92AF9298
:104A9000BF92CF92DF92EF92FF920F931F93CF932B
:104AA000DF937C016B015A01232B19F008E010E021
:104AB00002C004E010E0C0E0D0E0E3E09E2EF8E0A9
:104AC0008F2EFE01EC7FEA0DFB1D40815181F70125
:104AD000208131812C0D3D1D2C0F3D1F2C313105C6
:104AE00009F441C0B8F42031310509F45EC050F436
:104AF0002830310509F060C0CA01909339038093D2
:104B0000380353C02431310509F44FC02831310531
:104B1000B1F052C02832310549F150F42432310548
:104B200009F04AC0CA0190933D0380933C033DC005
:104B30002C32310509F12833310539F13DC040FFF0
:104B400034C08091400381FD3AC08260809340036D
:104B500047E050E060E070E084E796E00E948D2B33
:104B600097FF23C02EC0409341031FC0CA019093FA
:104B70003B0380933A0319C04093C4038091C6035A
:104B8000843099F49092C60308C04093C303809187
:104B9000C603893051F48092C60347E050E060E0DC
:104BA00070E084E796E00E948D2B2496C017D10711
:104BB00008F487CFC80105C08FEF9FEF02C080EFD8
:104BC0009FEFDF91CF911F910F91FF90EF90DF90BA
:104BD000CF90BF90AF909F908F9008957F928F92CB
:104BE0009F92AF92BF92CF92DF92EF92FF920F937C
:104BF0001F93CF93DF93FC018481958199270097C0
:104C000049F08130910509F080C110924003109263
:104C1000C60387C1CAEFD0E001E010E088E0D82EDB
:104C20009AE0B92E27E0A22E36E0932E43E0842EA0
:104C300055E0C52ED0933703C09336031093350348
:104C4000009334038091C60390E08B30910508F007
:104C500068C1FC01E95EFD4C0C94D03180E090E02D
:104C60000E94B72480E090E00E94C22481E018C036
:104C700080913A0390913B03892B39F081E0209198
:104C80003C0330913D03232B09F080E090913803E1
:104C9000892B0E94072597FF02C080E827C182E088
:104CA0008093C603C7CF80913C0390913D03892B2D
:104CB00061F110923F0310923E038092C603BACF77
:104CC000E091C503F0E0EC5CFC4F86850E9407256F
:104CD00097FDE3CF20913E0330913F032F5F3F4F7D
:104CE00030933F0320933E036091C5036F5F6F775E
:104CF0006093C50340913C0350913D038091C403F0
:104D00002417350729F48093C503C092C60392CFB8
:104D100090E0861B91098F7799278430910519F4CB
:104D20000E949E2302C0892B11F083E001C084E021
:104D30008093C60331E020E0843009F0D0C0CEC0BB
:104D400080913A0390913B03892B09F4CEC0809166
:104D50003C0390913D03892B19F4D092C60310C0F7
:104D600081E090E00E94B7240E94C92480E090E096
:104D70000E94B72480E090E00E94C2249092C60373
:104D800010923F0310923E0355CF8091380381600B
:104D90000E94072597FD81CFA092C6034BCF81E0EB
:104DA00090E020913A0330913B032F3F3F4F11F0A9
:104DB00080E090E091958195910990933F038093D5
:104DC0003E03D092C60336CF81E090E00E94B72424
:104DD000B8E0EB2EF12C712C0E94C92497FD10C075
:104DE000770C499B03C0272D2160722E80E090E054
:104DF0000E94C22441E0E41AF108E114F10461F7D1
:104E00008091C20390E0FC01EC5CFC4F76864091FF
:104E10003E0350913F034F3F5F4FB9F4272D30E0E1
:104E20004091C30380959095840F911D8F779927AA
:104E30008217930710F481E859C010923F03109233
:104E40003E0330933B0320933A0380913E039091BD
:104E50003F03019690933F0380933E03EE24E39437
:104E6000F12C20913A0330913B038217930711F004
:104E7000E12CF12CE114F10421F480E090E00E9497
:104E8000B7240E94C92497FD04C080E090E00E94EE
:104E9000C2248091C2038F5F8F778093C203EF2873
:104EA00019F0B092C603C6CE2091C30390E080955E
:104EB0009095820F911D8F7799278C31910519F468
:104EC0000E949E2302C0892B11F088E001C089E076
:104ED0008093C60331E020E0893009F430E0832F6D
:104EE000922F892B09F0A6CE1CC081E0DF91CF91D3
:104EF0001F910F91FF90EF90DF90CF90BF90AF90F8
:104F00009F908F907F900C94EF249F938F938CE0D1
:104F10009AE69F938F930E9410280F900F900F9006
:104F20000F90DF91CF911F910F91FF90EF90DF9045
:104F3000CF90BF90AF909F908F907F90089500008A
:104F40005353004B435349534F4D4F53494D003832
:104F50004F4900394F4930314F4931314F490000F5
:104F6000434E0000434E0000434E0000434E0000FD
:104F7000434E0000434E0000354433314F49004C4E
:104F80004353004144533144585231445854000073
:104F90003444444C585432314F49000036440000E8
:104FA000434E0000434E425748230000434E00004A
:104FB000434E0000434E4B4853480000434E000010
:104FC0003541000034410000434E0000434E0000D4
:104FD0003341000032410000314100003041CF93A5
:104FE000DF93AB01BC0187EC93E00E941E28EC012B
:104FF00087EC93E00E944B2ACE01DF91CF91089578
:10500000CF93DF93CDB7DEB7AE01475F5F4F6F81C0
:1050100078858D819E810E941E28DF91CF91089511
:10502000CF93DF93CDB7DEB7FE0135968191919195
:10503000BF010E94EF27DF91CF9108952F923F92F9
:105040004F925F926F927F928F929F92AF92BF9298
:10505000CF92DF92EF92FF920F931F93CF93DF9344
:10506000CDB7DEB764970FB6F894DEBF0FBECDBFE5
:105070003C017C8B6B8BDA019C01AE014F5F5F4F73
:105080007A01E0E12E2E312CEB89FC898491882372
:1050900009F4ECC0853209F05FC0AA24A394B12CB6
:1050A00060E2462E512C7AE0C72ED12CEB89FC8988
:1050B0003196FC8BEB8B8491843609F45DC0A8F4A7
:1050C0008A3229F138F4882309F4D0C0853209F4F2
:1050D00043C021C0883509F44CC0833631F1803398
:1050E000D1F440E3442E512CE1CF803709F441C084
:1050F00038F48E3609F4B4C0A0F58936E9F10BC056
:105100008537D1F18837A9F18337B1F004C0CD904C
:10511000DC90119712969FEC980F993038F6A82ED4
:10512000B12CF0E3AF1AB108C1CF8C91F9018083A3
:105130002F5F3F4F129694C0FD014081518112961E
:10514000C9019C01FA016191AF01662309F488C08D
:10515000FC016193CF01F5CFF90180832F5F3F4FB1
:105160007FC0FAE0CF16D10439F488E0C82ED12CE4
:1051700003C090E1C92ED12CAD014E5F5F4F5A8B19
:10518000498B8D919C9197FF0AC05AE0C516D104B6
:1051900031F491958195910901E010E002C000E0A1
:1051A00010E0FE0171964F01A4014E195F090097AE
:1051B00091F08E149F0461F0B6010E948631DC01EB
:1051C000A85DBE4F8C91F40182934F01CB01ECCFCF
:1051D00040E050E007C04031510521F4F0E3F88B86
:1051E0004FE050E00115110581F080E248165104AE
:1051F00051F441505109D701A40FB51F9DE29C9372
:1052000000E010E002C001E010E0C1018A199B0932
:10521000800F911F841795073CF441505109D70125
:10522000A40FB51F4C92F6CF012B39F04150510914
:10523000D701A40FB51FEDE2EC93C101841B950BC0
:10524000D901B701640F751FFB0160816D934F5F3A
:105250005F4F40315105A9F7280F391FA989BA8935
:10526000EB89FC893196FC8BEB8B0ECFF901108218
:10527000C9018619970964960FB6F894DEBF0FBE70
:10528000CDBFDF91CF911F910F91FF90EF90DF90F5
:10529000CF90BF90AF909F908F907F906F905F90D6
:1052A0004F903F902F90089582E189BD09B400FE90
:1052B000FDCF089584E085BD8AEF87BD81E08093AE
:1052C0006E00089580EA8093D800089580E9809365
:1052D000D800089581E88093D7000895FC01DB0190
:1052E0002D91BD0121932111FACF08959C01F9015F
:1052F0002F5F3F4F40814111FACF9F01281B390B8F
:10530000C90108959C01680F791FF9012617370715
:1053100029F49F01281B390BC90108952F5F3F4FC6
:1053200040814111F2CFF5CFFB01DC012D91CD0180
:105330003191231729F0231740F48FEF9FEF089541
:105340002111F3CF80E090E0089581E090E008958E
:10535000FB01480F591F8417950789F0DC012D9137
:10536000CD013191231729F0231730F48FEF9FEFF0
:1053700008952111F0CF03C081E090E0089580E00E
:1053800090E00895CF93DF939C01262B372B20FDCF
:105390001BC0FB01DC019A012230310538F0C191BC
:1053A000D191CD93DD9322503109F6CF9A013695F4
:1053B0002795F901EE0FFF1F4E1B5F0BDC01AE0FAF
:1053C000BF1F6E0F7F1F01C0DC01FB01460F571F7F
:1053D000E417F50719F021912D93FACFDF91CF91C2
:1053E0000895CF92DF92EF92FF920F931F9380FD6B
:1053F00023C06B01DD24EE24D7FCE094FE2C3E2D6F
:105400002D2D1C2D00270C291D292E293F29DC01BB
:10541000FA01E230F10520F00D931D933297F9CF98
:10542000FA01F695E7959F01220F331F421B530B9C
:10543000F901E80FF91F01C0FC014E0F5F1FE417CF
:10544000F50711F06193FBCF1F910F91FF90EF9043
:10545000DF90CF9008950895CF93DF9300D0CDB71C
:10546000DEB79A8389830A9721F48DE090E00E9449
:105470002C2A8091D8049091D904009739F041E00A
:1054800050E0BE016F5F7F4F0E9483070F900F9027
:10549000DF91CF910895CF93DF93EC018991882319
:1054A00021F090E00E942C2AF9CF80E090E0DF917B
:1054B000CF9108950F931F93CF93DF938C01DC015D
:1054C000ED91FC910995EC01009781F0DF938F93AA
:1054D0001F930F938DE79AE69F938F930E94102856
:1054E0000F900F900F900F900F900F90CE01DF91C3
:1054F000CF911F910F910895CF93DF93C8EED1E024
:1055000081E0C83FD80728F4CE010E945A2A22968B
:10551000F7CFC8EED1E081E0C83ED80728F4CE012D
:105520000E945A2A2296F7CF80E090E0DF91CF9137
:1055300008950F931F9340910207509103076091C4
:105540000407709105074F5F5F4F6F4F7F4F0091CA
:1055500002071091030720910407309105070417F3
:1055600015072607370799F79C01121613061CF436
:1055700021503109FACF8091020790910307A09141
:105580000407B0910507841B950BA60BB70B1F9161
:105590000F910895EF92FF920F931F93CF93DF9394
:1055A000C0E0D2E000E012E0CE010E94992A892BEF
:1055B00029F4C00FD11F000F111FF6CFD595C79545
:1055C00015950795159507950115110589F07E012B
:1055D000E00EF11EC7010E94992A892B09F07E0175
:1055E00017FF02C00F5F1F4F15950795E701ECCF1E
:1055F000D0932C04C0932B0480E090E0DF91CF91F6
:105600001F910F91FF90EF900895CF93DF93FC01CE
:10561000C0912B04D0912C0420E137E2C29FC0013D
:10562000C39F900DD29F900D112460EA7FE00E94ED
:105630009A31E13187E2F80750F09B011216130608
:105640001CF421503109FACFE051F742F2CFEC9F20
:10565000C001ED9F900DFC9F900D112460EA7FE04A
:105660000E9486316115710519F061507109FACFF8
:10567000DF91CF9108950F931F93CF93DF93C0E4F1
:10568000D6E086E0C438D807D8F544E050E0BE0143
:105690008DE494E00E947A3100914D0410914E0403
:1056A00080914F04909150040817190739F148E090
:1056B00050E0B80185E494E00E947A31609147049B
:1056C0007091480446E050E08FE394E00E947A3104
:1056D0008FE394E09093480480934704D09346046A
:1056E000C0934504E0913F04F0914004309719F0D5
:1056F00085E494E00995085F1F4FD2CF2496C1CF6F
:1057000080E290E09093D2048093D10480E090E016
:10571000DF91CF911F910F910895CF93CFB7F89458
:10572000E091D504F091D6044091D1045091D20477
:10573000415051099F0120953095A091D304B0911B
:10574000D4042A0F3B1F24233523232B21F4CFBF5E
:1057500084EF9FEF16C09F012F5F3F4F2423352317
:105760003093D6042093D504CFBFEE0FFF1FEE0F6A
:10577000FF1FEF5AFB4F738362839183808380E026
:1057800090E0CF9108952091D1043091D20421501E
:1057900031098091D5049091D6044091D304509161
:1057A000D404841B950B822393230895CF92DF9218
:1057B000EF92FF920F931F93CF93DF930E94C32B1F
:1057C0006C01E12CF12CEC14FD040CF05CC0C091D8
:1057D000D304D091D404CC0FDD1FCC0FDD1FCF5AE2
:1057E000DB4F6881798144E050E08BE394E00E94D4
:1057F0007A3100913B0410913C0480913D049091DA
:105800003E040817190749F148E050E0B80183E366
:1058100094E00E947A31609135047091360446E03C
:1058200050E08DE294E00E947A318DE294E0909312
:105830003604809335048A819B8190933804809349
:105840003704E0912F04F0913004309719F083E38E
:1058500094E00995085F1F4FD0CF2091D10430917B
:10586000D204215031094091D3045091D4044F5FA8
:105870005F4F242335233093D4042093D3048FEF38
:10588000E81AF80AA0CFDF91CF911F910F91FF90F6
:10589000EF90DF90CF9008954F925F926F927F923A
:1058A000AF92BF92CF92DF92EF92FF920F931F932E
:1058B000CF93DF93CDB7DEB762970FB6F894DEBF14
:1058C0000FBECDBF8C015B017C01EE0CFF1CF7010C
:1058D000E15DF449C590D490B7016151754942E04A
:1058E00050E0CE0141960E947A3129893A89DE0141
:1058F000119680E090E08C159D056CF4F9014591BE
:105900005591659174914D935D936D937D9301963F
:105910002C5F3F4FF0CF28E030E0201B310B81E0BF
:1059200090E002C0880F991F2A95E2F7E0E0F1E0CD
:10593000E81BF90BF7FD7F9615E0F595E7951A95AD
:10594000E1F7EE0FFF1FEE0FFF1FEA5FF84FDE01DA
:10595000119680E090E08C159D050CF06AC0419096
:105960005190619071904D915D916D917D91442127
:10597000552166217721411551056105710509F40D
:1059800056C0F701E152F54925913491DB01CA0176
:10599000AA27BB27892B8A2B8B2B31F4AB016627D7
:1059A000772781E190E002C081E090E0411105C0DD
:1059B000452F562F672F772708966A017B01EFE066
:1059C000CE22DD24EE24FF24CD28CE28CF2841F49A
:1059D000F4E07695679557954795FA95D1F7049633
:1059E0006A017B01F3E0CF22DD24EE24FF24CD28E1
:1059F000CE28CF2841F4E2E07695679557954795F4
:105A0000EA95D1F7029640FF01960197821B930B0E
:105A100002C0880F991F0A95E2F7F50191838083F0
:105A2000880F991F880F991F80509B4F04C00196C3
:105A300092CF80E090E062960FB6F894DEBF0FBE82
:105A4000CDBFDF91CF911F910F91FF90EF90DF902D
:105A5000CF90BF90AF907F906F905F904F900895E0
:105A6000CF9328E030E0261B370B41E050E002C026
:105A7000440F551F2A95E2F720E031E0241B350B37
:105A800002C0959587956A95E2F7280F391FCFB721
:105A9000F894F90137FD7F9645E0F595E7954A952D
:105AA000E1F7EE0FFF1FEE0FFF1FEA5FF84FC9018E
:105AB00060E270E00E949A3141E050E060E070E006
:105AC00004C0440F551F661F771F8A95D2F7808147
:105AD0009181A281B381842B952BA62BB72B808338
