:1000000032C00000000000000000000000000000FE
:1000100000000000000000000000000000000000E0
:1000200000000000000000003DC000007EC0000095
:1000300000000000000000000000000000000000C0
:1000400000000000000000000000000000000000B0
:10005000000000000000000000000000C2C200001C
:10006000000045C2E9C111241FBECFEFDAE0CDBFC9
:10007000DEBFE7EDF5E409E4A0E0B1E0E737F00723
:100080001CF425902D92FACFA0EAB4E00AE0A03546
:10009000B00714F41D92FBCF0E94F50D78940E94D6
:1000A0005907E1CF1F920F920FB60F9211248F9331
:1000B0009F938091E1001092E100982F83FF13C07D
:1000C0001092E90081E08093EB001092EC0082E155
:1000D0008093ED0088E08093F0001092EF01109281
:1000E000F1011092F00192FF19C08091EF01882375
:1000F00079F08091F901882359F081508093F901BA
:10010000882331F484E08093E9008AE38093E80057
:1001100083E08093E90084E08093F0009F918F91C9
:100120000F900FBE0F901F9018951F920F920FB651
:100130000F9211240F931F932F933F934F935F932D
:100140006F937F938F939F93AF93BF93EF93FF939F
:100150008091F40083FF14C083E08093E9008091D4
:10016000E80082FF08C082E794E06DEE73E047E0AC
:1001700050E00E947C068091E800887F8093E80030
:100180001092E9008091E80083FF40C14091F100A6
:100190003091F1008091F100682F70E02091F10022
:1001A000922F80E0682B792B8091F100A82FB0E08E
:1001B0002091F100922F80E0A82BB92B1091F10033
:1001C0000091F10082EF8093E800363009F05AC0C8
:1001D0002DEF32E4A90145505040F9013797859140
:1001E00094918617970701F5FA01859194918A17E2
:1001F0009B07D1F49A012E5F3F4FF90165917491ED
:100200002E5F3F4FF9014491212F30E0902F80E085
:10021000282B392B2F3F310519F010F02FEF30E04C
:10022000241758F4422F09C0295F3F4F495F5F4FA1
:10023000F3E427323F0789F6E9C05EEF8091E800DA
:10024000282F30E0C90185709070892BB9F322FD09
:10025000E0C0342F413108F030E1232FCB0106C03C
:10026000FC010196E491E093F10021502223C1F7B3
:10027000630F711D431B5093E8004423F9F630319E
:10028000E9F2C7C0353061F48EEF8093E8008091C9
:10029000E80080FFFCCF862F80688093E300B9C020
:1002A000393061F5442309F0B1C06093EF01109239
:1002B000F1011092F0011092F9018EEF8093E800A5
:1002C00080E293E421E02093E900FC010196E491AF
:1002D000E093EB00EE2369F0AC014F5F5F4FFC0150
:1002E00084918093EC00CA010196FA013491309315
:1002F000ED002F5F253039F78EE183C0383061F48F
:10030000403809F083C08091E80080FFFCCF8091E5
:10031000EF018093F10052C0313289F4413A09F083
:1003200075C08091E80080FFFCCFE2EFF1E08191A1
:100330008093F10081E0E93FF807C9F73FC0303210
:10034000A1F4413209F062C08091E80082FFFCCF45
:10035000E2EFF1E08091F100819381E0E93FF8075D
:10036000C9F78BEF8093E80029C0323261F4413243
:1003700009F04CC07093F1016093F0018091E800A6
:1003800080FFFCCF1BC03323E9F48091E80080FF9D
:10039000FCCF423811F080E00DC0A093E9008091BD
:1003A000EB0090E025E0969587952A95E1F781701E
:1003B0001092E9008093F1001092F1008EEF80938B
:1003C000E80027C0313011F0333001F54230F1F44C
:1003D000672BE1F42A2F2F77822F81508430B0F4DD
:1003E0008EEF8093E8002093E900333079F089E1C3
:1003F0008093EB0081E090E002C0880F991F2A955E
:10040000E2F78093EA001092EA0003C081E2809351
:10041000EB00FF91EF91BF91AF919F918F917F91F1
:100420006F915F914F913F912F911F910F910F907D
:100430000FBE0F901F9018951F920F920FB60F923C
:1004400011242F933F934F935F936F937F938F93D9
:100450009F93AF93BF93EF93FF9320918D073091BC
:100460008E0760918F0770919007C90180959095D4
:10047000860F971F8F739070892B31F481E090E085
:100480009093D2078093D1074091CE008091D107FD
:100490009091D207892B61F4F901E557F84F468313
:1004A000C90101968F73907090938E0780938D078A
:1004B000261B370B2F733070232B41F48CE794E00D
:1004C0006DEE73E047E050E00E947C06FF91EF91F3
:1004D000BF91AF919F918F917F916F915F914F915C
:1004E0003F912F910F900FBE0F901F9018951F9264
:1004F0000F920FB60F9211242F933F934F935F9358
:100500006F937F938F939F93AF93BF93EF93FF93DB
:100510006EB56530F1F420912D0A30912E0A80914C
:100520002B0A90912C0A821B930B8F709070892B51
:1005300071F0F901EF5EF54F868D8EBD2F5F3F4F55
:100540002F70307030932E0A20932D0A39C01EBCB4
:1005500037C02091130A3091140A4091150A509126
:10056000160AC90180959095840F951F8F70907021
:10057000892B31F481E090E09093280A8093270A38
:100580008091270A9091280A892B61F4F901EF5E86
:10059000F54F6683C90101968F7090709093140A8D
:1005A0008093130A241B350B2F703070232B41F4DA
:1005B00086E894E06DEE73E047E050E00E947C0630
:1005C000FF91EF91BF91AF919F918F917F916F912B
:1005D0005F914F913F912F910F900FBE0F901F9001
:1005E00018951F920F920FB60F9211242F933F93DD
:1005F0004F935F936F937F938F939F93AF93BF932B
:10060000EF93FF938091410A9091420AA091430A8F
:10061000B091440A0196A11DB11D8093410A9093A7
:10062000420AA093430AB093440A85ED93E060E048
:1006300070E047E050E00E940F20FF91EF91BF91E2
:10064000AF919F918F917F916F915F914F913F916A
:100650002F910F900FBE0F901F9018950000000073
:100660000707070700000000000007070707000052
:100670000700070700000000000000000707000057
:10068000070707070000000000000000000000004E
:10069000000000000000000000000000000000005A
:1006A000000000000000000000000000E62FF72F0F
:1006B000A82FB92F03C0C89531960D9241505040D4
:1006C000D0F7089585ED93E060E070E047E050E0FA
:1006D0000E940F20089583B7817F83BF83B7816015
:1006E00083BF889583B78E7F83BF089500D000D0E5
:1006F0008CE191E0EDB7FEB79283818385E491E0D0
:10070000948383830E94971C0F900F900F900F90FB
:100710000E945E200E946B03FBCFBF92CF92DF92BC
:10072000EF92FF920F931F93CF93DF938B019C0166
:100730006091A4047091A50484E0643A780709F4F8
:1007400075C0EB012697A885B985EE81FF81B3833B
:10075000A283ED93FC937F836E83798768872097CC
:1007600009F464C08091410A9091420AA091430A21
:10077000B091440A800F911FA21FB31F88839983F1
:10078000AA83BB835D834C83BFB6F894E091A00439
:10079000F091A10484E0E03AF80729F473836283BE
:1007A000FF83EE833BC0DF0124C0E880F9800A812B
:1007B0001B812D913D914D915C911397C701821B37
:1007C000930B97FF0AC02E193F09400B510B2D9335
:1007D0003D934D935C93139717C0E21AF30A040BF1
:1007E000150BE882F9820A831B8316960D90BC9143
:1007F000A02D169786E0C82ED12CCA0EDB1E80EAEB
:10080000C81684E0D80689F61896ED91FC911997E0
:1008100019967C936E931897DF82CE82F987E887CA
:1008200071836083BFBE20E030E002C024EF3FEF61
:10083000C901DF91CF911F910F91FF90EF90DF9051
:10084000CF90BF90089500D000D081E591E0EDB742
:10085000FEB79283818385E591E0948383830E9430
:10086000971C80EA94E09093A1048093A004909355
:10087000A3048093A20484EA94E09093A504809357
:10088000A4049093A7048093A604AEEAB4E040E0E9
:1008900050E00F900F900F900F90782F692FCA01A2
:1008A000880F991F9A01E3E0220F331FEA95E1F7C1
:1008B000820F931F82559B4FE091A604F091A704ED
:1008C0009093A7048093A6047C9311966C93119740
:1008D0001396FC93EE931297918380834F5F5F4F43
:1008E0001A9640325105D9F680E090E00895CF92F3
:1008F000DF92EF92FF920F931F93CF93DF93C091FC
:10090000A004D091A10426970E811F8106501040AB
:10091000B4EACB2EB4E0DB2E4EC08091410A909118
:10092000420AA091430AB091440A28813981821B6E
:10093000930B97FD4BC06C817D8189ED93E047E07F
:1009400050E00E940F20EE81FF8184E0E03AF8073A
:10095000A9F036972091410A3091420A4091430A0A
:100960005091440A80819181A281B381820F931FAB
:10097000A41FB51F80839183A283B383A885B98503
:10098000EE81FF81B383A283ED93FC93E091A404F5
:10099000F091A504F382E282FF83EE83D986C886B4
:1009A000F092A504E092A404F80186819781E80101
:1009B0008C0106501040A6E0EA2EF12CEC0EFD1E34
:1009C000F0EAEF16F4E0FF0609F0A7CFDF91CF9130
:1009D0001F910F91FF90EF90DF90CF900895CF93EC
:1009E000DF93FC01C481D581EA81FB818E819F81E7
:1009F00009959F838E8388859985AA85BB852C85DB
:100A00003D854E855F85820F931FA41FB51F8C8780
:100A10009D87AE87BF872091410A3091420A40915D
:100A2000430A5091440AB901681B790B77FD0CC049
:100A30002F5F3F4F4F4F5F4F2C873D874E875F871C
:100A400021503040404050406C857D858E859F858B
:100A5000621B730B840B950BAE010E948D03DF911B
:100A6000CF910895CF92DF92EF92FF920F931F9351
:100A7000CF93DF93E090410AF090420A0091430A3D
:100A80001091440AC0E9D4E08DE6C82E81E0D82E4A
:100A900018C000D000D0EDB7FEB7D282C1828881E5
:100AA0009981948383830E94971CEC81FD810F9030
:100AB0000F900F900F90309719F08E819F810995BC
:100AC0006096F4E0C03ADF0720F3C0E9D4E01DC02F
:100AD0006C857D858E859F856E0D7F1D801F911F86
:100AE0006C597F4F8F4F9F4F6C877D878E879F8775
:100AF0006E197F09800B910BAE010E948D0397FF49
:100B000003C02FEF3FEF07C0609684E0C03AD807DC
:100B1000F8F220E030E0C901DF91CF911F910F91F1
:100B2000FF90EF90DF90CF900895DC011696ED9145
:100B3000FC911797309719F489E090E00FC0129656
:100B40008C91129780FF08C00280F381E02D028013
:100B5000F381E02D309749F481E090E09093100A02
:100B600080930F0A2FEF3FEF10C0CD0109959C0134
:100B700097FD03C080E090E004C088279927821B7E
:100B8000930B9093100A80930F0AC9010895DC011A
:100B90001696ED91FC911797309719F489E090E043
:100BA0000FC012968C91129781FF08C00280F381CA
:100BB000E02D0480F581E02D309749F481E090E04C
:100BC0009093100A80930F0A2FEF3FEF10C0CD01D2
:100BD00009959C0197FD03C080E090E004C0882740
:100BE0009927821B930B9093100A80930F0AC901D7
:100BF0000895DC011696ED91FC911797309719F442
:100C000089E090E00AC00280F381E02D0084F18544
:100C1000E02D309749F481E090E09093100A8093A2
:100C20000F0A2FEF3FEF0FC009959C0197FD03C0FE
:100C300080E090E004C088279927821B930B909353
:100C4000100A80930F0AC9010895CF93DF93FC0126
:100C5000C481D581CE010896AA85BB85E885F98532
:100C6000B383A283ED93FC93998788879B878A87B8
:100C7000EE81FF819F012A5F3F4F86819781821716
:100C8000930751F40280F381E02D0680F781E02D77
:100C9000309711F0CE0109951F821E82DF91CF910E
:100CA0000895CF93DF93EC018E819F81892B49F4C6
:100CB00089E090E09093100A80930F0A2FEF3FEFA6
:100CC00017C08A819B81019719F089EE93E002C0D9
:100CD00085EE93E0BE0147E050E00E940F2085EFD3
:100CE00093E0BE0146E050E00E940F2020E030E09B
:100CF000C901DF91CF910895CF92DF92EF92FF92D9
:100D00000F931F93CF93DF93FC016B017A016681F0
:100D1000778161157105A1F0EB0128978C010A5FBD
:100D20001F4F09C0C601BE01A7010E940F20088401
:100D3000D985C02D2897CE0108960817190791F775
:100D4000DF91CF911F910F91FF90EF90DF90CF90A7
:100D500008950F931F93CF93DF938C01C8E6D4E0DF
:100D60000AC068817981F801808191810E94401ECA
:100D7000892B39F02A96F4E0C039DF0790F3C0E000
:100D8000D0E0CE01DF91CF911F910F910895EF92A6
:100D9000FF920F931F93CF93DF93DC017B016115CB
:100DA000710529F0EEEEF5E020E030E017C086E1B5
:100DB00090E019C0808191813C96892B69F4E9010A
:100DC000CC0FDD1FC20FD31FCC0FDD1FCC0FDD1FDB
:100DD000C851DA4F79F405C02F5F3F4F20323105FB
:100DE00049F787E190E09093100A80930F0AC0E0E2
:100DF000D0E057C0B983A8835D834C83FB82EA822D
:100E0000CE010E94A9068C01009729F41F821E8240
:100E100086E090E0E8CF9F838E83DC0116968D916B
:100E20009C911797892B51F4C801069617969C93AD
:100E30008E93169719969C938E931897D8011296B5
:100E4000ED91FC9113970190F081E02D309739F0EE
:100E5000CE010995009719F01F821E82C4CFCE01E2
:100E60000896D8011696ED91FC911797938382838B
:100E7000F987E8870A5F1F4F1B870A8706501040D3
:100E8000F80197838683F1E0EF16F10419F081EE03
:100E900093E002C08DED93E0BE0147E050E00E9478
:100EA0000F20CE01DF91CF911F910F91FF90EF9016
:100EB000089580ED97E020E931E0F9013197F1F7ED
:100EC0000197D9F70E947603089580916907909160
:100ED0006A070E94950508958091690790916A07B5
:100EE0000E94C7050895EF92FF920F931F93DF931F
:100EF000CF93CDB7DEB7A8970FB6F894DEBF0FBE7D
:100F0000CDBFDC0114960D911C91159780916B0754
:100F100090916C0708171907C9F481E080936D0759
:100F200085E1E82EF12CEC0EFD1EC801B70144E16D
:100F300050E00E949505AC01181619060CF004C18A
:100F400080910D0A90910E0AB701F3C0D801169650
:100F5000ED91FC9117978681978136968E179F07A2
:100F600009F4F2C08091690790916A070817190780
:100F700041F080913F0A9091400A0817190709F043
:100F8000E3C080916807882351F080913F0A9091D7
:100F9000400A0817190719F0EE24FF240DC0C801F4
:100FA000BE016F5F7F4F44E150E00E9495057C01D8
:100FB000181619060CF0C8C080913F0A9091400A9B
:100FC0000817190709F066C0A0916907B0916A0770
:100FD00020E030E0AE014F5F5F4F3AC0FA01E20F10
:100FE000F31F80818D3191F590E080916807813009
:100FF00009F091E0909368071696ED91FC91179790
:1010000040815181913019F023E831E002C020E99C
:1010100031E000D000D000D0EDB7FEB7319686E9C0
:1010200091E0ADB7BEB712969C938E931197538300
:101030004283358324830E94971CEDB7FEB7369612
:101040000FB6F894FEBF0FBEEDBF07C02F5F3F4F36
:101050002E153F0514F4109709F680916D0788232B
:1010600061F080916B0790916C07009731F0BE01A1
:101070006F5F7F4FA7010E94C7058091680781308D
:1010800009F462C08091690790916A07009709F09E
:101090004CC05AC080916807882309F04DC020E0F9
:1010A00030E0AE014F5F5F4F35C0FA01E20FF31F32
:1010B00080818A3A69F581E08093680700D000D08A
:1010C00000D0ADB7BEB7119686E991E0EDB7FEB797
:1010D00092838183E0916907F0916A070680F78126
:1010E000E02D8081918113969C938E93129780E9D5
:1010F00091E015969C938E9314970E94971C8DB740
:101100009EB706960FB6F8949EBF0FBE8DBF05C062
:101110002F5F3F4F2E153F0544F2809168078130C5
:1011200099F080910D0A90910E0ABE016F5F7F4F7A
:10113000A7010E94C70508C089EF93E060E070E056
:1011400047E050E00E940F20A8960FB6F894DEBF4B
:101150000FBECDBFCF91DF911F910F91FF90EF9008
:1011600008958091690790916A070E945106089539
:1011700082EB91E063E070E040E050E00E94C7063F
:1011800090936A0780936907892B99F010926807FA
:101190008BEB91E063E070E040E050E00E94C70616
:1011A00090936C0780936B07892B19F020E030E057
:1011B00002C02DEE3FEFC90108951F93CF93DF9337
:1011C000FC01162F8832910518F02AEE3FEF39C046
:1011D00068E070E00E94272121E030E002C0220F89
:1011E000331F8A95E2F7CF0168E070E00E94272163
:1011F000A62FB0E0822F8095ED01CC58D84F4881C2
:1012000048234883FD01E758F84F90819823908345
:10121000FD01E258F84F50815823508310FF02C05F
:10122000422B488311FF05C0FD01E758F84F922B70
:10123000908317FF04C0A258B84F522B5C9320E054
:1012400030E0C901DF91CF911F9108952F923F9215
:101250004F925F926F927F928F929F92AF92BF92C6
:10126000CF92DF92EF92FF920F931F93DF93CF9372
:1012700000D000D000D0CDB7DEB790906E07BFE6AB
:10128000AB2EB7E0BB2E20E030E040E050E0EE2493
:10129000FF24A3E2CA2ED12CF1E02F2E312C412CB9
:1012A000512C89010F5F1F4FD6018C90892D90E042
:1012B000022E02C0959587950A94E2F780FD09C039
:1012C00081E090E002C0880F991F2A95E2F7982AE2
:1012D0008EC0F5017081F82DF727F983F801E358E6
:1012E000F84F20812A831E821D8261E0C8018D583B
:1012F000984F9C838B83E8E76E2EE7E07E2E600E8E
:10130000711E8A81862309F469C08981862309F4C4
:1013100065C0AB81BC818C91862371F1862F8723B8
:1013200059F58D819E818E0D9F1DFC0155E0F5952F
:10133000E7955A95E1F7EE0FFF1FEE0FFF1FED57F0
:10134000F84F8F719070A201910104C0220F331FDA
:10135000441F551F8A95D2F7DA01C90120813181D6
:1013600042815381282B392B4A2B5B2B20833183DD
:101370004283538341E050E0D3018C91862371F185
:10138000862F872359F18D819E818E0D9F1DFC0133
:1013900035E0F595E7953A95E1F7EE0FFF1FEE0F73
:1013A000FF1FED57F84F8F719070A201910104C09B
:1013B000220F331F441F551F8A95D2F7DA01C90146
:1013C0002081318142815381282B392B4A2B5B2B81
:1013D000208331834283538341E050E08D819E819D
:1013E00001969E838D83089711F0660F8ACFD501F1
:1013F0008D925D01E8E0F0E0EE0EFF1E23E030E0AC
:10140000C20ED31E0530110511F098014ACF9092FB
:101410006E07452B41F08DEF93E063E877E047E0FE
:1014200050E00E940F2026960FB6F894DEBF0FBE44
:10143000CDBFCF91DF911F910F91FF90EF90DF9083
:10144000CF90BF90AF909F908F907F906F905F9064
:101450004F903F902F9008958091EF0190E0089574
:101460008091F0019091F101089581E08093D7007F
:1014700080EA8093D80082E189BD09B400FEFDCFE7
:1014800080E98093D8001092E0001092EF01109252
:10149000F1011092F0018CE08093E2008091E10074
:1014A00090E083709070892BC9F380E090E00895FC
:1014B00080E090E00895EF92FF920F931F937A01DE
:1014C0008091EF01882319F4A5EFBFEF33C01FB758
:1014D000F89483E08093E9008091F200A0E0B0E00E
:1014E000482F50E003E011C00093E9008091E8002C
:1014F00085FD02C01FBF11C00093E9008091F1007B
:10150000FB01EA0FFB1F8083119697014E155F05C3
:101510000CF49A01A217B3073CF383E08093E9002F
:101520008091F200882329F48091E8008F778093DE
:10153000E8001FBFCD011F910F91FF90EF9008951C
:10154000CF93DF93EC018091EF01882309F41EC152
:101550009FB7F89484E08093E9008091FA01882392
:1015600041F08091E80085FD02C09FBF17C0109236
:10157000FA01392FB4E040E45AE3A5E000C19091AC
:10158000E400975E8091E80085FD15C03FBF809123
:10159000E400891731F481E08093FA012BEF3FEFEB
:1015A000F7C08091EF01882309F4F0C03FB7F894A9
:1015B000B093E900E7CF8091F200242F281B822FFF
:1015C00090E06817790708F4262F822F90E0813485
:1015D000910508F0C6C0865C9E4DFC01EE0FFF1F12
:1015E0000590F491E02D099489918093F1008991FF
:1015F0008093F10089918093F10089918093F100AB
:1016000089918093F10089918093F1008991809371
:10161000F10089918093F10089918093F100899183
:101620008093F10089918093F10089918093F1007A
:1016300089918093F10089918093F1008991809341
:10164000F10089918093F10089918093F100899153
:101650008093F10089918093F10089918093F1004A
:1016600089918093F10089918093F1008991809311
:10167000F10089918093F10089918093F100899123
:101680008093F10089918093F10089918093F1001A
:1016900089918093F10089918093F10089918093E1
:1016A000F10089918093F10089918093F1008991F3
:1016B0008093F10089918093F10089918093F100EA
:1016C00089918093F10089918093F10089918093B1
:1016D000F10089918093F10089918093F1008991C3
:1016E0008093F10089918093F10089918093F100BA
:1016F00089918093F10089918093F1008991809381
:10170000F10089918093F10089918093F100899192
:101710008093F10089918093F10089918093F10089
:1017200089918093F10089918093F1008991809350
:10173000F10089918093F10089918093F100899162
:101740008093F10089918093F10089918093F10059
:1017500089918093F10089918093F1008991809320
:10176000F10089918093F1008091E80085FD02C02D
:101770005093E800621B7109A093F9013FBF611506
:10178000710509F0FCCE20E030E002C025EF3FEF0C
:10179000C901DF91CF910895CF93DF93EA014115FD
:1017A000510559F48091EF01882381F08091F00177
:1017B0009091F10180FD0CC009C0CB01BA010E94DB
:1017C000A00A892B29F0CFEFDFEF02C0C5EFDFEFD2
:1017D000CE01DF91CF910895E2EEF0E08081877F26
:1017E0008083089587E090E09093CD008093CC00B3
:1017F0001092900710928F0710928E0710928D070B
:1018000088E98093C90080E090E0089580E090E04E
:10181000089520E030E00CC0FB01E20FF31FE081EF
:101820008091C80085FFFCCFE093CE002F5F3F4F33
:10183000241735078CF3CA010895E9ECF0E08081A4
:10184000877680830895CF93DF93CB0160918F07D4
:101850007091900720E430E0261B370BC0918D0774
:10186000D0918E07C20FD31FCF73D0704C175D0776
:101870000CF4EA012C173D070CF4E901209719F448
:10188000C5EFDFEF27C06F56784FAE010E94701E84
:1018900020918F07309190072C0F3D1F2F733070D0
:1018A0003093900720938F071092D2071092D107A0
:1018B00080918D0790918E07821B930B8F73907090
:1018C000892B41F08CE794E06DEE73E047E050E047
:1018D0000E947C06CE01DF91CF910895ECE7F0E005
:1018E00080818F738083808180648083EAE7F0E069
:1018F00080818760808380818F7780838FEF809362
:101900007E0080937D0080E090E00895DF92EF926A
:10191000FF920F931F93BC018830910508F046C0D9
:10192000E090D307F090D4070091D5071091D60727
:10193000E1E0F0E002C0EE0FFF1F8A95E2F79F01A1
:10194000442737FD4095542FDA01C9018E219F218C
:10195000A023B1230097A105B10541F52E293F2908
:10196000402B512B2093D3073093D4074093D507B6
:101970005093D6079B01220F331F260F371F220FCC
:10198000331F21543C4BA1F090917E008E2F809507
:10199000892380937E0080917C00807E80937C00F0
:1019A00080917C00862B80937C0002C020E030E098
:1019B000C9011F910F91FF90EF90DF900895CF9391
:1019C000DF938F5B9344959587952BEA3AEA829F44
:1019D000B001839F700D929F700D1124E1E0F0E043
:1019E000EF01062E02C0CC0FDD1F0A94E2F79E0124
:1019F00020953095442737FD4095542F8091D3078B
:101A00009091D407A091D507B091D6078223932354
:101A1000A423B5238093D3079093D407A093D5072D
:101A2000B093D6076830710534F480917E008C2B1A
:101A300080937E000CC020917D00CB01089702C0EE
:101A4000EE0FFF1F8A95E2F72E2B20937D00DF918A
:101A5000CF91089580917A00806480937A0080917C
:101A60007A0086FDFCCF8091780090E0A0E0B0E0A5
:101A700060917900362F20E0442737FD4095542FA0
:101A8000282B392B4A2B5B2BB901CA01089580E022
:101A900090E008950895CF93DF93EB01E0912B0A36
:101AA000F0912C0AE095F09580912D0A90912E0AE4
:101AB000E80FF91FEF70F070E417F5070CF4AF01B1
:101AC0004115510519F445EF5FEF1CC060E070E06F
:101AD00016C080912B0A90912C0ADC01AF5EB54FA5
:101AE000FE01E60FF71F20815E962C9301968F7002
:101AF000907090932C0A80932B0A6F5F7F4F64172E
:101B000075073CF3CA01DF91CF910895CF93DF931E
:101B1000CB016091150A7091160A20E130E0261B76
:101B2000370BC091130AD091140AC20FD31FCF7084
:101B3000D0704C175D070CF4EA012C173D070CF42C
:101B4000E901209719F4C5EFDFEF27C0695E754FF3
:101B5000AE010E94701E2091150A3091160A2C0FBA
:101B60003D1F2F7030703093160A2093150A109283
:101B7000280A1092270A8091130A9091140A821B56
:101B8000930B8F709070892B41F086E894E06DEE96
:101B900073E047E050E00E947C06CE01DF91CF91D8
:101BA0000895289A80E484B98CBD8CB580688CBD7A
:101BB00081E19AE060E070E04EE250E00E94B81EE1
:101BC00088E084B91092160A1092150A1092140A2D
:101BD0001092130A10922E0A10922D0A10922C0ABB
:101BE00010922B0A80E090E00895E1E6F0E080E8B2
:101BF000808310820E94061E0E949A1F0E941A1F54
:101C000080E090E008950F931F930AE212E0C8016C
:101C100062E070E040E050E00E94C70690930E0A38
:101C200080930D0AC80161E070E040E050E00E943E
:101C3000C7069093400A80933F0A80E090E01F918E
:101C40000F910895CF93DF93EA01FC014481558100
:101C5000FA01E60FF71F85919591A591B4918883BC
:101C60009983AA83BB83232B19F424E030E00EC0B0
:101C7000FB013496E40FF51F85919591A591B491E0
:101C80008C839D83AE83BF8328E030E0C901DF9160
:101C9000CF910895CF93DF93EA01DC011696ED9181
:101CA000FC911797E60FF71F88819981AA81BB8164
:101CB00080839183A283B383232B19F424E030E043
:101CC0000AC08C819D81AE81BF8184839583A68368
:101CD000B78328E030E0C901DF91CF910895EF92FA
:101CE000FF920F931F93CF93DF938C01DC01139628
:101CF0008C9185FD03C060E270E002C061E270E09B
:101D000086FD03C043E352E002C046E352E087FD94
:101D100003C020E230E002C02BE230E0EDB7FEB7B6
:101D200038970FB6F894FEBF0FBEEDBF319689E32A
:101D300092E0ADB7BEB712969C938E9311977383C2
:101D4000628355834483378326830E94971CF8015E
:101D50009281692F629566956770592F56955F70CD
:101D6000818182958F70492F41704295407F482B29
:101D70008DB79EB708960FB6F8949EBF0FBE8DBF65
:101D8000838190E0877090708330910509F18430F1
:101D900091054CF48130910591F082309105ACF4BD
:101DA000892B81F024C085309105C1F085309105E3
:101DB00094F086309105A9F00797C9F415C021E485
:101DC00032E017C025E432E014C029E432E011C04B
:101DD0002DE432E00EC021E532E00BC026E532E012
:101DE00008C02BE532E005C02FE532E002C023E653
:101DF00032E0ADB7BEB71C970FB6F894BEBF0FBEAA
:101E0000ADBFEDB7FEB731968BE692E012969C938C
:101E10008E931197628313825483158246831782AF
:101E200031872087D8019C9111968C918F70928771
:101E300083870E94971CEDB7FEB73A960FB6F894C9
:101E4000FEBF0FBEEDBF82E892E0928381830E94C5
:101E5000971CE80124960F900F900C5E1F4F87E8A7
:101E6000E82E82E0F82E14C000D000D0EDB7FEB707
:101E70003196ADB7BEB71296FC92EE92119789914A
:101E8000828313820E94971C0F900F900F900F90E7
:101E9000C017D10749F700D08FE892E0EDB7FEB741
:101EA000928381830E94971C0F900F90DF91CF91B6
:101EB0001F910F91FF90EF900895EF92FF920F9373
:101EC0001F938C01FB01E680F78084E090E0E80E30
:101ED000F91EC7010E946F0EF80182819381B7013C
:101EE00040E150E00E94C70597FF0BC000D081E998
:101EF00092E0EDB7FEB7928381830E94971C0F900A
:101F00000F901F910F91FF90EF900895FC01648155
:101F10007581868197810E945D0F0895CF93DF932D
:101F2000EC01009719F426EA32E002C02BEA32E015
:101F300000D000D081EB92E0EDB7FEB792838183B1
:101F4000348323830E94971C0F900F900F900F9063
:101F5000CE01DF91CF910895CF93DF93EC010097ED
:101F600019F42FEF3FEF3AC08BEB92E061E070E0A5
:101F7000AE010E94C706009721F480913F0A90911C
:101F8000400A99838883892B21F400D088EC92E061
:101F90001BC08BEB92E062E070E0AE010E94C706CE
:101FA0009B838A83892B31F480910D0A90910E0ACC
:101FB0009B838A838A819B81892B19F020E030E002
:101FC0000DC000D08CED92E0EDB7FEB79283818317
:101FD0000E94971C2FEF3FEF0F900F90C901DF91E8
:101FE000CF91089525E4673D720718F00E94701E96
:101FF00008950E94560308958F929F92AF92BF92C8
:10200000CF92DF92EF92FF920F931F93DF93CF93C4
:10201000CDB7DEB7A2970FB6F894DEBF0FBECDBF27
:10202000DC0116960D911C911797F801C080D180A4
:1020300054E0E52EF12CE00EF11E84899589B7015C
:10204000680F791F40E150E0481B590BC6010E9400
:1020500095059C0118161906CCF0009799F4C60155
:102060000E9451068BEB92E061E070E0A8010E94B3
:10207000C706009721F480913F0A9091400AD80149
:102080008D939C93F801158A148A3BC1D80154960C
:102090008D919C915597820F931F55969C938E938B
:1020A0005497409708F42DC155961C921E92549750
:1020B000C7010E946F0EF8016681862F86958F708A
:1020C000813009F01EC1858182958F7061706295A3
:1020D000607F682B70E043E0660F771F4A95E1F759
:1020E00069547A4BF5E4673D7F0768F4CE010196A9
:1020F00048E050E00E945603D80117968C9190E07A
:1021000086FDFFC010C08DEE9FEFAFEFBFEFF8016F
:1021100080879187A287B387878180628783828146
:102120009381B701EAC08F7190709595879521E0F2
:10213000A22EB12C02C0AA0CBB1C8A95E2F7CC24BB
:10214000DD24EE24FF2499E0892E912C8C0E9D1E17
:102150002CC06B817C816E0D7F1DC4014AE050E074
:102160000E945603EB85FC856591749149855A85DB
:10217000D80114962C91149715968C91382F3F7096
:102180002417350758F0215030402A0D3B1D41508F
:102190005040460F571F421753076CF40894C11C58
:1021A000D11CEAE0F0E0EE0EFF1E89819A81C8168C
:1021B000D9067CF28EC0D80117968C91A82EBB242C
:1021C000B0E8AB22BB2469897A896115710519F4DD
:1021D000EE24FF2420C0CE014396E5E4673D7E0750
:1021E00040F0DC01FB0180E101900D928150E1F7AC
:1021F00004C040E150E00E94F20FD80117968C9184
:1022000090E0FE01319680FD09C08E719070E80F5C
:10221000F91FE288F388CC24DD2409C001978E7170
:102220009070E80FF91FC28CD38CEE24FF24EF814D
:10223000F8853496D801149680E10D900192815072
:10224000E1F7EF81F885878180648783E114F104E9
:10225000A1F0D80114966C91149715968C91782F53
:102260007F7089859A85681B790B3896CE0109960F
:10227000AF019501F701099517C0C114D10419F4F4
:102280002FEF3FEF14C0F80164818581782F7F70B4
:1022900089859A85681B790BA801485F5F4FCE013D
:1022A00009969501F60109959C0197FF0BC0EF81F6
:1022B000F88588279927821B930BAA2797FDA0955D
:1022C000BA2F0DC0C801BE016F5F7F4F0E945D0F26
:1022D00018C0EF81F88586E190E0A0E0B0E080874B
:1022E0009187A287B3878781806287833496D801DC
:1022F00012968D919C911397BF0140E150E00E948E
:10230000C705A2960FB6F894DEBF0FBECDBFCF9122
:10231000DF911F910F91FF90EF90DF90CF90BF90D2
:10232000AF909F908F9008950F931F93CF93DF935B
:10233000DB01EC016C817D81232B61F49B012A0F71
:102340003B1FF90185919491EA019983888322E0EA
:1023500030E009C06A0F7B1FCA0148E050E00E94CC
:10236000F20F28E030E0C901DF91CF911F910F916A
:1023700008950F931F93CF93DF93DB018A01EC0144
:102380006C817D81232B91F49B012A0F3B1FE5E497
:10239000273D3E0720F0F9018491EA018883F90185
:1023A0008081E801888321E030E009C06A0F7B1F4B
:1023B000CA0148E050E00E94F20F28E030E0C90175
:1023C000DF91CF911F910F910895FC018681978134
:1023D000860F971FBA0148E050E00E94701E88E007
:1023E00090E00895CF93DF93FA01EC01AE81BF81B5
:1023F000232B49F4A60FB71F808191818D939C9365
:1024000022E030E00AC0CD01860F971FBA0148E0F4
:1024100050E00E94701E28E030E0C901DF91CF91AA
:102420000895CF93DF93FA01EC01AE81BF81232B96
:1024300039F4A60FB71F80818C9321E030E00AC0E9
:10244000CD01860F971FBA0148E050E00E94701E30
:1024500028E030E0C901DF91CF910895FC0124818B
:102460003581260F371FCA01B90148E050E00E94AC
:10247000701E88E090E008959C01FB0168E070E028
:102480000E942721482FC90168E070E00E9427219F
:102490006F5F7F4FDB01AA0FBB1FA60FB71FEF2B8C
:1024A00061F092962C91929781E090E002C0880FA3
:1024B000991F4A95E2F7282B0CC092962C9192977F
:1024C00081E090E002C0880F991F4A95E2F780955D
:1024D000282392962C9308959C01FB0168E070E0FC
:1024E0000E942721482FC90168E070E00E9427213F
:1024F0006F5F7F4FDB01AA0FBB1FA60FB71FEF2B2C
:1025000061F092962C91929781E090E002C0880F42
:10251000991F4A95E2F7282B0CC092962C9192971E
:1025200081E090E002C0880F991F4A95E2F78095FC
:10253000282392962C9308959C0168E070E00E94F5
:1025400027216F5F7F4FFB01EE0FFF1FE60FF71F85
:1025500040A1E0E0F0E0C90168E070E00E942721BE
:1025600021E030E002C0220F331F8A95E2F74223B8
:1025700011F0E1E0F0E0CF0108959C01FB0160E281
:1025800070E00E942721660F771F660F771FE60F06
:10259000F71FC90160E270E00E94272121E030E0CE
:1025A00040E050E004C0220F331F441F551F8A959E
:1025B000D2F780819181A281B381822B932BA42BAE
:1025C000B52B80839183A283B38308952F923F928A
:1025D0004F925F926F927F928F929F92AF92BF9233
:1025E000CF92DF92EF92FF920F931F93DF93CF93DF
:1025F000CDB7DEB728970FB6F894DEBF0FBECDBFBC
:102600005B015C834B83680183E0AA0CBB1C8A9549
:10261000E1F7232B29F048E050E05A83498302C0B8
:102620001A830983222433248DC0C10168E070E03D
:102630000E9427219B0158E0C516D10449F1C10130
:1026400060E170E00E9427214B01880C991C8B816E
:102650009C81880E991EC10160E270E00E942721D2
:10266000DB01AA0FBB1FAA0FBB1FEB81FC81AE0FC2
:10267000BF1FB887AF83250166247724B1E0EB2E16
:10268000F12C012D112DE20FF31FFE83ED8353C0BA
:10269000EB81FC81E60FF71F4081C50187709070C8
:1026A000892B69F6C50168E070E00E9427216F5F01
:1026B0007F4FFB01EE0FFF1FE60FF71F42A33EC047
:1026C000F0E1CF16D10491F040E2C416D104A1F09C
:1026D00058E0C516D10429F08AEE9FEF9A838983CA
:1026E00037C0AD81BE818C9190E003C0F401808140
:1026F0009181A0E0B0E006C0EF81F88580819181F2
:10270000A281B38160E070E08E219F21A023B123DC
:102710000097A105B10511F061E070E0C2010E94CF
:102720003C120894611C711CEE0CFF1C001F111F51
:102730000894411C511C6C147D0414F22C0C3D1C9B
:10274000AC0CBD1C49815A81241635060CF46DCFA2
:1027500089819A8128960FB6F894DEBF0FBECDBF4F
:10276000CF91DF911F910F91FF90EF90DF90CF906D
:10277000BF90AF909F908F907F906F905F904F90A1
:102780003F902F9008950F931F9308E010E00E9450
:10279000E6121F910F9108950F931F9300E110E02F
:1027A0000E94E6121F910F9108950F931F9300E26C
:1027B00010E00E94E6121F910F9108958FEF9FEF96
:1027C00008952F923F924F925F926F927F928F92D5
:1027D0009F92AF92BF92CF92DF92EF92FF920F93B0
:1027E0001F93DF93CF9300D000D0CDB7DEB73B016E
:1027F0005A834983480163E0660C771C6A95E1F7C8
:10280000232B21F058E0252E312C01C0180144243F
:1028100055249EC0C20168E070E00E9427216B0130
:1028200029813A81260F371F80E188169104F1F043
:1028300090E289169104F9F0A8E08A16910421F536
:10284000C30187709070892B11F08AEE0DC0C3010F
:1028500068E070E00E9427216F5F7F4FFB01EE0F61
:10286000FF1FE60FF71F80A1F9018083EAEDFFEF5C
:10287000D901ED93FC938AED9FEFAFEFBFEFF90124
:1028800080839183A283B38353011C821B82EE2435
:10289000FF2487011BC0C5010E949C12AA2797FD37
:1028A000A095BA2F0B8004C0880F991FAA1FBB1FC9
:1028B0000A94D2F7E82AF92A0A2B1B2B8B819C81D8
:1028C00001969C838B830894A11CB11CAB81BC81B5
:1028D000A815B90504F3B0E18B169104A1F0E0E26C
:1028E0008E169104F9F0F8E08F16910429F03AEE73
:1028F000232E3FEF332E30C089819A81C80ED91E16
:10290000D601EC9221C0C20160E170E00E94272153
:10291000FB01EE0FFF1F89819A81E80FF91FF182F9
:10292000E08212C0C20160E270E00E942721FB0138
:10293000EE0FFF1FEE0FFF1FA981BA81EA0FFB1FE9
:10294000E082F18202831383480C591C680C791CC5
:10295000421453040CF45ECFC1010F900F900F90FE
:102960000F90CF91DF911F910F91FF90EF90DF902B
:10297000CF90BF90AF909F908F907F906F905F901F
:102980004F903F902F9008950F931F9308E010E011
:102990000E94E1131F910F9108950F931F9300E17F
:1029A00010E00E94E1131F910F9108950F931F9360
:1029B00000E210E00E94E1131F910F9108958FEF44
:1029C0009FEF08952F923F924F925F926F927F9266
:1029D0008F929F92AF92BF92CF92DF92EF92FF922F
:1029E0000F931F93DF93CF93CDB7DEB728970FB622
:1029F000F894DEBF0FBECDBF3C012B011A01690167
:102A0000902E812E2115310521F078E2E72EF12C50
:102A100004C0802F912F9C017901C301B2015E0196
:102A20000894A11CB11CA5019601092D182D0E9426
:102A3000E11397FF03C02FEF3FEF21C0C70168E00C
:102A400070E00E9427219B01D50140E050E009C0C1
:102A5000F101E40FF51F8C919081892B8D934F5FCD
:102A60005F4F42175307A4F3C301B201AE014F5F9A
:102A70005F4F292D382D86010E94E6129C01C90165
:102A800028960FB6F894DEBF0FBECDBFCF91DF9171
:102A90001F910F91FF90EF90DF90CF90BF90AF907C
:102AA0009F908F907F906F905F904F903F902F906E
:102AB00008950F931F9308E010E00E94E6121F9103
:102AC0000F9108950F931F9300E110E00E94E2140C
:102AD0001F910F9108950F931F9300E210E00E9441
:102AE000E2141F910F9108958FEF9FEF08952F9299
:102AF0003F924F925F926F927F928F929F92AF928E
:102B0000BF92CF92DF92EF92FF920F931F93DF93CA
:102B1000CF93CDB7DEB728970FB6F894DEBF0FBEC0
:102B2000CDBF3C012B011A016901902E812E211588
:102B3000310521F0E8E2EE2EF12C04C0802F912F18
:102B40009C017901C301B2015E010894A11CB11C72
:102B5000A5019601092D182D0E94E11397FF03C0CE
:102B60002FEF3FEF21C0C70168E070E00E942721EE
:102B70009B01D50140E050E009C0F101E40FF51FD1
:102B80008C919081892B8D934F5F5F4F4217530734
:102B9000A4F3C301B201AE014F5F5F4F292D382D61
:102BA00086010E94E6129C01C90128960FB6F8948E
:102BB000DEBF0FBECDBFCF91DF911F910F91FF9070
:102BC000EF90DF90CF90BF90AF909F908F907F90CD
:102BD0006F905F904F903F902F9008950F931F93A9
:102BE00008E010E00E94E6121F910F9108950F93E4
:102BF0001F9300E110E00E9477151F910F91089537
:102C00000F931F9300E210E00E9477151F910F9120
:102C100008958FEF9FEF08952F923F924F925F920A
:102C20006F927F929F92AF92BF92CF92DF92EF927C
:102C3000FF920F931F93CF93DF931B012A01232B46
:102C400021F0B8E0CB2ED12C06C0C80168E070E0BE
:102C50000E9427216B01EE24FF24A1E06A2E712C33
:102C600043C0F201EE0DFF1D8081A82EBB24C501DB
:102C700083709070039719F42AEE3FEF3AC08701F2
:102C8000020D131DC8010E949C129C01C80168E03E
:102C900070E00E942721982EC80168E070E00E9431
:102CA00027216F5F7F4FEB01CC0FDD1FC60FD71FB2
:102CB000C801B9010E943C12A1FE09C029A1C301AB
:102CC00002C0880F991F9A94E2F7282B09C029A106
:102CD000C30102C0880F991F9A94E2F780952823B8
:102CE00029A30894E11CF11CEC14FD040CF4B9CFE9
:102CF0009601C901DF91CF911F910F91FF90EF9045
:102D0000DF90CF90BF90AF909F907F906F905F903B
:102D10004F903F902F9008950F931F9308E010E07D
:102D20000E940C161F910F9108950F931F9300E1BD
:102D300010E00E940C161F910F9108950F931F939E
:102D400000E210E00E940C161F910F9108958FEF82
:102D50009FEF0895AF92BF92CF92DF92EF92FF92D2
:102D60000F931F93CF93DF935B016A01232B21F015
:102D700091E0E92EF12C06C0C80168E070E00E94E5
:102D800027217B01C0E0D0E025C08E010A0D1B1D6C
:102D9000C80168E070E00E9427216F5F7F4FFB0150
:102DA000EE0FFF1FE60FF71F21A130E0C80168E01A
:102DB00070E00E94272102C0359527958A95E2F799
:102DC00020FD02C081E001C082E0F601EC0FFD1F92
:102DD00080832196CE15DF05C4F2C701DF91CF9124
:102DE0001F910F91FF90EF90DF90CF90BF90AF9029
:102DF00008950F931F9308E010E00E94AA161F91F8
:102E00000F9108950F931F9300E110E00E94AA16FE
:102E10001F910F9108950F931F9300E210E00E94FD
:102E2000AA161F910F9108958FEF9FEF0895AF920B
:102E3000BF92CF92DF92EF92FF920F931F93CF93A7
:102E4000DF935B01232B21F071E0C72ED12C03C04F
:102E500064E0C62ED12C8A01EE24FF2442E0F80162
:102E6000108297012A0D3B1DC90160E270E00E94AB
:102E70002721EB01CC0FDD1FCC0FDD1FFE01E3503E
:102E8000F84F80819181A281B3812F713070022E21
:102E900004C0B695A795979587950A94D2F7817047
:102EA0009070892B11F0F8014083FE01EB5FF74F22
:102EB00080819181A281B381022E04C0B695A7952D
:102EC000979587950A94D2F781709070892B21F09D
:102ED000F801808181608083C35FD74F88819981A9
:102EE000AA81BB8104C0B695A795979587952A9529
:102EF000D2F781709070892B21F0F8018081806871
:102F000080830894E11CF11CEC14FD041CF40F5F99
:102F10001F4FA5CFC601DF91CF911F910F91FF9059
:102F2000EF90DF90CF90BF90AF900895DC011496A2
:102F3000ED91FC91159780819181A281B3812091BF
:102F4000F5073091F6074091F7075091F807822B6B
:102F5000932BA42BB52B8093F5079093F607A093A2
:102F6000F707B093F80710821182128213828481CE
:102F70009581A681B7812091F9073091FA07409198
:102F8000FB075091FC07822B932BA42BB52B80932E
:102F9000F9079093FA07A093FB07B093FC071482FC
:102FA0001582168217828091F5079091F607A091FD
:102FB000F707B091F8070097A105B105B9F4809122
:102FC000F9079091FA07A091FB07B091FC070097D1
:102FD000A105B10559F400D083E093E0EDB7FEB749
:102FE000928381830E94971C0F900F9087EB95E44A
:102FF000875B9544E3E095958795EA95E1F7909393
:10300000EE078093ED0781E090E09093F0078093C6
:10301000EF0785E094E06DEE77E047E050E00E9436
:103020000F200895CF92DF92EF92FF920F931F939C
:10303000DF93CF93CDB7DEB728970FB6F894DEBFF6
:103040000FBECDBF6A01232B21F0B1E0EB2EF12C96
:1030500003C0A4E0EA2EF12C8B010B50184FCE01D7
:10306000019665EF77E048E050E00E94701E20E096
:1030700030E0F601E20FF31FD8018C918083F80154
:1030800011928F012F5F3F4F2E153F0594F38981D9
:103090009A81AB81BC810097A105B10549F48D816E
:1030A0009E81AF81B8850097A105B10509F449C09B
:1030B0008091F5079091F607A091F707B091F80776
:1030C0000097A105B105E9F58091F9079091FA07FC
:1030D000A091FB07B091FC070097A105B10589F508
:1030E00087EB95E4875B9544F3E095958795FA9592
:1030F000E1F79093F2078093F1071092F407109292
:10310000F30785E094E061EF77E047E050E00E944C
:103110000F20892BB1F000D000D084E193E0ADB74F
:10312000BEB712969C938E93119783E293E0149608
:103130009C938E9313970E94971C0F900F900F9063
:103140000F90C70128960FB6F894DEBF0FBECDBF13
:10315000CF91DF911F910F91FF90EF90DF90CF9073
:103160000895CF92DF92EF92FF920F931F93CF9328
:10317000DF938B01232B21F091E0C92ED12C03C0CA
:1031800084E0C82ED12CEA01EE24FF24888181FF3F
:1031900005C0C8016DEF77E00E94BD12888180FFF5
:1031A00005C0C80165E078E00E94BD12888187FFF4
:1031B00005C0C8016DE078E00E94BD126881C801B9
:1031C00070E00E94DD089C0197FD0BC00894E11C93
:1031D000F11C0F5F1F4FEC14FD0414F42196D6CFA1
:1031E0009601C901DF91CF911F910F91FF90EF9050
:1031F000DF90CF9008958AEE9FEF0895FA018091B5
:103200007A00108211821282138287FF08C081E047
:1032100090E0A0E0B0E080839183A283B38380E05C
:1032200090E00895FA0180819181A281B381009795
:10323000A105B10531F00E946E0C80917A00806882
:1032400003C080917A008F7780937A0080E090E0CD
:103250000895EF92FF920F931F93DF93CF9300D0C7
:1032600000D0CDB7DEB77A019B0156E036952795A1
:103270005A95E1F7F901EE0FFF1FE20FF31FEE0F72
:10328000FF1FE154FC4B6F7370706C30710509F4D3
:1032900050C06D30710550F46430710589F16830AB
:1032A000710509F441C0672B81F00CC064317105D0
:1032B00009F472C06831710509F46EC0603171059E
:1032C00009F452C02AEE3FEF69C081E4898384E4A7
:1032D0008A83C9016AE070E00E941321605D6B83FC
:1032E000C9016AE070E00E941321805D8C83C701F0
:1032F000BE016F5F7F4F44E050E00E94701E4CC0E3
:103300008081282F30E0220F331F40E050E0818180
:10331000882311F041E050E0242B352BC901AA2766
:1033200097FDA095BA2F33C082819381A481B58186
:103330002EC080917A0087FD03C023EF3FEF2EC09F
:10334000C9010E94860C8C01009719F420EF3FEF11
:1033500025C00E942A0DF7016083718382839383C5
:10336000C8010E94DF0C18C08091D3079091D40748
:10337000A091D507B091D60704C0B695A7959795AB
:1033800087952A95D2F781709070A070B070F70180
:1033900080839183A283B38320E030E0C9010F9042
:1033A0000F900F900F90CF91DF911F910F91FF9091
:1033B000EF900895CF93DF93FB01EA01232B19F0DF
:1033C0002FEF3FEF15C0CB0183709070892B19F060
:1033D0002AEE3FEF0DC0EC7FE658FC4F80819181D3
:1033E000A281B38188839983AA83BB8324E030E0E0
:1033F000C901DF91CF9108958EE190E060E070E027
:103400000E946C126E9A80E090E00895CF93DF9353
:10341000EC01009711F0C1E0D0E000D000D000D066
:10342000EDB7FEB731968FE393E0ADB7BEB7129616
:103430009C938E9311978EE190E093838283C48353
:10344000D5830E94971C8DB79EB706960FB6F89449
:103450009EBF0FBE8DBF8EE190E0BE010E946C1238
:10346000DF91CF910895AF92BF92CF92DF92EF920A
:10347000FF920F931F93FA01232B09F092C068303B
:10348000710541F06C30710509F452C0643071056A
:1034900009F087C0A0907A03B0907B03C0907C03B2
:1034A000D0907D0380819181A281B38164307105C8
:1034B00069F420917E0330917F0340918003509105
:1034C0008103282B392B4A2B5B2B12C09C01AD01A9
:1034D000209530954095509580917E0390917F0383
:1034E000A0918003B0918103282339234A235B23D1
:1034F00020937E0330937F03409380035093810396
:1035000079018A01E094F0940095109580918A03E6
:1035100090918B03A0918C03B0918D03E822F92246
:103520000A231B23EA14FB040C051D0531F53CC0DE
:1035300020917A0330917B0340917C0350917D036D
:10354000E080F18002811381E094F0940095109561
:10355000E222F3220423152380918A0390918B03A6
:10356000A0918C03B0918D03E82AF92A0A2B1B2B1A
:10357000E216F30604071507B9F080E090E0E114C5
:10358000F1040105110511F081E090E00E94061A96
:10359000E0927A03F0927B0300937C0310937D0307
:1035A00003C02FEF3FEF02C024E030E0C9011F91BC
:1035B0000F91FF90EF90DF90CF90BF90AF90089564
:1035C000EF92FF920F931F93CF93DF93DC0114963A
:1035D000CD91DC91159700D000D000D0EDB7FEB7AB
:1035E00031968BE493E0ADB7BEB712969C938E9361
:1035F00011978EE893E093838283D583C4830E94DE
:10360000971C88819981EDB7FEB736960FB6F8946E
:10361000FEBF0FBEEDBF8032910508F008C1E090FB
:103620008A03F0908B0300918C0310918D0361E06D
:1036300070E002C0660F771F8A95E2F7CB01809594
:1036400090959C01442737FD4095542F2E213F2112
:103650004023512320938A0330938B0340938C03A0
:1036600050938D038A819B81892B89F0CB01AA27F6
:1036700097FDA095BA2F282B392B4A2B5B2B209333
:103680008A0330938B0340938C0350938D032091D6
:103690008A0330918B0340918C0350918D03E21685
:1036A000F30604071507A9F400D000D000D0EDB749
:1036B000FEB731968BE593E0ADB7BEB712969C93FB
:1036C0008E9311978EE893E0938382838AEB90E048
:1036D00069C0E0907E03F0907F0300918003109119
:1036E0008103E094F09400951095E222F3220423E4
:1036F000152300D000D000D082E693E0ADB7BEB76E
:1037000012969C938E931197EDB7FEB72383348363
:10371000458356830E94971C8EE693E0ADB7BEB7F3
:1037200012969C938E93119780917E0390917F03C4
:10373000A0918003B091810380959095A095B0955C
:10374000EDB7FEB783839483A583B6830E94971C4D
:103750002DB73EB72A5F3F4F0FB6F8943EBF0FBE5E
:103760002DBF80917A0390917B03A0917C03B0914F
:103770007D03E816F9060A071B0709F500D000D0FB
:1037800000D0EDB7FEB731968BE593E0ADB7BEB78D
:1037900012969C938E9311978EE893E09383828385
:1037A00082EC90E0958384830E94971CEDB7FEB76E
:1037B00036960FB6F894FEBF0FBEEDBF38C0E0924C
:1037C0007A03F0927B0300937C0310937D03E11452
:1037D000F1040105110501F181E090E0088002C0CB
:1037E000880F991F0A94E2F7AA2797FDA095BA2F90
:1037F00020917E0330917F0340918003509181039B
:10380000822B932BA42BB52B80937E0390937F0365
:10381000A0938003B093810380E090E0E114F10471
:103820000105110511F081E090E00E94061ADF9178
:10383000CF911F910F91FF90EF9008950000535387
:10384000004B435349534F4D4F53494D55594F4AE0
:103850005A43434159434341584343410000434E77
:103860000000434E0000434E0000434E0000434E14
:103870000000434E44594F4A4947414D004C435381
:103880000041445331445852314458544C594F4AE2
:10389000444C585449544C4152594F4A0000434EED
:1038A0000000434E425748230000434E0000434E61
:1038B0000000434E4B4853480000434E5345524F7F
:1038C000003142500000434E0000434E5944454CE5
:1038D0005244454C5A5A55425448474CDF93CF9373
:1038E000CDB7DEB79E01275F3F4F8D819E816F81EF
:1038F0007885A9010E94A51CCF91DF910895EF92D0
:10390000FF920F931F939C01AB0105E618E0C801DD
:10391000B9010E94A51CF82EE92EC8010E940A1FB9
:103920008F2D9E2D1F910F91FF90EF900895DF93A3
:10393000CF93CDB7DEB7FE01359681919191BF014E
:103940000E947F1CCF91DF9108952F923F924F925A
:103950005F926F927F928F929F92AF92BF92CF921F
:10396000DF92EF92FF920F931F93DF93CF93CDB728
:10397000DEB764970FB6F894DEBF0FBECDBF9C8B49
:103980008B8B1B013A014C014DE214C1853259F475
:103990006AE0C62ED12C20E230E03A8B298B51E030
:1039A000452E512C07C0D4018D9369C0E0E3F0E0AF
:1039B000FA8BE98B0894211C311CD1019C9199361A
:1039C00009F466C09A36B0F4983531F1993568F447
:1039D0009A3231F19B3230F4992309F4F0C09532D8
:1039E00031F54BC0903319F5E1CF933661F1943640
:1039F000F1F44EC0903781F0913730F49E3609F4DF
:103A0000D6C09F36A1F43DC0953709F441C0983720
:103A100019F0933761F421C030E1C32ED12C38C0A6
:103A2000F301C080D18022E030E0620E731E892F46
:103A30008153893008F0BECF492E552480ED9FEF89
:103A4000480E591EB7CFD3018C91F40181934F01D9
:103A500022E030E0620E731EAAC0D301ED91FC910A
:103A600004C0D4018D934D01319680818823C9F71C
:103A7000E2E0F0E06E0E7F1E9AC0D4019D934D01EE
:103A800096C0BAE0CB16D10419F428E0C22ED12C8E
:103A9000F301E080F180F7FE0CC0FAE0CF16D1040C
:103AA00041F4F094E194F108F39491E0A92EB12C43
:103AB00002C0AA24BB2400E110E017C0015010404E
:103AC00021E030E02C0F3D1F200F311FC701B60150
:103AD0000E941321FC01EB55FC4F8081D9018C938E
:103AE000C701B6010E9413217B01E114F10421F00A
:103AF0000115110519F707C00031110521F4B0E3D4
:103B0000B88B0FE010E0A114B10499F0E989FA89AB
:103B1000B09721F081E0A82EB12C0BC001501040CD
:103B2000E1E0F0E0EC0FFD1FE00FF11F4083AA245D
:103B3000BB2401501040E1E0F0E0EC0FFD1FE00F6E
:103B4000F11F0F5F1F4F80E190E0841995098A0DE6
:103B50009B1D05C001501040298920833197801793
:103B60009107C4F3AB2849F001501040E1E0F0E0C8
:103B7000EC0FFD1FE00FF11F4083A1E0B0E0AC0FA0
:103B8000BD1FA00FB11FF401980104C08D91819356
:103B90002F5F3F4F20313105CCF382E090E0680E7B
:103BA000791E80E190E0801B910B880E991E08948D
:103BB000211C311CD1018C91882309F0E7CEF4013E
:103BC000108294018B899C89281B390BC90164964A
:103BD0000FB6F894DEBF0FBECDBFCF91DF911F911E
:103BE0000F91FF90EF90DF90CF90BF90AF909F909C
:103BF0008F907F906F905F904F903F902F9008959F
:103C000082E189BD09B400FEFDCF089584E085BD41
:103C10008AEF87BD81E080936E00089580EA8093EB
:103C2000D800089580E98093D800089581E88093B2
:103C3000D7000895AC01DB01FC018D9181938823AD
:103C4000E1F7CA0108959C01FC0101C03196808111
:103C50008823E1F7CF01821B930B0895AC019B01F0
:103C6000FA0101C031962115310529F0215030406B
:103C700080818823B9F79F01241B350BC901089562
:103C8000DC01FB018D919191891741F0891718F0A2
:103C900021E030E007C02FEF3FEF04C0882391F709
:103CA00020E030E0C9010895DC01FB0112C08C91D5
:103CB0009081891741F0891718F021E030E00EC09B
:103CC0002FEF3FEF0BC0882339F01196319641500A
:103CD00050404115510559F720E030E0C9010895E1
:103CE000EF92FF920F931F93CF93DF938C01EB0121
:103CF0007C01CE01802B912B80FD1FC0BA0120E0FA
:103D000030E00EC0F801E20FF31FDE01A20FB31F77
:103D10008D919C9191838083625070402E5F3F4FC4
:103D20006230710578F7CA018E7FBE01680F791F76
:103D30007801E80EF91E481B590B20E030E00AC05C
:103D4000F701E20FF31FDB01A20FB31F8C918083F9
:103D50002F5F3F4F415050408FEF4F3F580781F743
:103D6000C801DF91CF911F910F91FF90EF900895BF
:103D7000CF93DF93EC01FA019C0180FD20C0CB01C1
:103D8000AA2797FDA095BA2F9070A070B070222737
:103D9000382F492F5A2F282B392B4A2B5B2BCF0139
:103DA000DE0103C02D933D93029782309105D0F739
:103DB000CF018E7F9E01280F391FE81BF90BD90117
:103DC00001C06D9331978FEFEF3FF807D1F7CE0128
:103DD000DF91CF910895DF93CF9300D0CDB7DEB7B9
:103DE0009A8389830A9721F48DE090E00E94EB1E6C
:103DF00080910D0A90910E0A009739F0BE016F5F15
:103E00007F4F41E050E00E94C7050F900F90CF9187
:103E1000DF910895CF93DF93EC0104C0219690E0E9
:103E20000E94EB1E88818823C9F780E090E0DF9133
:103E3000CF9108950F931F93CF93DF93CEE0D1E0FE
:103E400006EB13E020C0E881F98109950097D1F0D5
:103E500000D000D000D0EDB7FEB73196ADB7BEB7F9
:103E600012961C930E931197D383C28395838483F8
:103E70000E94971C8DB79EB706960FB6F8949EBF0A
:103E80000FBE8DBF229691E0CC31D907E0F2CEE093
:103E9000D1E006EB13E020C0E881F9810995009795
:103EA000D1F000D000D000D0EDB7FEB73196ADB75D
:103EB000BEB712961C930E931197D383C28395833A
:103EC00084830E94971C8DB79EB706960FB6F89410
:103ED0009EBF0FBE8DBF229691E0CE30D907E0F293
:103EE00080E090E0DF91CF911F910F910895CF93E3
:103EF000DF932FB7F8948091090990910A0939E06E
:103F00008930930721F42FBFC0E0D0E00FC0EC014F
:103F10002297AC81BD81EA81FB81B383A283ED93BB
:103F2000FC939B838A839D838C832FBFCE01DF917B
:103F3000CF9108950F931F93CF93DF9389E099E07A
:103F400090930A098093090990930C0980930B09B7
:103F5000AFE0B9E020E030E0582F492FC90163E01D
:103F6000880F991F6A95E1F7815F964FE0910B09E1
:103F7000F0910C0990930C0980930B095C931196B6
:103F80004C9311971396FC93EE9312979183808331
:103F90002F5F3F4F18962032310501F7E9ECF8E02A
:103FA000A9EEB8E0E083F183E283F383AC930B2EB8
:103FB00011960C9211970A2E12960C9212970B2EB4
:103FC00013960C9213973496149688E0E93EF807FE
:103FD00049F705ED13E018C0F801C081D1810CC08C
:103FE00019830883EA81FB810190F081E02D3097ED
:103FF00011F0CE0109952896F80182819381C817A6
:10400000D90771F70C5F1F4FF4E009301F0720F349
:1040100080E090E0DF91CF911F910F9108950F9371
:104020001F93CF93DF938C019A014830510518F00C
:104030002AEE3FEF3DC08FB7F894409109095091A7
:104040000A0999E04930590711F48FBF11C0EA01FC
:104050002297AC81BD81EA81FB81B383A283ED937A
:10406000FC935B834A835D834C838FBF209719F455
:1040700024EF3FEF1DC07F836E83198308838FB7C2
:10408000F894220F331F220F331FE091D003F091D9
:10409000D103E20FF31FA281B38153834283FB83D9
:1040A000EA83BD83AC834D935C938FBF20E030E007
:1040B000C901DF91CF911F910F9108954F925F92A7
:1040C0006F927F928F929F92AF92BF92CF92DF9228
:1040D000EF92FF920F931F93CF93DF9319E0412E3E
:1040E00019E0512E4FB7F8942091D0033091D103AD
:1040F0008091D2039091D3039093D1038093D00306
:104100003093D3032093D2034FBFB8E06B2E712CB2
:10411000ACE1CA2ED12CE091D203F091D303EC0D87
:10412000FD1D0081118102501040D8011296ED90C2
:10413000FC901397CEEFDFEFEC0EFD1E45C0F801AB
:1041400080809180D401CD91DC910FC0F8018681EF
:1041500097819D838C83EA81FB810280F381E02D2E
:10416000309711F0CE0109952896D40112968D91C1
:104170009C911397C817D90749F7089461087108EB
:104180008FB7F894E801AC81BD81EA81FB81B383EC
:10419000A283ED93FC93E0910909F0910A09B3829F
:1041A000A282FB83EA835D824C82B0920A09A092CC
:1041B00009098FBFF701828193818701FEEFEF2EFE
:1041C000FFEFFF2EE80EF91EE2E0AE2EB12CA00E9E
:1041D000B11E8091D2039091D3038C0D9D1DA81622
:1041E000B90609F0ACCF8CEF9FEFC80ED91E9CEF3B
:1041F000C9169FEFD90609F08ECFA8E06A167104A0
:1042000009F070CFDF91CF911F910F91FF90EF9048
:10421000DF90CF90BF90AF909F908F907F906F90E6
:104220005F904F900895AA1BBB1B51E107C0AA1FC6
:10423000BB1FA617B70710F0A61BB70B881F991F47
:104240005A95A9F780959095BC01CD01089597FBEB
:10425000092E07260AD077FD04D0E5DF06D000201E
:104260001AF4709561957F4F0895F6F790958195B2
:104270009F4F0895B40BB10BAE0BAB0BA80BA50B66
:10428000A20B9F0B9C0B990B960B930B900B8D0B1A
:104290008A0B870B840B810B7E0B7B0B780B750BCA
:1042A000720B6F0B6C0B690B660B630B600B5D0B7A
:1042B0005A0B570B540B510B4E0B4B0B480B450B2A
:1042C000420B3F0B3C0B390B360B330B300B2D0BDA
:1042D0002A0B270B240B210B1E0B1B0B180B150B8A
:1042E000120B0F0B0C0B090B060B030B000BFD0A3B
:1042F000FA0AF70AF40A000100002A431200020039
:10430000003C4343000300007F430401030904838E
:104310004316020309049B430803030904A5430C45
:104320000001C11201803601813612010002020033
:104330000010C0167A0400010102030109024300C3
:10434000020100C03209040000010202010005243C
:1043500000100105240101010424020605240600C1
:10436000010705820310004009040100020A000051
:104370000007050302400000070584024000000416
:10438000030904160344006F00670020004800750D
:10439000006E0074006500720000000803590055AB
:1043A000004E0000000C03300030003000300030C0
:1043B00000000008000000A00F0000FFFFFFFF0A40
:1043C00000401F00000A00401F00000A00401F00BC
:1043D000000A00401F00000A00401F00000A0040C1
:1043E0001F00000A00401F00000A00401F0000B923
:1043F000119411220E2E121112F2114A0EE511B96A
:10440000119411220E2E120000000000000000C4C2
:1044100014CD14D614DF14C313CC13D513DE13003C
:1044200000000000000000591562156B157415009E
:1044300000000000000000EE15F71500160916F93F
:104440001602170B1714178C1695169E16A7160032
:104450000000001717000000000000B11800000065
:104460000000001218000000000000000000000022
:1044700000DD44DF440000FF430800E744E9440056
:1044800000FF431000F1443C380000FF431001F3EB
:10449000445C060000FF431003F54484060000FF5F
:1044A000431005F744000000003F441007F94400A2
:1044B0000000004F441009FB44000000000F4418A6
:1044C00009FB44000000001F442009FB44000000D9
:1044D000002F442809FD44F50700005F440800341C
:1044E000127856020000000800544553542800007A
:1044F00000A00028002800000200020800080000B8
:104500000000002919000000000000FB1800000056
:10451000000000FE1800000000000012190000005A
:1045200000514553450000FF4308005B45B343007D
:1045300000FF4310005B45BB430000FF4314005BDA
:1045400045000000000F4540005D45BF430000FFEF
:1045500044080035120100030000000400C00FB938
:10456000119411DA192E1200000000331A00000015
:10457000008D458F450000FF43080097457A037A78
:10458000035F45180099459B450000FF4308001153
:1045900011AAAA0B00000010000800130000000080
:1045A0000000000000AD45AF450000FF43080002D9
:1045B0000001000C0000000B006F4400001508050E
:1045C000001F450000290803006F4500003D080159
:0745D00000A34500005108A3
:1045D70000000000000000000000000000002304AD
:1045E7003205350AF20BD10D030E6E0C48656C6C63
:1045F7006F2C20426174686F732069732073706534
:10460700616B696E6720286275696C74206F6E2014
:104617002573290A004A756E203230203230313432
:104627000025730A0073797374656D5F74696D652E
:10463700725F696E6974000000770400005461734B
:104647006B3A2025730A000000EF040000000025E4
:104657000600006D6970732D636F6E736F6C650074
:104667006D6375696F000D0A25733A207377697456
:104677006368656420746F206D6F64652025730D12
:104687000A006176722D75617274006176722D73FE
:10469700706900756172742D6D75782D79756E006E
:1046A700B80865076C07B108000000007307000031
:1046B7000000260900007573622D75617274000091
:1046C700000000E100000000080000580A5B0ACC67
:1046D7000BEC0B00006176722D7561727400060C8D
:1046E700230C090C1D0C00006176722D7370690094
:1046F700470D860D4B0D4A0D00007573622D7561D0
:104707007274003C2D002D3E002563257325630A36
:104717000077726200726462007264770077727762
:10472700007264647700777264770072647100774F
:10473700727100756E6B6E6F776E000925753A257D
:10474700752E2575202573206F2030782530347815
:104757000A0009703A200030782530327820000AA4
:10476700006D6375696F3A206F7574707574206595
:1047770072726F720A006465616400616C697665C4
:10478700006D6375696F2025730A00756172742D5A
:104797006D75782D79756E006D6375696F3A20694F
:1047A7006E2070697065206572720A006D637569A5
:1047B7006F3A206F75742070697065206572720A90
:1047C700006D6375696F000000FC0F000000008634
:1047D7000F00004E554C4C206770696F2065766559
:1047E7006E740A0025733A20657674206572726FBD
:1047F700720A005F5F6770696F5F657674735F73D6
:1048070074617475735F7264000000961700006727
:1048170070696F25642D3E25640A0025732C206975
:1048270064617461203D2025700A0025732025648A
:104837000A0072203D203078253038780A006D2034
:104847003D203078253038780A0000000000FFFF4F
:10485700FFFF0000000000000000000000006D6383
:1048670075696F5F6972715F68616E646C6500FC82
:1048770019E01A00003031323334353637383961B0
:10488700626364656600696E697463616C6C20615C
:10489700742025703A206572726F722025690A00AC
:1048A700E908C90800230433041B04230433043331
:1048B7000433043304430443044304430433043BF1
:1048C700043304330443044B044B0453045B046371
:1048D700043B04430453045B040000000000000091
:1048E7000000000000000000000000000077010049
:1048F70000000000006701000000000000E0010068
:104907000000000000DA01000068070000FD020057
:1049170000D70700007D01000000000000F702003B
:1049270000D70700009F03000000000000390300C4
:104937000000000000000000C301D00100000000DB
:104947000000E601FB0100000000000005020E0266
:104957000000000000001802200200000000000014
:10496700F1028E0FAC0FD707983A00000300000042
:040000030000006693
:00000001FF
