:1000000032C00000000000000000000000000000FE
:1000100000000000000000000000000000000000E0
:1000200000000000000000003DC000007DC0000096
:1000300000000000000000000000000000000000C0
:1000400000000000000000000000000000000000B0
:10005000000000000000000000000000D7C2000007
:1000600000004DC2F0C111241FBECFEFDAE0CDBFBA
:10007000DEBFEEEBF6E607E6A0E0B1E0E63FF00714
:100080001CF425902D92FACFA0E4B2E007E0A0394D
:10009000B00714F41D92FBCF0E94EB1278940E94DB
:1000A0002C08E1CF1F920F920FB60F9211248F935D
:1000B0009F938091E1001092E10083FF13C01092A2
:1000C000E90091E09093EB001092EC0092E19093A4
:1000D000ED0098E09093F0001092DE011092E001A4
:1000E0001092DF0182FF19C08091DE01882379F030
:1000F0008091E801882359F081508093E8018111B3
:1001000006C084E08093E9008AE38093E80083E0FE
:100110008093E90084E08093F0009F918F910F908D
:100120000FBE0F901F9018951F920F920FB60F924F
:100130001124EF92FF920F931F932F933F934F93AE
:100140005F936F937F938F939F93AF93BF93EF933F
:10015000FF93CF93DF931F92CDB7DEB78091F4006A
:1001600083FF14C083E08093E9008091E80082FF60
:1001700008C047E050E066E976E08AE092E00E943D
:100180003B068091E800887F8093E8001092E900A8
:100190008091E80083FF3CC19091F1008091F100D3
:1001A0003091F1002091F100E32EF12CF22A009120
:1001B000F1002091F10010E0122B2091F1006091EC
:1001C000F10032EF3093E800863009F046C036E0A7
:1001D0008BE290E6FC01459154914E155F0539F490
:1001E000FC013296459154914017510721F0079632
:1001F000315081F70DC1FC01349645915491FC01B9
:100200003696849130E0362B2F3F310519F010F0EF
:100210002FEF30E0281708F4822F3EEF9091E8008E
:10022000292F2570D9F392FDF6C0982F813108F05F
:1002300090E1FA01292F222331F064916093F100BB
:1002400021503196F8CF490F511D891B3093E8009A
:100250008111E4CF903111F3DEC0853051F48EEF7F
:100260008093E8000E94AE0D8E2D80688093E3009D
:10027000D2C0893071F59111A8C0E092DE011092D0
:10028000E0011092DF011092E8018EEF8093E80008
:1002900041E08EEE90E64093E9009C012F5F3F4FD6
:1002A000FC0154915093EB00552361F0F901249126
:1002B0002093EC009C012D5F3F4FFC01329684910E
:1002C0008093ED004F5F453011F0C901E4CF8EE11E
:1002D0009AC0883051F4903809F077C00E94AE0D72
:1002E0008091DE018093F1006CC0813279F4913A03
:1002F00009F06BC00E94AE0DE1EEF1E081918093B8
:10030000F10021E0E83EF207C9F75BC08032B1F5A9
:10031000913209F05AC08091E80082FFFCCFE1EEF3
:10032000F1E08091F100819381E0E83EF807C9F7A0
:100330008BEF8093E8008EEF8093E8008091E101DD
:100340009091E201A091E301B091E401803B9440DF
:10035000A105B10509F05FC087E797E79093010811
:10036000809300082BE088E190E00FB6F894A89500
:10037000809360000FBE209360004DC0823251F424
:10038000913209F045C0F092E001E092DF010E9455
:10039000AE0D17C0811119C099830E94AE0D9981CD
:1003A000923851F40093E9008091EB0085FB882797
:1003B00080F91092E90001C080E08093F100109272
:1003C000F1008EEF8093E80026C0282F2D7F21308A
:1003D000F9F49230E9F4EF28D9F40F779FEF900FFA
:1003E0009430B0F49EEF9093E8000093E9008330DE
:1003F00079F089E18093EB0081E090E0002E01C06C
:10040000880F0A94EAF78093EA001092EA0003C08A
:1004100081E28093EB000F90DF91CF91FF91EF91FC
:10042000BF91AF919F918F917F916F915F914F910C
:100430003F912F911F910F91FF90EF900F900FBE62
:100440000F901F9018951F920F920FB60F921124C4
:100450002F933F934F935F936F937F938F939F93CC
:10046000AF93BF93EF93FF9320917802309179027D
:1004700060917A0270917B02A901461B570B4F7164
:100480005527C90180959095860F971F8F719927E1
:10049000892B31F481E090E090939D0280939C023F
:1004A0006091CE0080919C0290919D02892B61F415
:1004B000F901EA58FD4F66832F5F3F4F2F713327B5
:1004C0003093790220937802452B41F447E050E0C5
:1004D00066E976E084E192E00E943B06FF91EF91AD
:1004E000BF91AF919F918F917F916F915F914F914C
:1004F0003F912F910F900FBE0F901F9018951F9254
:100500000F920FB60F9211242F933F934F935F9347
:100510006F937F938F939F93AF93BF93EF93FF93CB
:10052000AEB5A53009F5209164053091650580913F
:10053000620590916305821B930B8F739927892B1A
:1005400089F0E0916605F0916705E20FF31F808165
:100550008EBDC90101968F7399279093650580938D
:10056000640543C01EBC41C01EBCAA23F1F14091EA
:1005700058055091590560915A0570915B059A0193
:10058000261B370B2F733327CA0180959095860F52
:10059000971F8F739927892B31F481E090E0909316
:1005A0005F0580935E0580915E0590915F05892BC4
:1005B00091F4E0915C05F0915D05E40FF51FA083D7
:1005C000809158059091590501968F7399279093C2
:1005D000590580935805232B41F447E050E066E924
:1005E00076E08EE192E00E943B06FF91EF91BF9191
:1005F000AF919F918F917F916F915F914F913F91BB
:100600002F910F900FBE0F901F9018951F920F9271
:100610000FB60F9211242F933F934F935F936F93D5
:100620007F938F939F93AF93BF93EF93FF938091AB
:100630006A0790916B07A0916C07B0916D070196C6
:10064000A11DB11D80936A0790936B07A0936C075F
:10065000B0936D0747E050E060E070E086E896E018
:100660000E94BF28FF91EF91BF91AF919F918F9111
:100670007F916F915F914F913F912F910F900FBE9E
:100680000F901F901895660776075E076607860726
:100690008E077607760776077E0786078607860722
:1006A000860776077607760776078E0796079E07F2
:1006B000A6077E07860796079E07A607AE07B6071A
:1006C000BE07BE07C607AE07B60771011A111111A2
:1006D000940196128D12AA01FB2CA62CAF018B2C33
:1006E000822CB701772C6E2CBF01342E652C6C69DF
:1006F0006E696E6F494F3A206769742061316536C3
:10070000366639206275696C742067696F203230F3
:1007100031352D30312D30312030393A35333A33BF
:100720003620636F6C6F73696D6F40617375730A08
:1007300000000000000000000000000000000000B9
:1007400000000000000000000000000000000000A9
:100750000000000000000000000000000000000099
:10076000545E0000000000004E5E0000000000002B
:10077000D95E000000000000C95E0000000000001B
:10078000F9610000A40200005A5E000000000000B1
:10079000FF610000A4020000A6630000000000004A
:1007A0001462000000000000666400000000000009
:1007B0008A660000440500009066000044050000C1
:1007C000C35E0000000000000000070707070000EC
:1007D00000000000070707070000070007070000E8
:1007E00000000000000007070000070707070000DF
:1007F00000000000000000000000000000000000F9
:1008000000000000000000000000000000000000E8
:1008100000000000000047E050E060E070E086E883
:1008200096E00C94BF2883B7817F83BF83B7816034
:1008300083BF889583B78E7F83BF08950E94F52874
:10084000892B19F00E940829F9CF0E941304F6CFD2
:10085000E0E4F2E0F183E083F0934302E0934202AC
:1008600080E090E008958F929F92AF92BF92CF92D6
:10087000DF92EF92FF920F931F93CF93DF93C0917C
:100880004002D09141022697CE80DF8026E0C21A36
:10089000D10800E011E0E12C82E0F82E32E0CA330A
:1008A000D30709F44CC080916A0790916B07A0911F
:1008B0006C07B0916D0728813981821B930B97FDDE
:1008C0003EC06C817D8147E050E08AE896E00E945E
:1008D000BF28EE81FF8132E0E034F307C1F04091A0
:1008E0006A0750916B0760916C0770916D07DF018B
:1008F00016978D909D90AD90BC901397480D591D03
:100900006A1D7B1D4D935D936D937C931397A88512
:10091000B985B383A283ED93FC931F830E83F9867D
:10092000E8866AE070E0CE010E94382BF6018681ED
:100930009781E6019C01265031096901AFCFDF9113
:10094000CF911F910F91FF90EF90DF90CF90BF90CC
:10095000AF909F908F900895CF92DF92EF92FF9289
:100960000F931F93CF93DF936B017C01EA018AE021
:1009700090E00E940A2CFC01009709F469C00091E4
:100980006A0710916B0720916C0730916D070C0D71
:100990001D1D2E1D3F1D0083118322833383D583AC
:1009A000C483FFB6F894A0914002B091410222E0C6
:1009B000A034B207D1F4069690934302809342028A
:1009C000B783A683B187A0879093410280934002AA
:1009D0003BC0041B150B260B370B008311832283AE
:1009E000338316960D90BC91A02D1697CD010696D7
:1009F00022E080349207B9F0008111812281338195
:100A00004D915D916D917C911397E801C41BD50BBD
:100A1000D7FFDFCF401B510B620B730B4D935D93E0
:100A20006D937C9313979F012A5F3F4F1896CD914A
:100A3000DC91199719963C932E9318979783868388
:100A4000D187C08739832883FFBE80E090E002C051
:100A500084EF9FEFDF91CF911F910F91FF90EF9067
:100A6000DF90CF9008958F929F92AF92BF92CF92D6
:100A7000DF92EF92FF92CF93DF93C0906A07D090FE
:100A80006B07E0906C07F0906D07C8E2D2E082E05F
:100A9000C833D80748F4EC81FD81309719F08E8176
:100AA0009F8109956096F3CFC8E2D2E046015701D5
:100AB00084E6880E911CA11CB11C82E0C833D807C3
:100AC000C8F48C859D85AE85BF85880D991DAA1DAE
:100AD000BB1D8C879D87AE87BF87BC01CD016C197C
:100AE0007D098E099F09AE010E94AC0497FD05C0E7
:100AF0006096E3CF80E090E002C08FEF9FEFDF9140
:100B0000CF91FF90EF90DF90CF90BF90AF909F90EC
:100B10008F9008950F931F93CF93DF93FC01C481AF
:100B2000D581EA81FB818E819F8109959F838E8388
:100B300088859985AA85BB850C851D852E853F8571
:100B4000800F911FA21FB31F8C879D87AE87BF8721
:100B500000916A0710916B0720916C0730916D0727
:100B6000A801481B590B57FD09C0D901C8010196BE
:100B7000A11DB11D8C879D87AE87BF876C857D8544
:100B80008E859F85601B710B820B930BAE01DF91ED
:100B9000CF911F910F910C94AC040F931F93CF939F
:100BA000DF93CDB7DEB72A970FB6F894DEBF0FBE3E
:100BB000CDBFDC0114960D911C911597C8010896C4
:100BC000F801A085B1852285338513963C932E9339
:100BD0001297F901B183A083D80119969C938E9343
:100BE00018971B969C938E931A971696ED91FC91ED
:100BF0001797CF010696268137812817390771F498
:100C0000628173814AE050E0CE0101960E947F2EFE
:100C1000EF81F885309711F0C8010995F801178226
:100C200016822A960FB6F894DEBF0FBECDBFDF91B5
:100C3000CF911F910F9108950F931F93CF93DF933F
:100C40008C01C0E0D2E0F2E0C832DF0758F46881DE
:100C50007981F801808191810E94EA26892B29F00F
:100C60002A96F1CF80E090E001C0CE01DF91CF91D4
:100C70001F910F910895CF92DF92EF92FF920F9301
:100C80001F93CF93DF937B016A01FC01C681D7815B
:100C9000209799F028978C010A5F1F4FCE01089684
:100CA0008017910751F0A601BE01C7010E94BF281D
:100CB0000884D985C02D2897F1CFDF91CF911F915E
:100CC0000F91FF90EF90DF90CF900895AF92BF9279
:100CD000CF92DF92EF92FF920F931F93CF93DF9308
:100CE000CDB7DEB72A970FB6F894DEBF0FBECDBFE3
:100CF0007C016B015A016115710519F486E190E0E0
:100D000024C08CE090E00E940A2C8C01009739F4FA
:100D100087E190E0909343058093420569C0DC0130
:100D20001196FC92EE921596BC92AE921497139681
:100D3000DC92CE9212970E941C067C01009761F40F
:100D4000F8011782168286E090E090934305809325
:100D5000420500E010E04CC0D80117969C938E939A
:100D60001697FC0186819781892B31F4C70106967D
:100D70009783868391878087D70112966D917C91A6
:100D800013974AE050E0CE0101960E947F2EE98140
:100D9000FA81309741F0C8010995009721F0F801D8
:100DA00017821682D2CFD7011696ED91FC91179734
:100DB000C801089693838283D8011996FC93EE9319
:100DC000189797012A5F3F4F1B963C932E931A97D3
:100DD000F70197838683CA94CD2819F486EA96E0B2
:100DE00002C082EA96E047E050E0B8010E94BF28C6
:100DF000C8012A960FB6F894DEBF0FBECDBFDF91B3
:100E0000CF911F910F91FF90EF90DF90CF90BF9007
:100E1000AF900895CF93DF93EC018E819F81892B52
:100E200049F489E090E090934305809342058FEF69
:100E30009FEF17C08A819B81019719F48EE996E094
:100E400002C08AE996E047E050E0BE010E94BF2858
:100E500046E050E0BE018EE896E00E94BF2880E0A8
:100E600090E0DF91CF910895CF92DF92EF92FF92C1
:100E70000F931F93CF93DF93CDB7DEB72A970FB6AB
:100E8000F894DEBF0FBECDBF8C017B016A01DC018F
:100E90001696ED91FC911797309719F489E090E040
:100EA00012C0628173814AE050E0CE0101960E9437
:100EB0007F2EF801828180FF04C0EB81FC81309796
:100EC00049F481E090E090934305809342058FEFD1
:100ED0009FEF11C0A601B701C801099597FF05C092
:100EE00022273327281B390B02C020E030E0309343
:100EF0004305209342052A960FB6F894DEBF0FBE35
:100F0000CDBFDF91CF911F910F91FF90EF90DF90B8
:100F1000CF900895CF92DF92EF92FF920F931F939D
:100F2000CF93DF93CDB7DEB72A970FB6F894DEBF25
:100F30000FBECDBF8C017B016A01DC011696ED91DD
:100F4000FC911797309719F489E090E012C0628104
:100F500073814AE050E0CE0101960E947F2EF80195
:100F6000828181FF04C0ED81FE81309749F481E0E8
:100F700090E090934305809342058FEF9FEF11C05F
:100F8000A601B701C801099597FF05C0222733279D
:100F9000281B390B02C020E030E03093430520933A
:100FA00042052A960FB6F894DEBF0FBECDBFDF9183
:100FB000CF911F910F91FF90EF90DF90CF90089508
:100FC000EF92FF920F931F93CF93DF93CDB7DEB7CE
:100FD0002A970FB6F894DEBF0FBECDBF8C017B0100
:100FE000DC011696ED91FC911797309719F489E082
:100FF00090E00EC0628173814AE050E0CE0101961C
:101000000E947F2EE985FA85309749F481E090E0CF
:1010100090934305809342058FEF9FEF10C0B70177
:10102000C801099597FF05C022273327281B390BD4
:1010300002C020E030E030934305209342052A9619
:101040000FB6F894DEBF0FBECDBFDF91CF911F91D9
:101050000F91FF90EF900895CF93DF9314BE88E136
:101060000FB6F89480936000109260000FBE0E944B
:10107000FC27C9ECD0E02197209729F088EE93E077
:101080000E943728F8CFDF91CF910C941E048091F5
:101090004602909147020C940A0780914602909173
:1010A00047020C948A0780914602909147020C9463
:1010B000340740E050E063E070E087E291E00E9496
:1010C00066069093470280934602892B19F48DEEB1
:1010D0009FEF08951092440282E08093450240E021
:1010E00050E063E070E080E391E00E946606909338
:1010F000490280934802892B51F380E090E00895E3
:1011000080914502813071F480914A02882311F068
:1011100080E001C082E08093450281111CC083E41D
:1011200091E01BC047E050E060E070E08EEB96E09D
:101130000E94BF2897FF09C084EA9EE59F938F9382
:101140000E9466250F900F90089581E080934502DC
:101150008DE391E002C088E391E09F938F9382E852
:101160009EE59F938F930E9466250F900F900F909E
:101170000F9008950C948008EF92FF920F931F93A5
:10118000CF93DF93CDB7DEB7C054D1090FB6F89433
:10119000DEBF0FBECDBFDC011496ED90FC9015971D
:1011A0008091480290914902E816F906D1F481E055
:1011B00080934A0280914502813011F010924502DD
:1011C00040E450E0BE016F5F7F4FC7010E943407CB
:1011D000181619060CF0C3C0AC01BE016F5F7F4F3B
:1011E000AFC0D7011696ED91FC911797CF010696E7
:1011F000268137812817390709F4B1C0809146024A
:1012000090914702E816F90641F0809168079091A5
:101210006907E816F90609F0A2C080914402882304
:1012200039F08091680790916907E816F90689F40A
:1012300080914502813069F040E450E0BE016F5F6B
:101240007F4FC7010E9434078C01181619061CF045
:1012500086C000E010E08091680790916907E81669
:10126000F906D1F58091460290914702FE01319630
:101270007F019F012E193F09201731073CF4009789
:1012800029F021912D31A9F70E9480088091450213
:10129000813039F447E050E060E070E086EC96E0A1
:1012A0005CC081110AC08091480290914902009768
:1012B00021F0A801B7010E948A0780914402813081
:1012C00009F44DC08091460290914702009709F4BD
:1012D00046C0A801B70138C080914402811137C0CF
:1012E000FE0131967F01CF018E199F09801791076A
:1012F0000CF581918A3AB9F781E08093440287E442
:1013000091E09F938F93E0914602F091470206800F
:10131000F781E02D81818F9380818F9380E69EE518
:101320009F938F930E9466250F900F900F900F90C0
:101330000F900F9080914402813089F0A801B7018D
:1013400080914005909141050E948A0708C047E0BE
:1013500050E060E070E08AEA96E00E94BF28C05C3E
:10136000DF4F0FB6F894DEBF0FBECDBFDF91CF9138
:101370001F910F91FF90EF9008952F923F924F92FF
:101380005F926F927F928F929F92AF92BF92CF9215
:10139000DF92EF92FF920F931F93CF93DF93CDB71E
:1013A000DEB728970FB6F894DEBF0FBECDBF03E6B9
:1013B00012E018870F83F3E22F2E312C60E070E0EB
:1013C000A12CB12C40E050E081E090E0A0E0B0E042
:1013D0009A012F5F3F4FF101D080F0904B020F2D0B
:1013E00010E0042E02C0159507950A94E2F700FD5F
:1013F0000CC001E010E002C0000F111F4A95E2F797
:10140000A8014F2940934B0296C0EF81F885E080F8
:10141000ED24FF24F39440E050E089010D5A1D4F64
:101420001A830983F901E35AFD4FFC83EB83890199
:10143000085A1D4F1E830D83E981FA8110811F21F7
:1014400009F472C01F2D1E2109F46EC0EB81FC81CE
:1014500010811F2191F1EF81F88510811F2169F51D
:10146000CFB6F8948A01060F171FF801689414F894
:10147000F595E7951694E1F7EE0FFF1FEE0FFF1FAE
:10148000E45BFD4F0F7111272C013D0104C0440C9A
:10149000551C661C771C0A95D2F780809180A2802B
:1014A000B38084289528A628B72880829182A282BA
:1014B000B382CFBEAA24A394B12CED81FE8110810A
:1014C0001F2191F1EF81F88510811F2169F1CFB6BD
:1014D000F8948A01060F171FF801689414F8F5951F
:1014E000E7951694E1F7EE0FFF1FEE0FFF1FE45B89
:1014F000FD4F0F7111272C013D0104C0440C551CF8
:10150000661C771C0A95D2F780809180A280B380F8
:1015100084289528A628B72880829182A282B38247
:10152000CFBEAA24A394B12CFF0C4F5F5F4F48306D
:10153000510509F081CFEF81F885D192F887EF83CB
:10154000685F7F4FF3E02F0E311C2530310511F01D
:10155000A9013ECFAB2801F147E050E06CE472E016
:101560008EEA96E028960FB6F894DEBF0FBECDBF88
:10157000DF91CF911F910F91FF90EF90DF90CF906F
:10158000BF90AF909F908F907F906F905F904F90A3
:101590003F902F900C94BF2828960FB6F894DEBF8A
:1015A0000FBECDBFDF91CF911F910F91FF90EF90B4
:1015B000DF90CF90BF90AF909F908F907F906F9073
:1015C0005F904F903F902F900895CF93DF93883294
:1015D0009105E0F5AC014770552721E030E001C0EE
:1015E000220F4A95EAF7EC01A3E0D595C795AA9595
:1015F000E1F7522F5095DE01A25ABD4F4C91452381
:101600004C93FE01E75AFD4F908195239083CC5A6D
:10161000DD4F88818523888360FF02C0422B4C9375
:1016200061FF02C0922B908367FF02C0822B8883E8
:10163000CB018C709927009759F08C91822B8C9359
:101640008081822B808380E090E002C08AEE9FEF51
:10165000DF91CF910895ECE7F0E080818F73808374
:10166000808180648083EAE7F0E080818760808306
:1016700080818F77808380E090E00895FC01218154
:1016800080917C00807E80937C0030917C00822F52
:1016900090E008970CF0205E232B20937C00809133
:1016A0007A00806480937A0080917A0086FDFCCF76
:1016B000209178006091790070E0762F6627882766
:1016C00077FD8095982F622B089584B5836084BD43
:1016D00085B5886085BD089584B58C7F84BD85B54A
:1016E000877F85BD0895E0E8F0E080818260808397
:1016F000E1E8F0E080818A6180838FE39CE9909348
:101700008700809386000895E0E8F0E080818D7F77
:101710008083E1E8F0E08081807E80831092870002
:10172000109286000895E0E9F0E080818260808375
:10173000E1E9F0E080818A6180838FE39CE9909306
:101740009700809396000895E0E9F0E080818D7F16
:101750008083E1E9F0E08081807E808310929700B1
:10176000109296000895E1ECF0E080818B60808318
:101770000895E1ECF0E08081847F80830895411535
:1017800051056105710521F0415051096109710947
:10179000509387004093860080E090E00895609128
:1017A00086007091870080E090E06F5F7F4F8F4FE1
:1017B0009F4F0895411551056105710521F0415074
:1017C000510961097109509397004093960080E098
:1017D00090E00895609196007091970080E090E00D
:1017E0006F5F7F4F8F4F9F4F08954093D10080E0F0
:1017F00090E008956091D10070E080E090E008955D
:10180000DC015096ED91FC915197208153968C917B
:10181000282381E090E011F480E090E00895CF93D8
:10182000DF9300D000D0CDB7DEB749835A836B83F6
:101830007C83842F952FA62FB72F0097A105B10584
:1018400039F00197A109B10989839A83AB83BC83DD
:10185000898188BD80E090E00F900F900F900F90ED
:10186000DF91CF91089568B570E06F5F7F4F882753
:1018700077FD8095982F0895FC0162857385848596
:1018800095850895411551056105710521F0415077
:10189000510961097109DC015796ED91FC91589746
:1018A0005183408380E090E00895DC015796ED91EC
:1018B000FC9158976081718180E090E06F5F7F4F6D
:1018C0008F4F9F4F08954093D20080E090E008959D
:1018D0006091D20070E080E090E008958091C100B6
:1018E000992787FD9095892F881F8827881F90E06A
:1018F0000895DC015096ED91FC91519753969C917F
:101900008081452B462B472B11F0892B02C09095E7
:101910008923808380E090E008958091C100452B69
:10192000462B472B11F0806801C08F778093C10050
:1019300080E090E0089541E050E002C0440F551F60
:101940008A95E2F7662757FD6095762F809172029F
:1019500090917302A0917402B091750248235923AB
:101960006A237B2381E090E0452B462B472B11F423
:1019700080E090E008950F931F93CF93DF93EC01E5
:1019800008811981C8010E949B0CF801E859FD4F9C
:10199000892B19F08081815080838081811103C05F
:1019A000EBA5FCA50995E889F98980819A8990952C
:1019B00089238083E1E0F0E002C0EE0FFF1F0A956B
:1019C000E2F7AF01662757FD6095762F00916E0212
:1019D00010916F02209170023091710240235123C7
:1019E00062237323452B462B472B39F4AC89BD89E1
:1019F0008C919E89909589238C93AF014095509549
:101A0000662757FD6095762F809172029091730240
:101A1000A0917402B091750284239523A623B72365
:101A20008093720290937302A0937402B093750234
:101A3000DF91CF911F910F910895EF92FF920F9335
:101A40001F93CF93DF93EC01F8808E859F858C01E7
:101A500008591D4FF801E080E11006C081E0808345
:101A6000E9A5FAA5099507C00E949B0C892B19F4DA
:101A7000E394F801E082E889F98980819A89892BC9
:101A80008083EC89FD8980812E89822340916E02BA
:101A900050916F0260917002709171028823C9F0B9
:101AA00081E090E00F2C02C0880F991F0A94E2F7A2
:101AB000AA2797FDA095BA2F842B952BA62BB72B81
:101AC00080936E0290936F02A0937002B0937102A4
:101AD0001DC081E090E00F2C02C0880F991F0A946E
:101AE000E2F780959095AA2797FDA095BA2F8423B9
:101AF0009523A623B72380936E0290936F02A09341
:101B00007002B09371028081822B808341E050E0AB
:101B100002C0440F551FFA94E2F7662757FD6095FF
:101B2000762F8091720290917302A0917402B0910D
:101B30007502842B952BA62BB72B80937202909362
:101B40007302A0937402B093750280E090E0DF917D
:101B5000CF911F910F91FF90EF9008958091E80031
:101B600080FFFCCF089581E08093D70080EA8093C6
:101B7000D80082E189BD09B400FEFDCF80E98093E1
:101B8000D8001092E0001092DE011092E001109255
:101B9000DF018CE08093E20080E090E0089580E037
:101BA00090E00895CF93DF938091DE01882389F13F
:101BB000CFB7F89483E08093E900A091F200FB0195
:101BC000B0E0D3E0CF01861B970B9A01A417B507AD
:101BD0000CF49D018217930774F4D093E9002091CF
:101BE000E80025FD02C0CFBF06C0D093E900809178
:101BF000F1008193E7CF23E02093E9002091F200E8
:101C0000211105C02091E8002F772093E800CFBF75
:101C100002C085EF9FEFDF91CF910895E2EEF0E0F3
:101C20008081877F808308958091DE0190E0089510
:101C30008091DF019091E0010895EF92FF921F9350
:101C4000CF93DF937C01CB012091DE01211103C0F2
:101C500085EF9FEF58C24FB7242FF89454E050936C
:101C6000E9005091E901552341F05091E80055FDFC
:101C700002C04FBF3BC01092E901A4E0B0E4CAE348
:101C8000D5E022C0122F4091F2005B2F541B452F4C
:101C9000652F70E08617970708F4482F841B910979
:101CA00050E04134510578F1F70140814093F10053
:101CB000A7014F5F5F4F7A014091E80045FFC09355
:101CC000E800D093E8011FBF009709F41AC24091C1
:101CD000E400475E5091E80055FDD4CF2FBF20911E
:101CE000E400241306C081E08093E9018BEF9FEFAD
:101CF0000AC22091DE01222309F4AACF2FB7F8945B
:101D0000A093E900E7CF4552514DFA010C94D52E2E
:101D1000F70140814093F100A7014F5F5F4F7A01C7
:101D2000F70140814093F100A7014F5F5F4F7A01B7
:101D3000F70140814093F100A7014F5F5F4F7A01A7
:101D4000F70140814093F100A7014F5F5F4F7A0197
:101D5000F70140814093F100A7014F5F5F4F7A0187
:101D6000F70140814093F100A7014F5F5F4F7A0177
:101D7000F70140814093F100A7014F5F5F4F7A0167
:101D8000F70140814093F100A7014F5F5F4F7A0157
:101D9000F70140814093F100A7014F5F5F4F7A0147
:101DA000F70140814093F100A7014F5F5F4F7A0137
:101DB000F70140814093F100A7014F5F5F4F7A0127
:101DC000F70140814093F100A7014F5F5F4F7A0117
:101DD000F70140814093F100A7014F5F5F4F7A0107
:101DE000F70140814093F100A7014F5F5F4F7A01F7
:101DF000F70140814093F100A7014F5F5F4F7A01E7
:101E0000F70140814093F100A7014F5F5F4F7A01D6
:101E1000F70140814093F100A7014F5F5F4F7A01C6
:101E2000F70140814093F100A7014F5F5F4F7A01B6
:101E3000F70140814093F100A7014F5F5F4F7A01A6
:101E4000F70140814093F100A7014F5F5F4F7A0196
:101E5000F70140814093F100A7014F5F5F4F7A0186
:101E6000F70140814093F100A7014F5F5F4F7A0176
:101E7000F70140814093F100A7014F5F5F4F7A0166
:101E8000F70140814093F100A7014F5F5F4F7A0156
:101E9000F70140814093F100A7014F5F5F4F7A0146
:101EA000F70140814093F100A7014F5F5F4F7A0136
:101EB000F70140814093F100A7014F5F5F4F7A0126
:101EC000F70140814093F100A7014F5F5F4F7A0116
:101ED000F70140814093F100A7014F5F5F4F7A0106
:101EE000F70140814093F100A7014F5F5F4F7A01F6
:101EF000F70140814093F100A7014F5F5F4F7A01E6
:101F0000F70140814093F100A7014F5F5F4F7A01D5
:101F1000F70140814093F100A7014F5F5F4F7A01C5
:101F2000F70140814093F100A7014F5F5F4F7A01B5
:101F3000F70140814093F100A7014F5F5F4F7A01A5
:101F4000F70140814093F100A7014F5F5F4F7A0195
:101F5000F70140814093F100A7014F5F5F4F7A0185
:101F6000F70140814093F100A7014F5F5F4F7A0175
:101F7000F70140814093F100A7014F5F5F4F7A0165
:101F8000F70140814093F100A7014F5F5F4F7A0155
:101F9000F70140814093F100A7014F5F5F4F7A0145
:101FA000F70140814093F100A7014F5F5F4F7A0135
:101FB000F70140814093F100A7014F5F5F4F7A0125
:101FC000F70140814093F100A7014F5F5F4F7A0115
:101FD000F70140814093F100A7014F5F5F4F7A0105
:101FE000F70140814093F100A7014F5F5F4F7A01F5
:101FF000F70140814093F100A7014F5F5F4F7A01E5
:10200000F70140814093F100A7014F5F5F4F7A01D4
:10201000F70140814093F100A7014F5F5F4F7A01C4
:10202000F70140814093F100A7014F5F5F4F7A01B4
:10203000F70140814093F100A7014F5F5F4F7A01A4
:10204000F70140814093F100A7014F5F5F4F7A0194
:10205000F70140814093F100A7014F5F5F4F7A0184
:10206000F70140814093F100A7014F5F5F4F7A0174
:10207000F70140814093F100A7014F5F5F4F7A0164
:10208000F70140814093F100A7014F5F5F4F7A0154
:10209000F70140814093F100A7014F5F5F4F7A0144
:1020A000F70140814093F100A7014F5F5F4F7A0134
:1020B000F70140814093F100A7014F5F5F4F7A0124
:1020C000F70140814093F100A7014F5F5F4F7A0114
:1020D000F70140814093F100A7014F5F5F4F7A0104
:1020E000F70140814093F100A7014F5F5F4F7A01F4
:1020F000F70140814093F100A7014F5F5F4F7A01E4
:10210000D3CD80E090E0DF91CF911F91FF90EF90D1
:102110000895CF93DF93CB01EA01209779F4809162
:10212000DE01811102C085EF0FC08091DF01909127
:10213000E00180FFF8CF80E090E009C0BA010E9482
:102140001D0E892B19F08FEF9FEF01C0CE01DF919B
:10215000CF91089580E090E00895CA01FB019F01AE
:10216000261B370B2817390744F421913091C800FA
:1021700035FFFCCF2093CE00F2CF0895E9ECF0E0DC
:102180008081877680830895CF93DF93CB01E091A0
:102190007A02F0917B0220E230E02E1B3F0BC091CF
:1021A0007802D0917902C20FD31FCF71DD274C176F
:1021B0005D070CF4EA012C173D070CF4E9012097A8
:1021C00049F1BF0164587D4FAE010E9418278091EC
:1021D0007A0290917B028C0F9D1F8F7199279093AB
:1021E0007B0280937A0210929D0210929C022091B1
:1021F000780230917902281B390B2F713327232B5A
:1022000061F047E050E066E976E084E192E00E9408
:102210003B0603C085EF9FEF01C0CE01DF91CF9158
:1022200008958BE191E69F938F930E9466250F900E
:102230000F900895CF93DF930297A4F1DB011296DC
:10224000ED91FC911397808190E0C19783309105C7
:1022500078F09F938F9385E091E69F938F930E94F0
:1022600066250F900F900F900F90CAEEDFEF1CC005
:102270008093EA0126E0289FF001299FF00D1124A8
:10228000ED5CFE49208131814281538160E472E43A
:102290008FE090E00E94B32E215031093093CD00A1
:1022A0002093CC00C0E0D0E08091EA01882319F0AF
:1022B00081E091E602C083E091E69F938F930E94B4
:1022C00066250F900F9083E691E09F938F931F9266
:1022D00081E08F9388EF90E69F938F930E9466250D
:1022E0000F900F900F900F900F900F908091EA0138
:1022F000813019F081E091E602C083E091E69F937E
:102300008F930E9466250F900F908AE691E09F932D
:102310008F931F9282E08F9388EF90E69F938F9325
:102320000E9466250F900F900F900F900F900F90C6
:10233000CE01DF91CF91089583E090E09093CD009E
:102340008093CC0010927B0210927A021092790254
:102350001092780288E98093C90080E090E00895A7
:10236000289A239A80E090E00895809162059091E8
:102370006305809590952091640530916505820FE5
:10238000931F8F7399279A01841795070CF49C016A
:102390002115310509F1FB01CF01861B970B82172F
:1023A0009307C4F44191A0916605B09167058091AF
:1023B000620590916305A80FB91F4C938091620547
:1023C0009091630501968F7399279093630580938D
:1023D0006205E2CFC901089585EF9FEF08958CB59E
:1023E0008F778CBD8CB58F7B8CBD60E470E0809165
:1023F0005C0590915D050E94382B60E470E080914F
:102400006605909167050C94382B1F93CF93DF934B
:10241000CB011FB7F894E0915A05F0915B0520E4D9
:1024200030E02E1B3F0BC0915805D0915905C20FCB
:10243000D31FCF73DD274C175D070CF4EA012C176F
:102440003D070CF4E901209721F41FBF85EF9FEFB2
:102450002DC060915C0570915D056E0F7F1FAE0110
:102460000E94182780915A0590915B058C0F9D1F43
:102470008F73992790935B0580935A0510925F059F
:1024800010925E052091580530915905281B390B93
:102490002F733327232B41F047E050E066E976E0C5
:1024A0008EE192E00E943B061FBFCE01DF91CF91EB
:1024B0001F91089580E48CBD8CB580688CBD80E44C
:1024C00090E00E940A2C90935D0580935C0580E467
:1024D00090E00E940A2C909367058093660580E047
:1024E00090E0089540E050E062E070E08BE891E019
:1024F0000E946606909341058093400540E050E0BD
:1025000061E070E08BE891E00E94660690936907B5
:102510008093680780E090E0089584E691E69F93B9
:102520008F930E9466250F900F900895AF92BF92EF
:10253000CF92DF92EF92FF920F931F93CF93DF938F
:10254000C0E0D0E00DE511E687E5E82E81E6F82E43
:1025500095E5C92E91E6D92E5E0187E0A822BB241D
:10256000A114B10451F4DF93CF931F930F930E94F2
:1025700066250F900F900F900F9089911F928F9367
:10258000FF92EF920E9466250F900F900F900F9090
:1025900087E0A816B10431F4DF92CF920E9466253D
:1025A0000F900F90C11581E0D807B1F683E591E651
:1025B0009F938F930E9466250F900F9080E090E08C
:1025C000DF91CF911F910F91FF90EF90DF90CF900F
:1025D000BF90AF900895E1E6F0E080E8808310823C
:1025E0000E94B0260E946D280E94B02780E090E0F3
:1025F00008950895CF93DF93DC011496ED91FC913B
:102600001597E60FF71F80819181A281B381EA01BE
:1026100088839983AA83BB83232B59F08481958176
:10262000A681B7818C839D83AE83BF8388E090E0D1
:1026300002C084E090E0DF91CF910895CF93DF93C3
:10264000DC011696ED91FC911797EA01888199813A
:10265000AA81BB81E60FF71F80839183A283B38396
:10266000232B59F08C819D81AE81BF81848395831A
:10267000A683B78388E090E002C084E090E0DF9119
:10268000CF910895FA01DC0114962D913C91159794
:10269000260F371F48E050E0B901CF010E941827EC
:1026A00088E090E00895FA01DC0114968D919C91E8
:1026B0001597232B41F4DC01A60FB71F8C91808363
:1026C00081E090E00895680F791F48E050E0CF0165
:1026D0000E94182788E090E00895FA01DC01149622
:1026E0008D919C911597232B51F4DC01A60FB71FF8
:1026F0008D919C919183808382E090E00895680F92
:10270000791F48E050E0CF010E94182788E090E050
:102710000895FA01DC0114962D913C911597260F2E
:10272000371F48E050E0B901CF010E94182788E028
:1027300090E00895FB01BA01DC0116968D919C9101
:102740001797232B41F4DA012C91E80FF91F20830E
:1027500081E090E0089548E050E08E0F9F1F0E94B6
:10276000182788E090E00895FB01BA01DC01169675
:102770008D919C911797232B51F4DA012D913C9167
:10278000E80FF91F3183208382E090E0089548E04C
:1027900050E08E0F9F1F0E94182788E090E0089558
:1027A0009B01BA01FC018681978148E050E0820FCD
:1027B000931F0E94182788E090E00895CF93DF933D
:1027C000FC01C481D581FE01E60FF71F859195912B
:1027D000A591B491FA0180839183A283B383232BC3
:1027E00081F0FB013496EC0FFD1F85919591A59129
:1027F000B491FA0184839583A683B78388E090E03F
:1028000002C084E090E0DF91CF910895CF93DF93F1
:10281000DA01EC01EC81FD81232B39F4E60FF71F7F
:10282000E491EC9381E090E009C06E0F7F1F48E0D7
:1028300050E0CD010E947F2E88E090E0DF91CF91A3
:102840000895CF93DF93DA01EC01EC81FD81232B16
:1028500049F4E60FF71F859194918D939C9382E044
:1028600090E009C06E0F7F1F48E050E0CD010E944C
:102870007F2E88E090E0DF91CF910895DC011496DF
:10288000ED91FC911597668177811696ED91FC91FB
:10289000179740E150E0828193810E948A0797FF59
:1028A00008C08BE791E69F938F930E9466250F9057
:1028B0000F900895CF93DF93EC01009789F1AC015D
:1028C00061E070E087E991E00E946606009721F4DC
:1028D000809168079091690799838883892B19F4FF
:1028E00085EA91E617C0AE0162E070E087E991E009
:1028F0000E9466069B838A83892B31F48091400570
:10290000909141059B838A838A819B81892B59F40D
:1029100080E991E69F938F930E9466250F900F9018
:102920008FEF9FEF02C080E090E0DF91CF9108959C
:102930008F929F92AF92BF92CF92DF92EF92FF92CF
:102940000F931F93CF93DF93CDB7DEB7A4970FB646
:10295000F894DEBF0FBECDBFDC011696ED90FC9063
:1029600017978091A2029091A302892B39F481E0FC
:1029700090E09093A3028093A20219C0F70184898A
:102980009589892BA1F080916A0790916B07A0919E
:102990006C07B0916D0720919E0230919F02245FD9
:1029A0003F4F281B390B37FF02C0158A148A8091CC
:1029B0006A0790916B07A0916C07B0916D078093A7
:1029C0009E0290939F02A093A002B093A102D70110
:1029D0000D911C916701B4E0CB0ED11CF701648905
:1029E000758940E150E0461B570B6C0D7D1DC801F9
:1029F0000E94340718161906CCF0892B99F4C801E7
:102A00000E940A07A70161E070E087E991E00E9457
:102A10006606009721F48091680790916907D701B5
:102A20008D939C93F701158A148A43C1D70154965C
:102A30002D913C915597280F391F55963C932E9315
:102A400054972031310508F434C155961C921E92DA
:102A5000549716966C911697862F8E71823009F0D6
:102A600028C115968C9182958F7061706295607FF8
:102A7000682BB8E06B9FB00111246A567949E6E6ED
:102A80006E3B7E0708F047C048E050E0CE014B9611
:102A90000E947F2ED70117968C9186FD0AC18F71F7
:102AA0008695AA24A394B12C02C0AA0CBB1C8A95BB
:102AB000E2F7812C912C00E010E08B8D9C8D0817A3
:102AC00019070CF03DC06D8D7E8D680D791D4AE0B3
:102AD00050E0CE0141960E947F2EEB89FC89459102
:102AE000549129893A89F70184816581962F9F70D5
:102AF0008217930750F08A0D9B1D019721503109D1
:102B0000240F351F281739079CF50F5F1F4FFAE078
:102B10008F0E911CD2CFD70112968D919C91139755
:102B20000DEE1FEF2FEF3FEFF70100871187228790
:102B3000338727812062278340E150E0B60115C02A
:102B4000E9A1FAA1D70112968D919C91139746E1C4
:102B500050E060E070E0448355836683778323818F
:102B60002062238340E150E0BF010E948A07A1C098
:102B7000F7012781207830E0698D7A8D6115710524
:102B8000E1F040E150E0CE0101962BA33CA30E946E
:102B90007F2ED7011796EC912BA13CA1E0FD7CC0C4
:102BA000EE7181E090E08C0F9D1F8E0F911DFC0156
:102BB00000811181A12CB12C04C0A12CB12C00E00A
:102BC00010E049A15AA180E1F7013496DA010190A1
:102BD0000D928A95E1F7DA0113968C911397806430
:102BE00013968C930115110579F04C5F5F4FF70137
:102BF00064818581782F7F7089899A89681B790B18
:102C0000CE014196F80115C0A114B104A1F0A601AE
:102C10004C5F5F4FD70114966C91149715968C9169
:102C2000782F7F7089899A89681B790BCE0141962C
:102C3000F501099502C08FEF9FEFD70112962D91F4
:102C40003C91139797FF16C0E9A1FAA14427552795
:102C5000481B590B662757FD6095762F4483558393
:102C60006683778383818062838340E150E0BF0184
:102C7000C9017BCF69A17AA140E150E0C9010E945E
:102C80008A0797FF16C08BE791E69F938F930E9468
:102C900066250F900F900DC0F0E03197EE71FF2781
:102CA00081E090E08C0F9D1FE80FF91FA084B18494
:102CB00086CFA4960FB6F894DEBF0FBECDBFDF91CE
:102CC000CF911F910F91FF90EF90DF90CF90BF9029
:102CD000AF909F908F900895CF93DF93E82F492F67
:102CE000EB0168E070E00E949F2E2E2F342F37FFFB
:102CF00002C0295F3F4F93E0359527959A95E1F7FC
:102D00002F5F3F4FF901EE0FFF1FE20FF31F92A15C
:102D100021E030E0082E01C0220F0A94EAF7CD2B03
:102D200011F0922B02C02095922392A3DF91CF91B4
:102D300008959C0197FF02C0295F3F4F53E03595EE
:102D400027955A95E1F72F5F3F4FF901EE0FFF1FCF
:102D5000E20FF31F40A168E070E00E949F2E21E087
:102D600030E001C0220F8A95EAF7422381E090E02B
:102D700011F480E090E008952FB7F894FC0197FDDE
:102D80007F96A5E0F595E795AA95E1F7EE0FFF1F71
:102D9000EE0FFF1FE60FF71F60E270E00E949F2E0C
:102DA00041E050E060E070E004C0440F551F661F32
:102DB000771F8A95D2F780819181A281B381842B7C
:102DC000952BA62BB72B80839183A283B3832FBF30
:102DD00008959C014FB7F894FC0197FD7F9685E01C
:102DE000F595E7958A95E1F7EE0FFF1FEE0FFF1FB0
:102DF000E60FF71F80819181A281B3814FBF2F71B0
:102E0000332704C0B695A795979587952A95D2F74D
:102E10008170992708958FEF9FEF08958FEF9FEFAF
:102E200008958FEF9FEF08958FEF9FEF08958FEF35
:102E30009FEF08958FEF9FEF08952F923F924F924B
:102E40005F926F927F928F929F92AF92BF92CF923A
:102E5000DF92EF92FF920F931F93CF93DF9300D0F7
:102E600000D000D0CDB7DEB77A836983890123E033
:102E7000880F991F2A95E1F7452B11F4980102C09C
:102E800028E030E07C011E821D82ED81FE81E21788
:102E9000F3070CF098C06D807E8077FE03C087E05A
:102EA000680E711CB3E075946794BA95E1F7E981F7
:102EB000FA816E0E7F1E08301105A9F4F3014081DE
:102EC000C701F7FC0796F3E095958795FA95E1F72A
:102ED0000196FC01EE0FFF1FE80FF91FC701877075
:102EE0009927892B69F1CD80DE80D7FE03C0FFE0F2
:102EF000CF0ED11C74E0D594C7947A95E1F7CC0C31
:102F0000DD1C89819A81C80ED91EAD80BE80B7FEB6
:102F100003C09FE1A90EB11C45E0B594A7944A9562
:102F2000E1F7AA0CBB1CAA0CBB1CE981FA81AE0E0E
:102F3000BF1E212C312C21012394812C912C2CC0DB
:102F400042A338C00031110559F10032110561F179
:102F500008301105D1F5F301808190E0A0E0B0E0E8
:102F600082219321A421B52161E070E0892B8A2B75
:102F70008B2B11F460E070E0C4018E0D9F1D2B833C
:102F80003C830E946C16FFEF8F1A9F0A220C331CA1
:102F9000441C551C3C812B81801691069CF20AC072
:102FA000F60180819181DACFF50180819181A28142
:102FB000B381D6CF8D819E81800F911F9E838D839B
:102FC000E00EF11E62CFC90102C08AEE9FEF269685
:102FD0000FB6F894DEBF0FBECDBFDF91CF911F912A
:102FE0000F91FF90EF90DF90CF90BF90AF909F90A8
:102FF0008F907F906F905F904F903F902F900895AB
:10300000CB01BA01A90128E030E00C941D17CB01D7
:10301000BA01A90120E130E00C941D17CB01BA01DF
:10302000A90120E230E00C941D17CB01BA01A901DF
:1030300028E030E00C941D17CB01BA01A90128E06B
:1030400030E00C941D172F923F924F925F926F9237
:103050007F928F929F92AF92BF92CF92DF92EF9228
:10306000FF920F931F93CF93DF93CDB7DEB72897CF
:103070000FB6F894DEBF0FBECDBF4B018901F3E060
:10308000880F991FFA95E1F7452B11F4190103C038
:10309000E8E02E2E312C7C0118861F827AED472E17
:1030A00055245A94652C752C2AED3FEFEF81F88555
:1030B000E215F3050CF09CC0CF80D884D7FE03C086
:1030C00087E0C80ED11C63E0D594C7946A95E1F7F8
:1030D000C80CD91C00311105F1F000321105F1F0D6
:1030E0000830110501F5C70187709927892B81F4F4
:1030F000C701F7FC079643E0959587954A95E1F758
:103100000196FC01EE0FFF1FE80FF91F80A101C01F
:103110008AEEF6018083F60131832083F601408236
:1031200051826282738240E050E0BA01A12CB12C3E
:10313000A016B1062CF5C5018E0D9F1D2D833E8373
:1031400049835A836B837C830E949916AA2797FD33
:10315000A095BA2F0A2C04C0880F991FAA1FBB1F65
:103160000A94D2F749815A816B817C81482B592B73
:103170006A2B7B2BFFEFAF1ABF0A3E812D81D8CF80
:103180000031110549F000321105B1F00830110588
:1031900089F5F601408323C0EF81F885F7FD3F965E
:1031A00084E0F595E7958A95E1F7EE0FFF1FE80DAE
:1031B000F91D5183408313C0EF81F885F7FD7F9699
:1031C000A5E0F595E795AA95E1F7EE0FFF1FEE0F45
:1031D000FF1FE80DF91D40835183628373838F8144
:1031E0009885800F911F98878F83E00EF11E5ECF28
:1031F000C10102C08AEE9FEF28960FB6F894DEBF99
:103200000FBECDBFDF91CF911F910F91FF90EF9037
:10321000DF90CF90BF90AF909F908F907F906F90F6
:103220005F904F903F902F900895CB01BA01A90174
:1032300028E030E00C942318CB01BA01A90120E169
:1032400030E00C942318CB01BA01A90120E230E050
:103250000C9423188F929F92AF92BF92CF92DF92DD
:10326000EF92FF920F931F93CF93DF93CDB7DEB70B
:1032700028970FB6F894DEBF0FBECDBF7C016B015F
:103280008A0159014115510511F4490103C0B8E201
:103290008B2E912C9501A801BE016F5F7F4FC70156
:1032A0000E94231897FD20C0F40197FC3796CF01A8
:1032B000A3E095958795AA95E1F7FE013196D60191
:1032C0009D012C193D09281739072CF43D912081C7
:1032D000232B2193F5CF9801A501BE016F5F7F4F8E
:1032E000C7010E941D1702C08FEF9FEF28960FB6EF
:1032F000F894DEBF0FBECDBFDF91CF911F910F912C
:10330000FF90EF90DF90CF90BF90AF909F908F9005
:103310000895CB01BA01A90120E130E00C942A19EB
:10332000CB01BA01A90120E230E00C942A198F9256
:103330009F92AF92BF92CF92DF92EF92FF920F9344
:103340001F93CF93DF93CDB7DEB728970FB6F894CE
:10335000DEBF0FBECDBF7C016B018A015901411553
:10336000510511F4490103C038E2832E912C9501D7
:10337000A801BE016F5F7F4FC7010E94231897FD10
:1033800020C0F40197FC3796CF0123E095958795EF
:103390002A95E1F7FE013196D6019D012C193D09D0
:1033A000281739072CF43D912081232B2193F5CF49
:1033B0009801A501BE016F5F7F4FC7010E941D17D5
:1033C00002C08FEF9FEF28960FB6F894DEBF0FBEB6
:1033D000CDBFDF91CF911F910F91FF90EF90DF90C4
:1033E000CF90BF90AF909F908F900895CB01BA017E
:1033F000A90120E130E00C949719CB01BA01A90191
:1034000020E230E00C9497198F929F92AF92BF9276
:10341000CF92DF92EF92FF920F931F93CF93DF93A0
:10342000CDB7DEB728970FB6F894DEBF0FBECDBF7D
:1034300020E030E0AE014F5F5F4F60E070E080E081
:1034400090E00E94231920E030E0AE014B5F5F4F17
:1034500064E070E080E090E00E94231909811A8105
:103460002B813C81CD80DE80EF80F8848091CE027C
:103470009091CF02A091D002B091D1028C219D21D8
:10348000AE21BF21EAEEF2E0448155816681778169
:10349000842B952BA62BB72B4091CA025091CB02BF
:1034A0006091CC027091CD0240235123622373239B
:1034B00080809180A280B380482959296A297B297C
:1034C00000951095209530958090C2029090C3028F
:1034D000A090C402B090C502082119212A213B21E5
:1034E000402B512B622B732B408351836283738358
:1034F000B701A60140955095609570950091C60260
:103500001091C7022091C8023091C9024023512373
:1035100062237323842B952BA62BB72B848395834F
:10352000A683B78328960FB6F894DEBF0FBECDBF33
:10353000DF91CF911F910F91FF90EF90DF90CF908F
:10354000BF90AF909F908F900895CF92DF92EF92AF
:10355000FF920F931F93CF93DF93CDB7DEB72897DA
:103560000FB6F894DEBF0FBECDBF6A01CB01865106
:103570009D4F7C01232B19F404E010E002C001E010
:1035800010E048E050E06AEE72E0CE0101960E9441
:103590001827D601F70180818D931192CF018E19E2
:1035A0009F0980179107BCF30E94041A89819A81B0
:1035B000AB81BC81892B8A2B8B2B49F48D819E8119
:1035C000AF81B885892B8A2B8B2B09F441C0809160
:1035D000EA029091EB02A091EC02B091ED02892BEE
:1035E0008A2B8B2BA9F54091EE025091EF0260914E
:1035F000F0027091F102452B462B472B49F586E9E5
:1036000096E68659964643E0959587954A95E1F763
:103610009093BF028093BE021092C1021092C0022A
:1036200047E050E06EEB72E086EB96E00E94BF2828
:10363000892B71F080E091E09F938F9385E092E673
:103640009F938F930E9466250F900F900F900F907D
:10365000C80128960FB6F894DEBF0FBECDBFDF912C
:10366000CF911F910F91FF90EF90DF90CF90089531
:10367000DC011496ED91FC9115978091CA0290910E
:10368000CB02A091CC02B091CD0280959095A095EF
:10369000B095408151816281738184239523A62353
:1036A000B7234091C2025091C3026091C40270914D
:1036B000C502409550956095709584239523A62367
:1036C000B7234091EA025091EB026091EC027091B5
:1036D000ED02842B952BA62BB72B8093EA029093B7
:1036E000EB02A093EC02B093ED02108211821282E1
:1036F00013828091CE029091CF02A091D002B0911E
:10370000D10280959095A095B095448155816681B0
:10371000778184239523A623B7234091C602509135
:10372000C7026091C8027091C9024095509560959A
:10373000709584239523A623B7234091EE025091E0
:10374000EF026091F0027091F102842B952BA62B71
:10375000B72B8093EE029093EF02A093F002B09308
:10376000F10214821582168217820E94041A86E9D9
:1037700096E68659964653E0959587955A95E1F7D2
:103780009093BB028093BA028091EA029091EB027F
:10379000A091EC02B091ED02892B8A2B8B2B89F43E
:1037A00031E020E08091EE029091EF02A091F002D2
:1037B000B091F102892B8A2B8B2B09F430E0C901DF
:1037C00002C091E080E09093BC028093BD0247E08C
:1037D00050E06AEB72E086EB96E00C94BF28AF9263
:1037E000BF92CF92DF92EF92FF920F931F93CF93EE
:1037F000DF936A01232B21F4F4E0EF2EF12C03C0B8
:10380000EE24E394F12CEB0186015801F80180814C
:1038100081FF05C062EE72E0CE010E94BC16F80185
:10382000808180FF05C06AED72E0CE010E94BC1667
:10383000F801808182FF05C06AEC72E0CE010E942F
:10384000BC16F801808183FF05C062EC72E0CE01F6
:103850000E94BC16F801808187FF05C062ED72E00E
:10386000CE010E94BC160F5F1F4FF501608170E012
:10387000CE010E94E50A97FD08C02196C8018C1967
:103880009D098E159F050CF2C701DF91CF911F9105
:103890000F91FF90EF90DF90CF90BF90AF90089581
:1038A000AF92BF92CF92DF92EF92FF920F931F934E
:1038B000CF93DF936A01232B21F4B4E0EB2EF12C9C
:1038C00003C0EE24E394F12CE6015B01AC18BD08C3
:1038D00018828E010A0D1B1D62EE72E0C8010E9463
:1038E000E916892B19F08881826088836AED72E07D
:1038F000C8010E94E916892B19F0888181608883AC
:103900006AEC72E0C8010E94E916892B19F08881DF
:103910008460888362EC72E0C8010E94E916892BFA
:1039200019F088818860888362ED72E0C8010E9486
:10393000E916892B19F08881806888832196CE0149
:103940008C199D098E159F051CF2C701DF91CF913F
:103950001F910F91FF90EF90DF90CF90BF90AF90AD
:103960000895AF92BF92CF92DF92EF92FF920F93A2
:103970001F93CF93DF93EB01452B61F4A90137FF30
:1039800002C0495F5F4F8A0163E0159507956A950C
:10399000E1F702C001E010E0FE016C01CC1ADD0A83
:1039A00058E0A52EB12CCF018C1B9D0B80179107E1
:1039B0002CF596012E0F3F1FD90137FD179683E096
:1039C000B595A7958A95E1F71196CD01880F991FB6
:1039D0008A0F9B1FDC019196EC90F12CC901B50177
:1039E0000E949F2E02C0F594E7948A95E2F7E0FECC
:1039F00002C082E001C081E08193D5CFC801DF9190
:103A0000CF911F910F91FF90EF90DF90CF90BF90DB
:103A1000AF900895CB01BA01A90128E030E00C94E1
:103A2000B11CCB01BA01A90120E130E00C94B11C1A
:103A3000CB01BA01A90120E230E00C94B11C2F9215
:103A40003F924F925F926F927F928F929F92AF922E
:103A5000BF92CF92DF92EF92FF920F931F93CF937B
:103A6000DF934C01452B61F4790137FF03C027E058
:103A7000E20EF11CD3E0F594E794DA95E1F703C088
:103A8000C8E0EC2EF12C8B01C12CD12CA8E04A2EE1
:103A9000512CAA24A394B12CCE14DF040CF040C006
:103AA000F80131908F01832D83708330A9F1E601F5
:103AB000C80DD91DCE010E9499169C01CE01B201FC
:103AC0000E949F2E282EAE01D7FF02C0495F5F4F94
:103AD000E3E055954795EA95E1F74F5F5F4F3A016F
:103AE000660C771C640E751EB901CE010E946C161F
:103AF000F30181A1950102C0220F331F2A94E2F73E
:103B000031FE02C0822B03C019012094822181A3BF
:103B10003FEFC31AD30AC0CF7AEEE72EFF24FA9400
:103B2000C701DF91CF911F910F91FF90EF90DF9030
:103B3000CF90BF90AF909F908F907F906F905F904D
:103B40004F903F902F900895CB01BA01A90128E032
:103B500030E00C941F1DCB01BA01A90120E130E037
:103B60000C941F1DCB01BA01A90120E230E00C9496
:103B70001F1D80917A00992787FD9095A92FB92F55
:103B80008827B7FD83959927AA27BB27FA01808349
:103B90009183A283B38380E090E00895FA0180814D
:103BA0009181A281B381892B8A2B8B2B31F00E94CA
:103BB0002B0B80917A00806803C080917A008F7708
:103BC00080937A0080E090E00895CF92DF92EF92A8
:103BD000FF920F931F93CF93DF93CDB7DEB72A9752
:103BE0000FB6F894DEBF0FBECDBF6B018A017B011B
:103BF00036E0F694E7943A95E1F726E02E9DB00181
:103C00002F9D700D11246551714A46E050E0CE01A0
:103C100001960E947F2EB6016F737727643071057D
:103C2000E1F118F4672B49F057C068307105D1F104
:103C30006C30710509F440C04FC081E48F838AE085
:103C4000E816F10438F0C7016AE070E00E948B2E9C
:103C5000605D02C060E36E0D6887EAE0EE16F10475
:103C600038F0C7016AE070E00E948B2E805D01C0D1
:103C700080E089871A8644E050E0BE01695F7F4F8B
:103C8000C8010E941827F801808193819083838363
:103C900081819281918382831CC0898190E0A0E020
:103CA000B0E004C08B819C81AD81BE81F80180832E
:103CB0009183A283B3830DC080917A0087FF0FC0E8
:103CC000CE0101960E943E0BF801608371838283CE
:103CD000938380E090E005C08AEE9FEF02C083EFFF
:103CE0009FEF2A960FB6F894DEBF0FBECDBFDF91CF
:103CF000CF911F910F91FF90EF90DF90CF9008959B
:103D0000CF92DF92EF92FF920F931F93CF93DF93A7
:103D1000CDB7DEB7AD970FB6F894DEBF0FBECDBFFF
:103D20006B017A018B0186E0169507958A95E1F77C
:103D30002DE2209FB001219F700D11246D5E704A0D
:103D40004DE250E0CE0101960E947F2E1A83098336
:103D5000B6016F7377276830710509F445C038F4F0
:103D60006115710589F06430710501F178C0603129
:103D7000710509F464C06431710509F46DC06C30DB
:103D8000710509F06CC036C044E050E0BE016D5FC3
:103D90007F4FC7010E941827F7018081938190838C
:103DA0008383818192819183828353C00F8118859F
:103DB00029853A853327F7010083118322833383D2
:103DC0008AA19BA1892B29F0316000831183228372
:103DD00033838CA19DA1892BE1F1F7018081918131
:103DE000A281B381B26026C08B859C85AD85BE85DE
:103DF000F70120C0C8010E949B0C41E050E060E048
:103E000070E0892B19F440E050E0BA01F7014083DB
:103E1000518362837383EEA1FFA13097D1F0CE016D
:103E200001960995892BA9F0F70180819181A281E2
:103E3000B381826080839183A283B3830AC0EE8DB5
:103E4000FF8DCE0101960995F7016083718382830E
:103E5000938380E090E005C0E8A1F9A1F2CF8AEE5B
:103E60009FEFAD960FB6F894DEBF0FBECDBFDF91CA
:103E7000CF911F910F91FF90EF90DF90CF90089519
:103E8000CF92DF92EF92FF920F931F93CF93DF9326
:103E9000CDB7DEB7AD970FB6F894DEBF0FBECDBF7E
:103EA0007B018A016B0126E0D694C7942A95E1F73D
:103EB0002DE22C9DB0012D9D700D11246D5E704A78
:103EC0004DE250E0CE0101960E947F2EDA82C98237
:103ED000B7016F7377276031710569F1643171053E
:103EE00091F16C307105D1F5D8018C9180FF07C03C
:103EF000EA8DFB8DCE01019609957C0107C0EC8D02
:103F0000FD8DCE0101960995E12CF12CE8A5F9A5CE
:103F1000309739F1D8014D915D916D917C917695F5
:103F20006795579547954170552766277727CE01A6
:103F30000196099516C0F801408151816281738113
:103F4000EAA1FBA107C0D8014D915D916D917C91D3
:103F5000ECA1FDA1CE010196099504C08AEE9FEF68
:103F600001C0C701AD960FB6F894DEBF0FBECDBF3E
:103F7000DF91CF911F910F91FF90EF90DF90CF9045
:103F80000895232BA9F4CB0183709927892B99F4E9
:103F9000FB01EC7FE551FE4F80819181A281B381CD
:103FA000FA0180839183A283B38384E090E0089533
:103FB0008FEF9FEF08958AEE9FEF08950F931F9361
:103FC000DC011496ED91FC911597808191818032EE
:103FD000910508F06FC00091FB011091FC01209148
:103FE000FD013091FE0141E050E002C0440F551F39
:103FF0008A95E2F7CA0180959095AA2797FDA0952A
:10400000BA2F80239123A223B3238093FB019093A3
:10401000FC01A093FD01B093FE0162817381672BC7
:1040200081F0662757FD6095762F482B592B6A2B18
:104030007B2B4093FB015093FC016093FD01709337
:10404000FE014091FB015091FC016091FD017091D6
:10405000FE01041715072607370761F18091EF016C
:104060009091F001A091F101B091F20180959095AD
:10407000A095B09584239523A623B7234091EB0107
:104080005091EC016091ED017091EE01841795075C
:10409000A607B70779F08093EB019093EC01A0930A
:1040A000ED01B093EE01892B8A2B8B2B11F0769AC0
:1040B00001C076981F910F91089576986E9A80E0CE
:1040C00090E008950F931F93CF93DF93FB01232B71
:1040D00009F080C06830710541F06C30710509F459
:1040E00041C06430710509F075C00091EB01109179
:1040F000EC012091ED013091EE01EA018881998176
:10410000AA81BB814091EF015091F0016091F101D2
:104110007091F201349729F4842B952BA62BB72BA1
:1041200008C080959095A095B09584239523A623EB
:10413000B7238093EF019093F001A093F101B09326
:10414000F20180959095A095B0954091FB0150911A
:10415000FC016091FD017091FE0184239523A6234B
:10416000B72321C00091EB011091EC012091ED01EA
:104170003091EE01FA0180819181A281B381809515
:104180009095A095B09580239123A223B3234091CD
:10419000FB015091FC016091FD017091FE01842BA7
:1041A000952BA62BB72B80179107A207B30779F0A1
:1041B0000097A105B10511F0769A01C07698809319
:1041C000EB019093EC01A093ED01B093EE0184E03C
:1041D00090E002C08FEF9FEFDF91CF911F910F9181
:1041E000089586EB96E68659964623E09595879541
:1041F0002A95E1F7909317038093160381E090E0EE
:10420000909319038093180347E050E066E173E050
:1042100086EB96E00E94BF28892B41F087E094E668
:104220009F938F930E9466250F900F9008952F9271
:104230003F924F925F926F927F928F929F92AF9236
:10424000BF92CF92DF92EF92FF920F931F93CF9383
:10425000DF934C016B015A01232B21F078E0E72E0C
:10426000F12C03C064E0E62EF12C06EB16E60659AD
:10427000164633E0159507953A95E1F7C0E0D0E092
:1042800040E8442E512C612C712C50EF252E53E622
:10429000352EFE01EC7FEA0DFB1DD4018D919C9122
:1042A0008C0D9D1D8C0F9D1F8032910509F47DC0E2
:1042B000B8F48031910509F470C030F4883091056C
:1042C00091F10C97A9F191C08831910509F465C06D
:1042D0008C31910509F466C0449709F086C05DC031
:1042E0008C32910509F466C080F48432910509F49A
:1042F0006BC0889709F079C08091200390912103C9
:10430000AA2797FDA095BA2F65C08433910509F4BB
:1043100054C08833910509F454C0C09709F065C0B2
:104320008091AB034CC080911E0390911F0350C03D
:104330008091260390E0A0E0B0E080839183A28387
:10434000B383892B8A2B8B2B09F448C0109313035A
:1043500000931203109215031092140347E050E0EB
:1043600062E173E086EB96E00E94BF28892B31F072
:104370003F922F920E9466250F900F908091AC0380
:10438000843061F1893051F147E050E061E070E044
:104390008AEB96E00E94BF2821C01082118212820F
:1043A00013821CC0809127030AC04082518262821E
:1043B000738214C08091AA0302C08091A80390E088
:1043C00007C08091A903FBCF809122039091230322
:1043D000A0E0B0E080839183A283B3832496CE15BE
:1043E000DF0508F456CFC70102C08FEF9FEFDF91C2
:1043F000CF911F910F91FF90EF90DF90CF90BF90E2
:10440000AF909F908F907F906F905F904F903F9074
:104410002F900895519A892B19F0599A519808951F
:1044200059980895589A50980895509A892B11F0E8
:104430000C94122258980895509A0E94122280914A
:104440006A0790916B07A0916C07B0916D0720915E
:104450001C0330911D03280F391F489910C080910B
:104460006A0790916B07A0916C07B0916D07A90145
:10447000481B590B57FFF1CF82E99FEF089580E069
:1044800090E00895CF93C82F80E090E00E940A2228
:104490000E941C2281E090E00E940A22C093260321
:1044A000C13011F08BE001C080E08093AC03CF916C
:1044B0000C94F120EF92FF920F931F93CF93DF9311
:1044C000C7E0D0E0E82EF12CC7010C2E02C0959574
:1044D00087950A94E2F7817099270E940A220E9428
:1044E0001C2297FF03C082E99FEF1BC080E090E091
:1044F0000E941522219740F781E090E00E940A2255
:104500000E941C2297FDEFCFC9B180E090E00E948D
:104510001522C1FB002700F910E088279927801B8E
:10452000910BDF91CF911F910F91FF90EF90089524
:104530008F929F92AF92BF92CF92DF92EF92FF92B3
:104540000F931F93CF93DF937C016B015A01232BB1
:1045500019F008E010E002C004E010E0C0E0D0E094
:10456000E3E09E2EF8E08F2EFE01EC7FEA0DFB1DAE
:1045700040815181F701208131812C0D3D1D2C0F8F
:104580003D1F2C31310509F441C0B8F4203131050B
:1045900009F45EC050F42830310509F060C0CA014A
:1045A00090931F0380931E0353C02431310509F4F7
:1045B0004FC028313105B1F052C02832310549F1E0
:1045C00050F42432310509F04AC0CA019093230304
:1045D000809322033DC02C32310509F12833310587
:1045E00039F13DC040FF34C08091260381FD3AC0BF
:1045F00082608093260347E050E060E070E08AEB41
:1046000096E00E94BF2897FF23C02EC04093270347
:104610001FC0CA01909321038093200319C04093C7
:10462000AA038091AC03843099F49092AC0308C043
:104630004093A9038091AC03893051F48092AC037C
:1046400047E050E060E070E08AEB96E00E94BF280F
:104650002496C017D10708F487CFC80105C08FEF93
:104660009FEF02C080EF9FEFDF91CF911F910F91DD
:10467000FF90EF90DF90CF90BF90AF909F908F9082
:1046800008957F928F929F92AF92BF92CF92DF92C6
:10469000EF92FF920F931F93CF93DF93FC018481DE
:1046A00095819927009749F08130910509F083C1E0
:1046B000109226031092AC038AC1CAEFD0E001E049
:1046C00010E088E0D82E9AE0B92E27E0A22E36E03E
:1046D000932E43E0842E55E0C52ED0931D03C09346
:1046E0001C0310931B0300931A038091AC0390E00A
:1046F0008B30910508F06BC1FC01E45EF04D0C9429
:10470000D52E80E090E00E940A2280E090E00E9496
:10471000152281E016C08091200390912103892BFE
:1047200039F081E02091220330912303232B09F0FB
:1047300080E090911E03892B0E945A2297FD1FC092
:1047400082E08093AC03C9CF809122039091230330
:10475000892B81F110922503109224038092AC03DF
:10476000BCCFE091AB03F0E0E65EFC4F86850E9493
:104770005A227091AA0397FF04C07093AB0380E89C
:104780000BC120912403309125032F5F3F4F3093BD
:104790002503209324036091AB036F5F6F776093D1
:1047A000AB0340912203509123032417350729F4CA
:1047B0007093AB03C092AC0390CF872F90E0861B21
:1047C00091098F7799278430910519F40E94F1207F
:1047D00002C0892B11F083E001C084E08093AC0318
:1047E00031E020E0843009F0D0C0CEC080912003B9
:1047F00090912103892B09F4CEC0809122039091DE
:104800002303892B19F4D092AC0310C081E090E00F
:104810000E940A220E941C2280E090E00E940A224C
:1048200080E090E00E9415229092AC031092250344
:104830001092240352CF80911E0381600E945A225D
:1048400097FD9DCFA092AC0348CF81E090E02091EE
:104850002003309121032F3F3F4F11F080E090E083
:104860009195819591099093250380932403D0928B
:10487000AC0333CF81E090E00E940A22B8E0EB2E37
:10488000F12C712C0E941C2297FD10C0770C499BC3
:1048900003C0272D2160722E80E090E00E94152237
:1048A00041E0E41AF108E114F10461F78091A803F2
:1048B00090E0FC01E65EFC4F768640912403509127
:1048C00025034F3F5F4FB9F4272D30E04091A903F6
:1048D00080959095840F911D8F7799278217930764
:1048E00010F481E859C010922503109224033093EC
:1048F00021032093200380912403909125030196A6
:104900009093250380932403EE24E394F12C2091CB
:104910002003309121038217930711F0E12CF12C31
:10492000E114F10421F480E090E00E940A220E9448
:104930001C2297FD04C080E090E00E941522809127
:10494000A8038F5F8F778093A803EF2819F0B092A8
:10495000AC03C3CE2091A90390E080959095820F7F
:10496000911D8F7799278C31910519F40E94F120C0
:1049700002C0892B11F088E001C089E08093AC036C
:1049800031E020E0893009F430E0832F922F892B29
:1049900009F0A3CE1CC081E0DF91CF911F910F9150
:1049A000FF90EF90DF90CF90BF90AF909F908F904F
:1049B0007F900C9442229F938F938DE194E69F9376
:1049C0008F930E9466250F900F900F900F90DF91AC
:1049D000CF911F910F91FF90EF90DF90CF90BF90FC
:1049E000AF909F908F907F90089500005353004B9D
:1049F000435349534F4D4F53494D00003844000035
:104A000039440030314400313144003043500031EA
:104A1000435000324350003343500034435000357C
:104A2000435000003544003331440000334400005B
:104A30003244314458523144585400003444444CB8
:104A400058540032314400003644003045500031A3
:104A500045504257482300334550003445500035F7
:104A600045504B4853480037455000003541000041
:104A700034410032465000334650000033410000BC
:104A800032410000314100003041CF93DF93AB0150
:104A9000BC018DEA93E00E947425EC018DEA93E05D
:104AA0000E94A127CE01DF91CF910895CF93DF938C
:104AB000CDB7DEB7AE01475F5F4F6F8178858D81DF
:104AC0009E810E947425DF91CF910895CF93DF934B
:104AD000CDB7DEB7FE01359681919191BF010E945D
:104AE0004525DF91CF9108952F923F924F925F928B
:104AF0006F927F928F929F92AF92BF92CF92DF92EE
:104B0000EF92FF920F931F93CF93DF93CDB7DEB752
:104B100064970FB6F894DEBF0FBECDBF3C017C8B0F
:104B20006B8BDA019C01AE014F5F5F4F7A01E0E1D0
:104B30002E2E312CEB89FC898491882309F4ECC05A
:104B4000853209F05FC0AA24A394B12C60E2462EFE
:104B5000512C7AE0C72ED12CEB89FC893196FC8B45
:104B6000EB8B8491843609F45DC0A8F48A3229F174
:104B700038F4882309F4D0C0853209F443C021C039
:104B8000883509F44CC0833631F18033D1F440E3E9
:104B9000442E512CE1CF803709F441C038F48E36D1
:104BA00009F4B4C0A0F58936E9F10BC08537D1F11D
:104BB0008837A9F18337B1F004C0CD90DC9011970C
:104BC00012969FEC980F993038F6A82EB12CF0E38E
:104BD000AF1AB108C1CF8C91F90180832F5F3F4F8D
:104BE000129694C0FD01408151811296C9019C0129
:104BF000FA016191AF01662309F488C0FC01619359
:104C0000CF01F5CFF90180832F5F3F4F7FC0FAE0DE
:104C1000CF16D10439F488E0C82ED12C03C090E11E
:104C2000C92ED12CAD014E5F5F4F5A8B498B8D91B0
:104C30009C9197FF0AC05AE0C516D10431F49195B2
:104C40008195910901E010E002C000E010E0FE0152
:104C500071964F01A4014E195F09009791F08E14CF
:104C60009F0461F0B6010E948B2EDC01AA5EBE4F4C
:104C70008C91F40182934F01CB01ECCF40E050E0E6
:104C800007C04031510521F4F0E3F88B4FE050E0CC
:104C90000115110581F080E24816510451F441508C
:104CA0005109D701A40FB51F9DE29C9300E010E0CD
:104CB00002C001E010E0C1018A199B09800F911F19
:104CC000841795073CF441505109D701A40FB51F33
:104CD0004C92F6CF012B39F041505109D701A40F66
:104CE000B51FEDE2EC93C101841B950BD901B7010F
:104CF000640F751FFB0160816D934F5F5F4F403103
:104D00005105A9F7280F391FA989BA89EB89FC89B0
:104D10003196FC8BEB8B0ECFF9011082C9018619FD
:104D2000970964960FB6F894DEBF0FBECDBFDF9132
:104D3000CF911F910F91FF90EF90DF90CF90BF9098
:104D4000AF909F908F907F906F905F904F903F902B
:104D50002F90089582E189BD09B400FEFDCF08952A
:104D600084E085BD8AEF87BD81E080936E00089561
:104D700080EA8093D800089580E98093D800089550
:104D800081E88093D7000895FC01DB012D91BD01DE
:104D900021932111FACF08959C01F9012F5F3F4F14
:104DA00040814111FACF9F01281B390BC901089599
:104DB0009C01680F791FF9012617370729F49F0115
:104DC000281B390BC90108952F5F3F4F40814111C6
:104DD000F2CFF5CFFB01DC012D91CD0131912317ED
:104DE00029F0231740F48FEF9FEF08952111F3CF9F
:104DF00080E090E0089581E090E00895FB01480F85
:104E0000591F8417950789F0DC012D91CD0131914F
:104E1000231729F0231730F48FEF9FEF0895211106
:104E2000F0CF03C081E090E0089580E090E0089525
:104E3000CF93DF939C01262B372B20FD1BC0FB015A
:104E4000DC019A012230310538F0C191D191CD9326
:104E5000DD9322503109F6CF9A0136952795F90155
:104E6000EE0FFF1F4E1B5F0BDC01AE0FBF1F6E0F5F
:104E70007F1F01C0DC01FB01460F571FE417F50738
:104E800019F021912D93FACFDF91CF910895CF9210
:104E9000DF92EF92FF920F931F9380FD23C06B016F
:104EA000DD24EE24D7FCE094FE2C3E2D2D2D1C2D70
:104EB00000270C291D292E293F29DC01FA01E230A7
:104EC000F10520F00D931D933297F9CFFA01F69575
:104ED000E7959F01220F331F421B530BF901E80F87
:104EE000F91F01C0FC014E0F5F1FE417F50711F019
:104EF0006193FBCF1F910F91FF90EF90DF90CF90C8
:104F000008950895CF93DF9300D0CDB7DEB79A838D
:104F100089830A9721F48DE090E00E948227809196
:104F2000400590914105009739F041E050E0BE0105
:104F30006F5F7F4F0E948A070F900F90DF91CF9194
:104F40000895CF93DF93EC018991882321F090E0BD
:104F50000E948227F9CF80E090E0DF91CF91089501
:104F6000CF93DF93C0EDD1E081E0CE3DD80720F4B0
:104F7000E991F9910995F8CFC0EDD1E081E0C03D0C
:104F8000D80720F4E991F9910995F8CF80E090E0F5
:104F9000DF91CF9108950F931F9340916A0750912D
:104FA0006B0760916C0770916D074F5F5F4F6F4F9C
:104FB0007F4F00916A0710916B0720916C07309129
:104FC0006D07041715072607370799F79C01121676
:104FD00013061CF421503109FACF80916A07909191
:104FE0006B07A0916C07B0916D07841B950BA60B06
:104FF000B70B1F910F910895EF92FF920F931F939C
:10500000CF93DF93C0E0D2E000E012E0CE010E9437
:10501000CB27892B29F4C00FD11F000F111FF6CF0A
:10502000D595C79515950795159507950115110502
:1050300089F07E01E00EF11EC7010E94CB27892B6B
:1050400009F07E0117FF02C00F5F1F4F15950795EE
:10505000E701ECCFD0931204C093110480E090E0FC
:10506000DF91CF911F910F91FF90EF900895CF9313
:10507000DF93FC01C0911104D091120420E137E2CA
:10508000C29FC001C39F900DD29F900D112460EA72
:105090007FE00E949F2EE13187E2F80750F09B01EC
:1050A000121613061CF421503109FACFE051F742D1
:1050B000F2CFEC9FC001ED9F900DFC9F900D11244D
:1050C00060EA7FE00E948B2E6115710519F0615036
:1050D0007109FACFDF91CF9108950F931F93CF936A
:1050E000DF93C6E8D6E086E0CA3CD807D8F544E0AE
:1050F00050E0BE0183E394E00E947F2E00913304D0
:1051000010913404809135049091360408171907E2
:1051100039F148E050E0B8018BE294E00E947F2E24
:1051200060912D0470912E0446E050E085E294E0F9
:105130000E947F2E85E294E090932E0480932D04AC
:10514000D0932C04C0932B04E0912504F091260405
:10515000309719F08BE294E00995085F1F4FD2CF8A
:105160002496C1CF80E490E0909338058093370572
:1051700080E090E0DF91CF911F910F910895CF9340
:10518000CFB7F894E0913B05F0913C05409137058D
:1051900050913805415051099F0120953095A091BB
:1051A0003905B0913A052A0F3B1F24233523232BC1
:1051B00021F4CFBF84EF9FEF16C09F012F5F3F4FB9
:1051C0002423352330933C0520933B05CFBFEE0FBE
:1051D000FF1FEE0FFF1FE95CFB4F73836283918318
:1051E000808380E090E0CF91089520913705309141
:1051F00038052150310980913B0590913C05409143
:10520000390550913A05841B950B82239323089509
:10521000CF92DF92EF92FF920F931F93CF93DF9382
:105220000E94F5286C01E12CF12CEC14FD040CF02B
:105230005CC0C0913905D0913A05CC0FDD1FCC0F71
:10524000DD1FC95CDB4F6881798144E050E081E279
:1052500094E00E947F2E00912104109122048091FD
:105260002304909124040817190749F148E050E0FD
:10527000B80189E194E00E947F2E60911B04709137
:105280001C0446E050E083E194E00E947F2E83E11D
:1052900094E090931C0480931B048A819B819093DB
:1052A0001E0480931D04E0911504F09116043097BC
:1052B00019F089E194E00995085F1F4FD0CF209144
:1052C0003705309138052150310940913905509109
:1052D0003A054F5F5F4F2423352330933A052093DF
:1052E00039058FEFE81AF80AA0CFDF91CF911F910F
:1052F0000F91FF90EF90DF90CF9008954F925F92C3
:105300006F927F92AF92BF92CF92DF92EF92FF9215
:105310000F931F93CF93DF93CDB7DEB762970FB68E
:10532000F894DEBF0FBECDBF8C015B017C01EE0C9B
:10533000FF1CF701EC5EFA49C590D490B7016C529E
:105340007B4942E050E0CE0141960E947F2E2989A0
:105350003A89DE01119680E090E08C159D056CF491
:10536000F90145915591659174914D935D936D93BC
:105370007D9301962C5F3F4FF0CF28E030E0201B5B
:10538000310B81E090E002C0880F991F2A95E2F767
:10539000E0E0F1E0E81BF90BF7FD7F9615E0F595ED
:1053A000E7951A95E1F7EE0FFF1FEE0FFF1FE25989
:1053B000F84FDE01119680E090E08C159D050CF011
:1053C0006AC041905190619071904D915D916D9145
:1053D0007D914421552166217721411551056105B3
:1053E000710509F456C0F701EC53FB49259134913E
:1053F000DB01CA01AA27BB27892B8A2B8B2B31F40F
:10540000AB016627772781E190E002C081E090E060
:10541000411105C0452F562F672F772708966A013F
:105420007B01EFE0CE22DD24EE24FF24CD28CE2820
:10543000CF2841F4F4E07695679557954795FA950E
:10544000D1F704966A017B01F3E0CF22DD24EE243C
:10545000FF24CD28CE28CF2841F4E2E07695679549
:1054600057954795EA95D1F7029640FF0196019727
:10547000821B930B02C0880F991F0A95E2F7F50172
:1054800091838083880F991F880F991F88599A4F9D
:1054900004C0019692CF80E090E062960FB6F89437
:1054A000DEBF0FBECDBFDF91CF911F910F91FF9057
:1054B000EF90DF90CF90BF90AF907F906F905F9014
:1054C0004F900895CF9328E030E0261B370B41E042
:1054D00050E002C0440F551F2A95E2F720E031E06A
:1054E000241B350B02C0959587956A95E2F7280F26
:1054F000391FCFB7F894F90137FD7F9645E0F59550
:10550000E7954A95E1F7EE0FFF1FEE0FFF1FE259F7
:10551000F84FC90160E270E00E949F2E41E050E028
:1055200060E070E004C0440F551F661F771F8A9526
:10553000D2F780819181A281B381842B952BA62BF8
:10554000B72B80839183A283B383CFBFCF9108957C
:10555000CF9328E030E0261B370B41E050E002C03B
:10556000440F551F2A95E2F720E031E0241B350B4C
:1055700002C0959587956A95E2F7280F391FCFB736
:10558000F894F90137FD7F9665E0F595E7956A9502
:10559000E1F7EE0FFF1FEE0FFF1FE259F84FC901B1
:1055A00060E270E00E949F2E41E050E060E070E019
:1055B00004C0440F551F661F771F8A95D2F7409588
:1055C00050956095709580819181A281B3818423EB
:1055D0009523A623B72380839183A283B383CFBF70
:1055E000CF910895CF92DF92EF92FF920F931F9386
:1055F000CF93DF9300D0CDB7DEB76C018B01BE0136
:105600006F5F7F4FC8010E947E29892B31F1B8015D
:1056100089819A810E94A82A780181E0E81AF1081C
:10562000B70189819A810E94622A21E030E00E2C24
:1056300002C0220F331F0A94E2F789819A81B701D1
:10564000822793270E94622A0C191D090230110536
:1056500024F0B701C6010E94F22A0F900F90DF914B
:10566000CF911F910F91FF90EF90DF90CF90089511
:105670006F927F928F929F92AF92BF92CF92DF9262
:10568000EF92FF920F931F93CF93DF93885695402D
:10569000C0E0D0E027E030E040E052E0F901EC1B50
:1056A000FD0BDA0102C0B595A795EA95E2F7A617BA
:1056B000B70734F42196C830D10581F7CFEFDFEF7B
:1056C0008115B2E09B0718F081EA94E60DC09E01B7
:1056D00021503109AC0102C0559547952A95E2F752
:1056E00040FF09C08CE794E69F938F930E94662544
:1056F0000F900F906FC08C01159507951595079524
:10570000BE01C8010E94622A68E0E62EF12CEC1A64
:10571000FD0A88248394912CA12CBB24B394C73018
:10572000D10509F457C0C4010C2E02C0880F991F7F
:105730000A94E2F76C01C026D12694010E2C02C017
:10574000220F331F0A94E2F7D501A21BB30B9D0170
:10575000A6010C2E02C0559547950A94E2F7240F36
:10576000351FAFB7F894F90137FD7F96B5E0F59591
:10577000E795BA95E1F7EE0FFF1FEE0FFF1FE25915
:10578000F84F4081518162817381AFBFE1E0EE1A31
:10579000F1082F71332704C0769567955795479583
:1057A0002A95D2F741705527452BA1F03C01609412
:1057B000709460227122BE01C8010E94A82ABE0115
:1057C000C6010E94A82A2196BE01C3010E94622A36
:1057D0008301A5CFDF91CF911F910F91FF90EF90A3
:1057E000DF90CF90BF90AF909F908F907F906F9001
:1057F00008952FB7F894EEE6F7E0848D958DA68D89
:10580000B78DB064848F958FA68FB78F2FBF80E040
:1058100090E00895CF92DF92EF92FF920F931F9343
:10582000CF93DF9300D0CDB7DEB700E010E027E0E4
:1058300030E040E052E0B901601B710BFA0102C098
:10584000F595E7956A95E2F7E817F9073CF40F5FDD
:105850001F4F0830110579F70FEF1FEF80913D05BD
:10586000811105C00E94F92B81E080933D050F3F17
:10587000FFEF1F0711F078010EC080E090E01AC022
:10588000E7E0EE16F104C9F38FEFE81AF80AB70162
:10589000C8010E94F22ABE016F5F7F4FC8010E94BB
:1058A0007E296C01009761F3B80189819A810E9479
:1058B000A82AC6010F900F90DF91CF911F910F91F1
:1058C000FF90EF90DF90CF9008958FE196E69F9341
:1058D0008F930E9466250F900F9008958BE096E6B7
:1058E0009F938F930E9466250F900F9008958EEEE0
:1058F00096E09F938F930E9466250F900F9080E013
:1059000090E0089584EF95E69F938F930E9466251B
:105910000F900F90089580EC95E69F938F930E94CF
:1059200066258FE895E69F938F930E9466258FE208
:1059300095E69F938F930E9466250F900F900F908E
:105940000F900F900F9080E090E0089584E295E62C
:105950009F938F930E9466250F900F9008950F9349
:105960001F93CF93DF93FC010681178180E290E0C3
:105970000E940A2CEC01F801918380830097E1F0EA
:105980008AE796E69F938F930E9466258E010E5FAD
:105990001F4F4EE150E060E070E0C8010E944727D1
:1059A000198308838FE696E69F938F930E9466255E
:1059B0000F900F900F900F90DF91CF911F910F914B
:1059C0000895CF93DF93EC012EE436E63F932F93B7
:1059D0000E94662560E270E0CE010E94382B0F9095
:1059E0000F9047E050E060E070E082EC96E0DF91DD
:1059F000CF910C94BF2880914405909145050E9459
:105A0000E12C80E090E008952F923F924F925F92B8
:105A10006F927F928F929F92AF92BF92CF92DF92BE
:105A2000EF92FF920F931F93CF93DF93CDB7DEB723
:105A300060970FB6F894DEBF0FBECDBFDC0116969F
:105A4000ED91FC911797E080F180E114F10409F4E5
:105A5000F2C05701B2E0AB0EB11CF7016081718159
:105A6000A501461B570B425E5F4F809168079091DE
:105A700069070E9434076C0197FDDDC000E010E06B
:105A80000C151D05E1F0D701ED91FC91E00FF11F20
:105A90008081843021F4C7010E94E12CCCC090E0C9
:105AA0000E948227D701ED91FC91E00FF11F8081C8
:105AB0008D3011F4108205C00F5F1F4FE1CFE0E081
:105AC000F0E0D7012D913C9111972C0D3D1D2D93A8
:105AD0003C93EF2B79F42A193B092E31310508F458
