:100000000C941B010C9443010C9443010C94430188
:100010000C9443010C9443010C9443010C94430150
:100020000C9443010C9443010C9414040C949B0411
:100030000C9443010C9443010C9443010C94430130
:100040000C9443010C9443010C9443010C94430120
:100050000C9443010C9443010C9443010C94870AC3
:100060000C9443010C94AD080C94F4080C944301D7
:100070000C9443010C9443010C9443010C944301F0
:100080000C9443010C9443010C9443010C944301E0
:100090000C9443010C9443010C9443010C944301D0
:1000A0000C9443010C9443010C9443010403090490
:1000B0004C696E696E6F204F6E6500446F6768759E
:1000C0006E746572001201000200000040032A01F4
:1000D0008000010102000112010002020000400341
:1000E0002A018000010102000100C18081C1080BCA
:1000F00000020202010009040000010202000005E2
:10010000240010010524010101042402060524062F
:1001100000010705810310004009040100020A00E4
:1001200000000705020240000007058302400000AE
:1001300005010902A1010901A100850105091901B3
:1001400029031500250195037501810295017505A7
:10015000810305010930093109381581257F7508AA
:1001600095038106C0C005010906A10185020507A6
:1001700019E029E71500250175019508810295010F
:100180007508810395067508150025650507190092
:1001900029658100C0090402000103000000092153
:1001A00001010001226500070584034000010000F1
:1001B0000000000000002A2B2800000000000000C2
:1001C00000000000000000000000000000002C9E65
:1001D000B4A0A1A2A434A6A7A5AE362D3738271EF9
:1001E0001F20212223242526B333B62EB7B89F849F
:1001F00085868788898A8B8C8D8E8F909192939437
:1002000095969798999A9B9C9D2F3130A3AD350474
:1002100005060708090A0B0C0D0E0F101112131416
:1002200015161718191A1B1C1DAFB1B0B5005003D5
:100230009D06A307310A11241FBECFEFDAE0DEBF0F
:10024000CDBF11E0A0E0B1E0E0E7F7E102C005902A
:100250000D92AC3BB107D9F712E0ACEBB1E001C0B5
:100260001D92AC3CB107E1F712E0C6E3D2E004C056
:100270002297FE010E94B20BCE32D107C9F70E942D
:10028000E5010C94B60B0C94000086EC91E060E064
:1002900072EC0E94620640917D0150917E01609156
:1002A0007F017091800181E292E00E94240908950B
:1002B0001F9386EC91E00E946306892B09F474C0B9
:1002C00086EC91E00E947F06182F8091BC01882364
:1002D00079F41E3721F481E08093BC0165C0612F61
:1002E000772767FD709581E292E00E94F5095CC076
:1002F000103369F481E292E040E051EE60E070E09A
:100300000E94240986EC91E060E071E00EC0113398
:1003100079F481E292E040E052EC61E070E00E940A
:10032000240986EC91E063E171E00E944F063AC037
:10033000123369F481E292E040E950ED63E070E04D
:100340000E94240986EC91E067E271E0EECF13335E
:1003500069F481E292E040E251EA67E070E00E94D5
:10036000240986EC91E06BE371E0DFCF1E3769F47E
:1003700081E292E06FE471E04BE050E00E94E90519
:1003800086EC91E06BE571E0D0CF81E292E06EE720
:100390000E94F509612F772767FD709581E292E051
:1003A0000E94F5091092BC0181E292E00E94AB0923
:1003B000892B49F081E292E00E94C709682F86EC00
:1003C00091E00E94B4061F910895CF93DF930E949D
:1003D000CF0A85EC91E00E9451030E944501C4EED2
:1003E000D8E00E9458012097E1F30E94E408F9CF79
:1003F000282F8091BF018823C1F057FF1AC015C074
:1004000028989093BE018091F1008193E217F30741
:10041000B9F74115510539F08091F200882319F49C
:100420008BE68093E800AFBF02C04FEF5FEFCA01D9
:100430000895AFB7F89427702093E9008091F200F7
:10044000282F30E0241735070CF4A901FB019B018C
:10045000240F311D94E6DACFDF93CF930F92CDB7FF
:10046000DEB7BE016F5F7F4F41E050E00E94F801B0
:10047000019719F02FEF3FEF03C08981282F30E05B
:10048000C9010F90CF91DF910895FF920F931F93B1
:10049000F82E142F052F4091C2015091C301212F36
:1004A000302FC901DC01FB016EEF29C0F7FE02C04D
:1004B000949101C090812091C0013091C101241715
:1004C0003507ACF48091E8008570E1F38091E80095
:1004D00082FF03C02FEF3FEF17C09093F100C901D7
:1004E00001968F739070892B11F46093E8002F5F51
:1004F0003F4F3093C1012093C0011197319610975F
:10050000A9F6812F902F9C01C9011F910F91FF9097
:1005100008951F93782FE92F162F2091C001309155
:10052000C101A091C201B091C3012A173B07C4F4D5
:100530008091E8008570E1F38091E80082FD16C0AB
:10054000812F90E00196880F991F8093F100C901D7
:1005500001968F739070892B19F48EEF8093E800C9
:100560002F5F3F4F3093C1012093C0012091C00104
:100570003091C1012A173B07A4F48091E8008570EF
:10058000E1F38091E80082FD12C083E08093F100E6
:10059000C90101968F739070892B19F48EEF8093A7
:1005A000E8002F5F3F4F3093C1012093C00140917D
:1005B000C0015091C101872F9E2FFC0170E06EEFAA
:1005C00043C094914A175B07A4F48091E8008570BA
:1005D000E1F38091E80082FF02C020E00DC090931B
:1005E000F100CA0101968F739070892B11F460930A
:1005F000E8004F5F5F4F21E04A175B07A4F480914A
:10060000E8008570E1F38091E80082FF02C080E09D
:100610000DC01092F100CA0101968F739070892B62
:1006200011F46093E8004F5F5F4F81E0319690E0F6
:1006300030E082239323892B31F45093C1014093FE
:10064000C00180E009C07F5F711708F4BACF5093F2
:10065000C1014093C00181E01F9108959C018091E8
:10066000E80082FFFCCFF901260F311D03C0809105
:10067000F1008193E217F307D1F7289884E680937D
:10068000BE018BEF8093E800CB0108958093E900D1
:100690008091F200882319F08AE38093E80008959E
:1006A00008951092BF0181E08093D70080EA809383
:1006B000D80082E189BD09B400FEFDCF61E070E0A1
:1006C00080E090E00E94250B80E98093D8008CE0C8
:1006D0008093E2001092E000559A209A08955F926C
:1006E0006F927F928F929F92AF92BF92CF92DF9242
:1006F000EF92FF920F931F93CF93DF93E82E842EF8
:10070000752E8091BF01882371F18B01242F352F25
:10071000C901EC01AAEFFA2EF7E09F2E9E20E0E43B
:100720005E2E8E2D90E070E2A72EB12CA822B92269
:100730006AE3662E50E4C52ED12CC822D92258C0B7
:100740009FB7F8949092E9008091E80085FD02C07F
:1007500020E004C08091F200252D281B9FBF22239A
:1007600061F4FA9419F42FEF3FEF4DC061E070E0AF
:1007700080E090E00E94250B3BC0822F90E0C817DC
:10078000D9070CF42C2FC21BD1094FB7F8949092C3
:10079000E900A114B10421F406C01092F100215027
:1007A0002223D9F719C0E7FC03C0F801922F10C02B
:1007B000C801322F06C0FC010196E491E093F100DC
:1007C00031503323C1F706C081918093F1009150DD
:1007D0009923D1F7020F111D8091E80085FF05C014
:1007E000209729F4C114D10411F06092E8004FBFA2
:1007F000209709F0A5CF5D9884E68093BD01282D50
:10080000372DC9019C01C901DF91CF911F910F9133
:10081000FF90EF90DF90CF90BF90AF909F908F9020
:100820007F906F905F9008951F920F920FB60F9276
:1008300011242F933F934F935F936F937F938F93E5
:100840009F93AF93BF93EF93FF938091E10010923A
:10085000E100982F83FF0FC01092E90081E08093A0
:10086000EB001092EC0082E38093ED001092BF0148
:1008700088E08093F00092FF34C083E08093E90029
:100880008091F200882319F08AE38093E8008FB703
:10089000F89492E09093E9009091F2008FBF992331
:1008A00021F086EC91E00E94E0068091BD01882352
:1008B00051F08091BD0181508093BD018091BD01B7
:1008C000882309F45D9A8091BE01882351F08091BC
:1008D000BE0181508093BE018091BE01882309F43E
:1008E000289AFF91EF91BF91AF919F918F917F9146
:1008F0006F915F914F913F912F910F900FBE0F908D
:100900001F9018950F931F93DF93CF930F92CDB73E
:10091000DEB719828E010F5F1F4FC8010E940707C3
:10092000C8010E94A008898190E00F90CF91DF91CB
:100930001F910F9108951F920F920FB60F921124DD
:10094000EF92FF921F932F933F934F935F936F9379
:100950007F938F939F93AF93BF93EF93FF93DF9317
:10096000CF93CDB7DEB76197DEBFCDBF1092E90060
:100970008091E80083FF14C1FE0131969E01275F3C
:100980003F4F03C08091F1008193E217F307D1F745
:10099000289884E68093BE0182EF8093E8009981D5
:1009A00097FF05C08091E80080FFFCCF03C08EEF69
:1009B0008093E800292F30E0C90180769070892B60
:1009C00009F0C7C08A81882329F41092F10010929F
:1009D000F100DBC0813009F4D8C0833009F4D5C000
:1009E000853049F48091E80080FFFCCF8B818068DE
:1009F0008093E300CAC0863009F081C01C81EF807B
:100A0000F8841230C1F51092E9001092C1011092E1
:100A1000C0011092C3011092C2010E94820499E0A9
:100A2000FE013996DF01292F1D922A95E9F7998752
:100A30001A8791E09E8790E8988B9AEF998B209186
:100A4000C0013091C101275F3F4F3C872B878D87C5
:100A50001092E9001092C1011092C001F092C301FE
:100A6000E092C20180E0BF0149E050E00E944502EF
:100A70000E9482048AC01092E9001092C101109273
:100A8000C001F092C301E092C201123241F482E24D
:100A900090E00E949808892B09F47BC076C0113041
:100AA00079F488E0E816F10419F481E08093C40138
:100AB0008091C401882309F070C0E5ECF0E018C013
:100AC000133009F066C08B81882319F4ECEAF0E05A
:100AD0000FC0823021F480EB90E06AE006C08130E4
:100AE00009F057C08BEB90E069E00E9489024BC08F
:100AF000449180E8BF0150E00E94450246C0873023
:100B000009F447C0883021F481E08093F1003DC0B2
:100B10008930D9F523703070232BD9F5EAEEF0E057
:100B200091E031E026E39093E9003093EB0084916B
:100B30008093EC002093ED009F5F3196953099F7FC
:100B40008EE78093EA001092EA008B818093BF01C8
:100B50001CC08F8198851092E9001092C1011092FB
:100B6000C0019093C3018093C2018D81882329F431
:100B7000CE0101960E94130706C0823051F4CE01C7
:100B800001960E946907882321F08EEF8093E80088
:100B900007C081E28093EB0003C0E7EDF0E0A8CF4F
:100BA0006196DEBFCDBFCF91DF91FF91EF91BF91F5
:100BB000AF919F918F917F916F915F914F913F91F5
:100BC0002F911F91FF90EF900F900FBE0F901F90ED
:100BD0001895CF92DF92EF92FF920F931F93CF93CE
:100BE000DF937C016B018A01C0E0D0E00FC0D60129
:100BF0006D916D01D701ED91FC910190F081E02D97
:100C0000C7010995C80FD91F0150104001151105E2
:100C100071F7CE01DF91CF911F910F91FF90EF906F
:100C2000DF90CF900895EF92FF920F931F938C0166
:100C3000DC01ED91FC910190F081E02D6DE00995D2
:100C40007C01D801ED91FC910190F081E02DC8016B
:100C50006AE009959C012E0D3F1DC9011F910F915E
:100C6000FF90EF900895CF93DF93EC01611571052C
:100C700019F420E030E00FC0DB010D900020E9F70F
:100C80001197A61BB70BE881F9810280F381E02D53
:100C9000AD0109959C01C901DF91CF910895EF92B3
:100CA000FF920F931F937C010E9433068C01C701B2
:100CB0000E941306080F191FC8011F910F91FF9082
:100CC000EF9008950895FC012485858530E0205C2F
:100CD0003F4F281B31092F733070C9010895FC0163
:100CE00094858585981719F42FEF3FEF06C0858509
:100CF000E80FF11D8685282F30E0C9010895DC0139
:100D00001C969C911C971D968C911D97981719F411
:100D10002FEF3FEF10C01D968C911D97FD01E80F3E
:100D2000F11D96851D968C911D978F5F8F731D9673
:100D30008C93292F30E0C90108951092C9011092B7
:100D4000C80188EE93E0A0E0B0E08093CA019093E0
:100D5000CB01A093CC01B093CD018FE891E09093AB
:100D6000C7018093C60108950F931F93DF93CF931C
:100D70000F92CDB7DEB78C016983809188018823FB
:100D800069F083E0BE016F5F7F4F41E050E00E9459
:100D90006F031816190614F49C0107C081E090E057
:100DA000F8019383828320E030E0C9010F90CF9156
:100DB000DF911F910F91089583E00E9446030895EB
:100DC0000F931F93CF93DF938C01FC010FC082E040
:100DD0000E942C029C01FFEF8F3F9F0799F0F801C2
:100DE0008485E80FF11D2687F801C4878485C82F04
:100DF000D0E02196CF73D070F801858590E0C817B8
:100E0000D90729F7DF91CF911F910F910895FC0128
:100E100080818E5F808380E86EEE70E042E450E077
:100E20000E9445020895FC0181819081913A59F414
:100E3000813209F04CC080E061E871E047E050E0A9
:100E40000E94450242C0913209F041C0803239F41B
:100E500081E891E067E070E00E942E0336C08232A4
:100E600009F035C082818093880180918101909141
:100E70008201A0918301B0918401805B9440A040E5
:100E8000B04019F58091880180FD12C087E797E78F
:100E900090930108809300082BE088E190E00FB662
:100EA000F894A895809360000FBE209360000DC059
:100EB00088E10FB6F89480936000109260000FBE36
:100EC000A895109201081092000881E0089580E032
:100ED0000895FC0191818081813A31F4913089F04B
:100EE00080E0933089F40DC0813269F49B3021F4A5
:100EF00082818093890105C09A3029F48281809390
:100F00008A0181E0089580E00895EF92FF920F93A7
:100F10001F938C01E62EDC01ED91FC910480F5819C
:100F2000E02D0995F82ED801ED91FC910680F7810E
:100F3000E02DC8016E2D09958F2D90E01F910F9126
:100F4000FF90EF90089510921402109218021092E0
:100F5000170281EA91E0909316028093150208959A
:100F6000EF92FF920F931F93DF93CF930F92CDB722
:100F7000DEB789838B017A0184E0BE016F5F7F4F0A
:100F800041E050E00E946F0384E4B801A7010E9491
:100F90006F030F90CF91DF911F910F91FF90EF9012
:100FA000089582E048E050E00E94B0070895FC01F7
:100FB0001682178210861186128613861482349642
:100FC000BF010E94D1070895DC01683810F068580D
:100FD00029C0E62FF0E067FF13C0E058F04081E041
:100FE00090E002C0880F991FEA95E2F78095149669
:100FF0002C911497282314962C93149760E012C018
:10100000E255FE4F6491662319F420E030E01DC0E4
:1010100067FF08C014968C9114978D7F14968C935B
:1010200014976F77FD0190E0662321F08681861783
:1010300009F416829F5F31969630B1F7CD01149670
:10104000BD010E94D10721E030E0C9010895CF938E
:10105000DF93DC01683810F0685825C0E62FF0E017
:1010600067FF12C0E058F04081E090E002C0880FB6
:10107000991FEA95E2F714962C911497282B149651
:101080002C93149760E00FC0E255FE4F64916623E5
:10109000D9F167FF08C014968C911497826014965A
:1010A0008C9314976F7716968C9116978617A9F1E3
:1010B00017968C911797861781F118968C9118972F
:1010C000861759F119968C911997861731F11A964E
:1010D0008C911A97861709F11B968C911B9786178E
:1010E000E1F0ED01E0E0F0E09E2F8E81882321F415
:1010F000EA0FFB1F668306C09F5F31962196E6309C
:10110000F10591F7963049F481E090E013969C93B5
:101110008E93129720E030E007C0CD011496BD01F8
:101120000E94D10721E030E0C901DF91CF910895FD
:1011300080E860E371E045E650E00E9445020895D2
:10114000FC0180818F5F808380E865E971E049E17F
:1011500050E00E944502089508951F920F920FB625
:101160000F9211242F933F934F938F939F93EF935D
:10117000FF938091C80082FD19C04091CE008091FC
:101180003F02282F30E02F5F3F4F2F733070809148
:10119000400290E02817390759F0E0913F02F0E053
:1011A000EF5DFD4F42A320933F0202C08091CE002D
:1011B000FF91EF919F918F914F913F912F910F90C0
:1011C0000FBE0F901F90189580913F022091400212
:1011D00090E0805C9F4F821B91098F739070892BE8
:1011E00011F00E94AC0808951F920F920FB60F9253
:1011F00011242F938F939F93EF93FF93909141022C
:1012000080914202981731F48091C9008F7D8093BC
:10121000C90010C0E0914202F0E0ED57FD4F20817F
:101220008091420290E001968F7390708093420209
:101230002093CE00FF91EF919F918F912F910F906E
:101240000FBE0F901F901895AF92BF92DF92EF9252
:10125000FF920F931F93CF93DF93EC017A018B01E1
:10126000DD24403081EE580780E0680780E0780791
:1012700011F0DD24D39491E0A92EB12CE889F989ED
:10128000DD2069F0C5010C8C02C0880F991F0A94FB
:10129000E2F7808360E079E08DE390E005C01082A2
:1012A00060E874E88EE190E0A80197010E948E0B3F
:1012B00021503040404050405695479537952795EE
:1012C00080E12030380720F0DD2011F0DD24D6CF7A
:1012D000EC85FD853083EE85FF8520831D8EEA89B0
:1012E000FB89408121E030E0C901088C02C0880FF1
:1012F000991F0A94E2F7482B4083EA89FB894081D1
:10130000C901098C02C0880F991F0A94E2F7482B83
:101310004083EA89FB894081C9010A8C02C0880F99
:10132000991F0A94E2F7482B4083EA89FB89808160
:101330000B8C02C0220F331F0A94E2F7209528235A
:101340002083DF91CF911F910F91FF90EF90DF905D
:10135000BF90AF900895FC01268D878D30E0205C12
:101360003F4F281B31092F733070C9010895FC01CC
:10137000968D878D981719F42FEF3FEF06C0878D54
:10138000E80FF11D82A1282F30E0C9010895DC018A
:101390005E969C915E975F968C915F97981719F473
:1013A0002FEF3FEF10C05F968C915F97FD01E80F24
:1013B000F11D92A15F968C915F978F5F8F735F96FF
:1013C0008C93292F30E0C9010895DC015D968C9142
:1013D0005D97882339F05096ED91FC91519780816B
:1013E00086FFF9CF5D961C920895DC0190968C9152
:1013F0009097282F30E02F5F3F4F2F7330709196DA
:101400008C91919790E028173907C9F390968C91A9
:101410009097FD01E80FF11DEE59FF4F6083909604
:101420002C9390975296ED91FC915397208181E0F7
:1014300090E05B960C905B9702C0880F991F0A940E
:10144000E2F7282B208381E05D968C935D97509680
:10145000ED91FC91519780818064808381E090E0E0
:101460000895109224021092230288EE93E0A0E0E7
:10147000B0E08093250290932602A0932702B093B8
:1014800028028FEA91E09093220280932102109229
:101490004202809142028093410210924002809168
:1014A000400280933F028DEC90E090932E02809357
:1014B0002D028CEC90E09093300280932F0288EC08
:1014C00090E0909332028093310289EC90E0909307
:1014D0003402809333028AEC90E09093360280933A
:1014E00035028EEC90E0909338028093370284E0CE
:1014F0008093390283E080933A0287E080933B0235
:1015000085E080933C0281E080933D0208951F9224
:101510000F920FB60F9211242F933F938F939F93A7
:10152000AF93BF938091C7029091C802A091C90266
:10153000B091CA023091CB020196A11DB11D232F9B
:101540002D5F2D3720F02D570196A11DB11D209341
:10155000CB028093C7029093C802A093C902B093B4
:10156000CA028091C3029091C402A091C502B091B9
:10157000C6020196A11DB11D8093C3029093C402BF
:10158000A093C502B093C602BF91AF919F918F9176
:101590003F912F910F900FBE0F901F901895789448
:1015A00084B5826084BD84B5816084BD85B5826068
:1015B00085BD85B5816085BDEEE6F0E08081816006
:1015C0008083E1E8F0E01082808182608083808106
:1015D00081608083E0E8F0E0808181608083E1E9E0
:1015E000F0E0808182608083808181608083E0E997
:1015F000F0E0808181608083E1ECF0E080818460B4
:101600008083808182608083808181608083E3EC3D
:10161000F0E0808181608083E0ECF0E08081826096
:101620008083E2ECF0E0808181608083EAE7F0E093
:1016300080818460808380818260808380818160FA
:1016400080838081806880830895EF92FF920F935A
:101650001F93CF93DF937B018C013FB7F894809168
:10166000C3029091C402A091C502B091C60226B5F2
:10167000A89B05C02F3F19F00196A11DB11D3FBFCA
:10168000BA2FA92F982F8827820F911DA11DB11D58
:1016900052E0880F991FAA1FBB1F5A95D1F7EC0182
:1016A00030C00E948D0B3FB7F8948091C302909197
:1016B000C402A091C502B091C60226B5A89B05C080
:1016C0002F3F19F00196A11DB11D3FBFBA2FA92FC1
:1016D000982F8827820F911DA11DB11D32E0880F20
:1016E000991FAA1FBB1F3A95D1F78C1B9D0B885ED3
:1016F0009340B8F20894E108F10801091109C851B2
:10170000DC4FE114F1040105110559F6DF91CF9189
:101710001F910F91FF90EF9008950895A1E21A2E66
:10172000AA1BBB1BFD010DC0AA1FBB1FEE1FFF1F85
:10173000A217B307E407F50720F0A21BB30BE40BD5
:10174000F50B661F771F881F991F1A9469F760951C
:101750007095809590959B01AC01BD01CF010895D6
:10176000EE0FFF1F0590F491E02D0994F894FFCF40
:1017700053706565642073657420746F2035373647
:1017800030300053706565642073657420746F2079
:1017900031313532303000537065656420736574C3
:1017A00020746F20323530303030005370656564FE
:1017B0002073657420746F2035303030303000FF76
:1017C00000000558585858580DAF0053656E6469AD
:1017D0006E67206272696467652773207368757429
:1017E000646F776E20636F6D6D616E640000C2017F
:1017F0000000E1000000000000010100000000B452
:1018000006E90563067F066F06DC06E006000000B9
:10181000008507E9052708E407D70700000000F561
:0C18200009E905AB09C709B709E5090093
:1070000055C000006EC000006CC000006AC00000E7
:1070100068C0000066C0000064C0000062C00000DC
:1070200060C000005EC00000FCC400005AC0000048
:1070300058C0000056C0000054C0000052C00000FC
:1070400050C000005DC000004CC000004AC00000FD
:1070500048C0000046C0000044C0000042C000001C
:1070600040C000003EC000003CC000003AC000002C
:1070700038C0000036C0000034C0000032C000003C
:1070800030C000002EC000002CC000002AC000004C
:1070900028C0000026C0000024C0000022C000005C
:1070A00020C000001EC000001CC0000011241FBE34
:1070B000CFEFDAE0DEBFCDBF11E0A0E0B1E0E6E463
:1070C000FFE702C005900D92A63AB107D9F711E08B
:1070D000A6EAB1E001C01D92AF3BB107E1F74FD383
:1070E00030C78ECFF89410926F001092810081E02B
:1070F00085BF15BE47985D9A289A0C9400000895A4
:107100001F920F920FB60F9211242F938F939F937C
:10711000EF93FF9310928500109284008091A60156
:107120009091A701009741F001979093A701809358
:10713000A601892B09F45D9A8091A8019091A9017B
:10714000009741F001979093A9018093A801892BA2
:1071500009F4289A8091AC019091AD010196909329
:10716000AD018093AC01E0E0F0E0859194918F5FF8
:107170009F4F49F08091AA019091AB0101969093A5
:10718000AB018093AA01FF91EF919F918F912F9175
:107190000F900FBE0F901F90189584E08093E90028
:1071A0000DC08091E8008B778093E80003C08EB318
:1071B000882351F08091E80082FFF9CF8091E800A8
:1071C00085FFEFCF8091F1000895982F83E08093A1
:1071D000E9008091E80085FD0DC08091E8008E7780
:1071E0008093E80003C08EB3882369F08091E800A3
:1071F00080FFF9CF9093F1005D9884E690E0909342
:10720000A7018093A60108954F925F926F927F929B
:107210008F929F92AF92BF92CF92DF92EF92FF92A6
:107220000F931F93CF93DF9384E08093E9008091C5
:10723000E80082FF57C2289884E690E09093A90165
:107240008093A801AADF182F853481F48CE49DE196
:107250009093AB018093AA0107B600FCFDCFF9998A
:10726000FECF81E180935700E89503C0843519F47F
:1072700094DF8DE00DC28C34E1F38035D1F3843797
:1072800021F484E4A2DF80E003C2813611F489E5B1
:10729000FFC18134B1F481DF182F7FDF90E0880FC8
:1072A000991FAA2797FDA095BA2F312F330F20E001
:1072B000442737FD4095542F822B932BA42BB52BBD
:1072C000B8C1803711F483E5E3C1833549F4C0E0E8
:1072D000D1E089917ADF21E0C730D207D1F7D9C157
:1072E000863521F481E371DF80E3D2C1833731F445
:1072F00087E86BDF85E969DF8EE1CAC18536B9F4BD
:10730000E0E0F0E093E085E090935700E89507B661
:1073100000FCFDCF80935700E89507B600FCFDCF39
:10732000E058FF4FA0E7E030FA0771F7A2CF8237AD
:1073300039F4E1E0F0E089E0809357008491A8C13E
:10734000863439F4E0E0F0E089E0809357008491DE
:107350009FC18E3439F4E3E0F0E089E08093570078
:10736000849196C1813539F4E2E0F0E089E08093C0
:10737000570084918DC1823631F489E526DF80E0A3
:1073800024DF80E885C1823419F0873609F0E5C032
:107390001092AB011092AA0100DF082FFEDEF82E3A
:1073A000FCDE682E8554823008F071C1902F80E099
:1073B000CF2DD0E0C82BD92B10926F00173609F0D3
:1073C0004BC081E180935700E895DD24CC24C39421
:1073D0003FC0E090AF01F090B0010091B101109179
:1073E000B201B6E46B16D9F4ED2DF0E0EE29FF29D9
:1073F000E4918E2FEADEDD2081F082E090E0A0E0D3
:10740000B0E0E80EF91E0A1F1B1FE092AF01F092D8
:10741000B0010093B1011093B201DC2418C0D8016F
:10742000C701B695A7959795879575D5CEDE82E06D
:1074300090E0A0E0B0E0E80EF91E0A1F1B1FE092EA
:10744000AF01F092B0010093B1011093B201219706
:10745000209709F0BECF7DC08090AF019090B00121
:10746000A090B101B090B20196E4691609F05DC038
:1074700083E0F40180935700E89507B600FCFDCF48
:1074800054C0F6E46F1661F5772031F1E090AF015A
:10749000F090B0010091B1011091B2017EDED82EC2
:1074A000CC24852D90E08C299D29F7010C01409278
:1074B0005700E895112482E090E0A0E0B0E0E80EEB
:1074C000F91E0A1F1B1FE092AF01F092B00100935A
:1074D000B1011093B20102C060DE582E742423C0A3
:1074E000E090AF01F090B0010091B1011091B201B4
:1074F00016950795F794E79450DE682FC70113D5CA
:107500008091AF019091B001A091B101B091B20111
:107510000296A11DB11D8093AF019093B001A0937D
:10752000B101B093B201219704C0552477244424BB
:107530004394209709F0A5CF96E4691641F485E0BD
:10754000F40180935700E89507B600FCFDCF8DE06D
:107550003CDE82E080936F009CC0833471F4009124
:10756000AF011091B00119DE90E021E0F8010C01AB
:1075700020935700E89511247CCE833619F5E090CE
:10758000AF01F090B0010091B1011091B20105DEA0
:10759000F701E16090E021E00C0120935700E895AD
:1075A000112482E090E0A0E0B0E0E80EF91E0A1F8E
:1075B0001B1FE092AF01F092B0010093B101109354
:1075C000B20157CE8D3661F4E091AF01F091B00178
:1075D00085E080935700E89507B600FCFDCF49CEC3
:1075E000823551F4E091AF01F091B0010591149111
:1075F000812FEBDD802F4CC0843421F5E090AF016A
:10760000F090B0010091B1011091B201169507956B
:10761000F794E794C2DD682FC70185D48091AF014C
:107620009091B001A091B101B091B2010296A11D5B
:10763000B11D8093AF019093B001A093B101B093BD
:10764000B20117CE843609F5E090AF01F090B00199
:107650000091B1011091B201D801C701B695A7956B
:107660009795879558D4B1DD82E090E0A0E0B0E036
:10767000E80EF91E0A1F1B1FE092AF01F092B00145
:107680000093B1011093B20104C08B3111F08FE36C
:107690009CDD83E08093E9009091E8008091E80010
:1076A0008E778093E80095FF04C010C08EB38823C6
:1076B000C9F08091E80080FFF9CF8091E8008E77D3
:1076C0008093E80003C08EB3882361F08091E800C6
:1076D00080FFF9CF84E08093E9008091E8008B7708
:1076E0008093E800DF91CF911F910F91FF90EF9071
:1076F000DF90CF90BF90AF909F908F907F906F90D2
:107700005F904F9008959091B701892F8F778132C4
:1077100049F58091B8018032A1F0813219F5913A92
:1077200009F58091E800877F8093E8008CE091E084
:1077300067E070E027D28091E8008B778093E800C3
:107740000895913279F48091E800877F8093E80072
:107750008CE091E067E070E079D28091E8008E776C
:107760008093E800089582E061EC42E0D1D083E0AC
:1077700061E842E1CDD084E060E842E1C9C01F93F6
:10778000209100081092000844B714BE88E10FB69B
:10779000F89480936000109260000FBE80E8E0E0F3
:1077A000F0E00FB6F89480936100E09361000FBEA3
:1077B00031E035BF92E095BF3F9A209A559A809369
:1077C00061001092610047985D9A289A1092890092
:1077D0008AEF8093880090936F0083E0809381000C
:1077E000859194918F5F9F4F11F03093AE01942F4C
:1077F00041FF19C0809109012817A9F08093000862
:10780000789480911301882339F08091AC01909194
:10781000AD018F5E9240C8F310920008F89481E0A9
:10782000809313010CC090FF04C08091AE018823A7
:1078300051F493FF09C080910901281729F0809124
:10784000AE01882309F04EDCD4D078941092AB01BD
:107850001092AA011EEF20C0D7DC4BD38091AA0161
:107860009091AB0181549F4110F0109213018091CF
:10787000B3019091B40101969093B4018093B30148
:10788000292F97FF03C0512F591B252F220F28178F
:1078900010F4479801C0479A809113018823E1F6BC
:1078A0008091E00081608093E0001CDC80E090E04B
:1078B0001F910895FA01923049F0933061F09130B0
:1078C000F9F484E191E022E130E01EC086E291E02B
:1078D0002EE330E019C0882329F484E691E024E007
:1078E00030E012C0813029F488E691E022E230E0F5
:1078F0000BC0823029F48CE891E028E130E004C02C
:1079000080E090E020E030E091838083C901089519
:107910008093E9008091EB0081608093EB001092EE
:10792000ED006093EC004093ED008091EE00881F25
:107930008827881F08958091B70188238CF403C09D
:107940008EB38823B1F08091E80082FFF9CF809157
:10795000E8008B778093E80008958EB3882349F080
:107960008091E80080FFF9CF8091E8008E778093C6
:10797000E8000895EF92FF920F931F9345D04CD0EB
:1079800008ED10E0F80180818F7780838081806826
:10799000808380818F7D808319BC1EBA1092B501CF
:1079A00080EEE82EF12CF70180818B7F8083F80137
:1079B00080818160808380E060E042E0A9DFE1EEC9
:1079C000F0E080818E7F8083E2EEF0E08081816054
:1079D0008083808188608083F70180818E7F8083AF
:1079E000F8018081806180831F910F91FF90EF905B
:1079F0000895E7EDF0E08081816080838AE482BFB2
:107A000081E08093B601B6CFE8EDF0E080818E7F13
:107A100080831092E20008951092DA001092E10043
:107A200008951F920F920FB60F9211242F933F9338
:107A30004F935F936F937F938F939F93AF93BF9376
:107A4000EF93FF938091DA0080FF1BC08091D800F4
:107A500080FF17C08091DA008E7F8093DA008091DA
:107A6000D90080FF0BC080E189BD82E189BD09B4E6
:107A700000FEFDCF81E08EBB3BD203C019BC1EBA15
:107A800037D28091E10080FF17C08091E20080FF33
:107A900013C08091E2008E7F8093E2008091E2002B
:107AA00080618093E2008091D80080628093D8004A
:107AB00019BC85E08EBB1CD28091E10084FF2CC0F4
:107AC0008091E20084FF28C080E189BD82E189BD08
:107AD00009B400FEFDCF8091D8008F7D8093D8003F
:107AE0008091E1008F7E8093E1008091E2008F7EA3
:107AF0008093E2008091E20081608093E2008091B7
:107B0000B501882331F48091E30087FD02C081E054
:107B100001C084E08EBBECD18091E10083FF21C0E5
:107B20008091E20083FF1DC08091E100877F8093F8
:107B3000E10082E08EBB1092B5018091E1008E7F62
:107B40008093E1008091E2008E7F8093E20080913B
:107B5000E20080618093E20080E060E042E0D8DEF5
:107B6000C7D1FF91EF91BF91AF919F918F917F917D
:107B70006F915F914F913F912F910F900FBE0F909A
:107B80001F9018959C014091BD015091BE01461770
:107B9000570718F4F90190E044C06115710511F020
:107BA000AB01F8CF8091E8008E778093E80040E049
:107BB00050E0F0CF8EB3882309F444C0853009F437
:107BC00043C08091E80083FF02C081E00895809166
:107BD000E80082FD31C08091E80080FF22C08091E2
:107BE000F3009091F200782F60E0292F30E0262BEF
:107BF000372B07C081918093F100415050402F5F97
:107C00003F4F4115510519F02830310598F390E0A8
:107C10002830310509F491E08091E8008E77809357
:107C2000E8004115510531F6992321F605C08EB3C0
:107C3000882341F0853041F08091E80082FFF7CF42
:107C400080E0089582E0089583E008959C01611525
:107C5000710529F48091E8008B778093E800F901A1
:107C600026C08EB3882391F1853091F18091E80090
:107C700083FF02C081E008958091E80082FFF1CF88
:107C800006C08091F10081936150704059F02091BD
:107C9000F3008091F200322F20E090E0822B932BB2
:107CA000892B79F78091E8008B778093E800611544
:107CB0007105B9F605C08EB3882341F0853041F0D7
:107CC0008091E80080FFF7CF80E0089582E008957A
:107CD00083E008950F931F93DF93CF9300D0CDB728
:107CE000DEB7E7EBF1E08091F100819381E0EF3BBB
:107CF000F807C9F708DD8091E80083FFE4C08091B0
:107D0000B7019091B801953009F46DC0963040F4F8
:107D1000913081F1913070F0933009F0D4C02AC0D5
:107D2000983009F4A3C0993009F4B2C0963009F034
:107D3000CAC07CC0803809F4C6C0823809F0C3C00C
:107D40008091BB0187708093E9008091EB001092D5
:107D5000E9002091E800277F2093E80090E025E0EB
:107D6000969587952A95E1F781708093F10010929E
:107D7000F10087C0882319F0823009F0A4C08F7108
:107D8000823009F0A0C08091B901882331F520919B
:107D9000BB01277009F497C02093E9008091EB00A4
:107DA00080FF1BC0933021F48091EB00806213C0F0
:107DB0008091EB0080618093EB0081E090E002C055
:107DC000880F991F2A95E2F78093EA001092EA0043
:107DD0008091EB0088608093EB001092E900809125
:107DE000E800877F51C0882309F06DC01091B90168
:107DF0001F770FB7F8948091E800877F8093E800A1
:107E00009ADD8091E80080FFFCCF8091E3008078CC
:107E1000812B8093E30080688093E300112311F4A9
:107E200082E001C083E08EBB0FBF4DC0805882301E
:107E300008F049C08091B9019091BA016091BB01ED
:107E4000AE014F5F5F4F36DDBC01009709F43BC0C8
:107E50008091E800877F8093E80089819A8192DE93
:107E60008091E8008B778093E8002DC0803859F529
:107E70008091E800877F8093E8008091B50180932E
:107E8000F1008091E8008E778093E80054DD1BC0FC
:107E90008823C9F49091B9019230A8F48091E80048
:107EA000877F8093E8009093B50145DD8091B5010F
:107EB000882331F48091E30087FD02C081E001C096
:107EC00084E08EBB50DC8091E80083FF0AC0809183
:107ED000EB0080628093EB008091E800877F8093C5
:107EE000E8000F900F90CF91DF911F910F910895AF
:107EF00008951F938EB3882361F01091E9001092CA
:107F0000E9008091E80083FF01C0E4DE1770109360
:107F1000E9001F910895F999FECF92BD81BDF89AAD
:107F2000992780B50895262FF999FECF1FBA92BDE3
:107F300081BD20BD0FB6F894FA9AF99A0FBE01964A
:067F40000895F894FFCF44
:107F46004341544552494E41007700080000000065
:107F5600000008011201100102000008412341003F
:107F660001000201000109023E00020100803209FF
:107F7600040000010202010005240010010424028D
:107F8600040524060001070582030800FF09040111
:107F960000020A000000070504021000010705831D
:107FA6000210000104030904220341007200640068
:107FB600750069006E006F002000590075006E00A4
:107FC60020002000200020002000000018034100AF
:107FD60072006400750069006E006F0020004C009E
:067FE6004C004300000006
:040000030000700089
:00000001FF
