:100000000C941B010C9443010C9443010C94430188
:100010000C9443010C9443010C9443010C94430150
:100020000C9443010C9443010C9414040C949B0411
:100030000C9443010C9443010C9443010C94430130
:100040000C9443010C9443010C9443010C94430120
:100050000C9443010C9443010C9443010C94870AC3
:100060000C9443010C94AD080C94F4080C944301D7
:100070000C9443010C9443010C9443010C944301F0
:100080000C9443010C9443010C9443010C944301E0
:100090000C9443010C9443010C9443010C944301D0
:1000A0000C9443010C9443010C9443010403090490
:1000B0004C696E696E6F204F6E6500446F6768759E
:1000C0006E746572001201000200000040032A01F4
:1000D0008000010102000112010002020000400341
:1000E0002A018000010102000100C18081C1080BCA
:1000F00000020202010009040000010202000005E2
:10010000240010010524010101042402060524062F
:1001100000010705810310004009040100020A00E4
:1001200000000705020240000007058302400000AE
:1001300005010902A1010901A100850105091901B3
:1001400029031500250195037501810295017505A7
:10015000810305010930093109381581257F7508AA
:1001600095038106C0C005010906A10185020507A6
:1001700019E029E71500250175019508810295010F
:100180007508810395067508150025650507190092
:1001900029658100C0090402000103000000092153
:1001A00001010001226500070584034000010000F1
:1001B0000000000000002A2B2800000000000000C2
:1001C00000000000000000000000000000002C9E65
:1001D000B4A0A1A2A434A6A7A5AE362D3738271EF9
:1001E0001F20212223242526B333B62EB7B89F849F
:1001F00085868788898A8B8C8D8E8F909192939437
:1002000095969798999A9B9C9D2F3130A3AD350474
:1002100005060708090A0B0C0D0E0F101112131416
:1002200015161718191A1B1C1DAFB1B0B5005003D5
:100230009D06A307310A11241FBECFEFDAE0DEBF0F
:10024000CDBF11E0A0E0B1E0E0E7F7E102C005902A
:100250000D92AC3BB107D9F712E0ACEBB1E001C0B5
:100260001D92AC3CB107E1F712E0C6E3D2E004C056
:100270002297FE010E94B20BCE32D107C9F70E942D
:10028000E5010C94B60B0C94000086EC91E060E064
:1002900072EC0E94620640917D0150917E01609156
:1002A0007F017091800181E292E00E94240908950B
:1002B0001F9386EC91E00E946306892B09F474C0B9
:1002C00086EC91E00E947F06182F8091BC01882364
:1002D00079F41E3721F481E08093BC0165C0612F61
:1002E000772767FD709581E292E00E94F5095CC076
:1002F000103369F481E292E040E051EE60E070E09A
:100300000E94240986EC91E060E071E00EC0113398
:1003100079F481E292E040E052EC61E070E00E940A
:10032000240986EC91E063E171E00E944F063AC037
:10033000123369F481E292E040E950ED63E070E04D
:100340000E94240986EC91E067E271E0EECF13335E
:1003500069F481E292E040E251EA67E070E00E94D5
:10036000240986EC91E06BE371E0DFCF1E3769F47E
:1003700081E292E06FE471E04BE050E00E94E90519
:1003800086EC91E06BE571E0D0CF81E292E06EE720
:100390000E94F509612F772767FD709581E292E051
:1003A0000E94F5091092BC0181E292E00E94AB0923
:1003B000892B49F081E292E00E94C709682F86EC00
:1003C00091E00E94B4061F910895CF93DF930E949D
:1003D000CF0A85EC91E00E9451030E944501C4EED2
:1003E000D8E00E9458012097E1F30E94E408F9CF79
:1003F000282F8091BF018823C1F057FF1AC015C074
:1004000028989093BE018091F1008193E217F30741
:10041000B9F74115510539F08091F200882319F49C
:100420008BE68093E800AFBF02C04FEF5FEFCA01D9
:100430000895AFB7F89427702093E9008091F200F7
:10044000282F30E0241735070CF4A901FB019B018C
:10045000240F311D94E6DACFDF93CF930F92CDB7FF
:10046000DEB7BE016F5F7F4F41E050E00E94F801B0
:10047000019719F02FEF3FEF03C08981282F30E05B
:10048000C9010F90CF91DF910895FF920F931F93B1
:10049000F82E142F052F4091C2015091C301212F36
:1004A000302FC901DC01FB016EEF29C0F7FE02C04D
:1004B000949101C090812091C0013091C101241715
:1004C0003507ACF48091E8008570E1F38091E80095
:1004D00082FF03C02FEF3FEF17C09093F100C901D7
:1004E00001968F739070892B11F46093E8002F5F51
:1004F0003F4F3093C1012093C0011197319610975F
:10050000A9F6812F902F9C01C9011F910F91FF9097
:1005100008951F93782FE92F162F2091C001309155
:10052000C101A091C201B091C3012A173B07C4F4D5
:100530008091E8008570E1F38091E80082FD16C0AB
:10054000812F90E00196880F991F8093F100C901D7
:1005500001968F739070892B19F48EEF8093E800C9
:100560002F5F3F4F3093C1012093C0012091C00104
:100570003091C1012A173B07A4F48091E8008570EF
:10058000E1F38091E80082FD12C083E08093F100E6
:10059000C90101968F739070892B19F48EEF8093A7
:1005A000E8002F5F3F4F3093C1012093C00140917D
:1005B000C0015091C101872F9E2FFC0170E06EEFAA
:1005C00043C094914A175B07A4F48091E8008570BA
:1005D000E1F38091E80082FF02C020E00DC090931B
:1005E000F100CA0101968F739070892B11F460930A
:1005F000E8004F5F5F4F21E04A175B07A4F480914A
:10060000E8008570E1F38091E80082FF02C080E09D
:100610000DC01092F100CA0101968F739070892B62
:1006200011F46093E8004F5F5F4F81E0319690E0F6
:1006300030E082239323892B31F45093C1014093FE
:10064000C00180E009C07F5F711708F4BACF5093F2
:10065000C1014093C00181E01F9108959C018091E8
:10066000E80082FFFCCFF901260F311D03C0809105
:10067000F1008193E217F307D1F7289884E680937D
:10068000BE018BEF8093E800CB0108958093E900D1
:100690008091F200882319F08AE38093E80008959E
:1006A00008951092BF0181E08093D70080EA809383
:1006B000D80082E189BD09B400FEFDCF61E070E0A1
:1006C00080E090E00E94250B80E98093D8008CE0C8
:1006D0008093E2001092E000559A209A08955F926C
:1006E0006F927F928F929F92AF92BF92CF92DF9242
:1006F000EF92FF920F931F93CF93DF93E82E842EF8
:10070000752E8091BF01882371F18B01242F352F25
:10071000C901EC01AAEFFA2EF7E09F2E9E20E0E43B
:100720005E2E8E2D90E070E2A72EB12CA822B92269
:100730006AE3662E50E4C52ED12CC822D92258C0B7
:100740009FB7F8949092E9008091E80085FD02C07F
:1007500020E004C08091F200252D281B9FBF22239A
:1007600061F4FA9419F42FEF3FEF4DC061E070E0AF
:1007700080E090E00E94250B3BC0822F90E0C817DC
:10078000D9070CF42C2FC21BD1094FB7F8949092C3
:10079000E900A114B10421F406C01092F100215027
:1007A0002223D9F719C0E7FC03C0F801922F10C02B
:1007B000C801322F06C0FC010196E491E093F100DC
:1007C00031503323C1F706C081918093F1009150DD
:1007D0009923D1F7020F111D8091E80085FF05C014
:1007E000209729F4C114D10411F06092E8004FBFA2
:1007F000209709F0A5CF5D9884E68093BD01282D50
:10080000372DC9019C01C901DF91CF911F910F9133
:10081000FF90EF90DF90CF90BF90AF909F908F9020
:100820007F906F905F9008951F920F920FB60F9276
:1008300011242F933F934F935F936F937F938F93E5
:100840009F93AF93BF93EF93FF938091E10010923A
:10085000E100982F83FF0FC01092E90081E08093A0
:10086000EB001092EC0082E38093ED001092BF0148
:1008700088E08093F00092FF34C083E08093E90029
:100880008091F200882319F08AE38093E8008FB703
:10089000F89492E09093E9009091F2008FBF992331
:1008A00021F086EC91E00E94E0068091BD01882352
:1008B00051F08091BD0181508093BD018091BD01B7
:1008C000882309F45D9A8091BE01882351F08091BC
:1008D000BE0181508093BE018091BE01882309F43E
:1008E000289AFF91EF91BF91AF919F918F917F9146
:1008F0006F915F914F913F912F910F900FBE0F908D
:100900001F9018950F931F93DF93CF930F92CDB73E
:10091000DEB719828E010F5F1F4FC8010E940707C3
:10092000C8010E94A008898190E00F90CF91DF91CB
:100930001F910F9108951F920F920FB60F921124DD
:10094000EF92FF921F932F933F934F935F936F9379
:100950007F938F939F93AF93BF93EF93FF93DF9317
:10096000CF93CDB7DEB76197DEBFCDBF1092E90060
:100970008091E80083FF14C1FE0131969E01275F3C
:100980003F4F03C08091F1008193E217F307D1F745
:10099000289884E68093BE0182EF8093E8009981D5
:1009A00097FF05C08091E80080FFFCCF03C08EEF69
:1009B0008093E800292F30E0C90180769070892B60
:1009C00009F0C7C08A81882329F41092F10010929F
:1009D000F100DBC0813009F4D8C0833009F4D5C000
:1009E000853049F48091E80080FFFCCF8B818068DE
:1009F0008093E300CAC0863009F081C01C81EF807B
:100A0000F8841230C1F51092E9001092C1011092E1
:100A1000C0011092C3011092C2010E94820499E0A9
:100A2000FE013996DF01292F1D922A95E9F7998752
:100A30001A8791E09E8790E8988B9AEF998B209186
:100A4000C0013091C101275F3F4F3C872B878D87C5
:100A50001092E9001092C1011092C001F092C301FE
:100A6000E092C20180E0BF0149E050E00E944502EF
:100A70000E9482048AC01092E9001092C101109273
:100A8000C001F092C301E092C201123241F482E24D
:100A900090E00E949808892B09F47BC076C0113041
:100AA00079F488E0E816F10419F481E08093C40138
:100AB0008091C401882309F070C0E5ECF0E018C013
:100AC000133009F066C08B81882319F4ECEAF0E05A
:100AD0000FC0823021F480EB90E06AE006C08130E4
:100AE00009F057C08BEB90E069E00E9489024BC08F
:100AF000449180E8BF0150E00E94450246C0873023
:100B000009F447C0883021F481E08093F1003DC0B2
:100B10008930D9F523703070232BD9F5EAEEF0E057
:100B200091E031E026E39093E9003093EB0084916B
:100B30008093EC002093ED009F5F3196953099F7FC
:100B40008EE78093EA001092EA008B818093BF01C8
:100B50001CC08F8198851092E9001092C1011092FB
:100B6000C0019093C3018093C2018D81882329F431
:100B7000CE0101960E94130706C0823051F4CE01C7
:100B800001960E946907882321F08EEF8093E80088
:100B900007C081E28093EB0003C0E7EDF0E0A8CF4F
:100BA0006196DEBFCDBFCF91DF91FF91EF91BF91F5
:100BB000AF919F918F917F916F915F914F913F91F5
:100BC0002F911F91FF90EF900F900FBE0F901F90ED
:100BD0001895CF92DF92EF92FF920F931F93CF93CE
:100BE000DF937C016B018A01C0E0D0E00FC0D60129
:100BF0006D916D01D701ED91FC910190F081E02D97
:100C0000C7010995C80FD91F0150104001151105E2
:100C100071F7CE01DF91CF911F910F91FF90EF906F
:100C2000DF90CF900895EF92FF920F931F938C0166
:100C3000DC01ED91FC910190F081E02D6DE00995D2
:100C40007C01D801ED91FC910190F081E02DC8016B
:100C50006AE009959C012E0D3F1DC9011F910F915E
:100C6000FF90EF900895CF93DF93EC01611571052C
:100C700019F420E030E00FC0DB010D900020E9F70F
:100C80001197A61BB70BE881F9810280F381E02D53
:100C9000AD0109959C01C901DF91CF910895EF92B3
:100CA000FF920F931F937C010E9433068C01C701B2
:100CB0000E941306080F191FC8011F910F91FF9082
:100CC000EF9008950895FC012485858530E0205C2F
:100CD0003F4F281B31092F733070C9010895FC0163
:100CE00094858585981719F42FEF3FEF06C0858509
:100CF000E80FF11D8685282F30E0C9010895DC0139
:100D00001C969C911C971D968C911D97981719F411
:100D10002FEF3FEF10C01D968C911D97FD01E80F3E
:100D2000F11D96851D968C911D978F5F8F731D9673
:100D30008C93292F30E0C90108951092C9011092B7
:100D4000C80188EE93E0A0E0B0E08093CA019093E0
:100D5000CB01A093CC01B093CD018FE891E09093AB
:100D6000C7018093C60108950F931F93DF93CF931C
:100D70000F92CDB7DEB78C016983809188018823FB
:100D800069F083E0BE016F5F7F4F41E050E00E9459
:100D90006F031816190614F49C0107C081E090E057
:100DA000F8019383828320E030E0C9010F90CF9156
:100DB000DF911F910F91089583E00E9446030895EB
:100DC0000F931F93CF93DF938C01FC010FC082E040
:100DD0000E942C029C01FFEF8F3F9F0799F0F801C2
:100DE0008485E80FF11D2687F801C4878485C82F04
:100DF000D0E02196CF73D070F801858590E0C817B8
:100E0000D90729F7DF91CF911F910F910895FC0128
:100E100080818E5F808380E86EEE70E042E450E077
:100E20000E9445020895FC0181819081913A59F414
:100E3000813209F04CC080E061E871E047E050E0A9
:100E40000E94450242C0913209F041C0803239F41B
:100E500081E891E067E070E00E942E0336C08232A4
:100E600009F035C082818093880180918101909141
:100E70008201A0918301B0918401805B9440A040E5
:100E8000B04019F58091880180FD12C087E797E78F
:100E900090930108809300082BE088E190E00FB662
:100EA000F894A895809360000FBE209360000DC059
:100EB00088E10FB6F89480936000109260000FBE36
:100EC000A895109201081092000881E0089580E032
:100ED0000895FC0191818081813A31F4913089F04B
:100EE00080E0933089F40DC0813269F49B3021F4A5
:100EF00082818093890105C09A3029F48281809390
:100F00008A0181E0089580E00895EF92FF920F93A7
:100F10001F938C01E62EDC01ED91FC910480F5819C
:100F2000E02D0995F82ED801ED91FC910680F7810E
:100F3000E02DC8016E2D09958F2D90E01F910F9126
:100F4000FF90EF90089510921402109218021092E0
:100F5000170281EA91E0909316028093150208959A
:100F6000EF92FF920F931F93DF93CF930F92CDB722
:100F7000DEB789838B017A0184E0BE016F5F7F4F0A
:100F800041E050E00E946F0384E4B801A7010E9491
:100F90006F030F90CF91DF911F910F91FF90EF9012
:100FA000089582E048E050E00E94B0070895FC01F7
:100FB0001682178210861186128613861482349642
:100FC000BF010E94D1070895DC01683810F068580D
:100FD00029C0E62FF0E067FF13C0E058F04081E041
:100FE00090E002C0880F991FEA95E2F78095149669
:100FF0002C911497282314962C93149760E012C018
:10100000E255FE4F6491662319F420E030E01DC0E4
:1010100067FF08C014968C9114978D7F14968C935B
:1010200014976F77FD0190E0662321F08681861783
:1010300009F416829F5F31969630B1F7CD01149670
:10104000BD010E94D10721E030E0C9010895CF938E
:10105000DF93DC01683810F0685825C0E62FF0E017
:1010600067FF12C0E058F04081E090E002C0880FB6
:10107000991FEA95E2F714962C911497282B149651
:101080002C93149760E00FC0E255FE4F64916623E5
:10109000D9F167FF08C014968C911497826014965A
:1010A0008C9314976F7716968C9116978617A9F1E3
:1010B00017968C911797861781F118968C9118972F
:1010C000861759F119968C911997861731F11A964E
:1010D0008C911A97861709F11B968C911B9786178E
:1010E000E1F0ED01E0E0F0E09E2F8E81882321F415
:1010F000EA0FFB1F668306C09F5F31962196E6309C
:10110000F10591F7963049F481E090E013969C93B5
:101110008E93129720E030E007C0CD011496BD01F8
:101120000E94D10721E030E0C901DF91CF910895FD
:1011300080E860E371E045E650E00E9445020895D2
:10114000FC0180818F5F808380E865E971E049E17F
:1011500050E00E944502089508951F920F920FB625
:101160000F9211242F933F934F938F939F93EF935D
:10117000FF938091C80082FD19C04091CE008091FC
:101180003F02282F30E02F5F3F4F2F733070809148
:10119000400290E02817390759F0E0913F02F0E053
:1011A000EF5DFD4F42A320933F0202C08091CE002D
:1011B000FF91EF919F918F914F913F912F910F90C0
:1011C0000FBE0F901F90189580913F022091400212
:1011D00090E0805C9F4F821B91098F739070892BE8
:1011E00011F00E94AC0808951F920F920FB60F9253
:1011F00011242F938F939F93EF93FF93909141022C
:1012000080914202981731F48091C9008F7D8093BC
:10121000C90010C0E0914202F0E0ED57FD4F20817F
:101220008091420290E001968F7390708093420209
:101230002093CE00FF91EF919F918F912F910F906E
:101240000FBE0F901F901895AF92BF92DF92EF9252
:10125000FF920F931F93CF93DF93EC017A018B01E1
:10126000DD24403081EE580780E0680780E0780791
:1012700011F0DD24D39491E0A92EB12CE889F989ED
:10128000DD2069F0C5010C8C02C0880F991F0A94FB
:10129000E2F7808360E079E08DE390E005C01082A2
:1012A00060E874E88EE190E0A80197010E948E0B3F
:1012B00021503040404050405695479537952795EE
:1012C00080E12030380720F0DD2011F0DD24D6CF7A
:1012D000EC85FD853083EE85FF8520831D8EEA89B0
:1012E000FB89408121E030E0C901088C02C0880FF1
:1012F000991F0A94E2F7482B4083EA89FB894081D1
:10130000C901098C02C0880F991F0A94E2F7482B83
:101310004083EA89FB894081C9010A8C02C0880F99
:10132000991F0A94E2F7482B4083EA89FB89808160
:101330000B8C02C0220F331F0A94E2F7209528235A
:101340002083DF91CF911F910F91FF90EF90DF905D
:10135000BF90AF900895FC01268D878D30E0205C12
:101360003F4F281B31092F733070C9010895FC01CC
:10137000968D878D981719F42FEF3FEF06C0878D54
:10138000E80FF11D82A1282F30E0C9010895DC018A
:101390005E969C915E975F968C915F97981719F473
:1013A0002FEF3FEF10C05F968C915F97FD01E80F24
:1013B000F11D92A15F968C915F978F5F8F735F96FF
:1013C0008C93292F30E0C9010895DC015D968C9142
:1013D0005D97882339F05096ED91FC91519780816B
:1013E00086FFF9CF5D961C920895DC0190968C9152
:1013F0009097282F30E02F5F3F4F2F7330709196DA
:101400008C91919790E028173907C9F390968C91A9
:101410009097FD01E80FF11DEE59FF4F6083909604
:101420002C9390975296ED91FC915397208181E0F7
:1014300090E05B960C905B9702C0880F991F0A940E
:10144000E2F7282B208381E05D968C935D97509680
:10145000ED91FC91519780818064808381E090E0E0
:101460000895109224021092230288EE93E0A0E0E7
:10147000B0E08093250290932602A0932702B093B8
:1014800028028FEA91E09093220280932102109229
:101490004202809142028093410210924002809168
:1014A000400280933F028DEC90E090932E02809357
:1014B0002D028CEC90E09093300280932F0288EC08
:1014C00090E0909332028093310289EC90E0909307
:1014D0003402809333028AEC90E09093360280933A
:1014E00035028EEC90E0909338028093370284E0CE
:1014F0008093390283E080933A0287E080933B0235
:1015000085E080933C0281E080933D0208951F9224
:101510000F920FB60F9211242F933F938F939F93A7
:10152000AF93BF938091C7029091C802A091C90266
:10153000B091CA023091CB020196A11DB11D232F9B
:101540002D5F2D3720F02D570196A11DB11D209341
:10155000CB028093C7029093C802A093C902B093B4
:10156000CA028091C3029091C402A091C502B091B9
:10157000C6020196A11DB11D8093C3029093C402BF
:10158000A093C502B093C602BF91AF919F918F9176
:101590003F912F910F900FBE0F901F901895789448
:1015A00084B5826084BD84B5816084BD85B5826068
:1015B00085BD85B5816085BDEEE6F0E08081816006
:1015C0008083E1E8F0E01082808182608083808106
:1015D00081608083E0E8F0E0808181608083E1E9E0
:1015E000F0E0808182608083808181608083E0E997
:1015F000F0E0808181608083E1ECF0E080818460B4
:101600008083808182608083808181608083E3EC3D
:10161000F0E0808181608083E0ECF0E08081826096
:101620008083E2ECF0E0808181608083EAE7F0E093
:1016300080818460808380818260808380818160FA
:1016400080838081806880830895EF92FF920F935A
:101650001F93CF93DF937B018C013FB7F894809168
:10166000C3029091C402A091C502B091C60226B5F2
:10167000A89B05C02F3F19F00196A11DB11D3FBFCA
:10168000BA2FA92F982F8827820F911DA11DB11D58
:1016900052E0880F991FAA1FBB1F5A95D1F7EC0182
:1016A00030C00E948D0B3FB7F8948091C302909197
:1016B000C402A091C502B091C60226B5A89B05C080
:1016C0002F3F19F00196A11DB11D3FBFBA2FA92FC1
:1016D000982F8827820F911DA11DB11D32E0880F20
:1016E000991FAA1FBB1F3A95D1F78C1B9D0B885ED3
:1016F0009340B8F20894E108F10801091109C851B2
:10170000DC4FE114F1040105110559F6DF91CF9189
:101710001F910F91FF90EF9008950895A1E21A2E66
:10172000AA1BBB1BFD010DC0AA1FBB1FEE1FFF1F85
:10173000A217B307E407F50720F0A21BB30BE40BD5
:10174000F50B661F771F881F991F1A9469F760951C
:101750007095809590959B01AC01BD01CF010895D6
:10176000EE0FFF1F0590F491E02D0994F894FFCF40
:1017700053706565642073657420746F2035373647
:1017800030300053706565642073657420746F2079
:1017900031313532303000537065656420736574C3
:1017A00020746F20323530303030005370656564FE
:1017B0002073657420746F2035303030303000FF76
:1017C00000000558585858580DAF0053656E6469AD
:1017D0006E67206272696467652773207368757429
:1017E000646F776E20636F6D6D616E640000C2017F
:1017F0000000E1000000000000010100000000B452
:1018000006E90563067F066F06DC06E006000000B9
:10181000008507E9052708E407D70700000000F561
:0C18200009E905AB09C709B709E5090093
:00000001FF
